{
	"@pythnetwork/pyth-sdk-solidity/MockPyth.sol": {
		"MockPyth": {
			"abi": [
				{
					"inputs": [
						{
							"internalType": "uint256",
							"name": "_validTimePeriod",
							"type": "uint256"
						},
						{
							"internalType": "uint256",
							"name": "_singleUpdateFeeInWei",
							"type": "uint256"
						}
					],
					"stateMutability": "nonpayable",
					"type": "constructor"
				},
				{
					"inputs": [],
					"name": "InsufficientFee",
					"type": "error"
				},
				{
					"inputs": [],
					"name": "InvalidArgument",
					"type": "error"
				},
				{
					"inputs": [],
					"name": "NoFreshUpdate",
					"type": "error"
				},
				{
					"inputs": [],
					"name": "PriceFeedNotFound",
					"type": "error"
				},
				{
					"inputs": [],
					"name": "PriceFeedNotFoundWithinRange",
					"type": "error"
				},
				{
					"inputs": [],
					"name": "StalePrice",
					"type": "error"
				},
				{
					"anonymous": false,
					"inputs": [
						{
							"indexed": false,
							"internalType": "uint16",
							"name": "chainId",
							"type": "uint16"
						},
						{
							"indexed": false,
							"internalType": "uint64",
							"name": "sequenceNumber",
							"type": "uint64"
						}
					],
					"name": "BatchPriceFeedUpdate",
					"type": "event"
				},
				{
					"anonymous": false,
					"inputs": [
						{
							"indexed": true,
							"internalType": "bytes32",
							"name": "id",
							"type": "bytes32"
						},
						{
							"indexed": false,
							"internalType": "uint64",
							"name": "publishTime",
							"type": "uint64"
						},
						{
							"indexed": false,
							"internalType": "int64",
							"name": "price",
							"type": "int64"
						},
						{
							"indexed": false,
							"internalType": "uint64",
							"name": "conf",
							"type": "uint64"
						}
					],
					"name": "PriceFeedUpdate",
					"type": "event"
				},
				{
					"inputs": [
						{
							"internalType": "bytes32",
							"name": "id",
							"type": "bytes32"
						},
						{
							"internalType": "int64",
							"name": "price",
							"type": "int64"
						},
						{
							"internalType": "uint64",
							"name": "conf",
							"type": "uint64"
						},
						{
							"internalType": "int32",
							"name": "expo",
							"type": "int32"
						},
						{
							"internalType": "int64",
							"name": "emaPrice",
							"type": "int64"
						},
						{
							"internalType": "uint64",
							"name": "emaConf",
							"type": "uint64"
						},
						{
							"internalType": "uint64",
							"name": "publishTime",
							"type": "uint64"
						},
						{
							"internalType": "uint64",
							"name": "prevPublishTime",
							"type": "uint64"
						}
					],
					"name": "createPriceFeedUpdateData",
					"outputs": [
						{
							"internalType": "bytes",
							"name": "priceFeedData",
							"type": "bytes"
						}
					],
					"stateMutability": "pure",
					"type": "function"
				},
				{
					"inputs": [
						{
							"internalType": "bytes32",
							"name": "id",
							"type": "bytes32"
						}
					],
					"name": "getEmaPrice",
					"outputs": [
						{
							"components": [
								{
									"internalType": "int64",
									"name": "price",
									"type": "int64"
								},
								{
									"internalType": "uint64",
									"name": "conf",
									"type": "uint64"
								},
								{
									"internalType": "int32",
									"name": "expo",
									"type": "int32"
								},
								{
									"internalType": "uint256",
									"name": "publishTime",
									"type": "uint256"
								}
							],
							"internalType": "struct PythStructs.Price",
							"name": "price",
							"type": "tuple"
						}
					],
					"stateMutability": "view",
					"type": "function"
				},
				{
					"inputs": [
						{
							"internalType": "bytes32",
							"name": "id",
							"type": "bytes32"
						},
						{
							"internalType": "uint256",
							"name": "age",
							"type": "uint256"
						}
					],
					"name": "getEmaPriceNoOlderThan",
					"outputs": [
						{
							"components": [
								{
									"internalType": "int64",
									"name": "price",
									"type": "int64"
								},
								{
									"internalType": "uint64",
									"name": "conf",
									"type": "uint64"
								},
								{
									"internalType": "int32",
									"name": "expo",
									"type": "int32"
								},
								{
									"internalType": "uint256",
									"name": "publishTime",
									"type": "uint256"
								}
							],
							"internalType": "struct PythStructs.Price",
							"name": "price",
							"type": "tuple"
						}
					],
					"stateMutability": "view",
					"type": "function"
				},
				{
					"inputs": [
						{
							"internalType": "bytes32",
							"name": "id",
							"type": "bytes32"
						}
					],
					"name": "getEmaPriceUnsafe",
					"outputs": [
						{
							"components": [
								{
									"internalType": "int64",
									"name": "price",
									"type": "int64"
								},
								{
									"internalType": "uint64",
									"name": "conf",
									"type": "uint64"
								},
								{
									"internalType": "int32",
									"name": "expo",
									"type": "int32"
								},
								{
									"internalType": "uint256",
									"name": "publishTime",
									"type": "uint256"
								}
							],
							"internalType": "struct PythStructs.Price",
							"name": "price",
							"type": "tuple"
						}
					],
					"stateMutability": "view",
					"type": "function"
				},
				{
					"inputs": [
						{
							"internalType": "bytes32",
							"name": "id",
							"type": "bytes32"
						}
					],
					"name": "getPrice",
					"outputs": [
						{
							"components": [
								{
									"internalType": "int64",
									"name": "price",
									"type": "int64"
								},
								{
									"internalType": "uint64",
									"name": "conf",
									"type": "uint64"
								},
								{
									"internalType": "int32",
									"name": "expo",
									"type": "int32"
								},
								{
									"internalType": "uint256",
									"name": "publishTime",
									"type": "uint256"
								}
							],
							"internalType": "struct PythStructs.Price",
							"name": "price",
							"type": "tuple"
						}
					],
					"stateMutability": "view",
					"type": "function"
				},
				{
					"inputs": [
						{
							"internalType": "bytes32",
							"name": "id",
							"type": "bytes32"
						},
						{
							"internalType": "uint256",
							"name": "age",
							"type": "uint256"
						}
					],
					"name": "getPriceNoOlderThan",
					"outputs": [
						{
							"components": [
								{
									"internalType": "int64",
									"name": "price",
									"type": "int64"
								},
								{
									"internalType": "uint64",
									"name": "conf",
									"type": "uint64"
								},
								{
									"internalType": "int32",
									"name": "expo",
									"type": "int32"
								},
								{
									"internalType": "uint256",
									"name": "publishTime",
									"type": "uint256"
								}
							],
							"internalType": "struct PythStructs.Price",
							"name": "price",
							"type": "tuple"
						}
					],
					"stateMutability": "view",
					"type": "function"
				},
				{
					"inputs": [
						{
							"internalType": "bytes32",
							"name": "id",
							"type": "bytes32"
						}
					],
					"name": "getPriceUnsafe",
					"outputs": [
						{
							"components": [
								{
									"internalType": "int64",
									"name": "price",
									"type": "int64"
								},
								{
									"internalType": "uint64",
									"name": "conf",
									"type": "uint64"
								},
								{
									"internalType": "int32",
									"name": "expo",
									"type": "int32"
								},
								{
									"internalType": "uint256",
									"name": "publishTime",
									"type": "uint256"
								}
							],
							"internalType": "struct PythStructs.Price",
							"name": "price",
							"type": "tuple"
						}
					],
					"stateMutability": "view",
					"type": "function"
				},
				{
					"inputs": [
						{
							"internalType": "bytes[]",
							"name": "updateData",
							"type": "bytes[]"
						}
					],
					"name": "getUpdateFee",
					"outputs": [
						{
							"internalType": "uint256",
							"name": "feeAmount",
							"type": "uint256"
						}
					],
					"stateMutability": "view",
					"type": "function"
				},
				{
					"inputs": [],
					"name": "getValidTimePeriod",
					"outputs": [
						{
							"internalType": "uint256",
							"name": "",
							"type": "uint256"
						}
					],
					"stateMutability": "view",
					"type": "function"
				},
				{
					"inputs": [
						{
							"internalType": "bytes[]",
							"name": "updateData",
							"type": "bytes[]"
						},
						{
							"internalType": "bytes32[]",
							"name": "priceIds",
							"type": "bytes32[]"
						},
						{
							"internalType": "uint64",
							"name": "minPublishTime",
							"type": "uint64"
						},
						{
							"internalType": "uint64",
							"name": "maxPublishTime",
							"type": "uint64"
						}
					],
					"name": "parsePriceFeedUpdates",
					"outputs": [
						{
							"components": [
								{
									"internalType": "bytes32",
									"name": "id",
									"type": "bytes32"
								},
								{
									"components": [
										{
											"internalType": "int64",
											"name": "price",
											"type": "int64"
										},
										{
											"internalType": "uint64",
											"name": "conf",
											"type": "uint64"
										},
										{
											"internalType": "int32",
											"name": "expo",
											"type": "int32"
										},
										{
											"internalType": "uint256",
											"name": "publishTime",
											"type": "uint256"
										}
									],
									"internalType": "struct PythStructs.Price",
									"name": "price",
									"type": "tuple"
								},
								{
									"components": [
										{
											"internalType": "int64",
											"name": "price",
											"type": "int64"
										},
										{
											"internalType": "uint64",
											"name": "conf",
											"type": "uint64"
										},
										{
											"internalType": "int32",
											"name": "expo",
											"type": "int32"
										},
										{
											"internalType": "uint256",
											"name": "publishTime",
											"type": "uint256"
										}
									],
									"internalType": "struct PythStructs.Price",
									"name": "emaPrice",
									"type": "tuple"
								}
							],
							"internalType": "struct PythStructs.PriceFeed[]",
							"name": "feeds",
							"type": "tuple[]"
						}
					],
					"stateMutability": "payable",
					"type": "function"
				},
				{
					"inputs": [
						{
							"internalType": "bytes[]",
							"name": "updateData",
							"type": "bytes[]"
						},
						{
							"internalType": "bytes32[]",
							"name": "priceIds",
							"type": "bytes32[]"
						},
						{
							"internalType": "uint64",
							"name": "minPublishTime",
							"type": "uint64"
						},
						{
							"internalType": "uint64",
							"name": "maxPublishTime",
							"type": "uint64"
						}
					],
					"name": "parsePriceFeedUpdatesUnique",
					"outputs": [
						{
							"components": [
								{
									"internalType": "bytes32",
									"name": "id",
									"type": "bytes32"
								},
								{
									"components": [
										{
											"internalType": "int64",
											"name": "price",
											"type": "int64"
										},
										{
											"internalType": "uint64",
											"name": "conf",
											"type": "uint64"
										},
										{
											"internalType": "int32",
											"name": "expo",
											"type": "int32"
										},
										{
											"internalType": "uint256",
											"name": "publishTime",
											"type": "uint256"
										}
									],
									"internalType": "struct PythStructs.Price",
									"name": "price",
									"type": "tuple"
								},
								{
									"components": [
										{
											"internalType": "int64",
											"name": "price",
											"type": "int64"
										},
										{
											"internalType": "uint64",
											"name": "conf",
											"type": "uint64"
										},
										{
											"internalType": "int32",
											"name": "expo",
											"type": "int32"
										},
										{
											"internalType": "uint256",
											"name": "publishTime",
											"type": "uint256"
										}
									],
									"internalType": "struct PythStructs.Price",
									"name": "emaPrice",
									"type": "tuple"
								}
							],
							"internalType": "struct PythStructs.PriceFeed[]",
							"name": "feeds",
							"type": "tuple[]"
						}
					],
					"stateMutability": "payable",
					"type": "function"
				},
				{
					"inputs": [
						{
							"internalType": "bytes32",
							"name": "id",
							"type": "bytes32"
						}
					],
					"name": "priceFeedExists",
					"outputs": [
						{
							"internalType": "bool",
							"name": "",
							"type": "bool"
						}
					],
					"stateMutability": "view",
					"type": "function"
				},
				{
					"inputs": [
						{
							"internalType": "bytes32",
							"name": "id",
							"type": "bytes32"
						}
					],
					"name": "queryPriceFeed",
					"outputs": [
						{
							"components": [
								{
									"internalType": "bytes32",
									"name": "id",
									"type": "bytes32"
								},
								{
									"components": [
										{
											"internalType": "int64",
											"name": "price",
											"type": "int64"
										},
										{
											"internalType": "uint64",
											"name": "conf",
											"type": "uint64"
										},
										{
											"internalType": "int32",
											"name": "expo",
											"type": "int32"
										},
										{
											"internalType": "uint256",
											"name": "publishTime",
											"type": "uint256"
										}
									],
									"internalType": "struct PythStructs.Price",
									"name": "price",
									"type": "tuple"
								},
								{
									"components": [
										{
											"internalType": "int64",
											"name": "price",
											"type": "int64"
										},
										{
											"internalType": "uint64",
											"name": "conf",
											"type": "uint64"
										},
										{
											"internalType": "int32",
											"name": "expo",
											"type": "int32"
										},
										{
											"internalType": "uint256",
											"name": "publishTime",
											"type": "uint256"
										}
									],
									"internalType": "struct PythStructs.Price",
									"name": "emaPrice",
									"type": "tuple"
								}
							],
							"internalType": "struct PythStructs.PriceFeed",
							"name": "priceFeed",
							"type": "tuple"
						}
					],
					"stateMutability": "view",
					"type": "function"
				},
				{
					"inputs": [
						{
							"internalType": "bytes[]",
							"name": "updateData",
							"type": "bytes[]"
						}
					],
					"name": "updatePriceFeeds",
					"outputs": [],
					"stateMutability": "payable",
					"type": "function"
				},
				{
					"inputs": [
						{
							"internalType": "bytes[]",
							"name": "updateData",
							"type": "bytes[]"
						},
						{
							"internalType": "bytes32[]",
							"name": "priceIds",
							"type": "bytes32[]"
						},
						{
							"internalType": "uint64[]",
							"name": "publishTimes",
							"type": "uint64[]"
						}
					],
					"name": "updatePriceFeedsIfNecessary",
					"outputs": [],
					"stateMutability": "payable",
					"type": "function"
				}
			],
			"devdoc": {
				"events": {
					"BatchPriceFeedUpdate(uint16,uint64)": {
						"details": "Emitted when a batch price update is processed successfully.",
						"params": {
							"chainId": "ID of the source chain that the batch price update comes from.",
							"sequenceNumber": "Sequence number of the batch price update."
						}
					},
					"PriceFeedUpdate(bytes32,uint64,int64,uint64)": {
						"details": "Emitted when the price feed with `id` has received a fresh update.",
						"params": {
							"conf": "Confidence interval of the given price update.",
							"id": "The Pyth Price Feed ID.",
							"price": "Price of the given price update.",
							"publishTime": "Publish time of the given price update."
						}
					}
				},
				"kind": "dev",
				"methods": {
					"getEmaPrice(bytes32)": {
						"details": "Reverts if the EMA price is not available.",
						"params": {
							"id": "The Pyth Price Feed ID of which to fetch the EMA price and confidence interval."
						},
						"returns": {
							"price": "- please read the documentation of PythStructs.Price to understand how to use this safely."
						}
					},
					"getEmaPriceNoOlderThan(bytes32,uint256)": {
						"details": "This function is a sanity-checked version of `getEmaPriceUnsafe` which is useful in applications that require a sufficiently-recent price. Reverts if the price wasn't updated sufficiently recently.",
						"returns": {
							"price": "- please read the documentation of PythStructs.Price to understand how to use this safely."
						}
					},
					"getEmaPriceUnsafe(bytes32)": {
						"details": "This function returns the same price as `getEmaPrice` in the case where the price is available. However, if the price is not recent this function returns the latest available price. The returned price can be from arbitrarily far in the past; this function makes no guarantees that the returned price is recent or useful for any particular application. Users of this function should check the `publishTime` in the price to ensure that the returned price is sufficiently recent for their application. If you are considering using this function, it may be safer / easier to use either `getEmaPrice` or `getEmaPriceNoOlderThan`.",
						"returns": {
							"price": "- please read the documentation of PythStructs.Price to understand how to use this safely."
						}
					},
					"getPrice(bytes32)": {
						"details": "Reverts if the price has not been updated within the last `getValidTimePeriod()` seconds.",
						"params": {
							"id": "The Pyth Price Feed ID of which to fetch the price and confidence interval."
						},
						"returns": {
							"price": "- please read the documentation of PythStructs.Price to understand how to use this safely."
						}
					},
					"getPriceNoOlderThan(bytes32,uint256)": {
						"details": "This function is a sanity-checked version of `getPriceUnsafe` which is useful in applications that require a sufficiently-recent price. Reverts if the price wasn't updated sufficiently recently.",
						"returns": {
							"price": "- please read the documentation of PythStructs.Price to understand how to use this safely."
						}
					},
					"getPriceUnsafe(bytes32)": {
						"details": "This function returns the most recent price update in this contract without any recency checks. This function is unsafe as the returned price update may be arbitrarily far in the past. Users of this function should check the `publishTime` in the price to ensure that the returned price is sufficiently recent for their application. If you are considering using this function, it may be safer / easier to use either `getPrice` or `getPriceNoOlderThan`.",
						"returns": {
							"price": "- please read the documentation of PythStructs.Price to understand how to use this safely."
						}
					},
					"getUpdateFee(bytes[])": {
						"params": {
							"updateData": "Array of price update data."
						},
						"returns": {
							"feeAmount": "The required fee in Wei."
						}
					},
					"parsePriceFeedUpdates(bytes[],bytes32[],uint64,uint64)": {
						"details": "Reverts if the transferred fee is not sufficient or the updateData is invalid or there is no update for any of the given `priceIds` within the given time range.",
						"params": {
							"maxPublishTime": "maximum acceptable publishTime for the given `priceIds`.",
							"minPublishTime": "minimum acceptable publishTime for the given `priceIds`.",
							"priceIds": "Array of price ids.",
							"updateData": "Array of price update data."
						},
						"returns": {
							"feeds": "Array of the price feeds corresponding to the given `priceIds` (with the same order)."
						}
					},
					"parsePriceFeedUpdatesUnique(bytes[],bytes32[],uint64,uint64)": {
						"details": "Reverts if the transferred fee is not sufficient or the updateData is invalid or there is no update for any of the given `priceIds` within the given time range and uniqueness condition.",
						"params": {
							"maxPublishTime": "maximum acceptable publishTime for the given `priceIds`.",
							"minPublishTime": "minimum acceptable publishTime for the given `priceIds`.",
							"priceIds": "Array of price ids.",
							"updateData": "Array of price update data."
						},
						"returns": {
							"feeds": "Array of the price feeds corresponding to the given `priceIds` (with the same order)."
						}
					},
					"priceFeedExists(bytes32)": {
						"params": {
							"id": "The Pyth Price Feed ID of which to check its existence."
						}
					},
					"queryPriceFeed(bytes32)": {
						"details": "Reverts if the price does not exist.",
						"params": {
							"id": "The Pyth Price Feed ID of which to fetch the PriceFeed."
						}
					},
					"updatePriceFeeds(bytes[])": {
						"details": "Reverts if the transferred fee is not sufficient or the updateData is invalid.",
						"params": {
							"updateData": "Array of price update data."
						}
					},
					"updatePriceFeedsIfNecessary(bytes[],bytes32[],uint64[])": {
						"details": "Reverts if update is not needed or the transferred fee is not sufficient or the updateData is invalid.",
						"params": {
							"priceIds": "Array of price ids.",
							"publishTimes": "Array of publishTimes. `publishTimes[i]` corresponds to known `publishTime` of `priceIds[i]`",
							"updateData": "Array of price update data."
						}
					}
				},
				"version": 1
			},
			"evm": {
				"assembly": "    /* \"@pythnetwork/pyth-sdk-solidity/MockPyth.sol\":149:6116  contract MockPyth is AbstractPyth {... */\n  mstore(0x40, 0x80)\n    /* \"@pythnetwork/pyth-sdk-solidity/MockPyth.sol\":333:501  constructor(uint _validTimePeriod, uint _singleUpdateFeeInWei) {... */\n  callvalue\n  dup1\n  iszero\n  tag_1\n  jumpi\n  0x00\n  dup1\n  revert\ntag_1:\n  pop\n  mload(0x40)\n  sub(codesize, bytecodeSize)\n  dup1\n  bytecodeSize\n  dup4\n  codecopy\n  dup2\n  dup2\n  add\n  0x40\n  mstore\n  dup2\n  add\n  swap1\n  tag_2\n  swap2\n  swap1\n  tag_3\n  jump\t// in\ntag_2:\n    /* \"@pythnetwork/pyth-sdk-solidity/MockPyth.sol\":429:450  _singleUpdateFeeInWei */\n  dup1\n    /* \"@pythnetwork/pyth-sdk-solidity/MockPyth.sol\":406:426  singleUpdateFeeInWei */\n  0x02\n    /* \"@pythnetwork/pyth-sdk-solidity/MockPyth.sol\":406:450  singleUpdateFeeInWei = _singleUpdateFeeInWei */\n  dup2\n  swap1\n  sstore\n  pop\n    /* \"@pythnetwork/pyth-sdk-solidity/MockPyth.sol\":478:494  _validTimePeriod */\n  dup2\n    /* \"@pythnetwork/pyth-sdk-solidity/MockPyth.sol\":460:475  validTimePeriod */\n  0x03\n    /* \"@pythnetwork/pyth-sdk-solidity/MockPyth.sol\":460:494  validTimePeriod = _validTimePeriod */\n  dup2\n  swap1\n  sstore\n  pop\n    /* \"@pythnetwork/pyth-sdk-solidity/MockPyth.sol\":333:501  constructor(uint _validTimePeriod, uint _singleUpdateFeeInWei) {... */\n  pop\n  pop\n    /* \"@pythnetwork/pyth-sdk-solidity/MockPyth.sol\":149:6116  contract MockPyth is AbstractPyth {... */\n  jump(tag_6)\n    /* \"#utility.yul\":88:205   */\ntag_8:\n    /* \"#utility.yul\":197:198   */\n  0x00\n    /* \"#utility.yul\":194:195   */\n  dup1\n    /* \"#utility.yul\":187:199   */\n  revert\n    /* \"#utility.yul\":334:411   */\ntag_10:\n    /* \"#utility.yul\":371:378   */\n  0x00\n    /* \"#utility.yul\":400:405   */\n  dup2\n    /* \"#utility.yul\":389:405   */\n  swap1\n  pop\n    /* \"#utility.yul\":334:411   */\n  swap2\n  swap1\n  pop\n  jump\t// out\n    /* \"#utility.yul\":417:539   */\ntag_11:\n    /* \"#utility.yul\":490:514   */\n  tag_19\n    /* \"#utility.yul\":508:513   */\n  dup2\n    /* \"#utility.yul\":490:514   */\n  tag_10\n  jump\t// in\ntag_19:\n    /* \"#utility.yul\":483:488   */\n  dup2\n    /* \"#utility.yul\":480:515   */\n  eq\n    /* \"#utility.yul\":470:533   */\n  tag_20\n  jumpi\n    /* \"#utility.yul\":529:530   */\n  0x00\n    /* \"#utility.yul\":526:527   */\n  dup1\n    /* \"#utility.yul\":519:531   */\n  revert\n    /* \"#utility.yul\":470:533   */\ntag_20:\n    /* \"#utility.yul\":417:539   */\n  pop\n  jump\t// out\n    /* \"#utility.yul\":545:688   */\ntag_12:\n    /* \"#utility.yul\":602:607   */\n  0x00\n    /* \"#utility.yul\":633:639   */\n  dup2\n    /* \"#utility.yul\":627:640   */\n  mload\n    /* \"#utility.yul\":618:640   */\n  swap1\n  pop\n    /* \"#utility.yul\":649:682   */\n  tag_22\n    /* \"#utility.yul\":676:681   */\n  dup2\n    /* \"#utility.yul\":649:682   */\n  tag_11\n  jump\t// in\ntag_22:\n    /* \"#utility.yul\":545:688   */\n  swap3\n  swap2\n  pop\n  pop\n  jump\t// out\n    /* \"#utility.yul\":694:1201   */\ntag_3:\n    /* \"#utility.yul\":773:779   */\n  0x00\n    /* \"#utility.yul\":781:787   */\n  dup1\n    /* \"#utility.yul\":830:832   */\n  0x40\n    /* \"#utility.yul\":818:827   */\n  dup4\n    /* \"#utility.yul\":809:816   */\n  dup6\n    /* \"#utility.yul\":805:828   */\n  sub\n    /* \"#utility.yul\":801:833   */\n  slt\n    /* \"#utility.yul\":798:917   */\n  iszero\n  tag_24\n  jumpi\n    /* \"#utility.yul\":836:915   */\n  tag_25\n  tag_8\n  jump\t// in\ntag_25:\n    /* \"#utility.yul\":798:917   */\ntag_24:\n    /* \"#utility.yul\":956:957   */\n  0x00\n    /* \"#utility.yul\":981:1045   */\n  tag_26\n    /* \"#utility.yul\":1037:1044   */\n  dup6\n    /* \"#utility.yul\":1028:1034   */\n  dup3\n    /* \"#utility.yul\":1017:1026   */\n  dup7\n    /* \"#utility.yul\":1013:1035   */\n  add\n    /* \"#utility.yul\":981:1045   */\n  tag_12\n  jump\t// in\ntag_26:\n    /* \"#utility.yul\":971:1045   */\n  swap3\n  pop\n    /* \"#utility.yul\":927:1055   */\n  pop\n    /* \"#utility.yul\":1094:1096   */\n  0x20\n    /* \"#utility.yul\":1120:1184   */\n  tag_27\n    /* \"#utility.yul\":1176:1183   */\n  dup6\n    /* \"#utility.yul\":1167:1173   */\n  dup3\n    /* \"#utility.yul\":1156:1165   */\n  dup7\n    /* \"#utility.yul\":1152:1174   */\n  add\n    /* \"#utility.yul\":1120:1184   */\n  tag_12\n  jump\t// in\ntag_27:\n    /* \"#utility.yul\":1110:1184   */\n  swap2\n  pop\n    /* \"#utility.yul\":1065:1194   */\n  pop\n    /* \"#utility.yul\":694:1201   */\n  swap3\n  pop\n  swap3\n  swap1\n  pop\n  jump\t// out\n    /* \"@pythnetwork/pyth-sdk-solidity/MockPyth.sol\":149:6116  contract MockPyth is AbstractPyth {... */\ntag_6:\n  dataSize(sub_0)\n  dup1\n  dataOffset(sub_0)\n  0x00\n  codecopy\n  0x00\n  return\nstop\n\nsub_0: assembly {\n        /* \"@pythnetwork/pyth-sdk-solidity/MockPyth.sol\":149:6116  contract MockPyth is AbstractPyth {... */\n      mstore(0x40, 0x80)\n      jumpi(tag_1, lt(calldatasize, 0x04))\n      shr(0xe0, calldataload(0x00))\n      dup1\n      0xb5dcc911\n      gt\n      tag_17\n      jumpi\n      dup1\n      0xd47eed45\n      gt\n      tag_18\n      jumpi\n      dup1\n      0xd47eed45\n      eq\n      tag_13\n      jumpi\n      dup1\n      0xd9b81c3c\n      eq\n      tag_14\n      jumpi\n      dup1\n      0xe18910a3\n      eq\n      tag_15\n      jumpi\n      dup1\n      0xef9e5e28\n      eq\n      tag_16\n      jumpi\n      jump(tag_1)\n    tag_18:\n      dup1\n      0xb5dcc911\n      eq\n      tag_9\n      jumpi\n      dup1\n      0xb5ec0261\n      eq\n      tag_10\n      jumpi\n      dup1\n      0xb9256d28\n      eq\n      tag_11\n      jumpi\n      dup1\n      0xcaaf43f1\n      eq\n      tag_12\n      jumpi\n      jump(tag_1)\n    tag_17:\n      dup1\n      0x9474f45b\n      gt\n      tag_19\n      jumpi\n      dup1\n      0x9474f45b\n      eq\n      tag_5\n      jumpi\n      dup1\n      0x96834ad3\n      eq\n      tag_6\n      jumpi\n      dup1\n      0xa4ae35e0\n      eq\n      tag_7\n      jumpi\n      dup1\n      0xaccca7f9\n      eq\n      tag_8\n      jumpi\n      jump(tag_1)\n    tag_19:\n      dup1\n      0x31d98b3f\n      eq\n      tag_2\n      jumpi\n      dup1\n      0x4716e9c5\n      eq\n      tag_3\n      jumpi\n      dup1\n      0x711a2e28\n      eq\n      tag_4\n      jumpi\n    tag_1:\n      0x00\n      dup1\n      revert\n        /* \"@pythnetwork/pyth-sdk-solidity/AbstractPyth.sol\":871:1056  function getPrice(... */\n    tag_2:\n      callvalue\n      dup1\n      iszero\n      tag_20\n      jumpi\n      0x00\n      dup1\n      revert\n    tag_20:\n      pop\n      tag_21\n      0x04\n      dup1\n      calldatasize\n      sub\n      dup2\n      add\n      swap1\n      tag_22\n      swap2\n      swap1\n      tag_23\n      jump\t// in\n    tag_22:\n      tag_24\n      jump\t// in\n    tag_21:\n      mload(0x40)\n      tag_25\n      swap2\n      swap1\n      tag_26\n      jump\t// in\n    tag_25:\n      mload(0x40)\n      dup1\n      swap2\n      sub\n      swap1\n      return\n        /* \"@pythnetwork/pyth-sdk-solidity/MockPyth.sol\":4389:4855  function parsePriceFeedUpdates(... */\n    tag_3:\n      tag_27\n      0x04\n      dup1\n      calldatasize\n      sub\n      dup2\n      add\n      swap1\n      tag_28\n      swap2\n      swap1\n      tag_29\n      jump\t// in\n    tag_28:\n      tag_30\n      jump\t// in\n    tag_27:\n      mload(0x40)\n      tag_31\n      swap2\n      swap1\n      tag_32\n      jump\t// in\n    tag_31:\n      mload(0x40)\n      dup1\n      swap2\n      sub\n      swap1\n      return\n        /* \"@pythnetwork/pyth-sdk-solidity/AbstractPyth.sol\":2053:2373  function getEmaPriceNoOlderThan(... */\n    tag_4:\n      callvalue\n      dup1\n      iszero\n      tag_33\n      jumpi\n      0x00\n      dup1\n      revert\n    tag_33:\n      pop\n      tag_34\n      0x04\n      dup1\n      calldatasize\n      sub\n      dup2\n      add\n      swap1\n      tag_35\n      swap2\n      swap1\n      tag_36\n      jump\t// in\n    tag_35:\n      tag_37\n      jump\t// in\n    tag_34:\n      mload(0x40)\n      tag_38\n      swap2\n      swap1\n      tag_26\n      jump\t// in\n    tag_38:\n      mload(0x40)\n      dup1\n      swap2\n      sub\n      swap1\n      return\n        /* \"@pythnetwork/pyth-sdk-solidity/AbstractPyth.sol\":1813:2047  function getEmaPriceUnsafe(... */\n    tag_5:\n      callvalue\n      dup1\n      iszero\n      tag_39\n      jumpi\n      0x00\n      dup1\n      revert\n    tag_39:\n      pop\n      tag_40\n      0x04\n      dup1\n      calldatasize\n      sub\n      dup2\n      add\n      swap1\n      tag_41\n      swap2\n      swap1\n      tag_23\n      jump\t// in\n    tag_41:\n      tag_42\n      jump\t// in\n    tag_40:\n      mload(0x40)\n      tag_43\n      swap2\n      swap1\n      tag_26\n      jump\t// in\n    tag_43:\n      mload(0x40)\n      dup1\n      swap2\n      sub\n      swap1\n      return\n        /* \"@pythnetwork/pyth-sdk-solidity/AbstractPyth.sol\":1259:1487  function getPriceUnsafe(... */\n    tag_6:\n      callvalue\n      dup1\n      iszero\n      tag_44\n      jumpi\n      0x00\n      dup1\n      revert\n    tag_44:\n      pop\n      tag_45\n      0x04\n      dup1\n      calldatasize\n      sub\n      dup2\n      add\n      swap1\n      tag_46\n      swap2\n      swap1\n      tag_23\n      jump\t// in\n    tag_46:\n      tag_47\n      jump\t// in\n    tag_45:\n      mload(0x40)\n      tag_48\n      swap2\n      swap1\n      tag_26\n      jump\t// in\n    tag_48:\n      mload(0x40)\n      dup1\n      swap2\n      sub\n      swap1\n      return\n        /* \"@pythnetwork/pyth-sdk-solidity/AbstractPyth.sol\":1493:1807  function getPriceNoOlderThan(... */\n    tag_7:\n      callvalue\n      dup1\n      iszero\n      tag_49\n      jumpi\n      0x00\n      dup1\n      revert\n    tag_49:\n      pop\n      tag_50\n      0x04\n      dup1\n      calldatasize\n      sub\n      dup2\n      add\n      swap1\n      tag_51\n      swap2\n      swap1\n      tag_36\n      jump\t// in\n    tag_51:\n      tag_52\n      jump\t// in\n    tag_50:\n      mload(0x40)\n      tag_53\n      swap2\n      swap1\n      tag_26\n      jump\t// in\n    tag_53:\n      mload(0x40)\n      dup1\n      swap2\n      sub\n      swap1\n      return\n        /* \"@pythnetwork/pyth-sdk-solidity/MockPyth.sol\":4861:5332  function parsePriceFeedUpdatesUnique(... */\n    tag_8:\n      tag_54\n      0x04\n      dup1\n      calldatasize\n      sub\n      dup2\n      add\n      swap1\n      tag_55\n      swap2\n      swap1\n      tag_29\n      jump\t// in\n    tag_55:\n      tag_56\n      jump\t// in\n    tag_54:\n      mload(0x40)\n      tag_57\n      swap2\n      swap1\n      tag_32\n      jump\t// in\n    tag_57:\n      mload(0x40)\n      dup1\n      swap2\n      sub\n      swap1\n      return\n        /* \"@pythnetwork/pyth-sdk-solidity/AbstractPyth.sol\":1062:1253  function getEmaPrice(... */\n    tag_9:\n      callvalue\n      dup1\n      iszero\n      tag_58\n      jumpi\n      0x00\n      dup1\n      revert\n    tag_58:\n      pop\n      tag_59\n      0x04\n      dup1\n      calldatasize\n      sub\n      dup2\n      add\n      swap1\n      tag_60\n      swap2\n      swap1\n      tag_23\n      jump\t// in\n    tag_60:\n      tag_61\n      jump\t// in\n    tag_59:\n      mload(0x40)\n      tag_62\n      swap2\n      swap1\n      tag_26\n      jump\t// in\n    tag_62:\n      mload(0x40)\n      dup1\n      swap2\n      sub\n      swap1\n      return\n        /* \"@pythnetwork/pyth-sdk-solidity/MockPyth.sol\":746:867  function priceFeedExists(bytes32 id) public view override returns (bool) {... */\n    tag_10:\n      callvalue\n      dup1\n      iszero\n      tag_63\n      jumpi\n      0x00\n      dup1\n      revert\n    tag_63:\n      pop\n      tag_64\n      0x04\n      dup1\n      calldatasize\n      sub\n      dup2\n      add\n      swap1\n      tag_65\n      swap2\n      swap1\n      tag_23\n      jump\t// in\n    tag_65:\n      tag_66\n      jump\t// in\n    tag_64:\n      mload(0x40)\n      tag_67\n      swap2\n      swap1\n      tag_68\n      jump\t// in\n    tag_67:\n      mload(0x40)\n      dup1\n      swap2\n      sub\n      swap1\n      return\n        /* \"@pythnetwork/pyth-sdk-solidity/AbstractPyth.sol\":2736:3389  function updatePriceFeedsIfNecessary(... */\n    tag_11:\n      tag_69\n      0x04\n      dup1\n      calldatasize\n      sub\n      dup2\n      add\n      swap1\n      tag_70\n      swap2\n      swap1\n      tag_71\n      jump\t// in\n    tag_70:\n      tag_72\n      jump\t// in\n    tag_69:\n      stop\n        /* \"@pythnetwork/pyth-sdk-solidity/MockPyth.sol\":507:740  function queryPriceFeed(... */\n    tag_12:\n      callvalue\n      dup1\n      iszero\n      tag_73\n      jumpi\n      0x00\n      dup1\n      revert\n    tag_73:\n      pop\n      tag_74\n      0x04\n      dup1\n      calldatasize\n      sub\n      dup2\n      add\n      swap1\n      tag_75\n      swap2\n      swap1\n      tag_23\n      jump\t// in\n    tag_75:\n      tag_76\n      jump\t// in\n    tag_74:\n      mload(0x40)\n      tag_77\n      swap2\n      swap1\n      tag_78\n      jump\t// in\n    tag_77:\n      mload(0x40)\n      dup1\n      swap2\n      sub\n      swap1\n      return\n        /* \"@pythnetwork/pyth-sdk-solidity/MockPyth.sol\":2803:2978  function getUpdateFee(... */\n    tag_13:\n      callvalue\n      dup1\n      iszero\n      tag_79\n      jumpi\n      0x00\n      dup1\n      revert\n    tag_79:\n      pop\n      tag_80\n      0x04\n      dup1\n      calldatasize\n      sub\n      dup2\n      add\n      swap1\n      tag_81\n      swap2\n      swap1\n      tag_82\n      jump\t// in\n    tag_81:\n      tag_83\n      jump\t// in\n    tag_80:\n      mload(0x40)\n      tag_84\n      swap2\n      swap1\n      tag_85\n      jump\t// in\n    tag_84:\n      mload(0x40)\n      dup1\n      swap2\n      sub\n      swap1\n      return\n        /* \"@pythnetwork/pyth-sdk-solidity/MockPyth.sol\":5338:6114  function createPriceFeedUpdateData(... */\n    tag_14:\n      callvalue\n      dup1\n      iszero\n      tag_86\n      jumpi\n      0x00\n      dup1\n      revert\n    tag_86:\n      pop\n      tag_87\n      0x04\n      dup1\n      calldatasize\n      sub\n      dup2\n      add\n      swap1\n      tag_88\n      swap2\n      swap1\n      tag_89\n      jump\t// in\n    tag_88:\n      tag_90\n      jump\t// in\n    tag_87:\n      mload(0x40)\n      tag_91\n      swap2\n      swap1\n      tag_92\n      jump\t// in\n    tag_91:\n      mload(0x40)\n      dup1\n      swap2\n      sub\n      swap1\n      return\n        /* \"@pythnetwork/pyth-sdk-solidity/MockPyth.sol\":873:978  function getValidTimePeriod() public view override returns (uint) {... */\n    tag_15:\n      callvalue\n      dup1\n      iszero\n      tag_93\n      jumpi\n      0x00\n      dup1\n      revert\n    tag_93:\n      pop\n      tag_94\n      tag_95\n      jump\t// in\n    tag_94:\n      mload(0x40)\n      tag_96\n      swap2\n      swap1\n      tag_85\n      jump\t// in\n    tag_96:\n      mload(0x40)\n      dup1\n      swap2\n      sub\n      swap1\n      return\n        /* \"@pythnetwork/pyth-sdk-solidity/MockPyth.sol\":1174:2797  function updatePriceFeeds(... */\n    tag_16:\n      tag_97\n      0x04\n      dup1\n      calldatasize\n      sub\n      dup2\n      add\n      swap1\n      tag_98\n      swap2\n      swap1\n      tag_82\n      jump\t// in\n    tag_98:\n      tag_99\n      jump\t// in\n    tag_97:\n      stop\n        /* \"@pythnetwork/pyth-sdk-solidity/AbstractPyth.sol\":871:1056  function getPrice(... */\n    tag_24:\n        /* \"@pythnetwork/pyth-sdk-solidity/AbstractPyth.sol\":955:985  PythStructs.Price memory price */\n      tag_100\n      tag_101\n      jump\t// in\n    tag_100:\n        /* \"@pythnetwork/pyth-sdk-solidity/AbstractPyth.sol\":1004:1049  getPriceNoOlderThan(id, getValidTimePeriod()) */\n      tag_103\n        /* \"@pythnetwork/pyth-sdk-solidity/AbstractPyth.sol\":1024:1026  id */\n      dup3\n        /* \"@pythnetwork/pyth-sdk-solidity/AbstractPyth.sol\":1028:1048  getValidTimePeriod() */\n      tag_104\n        /* \"@pythnetwork/pyth-sdk-solidity/AbstractPyth.sol\":1028:1046  getValidTimePeriod */\n      tag_95\n        /* \"@pythnetwork/pyth-sdk-solidity/AbstractPyth.sol\":1028:1048  getValidTimePeriod() */\n      jump\t// in\n    tag_104:\n        /* \"@pythnetwork/pyth-sdk-solidity/AbstractPyth.sol\":1004:1023  getPriceNoOlderThan */\n      tag_52\n        /* \"@pythnetwork/pyth-sdk-solidity/AbstractPyth.sol\":1004:1049  getPriceNoOlderThan(id, getValidTimePeriod()) */\n      jump\t// in\n    tag_103:\n        /* \"@pythnetwork/pyth-sdk-solidity/AbstractPyth.sol\":997:1049  return getPriceNoOlderThan(id, getValidTimePeriod()) */\n      swap1\n      pop\n        /* \"@pythnetwork/pyth-sdk-solidity/AbstractPyth.sol\":871:1056  function getPrice(... */\n      swap2\n      swap1\n      pop\n      jump\t// out\n        /* \"@pythnetwork/pyth-sdk-solidity/MockPyth.sol\":4389:4855  function parsePriceFeedUpdates(... */\n    tag_30:\n        /* \"@pythnetwork/pyth-sdk-solidity/MockPyth.sol\":4597:4633  PythStructs.PriceFeed[] memory feeds */\n      0x60\n        /* \"@pythnetwork/pyth-sdk-solidity/MockPyth.sol\":4664:4848  parsePriceFeedUpdatesInternal(... */\n      tag_106\n        /* \"@pythnetwork/pyth-sdk-solidity/MockPyth.sol\":4711:4721  updateData */\n      dup8\n      dup8\n        /* \"@pythnetwork/pyth-sdk-solidity/MockPyth.sol\":4739:4747  priceIds */\n      dup8\n      dup8\n        /* \"@pythnetwork/pyth-sdk-solidity/MockPyth.sol\":4765:4779  minPublishTime */\n      dup8\n        /* \"@pythnetwork/pyth-sdk-solidity/MockPyth.sol\":4797:4811  maxPublishTime */\n      dup8\n        /* \"@pythnetwork/pyth-sdk-solidity/MockPyth.sol\":4829:4834  false */\n      0x00\n        /* \"@pythnetwork/pyth-sdk-solidity/MockPyth.sol\":4664:4693  parsePriceFeedUpdatesInternal */\n      tag_107\n        /* \"@pythnetwork/pyth-sdk-solidity/MockPyth.sol\":4664:4848  parsePriceFeedUpdatesInternal(... */\n      jump\t// in\n    tag_106:\n        /* \"@pythnetwork/pyth-sdk-solidity/MockPyth.sol\":4645:4848  return... */\n      swap1\n      pop\n        /* \"@pythnetwork/pyth-sdk-solidity/MockPyth.sol\":4389:4855  function parsePriceFeedUpdates(... */\n      swap7\n      swap6\n      pop\n      pop\n      pop\n      pop\n      pop\n      pop\n      jump\t// out\n        /* \"@pythnetwork/pyth-sdk-solidity/AbstractPyth.sol\":2053:2373  function getEmaPriceNoOlderThan(... */\n    tag_37:\n        /* \"@pythnetwork/pyth-sdk-solidity/AbstractPyth.sol\":2167:2197  PythStructs.Price memory price */\n      tag_108\n      tag_101\n      jump\t// in\n    tag_108:\n        /* \"@pythnetwork/pyth-sdk-solidity/AbstractPyth.sol\":2217:2238  getEmaPriceUnsafe(id) */\n      tag_110\n        /* \"@pythnetwork/pyth-sdk-solidity/AbstractPyth.sol\":2235:2237  id */\n      dup4\n        /* \"@pythnetwork/pyth-sdk-solidity/AbstractPyth.sol\":2217:2234  getEmaPriceUnsafe */\n      tag_42\n        /* \"@pythnetwork/pyth-sdk-solidity/AbstractPyth.sol\":2217:2238  getEmaPriceUnsafe(id) */\n      jump\t// in\n    tag_110:\n        /* \"@pythnetwork/pyth-sdk-solidity/AbstractPyth.sol\":2209:2238  price = getEmaPriceUnsafe(id) */\n      swap1\n      pop\n        /* \"@pythnetwork/pyth-sdk-solidity/AbstractPyth.sol\":2296:2299  age */\n      dup2\n        /* \"@pythnetwork/pyth-sdk-solidity/AbstractPyth.sol\":2253:2293  diff(block.timestamp, price.publishTime) */\n      tag_111\n        /* \"@pythnetwork/pyth-sdk-solidity/AbstractPyth.sol\":2258:2273  block.timestamp */\n      timestamp\n        /* \"@pythnetwork/pyth-sdk-solidity/AbstractPyth.sol\":2275:2280  price */\n      dup4\n        /* \"@pythnetwork/pyth-sdk-solidity/AbstractPyth.sol\":2275:2292  price.publishTime */\n      0x60\n      add\n      mload\n        /* \"@pythnetwork/pyth-sdk-solidity/AbstractPyth.sol\":2253:2257  diff */\n      tag_112\n        /* \"@pythnetwork/pyth-sdk-solidity/AbstractPyth.sol\":2253:2293  diff(block.timestamp, price.publishTime) */\n      jump\t// in\n    tag_111:\n        /* \"@pythnetwork/pyth-sdk-solidity/AbstractPyth.sol\":2253:2299  diff(block.timestamp, price.publishTime) > age */\n      gt\n        /* \"@pythnetwork/pyth-sdk-solidity/AbstractPyth.sol\":2249:2343  if (diff(block.timestamp, price.publishTime) > age)... */\n      iszero\n      tag_113\n      jumpi\n        /* \"@pythnetwork/pyth-sdk-solidity/AbstractPyth.sol\":2320:2343  PythErrors.StalePrice() */\n      mload(0x40)\n      0x19abf40e00000000000000000000000000000000000000000000000000000000\n      dup2\n      mstore\n      0x04\n      add\n      mload(0x40)\n      dup1\n      swap2\n      sub\n      swap1\n      revert\n        /* \"@pythnetwork/pyth-sdk-solidity/AbstractPyth.sol\":2249:2343  if (diff(block.timestamp, price.publishTime) > age)... */\n    tag_113:\n        /* \"@pythnetwork/pyth-sdk-solidity/AbstractPyth.sol\":2053:2373  function getEmaPriceNoOlderThan(... */\n      swap3\n      swap2\n      pop\n      pop\n      jump\t// out\n        /* \"@pythnetwork/pyth-sdk-solidity/AbstractPyth.sol\":1813:2047  function getEmaPriceUnsafe(... */\n    tag_42:\n        /* \"@pythnetwork/pyth-sdk-solidity/AbstractPyth.sol\":1904:1934  PythStructs.Price memory price */\n      tag_114\n      tag_101\n      jump\t// in\n    tag_114:\n        /* \"@pythnetwork/pyth-sdk-solidity/AbstractPyth.sol\":1946:1984  PythStructs.PriceFeed memory priceFeed */\n      0x00\n        /* \"@pythnetwork/pyth-sdk-solidity/AbstractPyth.sol\":1987:2005  queryPriceFeed(id) */\n      tag_116\n        /* \"@pythnetwork/pyth-sdk-solidity/AbstractPyth.sol\":2002:2004  id */\n      dup4\n        /* \"@pythnetwork/pyth-sdk-solidity/AbstractPyth.sol\":1987:2001  queryPriceFeed */\n      tag_76\n        /* \"@pythnetwork/pyth-sdk-solidity/AbstractPyth.sol\":1987:2005  queryPriceFeed(id) */\n      jump\t// in\n    tag_116:\n        /* \"@pythnetwork/pyth-sdk-solidity/AbstractPyth.sol\":1946:2005  PythStructs.PriceFeed memory priceFeed = queryPriceFeed(id) */\n      swap1\n      pop\n        /* \"@pythnetwork/pyth-sdk-solidity/AbstractPyth.sol\":2022:2031  priceFeed */\n      dup1\n        /* \"@pythnetwork/pyth-sdk-solidity/AbstractPyth.sol\":2022:2040  priceFeed.emaPrice */\n      0x40\n      add\n      mload\n        /* \"@pythnetwork/pyth-sdk-solidity/AbstractPyth.sol\":2015:2040  return priceFeed.emaPrice */\n      swap2\n      pop\n      pop\n        /* \"@pythnetwork/pyth-sdk-solidity/AbstractPyth.sol\":1813:2047  function getEmaPriceUnsafe(... */\n      swap2\n      swap1\n      pop\n      jump\t// out\n        /* \"@pythnetwork/pyth-sdk-solidity/AbstractPyth.sol\":1259:1487  function getPriceUnsafe(... */\n    tag_47:\n        /* \"@pythnetwork/pyth-sdk-solidity/AbstractPyth.sol\":1347:1377  PythStructs.Price memory price */\n      tag_117\n      tag_101\n      jump\t// in\n    tag_117:\n        /* \"@pythnetwork/pyth-sdk-solidity/AbstractPyth.sol\":1389:1427  PythStructs.PriceFeed memory priceFeed */\n      0x00\n        /* \"@pythnetwork/pyth-sdk-solidity/AbstractPyth.sol\":1430:1448  queryPriceFeed(id) */\n      tag_119\n        /* \"@pythnetwork/pyth-sdk-solidity/AbstractPyth.sol\":1445:1447  id */\n      dup4\n        /* \"@pythnetwork/pyth-sdk-solidity/AbstractPyth.sol\":1430:1444  queryPriceFeed */\n      tag_76\n        /* \"@pythnetwork/pyth-sdk-solidity/AbstractPyth.sol\":1430:1448  queryPriceFeed(id) */\n      jump\t// in\n    tag_119:\n        /* \"@pythnetwork/pyth-sdk-solidity/AbstractPyth.sol\":1389:1448  PythStructs.PriceFeed memory priceFeed = queryPriceFeed(id) */\n      swap1\n      pop\n        /* \"@pythnetwork/pyth-sdk-solidity/AbstractPyth.sol\":1465:1474  priceFeed */\n      dup1\n        /* \"@pythnetwork/pyth-sdk-solidity/AbstractPyth.sol\":1465:1480  priceFeed.price */\n      0x20\n      add\n      mload\n        /* \"@pythnetwork/pyth-sdk-solidity/AbstractPyth.sol\":1458:1480  return priceFeed.price */\n      swap2\n      pop\n      pop\n        /* \"@pythnetwork/pyth-sdk-solidity/AbstractPyth.sol\":1259:1487  function getPriceUnsafe(... */\n      swap2\n      swap1\n      pop\n      jump\t// out\n        /* \"@pythnetwork/pyth-sdk-solidity/AbstractPyth.sol\":1493:1807  function getPriceNoOlderThan(... */\n    tag_52:\n        /* \"@pythnetwork/pyth-sdk-solidity/AbstractPyth.sol\":1604:1634  PythStructs.Price memory price */\n      tag_120\n      tag_101\n      jump\t// in\n    tag_120:\n        /* \"@pythnetwork/pyth-sdk-solidity/AbstractPyth.sol\":1654:1672  getPriceUnsafe(id) */\n      tag_122\n        /* \"@pythnetwork/pyth-sdk-solidity/AbstractPyth.sol\":1669:1671  id */\n      dup4\n        /* \"@pythnetwork/pyth-sdk-solidity/AbstractPyth.sol\":1654:1668  getPriceUnsafe */\n      tag_47\n        /* \"@pythnetwork/pyth-sdk-solidity/AbstractPyth.sol\":1654:1672  getPriceUnsafe(id) */\n      jump\t// in\n    tag_122:\n        /* \"@pythnetwork/pyth-sdk-solidity/AbstractPyth.sol\":1646:1672  price = getPriceUnsafe(id) */\n      swap1\n      pop\n        /* \"@pythnetwork/pyth-sdk-solidity/AbstractPyth.sol\":1730:1733  age */\n      dup2\n        /* \"@pythnetwork/pyth-sdk-solidity/AbstractPyth.sol\":1687:1727  diff(block.timestamp, price.publishTime) */\n      tag_123\n        /* \"@pythnetwork/pyth-sdk-solidity/AbstractPyth.sol\":1692:1707  block.timestamp */\n      timestamp\n        /* \"@pythnetwork/pyth-sdk-solidity/AbstractPyth.sol\":1709:1714  price */\n      dup4\n        /* \"@pythnetwork/pyth-sdk-solidity/AbstractPyth.sol\":1709:1726  price.publishTime */\n      0x60\n      add\n      mload\n        /* \"@pythnetwork/pyth-sdk-solidity/AbstractPyth.sol\":1687:1691  diff */\n      tag_112\n        /* \"@pythnetwork/pyth-sdk-solidity/AbstractPyth.sol\":1687:1727  diff(block.timestamp, price.publishTime) */\n      jump\t// in\n    tag_123:\n        /* \"@pythnetwork/pyth-sdk-solidity/AbstractPyth.sol\":1687:1733  diff(block.timestamp, price.publishTime) > age */\n      gt\n        /* \"@pythnetwork/pyth-sdk-solidity/AbstractPyth.sol\":1683:1777  if (diff(block.timestamp, price.publishTime) > age)... */\n      iszero\n      tag_124\n      jumpi\n        /* \"@pythnetwork/pyth-sdk-solidity/AbstractPyth.sol\":1754:1777  PythErrors.StalePrice() */\n      mload(0x40)\n      0x19abf40e00000000000000000000000000000000000000000000000000000000\n      dup2\n      mstore\n      0x04\n      add\n      mload(0x40)\n      dup1\n      swap2\n      sub\n      swap1\n      revert\n        /* \"@pythnetwork/pyth-sdk-solidity/AbstractPyth.sol\":1683:1777  if (diff(block.timestamp, price.publishTime) > age)... */\n    tag_124:\n        /* \"@pythnetwork/pyth-sdk-solidity/AbstractPyth.sol\":1493:1807  function getPriceNoOlderThan(... */\n      swap3\n      swap2\n      pop\n      pop\n      jump\t// out\n        /* \"@pythnetwork/pyth-sdk-solidity/MockPyth.sol\":4861:5332  function parsePriceFeedUpdatesUnique(... */\n    tag_56:\n        /* \"@pythnetwork/pyth-sdk-solidity/MockPyth.sol\":5075:5111  PythStructs.PriceFeed[] memory feeds */\n      0x60\n        /* \"@pythnetwork/pyth-sdk-solidity/MockPyth.sol\":5142:5325  parsePriceFeedUpdatesInternal(... */\n      tag_126\n        /* \"@pythnetwork/pyth-sdk-solidity/MockPyth.sol\":5189:5199  updateData */\n      dup8\n      dup8\n        /* \"@pythnetwork/pyth-sdk-solidity/MockPyth.sol\":5217:5225  priceIds */\n      dup8\n      dup8\n        /* \"@pythnetwork/pyth-sdk-solidity/MockPyth.sol\":5243:5257  minPublishTime */\n      dup8\n        /* \"@pythnetwork/pyth-sdk-solidity/MockPyth.sol\":5275:5289  maxPublishTime */\n      dup8\n        /* \"@pythnetwork/pyth-sdk-solidity/MockPyth.sol\":5307:5311  true */\n      0x01\n        /* \"@pythnetwork/pyth-sdk-solidity/MockPyth.sol\":5142:5171  parsePriceFeedUpdatesInternal */\n      tag_107\n        /* \"@pythnetwork/pyth-sdk-solidity/MockPyth.sol\":5142:5325  parsePriceFeedUpdatesInternal(... */\n      jump\t// in\n    tag_126:\n        /* \"@pythnetwork/pyth-sdk-solidity/MockPyth.sol\":5123:5325  return... */\n      swap1\n      pop\n        /* \"@pythnetwork/pyth-sdk-solidity/MockPyth.sol\":4861:5332  function parsePriceFeedUpdatesUnique(... */\n      swap7\n      swap6\n      pop\n      pop\n      pop\n      pop\n      pop\n      pop\n      jump\t// out\n        /* \"@pythnetwork/pyth-sdk-solidity/AbstractPyth.sol\":1062:1253  function getEmaPrice(... */\n    tag_61:\n        /* \"@pythnetwork/pyth-sdk-solidity/AbstractPyth.sol\":1149:1179  PythStructs.Price memory price */\n      tag_127\n      tag_101\n      jump\t// in\n    tag_127:\n        /* \"@pythnetwork/pyth-sdk-solidity/AbstractPyth.sol\":1198:1246  getEmaPriceNoOlderThan(id, getValidTimePeriod()) */\n      tag_129\n        /* \"@pythnetwork/pyth-sdk-solidity/AbstractPyth.sol\":1221:1223  id */\n      dup3\n        /* \"@pythnetwork/pyth-sdk-solidity/AbstractPyth.sol\":1225:1245  getValidTimePeriod() */\n      tag_130\n        /* \"@pythnetwork/pyth-sdk-solidity/AbstractPyth.sol\":1225:1243  getValidTimePeriod */\n      tag_95\n        /* \"@pythnetwork/pyth-sdk-solidity/AbstractPyth.sol\":1225:1245  getValidTimePeriod() */\n      jump\t// in\n    tag_130:\n        /* \"@pythnetwork/pyth-sdk-solidity/AbstractPyth.sol\":1198:1220  getEmaPriceNoOlderThan */\n      tag_37\n        /* \"@pythnetwork/pyth-sdk-solidity/AbstractPyth.sol\":1198:1246  getEmaPriceNoOlderThan(id, getValidTimePeriod()) */\n      jump\t// in\n    tag_129:\n        /* \"@pythnetwork/pyth-sdk-solidity/AbstractPyth.sol\":1191:1246  return getEmaPriceNoOlderThan(id, getValidTimePeriod()) */\n      swap1\n      pop\n        /* \"@pythnetwork/pyth-sdk-solidity/AbstractPyth.sol\":1062:1253  function getEmaPrice(... */\n      swap2\n      swap1\n      pop\n      jump\t// out\n        /* \"@pythnetwork/pyth-sdk-solidity/MockPyth.sol\":746:867  function priceFeedExists(bytes32 id) public view override returns (bool) {... */\n    tag_66:\n        /* \"@pythnetwork/pyth-sdk-solidity/MockPyth.sol\":813:817  bool */\n      0x00\n        /* \"@pythnetwork/pyth-sdk-solidity/MockPyth.sol\":858:859  0 */\n      dup1\n        /* \"@pythnetwork/pyth-sdk-solidity/MockPyth.sol\":837:859  priceFeeds[id].id != 0 */\n      0x00\n      shl\n        /* \"@pythnetwork/pyth-sdk-solidity/MockPyth.sol\":837:847  priceFeeds */\n      0x00\n        /* \"@pythnetwork/pyth-sdk-solidity/MockPyth.sol\":837:851  priceFeeds[id] */\n      dup1\n        /* \"@pythnetwork/pyth-sdk-solidity/MockPyth.sol\":848:850  id */\n      dup5\n        /* \"@pythnetwork/pyth-sdk-solidity/MockPyth.sol\":837:851  priceFeeds[id] */\n      dup2\n      mstore\n      0x20\n      add\n      swap1\n      dup2\n      mstore\n      0x20\n      add\n      0x00\n      keccak256\n        /* \"@pythnetwork/pyth-sdk-solidity/MockPyth.sol\":837:854  priceFeeds[id].id */\n      0x00\n      add\n      sload\n        /* \"@pythnetwork/pyth-sdk-solidity/MockPyth.sol\":837:859  priceFeeds[id].id != 0 */\n      eq\n      iszero\n        /* \"@pythnetwork/pyth-sdk-solidity/MockPyth.sol\":829:860  return (priceFeeds[id].id != 0) */\n      swap1\n      pop\n        /* \"@pythnetwork/pyth-sdk-solidity/MockPyth.sol\":746:867  function priceFeedExists(bytes32 id) public view override returns (bool) {... */\n      swap2\n      swap1\n      pop\n      jump\t// out\n        /* \"@pythnetwork/pyth-sdk-solidity/AbstractPyth.sol\":2736:3389  function updatePriceFeedsIfNecessary(... */\n    tag_72:\n        /* \"@pythnetwork/pyth-sdk-solidity/AbstractPyth.sol\":2960:2972  publishTimes */\n      dup2\n      dup2\n        /* \"@pythnetwork/pyth-sdk-solidity/AbstractPyth.sol\":2960:2979  publishTimes.length */\n      swap1\n      pop\n        /* \"@pythnetwork/pyth-sdk-solidity/AbstractPyth.sol\":2941:2949  priceIds */\n      dup5\n      dup5\n        /* \"@pythnetwork/pyth-sdk-solidity/AbstractPyth.sol\":2941:2956  priceIds.length */\n      swap1\n      pop\n        /* \"@pythnetwork/pyth-sdk-solidity/AbstractPyth.sol\":2941:2979  priceIds.length != publishTimes.length */\n      eq\n        /* \"@pythnetwork/pyth-sdk-solidity/AbstractPyth.sol\":2937:3028  if (priceIds.length != publishTimes.length)... */\n      tag_133\n      jumpi\n        /* \"@pythnetwork/pyth-sdk-solidity/AbstractPyth.sol\":3000:3028  PythErrors.InvalidArgument() */\n      mload(0x40)\n      0xa9cb9e0d00000000000000000000000000000000000000000000000000000000\n      dup2\n      mstore\n      0x04\n      add\n      mload(0x40)\n      dup1\n      swap2\n      sub\n      swap1\n      revert\n        /* \"@pythnetwork/pyth-sdk-solidity/AbstractPyth.sol\":2937:3028  if (priceIds.length != publishTimes.length)... */\n    tag_133:\n        /* \"@pythnetwork/pyth-sdk-solidity/AbstractPyth.sol\":3044:3050  uint i */\n      0x00\n        /* \"@pythnetwork/pyth-sdk-solidity/AbstractPyth.sol\":3039:3339  for (uint i = 0; i < priceIds.length; i++) {... */\n    tag_134:\n        /* \"@pythnetwork/pyth-sdk-solidity/AbstractPyth.sol\":3060:3068  priceIds */\n      dup5\n      dup5\n        /* \"@pythnetwork/pyth-sdk-solidity/AbstractPyth.sol\":3060:3075  priceIds.length */\n      swap1\n      pop\n        /* \"@pythnetwork/pyth-sdk-solidity/AbstractPyth.sol\":3056:3057  i */\n      dup2\n        /* \"@pythnetwork/pyth-sdk-solidity/AbstractPyth.sol\":3056:3075  i < priceIds.length */\n      lt\n        /* \"@pythnetwork/pyth-sdk-solidity/AbstractPyth.sol\":3039:3339  for (uint i = 0; i < priceIds.length; i++) {... */\n      iszero\n      tag_135\n      jumpi\n        /* \"@pythnetwork/pyth-sdk-solidity/AbstractPyth.sol\":3118:3146  priceFeedExists(priceIds[i]) */\n      tag_137\n        /* \"@pythnetwork/pyth-sdk-solidity/AbstractPyth.sol\":3134:3142  priceIds */\n      dup6\n      dup6\n        /* \"@pythnetwork/pyth-sdk-solidity/AbstractPyth.sol\":3143:3144  i */\n      dup4\n        /* \"@pythnetwork/pyth-sdk-solidity/AbstractPyth.sol\":3134:3145  priceIds[i] */\n      dup2\n      dup2\n      lt\n      tag_138\n      jumpi\n      tag_139\n      tag_140\n      jump\t// in\n    tag_139:\n    tag_138:\n      swap1\n      pop\n      0x20\n      mul\n      add\n      calldataload\n        /* \"@pythnetwork/pyth-sdk-solidity/AbstractPyth.sol\":3118:3133  priceFeedExists */\n      tag_66\n        /* \"@pythnetwork/pyth-sdk-solidity/AbstractPyth.sol\":3118:3146  priceFeedExists(priceIds[i]) */\n      jump\t// in\n    tag_137:\n        /* \"@pythnetwork/pyth-sdk-solidity/AbstractPyth.sol\":3117:3146  !priceFeedExists(priceIds[i]) */\n      iszero\n        /* \"@pythnetwork/pyth-sdk-solidity/AbstractPyth.sol\":3117:3229  !priceFeedExists(priceIds[i]) ||... */\n      dup1\n      tag_141\n      jumpi\n      pop\n        /* \"@pythnetwork/pyth-sdk-solidity/AbstractPyth.sol\":3214:3226  publishTimes */\n      dup3\n      dup3\n        /* \"@pythnetwork/pyth-sdk-solidity/AbstractPyth.sol\":3227:3228  i */\n      dup3\n        /* \"@pythnetwork/pyth-sdk-solidity/AbstractPyth.sol\":3214:3229  publishTimes[i] */\n      dup2\n      dup2\n      lt\n      tag_142\n      jumpi\n      tag_143\n      tag_140\n      jump\t// in\n    tag_143:\n    tag_142:\n      swap1\n      pop\n      0x20\n      mul\n      add\n      0x20\n      dup2\n      add\n      swap1\n      tag_144\n      swap2\n      swap1\n      tag_145\n      jump\t// in\n    tag_144:\n        /* \"@pythnetwork/pyth-sdk-solidity/AbstractPyth.sol\":3166:3229  queryPriceFeed(priceIds[i]).price.publishTime < publishTimes[i] */\n      0xffffffffffffffff\n      and\n        /* \"@pythnetwork/pyth-sdk-solidity/AbstractPyth.sol\":3166:3193  queryPriceFeed(priceIds[i]) */\n      tag_146\n        /* \"@pythnetwork/pyth-sdk-solidity/AbstractPyth.sol\":3181:3189  priceIds */\n      dup7\n      dup7\n        /* \"@pythnetwork/pyth-sdk-solidity/AbstractPyth.sol\":3190:3191  i */\n      dup5\n        /* \"@pythnetwork/pyth-sdk-solidity/AbstractPyth.sol\":3181:3192  priceIds[i] */\n      dup2\n      dup2\n      lt\n      tag_147\n      jumpi\n      tag_148\n      tag_140\n      jump\t// in\n    tag_148:\n    tag_147:\n      swap1\n      pop\n      0x20\n      mul\n      add\n      calldataload\n        /* \"@pythnetwork/pyth-sdk-solidity/AbstractPyth.sol\":3166:3180  queryPriceFeed */\n      tag_76\n        /* \"@pythnetwork/pyth-sdk-solidity/AbstractPyth.sol\":3166:3193  queryPriceFeed(priceIds[i]) */\n      jump\t// in\n    tag_146:\n        /* \"@pythnetwork/pyth-sdk-solidity/AbstractPyth.sol\":3166:3199  queryPriceFeed(priceIds[i]).price */\n      0x20\n      add\n      mload\n        /* \"@pythnetwork/pyth-sdk-solidity/AbstractPyth.sol\":3166:3211  queryPriceFeed(priceIds[i]).price.publishTime */\n      0x60\n      add\n      mload\n        /* \"@pythnetwork/pyth-sdk-solidity/AbstractPyth.sol\":3166:3229  queryPriceFeed(priceIds[i]).price.publishTime < publishTimes[i] */\n      lt\n        /* \"@pythnetwork/pyth-sdk-solidity/AbstractPyth.sol\":3117:3229  !priceFeedExists(priceIds[i]) ||... */\n    tag_141:\n        /* \"@pythnetwork/pyth-sdk-solidity/AbstractPyth.sol\":3096:3329  if (... */\n      iszero\n      tag_149\n      jumpi\n        /* \"@pythnetwork/pyth-sdk-solidity/AbstractPyth.sol\":3262:3290  updatePriceFeeds(updateData) */\n      tag_150\n        /* \"@pythnetwork/pyth-sdk-solidity/AbstractPyth.sol\":3279:3289  updateData */\n      dup8\n      dup8\n        /* \"@pythnetwork/pyth-sdk-solidity/AbstractPyth.sol\":3262:3278  updatePriceFeeds */\n      tag_99\n        /* \"@pythnetwork/pyth-sdk-solidity/AbstractPyth.sol\":3262:3290  updatePriceFeeds(updateData) */\n      jump\t// in\n    tag_150:\n        /* \"@pythnetwork/pyth-sdk-solidity/AbstractPyth.sol\":3308:3315  return; */\n      pop\n      jump(tag_132)\n        /* \"@pythnetwork/pyth-sdk-solidity/AbstractPyth.sol\":3096:3329  if (... */\n    tag_149:\n        /* \"@pythnetwork/pyth-sdk-solidity/AbstractPyth.sol\":3077:3080  i++ */\n      dup1\n      dup1\n      0x01\n      add\n      swap2\n      pop\n      pop\n        /* \"@pythnetwork/pyth-sdk-solidity/AbstractPyth.sol\":3039:3339  for (uint i = 0; i < priceIds.length; i++) {... */\n      jump(tag_134)\n    tag_135:\n      pop\n        /* \"@pythnetwork/pyth-sdk-solidity/AbstractPyth.sol\":3356:3382  PythErrors.NoFreshUpdate() */\n      mload(0x40)\n      0xde2c57fa00000000000000000000000000000000000000000000000000000000\n      dup2\n      mstore\n      0x04\n      add\n      mload(0x40)\n      dup1\n      swap2\n      sub\n      swap1\n      revert\n        /* \"@pythnetwork/pyth-sdk-solidity/AbstractPyth.sol\":2736:3389  function updatePriceFeedsIfNecessary(... */\n    tag_132:\n      pop\n      pop\n      pop\n      pop\n      pop\n      pop\n      jump\t// out\n        /* \"@pythnetwork/pyth-sdk-solidity/MockPyth.sol\":507:740  function queryPriceFeed(... */\n    tag_76:\n        /* \"@pythnetwork/pyth-sdk-solidity/MockPyth.sol\":587:625  PythStructs.PriceFeed memory priceFeed */\n      tag_151\n      tag_152\n      jump\t// in\n    tag_151:\n        /* \"@pythnetwork/pyth-sdk-solidity/MockPyth.sol\":662:663  0 */\n      0x00\n        /* \"@pythnetwork/pyth-sdk-solidity/MockPyth.sol\":641:663  priceFeeds[id].id == 0 */\n      dup1\n      shl\n        /* \"@pythnetwork/pyth-sdk-solidity/MockPyth.sol\":641:651  priceFeeds */\n      0x00\n        /* \"@pythnetwork/pyth-sdk-solidity/MockPyth.sol\":641:655  priceFeeds[id] */\n      dup1\n        /* \"@pythnetwork/pyth-sdk-solidity/MockPyth.sol\":652:654  id */\n      dup5\n        /* \"@pythnetwork/pyth-sdk-solidity/MockPyth.sol\":641:655  priceFeeds[id] */\n      dup2\n      mstore\n      0x20\n      add\n      swap1\n      dup2\n      mstore\n      0x20\n      add\n      0x00\n      keccak256\n        /* \"@pythnetwork/pyth-sdk-solidity/MockPyth.sol\":641:658  priceFeeds[id].id */\n      0x00\n      add\n      sload\n        /* \"@pythnetwork/pyth-sdk-solidity/MockPyth.sol\":641:663  priceFeeds[id].id == 0 */\n      sub\n        /* \"@pythnetwork/pyth-sdk-solidity/MockPyth.sol\":637:702  if (priceFeeds[id].id == 0) revert PythErrors.PriceFeedNotFound() */\n      tag_154\n      jumpi\n        /* \"@pythnetwork/pyth-sdk-solidity/MockPyth.sol\":672:702  PythErrors.PriceFeedNotFound() */\n      mload(0x40)\n      0x14aebe6800000000000000000000000000000000000000000000000000000000\n      dup2\n      mstore\n      0x04\n      add\n      mload(0x40)\n      dup1\n      swap2\n      sub\n      swap1\n      revert\n        /* \"@pythnetwork/pyth-sdk-solidity/MockPyth.sol\":637:702  if (priceFeeds[id].id == 0) revert PythErrors.PriceFeedNotFound() */\n    tag_154:\n        /* \"@pythnetwork/pyth-sdk-solidity/MockPyth.sol\":719:729  priceFeeds */\n      0x00\n        /* \"@pythnetwork/pyth-sdk-solidity/MockPyth.sol\":719:733  priceFeeds[id] */\n      dup1\n        /* \"@pythnetwork/pyth-sdk-solidity/MockPyth.sol\":730:732  id */\n      dup4\n        /* \"@pythnetwork/pyth-sdk-solidity/MockPyth.sol\":719:733  priceFeeds[id] */\n      dup2\n      mstore\n      0x20\n      add\n      swap1\n      dup2\n      mstore\n      0x20\n      add\n      0x00\n      keccak256\n        /* \"@pythnetwork/pyth-sdk-solidity/MockPyth.sol\":712:733  return priceFeeds[id] */\n      mload(0x40)\n      dup1\n      0x60\n      add\n      0x40\n      mstore\n      swap1\n      dup2\n      0x00\n      dup3\n      add\n      sload\n      dup2\n      mstore\n      0x20\n      add\n      0x01\n      dup3\n      add\n      mload(0x40)\n      dup1\n      0x80\n      add\n      0x40\n      mstore\n      swap1\n      dup2\n      0x00\n      dup3\n      add\n      0x00\n      swap1\n      sload\n      swap1\n      0x0100\n      exp\n      swap1\n      div\n      0x07\n      signextend\n      0x07\n      signextend\n      0x07\n      signextend\n      dup2\n      mstore\n      0x20\n      add\n      0x00\n      dup3\n      add\n      0x08\n      swap1\n      sload\n      swap1\n      0x0100\n      exp\n      swap1\n      div\n      0xffffffffffffffff\n      and\n      0xffffffffffffffff\n      and\n      0xffffffffffffffff\n      and\n      dup2\n      mstore\n      0x20\n      add\n      0x00\n      dup3\n      add\n      0x10\n      swap1\n      sload\n      swap1\n      0x0100\n      exp\n      swap1\n      div\n      0x03\n      signextend\n      0x03\n      signextend\n      0x03\n      signextend\n      dup2\n      mstore\n      0x20\n      add\n      0x01\n      dup3\n      add\n      sload\n      dup2\n      mstore\n      pop\n      pop\n      dup2\n      mstore\n      0x20\n      add\n      0x03\n      dup3\n      add\n      mload(0x40)\n      dup1\n      0x80\n      add\n      0x40\n      mstore\n      swap1\n      dup2\n      0x00\n      dup3\n      add\n      0x00\n      swap1\n      sload\n      swap1\n      0x0100\n      exp\n      swap1\n      div\n      0x07\n      signextend\n      0x07\n      signextend\n      0x07\n      signextend\n      dup2\n      mstore\n      0x20\n      add\n      0x00\n      dup3\n      add\n      0x08\n      swap1\n      sload\n      swap1\n      0x0100\n      exp\n      swap1\n      div\n      0xffffffffffffffff\n      and\n      0xffffffffffffffff\n      and\n      0xffffffffffffffff\n      and\n      dup2\n      mstore\n      0x20\n      add\n      0x00\n      dup3\n      add\n      0x10\n      swap1\n      sload\n      swap1\n      0x0100\n      exp\n      swap1\n      div\n      0x03\n      signextend\n      0x03\n      signextend\n      0x03\n      signextend\n      dup2\n      mstore\n      0x20\n      add\n      0x01\n      dup3\n      add\n      sload\n      dup2\n      mstore\n      pop\n      pop\n      dup2\n      mstore\n      pop\n      pop\n      swap1\n      pop\n        /* \"@pythnetwork/pyth-sdk-solidity/MockPyth.sol\":507:740  function queryPriceFeed(... */\n      swap2\n      swap1\n      pop\n      jump\t// out\n        /* \"@pythnetwork/pyth-sdk-solidity/MockPyth.sol\":2803:2978  function getUpdateFee(... */\n    tag_83:\n        /* \"@pythnetwork/pyth-sdk-solidity/MockPyth.sol\":2898:2912  uint feeAmount */\n      0x00\n        /* \"@pythnetwork/pyth-sdk-solidity/MockPyth.sol\":2954:2964  updateData */\n      dup3\n      dup3\n        /* \"@pythnetwork/pyth-sdk-solidity/MockPyth.sol\":2954:2971  updateData.length */\n      swap1\n      pop\n        /* \"@pythnetwork/pyth-sdk-solidity/MockPyth.sol\":2931:2951  singleUpdateFeeInWei */\n      sload(0x02)\n        /* \"@pythnetwork/pyth-sdk-solidity/MockPyth.sol\":2931:2971  singleUpdateFeeInWei * updateData.length */\n      tag_156\n      swap2\n      swap1\n      tag_157\n      jump\t// in\n    tag_156:\n        /* \"@pythnetwork/pyth-sdk-solidity/MockPyth.sol\":2924:2971  return singleUpdateFeeInWei * updateData.length */\n      swap1\n      pop\n        /* \"@pythnetwork/pyth-sdk-solidity/MockPyth.sol\":2803:2978  function getUpdateFee(... */\n      swap3\n      swap2\n      pop\n      pop\n      jump\t// out\n        /* \"@pythnetwork/pyth-sdk-solidity/MockPyth.sol\":5338:6114  function createPriceFeedUpdateData(... */\n    tag_90:\n        /* \"@pythnetwork/pyth-sdk-solidity/MockPyth.sol\":5590:5616  bytes memory priceFeedData */\n      0x60\n        /* \"@pythnetwork/pyth-sdk-solidity/MockPyth.sol\":5628:5666  PythStructs.PriceFeed memory priceFeed */\n      tag_159\n      tag_152\n      jump\t// in\n    tag_159:\n        /* \"@pythnetwork/pyth-sdk-solidity/MockPyth.sol\":5692:5694  id */\n      dup10\n        /* \"@pythnetwork/pyth-sdk-solidity/MockPyth.sol\":5677:5686  priceFeed */\n      dup2\n        /* \"@pythnetwork/pyth-sdk-solidity/MockPyth.sol\":5677:5689  priceFeed.id */\n      0x00\n      add\n        /* \"@pythnetwork/pyth-sdk-solidity/MockPyth.sol\":5677:5694  priceFeed.id = id */\n      dup2\n      dup2\n      mstore\n      pop\n      pop\n        /* \"@pythnetwork/pyth-sdk-solidity/MockPyth.sol\":5729:5734  price */\n      dup9\n        /* \"@pythnetwork/pyth-sdk-solidity/MockPyth.sol\":5705:5714  priceFeed */\n      dup2\n        /* \"@pythnetwork/pyth-sdk-solidity/MockPyth.sol\":5705:5720  priceFeed.price */\n      0x20\n      add\n      mload\n        /* \"@pythnetwork/pyth-sdk-solidity/MockPyth.sol\":5705:5726  priceFeed.price.price */\n      0x00\n      add\n        /* \"@pythnetwork/pyth-sdk-solidity/MockPyth.sol\":5705:5734  priceFeed.price.price = price */\n      swap1\n      0x07\n      signextend\n      swap1\n      dup2\n      0x07\n      signextend\n      dup2\n      mstore\n      pop\n      pop\n        /* \"@pythnetwork/pyth-sdk-solidity/MockPyth.sol\":5767:5771  conf */\n      dup8\n        /* \"@pythnetwork/pyth-sdk-solidity/MockPyth.sol\":5744:5753  priceFeed */\n      dup2\n        /* \"@pythnetwork/pyth-sdk-solidity/MockPyth.sol\":5744:5759  priceFeed.price */\n      0x20\n      add\n      mload\n        /* \"@pythnetwork/pyth-sdk-solidity/MockPyth.sol\":5744:5764  priceFeed.price.conf */\n      0x20\n      add\n        /* \"@pythnetwork/pyth-sdk-solidity/MockPyth.sol\":5744:5771  priceFeed.price.conf = conf */\n      swap1\n      0xffffffffffffffff\n      and\n      swap1\n      dup2\n      0xffffffffffffffff\n      and\n      dup2\n      mstore\n      pop\n      pop\n        /* \"@pythnetwork/pyth-sdk-solidity/MockPyth.sol\":5804:5808  expo */\n      dup7\n        /* \"@pythnetwork/pyth-sdk-solidity/MockPyth.sol\":5781:5790  priceFeed */\n      dup2\n        /* \"@pythnetwork/pyth-sdk-solidity/MockPyth.sol\":5781:5796  priceFeed.price */\n      0x20\n      add\n      mload\n        /* \"@pythnetwork/pyth-sdk-solidity/MockPyth.sol\":5781:5801  priceFeed.price.expo */\n      0x40\n      add\n        /* \"@pythnetwork/pyth-sdk-solidity/MockPyth.sol\":5781:5808  priceFeed.price.expo = expo */\n      swap1\n      0x03\n      signextend\n      swap1\n      dup2\n      0x03\n      signextend\n      dup2\n      mstore\n      pop\n      pop\n        /* \"@pythnetwork/pyth-sdk-solidity/MockPyth.sol\":5848:5859  publishTime */\n      dup4\n        /* \"@pythnetwork/pyth-sdk-solidity/MockPyth.sol\":5818:5859  priceFeed.price.publishTime = publishTime */\n      0xffffffffffffffff\n      and\n        /* \"@pythnetwork/pyth-sdk-solidity/MockPyth.sol\":5818:5827  priceFeed */\n      dup2\n        /* \"@pythnetwork/pyth-sdk-solidity/MockPyth.sol\":5818:5833  priceFeed.price */\n      0x20\n      add\n      mload\n        /* \"@pythnetwork/pyth-sdk-solidity/MockPyth.sol\":5818:5845  priceFeed.price.publishTime */\n      0x60\n      add\n        /* \"@pythnetwork/pyth-sdk-solidity/MockPyth.sol\":5818:5859  priceFeed.price.publishTime = publishTime */\n      dup2\n      dup2\n      mstore\n      pop\n      pop\n        /* \"@pythnetwork/pyth-sdk-solidity/MockPyth.sol\":5897:5905  emaPrice */\n      dup6\n        /* \"@pythnetwork/pyth-sdk-solidity/MockPyth.sol\":5870:5879  priceFeed */\n      dup2\n        /* \"@pythnetwork/pyth-sdk-solidity/MockPyth.sol\":5870:5888  priceFeed.emaPrice */\n      0x40\n      add\n      mload\n        /* \"@pythnetwork/pyth-sdk-solidity/MockPyth.sol\":5870:5894  priceFeed.emaPrice.price */\n      0x00\n      add\n        /* \"@pythnetwork/pyth-sdk-solidity/MockPyth.sol\":5870:5905  priceFeed.emaPrice.price = emaPrice */\n      swap1\n      0x07\n      signextend\n      swap1\n      dup2\n      0x07\n      signextend\n      dup2\n      mstore\n      pop\n      pop\n        /* \"@pythnetwork/pyth-sdk-solidity/MockPyth.sol\":5941:5948  emaConf */\n      dup5\n        /* \"@pythnetwork/pyth-sdk-solidity/MockPyth.sol\":5915:5924  priceFeed */\n      dup2\n        /* \"@pythnetwork/pyth-sdk-solidity/MockPyth.sol\":5915:5933  priceFeed.emaPrice */\n      0x40\n      add\n      mload\n        /* \"@pythnetwork/pyth-sdk-solidity/MockPyth.sol\":5915:5938  priceFeed.emaPrice.conf */\n      0x20\n      add\n        /* \"@pythnetwork/pyth-sdk-solidity/MockPyth.sol\":5915:5948  priceFeed.emaPrice.conf = emaConf */\n      swap1\n      0xffffffffffffffff\n      and\n      swap1\n      dup2\n      0xffffffffffffffff\n      and\n      dup2\n      mstore\n      pop\n      pop\n        /* \"@pythnetwork/pyth-sdk-solidity/MockPyth.sol\":5984:5988  expo */\n      dup7\n        /* \"@pythnetwork/pyth-sdk-solidity/MockPyth.sol\":5958:5967  priceFeed */\n      dup2\n        /* \"@pythnetwork/pyth-sdk-solidity/MockPyth.sol\":5958:5976  priceFeed.emaPrice */\n      0x40\n      add\n      mload\n        /* \"@pythnetwork/pyth-sdk-solidity/MockPyth.sol\":5958:5981  priceFeed.emaPrice.expo */\n      0x40\n      add\n        /* \"@pythnetwork/pyth-sdk-solidity/MockPyth.sol\":5958:5988  priceFeed.emaPrice.expo = expo */\n      swap1\n      0x03\n      signextend\n      swap1\n      dup2\n      0x03\n      signextend\n      dup2\n      mstore\n      pop\n      pop\n        /* \"@pythnetwork/pyth-sdk-solidity/MockPyth.sol\":6031:6042  publishTime */\n      dup4\n        /* \"@pythnetwork/pyth-sdk-solidity/MockPyth.sol\":5998:6042  priceFeed.emaPrice.publishTime = publishTime */\n      0xffffffffffffffff\n      and\n        /* \"@pythnetwork/pyth-sdk-solidity/MockPyth.sol\":5998:6007  priceFeed */\n      dup2\n        /* \"@pythnetwork/pyth-sdk-solidity/MockPyth.sol\":5998:6016  priceFeed.emaPrice */\n      0x40\n      add\n      mload\n        /* \"@pythnetwork/pyth-sdk-solidity/MockPyth.sol\":5998:6028  priceFeed.emaPrice.publishTime */\n      0x60\n      add\n        /* \"@pythnetwork/pyth-sdk-solidity/MockPyth.sol\":5998:6042  priceFeed.emaPrice.publishTime = publishTime */\n      dup2\n      dup2\n      mstore\n      pop\n      pop\n        /* \"@pythnetwork/pyth-sdk-solidity/MockPyth.sol\":6080:6089  priceFeed */\n      dup1\n        /* \"@pythnetwork/pyth-sdk-solidity/MockPyth.sol\":6091:6106  prevPublishTime */\n      dup4\n        /* \"@pythnetwork/pyth-sdk-solidity/MockPyth.sol\":6069:6107  abi.encode(priceFeed, prevPublishTime) */\n      add(0x20, mload(0x40))\n      tag_160\n      swap3\n      swap2\n      swap1\n      tag_161\n      jump\t// in\n    tag_160:\n      mload(0x40)\n      0x20\n      dup2\n      dup4\n      sub\n      sub\n      dup2\n      mstore\n      swap1\n      0x40\n      mstore\n        /* \"@pythnetwork/pyth-sdk-solidity/MockPyth.sol\":6053:6107  priceFeedData = abi.encode(priceFeed, prevPublishTime) */\n      swap2\n      pop\n        /* \"@pythnetwork/pyth-sdk-solidity/MockPyth.sol\":5618:6114  {... */\n      pop\n        /* \"@pythnetwork/pyth-sdk-solidity/MockPyth.sol\":5338:6114  function createPriceFeedUpdateData(... */\n      swap9\n      swap8\n      pop\n      pop\n      pop\n      pop\n      pop\n      pop\n      pop\n      pop\n      jump\t// out\n        /* \"@pythnetwork/pyth-sdk-solidity/MockPyth.sol\":873:978  function getValidTimePeriod() public view override returns (uint) {... */\n    tag_95:\n        /* \"@pythnetwork/pyth-sdk-solidity/MockPyth.sol\":933:937  uint */\n      0x00\n        /* \"@pythnetwork/pyth-sdk-solidity/MockPyth.sol\":956:971  validTimePeriod */\n      sload(0x03)\n        /* \"@pythnetwork/pyth-sdk-solidity/MockPyth.sol\":949:971  return validTimePeriod */\n      swap1\n      pop\n        /* \"@pythnetwork/pyth-sdk-solidity/MockPyth.sol\":873:978  function getValidTimePeriod() public view override returns (uint) {... */\n      swap1\n      jump\t// out\n        /* \"@pythnetwork/pyth-sdk-solidity/MockPyth.sol\":1174:2797  function updatePriceFeeds(... */\n    tag_99:\n        /* \"@pythnetwork/pyth-sdk-solidity/MockPyth.sol\":1277:1293  uint requiredFee */\n      0x00\n        /* \"@pythnetwork/pyth-sdk-solidity/MockPyth.sol\":1296:1320  getUpdateFee(updateData) */\n      tag_164\n        /* \"@pythnetwork/pyth-sdk-solidity/MockPyth.sol\":1309:1319  updateData */\n      dup4\n      dup4\n        /* \"@pythnetwork/pyth-sdk-solidity/MockPyth.sol\":1296:1308  getUpdateFee */\n      tag_83\n        /* \"@pythnetwork/pyth-sdk-solidity/MockPyth.sol\":1296:1320  getUpdateFee(updateData) */\n      jump\t// in\n    tag_164:\n        /* \"@pythnetwork/pyth-sdk-solidity/MockPyth.sol\":1277:1320  uint requiredFee = getUpdateFee(updateData) */\n      swap1\n      pop\n        /* \"@pythnetwork/pyth-sdk-solidity/MockPyth.sol\":1346:1357  requiredFee */\n      dup1\n        /* \"@pythnetwork/pyth-sdk-solidity/MockPyth.sol\":1334:1343  msg.value */\n      callvalue\n        /* \"@pythnetwork/pyth-sdk-solidity/MockPyth.sol\":1334:1357  msg.value < requiredFee */\n      lt\n        /* \"@pythnetwork/pyth-sdk-solidity/MockPyth.sol\":1330:1394  if (msg.value < requiredFee) revert PythErrors.InsufficientFee() */\n      iszero\n      tag_165\n      jumpi\n        /* \"@pythnetwork/pyth-sdk-solidity/MockPyth.sol\":1366:1394  PythErrors.InsufficientFee() */\n      mload(0x40)\n      0x025dbdd400000000000000000000000000000000000000000000000000000000\n      dup2\n      mstore\n      0x04\n      add\n      mload(0x40)\n      dup1\n      swap2\n      sub\n      swap1\n      revert\n        /* \"@pythnetwork/pyth-sdk-solidity/MockPyth.sol\":1330:1394  if (msg.value < requiredFee) revert PythErrors.InsufficientFee() */\n    tag_165:\n        /* \"@pythnetwork/pyth-sdk-solidity/MockPyth.sol\":1545:1559  uint16 chainId */\n      0x00\n        /* \"@pythnetwork/pyth-sdk-solidity/MockPyth.sol\":1562:1563  1 */\n      0x01\n        /* \"@pythnetwork/pyth-sdk-solidity/MockPyth.sol\":1545:1563  uint16 chainId = 1 */\n      swap1\n      pop\n        /* \"@pythnetwork/pyth-sdk-solidity/MockPyth.sol\":1579:1585  uint i */\n      0x00\n        /* \"@pythnetwork/pyth-sdk-solidity/MockPyth.sol\":1574:2304  for (uint i = 0; i < updateData.length; i++) {... */\n    tag_166:\n        /* \"@pythnetwork/pyth-sdk-solidity/MockPyth.sol\":1595:1605  updateData */\n      dup5\n      dup5\n        /* \"@pythnetwork/pyth-sdk-solidity/MockPyth.sol\":1595:1612  updateData.length */\n      swap1\n      pop\n        /* \"@pythnetwork/pyth-sdk-solidity/MockPyth.sol\":1591:1592  i */\n      dup2\n        /* \"@pythnetwork/pyth-sdk-solidity/MockPyth.sol\":1591:1612  i < updateData.length */\n      lt\n        /* \"@pythnetwork/pyth-sdk-solidity/MockPyth.sol\":1574:2304  for (uint i = 0; i < updateData.length; i++) {... */\n      iszero\n      tag_167\n      jumpi\n        /* \"@pythnetwork/pyth-sdk-solidity/MockPyth.sol\":1633:1671  PythStructs.PriceFeed memory priceFeed */\n      0x00\n        /* \"@pythnetwork/pyth-sdk-solidity/MockPyth.sol\":1702:1712  updateData */\n      dup6\n      dup6\n        /* \"@pythnetwork/pyth-sdk-solidity/MockPyth.sol\":1713:1714  i */\n      dup4\n        /* \"@pythnetwork/pyth-sdk-solidity/MockPyth.sol\":1702:1715  updateData[i] */\n      dup2\n      dup2\n      lt\n      tag_169\n      jumpi\n      tag_170\n      tag_140\n      jump\t// in\n    tag_170:\n    tag_169:\n      swap1\n      pop\n      0x20\n      mul\n      dup2\n      add\n      swap1\n      tag_171\n      swap2\n      swap1\n      tag_172\n      jump\t// in\n    tag_171:\n        /* \"@pythnetwork/pyth-sdk-solidity/MockPyth.sol\":1674:1770  abi.decode(... */\n      dup2\n      add\n      swap1\n      tag_173\n      swap2\n      swap1\n      tag_174\n      jump\t// in\n    tag_173:\n        /* \"@pythnetwork/pyth-sdk-solidity/MockPyth.sol\":1633:1770  PythStructs.PriceFeed memory priceFeed = abi.decode(... */\n      swap1\n      pop\n        /* \"@pythnetwork/pyth-sdk-solidity/MockPyth.sol\":1785:1805  uint lastPublishTime */\n      0x00\n        /* \"@pythnetwork/pyth-sdk-solidity/MockPyth.sol\":1808:1818  priceFeeds */\n      dup1\n        /* \"@pythnetwork/pyth-sdk-solidity/MockPyth.sol\":1808:1832  priceFeeds[priceFeed.id] */\n      0x00\n        /* \"@pythnetwork/pyth-sdk-solidity/MockPyth.sol\":1819:1828  priceFeed */\n      dup4\n        /* \"@pythnetwork/pyth-sdk-solidity/MockPyth.sol\":1819:1831  priceFeed.id */\n      0x00\n      add\n      mload\n        /* \"@pythnetwork/pyth-sdk-solidity/MockPyth.sol\":1808:1832  priceFeeds[priceFeed.id] */\n      dup2\n      mstore\n      0x20\n      add\n      swap1\n      dup2\n      mstore\n      0x20\n      add\n      0x00\n      keccak256\n        /* \"@pythnetwork/pyth-sdk-solidity/MockPyth.sol\":1808:1838  priceFeeds[priceFeed.id].price */\n      0x01\n      add\n        /* \"@pythnetwork/pyth-sdk-solidity/MockPyth.sol\":1808:1850  priceFeeds[priceFeed.id].price.publishTime */\n      0x01\n      add\n      sload\n        /* \"@pythnetwork/pyth-sdk-solidity/MockPyth.sol\":1785:1850  uint lastPublishTime = priceFeeds[priceFeed.id].price.publishTime */\n      swap1\n      pop\n        /* \"@pythnetwork/pyth-sdk-solidity/MockPyth.sol\":1887:1896  priceFeed */\n      dup2\n        /* \"@pythnetwork/pyth-sdk-solidity/MockPyth.sol\":1887:1902  priceFeed.price */\n      0x20\n      add\n      mload\n        /* \"@pythnetwork/pyth-sdk-solidity/MockPyth.sol\":1887:1914  priceFeed.price.publishTime */\n      0x60\n      add\n      mload\n        /* \"@pythnetwork/pyth-sdk-solidity/MockPyth.sol\":1869:1884  lastPublishTime */\n      dup2\n        /* \"@pythnetwork/pyth-sdk-solidity/MockPyth.sol\":1869:1914  lastPublishTime < priceFeed.price.publishTime */\n      lt\n        /* \"@pythnetwork/pyth-sdk-solidity/MockPyth.sol\":1865:2294  if (lastPublishTime < priceFeed.price.publishTime) {... */\n      iszero\n      tag_175\n      jumpi\n        /* \"@pythnetwork/pyth-sdk-solidity/MockPyth.sol\":2050:2059  priceFeed */\n      dup2\n        /* \"@pythnetwork/pyth-sdk-solidity/MockPyth.sol\":2023:2033  priceFeeds */\n      0x00\n        /* \"@pythnetwork/pyth-sdk-solidity/MockPyth.sol\":2023:2047  priceFeeds[priceFeed.id] */\n      dup1\n        /* \"@pythnetwork/pyth-sdk-solidity/MockPyth.sol\":2034:2043  priceFeed */\n      dup5\n        /* \"@pythnetwork/pyth-sdk-solidity/MockPyth.sol\":2034:2046  priceFeed.id */\n      0x00\n      add\n      mload\n        /* \"@pythnetwork/pyth-sdk-solidity/MockPyth.sol\":2023:2047  priceFeeds[priceFeed.id] */\n      dup2\n      mstore\n      0x20\n      add\n      swap1\n      dup2\n      mstore\n      0x20\n      add\n      0x00\n      keccak256\n        /* \"@pythnetwork/pyth-sdk-solidity/MockPyth.sol\":2023:2059  priceFeeds[priceFeed.id] = priceFeed */\n      0x00\n      dup3\n      add\n      mload\n      dup2\n      0x00\n      add\n      sstore\n      0x20\n      dup3\n      add\n      mload\n      dup2\n      0x01\n      add\n      0x00\n      dup3\n      add\n      mload\n      dup2\n      0x00\n      add\n      exp(0x0100, 0x00)\n      dup2\n      sload\n      dup2\n      0xffffffffffffffff\n      mul\n      not\n      and\n      swap1\n      dup4\n      0x07\n      signextend\n      0xffffffffffffffff\n      and\n      mul\n      or\n      swap1\n      sstore\n      pop\n      0x20\n      dup3\n      add\n      mload\n      dup2\n      0x00\n      add\n      exp(0x0100, 0x08)\n      dup2\n      sload\n      dup2\n      0xffffffffffffffff\n      mul\n      not\n      and\n      swap1\n      dup4\n      0xffffffffffffffff\n      and\n      mul\n      or\n      swap1\n      sstore\n      pop\n      0x40\n      dup3\n      add\n      mload\n      dup2\n      0x00\n      add\n      exp(0x0100, 0x10)\n      dup2\n      sload\n      dup2\n      0xffffffff\n      mul\n      not\n      and\n      swap1\n      dup4\n      0x03\n      signextend\n      0xffffffff\n      and\n      mul\n      or\n      swap1\n      sstore\n      pop\n      0x60\n      dup3\n      add\n      mload\n      dup2\n      0x01\n      add\n      sstore\n      pop\n      pop\n      0x40\n      dup3\n      add\n      mload\n      dup2\n      0x03\n      add\n      0x00\n      dup3\n      add\n      mload\n      dup2\n      0x00\n      add\n      exp(0x0100, 0x00)\n      dup2\n      sload\n      dup2\n      0xffffffffffffffff\n      mul\n      not\n      and\n      swap1\n      dup4\n      0x07\n      signextend\n      0xffffffffffffffff\n      and\n      mul\n      or\n      swap1\n      sstore\n      pop\n      0x20\n      dup3\n      add\n      mload\n      dup2\n      0x00\n      add\n      exp(0x0100, 0x08)\n      dup2\n      sload\n      dup2\n      0xffffffffffffffff\n      mul\n      not\n      and\n      swap1\n      dup4\n      0xffffffffffffffff\n      and\n      mul\n      or\n      swap1\n      sstore\n      pop\n      0x40\n      dup3\n      add\n      mload\n      dup2\n      0x00\n      add\n      exp(0x0100, 0x10)\n      dup2\n      sload\n      dup2\n      0xffffffff\n      mul\n      not\n      and\n      swap1\n      dup4\n      0x03\n      signextend\n      0xffffffff\n      and\n      mul\n      or\n      swap1\n      sstore\n      pop\n      0x60\n      dup3\n      add\n      mload\n      dup2\n      0x01\n      add\n      sstore\n      pop\n      pop\n      swap1\n      pop\n      pop\n        /* \"@pythnetwork/pyth-sdk-solidity/MockPyth.sol\":2119:2128  priceFeed */\n      dup2\n        /* \"@pythnetwork/pyth-sdk-solidity/MockPyth.sol\":2119:2131  priceFeed.id */\n      0x00\n      add\n      mload\n        /* \"@pythnetwork/pyth-sdk-solidity/MockPyth.sol\":2082:2279  PriceFeedUpdate(... */\n      0xd06a6b7f4918494b3719217d1802786c1f5112a6c1d88fe2cfec00b4584f6aec\n        /* \"@pythnetwork/pyth-sdk-solidity/MockPyth.sol\":2160:2175  lastPublishTime */\n      dup3\n        /* \"@pythnetwork/pyth-sdk-solidity/MockPyth.sol\":2198:2207  priceFeed */\n      dup5\n        /* \"@pythnetwork/pyth-sdk-solidity/MockPyth.sol\":2198:2213  priceFeed.price */\n      0x20\n      add\n      mload\n        /* \"@pythnetwork/pyth-sdk-solidity/MockPyth.sol\":2198:2219  priceFeed.price.price */\n      0x00\n      add\n      mload\n        /* \"@pythnetwork/pyth-sdk-solidity/MockPyth.sol\":2241:2250  priceFeed */\n      dup6\n        /* \"@pythnetwork/pyth-sdk-solidity/MockPyth.sol\":2241:2256  priceFeed.price */\n      0x20\n      add\n      mload\n        /* \"@pythnetwork/pyth-sdk-solidity/MockPyth.sol\":2241:2261  priceFeed.price.conf */\n      0x20\n      add\n      mload\n        /* \"@pythnetwork/pyth-sdk-solidity/MockPyth.sol\":2082:2279  PriceFeedUpdate(... */\n      mload(0x40)\n      tag_176\n      swap4\n      swap3\n      swap2\n      swap1\n      tag_177\n      jump\t// in\n    tag_176:\n      mload(0x40)\n      dup1\n      swap2\n      sub\n      swap1\n      log2\n        /* \"@pythnetwork/pyth-sdk-solidity/MockPyth.sol\":1865:2294  if (lastPublishTime < priceFeed.price.publishTime) {... */\n    tag_175:\n        /* \"@pythnetwork/pyth-sdk-solidity/MockPyth.sol\":1619:2304  {... */\n      pop\n      pop\n        /* \"@pythnetwork/pyth-sdk-solidity/MockPyth.sol\":1614:1617  i++ */\n      dup1\n      dup1\n      0x01\n      add\n      swap2\n      pop\n      pop\n        /* \"@pythnetwork/pyth-sdk-solidity/MockPyth.sol\":1574:2304  for (uint i = 0; i < updateData.length; i++) {... */\n      jump(tag_166)\n    tag_167:\n      pop\n        /* \"@pythnetwork/pyth-sdk-solidity/MockPyth.sol\":2716:2761  BatchPriceFeedUpdate(chainId, sequenceNumber) */\n      0x943f0e8a16c19895fb87cbeb1a349ed86d7f31923089dd36c1a1ed5e300f267b\n        /* \"@pythnetwork/pyth-sdk-solidity/MockPyth.sol\":2737:2744  chainId */\n      dup2\n        /* \"@pythnetwork/pyth-sdk-solidity/MockPyth.sol\":2746:2760  sequenceNumber */\n      0x01\n      0x00\n      swap1\n      sload\n      swap1\n      0x0100\n      exp\n      swap1\n      div\n      0xffffffffffffffff\n      and\n        /* \"@pythnetwork/pyth-sdk-solidity/MockPyth.sol\":2716:2761  BatchPriceFeedUpdate(chainId, sequenceNumber) */\n      mload(0x40)\n      tag_178\n      swap3\n      swap2\n      swap1\n      tag_179\n      jump\t// in\n    tag_178:\n      mload(0x40)\n      dup1\n      swap2\n      sub\n      swap1\n      log1\n        /* \"@pythnetwork/pyth-sdk-solidity/MockPyth.sol\":2789:2790  1 */\n      0x01\n        /* \"@pythnetwork/pyth-sdk-solidity/MockPyth.sol\":2771:2785  sequenceNumber */\n      dup1\n      0x00\n        /* \"@pythnetwork/pyth-sdk-solidity/MockPyth.sol\":2771:2790  sequenceNumber += 1 */\n      dup3\n      dup3\n      dup3\n      swap1\n      sload\n      swap1\n      0x0100\n      exp\n      swap1\n      div\n      0xffffffffffffffff\n      and\n      tag_180\n      swap2\n      swap1\n      tag_181\n      jump\t// in\n    tag_180:\n      swap3\n      pop\n      0x0100\n      exp\n      dup2\n      sload\n      dup2\n      0xffffffffffffffff\n      mul\n      not\n      and\n      swap1\n      dup4\n      0xffffffffffffffff\n      and\n      mul\n      or\n      swap1\n      sstore\n      pop\n        /* \"@pythnetwork/pyth-sdk-solidity/MockPyth.sol\":1267:2797  {... */\n      pop\n      pop\n        /* \"@pythnetwork/pyth-sdk-solidity/MockPyth.sol\":1174:2797  function updatePriceFeeds(... */\n      pop\n      pop\n      jump\t// out\n        /* \"@pythnetwork/pyth-sdk-solidity/MockPyth.sol\":2984:4383  function parsePriceFeedUpdatesInternal(... */\n    tag_107:\n        /* \"@pythnetwork/pyth-sdk-solidity/MockPyth.sol\":3204:3240  PythStructs.PriceFeed[] memory feeds */\n      0x60\n        /* \"@pythnetwork/pyth-sdk-solidity/MockPyth.sol\":3252:3268  uint requiredFee */\n      0x00\n        /* \"@pythnetwork/pyth-sdk-solidity/MockPyth.sol\":3271:3295  getUpdateFee(updateData) */\n      tag_183\n        /* \"@pythnetwork/pyth-sdk-solidity/MockPyth.sol\":3284:3294  updateData */\n      dup10\n      dup10\n        /* \"@pythnetwork/pyth-sdk-solidity/MockPyth.sol\":3271:3283  getUpdateFee */\n      tag_83\n        /* \"@pythnetwork/pyth-sdk-solidity/MockPyth.sol\":3271:3295  getUpdateFee(updateData) */\n      jump\t// in\n    tag_183:\n        /* \"@pythnetwork/pyth-sdk-solidity/MockPyth.sol\":3252:3295  uint requiredFee = getUpdateFee(updateData) */\n      swap1\n      pop\n        /* \"@pythnetwork/pyth-sdk-solidity/MockPyth.sol\":3321:3332  requiredFee */\n      dup1\n        /* \"@pythnetwork/pyth-sdk-solidity/MockPyth.sol\":3309:3318  msg.value */\n      callvalue\n        /* \"@pythnetwork/pyth-sdk-solidity/MockPyth.sol\":3309:3332  msg.value < requiredFee */\n      lt\n        /* \"@pythnetwork/pyth-sdk-solidity/MockPyth.sol\":3305:3369  if (msg.value < requiredFee) revert PythErrors.InsufficientFee() */\n      iszero\n      tag_184\n      jumpi\n        /* \"@pythnetwork/pyth-sdk-solidity/MockPyth.sol\":3341:3369  PythErrors.InsufficientFee() */\n      mload(0x40)\n      0x025dbdd400000000000000000000000000000000000000000000000000000000\n      dup2\n      mstore\n      0x04\n      add\n      mload(0x40)\n      dup1\n      swap2\n      sub\n      swap1\n      revert\n        /* \"@pythnetwork/pyth-sdk-solidity/MockPyth.sol\":3305:3369  if (msg.value < requiredFee) revert PythErrors.InsufficientFee() */\n    tag_184:\n        /* \"@pythnetwork/pyth-sdk-solidity/MockPyth.sol\":3416:3424  priceIds */\n      dup7\n      dup7\n        /* \"@pythnetwork/pyth-sdk-solidity/MockPyth.sol\":3416:3431  priceIds.length */\n      swap1\n      pop\n        /* \"@pythnetwork/pyth-sdk-solidity/MockPyth.sol\":3388:3432  new PythStructs.PriceFeed[](priceIds.length) */\n      0xffffffffffffffff\n      dup2\n      gt\n      iszero\n      tag_185\n      jumpi\n      tag_186\n      tag_187\n      jump\t// in\n    tag_186:\n    tag_185:\n      mload(0x40)\n      swap1\n      dup1\n      dup3\n      mstore\n      dup1\n      0x20\n      mul\n      0x20\n      add\n      dup3\n      add\n      0x40\n      mstore\n      dup1\n      iszero\n      tag_188\n      jumpi\n      dup2\n      0x20\n      add\n    tag_189:\n      tag_190\n      tag_152\n      jump\t// in\n    tag_190:\n      dup2\n      mstore\n      0x20\n      add\n      swap1\n      0x01\n      swap1\n      sub\n      swap1\n      dup2\n      tag_189\n      jumpi\n      swap1\n      pop\n    tag_188:\n      pop\n        /* \"@pythnetwork/pyth-sdk-solidity/MockPyth.sol\":3380:3432  feeds = new PythStructs.PriceFeed[](priceIds.length) */\n      swap2\n      pop\n        /* \"@pythnetwork/pyth-sdk-solidity/MockPyth.sol\":3448:3454  uint i */\n      0x00\n        /* \"@pythnetwork/pyth-sdk-solidity/MockPyth.sol\":3443:4377  for (uint i = 0; i < priceIds.length; i++) {... */\n    tag_191:\n        /* \"@pythnetwork/pyth-sdk-solidity/MockPyth.sol\":3464:3472  priceIds */\n      dup8\n      dup8\n        /* \"@pythnetwork/pyth-sdk-solidity/MockPyth.sol\":3464:3479  priceIds.length */\n      swap1\n      pop\n        /* \"@pythnetwork/pyth-sdk-solidity/MockPyth.sol\":3460:3461  i */\n      dup2\n        /* \"@pythnetwork/pyth-sdk-solidity/MockPyth.sol\":3460:3479  i < priceIds.length */\n      lt\n        /* \"@pythnetwork/pyth-sdk-solidity/MockPyth.sol\":3443:4377  for (uint i = 0; i < priceIds.length; i++) {... */\n      iszero\n      tag_192\n      jumpi\n        /* \"@pythnetwork/pyth-sdk-solidity/MockPyth.sol\":3505:3511  uint j */\n      0x00\n        /* \"@pythnetwork/pyth-sdk-solidity/MockPyth.sol\":3500:4256  for (uint j = 0; j < updateData.length; j++) {... */\n    tag_194:\n        /* \"@pythnetwork/pyth-sdk-solidity/MockPyth.sol\":3521:3531  updateData */\n      dup11\n      dup11\n        /* \"@pythnetwork/pyth-sdk-solidity/MockPyth.sol\":3521:3538  updateData.length */\n      swap1\n      pop\n        /* \"@pythnetwork/pyth-sdk-solidity/MockPyth.sol\":3517:3518  j */\n      dup2\n        /* \"@pythnetwork/pyth-sdk-solidity/MockPyth.sol\":3517:3538  j < updateData.length */\n      lt\n        /* \"@pythnetwork/pyth-sdk-solidity/MockPyth.sol\":3500:4256  for (uint j = 0; j < updateData.length; j++) {... */\n      iszero\n      tag_195\n      jumpi\n        /* \"@pythnetwork/pyth-sdk-solidity/MockPyth.sol\":3563:3585  uint64 prevPublishTime */\n      0x00\n        /* \"@pythnetwork/pyth-sdk-solidity/MockPyth.sol\":3665:3675  updateData */\n      dup12\n      dup12\n        /* \"@pythnetwork/pyth-sdk-solidity/MockPyth.sol\":3676:3677  j */\n      dup4\n        /* \"@pythnetwork/pyth-sdk-solidity/MockPyth.sol\":3665:3678  updateData[j] */\n      dup2\n      dup2\n      lt\n      tag_197\n      jumpi\n      tag_198\n      tag_140\n      jump\t// in\n    tag_198:\n    tag_197:\n      swap1\n      pop\n      0x20\n      mul\n      dup2\n      add\n      swap1\n      tag_199\n      swap2\n      swap1\n      tag_172\n      jump\t// in\n    tag_199:\n        /* \"@pythnetwork/pyth-sdk-solidity/MockPyth.sol\":3633:3749  abi.decode(... */\n      dup2\n      add\n      swap1\n      tag_200\n      swap2\n      swap1\n      tag_201\n      jump\t// in\n    tag_200:\n        /* \"@pythnetwork/pyth-sdk-solidity/MockPyth.sol\":3604:3609  feeds */\n      dup7\n        /* \"@pythnetwork/pyth-sdk-solidity/MockPyth.sol\":3610:3611  i */\n      dup6\n        /* \"@pythnetwork/pyth-sdk-solidity/MockPyth.sol\":3604:3612  feeds[i] */\n      dup2\n      mload\n      dup2\n      lt\n      tag_202\n      jumpi\n      tag_203\n      tag_140\n      jump\t// in\n    tag_203:\n    tag_202:\n      0x20\n      mul\n      0x20\n      add\n      add\n        /* \"@pythnetwork/pyth-sdk-solidity/MockPyth.sol\":3603:3749  (feeds[i], prevPublishTime) = abi.decode(... */\n      dup2\n      swap4\n      pop\n      dup3\n      swap1\n      mstore\n      pop\n      pop\n        /* \"@pythnetwork/pyth-sdk-solidity/MockPyth.sol\":3787:3795  priceIds */\n      dup10\n      dup10\n        /* \"@pythnetwork/pyth-sdk-solidity/MockPyth.sol\":3796:3797  i */\n      dup5\n        /* \"@pythnetwork/pyth-sdk-solidity/MockPyth.sol\":3787:3798  priceIds[i] */\n      dup2\n      dup2\n      lt\n      tag_204\n      jumpi\n      tag_205\n      tag_140\n      jump\t// in\n    tag_205:\n    tag_204:\n      swap1\n      pop\n      0x20\n      mul\n      add\n      calldataload\n        /* \"@pythnetwork/pyth-sdk-solidity/MockPyth.sol\":3772:3777  feeds */\n      dup6\n        /* \"@pythnetwork/pyth-sdk-solidity/MockPyth.sol\":3778:3779  i */\n      dup5\n        /* \"@pythnetwork/pyth-sdk-solidity/MockPyth.sol\":3772:3780  feeds[i] */\n      dup2\n      mload\n      dup2\n      lt\n      tag_206\n      jumpi\n      tag_207\n      tag_140\n      jump\t// in\n    tag_207:\n    tag_206:\n      0x20\n      mul\n      0x20\n      add\n      add\n      mload\n        /* \"@pythnetwork/pyth-sdk-solidity/MockPyth.sol\":3772:3783  feeds[i].id */\n      0x00\n      add\n      mload\n        /* \"@pythnetwork/pyth-sdk-solidity/MockPyth.sol\":3772:3798  feeds[i].id == priceIds[i] */\n      sub\n        /* \"@pythnetwork/pyth-sdk-solidity/MockPyth.sol\":3768:4242  if (feeds[i].id == priceIds[i]) {... */\n      tag_208\n      jumpi\n        /* \"@pythnetwork/pyth-sdk-solidity/MockPyth.sol\":3822:3838  uint publishTime */\n      0x00\n        /* \"@pythnetwork/pyth-sdk-solidity/MockPyth.sol\":3841:3846  feeds */\n      dup6\n        /* \"@pythnetwork/pyth-sdk-solidity/MockPyth.sol\":3847:3848  i */\n      dup5\n        /* \"@pythnetwork/pyth-sdk-solidity/MockPyth.sol\":3841:3849  feeds[i] */\n      dup2\n      mload\n      dup2\n      lt\n      tag_209\n      jumpi\n      tag_210\n      tag_140\n      jump\t// in\n    tag_210:\n    tag_209:\n      0x20\n      mul\n      0x20\n      add\n      add\n      mload\n        /* \"@pythnetwork/pyth-sdk-solidity/MockPyth.sol\":3841:3855  feeds[i].price */\n      0x20\n      add\n      mload\n        /* \"@pythnetwork/pyth-sdk-solidity/MockPyth.sol\":3841:3867  feeds[i].price.publishTime */\n      0x60\n      add\n      mload\n        /* \"@pythnetwork/pyth-sdk-solidity/MockPyth.sol\":3822:3867  uint publishTime = feeds[i].price.publishTime */\n      swap1\n      pop\n        /* \"@pythnetwork/pyth-sdk-solidity/MockPyth.sol\":3936:3947  publishTime */\n      dup1\n        /* \"@pythnetwork/pyth-sdk-solidity/MockPyth.sol\":3918:3932  minPublishTime */\n      dup10\n        /* \"@pythnetwork/pyth-sdk-solidity/MockPyth.sol\":3918:3947  minPublishTime <= publishTime */\n      0xffffffffffffffff\n      and\n      gt\n      iszero\n        /* \"@pythnetwork/pyth-sdk-solidity/MockPyth.sol\":3918:4004  minPublishTime <= publishTime &&... */\n      dup1\n      iszero\n      tag_211\n      jumpi\n      pop\n        /* \"@pythnetwork/pyth-sdk-solidity/MockPyth.sol\":3990:4004  maxPublishTime */\n      dup8\n        /* \"@pythnetwork/pyth-sdk-solidity/MockPyth.sol\":3975:4004  publishTime <= maxPublishTime */\n      0xffffffffffffffff\n      and\n        /* \"@pythnetwork/pyth-sdk-solidity/MockPyth.sol\":3975:3986  publishTime */\n      dup2\n        /* \"@pythnetwork/pyth-sdk-solidity/MockPyth.sol\":3975:4004  publishTime <= maxPublishTime */\n      gt\n      iszero\n        /* \"@pythnetwork/pyth-sdk-solidity/MockPyth.sol\":3918:4004  minPublishTime <= publishTime &&... */\n    tag_211:\n        /* \"@pythnetwork/pyth-sdk-solidity/MockPyth.sol\":3918:4077  minPublishTime <= publishTime &&... */\n      dup1\n      iszero\n      tag_212\n      jumpi\n      pop\n        /* \"@pythnetwork/pyth-sdk-solidity/MockPyth.sol\":4034:4040  unique */\n      dup7\n        /* \"@pythnetwork/pyth-sdk-solidity/MockPyth.sol\":4033:4040  !unique */\n      iszero\n        /* \"@pythnetwork/pyth-sdk-solidity/MockPyth.sol\":4033:4076  !unique || prevPublishTime < minPublishTime */\n      dup1\n      tag_213\n      jumpi\n      pop\n        /* \"@pythnetwork/pyth-sdk-solidity/MockPyth.sol\":4062:4076  minPublishTime */\n      dup9\n        /* \"@pythnetwork/pyth-sdk-solidity/MockPyth.sol\":4044:4076  prevPublishTime < minPublishTime */\n      0xffffffffffffffff\n      and\n        /* \"@pythnetwork/pyth-sdk-solidity/MockPyth.sol\":4044:4059  prevPublishTime */\n      dup3\n        /* \"@pythnetwork/pyth-sdk-solidity/MockPyth.sol\":4044:4076  prevPublishTime < minPublishTime */\n      0xffffffffffffffff\n      and\n      lt\n        /* \"@pythnetwork/pyth-sdk-solidity/MockPyth.sol\":4033:4076  !unique || prevPublishTime < minPublishTime */\n    tag_213:\n        /* \"@pythnetwork/pyth-sdk-solidity/MockPyth.sol\":3918:4077  minPublishTime <= publishTime &&... */\n    tag_212:\n        /* \"@pythnetwork/pyth-sdk-solidity/MockPyth.sol\":3889:4224  if (... */\n      iszero\n      tag_214\n      jumpi\n        /* \"@pythnetwork/pyth-sdk-solidity/MockPyth.sol\":4126:4131  break */\n      pop\n      pop\n      jump(tag_195)\n        /* \"@pythnetwork/pyth-sdk-solidity/MockPyth.sol\":3889:4224  if (... */\n    tag_214:\n        /* \"@pythnetwork/pyth-sdk-solidity/MockPyth.sol\":4200:4201  0 */\n      0x00\n        /* \"@pythnetwork/pyth-sdk-solidity/MockPyth.sol\":4186:4201  feeds[i].id = 0 */\n      dup1\n      shl\n        /* \"@pythnetwork/pyth-sdk-solidity/MockPyth.sol\":4186:4191  feeds */\n      dup7\n        /* \"@pythnetwork/pyth-sdk-solidity/MockPyth.sol\":4192:4193  i */\n      dup6\n        /* \"@pythnetwork/pyth-sdk-solidity/MockPyth.sol\":4186:4194  feeds[i] */\n      dup2\n      mload\n      dup2\n      lt\n      tag_216\n      jumpi\n      tag_217\n      tag_140\n      jump\t// in\n    tag_217:\n    tag_216:\n      0x20\n      mul\n      0x20\n      add\n      add\n      mload\n        /* \"@pythnetwork/pyth-sdk-solidity/MockPyth.sol\":4186:4197  feeds[i].id */\n      0x00\n      add\n        /* \"@pythnetwork/pyth-sdk-solidity/MockPyth.sol\":4186:4201  feeds[i].id = 0 */\n      dup2\n      dup2\n      mstore\n      pop\n      pop\n        /* \"@pythnetwork/pyth-sdk-solidity/MockPyth.sol\":3800:4242  {... */\n      pop\n        /* \"@pythnetwork/pyth-sdk-solidity/MockPyth.sol\":3768:4242  if (feeds[i].id == priceIds[i]) {... */\n    tag_208:\n        /* \"@pythnetwork/pyth-sdk-solidity/MockPyth.sol\":3545:4256  {... */\n      pop\n        /* \"@pythnetwork/pyth-sdk-solidity/MockPyth.sol\":3540:3543  j++ */\n      dup1\n      dup1\n      0x01\n      add\n      swap2\n      pop\n      pop\n        /* \"@pythnetwork/pyth-sdk-solidity/MockPyth.sol\":3500:4256  for (uint j = 0; j < updateData.length; j++) {... */\n      jump(tag_194)\n    tag_195:\n      pop\n        /* \"@pythnetwork/pyth-sdk-solidity/MockPyth.sol\":4289:4297  priceIds */\n      dup8\n      dup8\n        /* \"@pythnetwork/pyth-sdk-solidity/MockPyth.sol\":4298:4299  i */\n      dup3\n        /* \"@pythnetwork/pyth-sdk-solidity/MockPyth.sol\":4289:4300  priceIds[i] */\n      dup2\n      dup2\n      lt\n      tag_218\n      jumpi\n      tag_219\n      tag_140\n      jump\t// in\n    tag_219:\n    tag_218:\n      swap1\n      pop\n      0x20\n      mul\n      add\n      calldataload\n        /* \"@pythnetwork/pyth-sdk-solidity/MockPyth.sol\":4274:4279  feeds */\n      dup4\n        /* \"@pythnetwork/pyth-sdk-solidity/MockPyth.sol\":4280:4281  i */\n      dup3\n        /* \"@pythnetwork/pyth-sdk-solidity/MockPyth.sol\":4274:4282  feeds[i] */\n      dup2\n      mload\n      dup2\n      lt\n      tag_220\n      jumpi\n      tag_221\n      tag_140\n      jump\t// in\n    tag_221:\n    tag_220:\n      0x20\n      mul\n      0x20\n      add\n      add\n      mload\n        /* \"@pythnetwork/pyth-sdk-solidity/MockPyth.sol\":4274:4285  feeds[i].id */\n      0x00\n      add\n      mload\n        /* \"@pythnetwork/pyth-sdk-solidity/MockPyth.sol\":4274:4300  feeds[i].id != priceIds[i] */\n      eq\n        /* \"@pythnetwork/pyth-sdk-solidity/MockPyth.sol\":4270:4366  if (feeds[i].id != priceIds[i])... */\n      tag_222\n      jumpi\n        /* \"@pythnetwork/pyth-sdk-solidity/MockPyth.sol\":4325:4366  PythErrors.PriceFeedNotFoundWithinRange() */\n      mload(0x40)\n      0x45805f5d00000000000000000000000000000000000000000000000000000000\n      dup2\n      mstore\n      0x04\n      add\n      mload(0x40)\n      dup1\n      swap2\n      sub\n      swap1\n      revert\n        /* \"@pythnetwork/pyth-sdk-solidity/MockPyth.sol\":4270:4366  if (feeds[i].id != priceIds[i])... */\n    tag_222:\n        /* \"@pythnetwork/pyth-sdk-solidity/MockPyth.sol\":3481:3484  i++ */\n      dup1\n      dup1\n      0x01\n      add\n      swap2\n      pop\n      pop\n        /* \"@pythnetwork/pyth-sdk-solidity/MockPyth.sol\":3443:4377  for (uint i = 0; i < priceIds.length; i++) {... */\n      jump(tag_191)\n    tag_192:\n      pop\n        /* \"@pythnetwork/pyth-sdk-solidity/MockPyth.sol\":3242:4383  {... */\n      pop\n        /* \"@pythnetwork/pyth-sdk-solidity/MockPyth.sol\":2984:4383  function parsePriceFeedUpdatesInternal(... */\n      swap8\n      swap7\n      pop\n      pop\n      pop\n      pop\n      pop\n      pop\n      pop\n      jump\t// out\n        /* \"@pythnetwork/pyth-sdk-solidity/AbstractPyth.sol\":2379:2545  function diff(uint x, uint y) internal pure returns (uint) {... */\n    tag_112:\n        /* \"@pythnetwork/pyth-sdk-solidity/AbstractPyth.sol\":2432:2436  uint */\n      0x00\n        /* \"@pythnetwork/pyth-sdk-solidity/AbstractPyth.sol\":2456:2457  y */\n      dup2\n        /* \"@pythnetwork/pyth-sdk-solidity/AbstractPyth.sol\":2452:2453  x */\n      dup4\n        /* \"@pythnetwork/pyth-sdk-solidity/AbstractPyth.sol\":2452:2457  x > y */\n      gt\n        /* \"@pythnetwork/pyth-sdk-solidity/AbstractPyth.sol\":2448:2539  if (x > y) {... */\n      iszero\n      tag_224\n      jumpi\n        /* \"@pythnetwork/pyth-sdk-solidity/AbstractPyth.sol\":2484:2485  y */\n      dup2\n        /* \"@pythnetwork/pyth-sdk-solidity/AbstractPyth.sol\":2480:2481  x */\n      dup4\n        /* \"@pythnetwork/pyth-sdk-solidity/AbstractPyth.sol\":2480:2485  x - y */\n      tag_225\n      swap2\n      swap1\n      tag_226\n      jump\t// in\n    tag_225:\n        /* \"@pythnetwork/pyth-sdk-solidity/AbstractPyth.sol\":2473:2485  return x - y */\n      swap1\n      pop\n      jump(tag_223)\n        /* \"@pythnetwork/pyth-sdk-solidity/AbstractPyth.sol\":2448:2539  if (x > y) {... */\n    tag_224:\n        /* \"@pythnetwork/pyth-sdk-solidity/AbstractPyth.sol\":2527:2528  x */\n      dup3\n        /* \"@pythnetwork/pyth-sdk-solidity/AbstractPyth.sol\":2523:2524  y */\n      dup3\n        /* \"@pythnetwork/pyth-sdk-solidity/AbstractPyth.sol\":2523:2528  y - x */\n      tag_228\n      swap2\n      swap1\n      tag_226\n      jump\t// in\n    tag_228:\n        /* \"@pythnetwork/pyth-sdk-solidity/AbstractPyth.sol\":2516:2528  return y - x */\n      swap1\n      pop\n        /* \"@pythnetwork/pyth-sdk-solidity/AbstractPyth.sol\":2379:2545  function diff(uint x, uint y) internal pure returns (uint) {... */\n    tag_223:\n      swap3\n      swap2\n      pop\n      pop\n      jump\t// out\n    tag_101:\n      mload(0x40)\n      dup1\n      0x80\n      add\n      0x40\n      mstore\n      dup1\n      signextend(0x07, 0x00)\n      dup2\n      mstore\n      0x20\n      add\n      and(0xffffffffffffffff, 0x00)\n      dup2\n      mstore\n      0x20\n      add\n      signextend(0x03, 0x00)\n      dup2\n      mstore\n      0x20\n      add\n      0x00\n      dup2\n      mstore\n      pop\n      swap1\n      jump\t// out\n    tag_152:\n      mload(0x40)\n      dup1\n      0x60\n      add\n      0x40\n      mstore\n      dup1\n      0x00\n      dup1\n      not\n      and\n      dup2\n      mstore\n      0x20\n      add\n      tag_229\n      tag_101\n      jump\t// in\n    tag_229:\n      dup2\n      mstore\n      0x20\n      add\n      tag_230\n      tag_101\n      jump\t// in\n    tag_230:\n      dup2\n      mstore\n      pop\n      swap1\n      jump\t// out\n        /* \"#utility.yul\":7:82   */\n    tag_231:\n        /* \"#utility.yul\":40:46   */\n      0x00\n        /* \"#utility.yul\":73:75   */\n      0x40\n        /* \"#utility.yul\":67:76   */\n      mload\n        /* \"#utility.yul\":57:76   */\n      swap1\n      pop\n        /* \"#utility.yul\":7:82   */\n      swap1\n      jump\t// out\n        /* \"#utility.yul\":88:205   */\n    tag_232:\n        /* \"#utility.yul\":197:198   */\n      0x00\n        /* \"#utility.yul\":194:195   */\n      dup1\n        /* \"#utility.yul\":187:199   */\n      revert\n        /* \"#utility.yul\":211:328   */\n    tag_233:\n        /* \"#utility.yul\":320:321   */\n      0x00\n        /* \"#utility.yul\":317:318   */\n      dup1\n        /* \"#utility.yul\":310:322   */\n      revert\n        /* \"#utility.yul\":334:411   */\n    tag_234:\n        /* \"#utility.yul\":371:378   */\n      0x00\n        /* \"#utility.yul\":400:405   */\n      dup2\n        /* \"#utility.yul\":389:405   */\n      swap1\n      pop\n        /* \"#utility.yul\":334:411   */\n      swap2\n      swap1\n      pop\n      jump\t// out\n        /* \"#utility.yul\":417:539   */\n    tag_235:\n        /* \"#utility.yul\":490:514   */\n      tag_298\n        /* \"#utility.yul\":508:513   */\n      dup2\n        /* \"#utility.yul\":490:514   */\n      tag_234\n      jump\t// in\n    tag_298:\n        /* \"#utility.yul\":483:488   */\n      dup2\n        /* \"#utility.yul\":480:515   */\n      eq\n        /* \"#utility.yul\":470:533   */\n      tag_299\n      jumpi\n        /* \"#utility.yul\":529:530   */\n      0x00\n        /* \"#utility.yul\":526:527   */\n      dup1\n        /* \"#utility.yul\":519:531   */\n      revert\n        /* \"#utility.yul\":470:533   */\n    tag_299:\n        /* \"#utility.yul\":417:539   */\n      pop\n      jump\t// out\n        /* \"#utility.yul\":545:684   */\n    tag_236:\n        /* \"#utility.yul\":591:596   */\n      0x00\n        /* \"#utility.yul\":629:635   */\n      dup2\n        /* \"#utility.yul\":616:636   */\n      calldataload\n        /* \"#utility.yul\":607:636   */\n      swap1\n      pop\n        /* \"#utility.yul\":645:678   */\n      tag_301\n        /* \"#utility.yul\":672:677   */\n      dup2\n        /* \"#utility.yul\":645:678   */\n      tag_235\n      jump\t// in\n    tag_301:\n        /* \"#utility.yul\":545:684   */\n      swap3\n      swap2\n      pop\n      pop\n      jump\t// out\n        /* \"#utility.yul\":690:1019   */\n    tag_23:\n        /* \"#utility.yul\":749:755   */\n      0x00\n        /* \"#utility.yul\":798:800   */\n      0x20\n        /* \"#utility.yul\":786:795   */\n      dup3\n        /* \"#utility.yul\":777:784   */\n      dup5\n        /* \"#utility.yul\":773:796   */\n      sub\n        /* \"#utility.yul\":769:801   */\n      slt\n        /* \"#utility.yul\":766:885   */\n      iszero\n      tag_303\n      jumpi\n        /* \"#utility.yul\":804:883   */\n      tag_304\n      tag_232\n      jump\t// in\n    tag_304:\n        /* \"#utility.yul\":766:885   */\n    tag_303:\n        /* \"#utility.yul\":924:925   */\n      0x00\n        /* \"#utility.yul\":949:1002   */\n      tag_305\n        /* \"#utility.yul\":994:1001   */\n      dup5\n        /* \"#utility.yul\":985:991   */\n      dup3\n        /* \"#utility.yul\":974:983   */\n      dup6\n        /* \"#utility.yul\":970:992   */\n      add\n        /* \"#utility.yul\":949:1002   */\n      tag_236\n      jump\t// in\n    tag_305:\n        /* \"#utility.yul\":939:1002   */\n      swap2\n      pop\n        /* \"#utility.yul\":895:1012   */\n      pop\n        /* \"#utility.yul\":690:1019   */\n      swap3\n      swap2\n      pop\n      pop\n      jump\t// out\n        /* \"#utility.yul\":1025:1115   */\n    tag_237:\n        /* \"#utility.yul\":1060:1067   */\n      0x00\n        /* \"#utility.yul\":1103:1108   */\n      dup2\n        /* \"#utility.yul\":1100:1101   */\n      0x07\n        /* \"#utility.yul\":1089:1109   */\n      signextend\n        /* \"#utility.yul\":1078:1109   */\n      swap1\n      pop\n        /* \"#utility.yul\":1025:1115   */\n      swap2\n      swap1\n      pop\n      jump\t// out\n        /* \"#utility.yul\":1121:1223   */\n    tag_238:\n        /* \"#utility.yul\":1194:1216   */\n      tag_308\n        /* \"#utility.yul\":1210:1215   */\n      dup2\n        /* \"#utility.yul\":1194:1216   */\n      tag_237\n      jump\t// in\n    tag_308:\n        /* \"#utility.yul\":1189:1192   */\n      dup3\n        /* \"#utility.yul\":1182:1217   */\n      mstore\n        /* \"#utility.yul\":1121:1223   */\n      pop\n      pop\n      jump\t// out\n        /* \"#utility.yul\":1229:1330   */\n    tag_239:\n        /* \"#utility.yul\":1265:1272   */\n      0x00\n        /* \"#utility.yul\":1305:1323   */\n      0xffffffffffffffff\n        /* \"#utility.yul\":1298:1303   */\n      dup3\n        /* \"#utility.yul\":1294:1324   */\n      and\n        /* \"#utility.yul\":1283:1324   */\n      swap1\n      pop\n        /* \"#utility.yul\":1229:1330   */\n      swap2\n      swap1\n      pop\n      jump\t// out\n        /* \"#utility.yul\":1336:1441   */\n    tag_240:\n        /* \"#utility.yul\":1411:1434   */\n      tag_311\n        /* \"#utility.yul\":1428:1433   */\n      dup2\n        /* \"#utility.yul\":1411:1434   */\n      tag_239\n      jump\t// in\n    tag_311:\n        /* \"#utility.yul\":1406:1409   */\n      dup3\n        /* \"#utility.yul\":1399:1435   */\n      mstore\n        /* \"#utility.yul\":1336:1441   */\n      pop\n      pop\n      jump\t// out\n        /* \"#utility.yul\":1447:1537   */\n    tag_241:\n        /* \"#utility.yul\":1482:1489   */\n      0x00\n        /* \"#utility.yul\":1525:1530   */\n      dup2\n        /* \"#utility.yul\":1522:1523   */\n      0x03\n        /* \"#utility.yul\":1511:1531   */\n      signextend\n        /* \"#utility.yul\":1500:1531   */\n      swap1\n      pop\n        /* \"#utility.yul\":1447:1537   */\n      swap2\n      swap1\n      pop\n      jump\t// out\n        /* \"#utility.yul\":1543:1645   */\n    tag_242:\n        /* \"#utility.yul\":1616:1638   */\n      tag_314\n        /* \"#utility.yul\":1632:1637   */\n      dup2\n        /* \"#utility.yul\":1616:1638   */\n      tag_241\n      jump\t// in\n    tag_314:\n        /* \"#utility.yul\":1611:1614   */\n      dup3\n        /* \"#utility.yul\":1604:1639   */\n      mstore\n        /* \"#utility.yul\":1543:1645   */\n      pop\n      pop\n      jump\t// out\n        /* \"#utility.yul\":1651:1728   */\n    tag_243:\n        /* \"#utility.yul\":1688:1695   */\n      0x00\n        /* \"#utility.yul\":1717:1722   */\n      dup2\n        /* \"#utility.yul\":1706:1722   */\n      swap1\n      pop\n        /* \"#utility.yul\":1651:1728   */\n      swap2\n      swap1\n      pop\n      jump\t// out\n        /* \"#utility.yul\":1734:1842   */\n    tag_244:\n        /* \"#utility.yul\":1811:1835   */\n      tag_317\n        /* \"#utility.yul\":1829:1834   */\n      dup2\n        /* \"#utility.yul\":1811:1835   */\n      tag_243\n      jump\t// in\n    tag_317:\n        /* \"#utility.yul\":1806:1809   */\n      dup3\n        /* \"#utility.yul\":1799:1836   */\n      mstore\n        /* \"#utility.yul\":1734:1842   */\n      pop\n      pop\n      jump\t// out\n        /* \"#utility.yul\":1908:2757   */\n    tag_245:\n        /* \"#utility.yul\":2051:2055   */\n      0x80\n        /* \"#utility.yul\":2046:2049   */\n      dup3\n        /* \"#utility.yul\":2042:2056   */\n      add\n        /* \"#utility.yul\":2139:2143   */\n      0x00\n        /* \"#utility.yul\":2132:2137   */\n      dup3\n        /* \"#utility.yul\":2128:2144   */\n      add\n        /* \"#utility.yul\":2122:2145   */\n      mload\n        /* \"#utility.yul\":2158:2217   */\n      tag_319\n        /* \"#utility.yul\":2211:2215   */\n      0x00\n        /* \"#utility.yul\":2206:2209   */\n      dup6\n        /* \"#utility.yul\":2202:2216   */\n      add\n        /* \"#utility.yul\":2188:2200   */\n      dup3\n        /* \"#utility.yul\":2158:2217   */\n      tag_238\n      jump\t// in\n    tag_319:\n        /* \"#utility.yul\":2066:2227   */\n      pop\n        /* \"#utility.yul\":2309:2313   */\n      0x20\n        /* \"#utility.yul\":2302:2307   */\n      dup3\n        /* \"#utility.yul\":2298:2314   */\n      add\n        /* \"#utility.yul\":2292:2315   */\n      mload\n        /* \"#utility.yul\":2328:2389   */\n      tag_320\n        /* \"#utility.yul\":2383:2387   */\n      0x20\n        /* \"#utility.yul\":2378:2381   */\n      dup6\n        /* \"#utility.yul\":2374:2388   */\n      add\n        /* \"#utility.yul\":2360:2372   */\n      dup3\n        /* \"#utility.yul\":2328:2389   */\n      tag_240\n      jump\t// in\n    tag_320:\n        /* \"#utility.yul\":2237:2399   */\n      pop\n        /* \"#utility.yul\":2481:2485   */\n      0x40\n        /* \"#utility.yul\":2474:2479   */\n      dup3\n        /* \"#utility.yul\":2470:2486   */\n      add\n        /* \"#utility.yul\":2464:2487   */\n      mload\n        /* \"#utility.yul\":2500:2559   */\n      tag_321\n        /* \"#utility.yul\":2553:2557   */\n      0x40\n        /* \"#utility.yul\":2548:2551   */\n      dup6\n        /* \"#utility.yul\":2544:2558   */\n      add\n        /* \"#utility.yul\":2530:2542   */\n      dup3\n        /* \"#utility.yul\":2500:2559   */\n      tag_242\n      jump\t// in\n    tag_321:\n        /* \"#utility.yul\":2409:2569   */\n      pop\n        /* \"#utility.yul\":2658:2662   */\n      0x60\n        /* \"#utility.yul\":2651:2656   */\n      dup3\n        /* \"#utility.yul\":2647:2663   */\n      add\n        /* \"#utility.yul\":2641:2664   */\n      mload\n        /* \"#utility.yul\":2677:2740   */\n      tag_322\n        /* \"#utility.yul\":2734:2738   */\n      0x60\n        /* \"#utility.yul\":2729:2732   */\n      dup6\n        /* \"#utility.yul\":2725:2739   */\n      add\n        /* \"#utility.yul\":2711:2723   */\n      dup3\n        /* \"#utility.yul\":2677:2740   */\n      tag_244\n      jump\t// in\n    tag_322:\n        /* \"#utility.yul\":2579:2750   */\n      pop\n        /* \"#utility.yul\":2020:2757   */\n      pop\n        /* \"#utility.yul\":1908:2757   */\n      pop\n      pop\n      jump\t// out\n        /* \"#utility.yul\":2763:3078   */\n    tag_26:\n        /* \"#utility.yul\":2902:2906   */\n      0x00\n        /* \"#utility.yul\":2940:2943   */\n      0x80\n        /* \"#utility.yul\":2929:2938   */\n      dup3\n        /* \"#utility.yul\":2925:2944   */\n      add\n        /* \"#utility.yul\":2917:2944   */\n      swap1\n      pop\n        /* \"#utility.yul\":2954:3071   */\n      tag_324\n        /* \"#utility.yul\":3068:3069   */\n      0x00\n        /* \"#utility.yul\":3057:3066   */\n      dup4\n        /* \"#utility.yul\":3053:3070   */\n      add\n        /* \"#utility.yul\":3044:3050   */\n      dup5\n        /* \"#utility.yul\":2954:3071   */\n      tag_245\n      jump\t// in\n    tag_324:\n        /* \"#utility.yul\":2763:3078   */\n      swap3\n      swap2\n      pop\n      pop\n      jump\t// out\n        /* \"#utility.yul\":3084:3201   */\n    tag_246:\n        /* \"#utility.yul\":3193:3194   */\n      0x00\n        /* \"#utility.yul\":3190:3191   */\n      dup1\n        /* \"#utility.yul\":3183:3195   */\n      revert\n        /* \"#utility.yul\":3207:3324   */\n    tag_247:\n        /* \"#utility.yul\":3316:3317   */\n      0x00\n        /* \"#utility.yul\":3313:3314   */\n      dup1\n        /* \"#utility.yul\":3306:3318   */\n      revert\n        /* \"#utility.yul\":3330:3447   */\n    tag_248:\n        /* \"#utility.yul\":3439:3440   */\n      0x00\n        /* \"#utility.yul\":3436:3437   */\n      dup1\n        /* \"#utility.yul\":3429:3441   */\n      revert\n        /* \"#utility.yul\":3468:4047   */\n    tag_249:\n        /* \"#utility.yul\":3552:3560   */\n      0x00\n        /* \"#utility.yul\":3562:3568   */\n      dup1\n        /* \"#utility.yul\":3612:3615   */\n      dup4\n        /* \"#utility.yul\":3605:3609   */\n      0x1f\n        /* \"#utility.yul\":3597:3603   */\n      dup5\n        /* \"#utility.yul\":3593:3610   */\n      add\n        /* \"#utility.yul\":3589:3616   */\n      slt\n        /* \"#utility.yul\":3579:3701   */\n      tag_329\n      jumpi\n        /* \"#utility.yul\":3620:3699   */\n      tag_330\n      tag_246\n      jump\t// in\n    tag_330:\n        /* \"#utility.yul\":3579:3701   */\n    tag_329:\n        /* \"#utility.yul\":3733:3739   */\n      dup3\n        /* \"#utility.yul\":3720:3740   */\n      calldataload\n        /* \"#utility.yul\":3710:3740   */\n      swap1\n      pop\n        /* \"#utility.yul\":3763:3781   */\n      0xffffffffffffffff\n        /* \"#utility.yul\":3755:3761   */\n      dup2\n        /* \"#utility.yul\":3752:3782   */\n      gt\n        /* \"#utility.yul\":3749:3866   */\n      iszero\n      tag_331\n      jumpi\n        /* \"#utility.yul\":3785:3864   */\n      tag_332\n      tag_247\n      jump\t// in\n    tag_332:\n        /* \"#utility.yul\":3749:3866   */\n    tag_331:\n        /* \"#utility.yul\":3899:3903   */\n      0x20\n        /* \"#utility.yul\":3891:3897   */\n      dup4\n        /* \"#utility.yul\":3887:3904   */\n      add\n        /* \"#utility.yul\":3875:3904   */\n      swap2\n      pop\n        /* \"#utility.yul\":3953:3956   */\n      dup4\n        /* \"#utility.yul\":3945:3949   */\n      0x20\n        /* \"#utility.yul\":3937:3943   */\n      dup3\n        /* \"#utility.yul\":3933:3950   */\n      mul\n        /* \"#utility.yul\":3923:3931   */\n      dup4\n        /* \"#utility.yul\":3919:3951   */\n      add\n        /* \"#utility.yul\":3916:3957   */\n      gt\n        /* \"#utility.yul\":3913:4041   */\n      iszero\n      tag_333\n      jumpi\n        /* \"#utility.yul\":3960:4039   */\n      tag_334\n      tag_248\n      jump\t// in\n    tag_334:\n        /* \"#utility.yul\":3913:4041   */\n    tag_333:\n        /* \"#utility.yul\":3468:4047   */\n      swap3\n      pop\n      swap3\n      swap1\n      pop\n      jump\t// out\n        /* \"#utility.yul\":4070:4638   */\n    tag_250:\n        /* \"#utility.yul\":4143:4151   */\n      0x00\n        /* \"#utility.yul\":4153:4159   */\n      dup1\n        /* \"#utility.yul\":4203:4206   */\n      dup4\n        /* \"#utility.yul\":4196:4200   */\n      0x1f\n        /* \"#utility.yul\":4188:4194   */\n      dup5\n        /* \"#utility.yul\":4184:4201   */\n      add\n        /* \"#utility.yul\":4180:4207   */\n      slt\n        /* \"#utility.yul\":4170:4292   */\n      tag_336\n      jumpi\n        /* \"#utility.yul\":4211:4290   */\n      tag_337\n      tag_246\n      jump\t// in\n    tag_337:\n        /* \"#utility.yul\":4170:4292   */\n    tag_336:\n        /* \"#utility.yul\":4324:4330   */\n      dup3\n        /* \"#utility.yul\":4311:4331   */\n      calldataload\n        /* \"#utility.yul\":4301:4331   */\n      swap1\n      pop\n        /* \"#utility.yul\":4354:4372   */\n      0xffffffffffffffff\n        /* \"#utility.yul\":4346:4352   */\n      dup2\n        /* \"#utility.yul\":4343:4373   */\n      gt\n        /* \"#utility.yul\":4340:4457   */\n      iszero\n      tag_338\n      jumpi\n        /* \"#utility.yul\":4376:4455   */\n      tag_339\n      tag_247\n      jump\t// in\n    tag_339:\n        /* \"#utility.yul\":4340:4457   */\n    tag_338:\n        /* \"#utility.yul\":4490:4494   */\n      0x20\n        /* \"#utility.yul\":4482:4488   */\n      dup4\n        /* \"#utility.yul\":4478:4495   */\n      add\n        /* \"#utility.yul\":4466:4495   */\n      swap2\n      pop\n        /* \"#utility.yul\":4544:4547   */\n      dup4\n        /* \"#utility.yul\":4536:4540   */\n      0x20\n        /* \"#utility.yul\":4528:4534   */\n      dup3\n        /* \"#utility.yul\":4524:4541   */\n      mul\n        /* \"#utility.yul\":4514:4522   */\n      dup4\n        /* \"#utility.yul\":4510:4542   */\n      add\n        /* \"#utility.yul\":4507:4548   */\n      gt\n        /* \"#utility.yul\":4504:4632   */\n      iszero\n      tag_340\n      jumpi\n        /* \"#utility.yul\":4551:4630   */\n      tag_341\n      tag_248\n      jump\t// in\n    tag_341:\n        /* \"#utility.yul\":4504:4632   */\n    tag_340:\n        /* \"#utility.yul\":4070:4638   */\n      swap3\n      pop\n      swap3\n      swap1\n      pop\n      jump\t// out\n        /* \"#utility.yul\":4644:4764   */\n    tag_251:\n        /* \"#utility.yul\":4716:4739   */\n      tag_343\n        /* \"#utility.yul\":4733:4738   */\n      dup2\n        /* \"#utility.yul\":4716:4739   */\n      tag_239\n      jump\t// in\n    tag_343:\n        /* \"#utility.yul\":4709:4714   */\n      dup2\n        /* \"#utility.yul\":4706:4740   */\n      eq\n        /* \"#utility.yul\":4696:4758   */\n      tag_344\n      jumpi\n        /* \"#utility.yul\":4754:4755   */\n      0x00\n        /* \"#utility.yul\":4751:4752   */\n      dup1\n        /* \"#utility.yul\":4744:4756   */\n      revert\n        /* \"#utility.yul\":4696:4758   */\n    tag_344:\n        /* \"#utility.yul\":4644:4764   */\n      pop\n      jump\t// out\n        /* \"#utility.yul\":4770:4907   */\n    tag_252:\n        /* \"#utility.yul\":4815:4820   */\n      0x00\n        /* \"#utility.yul\":4853:4859   */\n      dup2\n        /* \"#utility.yul\":4840:4860   */\n      calldataload\n        /* \"#utility.yul\":4831:4860   */\n      swap1\n      pop\n        /* \"#utility.yul\":4869:4901   */\n      tag_346\n        /* \"#utility.yul\":4895:4900   */\n      dup2\n        /* \"#utility.yul\":4869:4901   */\n      tag_251\n      jump\t// in\n    tag_346:\n        /* \"#utility.yul\":4770:4907   */\n      swap3\n      swap2\n      pop\n      pop\n      jump\t// out\n        /* \"#utility.yul\":4913:6156   */\n    tag_29:\n        /* \"#utility.yul\":5062:5068   */\n      0x00\n        /* \"#utility.yul\":5070:5076   */\n      dup1\n        /* \"#utility.yul\":5078:5084   */\n      0x00\n        /* \"#utility.yul\":5086:5092   */\n      dup1\n        /* \"#utility.yul\":5094:5100   */\n      0x00\n        /* \"#utility.yul\":5102:5108   */\n      dup1\n        /* \"#utility.yul\":5151:5154   */\n      0x80\n        /* \"#utility.yul\":5139:5148   */\n      dup8\n        /* \"#utility.yul\":5130:5137   */\n      dup10\n        /* \"#utility.yul\":5126:5149   */\n      sub\n        /* \"#utility.yul\":5122:5155   */\n      slt\n        /* \"#utility.yul\":5119:5239   */\n      iszero\n      tag_348\n      jumpi\n        /* \"#utility.yul\":5158:5237   */\n      tag_349\n      tag_232\n      jump\t// in\n    tag_349:\n        /* \"#utility.yul\":5119:5239   */\n    tag_348:\n        /* \"#utility.yul\":5306:5307   */\n      0x00\n        /* \"#utility.yul\":5295:5304   */\n      dup8\n        /* \"#utility.yul\":5291:5308   */\n      add\n        /* \"#utility.yul\":5278:5309   */\n      calldataload\n        /* \"#utility.yul\":5336:5354   */\n      0xffffffffffffffff\n        /* \"#utility.yul\":5328:5334   */\n      dup2\n        /* \"#utility.yul\":5325:5355   */\n      gt\n        /* \"#utility.yul\":5322:5439   */\n      iszero\n      tag_350\n      jumpi\n        /* \"#utility.yul\":5358:5437   */\n      tag_351\n      tag_233\n      jump\t// in\n    tag_351:\n        /* \"#utility.yul\":5322:5439   */\n    tag_350:\n        /* \"#utility.yul\":5471:5562   */\n      tag_352\n        /* \"#utility.yul\":5554:5561   */\n      dup10\n        /* \"#utility.yul\":5545:5551   */\n      dup3\n        /* \"#utility.yul\":5534:5543   */\n      dup11\n        /* \"#utility.yul\":5530:5552   */\n      add\n        /* \"#utility.yul\":5471:5562   */\n      tag_249\n      jump\t// in\n    tag_352:\n        /* \"#utility.yul\":5453:5562   */\n      swap7\n      pop\n      swap7\n      pop\n        /* \"#utility.yul\":5249:5572   */\n      pop\n        /* \"#utility.yul\":5639:5641   */\n      0x20\n        /* \"#utility.yul\":5628:5637   */\n      dup8\n        /* \"#utility.yul\":5624:5642   */\n      add\n        /* \"#utility.yul\":5611:5643   */\n      calldataload\n        /* \"#utility.yul\":5670:5688   */\n      0xffffffffffffffff\n        /* \"#utility.yul\":5662:5668   */\n      dup2\n        /* \"#utility.yul\":5659:5689   */\n      gt\n        /* \"#utility.yul\":5656:5773   */\n      iszero\n      tag_353\n      jumpi\n        /* \"#utility.yul\":5692:5771   */\n      tag_354\n      tag_233\n      jump\t// in\n    tag_354:\n        /* \"#utility.yul\":5656:5773   */\n    tag_353:\n        /* \"#utility.yul\":5805:5885   */\n      tag_355\n        /* \"#utility.yul\":5877:5884   */\n      dup10\n        /* \"#utility.yul\":5868:5874   */\n      dup3\n        /* \"#utility.yul\":5857:5866   */\n      dup11\n        /* \"#utility.yul\":5853:5875   */\n      add\n        /* \"#utility.yul\":5805:5885   */\n      tag_250\n      jump\t// in\n    tag_355:\n        /* \"#utility.yul\":5787:5885   */\n      swap5\n      pop\n      swap5\n      pop\n        /* \"#utility.yul\":5582:5895   */\n      pop\n        /* \"#utility.yul\":5934:5936   */\n      0x40\n        /* \"#utility.yul\":5960:6012   */\n      tag_356\n        /* \"#utility.yul\":6004:6011   */\n      dup10\n        /* \"#utility.yul\":5995:6001   */\n      dup3\n        /* \"#utility.yul\":5984:5993   */\n      dup11\n        /* \"#utility.yul\":5980:6002   */\n      add\n        /* \"#utility.yul\":5960:6012   */\n      tag_252\n      jump\t// in\n    tag_356:\n        /* \"#utility.yul\":5950:6012   */\n      swap3\n      pop\n        /* \"#utility.yul\":5905:6022   */\n      pop\n        /* \"#utility.yul\":6061:6063   */\n      0x60\n        /* \"#utility.yul\":6087:6139   */\n      tag_357\n        /* \"#utility.yul\":6131:6138   */\n      dup10\n        /* \"#utility.yul\":6122:6128   */\n      dup3\n        /* \"#utility.yul\":6111:6120   */\n      dup11\n        /* \"#utility.yul\":6107:6129   */\n      add\n        /* \"#utility.yul\":6087:6139   */\n      tag_252\n      jump\t// in\n    tag_357:\n        /* \"#utility.yul\":6077:6139   */\n      swap2\n      pop\n        /* \"#utility.yul\":6032:6149   */\n      pop\n        /* \"#utility.yul\":4913:6156   */\n      swap3\n      swap6\n      pop\n      swap3\n      swap6\n      pop\n      swap3\n      swap6\n      jump\t// out\n        /* \"#utility.yul\":6162:6303   */\n    tag_253:\n        /* \"#utility.yul\":6256:6262   */\n      0x00\n        /* \"#utility.yul\":6290:6295   */\n      dup2\n        /* \"#utility.yul\":6284:6296   */\n      mload\n        /* \"#utility.yul\":6274:6296   */\n      swap1\n      pop\n        /* \"#utility.yul\":6162:6303   */\n      swap2\n      swap1\n      pop\n      jump\t// out\n        /* \"#utility.yul\":6309:6520   */\n    tag_254:\n        /* \"#utility.yul\":6435:6446   */\n      0x00\n        /* \"#utility.yul\":6469:6475   */\n      dup3\n        /* \"#utility.yul\":6464:6467   */\n      dup3\n        /* \"#utility.yul\":6457:6476   */\n      mstore\n        /* \"#utility.yul\":6509:6513   */\n      0x20\n        /* \"#utility.yul\":6504:6507   */\n      dup3\n        /* \"#utility.yul\":6500:6514   */\n      add\n        /* \"#utility.yul\":6485:6514   */\n      swap1\n      pop\n        /* \"#utility.yul\":6309:6520   */\n      swap3\n      swap2\n      pop\n      pop\n      jump\t// out\n        /* \"#utility.yul\":6526:6685   */\n    tag_255:\n        /* \"#utility.yul\":6620:6624   */\n      0x00\n        /* \"#utility.yul\":6643:6646   */\n      dup2\n        /* \"#utility.yul\":6635:6646   */\n      swap1\n      pop\n        /* \"#utility.yul\":6673:6677   */\n      0x20\n        /* \"#utility.yul\":6668:6671   */\n      dup3\n        /* \"#utility.yul\":6664:6678   */\n      add\n        /* \"#utility.yul\":6656:6678   */\n      swap1\n      pop\n        /* \"#utility.yul\":6526:6685   */\n      swap2\n      swap1\n      pop\n      jump\t// out\n        /* \"#utility.yul\":6691:6799   */\n    tag_256:\n        /* \"#utility.yul\":6768:6792   */\n      tag_362\n        /* \"#utility.yul\":6786:6791   */\n      dup2\n        /* \"#utility.yul\":6768:6792   */\n      tag_234\n      jump\t// in\n    tag_362:\n        /* \"#utility.yul\":6763:6766   */\n      dup3\n        /* \"#utility.yul\":6756:6793   */\n      mstore\n        /* \"#utility.yul\":6691:6799   */\n      pop\n      pop\n      jump\t// out\n        /* \"#utility.yul\":6865:7704   */\n    tag_257:\n        /* \"#utility.yul\":6998:7002   */\n      0x80\n        /* \"#utility.yul\":6993:6996   */\n      dup3\n        /* \"#utility.yul\":6989:7003   */\n      add\n        /* \"#utility.yul\":7086:7090   */\n      0x00\n        /* \"#utility.yul\":7079:7084   */\n      dup3\n        /* \"#utility.yul\":7075:7091   */\n      add\n        /* \"#utility.yul\":7069:7092   */\n      mload\n        /* \"#utility.yul\":7105:7164   */\n      tag_364\n        /* \"#utility.yul\":7158:7162   */\n      0x00\n        /* \"#utility.yul\":7153:7156   */\n      dup6\n        /* \"#utility.yul\":7149:7163   */\n      add\n        /* \"#utility.yul\":7135:7147   */\n      dup3\n        /* \"#utility.yul\":7105:7164   */\n      tag_238\n      jump\t// in\n    tag_364:\n        /* \"#utility.yul\":7013:7174   */\n      pop\n        /* \"#utility.yul\":7256:7260   */\n      0x20\n        /* \"#utility.yul\":7249:7254   */\n      dup3\n        /* \"#utility.yul\":7245:7261   */\n      add\n        /* \"#utility.yul\":7239:7262   */\n      mload\n        /* \"#utility.yul\":7275:7336   */\n      tag_365\n        /* \"#utility.yul\":7330:7334   */\n      0x20\n        /* \"#utility.yul\":7325:7328   */\n      dup6\n        /* \"#utility.yul\":7321:7335   */\n      add\n        /* \"#utility.yul\":7307:7319   */\n      dup3\n        /* \"#utility.yul\":7275:7336   */\n      tag_240\n      jump\t// in\n    tag_365:\n        /* \"#utility.yul\":7184:7346   */\n      pop\n        /* \"#utility.yul\":7428:7432   */\n      0x40\n        /* \"#utility.yul\":7421:7426   */\n      dup3\n        /* \"#utility.yul\":7417:7433   */\n      add\n        /* \"#utility.yul\":7411:7434   */\n      mload\n        /* \"#utility.yul\":7447:7506   */\n      tag_366\n        /* \"#utility.yul\":7500:7504   */\n      0x40\n        /* \"#utility.yul\":7495:7498   */\n      dup6\n        /* \"#utility.yul\":7491:7505   */\n      add\n        /* \"#utility.yul\":7477:7489   */\n      dup3\n        /* \"#utility.yul\":7447:7506   */\n      tag_242\n      jump\t// in\n    tag_366:\n        /* \"#utility.yul\":7356:7516   */\n      pop\n        /* \"#utility.yul\":7605:7609   */\n      0x60\n        /* \"#utility.yul\":7598:7603   */\n      dup3\n        /* \"#utility.yul\":7594:7610   */\n      add\n        /* \"#utility.yul\":7588:7611   */\n      mload\n        /* \"#utility.yul\":7624:7687   */\n      tag_367\n        /* \"#utility.yul\":7681:7685   */\n      0x60\n        /* \"#utility.yul\":7676:7679   */\n      dup6\n        /* \"#utility.yul\":7672:7686   */\n      add\n        /* \"#utility.yul\":7658:7670   */\n      dup3\n        /* \"#utility.yul\":7624:7687   */\n      tag_244\n      jump\t// in\n    tag_367:\n        /* \"#utility.yul\":7526:7697   */\n      pop\n        /* \"#utility.yul\":6967:7704   */\n      pop\n        /* \"#utility.yul\":6865:7704   */\n      pop\n      pop\n      jump\t// out\n        /* \"#utility.yul\":7778:8550   */\n    tag_258:\n        /* \"#utility.yul\":7919:7925   */\n      0x0120\n        /* \"#utility.yul\":7914:7917   */\n      dup3\n        /* \"#utility.yul\":7910:7926   */\n      add\n        /* \"#utility.yul\":8006:8010   */\n      0x00\n        /* \"#utility.yul\":7999:8004   */\n      dup3\n        /* \"#utility.yul\":7995:8011   */\n      add\n        /* \"#utility.yul\":7989:8012   */\n      mload\n        /* \"#utility.yul\":8025:8088   */\n      tag_369\n        /* \"#utility.yul\":8082:8086   */\n      0x00\n        /* \"#utility.yul\":8077:8080   */\n      dup6\n        /* \"#utility.yul\":8073:8087   */\n      add\n        /* \"#utility.yul\":8059:8071   */\n      dup3\n        /* \"#utility.yul\":8025:8088   */\n      tag_256\n      jump\t// in\n    tag_369:\n        /* \"#utility.yul\":7936:8098   */\n      pop\n        /* \"#utility.yul\":8181:8185   */\n      0x20\n        /* \"#utility.yul\":8174:8179   */\n      dup3\n        /* \"#utility.yul\":8170:8186   */\n      add\n        /* \"#utility.yul\":8164:8187   */\n      mload\n        /* \"#utility.yul\":8200:8309   */\n      tag_370\n        /* \"#utility.yul\":8303:8307   */\n      0x20\n        /* \"#utility.yul\":8298:8301   */\n      dup6\n        /* \"#utility.yul\":8294:8308   */\n      add\n        /* \"#utility.yul\":8280:8292   */\n      dup3\n        /* \"#utility.yul\":8200:8309   */\n      tag_257\n      jump\t// in\n    tag_370:\n        /* \"#utility.yul\":8108:8319   */\n      pop\n        /* \"#utility.yul\":8405:8409   */\n      0x40\n        /* \"#utility.yul\":8398:8403   */\n      dup3\n        /* \"#utility.yul\":8394:8410   */\n      add\n        /* \"#utility.yul\":8388:8411   */\n      mload\n        /* \"#utility.yul\":8424:8533   */\n      tag_371\n        /* \"#utility.yul\":8527:8531   */\n      0xa0\n        /* \"#utility.yul\":8522:8525   */\n      dup6\n        /* \"#utility.yul\":8518:8532   */\n      add\n        /* \"#utility.yul\":8504:8516   */\n      dup3\n        /* \"#utility.yul\":8424:8533   */\n      tag_257\n      jump\t// in\n    tag_371:\n        /* \"#utility.yul\":8329:8543   */\n      pop\n        /* \"#utility.yul\":7888:8550   */\n      pop\n        /* \"#utility.yul\":7778:8550   */\n      pop\n      pop\n      jump\t// out\n        /* \"#utility.yul\":8556:8845   */\n    tag_259:\n        /* \"#utility.yul\":8679:8689   */\n      0x00\n        /* \"#utility.yul\":8700:8800   */\n      tag_373\n        /* \"#utility.yul\":8796:8799   */\n      dup4\n        /* \"#utility.yul\":8788:8794   */\n      dup4\n        /* \"#utility.yul\":8700:8800   */\n      tag_258\n      jump\t// in\n    tag_373:\n        /* \"#utility.yul\":8832:8838   */\n      0x0120\n        /* \"#utility.yul\":8827:8830   */\n      dup4\n        /* \"#utility.yul\":8823:8839   */\n      add\n        /* \"#utility.yul\":8809:8839   */\n      swap1\n      pop\n        /* \"#utility.yul\":8556:8845   */\n      swap3\n      swap2\n      pop\n      pop\n      jump\t// out\n        /* \"#utility.yul\":8851:8991   */\n    tag_260:\n        /* \"#utility.yul\":8948:8952   */\n      0x00\n        /* \"#utility.yul\":8980:8984   */\n      0x20\n        /* \"#utility.yul\":8975:8978   */\n      dup3\n        /* \"#utility.yul\":8971:8985   */\n      add\n        /* \"#utility.yul\":8963:8985   */\n      swap1\n      pop\n        /* \"#utility.yul\":8851:8991   */\n      swap2\n      swap1\n      pop\n      jump\t// out\n        /* \"#utility.yul\":9069:10017   */\n    tag_261:\n        /* \"#utility.yul\":9242:9245   */\n      0x00\n        /* \"#utility.yul\":9271:9352   */\n      tag_376\n        /* \"#utility.yul\":9346:9351   */\n      dup3\n        /* \"#utility.yul\":9271:9352   */\n      tag_253\n      jump\t// in\n    tag_376:\n        /* \"#utility.yul\":9368:9481   */\n      tag_377\n        /* \"#utility.yul\":9474:9480   */\n      dup2\n        /* \"#utility.yul\":9469:9472   */\n      dup6\n        /* \"#utility.yul\":9368:9481   */\n      tag_254\n      jump\t// in\n    tag_377:\n        /* \"#utility.yul\":9361:9481   */\n      swap4\n      pop\n        /* \"#utility.yul\":9505:9588   */\n      tag_378\n        /* \"#utility.yul\":9582:9587   */\n      dup4\n        /* \"#utility.yul\":9505:9588   */\n      tag_255\n      jump\t// in\n    tag_378:\n        /* \"#utility.yul\":9611:9618   */\n      dup1\n        /* \"#utility.yul\":9642:9643   */\n      0x00\n        /* \"#utility.yul\":9627:9992   */\n    tag_379:\n        /* \"#utility.yul\":9652:9658   */\n      dup4\n        /* \"#utility.yul\":9649:9650   */\n      dup2\n        /* \"#utility.yul\":9646:9659   */\n      lt\n        /* \"#utility.yul\":9627:9992   */\n      iszero\n      tag_381\n      jumpi\n        /* \"#utility.yul\":9728:9734   */\n      dup2\n        /* \"#utility.yul\":9722:9735   */\n      mload\n        /* \"#utility.yul\":9755:9872   */\n      tag_382\n        /* \"#utility.yul\":9868:9871   */\n      dup9\n        /* \"#utility.yul\":9853:9866   */\n      dup3\n        /* \"#utility.yul\":9755:9872   */\n      tag_259\n      jump\t// in\n    tag_382:\n        /* \"#utility.yul\":9748:9872   */\n      swap8\n      pop\n        /* \"#utility.yul\":9895:9982   */\n      tag_383\n        /* \"#utility.yul\":9975:9981   */\n      dup4\n        /* \"#utility.yul\":9895:9982   */\n      tag_260\n      jump\t// in\n    tag_383:\n        /* \"#utility.yul\":9885:9982   */\n      swap3\n      pop\n        /* \"#utility.yul\":9687:9992   */\n      pop\n        /* \"#utility.yul\":9674:9675   */\n      0x01\n        /* \"#utility.yul\":9671:9672   */\n      dup2\n        /* \"#utility.yul\":9667:9676   */\n      add\n        /* \"#utility.yul\":9662:9676   */\n      swap1\n      pop\n        /* \"#utility.yul\":9627:9992   */\n      jump(tag_379)\n    tag_381:\n        /* \"#utility.yul\":9631:9645   */\n      pop\n        /* \"#utility.yul\":10008:10011   */\n      dup6\n        /* \"#utility.yul\":10001:10011   */\n      swap4\n      pop\n        /* \"#utility.yul\":9247:10017   */\n      pop\n      pop\n      pop\n        /* \"#utility.yul\":9069:10017   */\n      swap3\n      swap2\n      pop\n      pop\n      jump\t// out\n        /* \"#utility.yul\":10023:10504   */\n    tag_32:\n        /* \"#utility.yul\":10220:10224   */\n      0x00\n        /* \"#utility.yul\":10258:10260   */\n      0x20\n        /* \"#utility.yul\":10247:10256   */\n      dup3\n        /* \"#utility.yul\":10243:10261   */\n      add\n        /* \"#utility.yul\":10235:10261   */\n      swap1\n      pop\n        /* \"#utility.yul\":10307:10316   */\n      dup2\n        /* \"#utility.yul\":10301:10305   */\n      dup2\n        /* \"#utility.yul\":10297:10317   */\n      sub\n        /* \"#utility.yul\":10293:10294   */\n      0x00\n        /* \"#utility.yul\":10282:10291   */\n      dup4\n        /* \"#utility.yul\":10278:10295   */\n      add\n        /* \"#utility.yul\":10271:10318   */\n      mstore\n        /* \"#utility.yul\":10335:10497   */\n      tag_385\n        /* \"#utility.yul\":10492:10496   */\n      dup2\n        /* \"#utility.yul\":10483:10489   */\n      dup5\n        /* \"#utility.yul\":10335:10497   */\n      tag_261\n      jump\t// in\n    tag_385:\n        /* \"#utility.yul\":10327:10497   */\n      swap1\n      pop\n        /* \"#utility.yul\":10023:10504   */\n      swap3\n      swap2\n      pop\n      pop\n      jump\t// out\n        /* \"#utility.yul\":10510:10632   */\n    tag_262:\n        /* \"#utility.yul\":10583:10607   */\n      tag_387\n        /* \"#utility.yul\":10601:10606   */\n      dup2\n        /* \"#utility.yul\":10583:10607   */\n      tag_243\n      jump\t// in\n    tag_387:\n        /* \"#utility.yul\":10576:10581   */\n      dup2\n        /* \"#utility.yul\":10573:10608   */\n      eq\n        /* \"#utility.yul\":10563:10626   */\n      tag_388\n      jumpi\n        /* \"#utility.yul\":10622:10623   */\n      0x00\n        /* \"#utility.yul\":10619:10620   */\n      dup1\n        /* \"#utility.yul\":10612:10624   */\n      revert\n        /* \"#utility.yul\":10563:10626   */\n    tag_388:\n        /* \"#utility.yul\":10510:10632   */\n      pop\n      jump\t// out\n        /* \"#utility.yul\":10638:10777   */\n    tag_263:\n        /* \"#utility.yul\":10684:10689   */\n      0x00\n        /* \"#utility.yul\":10722:10728   */\n      dup2\n        /* \"#utility.yul\":10709:10729   */\n      calldataload\n        /* \"#utility.yul\":10700:10729   */\n      swap1\n      pop\n        /* \"#utility.yul\":10738:10771   */\n      tag_390\n        /* \"#utility.yul\":10765:10770   */\n      dup2\n        /* \"#utility.yul\":10738:10771   */\n      tag_262\n      jump\t// in\n    tag_390:\n        /* \"#utility.yul\":10638:10777   */\n      swap3\n      swap2\n      pop\n      pop\n      jump\t// out\n        /* \"#utility.yul\":10783:11257   */\n    tag_36:\n        /* \"#utility.yul\":10851:10857   */\n      0x00\n        /* \"#utility.yul\":10859:10865   */\n      dup1\n        /* \"#utility.yul\":10908:10910   */\n      0x40\n        /* \"#utility.yul\":10896:10905   */\n      dup4\n        /* \"#utility.yul\":10887:10894   */\n      dup6\n        /* \"#utility.yul\":10883:10906   */\n      sub\n        /* \"#utility.yul\":10879:10911   */\n      slt\n        /* \"#utility.yul\":10876:10995   */\n      iszero\n      tag_392\n      jumpi\n        /* \"#utility.yul\":10914:10993   */\n      tag_393\n      tag_232\n      jump\t// in\n    tag_393:\n        /* \"#utility.yul\":10876:10995   */\n    tag_392:\n        /* \"#utility.yul\":11034:11035   */\n      0x00\n        /* \"#utility.yul\":11059:11112   */\n      tag_394\n        /* \"#utility.yul\":11104:11111   */\n      dup6\n        /* \"#utility.yul\":11095:11101   */\n      dup3\n        /* \"#utility.yul\":11084:11093   */\n      dup7\n        /* \"#utility.yul\":11080:11102   */\n      add\n        /* \"#utility.yul\":11059:11112   */\n      tag_236\n      jump\t// in\n    tag_394:\n        /* \"#utility.yul\":11049:11112   */\n      swap3\n      pop\n        /* \"#utility.yul\":11005:11122   */\n      pop\n        /* \"#utility.yul\":11161:11163   */\n      0x20\n        /* \"#utility.yul\":11187:11240   */\n      tag_395\n        /* \"#utility.yul\":11232:11239   */\n      dup6\n        /* \"#utility.yul\":11223:11229   */\n      dup3\n        /* \"#utility.yul\":11212:11221   */\n      dup7\n        /* \"#utility.yul\":11208:11230   */\n      add\n        /* \"#utility.yul\":11187:11240   */\n      tag_263\n      jump\t// in\n    tag_395:\n        /* \"#utility.yul\":11177:11240   */\n      swap2\n      pop\n        /* \"#utility.yul\":11132:11250   */\n      pop\n        /* \"#utility.yul\":10783:11257   */\n      swap3\n      pop\n      swap3\n      swap1\n      pop\n      jump\t// out\n        /* \"#utility.yul\":11263:11353   */\n    tag_264:\n        /* \"#utility.yul\":11297:11304   */\n      0x00\n        /* \"#utility.yul\":11340:11345   */\n      dup2\n        /* \"#utility.yul\":11333:11346   */\n      iszero\n        /* \"#utility.yul\":11326:11347   */\n      iszero\n        /* \"#utility.yul\":11315:11347   */\n      swap1\n      pop\n        /* \"#utility.yul\":11263:11353   */\n      swap2\n      swap1\n      pop\n      jump\t// out\n        /* \"#utility.yul\":11359:11468   */\n    tag_265:\n        /* \"#utility.yul\":11440:11461   */\n      tag_398\n        /* \"#utility.yul\":11455:11460   */\n      dup2\n        /* \"#utility.yul\":11440:11461   */\n      tag_264\n      jump\t// in\n    tag_398:\n        /* \"#utility.yul\":11435:11438   */\n      dup3\n        /* \"#utility.yul\":11428:11462   */\n      mstore\n        /* \"#utility.yul\":11359:11468   */\n      pop\n      pop\n      jump\t// out\n        /* \"#utility.yul\":11474:11684   */\n    tag_68:\n        /* \"#utility.yul\":11561:11565   */\n      0x00\n        /* \"#utility.yul\":11599:11601   */\n      0x20\n        /* \"#utility.yul\":11588:11597   */\n      dup3\n        /* \"#utility.yul\":11584:11602   */\n      add\n        /* \"#utility.yul\":11576:11602   */\n      swap1\n      pop\n        /* \"#utility.yul\":11612:11677   */\n      tag_400\n        /* \"#utility.yul\":11674:11675   */\n      0x00\n        /* \"#utility.yul\":11663:11672   */\n      dup4\n        /* \"#utility.yul\":11659:11676   */\n      add\n        /* \"#utility.yul\":11650:11656   */\n      dup5\n        /* \"#utility.yul\":11612:11677   */\n      tag_265\n      jump\t// in\n    tag_400:\n        /* \"#utility.yul\":11474:11684   */\n      swap3\n      swap2\n      pop\n      pop\n      jump\t// out\n        /* \"#utility.yul\":11706:12273   */\n    tag_266:\n        /* \"#utility.yul\":11778:11786   */\n      0x00\n        /* \"#utility.yul\":11788:11794   */\n      dup1\n        /* \"#utility.yul\":11838:11841   */\n      dup4\n        /* \"#utility.yul\":11831:11835   */\n      0x1f\n        /* \"#utility.yul\":11823:11829   */\n      dup5\n        /* \"#utility.yul\":11819:11836   */\n      add\n        /* \"#utility.yul\":11815:11842   */\n      slt\n        /* \"#utility.yul\":11805:11927   */\n      tag_402\n      jumpi\n        /* \"#utility.yul\":11846:11925   */\n      tag_403\n      tag_246\n      jump\t// in\n    tag_403:\n        /* \"#utility.yul\":11805:11927   */\n    tag_402:\n        /* \"#utility.yul\":11959:11965   */\n      dup3\n        /* \"#utility.yul\":11946:11966   */\n      calldataload\n        /* \"#utility.yul\":11936:11966   */\n      swap1\n      pop\n        /* \"#utility.yul\":11989:12007   */\n      0xffffffffffffffff\n        /* \"#utility.yul\":11981:11987   */\n      dup2\n        /* \"#utility.yul\":11978:12008   */\n      gt\n        /* \"#utility.yul\":11975:12092   */\n      iszero\n      tag_404\n      jumpi\n        /* \"#utility.yul\":12011:12090   */\n      tag_405\n      tag_247\n      jump\t// in\n    tag_405:\n        /* \"#utility.yul\":11975:12092   */\n    tag_404:\n        /* \"#utility.yul\":12125:12129   */\n      0x20\n        /* \"#utility.yul\":12117:12123   */\n      dup4\n        /* \"#utility.yul\":12113:12130   */\n      add\n        /* \"#utility.yul\":12101:12130   */\n      swap2\n      pop\n        /* \"#utility.yul\":12179:12182   */\n      dup4\n        /* \"#utility.yul\":12171:12175   */\n      0x20\n        /* \"#utility.yul\":12163:12169   */\n      dup3\n        /* \"#utility.yul\":12159:12176   */\n      mul\n        /* \"#utility.yul\":12149:12157   */\n      dup4\n        /* \"#utility.yul\":12145:12177   */\n      add\n        /* \"#utility.yul\":12142:12183   */\n      gt\n        /* \"#utility.yul\":12139:12267   */\n      iszero\n      tag_406\n      jumpi\n        /* \"#utility.yul\":12186:12265   */\n      tag_407\n      tag_248\n      jump\t// in\n    tag_407:\n        /* \"#utility.yul\":12139:12267   */\n    tag_406:\n        /* \"#utility.yul\":11706:12273   */\n      swap3\n      pop\n      swap3\n      swap1\n      pop\n      jump\t// out\n        /* \"#utility.yul\":12279:13608   */\n    tag_71:\n        /* \"#utility.yul\":12447:12453   */\n      0x00\n        /* \"#utility.yul\":12455:12461   */\n      dup1\n        /* \"#utility.yul\":12463:12469   */\n      0x00\n        /* \"#utility.yul\":12471:12477   */\n      dup1\n        /* \"#utility.yul\":12479:12485   */\n      0x00\n        /* \"#utility.yul\":12487:12493   */\n      dup1\n        /* \"#utility.yul\":12536:12538   */\n      0x60\n        /* \"#utility.yul\":12524:12533   */\n      dup8\n        /* \"#utility.yul\":12515:12522   */\n      dup10\n        /* \"#utility.yul\":12511:12534   */\n      sub\n        /* \"#utility.yul\":12507:12539   */\n      slt\n        /* \"#utility.yul\":12504:12623   */\n      iszero\n      tag_409\n      jumpi\n        /* \"#utility.yul\":12542:12621   */\n      tag_410\n      tag_232\n      jump\t// in\n    tag_410:\n        /* \"#utility.yul\":12504:12623   */\n    tag_409:\n        /* \"#utility.yul\":12690:12691   */\n      0x00\n        /* \"#utility.yul\":12679:12688   */\n      dup8\n        /* \"#utility.yul\":12675:12692   */\n      add\n        /* \"#utility.yul\":12662:12693   */\n      calldataload\n        /* \"#utility.yul\":12720:12738   */\n      0xffffffffffffffff\n        /* \"#utility.yul\":12712:12718   */\n      dup2\n        /* \"#utility.yul\":12709:12739   */\n      gt\n        /* \"#utility.yul\":12706:12823   */\n      iszero\n      tag_411\n      jumpi\n        /* \"#utility.yul\":12742:12821   */\n      tag_412\n      tag_233\n      jump\t// in\n    tag_412:\n        /* \"#utility.yul\":12706:12823   */\n    tag_411:\n        /* \"#utility.yul\":12855:12946   */\n      tag_413\n        /* \"#utility.yul\":12938:12945   */\n      dup10\n        /* \"#utility.yul\":12929:12935   */\n      dup3\n        /* \"#utility.yul\":12918:12927   */\n      dup11\n        /* \"#utility.yul\":12914:12936   */\n      add\n        /* \"#utility.yul\":12855:12946   */\n      tag_249\n      jump\t// in\n    tag_413:\n        /* \"#utility.yul\":12837:12946   */\n      swap7\n      pop\n      swap7\n      pop\n        /* \"#utility.yul\":12633:12956   */\n      pop\n        /* \"#utility.yul\":13023:13025   */\n      0x20\n        /* \"#utility.yul\":13012:13021   */\n      dup8\n        /* \"#utility.yul\":13008:13026   */\n      add\n        /* \"#utility.yul\":12995:13027   */\n      calldataload\n        /* \"#utility.yul\":13054:13072   */\n      0xffffffffffffffff\n        /* \"#utility.yul\":13046:13052   */\n      dup2\n        /* \"#utility.yul\":13043:13073   */\n      gt\n        /* \"#utility.yul\":13040:13157   */\n      iszero\n      tag_414\n      jumpi\n        /* \"#utility.yul\":13076:13155   */\n      tag_415\n      tag_233\n      jump\t// in\n    tag_415:\n        /* \"#utility.yul\":13040:13157   */\n    tag_414:\n        /* \"#utility.yul\":13189:13269   */\n      tag_416\n        /* \"#utility.yul\":13261:13268   */\n      dup10\n        /* \"#utility.yul\":13252:13258   */\n      dup3\n        /* \"#utility.yul\":13241:13250   */\n      dup11\n        /* \"#utility.yul\":13237:13259   */\n      add\n        /* \"#utility.yul\":13189:13269   */\n      tag_250\n      jump\t// in\n    tag_416:\n        /* \"#utility.yul\":13171:13269   */\n      swap5\n      pop\n      swap5\n      pop\n        /* \"#utility.yul\":12966:13279   */\n      pop\n        /* \"#utility.yul\":13346:13348   */\n      0x40\n        /* \"#utility.yul\":13335:13344   */\n      dup8\n        /* \"#utility.yul\":13331:13349   */\n      add\n        /* \"#utility.yul\":13318:13350   */\n      calldataload\n        /* \"#utility.yul\":13377:13395   */\n      0xffffffffffffffff\n        /* \"#utility.yul\":13369:13375   */\n      dup2\n        /* \"#utility.yul\":13366:13396   */\n      gt\n        /* \"#utility.yul\":13363:13480   */\n      iszero\n      tag_417\n      jumpi\n        /* \"#utility.yul\":13399:13478   */\n      tag_418\n      tag_233\n      jump\t// in\n    tag_418:\n        /* \"#utility.yul\":13363:13480   */\n    tag_417:\n        /* \"#utility.yul\":13512:13591   */\n      tag_419\n        /* \"#utility.yul\":13583:13590   */\n      dup10\n        /* \"#utility.yul\":13574:13580   */\n      dup3\n        /* \"#utility.yul\":13563:13572   */\n      dup11\n        /* \"#utility.yul\":13559:13581   */\n      add\n        /* \"#utility.yul\":13512:13591   */\n      tag_266\n      jump\t// in\n    tag_419:\n        /* \"#utility.yul\":13494:13591   */\n      swap3\n      pop\n      swap3\n      pop\n        /* \"#utility.yul\":13289:13601   */\n      pop\n        /* \"#utility.yul\":12279:13608   */\n      swap3\n      swap6\n      pop\n      swap3\n      swap6\n      pop\n      swap3\n      swap6\n      jump\t// out\n        /* \"#utility.yul\":13682:14464   */\n    tag_267:\n        /* \"#utility.yul\":13833:13839   */\n      0x0120\n        /* \"#utility.yul\":13828:13831   */\n      dup3\n        /* \"#utility.yul\":13824:13840   */\n      add\n        /* \"#utility.yul\":13920:13924   */\n      0x00\n        /* \"#utility.yul\":13913:13918   */\n      dup3\n        /* \"#utility.yul\":13909:13925   */\n      add\n        /* \"#utility.yul\":13903:13926   */\n      mload\n        /* \"#utility.yul\":13939:14002   */\n      tag_421\n        /* \"#utility.yul\":13996:14000   */\n      0x00\n        /* \"#utility.yul\":13991:13994   */\n      dup6\n        /* \"#utility.yul\":13987:14001   */\n      add\n        /* \"#utility.yul\":13973:13985   */\n      dup3\n        /* \"#utility.yul\":13939:14002   */\n      tag_256\n      jump\t// in\n    tag_421:\n        /* \"#utility.yul\":13850:14012   */\n      pop\n        /* \"#utility.yul\":14095:14099   */\n      0x20\n        /* \"#utility.yul\":14088:14093   */\n      dup3\n        /* \"#utility.yul\":14084:14100   */\n      add\n        /* \"#utility.yul\":14078:14101   */\n      mload\n        /* \"#utility.yul\":14114:14223   */\n      tag_422\n        /* \"#utility.yul\":14217:14221   */\n      0x20\n        /* \"#utility.yul\":14212:14215   */\n      dup6\n        /* \"#utility.yul\":14208:14222   */\n      add\n        /* \"#utility.yul\":14194:14206   */\n      dup3\n        /* \"#utility.yul\":14114:14223   */\n      tag_257\n      jump\t// in\n    tag_422:\n        /* \"#utility.yul\":14022:14233   */\n      pop\n        /* \"#utility.yul\":14319:14323   */\n      0x40\n        /* \"#utility.yul\":14312:14317   */\n      dup3\n        /* \"#utility.yul\":14308:14324   */\n      add\n        /* \"#utility.yul\":14302:14325   */\n      mload\n        /* \"#utility.yul\":14338:14447   */\n      tag_423\n        /* \"#utility.yul\":14441:14445   */\n      0xa0\n        /* \"#utility.yul\":14436:14439   */\n      dup6\n        /* \"#utility.yul\":14432:14446   */\n      add\n        /* \"#utility.yul\":14418:14430   */\n      dup3\n        /* \"#utility.yul\":14338:14447   */\n      tag_257\n      jump\t// in\n    tag_423:\n        /* \"#utility.yul\":14243:14457   */\n      pop\n        /* \"#utility.yul\":13802:14464   */\n      pop\n        /* \"#utility.yul\":13682:14464   */\n      pop\n      pop\n      jump\t// out\n        /* \"#utility.yul\":14470:14801   */\n    tag_78:\n        /* \"#utility.yul\":14617:14621   */\n      0x00\n        /* \"#utility.yul\":14655:14658   */\n      0x0120\n        /* \"#utility.yul\":14644:14653   */\n      dup3\n        /* \"#utility.yul\":14640:14659   */\n      add\n        /* \"#utility.yul\":14632:14659   */\n      swap1\n      pop\n        /* \"#utility.yul\":14669:14794   */\n      tag_425\n        /* \"#utility.yul\":14791:14792   */\n      0x00\n        /* \"#utility.yul\":14780:14789   */\n      dup4\n        /* \"#utility.yul\":14776:14793   */\n      add\n        /* \"#utility.yul\":14767:14773   */\n      dup5\n        /* \"#utility.yul\":14669:14794   */\n      tag_267\n      jump\t// in\n    tag_425:\n        /* \"#utility.yul\":14470:14801   */\n      swap3\n      swap2\n      pop\n      pop\n      jump\t// out\n        /* \"#utility.yul\":14807:15388   */\n    tag_82:\n        /* \"#utility.yul\":14904:14910   */\n      0x00\n        /* \"#utility.yul\":14912:14918   */\n      dup1\n        /* \"#utility.yul\":14961:14963   */\n      0x20\n        /* \"#utility.yul\":14949:14958   */\n      dup4\n        /* \"#utility.yul\":14940:14947   */\n      dup6\n        /* \"#utility.yul\":14936:14959   */\n      sub\n        /* \"#utility.yul\":14932:14964   */\n      slt\n        /* \"#utility.yul\":14929:15048   */\n      iszero\n      tag_427\n      jumpi\n        /* \"#utility.yul\":14967:15046   */\n      tag_428\n      tag_232\n      jump\t// in\n    tag_428:\n        /* \"#utility.yul\":14929:15048   */\n    tag_427:\n        /* \"#utility.yul\":15115:15116   */\n      0x00\n        /* \"#utility.yul\":15104:15113   */\n      dup4\n        /* \"#utility.yul\":15100:15117   */\n      add\n        /* \"#utility.yul\":15087:15118   */\n      calldataload\n        /* \"#utility.yul\":15145:15163   */\n      0xffffffffffffffff\n        /* \"#utility.yul\":15137:15143   */\n      dup2\n        /* \"#utility.yul\":15134:15164   */\n      gt\n        /* \"#utility.yul\":15131:15248   */\n      iszero\n      tag_429\n      jumpi\n        /* \"#utility.yul\":15167:15246   */\n      tag_430\n      tag_233\n      jump\t// in\n    tag_430:\n        /* \"#utility.yul\":15131:15248   */\n    tag_429:\n        /* \"#utility.yul\":15280:15371   */\n      tag_431\n        /* \"#utility.yul\":15363:15370   */\n      dup6\n        /* \"#utility.yul\":15354:15360   */\n      dup3\n        /* \"#utility.yul\":15343:15352   */\n      dup7\n        /* \"#utility.yul\":15339:15361   */\n      add\n        /* \"#utility.yul\":15280:15371   */\n      tag_249\n      jump\t// in\n    tag_431:\n        /* \"#utility.yul\":15262:15371   */\n      swap3\n      pop\n      swap3\n      pop\n        /* \"#utility.yul\":15058:15381   */\n      pop\n        /* \"#utility.yul\":14807:15388   */\n      swap3\n      pop\n      swap3\n      swap1\n      pop\n      jump\t// out\n        /* \"#utility.yul\":15394:15512   */\n    tag_268:\n        /* \"#utility.yul\":15481:15505   */\n      tag_433\n        /* \"#utility.yul\":15499:15504   */\n      dup2\n        /* \"#utility.yul\":15481:15505   */\n      tag_243\n      jump\t// in\n    tag_433:\n        /* \"#utility.yul\":15476:15479   */\n      dup3\n        /* \"#utility.yul\":15469:15506   */\n      mstore\n        /* \"#utility.yul\":15394:15512   */\n      pop\n      pop\n      jump\t// out\n        /* \"#utility.yul\":15518:15740   */\n    tag_85:\n        /* \"#utility.yul\":15611:15615   */\n      0x00\n        /* \"#utility.yul\":15649:15651   */\n      0x20\n        /* \"#utility.yul\":15638:15647   */\n      dup3\n        /* \"#utility.yul\":15634:15652   */\n      add\n        /* \"#utility.yul\":15626:15652   */\n      swap1\n      pop\n        /* \"#utility.yul\":15662:15733   */\n      tag_435\n        /* \"#utility.yul\":15730:15731   */\n      0x00\n        /* \"#utility.yul\":15719:15728   */\n      dup4\n        /* \"#utility.yul\":15715:15732   */\n      add\n        /* \"#utility.yul\":15706:15712   */\n      dup5\n        /* \"#utility.yul\":15662:15733   */\n      tag_268\n      jump\t// in\n    tag_435:\n        /* \"#utility.yul\":15518:15740   */\n      swap3\n      swap2\n      pop\n      pop\n      jump\t// out\n        /* \"#utility.yul\":15746:15864   */\n    tag_269:\n        /* \"#utility.yul\":15817:15839   */\n      tag_437\n        /* \"#utility.yul\":15833:15838   */\n      dup2\n        /* \"#utility.yul\":15817:15839   */\n      tag_237\n      jump\t// in\n    tag_437:\n        /* \"#utility.yul\":15810:15815   */\n      dup2\n        /* \"#utility.yul\":15807:15840   */\n      eq\n        /* \"#utility.yul\":15797:15858   */\n      tag_438\n      jumpi\n        /* \"#utility.yul\":15854:15855   */\n      0x00\n        /* \"#utility.yul\":15851:15852   */\n      dup1\n        /* \"#utility.yul\":15844:15856   */\n      revert\n        /* \"#utility.yul\":15797:15858   */\n    tag_438:\n        /* \"#utility.yul\":15746:15864   */\n      pop\n      jump\t// out\n        /* \"#utility.yul\":15870:16005   */\n    tag_270:\n        /* \"#utility.yul\":15914:15919   */\n      0x00\n        /* \"#utility.yul\":15952:15958   */\n      dup2\n        /* \"#utility.yul\":15939:15959   */\n      calldataload\n        /* \"#utility.yul\":15930:15959   */\n      swap1\n      pop\n        /* \"#utility.yul\":15968:15999   */\n      tag_440\n        /* \"#utility.yul\":15993:15998   */\n      dup2\n        /* \"#utility.yul\":15968:15999   */\n      tag_269\n      jump\t// in\n    tag_440:\n        /* \"#utility.yul\":15870:16005   */\n      swap3\n      swap2\n      pop\n      pop\n      jump\t// out\n        /* \"#utility.yul\":16011:16129   */\n    tag_271:\n        /* \"#utility.yul\":16082:16104   */\n      tag_442\n        /* \"#utility.yul\":16098:16103   */\n      dup2\n        /* \"#utility.yul\":16082:16104   */\n      tag_241\n      jump\t// in\n    tag_442:\n        /* \"#utility.yul\":16075:16080   */\n      dup2\n        /* \"#utility.yul\":16072:16105   */\n      eq\n        /* \"#utility.yul\":16062:16123   */\n      tag_443\n      jumpi\n        /* \"#utility.yul\":16119:16120   */\n      0x00\n        /* \"#utility.yul\":16116:16117   */\n      dup1\n        /* \"#utility.yul\":16109:16121   */\n      revert\n        /* \"#utility.yul\":16062:16123   */\n    tag_443:\n        /* \"#utility.yul\":16011:16129   */\n      pop\n      jump\t// out\n        /* \"#utility.yul\":16135:16270   */\n    tag_272:\n        /* \"#utility.yul\":16179:16184   */\n      0x00\n        /* \"#utility.yul\":16217:16223   */\n      dup2\n        /* \"#utility.yul\":16204:16224   */\n      calldataload\n        /* \"#utility.yul\":16195:16224   */\n      swap1\n      pop\n        /* \"#utility.yul\":16233:16264   */\n      tag_445\n        /* \"#utility.yul\":16258:16263   */\n      dup2\n        /* \"#utility.yul\":16233:16264   */\n      tag_271\n      jump\t// in\n    tag_445:\n        /* \"#utility.yul\":16135:16270   */\n      swap3\n      swap2\n      pop\n      pop\n      jump\t// out\n        /* \"#utility.yul\":16276:17605   */\n    tag_89:\n        /* \"#utility.yul\":16388:16394   */\n      0x00\n        /* \"#utility.yul\":16396:16402   */\n      dup1\n        /* \"#utility.yul\":16404:16410   */\n      0x00\n        /* \"#utility.yul\":16412:16418   */\n      dup1\n        /* \"#utility.yul\":16420:16426   */\n      0x00\n        /* \"#utility.yul\":16428:16434   */\n      dup1\n        /* \"#utility.yul\":16436:16442   */\n      0x00\n        /* \"#utility.yul\":16444:16450   */\n      dup1\n        /* \"#utility.yul\":16493:16496   */\n      0x0100\n        /* \"#utility.yul\":16481:16490   */\n      dup10\n        /* \"#utility.yul\":16472:16479   */\n      dup12\n        /* \"#utility.yul\":16468:16491   */\n      sub\n        /* \"#utility.yul\":16464:16497   */\n      slt\n        /* \"#utility.yul\":16461:16581   */\n      iszero\n      tag_447\n      jumpi\n        /* \"#utility.yul\":16500:16579   */\n      tag_448\n      tag_232\n      jump\t// in\n    tag_448:\n        /* \"#utility.yul\":16461:16581   */\n    tag_447:\n        /* \"#utility.yul\":16620:16621   */\n      0x00\n        /* \"#utility.yul\":16645:16698   */\n      tag_449\n        /* \"#utility.yul\":16690:16697   */\n      dup12\n        /* \"#utility.yul\":16681:16687   */\n      dup3\n        /* \"#utility.yul\":16670:16679   */\n      dup13\n        /* \"#utility.yul\":16666:16688   */\n      add\n        /* \"#utility.yul\":16645:16698   */\n      tag_236\n      jump\t// in\n    tag_449:\n        /* \"#utility.yul\":16635:16698   */\n      swap9\n      pop\n        /* \"#utility.yul\":16591:16708   */\n      pop\n        /* \"#utility.yul\":16747:16749   */\n      0x20\n        /* \"#utility.yul\":16773:16824   */\n      tag_450\n        /* \"#utility.yul\":16816:16823   */\n      dup12\n        /* \"#utility.yul\":16807:16813   */\n      dup3\n        /* \"#utility.yul\":16796:16805   */\n      dup13\n        /* \"#utility.yul\":16792:16814   */\n      add\n        /* \"#utility.yul\":16773:16824   */\n      tag_270\n      jump\t// in\n    tag_450:\n        /* \"#utility.yul\":16763:16824   */\n      swap8\n      pop\n        /* \"#utility.yul\":16718:16834   */\n      pop\n        /* \"#utility.yul\":16873:16875   */\n      0x40\n        /* \"#utility.yul\":16899:16951   */\n      tag_451\n        /* \"#utility.yul\":16943:16950   */\n      dup12\n        /* \"#utility.yul\":16934:16940   */\n      dup3\n        /* \"#utility.yul\":16923:16932   */\n      dup13\n        /* \"#utility.yul\":16919:16941   */\n      add\n        /* \"#utility.yul\":16899:16951   */\n      tag_252\n      jump\t// in\n    tag_451:\n        /* \"#utility.yul\":16889:16951   */\n      swap7\n      pop\n        /* \"#utility.yul\":16844:16961   */\n      pop\n        /* \"#utility.yul\":17000:17002   */\n      0x60\n        /* \"#utility.yul\":17026:17077   */\n      tag_452\n        /* \"#utility.yul\":17069:17076   */\n      dup12\n        /* \"#utility.yul\":17060:17066   */\n      dup3\n        /* \"#utility.yul\":17049:17058   */\n      dup13\n        /* \"#utility.yul\":17045:17067   */\n      add\n        /* \"#utility.yul\":17026:17077   */\n      tag_272\n      jump\t// in\n    tag_452:\n        /* \"#utility.yul\":17016:17077   */\n      swap6\n      pop\n        /* \"#utility.yul\":16971:17087   */\n      pop\n        /* \"#utility.yul\":17126:17129   */\n      0x80\n        /* \"#utility.yul\":17153:17204   */\n      tag_453\n        /* \"#utility.yul\":17196:17203   */\n      dup12\n        /* \"#utility.yul\":17187:17193   */\n      dup3\n        /* \"#utility.yul\":17176:17185   */\n      dup13\n        /* \"#utility.yul\":17172:17194   */\n      add\n        /* \"#utility.yul\":17153:17204   */\n      tag_270\n      jump\t// in\n    tag_453:\n        /* \"#utility.yul\":17143:17204   */\n      swap5\n      pop\n        /* \"#utility.yul\":17097:17214   */\n      pop\n        /* \"#utility.yul\":17253:17256   */\n      0xa0\n        /* \"#utility.yul\":17280:17332   */\n      tag_454\n        /* \"#utility.yul\":17324:17331   */\n      dup12\n        /* \"#utility.yul\":17315:17321   */\n      dup3\n        /* \"#utility.yul\":17304:17313   */\n      dup13\n        /* \"#utility.yul\":17300:17322   */\n      add\n        /* \"#utility.yul\":17280:17332   */\n      tag_252\n      jump\t// in\n    tag_454:\n        /* \"#utility.yul\":17270:17332   */\n      swap4\n      pop\n        /* \"#utility.yul\":17224:17342   */\n      pop\n        /* \"#utility.yul\":17381:17384   */\n      0xc0\n        /* \"#utility.yul\":17408:17460   */\n      tag_455\n        /* \"#utility.yul\":17452:17459   */\n      dup12\n        /* \"#utility.yul\":17443:17449   */\n      dup3\n        /* \"#utility.yul\":17432:17441   */\n      dup13\n        /* \"#utility.yul\":17428:17450   */\n      add\n        /* \"#utility.yul\":17408:17460   */\n      tag_252\n      jump\t// in\n    tag_455:\n        /* \"#utility.yul\":17398:17460   */\n      swap3\n      pop\n        /* \"#utility.yul\":17352:17470   */\n      pop\n        /* \"#utility.yul\":17509:17512   */\n      0xe0\n        /* \"#utility.yul\":17536:17588   */\n      tag_456\n        /* \"#utility.yul\":17580:17587   */\n      dup12\n        /* \"#utility.yul\":17571:17577   */\n      dup3\n        /* \"#utility.yul\":17560:17569   */\n      dup13\n        /* \"#utility.yul\":17556:17578   */\n      add\n        /* \"#utility.yul\":17536:17588   */\n      tag_252\n      jump\t// in\n    tag_456:\n        /* \"#utility.yul\":17526:17588   */\n      swap2\n      pop\n        /* \"#utility.yul\":17480:17598   */\n      pop\n        /* \"#utility.yul\":16276:17605   */\n      swap3\n      swap6\n      swap9\n      pop\n      swap3\n      swap6\n      swap9\n      swap1\n      swap4\n      swap7\n      pop\n      jump\t// out\n        /* \"#utility.yul\":17611:17709   */\n    tag_273:\n        /* \"#utility.yul\":17662:17668   */\n      0x00\n        /* \"#utility.yul\":17696:17701   */\n      dup2\n        /* \"#utility.yul\":17690:17702   */\n      mload\n        /* \"#utility.yul\":17680:17702   */\n      swap1\n      pop\n        /* \"#utility.yul\":17611:17709   */\n      swap2\n      swap1\n      pop\n      jump\t// out\n        /* \"#utility.yul\":17715:17883   */\n    tag_274:\n        /* \"#utility.yul\":17798:17809   */\n      0x00\n        /* \"#utility.yul\":17832:17838   */\n      dup3\n        /* \"#utility.yul\":17827:17830   */\n      dup3\n        /* \"#utility.yul\":17820:17839   */\n      mstore\n        /* \"#utility.yul\":17872:17876   */\n      0x20\n        /* \"#utility.yul\":17867:17870   */\n      dup3\n        /* \"#utility.yul\":17863:17877   */\n      add\n        /* \"#utility.yul\":17848:17877   */\n      swap1\n      pop\n        /* \"#utility.yul\":17715:17883   */\n      swap3\n      swap2\n      pop\n      pop\n      jump\t// out\n        /* \"#utility.yul\":17889:18135   */\n    tag_275:\n        /* \"#utility.yul\":17970:17971   */\n      0x00\n        /* \"#utility.yul\":17980:18093   */\n    tag_460:\n        /* \"#utility.yul\":17994:18000   */\n      dup4\n        /* \"#utility.yul\":17991:17992   */\n      dup2\n        /* \"#utility.yul\":17988:18001   */\n      lt\n        /* \"#utility.yul\":17980:18093   */\n      iszero\n      tag_462\n      jumpi\n        /* \"#utility.yul\":18079:18080   */\n      dup1\n        /* \"#utility.yul\":18074:18077   */\n      dup3\n        /* \"#utility.yul\":18070:18081   */\n      add\n        /* \"#utility.yul\":18064:18082   */\n      mload\n        /* \"#utility.yul\":18060:18061   */\n      dup2\n        /* \"#utility.yul\":18055:18058   */\n      dup5\n        /* \"#utility.yul\":18051:18062   */\n      add\n        /* \"#utility.yul\":18044:18083   */\n      mstore\n        /* \"#utility.yul\":18016:18018   */\n      0x20\n        /* \"#utility.yul\":18013:18014   */\n      dup2\n        /* \"#utility.yul\":18009:18019   */\n      add\n        /* \"#utility.yul\":18004:18019   */\n      swap1\n      pop\n        /* \"#utility.yul\":17980:18093   */\n      jump(tag_460)\n    tag_462:\n        /* \"#utility.yul\":18127:18128   */\n      0x00\n        /* \"#utility.yul\":18118:18124   */\n      dup5\n        /* \"#utility.yul\":18113:18116   */\n      dup5\n        /* \"#utility.yul\":18109:18125   */\n      add\n        /* \"#utility.yul\":18102:18129   */\n      mstore\n        /* \"#utility.yul\":17951:18135   */\n      pop\n        /* \"#utility.yul\":17889:18135   */\n      pop\n      pop\n      pop\n      jump\t// out\n        /* \"#utility.yul\":18141:18243   */\n    tag_276:\n        /* \"#utility.yul\":18182:18188   */\n      0x00\n        /* \"#utility.yul\":18233:18235   */\n      0x1f\n        /* \"#utility.yul\":18229:18236   */\n      not\n        /* \"#utility.yul\":18224:18226   */\n      0x1f\n        /* \"#utility.yul\":18217:18222   */\n      dup4\n        /* \"#utility.yul\":18213:18227   */\n      add\n        /* \"#utility.yul\":18209:18237   */\n      and\n        /* \"#utility.yul\":18199:18237   */\n      swap1\n      pop\n        /* \"#utility.yul\":18141:18243   */\n      swap2\n      swap1\n      pop\n      jump\t// out\n        /* \"#utility.yul\":18249:18622   */\n    tag_277:\n        /* \"#utility.yul\":18335:18338   */\n      0x00\n        /* \"#utility.yul\":18363:18401   */\n      tag_465\n        /* \"#utility.yul\":18395:18400   */\n      dup3\n        /* \"#utility.yul\":18363:18401   */\n      tag_273\n      jump\t// in\n    tag_465:\n        /* \"#utility.yul\":18417:18487   */\n      tag_466\n        /* \"#utility.yul\":18480:18486   */\n      dup2\n        /* \"#utility.yul\":18475:18478   */\n      dup6\n        /* \"#utility.yul\":18417:18487   */\n      tag_274\n      jump\t// in\n    tag_466:\n        /* \"#utility.yul\":18410:18487   */\n      swap4\n      pop\n        /* \"#utility.yul\":18496:18561   */\n      tag_467\n        /* \"#utility.yul\":18554:18560   */\n      dup2\n        /* \"#utility.yul\":18549:18552   */\n      dup6\n        /* \"#utility.yul\":18542:18546   */\n      0x20\n        /* \"#utility.yul\":18535:18540   */\n      dup7\n        /* \"#utility.yul\":18531:18547   */\n      add\n        /* \"#utility.yul\":18496:18561   */\n      tag_275\n      jump\t// in\n    tag_467:\n        /* \"#utility.yul\":18586:18615   */\n      tag_468\n        /* \"#utility.yul\":18608:18614   */\n      dup2\n        /* \"#utility.yul\":18586:18615   */\n      tag_276\n      jump\t// in\n    tag_468:\n        /* \"#utility.yul\":18581:18584   */\n      dup5\n        /* \"#utility.yul\":18577:18616   */\n      add\n        /* \"#utility.yul\":18570:18616   */\n      swap2\n      pop\n        /* \"#utility.yul\":18339:18622   */\n      pop\n        /* \"#utility.yul\":18249:18622   */\n      swap3\n      swap2\n      pop\n      pop\n      jump\t// out\n        /* \"#utility.yul\":18628:18937   */\n    tag_92:\n        /* \"#utility.yul\":18739:18743   */\n      0x00\n        /* \"#utility.yul\":18777:18779   */\n      0x20\n        /* \"#utility.yul\":18766:18775   */\n      dup3\n        /* \"#utility.yul\":18762:18780   */\n      add\n        /* \"#utility.yul\":18754:18780   */\n      swap1\n      pop\n        /* \"#utility.yul\":18826:18835   */\n      dup2\n        /* \"#utility.yul\":18820:18824   */\n      dup2\n        /* \"#utility.yul\":18816:18836   */\n      sub\n        /* \"#utility.yul\":18812:18813   */\n      0x00\n        /* \"#utility.yul\":18801:18810   */\n      dup4\n        /* \"#utility.yul\":18797:18814   */\n      add\n        /* \"#utility.yul\":18790:18837   */\n      mstore\n        /* \"#utility.yul\":18854:18930   */\n      tag_470\n        /* \"#utility.yul\":18925:18929   */\n      dup2\n        /* \"#utility.yul\":18916:18922   */\n      dup5\n        /* \"#utility.yul\":18854:18930   */\n      tag_277\n      jump\t// in\n    tag_470:\n        /* \"#utility.yul\":18846:18930   */\n      swap1\n      pop\n        /* \"#utility.yul\":18628:18937   */\n      swap3\n      swap2\n      pop\n      pop\n      jump\t// out\n        /* \"#utility.yul\":18943:19123   */\n    tag_140:\n        /* \"#utility.yul\":18991:19068   */\n      0x4e487b7100000000000000000000000000000000000000000000000000000000\n        /* \"#utility.yul\":18988:18989   */\n      0x00\n        /* \"#utility.yul\":18981:19069   */\n      mstore\n        /* \"#utility.yul\":19088:19092   */\n      0x32\n        /* \"#utility.yul\":19085:19086   */\n      0x04\n        /* \"#utility.yul\":19078:19093   */\n      mstore\n        /* \"#utility.yul\":19112:19116   */\n      0x24\n        /* \"#utility.yul\":19109:19110   */\n      0x00\n        /* \"#utility.yul\":19102:19117   */\n      revert\n        /* \"#utility.yul\":19129:19456   */\n    tag_145:\n        /* \"#utility.yul\":19187:19193   */\n      0x00\n        /* \"#utility.yul\":19236:19238   */\n      0x20\n        /* \"#utility.yul\":19224:19233   */\n      dup3\n        /* \"#utility.yul\":19215:19222   */\n      dup5\n        /* \"#utility.yul\":19211:19234   */\n      sub\n        /* \"#utility.yul\":19207:19239   */\n      slt\n        /* \"#utility.yul\":19204:19323   */\n      iszero\n      tag_473\n      jumpi\n        /* \"#utility.yul\":19242:19321   */\n      tag_474\n      tag_232\n      jump\t// in\n    tag_474:\n        /* \"#utility.yul\":19204:19323   */\n    tag_473:\n        /* \"#utility.yul\":19362:19363   */\n      0x00\n        /* \"#utility.yul\":19387:19439   */\n      tag_475\n        /* \"#utility.yul\":19431:19438   */\n      dup5\n        /* \"#utility.yul\":19422:19428   */\n      dup3\n        /* \"#utility.yul\":19411:19420   */\n      dup6\n        /* \"#utility.yul\":19407:19429   */\n      add\n        /* \"#utility.yul\":19387:19439   */\n      tag_252\n      jump\t// in\n    tag_475:\n        /* \"#utility.yul\":19377:19439   */\n      swap2\n      pop\n        /* \"#utility.yul\":19333:19449   */\n      pop\n        /* \"#utility.yul\":19129:19456   */\n      swap3\n      swap2\n      pop\n      pop\n      jump\t// out\n        /* \"#utility.yul\":19462:19642   */\n    tag_278:\n        /* \"#utility.yul\":19510:19587   */\n      0x4e487b7100000000000000000000000000000000000000000000000000000000\n        /* \"#utility.yul\":19507:19508   */\n      0x00\n        /* \"#utility.yul\":19500:19588   */\n      mstore\n        /* \"#utility.yul\":19607:19611   */\n      0x11\n        /* \"#utility.yul\":19604:19605   */\n      0x04\n        /* \"#utility.yul\":19597:19612   */\n      mstore\n        /* \"#utility.yul\":19631:19635   */\n      0x24\n        /* \"#utility.yul\":19628:19629   */\n      0x00\n        /* \"#utility.yul\":19621:19636   */\n      revert\n        /* \"#utility.yul\":19648:20058   */\n    tag_157:\n        /* \"#utility.yul\":19688:19695   */\n      0x00\n        /* \"#utility.yul\":19711:19731   */\n      tag_478\n        /* \"#utility.yul\":19729:19730   */\n      dup3\n        /* \"#utility.yul\":19711:19731   */\n      tag_243\n      jump\t// in\n    tag_478:\n        /* \"#utility.yul\":19706:19731   */\n      swap2\n      pop\n        /* \"#utility.yul\":19745:19765   */\n      tag_479\n        /* \"#utility.yul\":19763:19764   */\n      dup4\n        /* \"#utility.yul\":19745:19765   */\n      tag_243\n      jump\t// in\n    tag_479:\n        /* \"#utility.yul\":19740:19765   */\n      swap3\n      pop\n        /* \"#utility.yul\":19800:19801   */\n      dup3\n        /* \"#utility.yul\":19797:19798   */\n      dup3\n        /* \"#utility.yul\":19793:19802   */\n      mul\n        /* \"#utility.yul\":19822:19852   */\n      tag_480\n        /* \"#utility.yul\":19840:19851   */\n      dup2\n        /* \"#utility.yul\":19822:19852   */\n      tag_243\n      jump\t// in\n    tag_480:\n        /* \"#utility.yul\":19811:19852   */\n      swap2\n      pop\n        /* \"#utility.yul\":20001:20002   */\n      dup3\n        /* \"#utility.yul\":19992:19999   */\n      dup3\n        /* \"#utility.yul\":19988:20003   */\n      div\n        /* \"#utility.yul\":19985:19986   */\n      dup5\n        /* \"#utility.yul\":19982:20004   */\n      eq\n        /* \"#utility.yul\":19962:19963   */\n      dup4\n        /* \"#utility.yul\":19955:19964   */\n      iszero\n        /* \"#utility.yul\":19935:20018   */\n      or\n        /* \"#utility.yul\":19912:20051   */\n      tag_481\n      jumpi\n        /* \"#utility.yul\":20031:20049   */\n      tag_482\n      tag_278\n      jump\t// in\n    tag_482:\n        /* \"#utility.yul\":19912:20051   */\n    tag_481:\n        /* \"#utility.yul\":19696:20058   */\n      pop\n        /* \"#utility.yul\":19648:20058   */\n      swap3\n      swap2\n      pop\n      pop\n      jump\t// out\n        /* \"#utility.yul\":20064:20179   */\n    tag_279:\n        /* \"#utility.yul\":20149:20172   */\n      tag_484\n        /* \"#utility.yul\":20166:20171   */\n      dup2\n        /* \"#utility.yul\":20149:20172   */\n      tag_239\n      jump\t// in\n    tag_484:\n        /* \"#utility.yul\":20144:20147   */\n      dup3\n        /* \"#utility.yul\":20137:20173   */\n      mstore\n        /* \"#utility.yul\":20064:20179   */\n      pop\n      pop\n      jump\t// out\n        /* \"#utility.yul\":20185:20623   */\n    tag_161:\n        /* \"#utility.yul\":20358:20362   */\n      0x00\n        /* \"#utility.yul\":20396:20399   */\n      0x0140\n        /* \"#utility.yul\":20385:20394   */\n      dup3\n        /* \"#utility.yul\":20381:20400   */\n      add\n        /* \"#utility.yul\":20373:20400   */\n      swap1\n      pop\n        /* \"#utility.yul\":20410:20535   */\n      tag_486\n        /* \"#utility.yul\":20532:20533   */\n      0x00\n        /* \"#utility.yul\":20521:20530   */\n      dup4\n        /* \"#utility.yul\":20517:20534   */\n      add\n        /* \"#utility.yul\":20508:20514   */\n      dup6\n        /* \"#utility.yul\":20410:20535   */\n      tag_267\n      jump\t// in\n    tag_486:\n        /* \"#utility.yul\":20545:20616   */\n      tag_487\n        /* \"#utility.yul\":20611:20614   */\n      0x0120\n        /* \"#utility.yul\":20600:20609   */\n      dup4\n        /* \"#utility.yul\":20596:20615   */\n      add\n        /* \"#utility.yul\":20587:20593   */\n      dup5\n        /* \"#utility.yul\":20545:20616   */\n      tag_279\n      jump\t// in\n    tag_487:\n        /* \"#utility.yul\":20185:20623   */\n      swap4\n      swap3\n      pop\n      pop\n      pop\n      jump\t// out\n        /* \"#utility.yul\":20629:20746   */\n    tag_280:\n        /* \"#utility.yul\":20738:20739   */\n      0x00\n        /* \"#utility.yul\":20735:20736   */\n      dup1\n        /* \"#utility.yul\":20728:20740   */\n      revert\n        /* \"#utility.yul\":20752:20869   */\n    tag_281:\n        /* \"#utility.yul\":20861:20862   */\n      0x00\n        /* \"#utility.yul\":20858:20859   */\n      dup1\n        /* \"#utility.yul\":20851:20863   */\n      revert\n        /* \"#utility.yul\":20875:20992   */\n    tag_282:\n        /* \"#utility.yul\":20984:20985   */\n      0x00\n        /* \"#utility.yul\":20981:20982   */\n      dup1\n        /* \"#utility.yul\":20974:20986   */\n      revert\n        /* \"#utility.yul\":20998:21722   */\n    tag_172:\n        /* \"#utility.yul\":21075:21079   */\n      0x00\n        /* \"#utility.yul\":21081:21087   */\n      dup1\n        /* \"#utility.yul\":21137:21148   */\n      dup4\n        /* \"#utility.yul\":21124:21149   */\n      calldataload\n        /* \"#utility.yul\":21237:21238   */\n      0x01\n        /* \"#utility.yul\":21231:21235   */\n      0x20\n        /* \"#utility.yul\":21227:21239   */\n      sub\n        /* \"#utility.yul\":21216:21224   */\n      dup5\n        /* \"#utility.yul\":21200:21214   */\n      calldatasize\n        /* \"#utility.yul\":21196:21225   */\n      sub\n        /* \"#utility.yul\":21192:21240   */\n      sub\n        /* \"#utility.yul\":21172:21190   */\n      dup2\n        /* \"#utility.yul\":21168:21241   */\n      slt\n        /* \"#utility.yul\":21158:21326   */\n      tag_492\n      jumpi\n        /* \"#utility.yul\":21245:21324   */\n      tag_493\n      tag_280\n      jump\t// in\n    tag_493:\n        /* \"#utility.yul\":21158:21326   */\n    tag_492:\n        /* \"#utility.yul\":21357:21375   */\n      dup1\n        /* \"#utility.yul\":21347:21355   */\n      dup5\n        /* \"#utility.yul\":21343:21376   */\n      add\n        /* \"#utility.yul\":21335:21376   */\n      swap3\n      pop\n        /* \"#utility.yul\":21409:21413   */\n      dup3\n        /* \"#utility.yul\":21396:21414   */\n      calldataload\n        /* \"#utility.yul\":21386:21414   */\n      swap2\n      pop\n        /* \"#utility.yul\":21437:21455   */\n      0xffffffffffffffff\n        /* \"#utility.yul\":21429:21435   */\n      dup3\n        /* \"#utility.yul\":21426:21456   */\n      gt\n        /* \"#utility.yul\":21423:21540   */\n      iszero\n      tag_494\n      jumpi\n        /* \"#utility.yul\":21459:21538   */\n      tag_495\n      tag_281\n      jump\t// in\n    tag_495:\n        /* \"#utility.yul\":21423:21540   */\n    tag_494:\n        /* \"#utility.yul\":21567:21569   */\n      0x20\n        /* \"#utility.yul\":21561:21565   */\n      dup4\n        /* \"#utility.yul\":21557:21570   */\n      add\n        /* \"#utility.yul\":21549:21570   */\n      swap3\n      pop\n        /* \"#utility.yul\":21624:21628   */\n      0x01\n        /* \"#utility.yul\":21616:21622   */\n      dup3\n        /* \"#utility.yul\":21612:21629   */\n      mul\n        /* \"#utility.yul\":21596:21610   */\n      calldatasize\n        /* \"#utility.yul\":21592:21630   */\n      sub\n        /* \"#utility.yul\":21586:21590   */\n      dup4\n        /* \"#utility.yul\":21582:21631   */\n      sgt\n        /* \"#utility.yul\":21579:21715   */\n      iszero\n      tag_496\n      jumpi\n        /* \"#utility.yul\":21634:21713   */\n      tag_497\n      tag_282\n      jump\t// in\n    tag_497:\n        /* \"#utility.yul\":21579:21715   */\n    tag_496:\n        /* \"#utility.yul\":21088:21722   */\n      pop\n        /* \"#utility.yul\":20998:21722   */\n      swap3\n      pop\n      swap3\n      swap1\n      pop\n      jump\t// out\n        /* \"#utility.yul\":21728:21845   */\n    tag_283:\n        /* \"#utility.yul\":21837:21838   */\n      0x00\n        /* \"#utility.yul\":21834:21835   */\n      dup1\n        /* \"#utility.yul\":21827:21839   */\n      revert\n        /* \"#utility.yul\":21851:22031   */\n    tag_187:\n        /* \"#utility.yul\":21899:21976   */\n      0x4e487b7100000000000000000000000000000000000000000000000000000000\n        /* \"#utility.yul\":21896:21897   */\n      0x00\n        /* \"#utility.yul\":21889:21977   */\n      mstore\n        /* \"#utility.yul\":21996:22000   */\n      0x41\n        /* \"#utility.yul\":21993:21994   */\n      0x04\n        /* \"#utility.yul\":21986:22001   */\n      mstore\n        /* \"#utility.yul\":22020:22024   */\n      0x24\n        /* \"#utility.yul\":22017:22018   */\n      0x00\n        /* \"#utility.yul\":22010:22025   */\n      revert\n        /* \"#utility.yul\":22037:22318   */\n    tag_284:\n        /* \"#utility.yul\":22120:22147   */\n      tag_501\n        /* \"#utility.yul\":22142:22146   */\n      dup3\n        /* \"#utility.yul\":22120:22147   */\n      tag_276\n      jump\t// in\n    tag_501:\n        /* \"#utility.yul\":22112:22118   */\n      dup2\n        /* \"#utility.yul\":22108:22148   */\n      add\n        /* \"#utility.yul\":22250:22256   */\n      dup2\n        /* \"#utility.yul\":22238:22248   */\n      dup2\n        /* \"#utility.yul\":22235:22257   */\n      lt\n        /* \"#utility.yul\":22214:22232   */\n      0xffffffffffffffff\n        /* \"#utility.yul\":22202:22212   */\n      dup3\n        /* \"#utility.yul\":22199:22233   */\n      gt\n        /* \"#utility.yul\":22196:22258   */\n      or\n        /* \"#utility.yul\":22193:22281   */\n      iszero\n      tag_502\n      jumpi\n        /* \"#utility.yul\":22261:22279   */\n      tag_503\n      tag_187\n      jump\t// in\n    tag_503:\n        /* \"#utility.yul\":22193:22281   */\n    tag_502:\n        /* \"#utility.yul\":22301:22311   */\n      dup1\n        /* \"#utility.yul\":22297:22299   */\n      0x40\n        /* \"#utility.yul\":22290:22312   */\n      mstore\n        /* \"#utility.yul\":22080:22318   */\n      pop\n        /* \"#utility.yul\":22037:22318   */\n      pop\n      pop\n      jump\t// out\n        /* \"#utility.yul\":22324:22453   */\n    tag_285:\n        /* \"#utility.yul\":22358:22364   */\n      0x00\n        /* \"#utility.yul\":22385:22405   */\n      tag_505\n      tag_231\n      jump\t// in\n    tag_505:\n        /* \"#utility.yul\":22375:22405   */\n      swap1\n      pop\n        /* \"#utility.yul\":22414:22447   */\n      tag_506\n        /* \"#utility.yul\":22442:22446   */\n      dup3\n        /* \"#utility.yul\":22434:22440   */\n      dup3\n        /* \"#utility.yul\":22414:22447   */\n      tag_284\n      jump\t// in\n    tag_506:\n        /* \"#utility.yul\":22324:22453   */\n      swap2\n      swap1\n      pop\n      jump\t// out\n        /* \"#utility.yul\":22614:23511   */\n    tag_287:\n        /* \"#utility.yul\":22686:22691   */\n      0x00\n        /* \"#utility.yul\":22730:22734   */\n      0x80\n        /* \"#utility.yul\":22718:22727   */\n      dup3\n        /* \"#utility.yul\":22713:22716   */\n      dup5\n        /* \"#utility.yul\":22709:22728   */\n      sub\n        /* \"#utility.yul\":22705:22735   */\n      slt\n        /* \"#utility.yul\":22702:22819   */\n      iszero\n      tag_509\n      jumpi\n        /* \"#utility.yul\":22738:22817   */\n      tag_510\n      tag_283\n      jump\t// in\n    tag_510:\n        /* \"#utility.yul\":22702:22819   */\n    tag_509:\n        /* \"#utility.yul\":22837:22858   */\n      tag_511\n        /* \"#utility.yul\":22853:22857   */\n      0x80\n        /* \"#utility.yul\":22837:22858   */\n      tag_285\n      jump\t// in\n    tag_511:\n        /* \"#utility.yul\":22828:22858   */\n      swap1\n      pop\n        /* \"#utility.yul\":22918:22919   */\n      0x00\n        /* \"#utility.yul\":22958:23005   */\n      tag_512\n        /* \"#utility.yul\":23001:23004   */\n      dup5\n        /* \"#utility.yul\":22992:22998   */\n      dup3\n        /* \"#utility.yul\":22981:22990   */\n      dup6\n        /* \"#utility.yul\":22977:22999   */\n      add\n        /* \"#utility.yul\":22958:23005   */\n      tag_270\n      jump\t// in\n    tag_512:\n        /* \"#utility.yul\":22951:22955   */\n      0x00\n        /* \"#utility.yul\":22944:22949   */\n      dup4\n        /* \"#utility.yul\":22940:22956   */\n      add\n        /* \"#utility.yul\":22933:23006   */\n      mstore\n        /* \"#utility.yul\":22868:23017   */\n      pop\n        /* \"#utility.yul\":23076:23078   */\n      0x20\n        /* \"#utility.yul\":23117:23165   */\n      tag_513\n        /* \"#utility.yul\":23161:23164   */\n      dup5\n        /* \"#utility.yul\":23152:23158   */\n      dup3\n        /* \"#utility.yul\":23141:23150   */\n      dup6\n        /* \"#utility.yul\":23137:23159   */\n      add\n        /* \"#utility.yul\":23117:23165   */\n      tag_252\n      jump\t// in\n    tag_513:\n        /* \"#utility.yul\":23110:23114   */\n      0x20\n        /* \"#utility.yul\":23103:23108   */\n      dup4\n        /* \"#utility.yul\":23099:23115   */\n      add\n        /* \"#utility.yul\":23092:23166   */\n      mstore\n        /* \"#utility.yul\":23027:23177   */\n      pop\n        /* \"#utility.yul\":23236:23238   */\n      0x40\n        /* \"#utility.yul\":23277:23324   */\n      tag_514\n        /* \"#utility.yul\":23320:23323   */\n      dup5\n        /* \"#utility.yul\":23311:23317   */\n      dup3\n        /* \"#utility.yul\":23300:23309   */\n      dup6\n        /* \"#utility.yul\":23296:23318   */\n      add\n        /* \"#utility.yul\":23277:23324   */\n      tag_272\n      jump\t// in\n    tag_514:\n        /* \"#utility.yul\":23270:23274   */\n      0x40\n        /* \"#utility.yul\":23263:23268   */\n      dup4\n        /* \"#utility.yul\":23259:23275   */\n      add\n        /* \"#utility.yul\":23252:23325   */\n      mstore\n        /* \"#utility.yul\":23187:23336   */\n      pop\n        /* \"#utility.yul\":23402:23404   */\n      0x60\n        /* \"#utility.yul\":23443:23492   */\n      tag_515\n        /* \"#utility.yul\":23488:23491   */\n      dup5\n        /* \"#utility.yul\":23479:23485   */\n      dup3\n        /* \"#utility.yul\":23468:23477   */\n      dup6\n        /* \"#utility.yul\":23464:23486   */\n      add\n        /* \"#utility.yul\":23443:23492   */\n      tag_263\n      jump\t// in\n    tag_515:\n        /* \"#utility.yul\":23436:23440   */\n      0x60\n        /* \"#utility.yul\":23429:23434   */\n      dup4\n        /* \"#utility.yul\":23425:23441   */\n      add\n        /* \"#utility.yul\":23418:23493   */\n      mstore\n        /* \"#utility.yul\":23346:23504   */\n      pop\n        /* \"#utility.yul\":22614:23511   */\n      swap3\n      swap2\n      pop\n      pop\n      jump\t// out\n        /* \"#utility.yul\":23553:24342   */\n    tag_288:\n        /* \"#utility.yul\":23629:23634   */\n      0x00\n        /* \"#utility.yul\":23673:23679   */\n      0x0120\n        /* \"#utility.yul\":23661:23670   */\n      dup3\n        /* \"#utility.yul\":23656:23659   */\n      dup5\n        /* \"#utility.yul\":23652:23671   */\n      sub\n        /* \"#utility.yul\":23648:23680   */\n      slt\n        /* \"#utility.yul\":23645:23764   */\n      iszero\n      tag_517\n      jumpi\n        /* \"#utility.yul\":23683:23762   */\n      tag_518\n      tag_283\n      jump\t// in\n    tag_518:\n        /* \"#utility.yul\":23645:23764   */\n    tag_517:\n        /* \"#utility.yul\":23782:23803   */\n      tag_519\n        /* \"#utility.yul\":23798:23802   */\n      0x60\n        /* \"#utility.yul\":23782:23803   */\n      tag_285\n      jump\t// in\n    tag_519:\n        /* \"#utility.yul\":23773:23803   */\n      swap1\n      pop\n        /* \"#utility.yul\":23860:23861   */\n      0x00\n        /* \"#utility.yul\":23900:23949   */\n      tag_520\n        /* \"#utility.yul\":23945:23948   */\n      dup5\n        /* \"#utility.yul\":23936:23942   */\n      dup3\n        /* \"#utility.yul\":23925:23934   */\n      dup6\n        /* \"#utility.yul\":23921:23943   */\n      add\n        /* \"#utility.yul\":23900:23949   */\n      tag_236\n      jump\t// in\n    tag_520:\n        /* \"#utility.yul\":23893:23897   */\n      0x00\n        /* \"#utility.yul\":23886:23891   */\n      dup4\n        /* \"#utility.yul\":23882:23898   */\n      add\n        /* \"#utility.yul\":23875:23950   */\n      mstore\n        /* \"#utility.yul\":23813:23961   */\n      pop\n        /* \"#utility.yul\":24021:24023   */\n      0x20\n        /* \"#utility.yul\":24062:24134   */\n      tag_521\n        /* \"#utility.yul\":24130:24133   */\n      dup5\n        /* \"#utility.yul\":24121:24127   */\n      dup3\n        /* \"#utility.yul\":24110:24119   */\n      dup6\n        /* \"#utility.yul\":24106:24128   */\n      add\n        /* \"#utility.yul\":24062:24134   */\n      tag_287\n      jump\t// in\n    tag_521:\n        /* \"#utility.yul\":24055:24059   */\n      0x20\n        /* \"#utility.yul\":24048:24053   */\n      dup4\n        /* \"#utility.yul\":24044:24060   */\n      add\n        /* \"#utility.yul\":24037:24135   */\n      mstore\n        /* \"#utility.yul\":23971:24146   */\n      pop\n        /* \"#utility.yul\":24209:24212   */\n      0xa0\n        /* \"#utility.yul\":24251:24323   */\n      tag_522\n        /* \"#utility.yul\":24319:24322   */\n      dup5\n        /* \"#utility.yul\":24310:24316   */\n      dup3\n        /* \"#utility.yul\":24299:24308   */\n      dup6\n        /* \"#utility.yul\":24295:24317   */\n      add\n        /* \"#utility.yul\":24251:24323   */\n      tag_287\n      jump\t// in\n    tag_522:\n        /* \"#utility.yul\":24244:24248   */\n      0x40\n        /* \"#utility.yul\":24237:24242   */\n      dup4\n        /* \"#utility.yul\":24233:24249   */\n      add\n        /* \"#utility.yul\":24226:24324   */\n      mstore\n        /* \"#utility.yul\":24156:24335   */\n      pop\n        /* \"#utility.yul\":23553:24342   */\n      swap3\n      swap2\n      pop\n      pop\n      jump\t// out\n        /* \"#utility.yul\":24348:24732   */\n    tag_174:\n        /* \"#utility.yul\":24434:24440   */\n      0x00\n        /* \"#utility.yul\":24483:24486   */\n      0x0120\n        /* \"#utility.yul\":24471:24480   */\n      dup3\n        /* \"#utility.yul\":24462:24469   */\n      dup5\n        /* \"#utility.yul\":24458:24481   */\n      sub\n        /* \"#utility.yul\":24454:24487   */\n      slt\n        /* \"#utility.yul\":24451:24571   */\n      iszero\n      tag_524\n      jumpi\n        /* \"#utility.yul\":24490:24569   */\n      tag_525\n      tag_232\n      jump\t// in\n    tag_525:\n        /* \"#utility.yul\":24451:24571   */\n    tag_524:\n        /* \"#utility.yul\":24610:24611   */\n      0x00\n        /* \"#utility.yul\":24635:24715   */\n      tag_526\n        /* \"#utility.yul\":24707:24714   */\n      dup5\n        /* \"#utility.yul\":24698:24704   */\n      dup3\n        /* \"#utility.yul\":24687:24696   */\n      dup6\n        /* \"#utility.yul\":24683:24705   */\n      add\n        /* \"#utility.yul\":24635:24715   */\n      tag_288\n      jump\t// in\n    tag_526:\n        /* \"#utility.yul\":24625:24715   */\n      swap2\n      pop\n        /* \"#utility.yul\":24581:24725   */\n      pop\n        /* \"#utility.yul\":24348:24732   */\n      swap3\n      swap2\n      pop\n      pop\n      jump\t// out\n        /* \"#utility.yul\":24738:24850   */\n    tag_289:\n        /* \"#utility.yul\":24821:24843   */\n      tag_528\n        /* \"#utility.yul\":24837:24842   */\n      dup2\n        /* \"#utility.yul\":24821:24843   */\n      tag_237\n      jump\t// in\n    tag_528:\n        /* \"#utility.yul\":24816:24819   */\n      dup3\n        /* \"#utility.yul\":24809:24844   */\n      mstore\n        /* \"#utility.yul\":24738:24850   */\n      pop\n      pop\n      jump\t// out\n        /* \"#utility.yul\":24856:25282   */\n    tag_177:\n        /* \"#utility.yul\":24997:25001   */\n      0x00\n        /* \"#utility.yul\":25035:25037   */\n      0x60\n        /* \"#utility.yul\":25024:25033   */\n      dup3\n        /* \"#utility.yul\":25020:25038   */\n      add\n        /* \"#utility.yul\":25012:25038   */\n      swap1\n      pop\n        /* \"#utility.yul\":25048:25117   */\n      tag_530\n        /* \"#utility.yul\":25114:25115   */\n      0x00\n        /* \"#utility.yul\":25103:25112   */\n      dup4\n        /* \"#utility.yul\":25099:25116   */\n      add\n        /* \"#utility.yul\":25090:25096   */\n      dup7\n        /* \"#utility.yul\":25048:25117   */\n      tag_279\n      jump\t// in\n    tag_530:\n        /* \"#utility.yul\":25127:25195   */\n      tag_531\n        /* \"#utility.yul\":25191:25193   */\n      0x20\n        /* \"#utility.yul\":25180:25189   */\n      dup4\n        /* \"#utility.yul\":25176:25194   */\n      add\n        /* \"#utility.yul\":25167:25173   */\n      dup6\n        /* \"#utility.yul\":25127:25195   */\n      tag_289\n      jump\t// in\n    tag_531:\n        /* \"#utility.yul\":25205:25275   */\n      tag_532\n        /* \"#utility.yul\":25271:25273   */\n      0x40\n        /* \"#utility.yul\":25260:25269   */\n      dup4\n        /* \"#utility.yul\":25256:25274   */\n      add\n        /* \"#utility.yul\":25247:25253   */\n      dup5\n        /* \"#utility.yul\":25205:25275   */\n      tag_279\n      jump\t// in\n    tag_532:\n        /* \"#utility.yul\":24856:25282   */\n      swap5\n      swap4\n      pop\n      pop\n      pop\n      pop\n      jump\t// out\n        /* \"#utility.yul\":25288:25377   */\n    tag_290:\n        /* \"#utility.yul\":25324:25331   */\n      0x00\n        /* \"#utility.yul\":25364:25370   */\n      0xffff\n        /* \"#utility.yul\":25357:25362   */\n      dup3\n        /* \"#utility.yul\":25353:25371   */\n      and\n        /* \"#utility.yul\":25342:25371   */\n      swap1\n      pop\n        /* \"#utility.yul\":25288:25377   */\n      swap2\n      swap1\n      pop\n      jump\t// out\n        /* \"#utility.yul\":25383:25498   */\n    tag_291:\n        /* \"#utility.yul\":25468:25491   */\n      tag_535\n        /* \"#utility.yul\":25485:25490   */\n      dup2\n        /* \"#utility.yul\":25468:25491   */\n      tag_290\n      jump\t// in\n    tag_535:\n        /* \"#utility.yul\":25463:25466   */\n      dup3\n        /* \"#utility.yul\":25456:25492   */\n      mstore\n        /* \"#utility.yul\":25383:25498   */\n      pop\n      pop\n      jump\t// out\n        /* \"#utility.yul\":25504:25828   */\n    tag_179:\n        /* \"#utility.yul\":25621:25625   */\n      0x00\n        /* \"#utility.yul\":25659:25661   */\n      0x40\n        /* \"#utility.yul\":25648:25657   */\n      dup3\n        /* \"#utility.yul\":25644:25662   */\n      add\n        /* \"#utility.yul\":25636:25662   */\n      swap1\n      pop\n        /* \"#utility.yul\":25672:25741   */\n      tag_537\n        /* \"#utility.yul\":25738:25739   */\n      0x00\n        /* \"#utility.yul\":25727:25736   */\n      dup4\n        /* \"#utility.yul\":25723:25740   */\n      add\n        /* \"#utility.yul\":25714:25720   */\n      dup6\n        /* \"#utility.yul\":25672:25741   */\n      tag_291\n      jump\t// in\n    tag_537:\n        /* \"#utility.yul\":25751:25821   */\n      tag_538\n        /* \"#utility.yul\":25817:25819   */\n      0x20\n        /* \"#utility.yul\":25806:25815   */\n      dup4\n        /* \"#utility.yul\":25802:25820   */\n      add\n        /* \"#utility.yul\":25793:25799   */\n      dup5\n        /* \"#utility.yul\":25751:25821   */\n      tag_279\n      jump\t// in\n    tag_538:\n        /* \"#utility.yul\":25504:25828   */\n      swap4\n      swap3\n      pop\n      pop\n      pop\n      jump\t// out\n        /* \"#utility.yul\":25834:26039   */\n    tag_181:\n        /* \"#utility.yul\":25873:25876   */\n      0x00\n        /* \"#utility.yul\":25892:25911   */\n      tag_540\n        /* \"#utility.yul\":25909:25910   */\n      dup3\n        /* \"#utility.yul\":25892:25911   */\n      tag_239\n      jump\t// in\n    tag_540:\n        /* \"#utility.yul\":25887:25911   */\n      swap2\n      pop\n        /* \"#utility.yul\":25925:25944   */\n      tag_541\n        /* \"#utility.yul\":25942:25943   */\n      dup4\n        /* \"#utility.yul\":25925:25944   */\n      tag_239\n      jump\t// in\n    tag_541:\n        /* \"#utility.yul\":25920:25944   */\n      swap3\n      pop\n        /* \"#utility.yul\":25967:25968   */\n      dup3\n        /* \"#utility.yul\":25964:25965   */\n      dup3\n        /* \"#utility.yul\":25960:25969   */\n      add\n        /* \"#utility.yul\":25953:25969   */\n      swap1\n      pop\n        /* \"#utility.yul\":25990:26008   */\n      0xffffffffffffffff\n        /* \"#utility.yul\":25985:25988   */\n      dup2\n        /* \"#utility.yul\":25982:26009   */\n      gt\n        /* \"#utility.yul\":25979:26032   */\n      iszero\n      tag_542\n      jumpi\n        /* \"#utility.yul\":26012:26030   */\n      tag_543\n      tag_278\n      jump\t// in\n    tag_543:\n        /* \"#utility.yul\":25979:26032   */\n    tag_542:\n        /* \"#utility.yul\":25834:26039   */\n      swap3\n      swap2\n      pop\n      pop\n      jump\t// out\n        /* \"#utility.yul\":26045:26573   */\n    tag_201:\n        /* \"#utility.yul\":26139:26145   */\n      0x00\n        /* \"#utility.yul\":26147:26153   */\n      dup1\n        /* \"#utility.yul\":26196:26199   */\n      0x0140\n        /* \"#utility.yul\":26184:26193   */\n      dup4\n        /* \"#utility.yul\":26175:26182   */\n      dup6\n        /* \"#utility.yul\":26171:26194   */\n      sub\n        /* \"#utility.yul\":26167:26200   */\n      slt\n        /* \"#utility.yul\":26164:26284   */\n      iszero\n      tag_545\n      jumpi\n        /* \"#utility.yul\":26203:26282   */\n      tag_546\n      tag_232\n      jump\t// in\n    tag_546:\n        /* \"#utility.yul\":26164:26284   */\n    tag_545:\n        /* \"#utility.yul\":26323:26324   */\n      0x00\n        /* \"#utility.yul\":26348:26428   */\n      tag_547\n        /* \"#utility.yul\":26420:26427   */\n      dup6\n        /* \"#utility.yul\":26411:26417   */\n      dup3\n        /* \"#utility.yul\":26400:26409   */\n      dup7\n        /* \"#utility.yul\":26396:26418   */\n      add\n        /* \"#utility.yul\":26348:26428   */\n      tag_288\n      jump\t// in\n    tag_547:\n        /* \"#utility.yul\":26338:26428   */\n      swap3\n      pop\n        /* \"#utility.yul\":26294:26438   */\n      pop\n        /* \"#utility.yul\":26477:26480   */\n      0x0120\n        /* \"#utility.yul\":26504:26556   */\n      tag_548\n        /* \"#utility.yul\":26548:26555   */\n      dup6\n        /* \"#utility.yul\":26539:26545   */\n      dup3\n        /* \"#utility.yul\":26528:26537   */\n      dup7\n        /* \"#utility.yul\":26524:26546   */\n      add\n        /* \"#utility.yul\":26504:26556   */\n      tag_252\n      jump\t// in\n    tag_548:\n        /* \"#utility.yul\":26494:26556   */\n      swap2\n      pop\n        /* \"#utility.yul\":26448:26566   */\n      pop\n        /* \"#utility.yul\":26045:26573   */\n      swap3\n      pop\n      swap3\n      swap1\n      pop\n      jump\t// out\n        /* \"#utility.yul\":26579:26773   */\n    tag_226:\n        /* \"#utility.yul\":26619:26623   */\n      0x00\n        /* \"#utility.yul\":26639:26659   */\n      tag_550\n        /* \"#utility.yul\":26657:26658   */\n      dup3\n        /* \"#utility.yul\":26639:26659   */\n      tag_243\n      jump\t// in\n    tag_550:\n        /* \"#utility.yul\":26634:26659   */\n      swap2\n      pop\n        /* \"#utility.yul\":26673:26693   */\n      tag_551\n        /* \"#utility.yul\":26691:26692   */\n      dup4\n        /* \"#utility.yul\":26673:26693   */\n      tag_243\n      jump\t// in\n    tag_551:\n        /* \"#utility.yul\":26668:26693   */\n      swap3\n      pop\n        /* \"#utility.yul\":26717:26718   */\n      dup3\n        /* \"#utility.yul\":26714:26715   */\n      dup3\n        /* \"#utility.yul\":26710:26719   */\n      sub\n        /* \"#utility.yul\":26702:26719   */\n      swap1\n      pop\n        /* \"#utility.yul\":26741:26742   */\n      dup2\n        /* \"#utility.yul\":26735:26739   */\n      dup2\n        /* \"#utility.yul\":26732:26743   */\n      gt\n        /* \"#utility.yul\":26729:26766   */\n      iszero\n      tag_552\n      jumpi\n        /* \"#utility.yul\":26746:26764   */\n      tag_553\n      tag_278\n      jump\t// in\n    tag_553:\n        /* \"#utility.yul\":26729:26766   */\n    tag_552:\n        /* \"#utility.yul\":26579:26773   */\n      swap3\n      swap2\n      pop\n      pop\n      jump\t// out\n\n    auxdata: 0xa2646970667358221220eef09f9bc7776746f5ddfd96a3009c42c7a8790afae5063c027038b3cdf82e5d64736f6c63430008170033\n}\n",
				"bytecode": {
					"linkReferences": {},
					"object": "608060405234801562000010575f80fd5b5060405162001d4738038062001d47833981810160405281019062000036919062000088565b80600281905550816003819055505050620000cd565b5f80fd5b5f819050919050565b620000648162000050565b81146200006f575f80fd5b50565b5f81519050620000828162000059565b92915050565b5f8060408385031215620000a157620000a06200004c565b5b5f620000b08582860162000072565b9250506020620000c38582860162000072565b9150509250929050565b611c6c80620000db5f395ff3fe6080604052600436106100e7575f3560e01c8063b5dcc91111610089578063d47eed4511610058578063d47eed4514610347578063d9b81c3c14610383578063e18910a3146103bf578063ef9e5e28146103e9576100e7565b8063b5dcc91114610277578063b5ec0261146102b3578063b9256d28146102ef578063caaf43f11461030b576100e7565b80639474f45b116100c55780639474f45b1461019357806396834ad3146101cf578063a4ae35e01461020b578063accca7f914610247576100e7565b806331d98b3f146100eb5780634716e9c514610127578063711a2e2814610157575b5f80fd5b3480156100f6575f80fd5b50610111600480360381019061010c9190611003565b610405565b60405161011e91906110f1565b60405180910390f35b610141600480360381019061013c91906111ea565b610425565b60405161014e91906113d9565b60405180910390f35b348015610162575f80fd5b5061017d60048036038101906101789190611423565b610442565b60405161018a91906110f1565b60405180910390f35b34801561019e575f80fd5b506101b960048036038101906101b49190611003565b6104a2565b6040516101c691906110f1565b60405180910390f35b3480156101da575f80fd5b506101f560048036038101906101f09190611003565b6104c3565b60405161020291906110f1565b60405180910390f35b348015610216575f80fd5b50610231600480360381019061022c9190611423565b6104e4565b60405161023e91906110f1565b60405180910390f35b610261600480360381019061025c91906111ea565b610544565b60405161026e91906113d9565b60405180910390f35b348015610282575f80fd5b5061029d60048036038101906102989190611003565b610562565b6040516102aa91906110f1565b60405180910390f35b3480156102be575f80fd5b506102d960048036038101906102d49190611003565b610582565b6040516102e6919061147b565b60405180910390f35b610309600480360381019061030491906114e9565b6105a2565b005b348015610316575f80fd5b50610331600480360381019061032c9190611003565b6106d2565b60405161033e91906115da565b60405180910390f35b348015610352575f80fd5b5061036d600480360381019061036891906115f4565b61085e565b60405161037a919061164e565b60405180910390f35b34801561038e575f80fd5b506103a960048036038101906103a491906116bb565b610878565b6040516103b691906117f6565b60405180910390f35b3480156103ca575f80fd5b506103d361098a565b6040516103e0919061164e565b60405180910390f35b61040360048036038101906103fe91906115f4565b610993565b005b61040d610f5c565b61041e8261041961098a565b6104e4565b9050919050565b60606104368787878787875f610ca0565b90509695505050505050565b61044a610f5c565b610453836104a2565b905081610464428360600151610f2b565b111561049c576040517f19abf40e00000000000000000000000000000000000000000000000000000000815260040160405180910390fd5b92915050565b6104aa610f5c565b5f6104b4836106d2565b90508060400151915050919050565b6104cb610f5c565b5f6104d5836106d2565b90508060200151915050919050565b6104ec610f5c565b6104f5836104c3565b905081610506428360600151610f2b565b111561053e576040517f19abf40e00000000000000000000000000000000000000000000000000000000815260040160405180910390fd5b92915050565b60606105568787878787876001610ca0565b90509695505050505050565b61056a610f5c565b61057b8261057661098a565b610442565b9050919050565b5f805f1b5f808481526020019081526020015f205f015414159050919050565b8181905084849050146105e1576040517fa9cb9e0d00000000000000000000000000000000000000000000000000000000815260040160405180910390fd5b5f5b848490508110156106975761061085858381811061060457610603611816565b5b90506020020135610582565b1580610675575082828281811061062a57610629611816565b5b905060200201602081019061063f9190611843565b67ffffffffffffffff1661066b86868481811061065f5761065e611816565b5b905060200201356106d2565b6020015160600151105b1561068a576106848787610993565b506106ca565b80806001019150506105e3565b506040517fde2c57fa00000000000000000000000000000000000000000000000000000000815260040160405180910390fd5b505050505050565b6106da610f90565b5f801b5f808481526020019081526020015f205f015403610727576040517f14aebe6800000000000000000000000000000000000000000000000000000000815260040160405180910390fd5b5f808381526020019081526020015f206040518060600160405290815f8201548152602001600182016040518060800160405290815f82015f9054906101000a900460070b60070b60070b81526020015f820160089054906101000a900467ffffffffffffffff1667ffffffffffffffff1667ffffffffffffffff1681526020015f820160109054906101000a900460030b60030b60030b81526020016001820154815250508152602001600382016040518060800160405290815f82015f9054906101000a900460070b60070b60070b81526020015f820160089054906101000a900467ffffffffffffffff1667ffffffffffffffff1667ffffffffffffffff1681526020015f820160109054906101000a900460030b60030b60030b8152602001600182015481525050815250509050919050565b5f82829050600254610870919061189b565b905092915050565b6060610882610f90565b89815f0181815250508881602001515f019060070b908160070b815250508781602001516020019067ffffffffffffffff16908167ffffffffffffffff16815250508681602001516040019060030b908160030b815250508367ffffffffffffffff16816020015160600181815250508581604001515f019060070b908160070b815250508481604001516020019067ffffffffffffffff16908167ffffffffffffffff16815250508681604001516040019060030b908160030b815250508367ffffffffffffffff1681604001516060018181525050808360405160200161096c9291906118eb565b60405160208183030381529060405291505098975050505050505050565b5f600354905090565b5f61099e838361085e565b9050803410156109da576040517f025dbdd400000000000000000000000000000000000000000000000000000000815260040160405180910390fd5b5f600190505f5b84849050811015610c01575f858583818110610a00576109ff611816565b5b9050602002810190610a129190611920565b810190610a1f9190611ad5565b90505f805f835f015181526020019081526020015f20600101600101549050816020015160600151811015610bf257815f80845f015181526020019081526020015f205f820151815f01556020820151816001015f820151815f015f6101000a81548167ffffffffffffffff021916908360070b67ffffffffffffffff1602179055506020820151815f0160086101000a81548167ffffffffffffffff021916908367ffffffffffffffff1602179055506040820151815f0160106101000a81548163ffffffff021916908360030b63ffffffff1602179055506060820151816001015550506040820151816003015f820151815f015f6101000a81548167ffffffffffffffff021916908360070b67ffffffffffffffff1602179055506020820151815f0160086101000a81548167ffffffffffffffff021916908367ffffffffffffffff1602179055506040820151815f0160106101000a81548163ffffffff021916908360030b63ffffffff160217905550606082015181600101555050905050815f01517fd06a6b7f4918494b3719217d1802786c1f5112a6c1d88fe2cfec00b4584f6aec8284602001515f0151856020015160200151604051610be993929190611b10565b60405180910390a25b505080806001019150506109e1565b507f943f0e8a16c19895fb87cbeb1a349ed86d7f31923089dd36c1a1ed5e300f267b8160015f9054906101000a900467ffffffffffffffff16604051610c48929190611b61565b60405180910390a16001805f8282829054906101000a900467ffffffffffffffff16610c749190611b88565b92506101000a81548167ffffffffffffffff021916908367ffffffffffffffff16021790555050505050565b60605f610cad898961085e565b905080341015610ce9576040517f025dbdd400000000000000000000000000000000000000000000000000000000815260040160405180910390fd5b8686905067ffffffffffffffff811115610d0657610d05611986565b5b604051908082528060200260200182016040528015610d3f57816020015b610d2c610f90565b815260200190600190039081610d245790505b5091505f5b87879050811015610f1e575f5b8a8a9050811015610ea1575f8b8b83818110610d7057610d6f611816565b5b9050602002810190610d829190611920565b810190610d8f9190611bc3565b868581518110610da257610da1611816565b5b602002602001018193508290525050898984818110610dc457610dc3611816565b5b90506020020135858481518110610dde57610ddd611816565b5b60200260200101515f015103610e93575f858481518110610e0257610e01611816565b5b602002602001015160200151606001519050808967ffffffffffffffff1611158015610e3857508767ffffffffffffffff168111155b8015610e605750861580610e5f57508867ffffffffffffffff168267ffffffffffffffff16105b5b15610e6c575050610ea1565b5f801b868581518110610e8257610e81611816565b5b60200260200101515f018181525050505b508080600101915050610d51565b50878782818110610eb557610eb4611816565b5b90506020020135838281518110610ecf57610ece611816565b5b60200260200101515f015114610f11576040517f45805f5d00000000000000000000000000000000000000000000000000000000815260040160405180910390fd5b8080600101915050610d44565b5050979650505050505050565b5f81831115610f47578183610f409190611c03565b9050610f56565b8282610f539190611c03565b90505b92915050565b60405180608001604052805f60070b81526020015f67ffffffffffffffff1681526020015f60030b81526020015f81525090565b60405180606001604052805f8019168152602001610fac610f5c565b8152602001610fb9610f5c565b81525090565b5f604051905090565b5f80fd5b5f80fd5b5f819050919050565b610fe281610fd0565b8114610fec575f80fd5b50565b5f81359050610ffd81610fd9565b92915050565b5f6020828403121561101857611017610fc8565b5b5f61102584828501610fef565b91505092915050565b5f8160070b9050919050565b6110438161102e565b82525050565b5f67ffffffffffffffff82169050919050565b61106581611049565b82525050565b5f8160030b9050919050565b6110808161106b565b82525050565b5f819050919050565b61109881611086565b82525050565b608082015f8201516110b25f85018261103a565b5060208201516110c5602085018261105c565b5060408201516110d86040850182611077565b5060608201516110eb606085018261108f565b50505050565b5f6080820190506111045f83018461109e565b92915050565b5f80fd5b5f80fd5b5f80fd5b5f8083601f84011261112b5761112a61110a565b5b8235905067ffffffffffffffff8111156111485761114761110e565b5b60208301915083602082028301111561116457611163611112565b5b9250929050565b5f8083601f8401126111805761117f61110a565b5b8235905067ffffffffffffffff81111561119d5761119c61110e565b5b6020830191508360208202830111156111b9576111b8611112565b5b9250929050565b6111c981611049565b81146111d3575f80fd5b50565b5f813590506111e4816111c0565b92915050565b5f805f805f806080878903121561120457611203610fc8565b5b5f87013567ffffffffffffffff81111561122157611220610fcc565b5b61122d89828a01611116565b9650965050602087013567ffffffffffffffff8111156112505761124f610fcc565b5b61125c89828a0161116b565b9450945050604061126f89828a016111d6565b925050606061128089828a016111d6565b9150509295509295509295565b5f81519050919050565b5f82825260208201905092915050565b5f819050602082019050919050565b6112bf81610fd0565b82525050565b608082015f8201516112d95f85018261103a565b5060208201516112ec602085018261105c565b5060408201516112ff6040850182611077565b506060820151611312606085018261108f565b50505050565b61012082015f82015161132d5f8501826112b6565b50602082015161134060208501826112c5565b50604082015161135360a08501826112c5565b50505050565b5f6113648383611318565b6101208301905092915050565b5f602082019050919050565b5f6113878261128d565b6113918185611297565b935061139c836112a7565b805f5b838110156113cc5781516113b38882611359565b97506113be83611371565b92505060018101905061139f565b5085935050505092915050565b5f6020820190508181035f8301526113f1818461137d565b905092915050565b61140281611086565b811461140c575f80fd5b50565b5f8135905061141d816113f9565b92915050565b5f806040838503121561143957611438610fc8565b5b5f61144685828601610fef565b92505060206114578582860161140f565b9150509250929050565b5f8115159050919050565b61147581611461565b82525050565b5f60208201905061148e5f83018461146c565b92915050565b5f8083601f8401126114a9576114a861110a565b5b8235905067ffffffffffffffff8111156114c6576114c561110e565b5b6020830191508360208202830111156114e2576114e1611112565b5b9250929050565b5f805f805f806060878903121561150357611502610fc8565b5b5f87013567ffffffffffffffff8111156115205761151f610fcc565b5b61152c89828a01611116565b9650965050602087013567ffffffffffffffff81111561154f5761154e610fcc565b5b61155b89828a0161116b565b9450945050604087013567ffffffffffffffff81111561157e5761157d610fcc565b5b61158a89828a01611494565b92509250509295509295509295565b61012082015f8201516115ae5f8501826112b6565b5060208201516115c160208501826112c5565b5060408201516115d460a08501826112c5565b50505050565b5f610120820190506115ee5f830184611599565b92915050565b5f806020838503121561160a57611609610fc8565b5b5f83013567ffffffffffffffff81111561162757611626610fcc565b5b61163385828601611116565b92509250509250929050565b61164881611086565b82525050565b5f6020820190506116615f83018461163f565b92915050565b6116708161102e565b811461167a575f80fd5b50565b5f8135905061168b81611667565b92915050565b61169a8161106b565b81146116a4575f80fd5b50565b5f813590506116b581611691565b92915050565b5f805f805f805f80610100898b0312156116d8576116d7610fc8565b5b5f6116e58b828c01610fef565b98505060206116f68b828c0161167d565b97505060406117078b828c016111d6565b96505060606117188b828c016116a7565b95505060806117298b828c0161167d565b94505060a061173a8b828c016111d6565b93505060c061174b8b828c016111d6565b92505060e061175c8b828c016111d6565b9150509295985092959890939650565b5f81519050919050565b5f82825260208201905092915050565b5f5b838110156117a3578082015181840152602081019050611788565b5f8484015250505050565b5f601f19601f8301169050919050565b5f6117c88261176c565b6117d28185611776565b93506117e2818560208601611786565b6117eb816117ae565b840191505092915050565b5f6020820190508181035f83015261180e81846117be565b905092915050565b7f4e487b71000000000000000000000000000000000000000000000000000000005f52603260045260245ffd5b5f6020828403121561185857611857610fc8565b5b5f611865848285016111d6565b91505092915050565b7f4e487b71000000000000000000000000000000000000000000000000000000005f52601160045260245ffd5b5f6118a582611086565b91506118b083611086565b92508282026118be81611086565b915082820484148315176118d5576118d461186e565b5b5092915050565b6118e581611049565b82525050565b5f610140820190506118ff5f830185611599565b61190d6101208301846118dc565b9392505050565b5f80fd5b5f80fd5b5f80fd5b5f808335600160200384360303811261193c5761193b611914565b5b80840192508235915067ffffffffffffffff82111561195e5761195d611918565b5b60208301925060018202360383131561197a5761197961191c565b5b509250929050565b5f80fd5b7f4e487b71000000000000000000000000000000000000000000000000000000005f52604160045260245ffd5b6119bc826117ae565b810181811067ffffffffffffffff821117156119db576119da611986565b5b80604052505050565b5f6119ed610fbf565b90506119f982826119b3565b919050565b5f60808284031215611a1357611a12611982565b5b611a1d60806119e4565b90505f611a2c8482850161167d565b5f830152506020611a3f848285016111d6565b6020830152506040611a53848285016116a7565b6040830152506060611a678482850161140f565b60608301525092915050565b5f6101208284031215611a8957611a88611982565b5b611a9360606119e4565b90505f611aa284828501610fef565b5f830152506020611ab5848285016119fe565b60208301525060a0611ac9848285016119fe565b60408301525092915050565b5f6101208284031215611aeb57611aea610fc8565b5b5f611af884828501611a73565b91505092915050565b611b0a8161102e565b82525050565b5f606082019050611b235f8301866118dc565b611b306020830185611b01565b611b3d60408301846118dc565b949350505050565b5f61ffff82169050919050565b611b5b81611b45565b82525050565b5f604082019050611b745f830185611b52565b611b8160208301846118dc565b9392505050565b5f611b9282611049565b9150611b9d83611049565b9250828201905067ffffffffffffffff811115611bbd57611bbc61186e565b5b92915050565b5f806101408385031215611bda57611bd9610fc8565b5b5f611be785828601611a73565b925050610120611bf9858286016111d6565b9150509250929050565b5f611c0d82611086565b9150611c1883611086565b9250828203905081811115611c3057611c2f61186e565b5b9291505056fea2646970667358221220eef09f9bc7776746f5ddfd96a3009c42c7a8790afae5063c027038b3cdf82e5d64736f6c63430008170033",
					"opcodes": "PUSH1 0x80 PUSH1 0x40 MSTORE CALLVALUE DUP1 ISZERO PUSH3 0x10 JUMPI PUSH0 DUP1 REVERT JUMPDEST POP PUSH1 0x40 MLOAD PUSH3 0x1D47 CODESIZE SUB DUP1 PUSH3 0x1D47 DUP4 CODECOPY DUP2 DUP2 ADD PUSH1 0x40 MSTORE DUP2 ADD SWAP1 PUSH3 0x36 SWAP2 SWAP1 PUSH3 0x88 JUMP JUMPDEST DUP1 PUSH1 0x2 DUP2 SWAP1 SSTORE POP DUP2 PUSH1 0x3 DUP2 SWAP1 SSTORE POP POP POP PUSH3 0xCD JUMP JUMPDEST PUSH0 DUP1 REVERT JUMPDEST PUSH0 DUP2 SWAP1 POP SWAP2 SWAP1 POP JUMP JUMPDEST PUSH3 0x64 DUP2 PUSH3 0x50 JUMP JUMPDEST DUP2 EQ PUSH3 0x6F JUMPI PUSH0 DUP1 REVERT JUMPDEST POP JUMP JUMPDEST PUSH0 DUP2 MLOAD SWAP1 POP PUSH3 0x82 DUP2 PUSH3 0x59 JUMP JUMPDEST SWAP3 SWAP2 POP POP JUMP JUMPDEST PUSH0 DUP1 PUSH1 0x40 DUP4 DUP6 SUB SLT ISZERO PUSH3 0xA1 JUMPI PUSH3 0xA0 PUSH3 0x4C JUMP JUMPDEST JUMPDEST PUSH0 PUSH3 0xB0 DUP6 DUP3 DUP7 ADD PUSH3 0x72 JUMP JUMPDEST SWAP3 POP POP PUSH1 0x20 PUSH3 0xC3 DUP6 DUP3 DUP7 ADD PUSH3 0x72 JUMP JUMPDEST SWAP2 POP POP SWAP3 POP SWAP3 SWAP1 POP JUMP JUMPDEST PUSH2 0x1C6C DUP1 PUSH3 0xDB PUSH0 CODECOPY PUSH0 RETURN INVALID PUSH1 0x80 PUSH1 0x40 MSTORE PUSH1 0x4 CALLDATASIZE LT PUSH2 0xE7 JUMPI PUSH0 CALLDATALOAD PUSH1 0xE0 SHR DUP1 PUSH4 0xB5DCC911 GT PUSH2 0x89 JUMPI DUP1 PUSH4 0xD47EED45 GT PUSH2 0x58 JUMPI DUP1 PUSH4 0xD47EED45 EQ PUSH2 0x347 JUMPI DUP1 PUSH4 0xD9B81C3C EQ PUSH2 0x383 JUMPI DUP1 PUSH4 0xE18910A3 EQ PUSH2 0x3BF JUMPI DUP1 PUSH4 0xEF9E5E28 EQ PUSH2 0x3E9 JUMPI PUSH2 0xE7 JUMP JUMPDEST DUP1 PUSH4 0xB5DCC911 EQ PUSH2 0x277 JUMPI DUP1 PUSH4 0xB5EC0261 EQ PUSH2 0x2B3 JUMPI DUP1 PUSH4 0xB9256D28 EQ PUSH2 0x2EF JUMPI DUP1 PUSH4 0xCAAF43F1 EQ PUSH2 0x30B JUMPI PUSH2 0xE7 JUMP JUMPDEST DUP1 PUSH4 0x9474F45B GT PUSH2 0xC5 JUMPI DUP1 PUSH4 0x9474F45B EQ PUSH2 0x193 JUMPI DUP1 PUSH4 0x96834AD3 EQ PUSH2 0x1CF JUMPI DUP1 PUSH4 0xA4AE35E0 EQ PUSH2 0x20B JUMPI DUP1 PUSH4 0xACCCA7F9 EQ PUSH2 0x247 JUMPI PUSH2 0xE7 JUMP JUMPDEST DUP1 PUSH4 0x31D98B3F EQ PUSH2 0xEB JUMPI DUP1 PUSH4 0x4716E9C5 EQ PUSH2 0x127 JUMPI DUP1 PUSH4 0x711A2E28 EQ PUSH2 0x157 JUMPI JUMPDEST PUSH0 DUP1 REVERT JUMPDEST CALLVALUE DUP1 ISZERO PUSH2 0xF6 JUMPI PUSH0 DUP1 REVERT JUMPDEST POP PUSH2 0x111 PUSH1 0x4 DUP1 CALLDATASIZE SUB DUP2 ADD SWAP1 PUSH2 0x10C SWAP2 SWAP1 PUSH2 0x1003 JUMP JUMPDEST PUSH2 0x405 JUMP JUMPDEST PUSH1 0x40 MLOAD PUSH2 0x11E SWAP2 SWAP1 PUSH2 0x10F1 JUMP JUMPDEST PUSH1 0x40 MLOAD DUP1 SWAP2 SUB SWAP1 RETURN JUMPDEST PUSH2 0x141 PUSH1 0x4 DUP1 CALLDATASIZE SUB DUP2 ADD SWAP1 PUSH2 0x13C SWAP2 SWAP1 PUSH2 0x11EA JUMP JUMPDEST PUSH2 0x425 JUMP JUMPDEST PUSH1 0x40 MLOAD PUSH2 0x14E SWAP2 SWAP1 PUSH2 0x13D9 JUMP JUMPDEST PUSH1 0x40 MLOAD DUP1 SWAP2 SUB SWAP1 RETURN JUMPDEST CALLVALUE DUP1 ISZERO PUSH2 0x162 JUMPI PUSH0 DUP1 REVERT JUMPDEST POP PUSH2 0x17D PUSH1 0x4 DUP1 CALLDATASIZE SUB DUP2 ADD SWAP1 PUSH2 0x178 SWAP2 SWAP1 PUSH2 0x1423 JUMP JUMPDEST PUSH2 0x442 JUMP JUMPDEST PUSH1 0x40 MLOAD PUSH2 0x18A SWAP2 SWAP1 PUSH2 0x10F1 JUMP JUMPDEST PUSH1 0x40 MLOAD DUP1 SWAP2 SUB SWAP1 RETURN JUMPDEST CALLVALUE DUP1 ISZERO PUSH2 0x19E JUMPI PUSH0 DUP1 REVERT JUMPDEST POP PUSH2 0x1B9 PUSH1 0x4 DUP1 CALLDATASIZE SUB DUP2 ADD SWAP1 PUSH2 0x1B4 SWAP2 SWAP1 PUSH2 0x1003 JUMP JUMPDEST PUSH2 0x4A2 JUMP JUMPDEST PUSH1 0x40 MLOAD PUSH2 0x1C6 SWAP2 SWAP1 PUSH2 0x10F1 JUMP JUMPDEST PUSH1 0x40 MLOAD DUP1 SWAP2 SUB SWAP1 RETURN JUMPDEST CALLVALUE DUP1 ISZERO PUSH2 0x1DA JUMPI PUSH0 DUP1 REVERT JUMPDEST POP PUSH2 0x1F5 PUSH1 0x4 DUP1 CALLDATASIZE SUB DUP2 ADD SWAP1 PUSH2 0x1F0 SWAP2 SWAP1 PUSH2 0x1003 JUMP JUMPDEST PUSH2 0x4C3 JUMP JUMPDEST PUSH1 0x40 MLOAD PUSH2 0x202 SWAP2 SWAP1 PUSH2 0x10F1 JUMP JUMPDEST PUSH1 0x40 MLOAD DUP1 SWAP2 SUB SWAP1 RETURN JUMPDEST CALLVALUE DUP1 ISZERO PUSH2 0x216 JUMPI PUSH0 DUP1 REVERT JUMPDEST POP PUSH2 0x231 PUSH1 0x4 DUP1 CALLDATASIZE SUB DUP2 ADD SWAP1 PUSH2 0x22C SWAP2 SWAP1 PUSH2 0x1423 JUMP JUMPDEST PUSH2 0x4E4 JUMP JUMPDEST PUSH1 0x40 MLOAD PUSH2 0x23E SWAP2 SWAP1 PUSH2 0x10F1 JUMP JUMPDEST PUSH1 0x40 MLOAD DUP1 SWAP2 SUB SWAP1 RETURN JUMPDEST PUSH2 0x261 PUSH1 0x4 DUP1 CALLDATASIZE SUB DUP2 ADD SWAP1 PUSH2 0x25C SWAP2 SWAP1 PUSH2 0x11EA JUMP JUMPDEST PUSH2 0x544 JUMP JUMPDEST PUSH1 0x40 MLOAD PUSH2 0x26E SWAP2 SWAP1 PUSH2 0x13D9 JUMP JUMPDEST PUSH1 0x40 MLOAD DUP1 SWAP2 SUB SWAP1 RETURN JUMPDEST CALLVALUE DUP1 ISZERO PUSH2 0x282 JUMPI PUSH0 DUP1 REVERT JUMPDEST POP PUSH2 0x29D PUSH1 0x4 DUP1 CALLDATASIZE SUB DUP2 ADD SWAP1 PUSH2 0x298 SWAP2 SWAP1 PUSH2 0x1003 JUMP JUMPDEST PUSH2 0x562 JUMP JUMPDEST PUSH1 0x40 MLOAD PUSH2 0x2AA SWAP2 SWAP1 PUSH2 0x10F1 JUMP JUMPDEST PUSH1 0x40 MLOAD DUP1 SWAP2 SUB SWAP1 RETURN JUMPDEST CALLVALUE DUP1 ISZERO PUSH2 0x2BE JUMPI PUSH0 DUP1 REVERT JUMPDEST POP PUSH2 0x2D9 PUSH1 0x4 DUP1 CALLDATASIZE SUB DUP2 ADD SWAP1 PUSH2 0x2D4 SWAP2 SWAP1 PUSH2 0x1003 JUMP JUMPDEST PUSH2 0x582 JUMP JUMPDEST PUSH1 0x40 MLOAD PUSH2 0x2E6 SWAP2 SWAP1 PUSH2 0x147B JUMP JUMPDEST PUSH1 0x40 MLOAD DUP1 SWAP2 SUB SWAP1 RETURN JUMPDEST PUSH2 0x309 PUSH1 0x4 DUP1 CALLDATASIZE SUB DUP2 ADD SWAP1 PUSH2 0x304 SWAP2 SWAP1 PUSH2 0x14E9 JUMP JUMPDEST PUSH2 0x5A2 JUMP JUMPDEST STOP JUMPDEST CALLVALUE DUP1 ISZERO PUSH2 0x316 JUMPI PUSH0 DUP1 REVERT JUMPDEST POP PUSH2 0x331 PUSH1 0x4 DUP1 CALLDATASIZE SUB DUP2 ADD SWAP1 PUSH2 0x32C SWAP2 SWAP1 PUSH2 0x1003 JUMP JUMPDEST PUSH2 0x6D2 JUMP JUMPDEST PUSH1 0x40 MLOAD PUSH2 0x33E SWAP2 SWAP1 PUSH2 0x15DA JUMP JUMPDEST PUSH1 0x40 MLOAD DUP1 SWAP2 SUB SWAP1 RETURN JUMPDEST CALLVALUE DUP1 ISZERO PUSH2 0x352 JUMPI PUSH0 DUP1 REVERT JUMPDEST POP PUSH2 0x36D PUSH1 0x4 DUP1 CALLDATASIZE SUB DUP2 ADD SWAP1 PUSH2 0x368 SWAP2 SWAP1 PUSH2 0x15F4 JUMP JUMPDEST PUSH2 0x85E JUMP JUMPDEST PUSH1 0x40 MLOAD PUSH2 0x37A SWAP2 SWAP1 PUSH2 0x164E JUMP JUMPDEST PUSH1 0x40 MLOAD DUP1 SWAP2 SUB SWAP1 RETURN JUMPDEST CALLVALUE DUP1 ISZERO PUSH2 0x38E JUMPI PUSH0 DUP1 REVERT JUMPDEST POP PUSH2 0x3A9 PUSH1 0x4 DUP1 CALLDATASIZE SUB DUP2 ADD SWAP1 PUSH2 0x3A4 SWAP2 SWAP1 PUSH2 0x16BB JUMP JUMPDEST PUSH2 0x878 JUMP JUMPDEST PUSH1 0x40 MLOAD PUSH2 0x3B6 SWAP2 SWAP1 PUSH2 0x17F6 JUMP JUMPDEST PUSH1 0x40 MLOAD DUP1 SWAP2 SUB SWAP1 RETURN JUMPDEST CALLVALUE DUP1 ISZERO PUSH2 0x3CA JUMPI PUSH0 DUP1 REVERT JUMPDEST POP PUSH2 0x3D3 PUSH2 0x98A JUMP JUMPDEST PUSH1 0x40 MLOAD PUSH2 0x3E0 SWAP2 SWAP1 PUSH2 0x164E JUMP JUMPDEST PUSH1 0x40 MLOAD DUP1 SWAP2 SUB SWAP1 RETURN JUMPDEST PUSH2 0x403 PUSH1 0x4 DUP1 CALLDATASIZE SUB DUP2 ADD SWAP1 PUSH2 0x3FE SWAP2 SWAP1 PUSH2 0x15F4 JUMP JUMPDEST PUSH2 0x993 JUMP JUMPDEST STOP JUMPDEST PUSH2 0x40D PUSH2 0xF5C JUMP JUMPDEST PUSH2 0x41E DUP3 PUSH2 0x419 PUSH2 0x98A JUMP JUMPDEST PUSH2 0x4E4 JUMP JUMPDEST SWAP1 POP SWAP2 SWAP1 POP JUMP JUMPDEST PUSH1 0x60 PUSH2 0x436 DUP8 DUP8 DUP8 DUP8 DUP8 DUP8 PUSH0 PUSH2 0xCA0 JUMP JUMPDEST SWAP1 POP SWAP7 SWAP6 POP POP POP POP POP POP JUMP JUMPDEST PUSH2 0x44A PUSH2 0xF5C JUMP JUMPDEST PUSH2 0x453 DUP4 PUSH2 0x4A2 JUMP JUMPDEST SWAP1 POP DUP2 PUSH2 0x464 TIMESTAMP DUP4 PUSH1 0x60 ADD MLOAD PUSH2 0xF2B JUMP JUMPDEST GT ISZERO PUSH2 0x49C JUMPI PUSH1 0x40 MLOAD PUSH32 0x19ABF40E00000000000000000000000000000000000000000000000000000000 DUP2 MSTORE PUSH1 0x4 ADD PUSH1 0x40 MLOAD DUP1 SWAP2 SUB SWAP1 REVERT JUMPDEST SWAP3 SWAP2 POP POP JUMP JUMPDEST PUSH2 0x4AA PUSH2 0xF5C JUMP JUMPDEST PUSH0 PUSH2 0x4B4 DUP4 PUSH2 0x6D2 JUMP JUMPDEST SWAP1 POP DUP1 PUSH1 0x40 ADD MLOAD SWAP2 POP POP SWAP2 SWAP1 POP JUMP JUMPDEST PUSH2 0x4CB PUSH2 0xF5C JUMP JUMPDEST PUSH0 PUSH2 0x4D5 DUP4 PUSH2 0x6D2 JUMP JUMPDEST SWAP1 POP DUP1 PUSH1 0x20 ADD MLOAD SWAP2 POP POP SWAP2 SWAP1 POP JUMP JUMPDEST PUSH2 0x4EC PUSH2 0xF5C JUMP JUMPDEST PUSH2 0x4F5 DUP4 PUSH2 0x4C3 JUMP JUMPDEST SWAP1 POP DUP2 PUSH2 0x506 TIMESTAMP DUP4 PUSH1 0x60 ADD MLOAD PUSH2 0xF2B JUMP JUMPDEST GT ISZERO PUSH2 0x53E JUMPI PUSH1 0x40 MLOAD PUSH32 0x19ABF40E00000000000000000000000000000000000000000000000000000000 DUP2 MSTORE PUSH1 0x4 ADD PUSH1 0x40 MLOAD DUP1 SWAP2 SUB SWAP1 REVERT JUMPDEST SWAP3 SWAP2 POP POP JUMP JUMPDEST PUSH1 0x60 PUSH2 0x556 DUP8 DUP8 DUP8 DUP8 DUP8 DUP8 PUSH1 0x1 PUSH2 0xCA0 JUMP JUMPDEST SWAP1 POP SWAP7 SWAP6 POP POP POP POP POP POP JUMP JUMPDEST PUSH2 0x56A PUSH2 0xF5C JUMP JUMPDEST PUSH2 0x57B DUP3 PUSH2 0x576 PUSH2 0x98A JUMP JUMPDEST PUSH2 0x442 JUMP JUMPDEST SWAP1 POP SWAP2 SWAP1 POP JUMP JUMPDEST PUSH0 DUP1 PUSH0 SHL PUSH0 DUP1 DUP5 DUP2 MSTORE PUSH1 0x20 ADD SWAP1 DUP2 MSTORE PUSH1 0x20 ADD PUSH0 KECCAK256 PUSH0 ADD SLOAD EQ ISZERO SWAP1 POP SWAP2 SWAP1 POP JUMP JUMPDEST DUP2 DUP2 SWAP1 POP DUP5 DUP5 SWAP1 POP EQ PUSH2 0x5E1 JUMPI PUSH1 0x40 MLOAD PUSH32 0xA9CB9E0D00000000000000000000000000000000000000000000000000000000 DUP2 MSTORE PUSH1 0x4 ADD PUSH1 0x40 MLOAD DUP1 SWAP2 SUB SWAP1 REVERT JUMPDEST PUSH0 JUMPDEST DUP5 DUP5 SWAP1 POP DUP2 LT ISZERO PUSH2 0x697 JUMPI PUSH2 0x610 DUP6 DUP6 DUP4 DUP2 DUP2 LT PUSH2 0x604 JUMPI PUSH2 0x603 PUSH2 0x1816 JUMP JUMPDEST JUMPDEST SWAP1 POP PUSH1 0x20 MUL ADD CALLDATALOAD PUSH2 0x582 JUMP JUMPDEST ISZERO DUP1 PUSH2 0x675 JUMPI POP DUP3 DUP3 DUP3 DUP2 DUP2 LT PUSH2 0x62A JUMPI PUSH2 0x629 PUSH2 0x1816 JUMP JUMPDEST JUMPDEST SWAP1 POP PUSH1 0x20 MUL ADD PUSH1 0x20 DUP2 ADD SWAP1 PUSH2 0x63F SWAP2 SWAP1 PUSH2 0x1843 JUMP JUMPDEST PUSH8 0xFFFFFFFFFFFFFFFF AND PUSH2 0x66B DUP7 DUP7 DUP5 DUP2 DUP2 LT PUSH2 0x65F JUMPI PUSH2 0x65E PUSH2 0x1816 JUMP JUMPDEST JUMPDEST SWAP1 POP PUSH1 0x20 MUL ADD CALLDATALOAD PUSH2 0x6D2 JUMP JUMPDEST PUSH1 0x20 ADD MLOAD PUSH1 0x60 ADD MLOAD LT JUMPDEST ISZERO PUSH2 0x68A JUMPI PUSH2 0x684 DUP8 DUP8 PUSH2 0x993 JUMP JUMPDEST POP PUSH2 0x6CA JUMP JUMPDEST DUP1 DUP1 PUSH1 0x1 ADD SWAP2 POP POP PUSH2 0x5E3 JUMP JUMPDEST POP PUSH1 0x40 MLOAD PUSH32 0xDE2C57FA00000000000000000000000000000000000000000000000000000000 DUP2 MSTORE PUSH1 0x4 ADD PUSH1 0x40 MLOAD DUP1 SWAP2 SUB SWAP1 REVERT JUMPDEST POP POP POP POP POP POP JUMP JUMPDEST PUSH2 0x6DA PUSH2 0xF90 JUMP JUMPDEST PUSH0 DUP1 SHL PUSH0 DUP1 DUP5 DUP2 MSTORE PUSH1 0x20 ADD SWAP1 DUP2 MSTORE PUSH1 0x20 ADD PUSH0 KECCAK256 PUSH0 ADD SLOAD SUB PUSH2 0x727 JUMPI PUSH1 0x40 MLOAD PUSH32 0x14AEBE6800000000000000000000000000000000000000000000000000000000 DUP2 MSTORE PUSH1 0x4 ADD PUSH1 0x40 MLOAD DUP1 SWAP2 SUB SWAP1 REVERT JUMPDEST PUSH0 DUP1 DUP4 DUP2 MSTORE PUSH1 0x20 ADD SWAP1 DUP2 MSTORE PUSH1 0x20 ADD PUSH0 KECCAK256 PUSH1 0x40 MLOAD DUP1 PUSH1 0x60 ADD PUSH1 0x40 MSTORE SWAP1 DUP2 PUSH0 DUP3 ADD SLOAD DUP2 MSTORE PUSH1 0x20 ADD PUSH1 0x1 DUP3 ADD PUSH1 0x40 MLOAD DUP1 PUSH1 0x80 ADD PUSH1 0x40 MSTORE SWAP1 DUP2 PUSH0 DUP3 ADD PUSH0 SWAP1 SLOAD SWAP1 PUSH2 0x100 EXP SWAP1 DIV PUSH1 0x7 SIGNEXTEND PUSH1 0x7 SIGNEXTEND PUSH1 0x7 SIGNEXTEND DUP2 MSTORE PUSH1 0x20 ADD PUSH0 DUP3 ADD PUSH1 0x8 SWAP1 SLOAD SWAP1 PUSH2 0x100 EXP SWAP1 DIV PUSH8 0xFFFFFFFFFFFFFFFF AND PUSH8 0xFFFFFFFFFFFFFFFF AND PUSH8 0xFFFFFFFFFFFFFFFF AND DUP2 MSTORE PUSH1 0x20 ADD PUSH0 DUP3 ADD PUSH1 0x10 SWAP1 SLOAD SWAP1 PUSH2 0x100 EXP SWAP1 DIV PUSH1 0x3 SIGNEXTEND PUSH1 0x3 SIGNEXTEND PUSH1 0x3 SIGNEXTEND DUP2 MSTORE PUSH1 0x20 ADD PUSH1 0x1 DUP3 ADD SLOAD DUP2 MSTORE POP POP DUP2 MSTORE PUSH1 0x20 ADD PUSH1 0x3 DUP3 ADD PUSH1 0x40 MLOAD DUP1 PUSH1 0x80 ADD PUSH1 0x40 MSTORE SWAP1 DUP2 PUSH0 DUP3 ADD PUSH0 SWAP1 SLOAD SWAP1 PUSH2 0x100 EXP SWAP1 DIV PUSH1 0x7 SIGNEXTEND PUSH1 0x7 SIGNEXTEND PUSH1 0x7 SIGNEXTEND DUP2 MSTORE PUSH1 0x20 ADD PUSH0 DUP3 ADD PUSH1 0x8 SWAP1 SLOAD SWAP1 PUSH2 0x100 EXP SWAP1 DIV PUSH8 0xFFFFFFFFFFFFFFFF AND PUSH8 0xFFFFFFFFFFFFFFFF AND PUSH8 0xFFFFFFFFFFFFFFFF AND DUP2 MSTORE PUSH1 0x20 ADD PUSH0 DUP3 ADD PUSH1 0x10 SWAP1 SLOAD SWAP1 PUSH2 0x100 EXP SWAP1 DIV PUSH1 0x3 SIGNEXTEND PUSH1 0x3 SIGNEXTEND PUSH1 0x3 SIGNEXTEND DUP2 MSTORE PUSH1 0x20 ADD PUSH1 0x1 DUP3 ADD SLOAD DUP2 MSTORE POP POP DUP2 MSTORE POP POP SWAP1 POP SWAP2 SWAP1 POP JUMP JUMPDEST PUSH0 DUP3 DUP3 SWAP1 POP PUSH1 0x2 SLOAD PUSH2 0x870 SWAP2 SWAP1 PUSH2 0x189B JUMP JUMPDEST SWAP1 POP SWAP3 SWAP2 POP POP JUMP JUMPDEST PUSH1 0x60 PUSH2 0x882 PUSH2 0xF90 JUMP JUMPDEST DUP10 DUP2 PUSH0 ADD DUP2 DUP2 MSTORE POP POP DUP9 DUP2 PUSH1 0x20 ADD MLOAD PUSH0 ADD SWAP1 PUSH1 0x7 SIGNEXTEND SWAP1 DUP2 PUSH1 0x7 SIGNEXTEND DUP2 MSTORE POP POP DUP8 DUP2 PUSH1 0x20 ADD MLOAD PUSH1 0x20 ADD SWAP1 PUSH8 0xFFFFFFFFFFFFFFFF AND SWAP1 DUP2 PUSH8 0xFFFFFFFFFFFFFFFF AND DUP2 MSTORE POP POP DUP7 DUP2 PUSH1 0x20 ADD MLOAD PUSH1 0x40 ADD SWAP1 PUSH1 0x3 SIGNEXTEND SWAP1 DUP2 PUSH1 0x3 SIGNEXTEND DUP2 MSTORE POP POP DUP4 PUSH8 0xFFFFFFFFFFFFFFFF AND DUP2 PUSH1 0x20 ADD MLOAD PUSH1 0x60 ADD DUP2 DUP2 MSTORE POP POP DUP6 DUP2 PUSH1 0x40 ADD MLOAD PUSH0 ADD SWAP1 PUSH1 0x7 SIGNEXTEND SWAP1 DUP2 PUSH1 0x7 SIGNEXTEND DUP2 MSTORE POP POP DUP5 DUP2 PUSH1 0x40 ADD MLOAD PUSH1 0x20 ADD SWAP1 PUSH8 0xFFFFFFFFFFFFFFFF AND SWAP1 DUP2 PUSH8 0xFFFFFFFFFFFFFFFF AND DUP2 MSTORE POP POP DUP7 DUP2 PUSH1 0x40 ADD MLOAD PUSH1 0x40 ADD SWAP1 PUSH1 0x3 SIGNEXTEND SWAP1 DUP2 PUSH1 0x3 SIGNEXTEND DUP2 MSTORE POP POP DUP4 PUSH8 0xFFFFFFFFFFFFFFFF AND DUP2 PUSH1 0x40 ADD MLOAD PUSH1 0x60 ADD DUP2 DUP2 MSTORE POP POP DUP1 DUP4 PUSH1 0x40 MLOAD PUSH1 0x20 ADD PUSH2 0x96C SWAP3 SWAP2 SWAP1 PUSH2 0x18EB JUMP JUMPDEST PUSH1 0x40 MLOAD PUSH1 0x20 DUP2 DUP4 SUB SUB DUP2 MSTORE SWAP1 PUSH1 0x40 MSTORE SWAP2 POP POP SWAP9 SWAP8 POP POP POP POP POP POP POP POP JUMP JUMPDEST PUSH0 PUSH1 0x3 SLOAD SWAP1 POP SWAP1 JUMP JUMPDEST PUSH0 PUSH2 0x99E DUP4 DUP4 PUSH2 0x85E JUMP JUMPDEST SWAP1 POP DUP1 CALLVALUE LT ISZERO PUSH2 0x9DA JUMPI PUSH1 0x40 MLOAD PUSH32 0x25DBDD400000000000000000000000000000000000000000000000000000000 DUP2 MSTORE PUSH1 0x4 ADD PUSH1 0x40 MLOAD DUP1 SWAP2 SUB SWAP1 REVERT JUMPDEST PUSH0 PUSH1 0x1 SWAP1 POP PUSH0 JUMPDEST DUP5 DUP5 SWAP1 POP DUP2 LT ISZERO PUSH2 0xC01 JUMPI PUSH0 DUP6 DUP6 DUP4 DUP2 DUP2 LT PUSH2 0xA00 JUMPI PUSH2 0x9FF PUSH2 0x1816 JUMP JUMPDEST JUMPDEST SWAP1 POP PUSH1 0x20 MUL DUP2 ADD SWAP1 PUSH2 0xA12 SWAP2 SWAP1 PUSH2 0x1920 JUMP JUMPDEST DUP2 ADD SWAP1 PUSH2 0xA1F SWAP2 SWAP1 PUSH2 0x1AD5 JUMP JUMPDEST SWAP1 POP PUSH0 DUP1 PUSH0 DUP4 PUSH0 ADD MLOAD DUP2 MSTORE PUSH1 0x20 ADD SWAP1 DUP2 MSTORE PUSH1 0x20 ADD PUSH0 KECCAK256 PUSH1 0x1 ADD PUSH1 0x1 ADD SLOAD SWAP1 POP DUP2 PUSH1 0x20 ADD MLOAD PUSH1 0x60 ADD MLOAD DUP2 LT ISZERO PUSH2 0xBF2 JUMPI DUP2 PUSH0 DUP1 DUP5 PUSH0 ADD MLOAD DUP2 MSTORE PUSH1 0x20 ADD SWAP1 DUP2 MSTORE PUSH1 0x20 ADD PUSH0 KECCAK256 PUSH0 DUP3 ADD MLOAD DUP2 PUSH0 ADD SSTORE PUSH1 0x20 DUP3 ADD MLOAD DUP2 PUSH1 0x1 ADD PUSH0 DUP3 ADD MLOAD DUP2 PUSH0 ADD PUSH0 PUSH2 0x100 EXP DUP2 SLOAD DUP2 PUSH8 0xFFFFFFFFFFFFFFFF MUL NOT AND SWAP1 DUP4 PUSH1 0x7 SIGNEXTEND PUSH8 0xFFFFFFFFFFFFFFFF AND MUL OR SWAP1 SSTORE POP PUSH1 0x20 DUP3 ADD MLOAD DUP2 PUSH0 ADD PUSH1 0x8 PUSH2 0x100 EXP DUP2 SLOAD DUP2 PUSH8 0xFFFFFFFFFFFFFFFF MUL NOT AND SWAP1 DUP4 PUSH8 0xFFFFFFFFFFFFFFFF AND MUL OR SWAP1 SSTORE POP PUSH1 0x40 DUP3 ADD MLOAD DUP2 PUSH0 ADD PUSH1 0x10 PUSH2 0x100 EXP DUP2 SLOAD DUP2 PUSH4 0xFFFFFFFF MUL NOT AND SWAP1 DUP4 PUSH1 0x3 SIGNEXTEND PUSH4 0xFFFFFFFF AND MUL OR SWAP1 SSTORE POP PUSH1 0x60 DUP3 ADD MLOAD DUP2 PUSH1 0x1 ADD SSTORE POP POP PUSH1 0x40 DUP3 ADD MLOAD DUP2 PUSH1 0x3 ADD PUSH0 DUP3 ADD MLOAD DUP2 PUSH0 ADD PUSH0 PUSH2 0x100 EXP DUP2 SLOAD DUP2 PUSH8 0xFFFFFFFFFFFFFFFF MUL NOT AND SWAP1 DUP4 PUSH1 0x7 SIGNEXTEND PUSH8 0xFFFFFFFFFFFFFFFF AND MUL OR SWAP1 SSTORE POP PUSH1 0x20 DUP3 ADD MLOAD DUP2 PUSH0 ADD PUSH1 0x8 PUSH2 0x100 EXP DUP2 SLOAD DUP2 PUSH8 0xFFFFFFFFFFFFFFFF MUL NOT AND SWAP1 DUP4 PUSH8 0xFFFFFFFFFFFFFFFF AND MUL OR SWAP1 SSTORE POP PUSH1 0x40 DUP3 ADD MLOAD DUP2 PUSH0 ADD PUSH1 0x10 PUSH2 0x100 EXP DUP2 SLOAD DUP2 PUSH4 0xFFFFFFFF MUL NOT AND SWAP1 DUP4 PUSH1 0x3 SIGNEXTEND PUSH4 0xFFFFFFFF AND MUL OR SWAP1 SSTORE POP PUSH1 0x60 DUP3 ADD MLOAD DUP2 PUSH1 0x1 ADD SSTORE POP POP SWAP1 POP POP DUP2 PUSH0 ADD MLOAD PUSH32 0xD06A6B7F4918494B3719217D1802786C1F5112A6C1D88FE2CFEC00B4584F6AEC DUP3 DUP5 PUSH1 0x20 ADD MLOAD PUSH0 ADD MLOAD DUP6 PUSH1 0x20 ADD MLOAD PUSH1 0x20 ADD MLOAD PUSH1 0x40 MLOAD PUSH2 0xBE9 SWAP4 SWAP3 SWAP2 SWAP1 PUSH2 0x1B10 JUMP JUMPDEST PUSH1 0x40 MLOAD DUP1 SWAP2 SUB SWAP1 LOG2 JUMPDEST POP POP DUP1 DUP1 PUSH1 0x1 ADD SWAP2 POP POP PUSH2 0x9E1 JUMP JUMPDEST POP PUSH32 0x943F0E8A16C19895FB87CBEB1A349ED86D7F31923089DD36C1A1ED5E300F267B DUP2 PUSH1 0x1 PUSH0 SWAP1 SLOAD SWAP1 PUSH2 0x100 EXP SWAP1 DIV PUSH8 0xFFFFFFFFFFFFFFFF AND PUSH1 0x40 MLOAD PUSH2 0xC48 SWAP3 SWAP2 SWAP1 PUSH2 0x1B61 JUMP JUMPDEST PUSH1 0x40 MLOAD DUP1 SWAP2 SUB SWAP1 LOG1 PUSH1 0x1 DUP1 PUSH0 DUP3 DUP3 DUP3 SWAP1 SLOAD SWAP1 PUSH2 0x100 EXP SWAP1 DIV PUSH8 0xFFFFFFFFFFFFFFFF AND PUSH2 0xC74 SWAP2 SWAP1 PUSH2 0x1B88 JUMP JUMPDEST SWAP3 POP PUSH2 0x100 EXP DUP2 SLOAD DUP2 PUSH8 0xFFFFFFFFFFFFFFFF MUL NOT AND SWAP1 DUP4 PUSH8 0xFFFFFFFFFFFFFFFF AND MUL OR SWAP1 SSTORE POP POP POP POP POP JUMP JUMPDEST PUSH1 0x60 PUSH0 PUSH2 0xCAD DUP10 DUP10 PUSH2 0x85E JUMP JUMPDEST SWAP1 POP DUP1 CALLVALUE LT ISZERO PUSH2 0xCE9 JUMPI PUSH1 0x40 MLOAD PUSH32 0x25DBDD400000000000000000000000000000000000000000000000000000000 DUP2 MSTORE PUSH1 0x4 ADD PUSH1 0x40 MLOAD DUP1 SWAP2 SUB SWAP1 REVERT JUMPDEST DUP7 DUP7 SWAP1 POP PUSH8 0xFFFFFFFFFFFFFFFF DUP2 GT ISZERO PUSH2 0xD06 JUMPI PUSH2 0xD05 PUSH2 0x1986 JUMP JUMPDEST JUMPDEST PUSH1 0x40 MLOAD SWAP1 DUP1 DUP3 MSTORE DUP1 PUSH1 0x20 MUL PUSH1 0x20 ADD DUP3 ADD PUSH1 0x40 MSTORE DUP1 ISZERO PUSH2 0xD3F JUMPI DUP2 PUSH1 0x20 ADD JUMPDEST PUSH2 0xD2C PUSH2 0xF90 JUMP JUMPDEST DUP2 MSTORE PUSH1 0x20 ADD SWAP1 PUSH1 0x1 SWAP1 SUB SWAP1 DUP2 PUSH2 0xD24 JUMPI SWAP1 POP JUMPDEST POP SWAP2 POP PUSH0 JUMPDEST DUP8 DUP8 SWAP1 POP DUP2 LT ISZERO PUSH2 0xF1E JUMPI PUSH0 JUMPDEST DUP11 DUP11 SWAP1 POP DUP2 LT ISZERO PUSH2 0xEA1 JUMPI PUSH0 DUP12 DUP12 DUP4 DUP2 DUP2 LT PUSH2 0xD70 JUMPI PUSH2 0xD6F PUSH2 0x1816 JUMP JUMPDEST JUMPDEST SWAP1 POP PUSH1 0x20 MUL DUP2 ADD SWAP1 PUSH2 0xD82 SWAP2 SWAP1 PUSH2 0x1920 JUMP JUMPDEST DUP2 ADD SWAP1 PUSH2 0xD8F SWAP2 SWAP1 PUSH2 0x1BC3 JUMP JUMPDEST DUP7 DUP6 DUP2 MLOAD DUP2 LT PUSH2 0xDA2 JUMPI PUSH2 0xDA1 PUSH2 0x1816 JUMP JUMPDEST JUMPDEST PUSH1 0x20 MUL PUSH1 0x20 ADD ADD DUP2 SWAP4 POP DUP3 SWAP1 MSTORE POP POP DUP10 DUP10 DUP5 DUP2 DUP2 LT PUSH2 0xDC4 JUMPI PUSH2 0xDC3 PUSH2 0x1816 JUMP JUMPDEST JUMPDEST SWAP1 POP PUSH1 0x20 MUL ADD CALLDATALOAD DUP6 DUP5 DUP2 MLOAD DUP2 LT PUSH2 0xDDE JUMPI PUSH2 0xDDD PUSH2 0x1816 JUMP JUMPDEST JUMPDEST PUSH1 0x20 MUL PUSH1 0x20 ADD ADD MLOAD PUSH0 ADD MLOAD SUB PUSH2 0xE93 JUMPI PUSH0 DUP6 DUP5 DUP2 MLOAD DUP2 LT PUSH2 0xE02 JUMPI PUSH2 0xE01 PUSH2 0x1816 JUMP JUMPDEST JUMPDEST PUSH1 0x20 MUL PUSH1 0x20 ADD ADD MLOAD PUSH1 0x20 ADD MLOAD PUSH1 0x60 ADD MLOAD SWAP1 POP DUP1 DUP10 PUSH8 0xFFFFFFFFFFFFFFFF AND GT ISZERO DUP1 ISZERO PUSH2 0xE38 JUMPI POP DUP8 PUSH8 0xFFFFFFFFFFFFFFFF AND DUP2 GT ISZERO JUMPDEST DUP1 ISZERO PUSH2 0xE60 JUMPI POP DUP7 ISZERO DUP1 PUSH2 0xE5F JUMPI POP DUP9 PUSH8 0xFFFFFFFFFFFFFFFF AND DUP3 PUSH8 0xFFFFFFFFFFFFFFFF AND LT JUMPDEST JUMPDEST ISZERO PUSH2 0xE6C JUMPI POP POP PUSH2 0xEA1 JUMP JUMPDEST PUSH0 DUP1 SHL DUP7 DUP6 DUP2 MLOAD DUP2 LT PUSH2 0xE82 JUMPI PUSH2 0xE81 PUSH2 0x1816 JUMP JUMPDEST JUMPDEST PUSH1 0x20 MUL PUSH1 0x20 ADD ADD MLOAD PUSH0 ADD DUP2 DUP2 MSTORE POP POP POP JUMPDEST POP DUP1 DUP1 PUSH1 0x1 ADD SWAP2 POP POP PUSH2 0xD51 JUMP JUMPDEST POP DUP8 DUP8 DUP3 DUP2 DUP2 LT PUSH2 0xEB5 JUMPI PUSH2 0xEB4 PUSH2 0x1816 JUMP JUMPDEST JUMPDEST SWAP1 POP PUSH1 0x20 MUL ADD CALLDATALOAD DUP4 DUP3 DUP2 MLOAD DUP2 LT PUSH2 0xECF JUMPI PUSH2 0xECE PUSH2 0x1816 JUMP JUMPDEST JUMPDEST PUSH1 0x20 MUL PUSH1 0x20 ADD ADD MLOAD PUSH0 ADD MLOAD EQ PUSH2 0xF11 JUMPI PUSH1 0x40 MLOAD PUSH32 0x45805F5D00000000000000000000000000000000000000000000000000000000 DUP2 MSTORE PUSH1 0x4 ADD PUSH1 0x40 MLOAD DUP1 SWAP2 SUB SWAP1 REVERT JUMPDEST DUP1 DUP1 PUSH1 0x1 ADD SWAP2 POP POP PUSH2 0xD44 JUMP JUMPDEST POP POP SWAP8 SWAP7 POP POP POP POP POP POP POP JUMP JUMPDEST PUSH0 DUP2 DUP4 GT ISZERO PUSH2 0xF47 JUMPI DUP2 DUP4 PUSH2 0xF40 SWAP2 SWAP1 PUSH2 0x1C03 JUMP JUMPDEST SWAP1 POP PUSH2 0xF56 JUMP JUMPDEST DUP3 DUP3 PUSH2 0xF53 SWAP2 SWAP1 PUSH2 0x1C03 JUMP JUMPDEST SWAP1 POP JUMPDEST SWAP3 SWAP2 POP POP JUMP JUMPDEST PUSH1 0x40 MLOAD DUP1 PUSH1 0x80 ADD PUSH1 0x40 MSTORE DUP1 PUSH0 PUSH1 0x7 SIGNEXTEND DUP2 MSTORE PUSH1 0x20 ADD PUSH0 PUSH8 0xFFFFFFFFFFFFFFFF AND DUP2 MSTORE PUSH1 0x20 ADD PUSH0 PUSH1 0x3 SIGNEXTEND DUP2 MSTORE PUSH1 0x20 ADD PUSH0 DUP2 MSTORE POP SWAP1 JUMP JUMPDEST PUSH1 0x40 MLOAD DUP1 PUSH1 0x60 ADD PUSH1 0x40 MSTORE DUP1 PUSH0 DUP1 NOT AND DUP2 MSTORE PUSH1 0x20 ADD PUSH2 0xFAC PUSH2 0xF5C JUMP JUMPDEST DUP2 MSTORE PUSH1 0x20 ADD PUSH2 0xFB9 PUSH2 0xF5C JUMP JUMPDEST DUP2 MSTORE POP SWAP1 JUMP JUMPDEST PUSH0 PUSH1 0x40 MLOAD SWAP1 POP SWAP1 JUMP JUMPDEST PUSH0 DUP1 REVERT JUMPDEST PUSH0 DUP1 REVERT JUMPDEST PUSH0 DUP2 SWAP1 POP SWAP2 SWAP1 POP JUMP JUMPDEST PUSH2 0xFE2 DUP2 PUSH2 0xFD0 JUMP JUMPDEST DUP2 EQ PUSH2 0xFEC JUMPI PUSH0 DUP1 REVERT JUMPDEST POP JUMP JUMPDEST PUSH0 DUP2 CALLDATALOAD SWAP1 POP PUSH2 0xFFD DUP2 PUSH2 0xFD9 JUMP JUMPDEST SWAP3 SWAP2 POP POP JUMP JUMPDEST PUSH0 PUSH1 0x20 DUP3 DUP5 SUB SLT ISZERO PUSH2 0x1018 JUMPI PUSH2 0x1017 PUSH2 0xFC8 JUMP JUMPDEST JUMPDEST PUSH0 PUSH2 0x1025 DUP5 DUP3 DUP6 ADD PUSH2 0xFEF JUMP JUMPDEST SWAP2 POP POP SWAP3 SWAP2 POP POP JUMP JUMPDEST PUSH0 DUP2 PUSH1 0x7 SIGNEXTEND SWAP1 POP SWAP2 SWAP1 POP JUMP JUMPDEST PUSH2 0x1043 DUP2 PUSH2 0x102E JUMP JUMPDEST DUP3 MSTORE POP POP JUMP JUMPDEST PUSH0 PUSH8 0xFFFFFFFFFFFFFFFF DUP3 AND SWAP1 POP SWAP2 SWAP1 POP JUMP JUMPDEST PUSH2 0x1065 DUP2 PUSH2 0x1049 JUMP JUMPDEST DUP3 MSTORE POP POP JUMP JUMPDEST PUSH0 DUP2 PUSH1 0x3 SIGNEXTEND SWAP1 POP SWAP2 SWAP1 POP JUMP JUMPDEST PUSH2 0x1080 DUP2 PUSH2 0x106B JUMP JUMPDEST DUP3 MSTORE POP POP JUMP JUMPDEST PUSH0 DUP2 SWAP1 POP SWAP2 SWAP1 POP JUMP JUMPDEST PUSH2 0x1098 DUP2 PUSH2 0x1086 JUMP JUMPDEST DUP3 MSTORE POP POP JUMP JUMPDEST PUSH1 0x80 DUP3 ADD PUSH0 DUP3 ADD MLOAD PUSH2 0x10B2 PUSH0 DUP6 ADD DUP3 PUSH2 0x103A JUMP JUMPDEST POP PUSH1 0x20 DUP3 ADD MLOAD PUSH2 0x10C5 PUSH1 0x20 DUP6 ADD DUP3 PUSH2 0x105C JUMP JUMPDEST POP PUSH1 0x40 DUP3 ADD MLOAD PUSH2 0x10D8 PUSH1 0x40 DUP6 ADD DUP3 PUSH2 0x1077 JUMP JUMPDEST POP PUSH1 0x60 DUP3 ADD MLOAD PUSH2 0x10EB PUSH1 0x60 DUP6 ADD DUP3 PUSH2 0x108F JUMP JUMPDEST POP POP POP POP JUMP JUMPDEST PUSH0 PUSH1 0x80 DUP3 ADD SWAP1 POP PUSH2 0x1104 PUSH0 DUP4 ADD DUP5 PUSH2 0x109E JUMP JUMPDEST SWAP3 SWAP2 POP POP JUMP JUMPDEST PUSH0 DUP1 REVERT JUMPDEST PUSH0 DUP1 REVERT JUMPDEST PUSH0 DUP1 REVERT JUMPDEST PUSH0 DUP1 DUP4 PUSH1 0x1F DUP5 ADD SLT PUSH2 0x112B JUMPI PUSH2 0x112A PUSH2 0x110A JUMP JUMPDEST JUMPDEST DUP3 CALLDATALOAD SWAP1 POP PUSH8 0xFFFFFFFFFFFFFFFF DUP2 GT ISZERO PUSH2 0x1148 JUMPI PUSH2 0x1147 PUSH2 0x110E JUMP JUMPDEST JUMPDEST PUSH1 0x20 DUP4 ADD SWAP2 POP DUP4 PUSH1 0x20 DUP3 MUL DUP4 ADD GT ISZERO PUSH2 0x1164 JUMPI PUSH2 0x1163 PUSH2 0x1112 JUMP JUMPDEST JUMPDEST SWAP3 POP SWAP3 SWAP1 POP JUMP JUMPDEST PUSH0 DUP1 DUP4 PUSH1 0x1F DUP5 ADD SLT PUSH2 0x1180 JUMPI PUSH2 0x117F PUSH2 0x110A JUMP JUMPDEST JUMPDEST DUP3 CALLDATALOAD SWAP1 POP PUSH8 0xFFFFFFFFFFFFFFFF DUP2 GT ISZERO PUSH2 0x119D JUMPI PUSH2 0x119C PUSH2 0x110E JUMP JUMPDEST JUMPDEST PUSH1 0x20 DUP4 ADD SWAP2 POP DUP4 PUSH1 0x20 DUP3 MUL DUP4 ADD GT ISZERO PUSH2 0x11B9 JUMPI PUSH2 0x11B8 PUSH2 0x1112 JUMP JUMPDEST JUMPDEST SWAP3 POP SWAP3 SWAP1 POP JUMP JUMPDEST PUSH2 0x11C9 DUP2 PUSH2 0x1049 JUMP JUMPDEST DUP2 EQ PUSH2 0x11D3 JUMPI PUSH0 DUP1 REVERT JUMPDEST POP JUMP JUMPDEST PUSH0 DUP2 CALLDATALOAD SWAP1 POP PUSH2 0x11E4 DUP2 PUSH2 0x11C0 JUMP JUMPDEST SWAP3 SWAP2 POP POP JUMP JUMPDEST PUSH0 DUP1 PUSH0 DUP1 PUSH0 DUP1 PUSH1 0x80 DUP8 DUP10 SUB SLT ISZERO PUSH2 0x1204 JUMPI PUSH2 0x1203 PUSH2 0xFC8 JUMP JUMPDEST JUMPDEST PUSH0 DUP8 ADD CALLDATALOAD PUSH8 0xFFFFFFFFFFFFFFFF DUP2 GT ISZERO PUSH2 0x1221 JUMPI PUSH2 0x1220 PUSH2 0xFCC JUMP JUMPDEST JUMPDEST PUSH2 0x122D DUP10 DUP3 DUP11 ADD PUSH2 0x1116 JUMP JUMPDEST SWAP7 POP SWAP7 POP POP PUSH1 0x20 DUP8 ADD CALLDATALOAD PUSH8 0xFFFFFFFFFFFFFFFF DUP2 GT ISZERO PUSH2 0x1250 JUMPI PUSH2 0x124F PUSH2 0xFCC JUMP JUMPDEST JUMPDEST PUSH2 0x125C DUP10 DUP3 DUP11 ADD PUSH2 0x116B JUMP JUMPDEST SWAP5 POP SWAP5 POP POP PUSH1 0x40 PUSH2 0x126F DUP10 DUP3 DUP11 ADD PUSH2 0x11D6 JUMP JUMPDEST SWAP3 POP POP PUSH1 0x60 PUSH2 0x1280 DUP10 DUP3 DUP11 ADD PUSH2 0x11D6 JUMP JUMPDEST SWAP2 POP POP SWAP3 SWAP6 POP SWAP3 SWAP6 POP SWAP3 SWAP6 JUMP JUMPDEST PUSH0 DUP2 MLOAD SWAP1 POP SWAP2 SWAP1 POP JUMP JUMPDEST PUSH0 DUP3 DUP3 MSTORE PUSH1 0x20 DUP3 ADD SWAP1 POP SWAP3 SWAP2 POP POP JUMP JUMPDEST PUSH0 DUP2 SWAP1 POP PUSH1 0x20 DUP3 ADD SWAP1 POP SWAP2 SWAP1 POP JUMP JUMPDEST PUSH2 0x12BF DUP2 PUSH2 0xFD0 JUMP JUMPDEST DUP3 MSTORE POP POP JUMP JUMPDEST PUSH1 0x80 DUP3 ADD PUSH0 DUP3 ADD MLOAD PUSH2 0x12D9 PUSH0 DUP6 ADD DUP3 PUSH2 0x103A JUMP JUMPDEST POP PUSH1 0x20 DUP3 ADD MLOAD PUSH2 0x12EC PUSH1 0x20 DUP6 ADD DUP3 PUSH2 0x105C JUMP JUMPDEST POP PUSH1 0x40 DUP3 ADD MLOAD PUSH2 0x12FF PUSH1 0x40 DUP6 ADD DUP3 PUSH2 0x1077 JUMP JUMPDEST POP PUSH1 0x60 DUP3 ADD MLOAD PUSH2 0x1312 PUSH1 0x60 DUP6 ADD DUP3 PUSH2 0x108F JUMP JUMPDEST POP POP POP POP JUMP JUMPDEST PUSH2 0x120 DUP3 ADD PUSH0 DUP3 ADD MLOAD PUSH2 0x132D PUSH0 DUP6 ADD DUP3 PUSH2 0x12B6 JUMP JUMPDEST POP PUSH1 0x20 DUP3 ADD MLOAD PUSH2 0x1340 PUSH1 0x20 DUP6 ADD DUP3 PUSH2 0x12C5 JUMP JUMPDEST POP PUSH1 0x40 DUP3 ADD MLOAD PUSH2 0x1353 PUSH1 0xA0 DUP6 ADD DUP3 PUSH2 0x12C5 JUMP JUMPDEST POP POP POP POP JUMP JUMPDEST PUSH0 PUSH2 0x1364 DUP4 DUP4 PUSH2 0x1318 JUMP JUMPDEST PUSH2 0x120 DUP4 ADD SWAP1 POP SWAP3 SWAP2 POP POP JUMP JUMPDEST PUSH0 PUSH1 0x20 DUP3 ADD SWAP1 POP SWAP2 SWAP1 POP JUMP JUMPDEST PUSH0 PUSH2 0x1387 DUP3 PUSH2 0x128D JUMP JUMPDEST PUSH2 0x1391 DUP2 DUP6 PUSH2 0x1297 JUMP JUMPDEST SWAP4 POP PUSH2 0x139C DUP4 PUSH2 0x12A7 JUMP JUMPDEST DUP1 PUSH0 JUMPDEST DUP4 DUP2 LT ISZERO PUSH2 0x13CC JUMPI DUP2 MLOAD PUSH2 0x13B3 DUP9 DUP3 PUSH2 0x1359 JUMP JUMPDEST SWAP8 POP PUSH2 0x13BE DUP4 PUSH2 0x1371 JUMP JUMPDEST SWAP3 POP POP PUSH1 0x1 DUP2 ADD SWAP1 POP PUSH2 0x139F JUMP JUMPDEST POP DUP6 SWAP4 POP POP POP POP SWAP3 SWAP2 POP POP JUMP JUMPDEST PUSH0 PUSH1 0x20 DUP3 ADD SWAP1 POP DUP2 DUP2 SUB PUSH0 DUP4 ADD MSTORE PUSH2 0x13F1 DUP2 DUP5 PUSH2 0x137D JUMP JUMPDEST SWAP1 POP SWAP3 SWAP2 POP POP JUMP JUMPDEST PUSH2 0x1402 DUP2 PUSH2 0x1086 JUMP JUMPDEST DUP2 EQ PUSH2 0x140C JUMPI PUSH0 DUP1 REVERT JUMPDEST POP JUMP JUMPDEST PUSH0 DUP2 CALLDATALOAD SWAP1 POP PUSH2 0x141D DUP2 PUSH2 0x13F9 JUMP JUMPDEST SWAP3 SWAP2 POP POP JUMP JUMPDEST PUSH0 DUP1 PUSH1 0x40 DUP4 DUP6 SUB SLT ISZERO PUSH2 0x1439 JUMPI PUSH2 0x1438 PUSH2 0xFC8 JUMP JUMPDEST JUMPDEST PUSH0 PUSH2 0x1446 DUP6 DUP3 DUP7 ADD PUSH2 0xFEF JUMP JUMPDEST SWAP3 POP POP PUSH1 0x20 PUSH2 0x1457 DUP6 DUP3 DUP7 ADD PUSH2 0x140F JUMP JUMPDEST SWAP2 POP POP SWAP3 POP SWAP3 SWAP1 POP JUMP JUMPDEST PUSH0 DUP2 ISZERO ISZERO SWAP1 POP SWAP2 SWAP1 POP JUMP JUMPDEST PUSH2 0x1475 DUP2 PUSH2 0x1461 JUMP JUMPDEST DUP3 MSTORE POP POP JUMP JUMPDEST PUSH0 PUSH1 0x20 DUP3 ADD SWAP1 POP PUSH2 0x148E PUSH0 DUP4 ADD DUP5 PUSH2 0x146C JUMP JUMPDEST SWAP3 SWAP2 POP POP JUMP JUMPDEST PUSH0 DUP1 DUP4 PUSH1 0x1F DUP5 ADD SLT PUSH2 0x14A9 JUMPI PUSH2 0x14A8 PUSH2 0x110A JUMP JUMPDEST JUMPDEST DUP3 CALLDATALOAD SWAP1 POP PUSH8 0xFFFFFFFFFFFFFFFF DUP2 GT ISZERO PUSH2 0x14C6 JUMPI PUSH2 0x14C5 PUSH2 0x110E JUMP JUMPDEST JUMPDEST PUSH1 0x20 DUP4 ADD SWAP2 POP DUP4 PUSH1 0x20 DUP3 MUL DUP4 ADD GT ISZERO PUSH2 0x14E2 JUMPI PUSH2 0x14E1 PUSH2 0x1112 JUMP JUMPDEST JUMPDEST SWAP3 POP SWAP3 SWAP1 POP JUMP JUMPDEST PUSH0 DUP1 PUSH0 DUP1 PUSH0 DUP1 PUSH1 0x60 DUP8 DUP10 SUB SLT ISZERO PUSH2 0x1503 JUMPI PUSH2 0x1502 PUSH2 0xFC8 JUMP JUMPDEST JUMPDEST PUSH0 DUP8 ADD CALLDATALOAD PUSH8 0xFFFFFFFFFFFFFFFF DUP2 GT ISZERO PUSH2 0x1520 JUMPI PUSH2 0x151F PUSH2 0xFCC JUMP JUMPDEST JUMPDEST PUSH2 0x152C DUP10 DUP3 DUP11 ADD PUSH2 0x1116 JUMP JUMPDEST SWAP7 POP SWAP7 POP POP PUSH1 0x20 DUP8 ADD CALLDATALOAD PUSH8 0xFFFFFFFFFFFFFFFF DUP2 GT ISZERO PUSH2 0x154F JUMPI PUSH2 0x154E PUSH2 0xFCC JUMP JUMPDEST JUMPDEST PUSH2 0x155B DUP10 DUP3 DUP11 ADD PUSH2 0x116B JUMP JUMPDEST SWAP5 POP SWAP5 POP POP PUSH1 0x40 DUP8 ADD CALLDATALOAD PUSH8 0xFFFFFFFFFFFFFFFF DUP2 GT ISZERO PUSH2 0x157E JUMPI PUSH2 0x157D PUSH2 0xFCC JUMP JUMPDEST JUMPDEST PUSH2 0x158A DUP10 DUP3 DUP11 ADD PUSH2 0x1494 JUMP JUMPDEST SWAP3 POP SWAP3 POP POP SWAP3 SWAP6 POP SWAP3 SWAP6 POP SWAP3 SWAP6 JUMP JUMPDEST PUSH2 0x120 DUP3 ADD PUSH0 DUP3 ADD MLOAD PUSH2 0x15AE PUSH0 DUP6 ADD DUP3 PUSH2 0x12B6 JUMP JUMPDEST POP PUSH1 0x20 DUP3 ADD MLOAD PUSH2 0x15C1 PUSH1 0x20 DUP6 ADD DUP3 PUSH2 0x12C5 JUMP JUMPDEST POP PUSH1 0x40 DUP3 ADD MLOAD PUSH2 0x15D4 PUSH1 0xA0 DUP6 ADD DUP3 PUSH2 0x12C5 JUMP JUMPDEST POP POP POP POP JUMP JUMPDEST PUSH0 PUSH2 0x120 DUP3 ADD SWAP1 POP PUSH2 0x15EE PUSH0 DUP4 ADD DUP5 PUSH2 0x1599 JUMP JUMPDEST SWAP3 SWAP2 POP POP JUMP JUMPDEST PUSH0 DUP1 PUSH1 0x20 DUP4 DUP6 SUB SLT ISZERO PUSH2 0x160A JUMPI PUSH2 0x1609 PUSH2 0xFC8 JUMP JUMPDEST JUMPDEST PUSH0 DUP4 ADD CALLDATALOAD PUSH8 0xFFFFFFFFFFFFFFFF DUP2 GT ISZERO PUSH2 0x1627 JUMPI PUSH2 0x1626 PUSH2 0xFCC JUMP JUMPDEST JUMPDEST PUSH2 0x1633 DUP6 DUP3 DUP7 ADD PUSH2 0x1116 JUMP JUMPDEST SWAP3 POP SWAP3 POP POP SWAP3 POP SWAP3 SWAP1 POP JUMP JUMPDEST PUSH2 0x1648 DUP2 PUSH2 0x1086 JUMP JUMPDEST DUP3 MSTORE POP POP JUMP JUMPDEST PUSH0 PUSH1 0x20 DUP3 ADD SWAP1 POP PUSH2 0x1661 PUSH0 DUP4 ADD DUP5 PUSH2 0x163F JUMP JUMPDEST SWAP3 SWAP2 POP POP JUMP JUMPDEST PUSH2 0x1670 DUP2 PUSH2 0x102E JUMP JUMPDEST DUP2 EQ PUSH2 0x167A JUMPI PUSH0 DUP1 REVERT JUMPDEST POP JUMP JUMPDEST PUSH0 DUP2 CALLDATALOAD SWAP1 POP PUSH2 0x168B DUP2 PUSH2 0x1667 JUMP JUMPDEST SWAP3 SWAP2 POP POP JUMP JUMPDEST PUSH2 0x169A DUP2 PUSH2 0x106B JUMP JUMPDEST DUP2 EQ PUSH2 0x16A4 JUMPI PUSH0 DUP1 REVERT JUMPDEST POP JUMP JUMPDEST PUSH0 DUP2 CALLDATALOAD SWAP1 POP PUSH2 0x16B5 DUP2 PUSH2 0x1691 JUMP JUMPDEST SWAP3 SWAP2 POP POP JUMP JUMPDEST PUSH0 DUP1 PUSH0 DUP1 PUSH0 DUP1 PUSH0 DUP1 PUSH2 0x100 DUP10 DUP12 SUB SLT ISZERO PUSH2 0x16D8 JUMPI PUSH2 0x16D7 PUSH2 0xFC8 JUMP JUMPDEST JUMPDEST PUSH0 PUSH2 0x16E5 DUP12 DUP3 DUP13 ADD PUSH2 0xFEF JUMP JUMPDEST SWAP9 POP POP PUSH1 0x20 PUSH2 0x16F6 DUP12 DUP3 DUP13 ADD PUSH2 0x167D JUMP JUMPDEST SWAP8 POP POP PUSH1 0x40 PUSH2 0x1707 DUP12 DUP3 DUP13 ADD PUSH2 0x11D6 JUMP JUMPDEST SWAP7 POP POP PUSH1 0x60 PUSH2 0x1718 DUP12 DUP3 DUP13 ADD PUSH2 0x16A7 JUMP JUMPDEST SWAP6 POP POP PUSH1 0x80 PUSH2 0x1729 DUP12 DUP3 DUP13 ADD PUSH2 0x167D JUMP JUMPDEST SWAP5 POP POP PUSH1 0xA0 PUSH2 0x173A DUP12 DUP3 DUP13 ADD PUSH2 0x11D6 JUMP JUMPDEST SWAP4 POP POP PUSH1 0xC0 PUSH2 0x174B DUP12 DUP3 DUP13 ADD PUSH2 0x11D6 JUMP JUMPDEST SWAP3 POP POP PUSH1 0xE0 PUSH2 0x175C DUP12 DUP3 DUP13 ADD PUSH2 0x11D6 JUMP JUMPDEST SWAP2 POP POP SWAP3 SWAP6 SWAP9 POP SWAP3 SWAP6 SWAP9 SWAP1 SWAP4 SWAP7 POP JUMP JUMPDEST PUSH0 DUP2 MLOAD SWAP1 POP SWAP2 SWAP1 POP JUMP JUMPDEST PUSH0 DUP3 DUP3 MSTORE PUSH1 0x20 DUP3 ADD SWAP1 POP SWAP3 SWAP2 POP POP JUMP JUMPDEST PUSH0 JUMPDEST DUP4 DUP2 LT ISZERO PUSH2 0x17A3 JUMPI DUP1 DUP3 ADD MLOAD DUP2 DUP5 ADD MSTORE PUSH1 0x20 DUP2 ADD SWAP1 POP PUSH2 0x1788 JUMP JUMPDEST PUSH0 DUP5 DUP5 ADD MSTORE POP POP POP POP JUMP JUMPDEST PUSH0 PUSH1 0x1F NOT PUSH1 0x1F DUP4 ADD AND SWAP1 POP SWAP2 SWAP1 POP JUMP JUMPDEST PUSH0 PUSH2 0x17C8 DUP3 PUSH2 0x176C JUMP JUMPDEST PUSH2 0x17D2 DUP2 DUP6 PUSH2 0x1776 JUMP JUMPDEST SWAP4 POP PUSH2 0x17E2 DUP2 DUP6 PUSH1 0x20 DUP7 ADD PUSH2 0x1786 JUMP JUMPDEST PUSH2 0x17EB DUP2 PUSH2 0x17AE JUMP JUMPDEST DUP5 ADD SWAP2 POP POP SWAP3 SWAP2 POP POP JUMP JUMPDEST PUSH0 PUSH1 0x20 DUP3 ADD SWAP1 POP DUP2 DUP2 SUB PUSH0 DUP4 ADD MSTORE PUSH2 0x180E DUP2 DUP5 PUSH2 0x17BE JUMP JUMPDEST SWAP1 POP SWAP3 SWAP2 POP POP JUMP JUMPDEST PUSH32 0x4E487B7100000000000000000000000000000000000000000000000000000000 PUSH0 MSTORE PUSH1 0x32 PUSH1 0x4 MSTORE PUSH1 0x24 PUSH0 REVERT JUMPDEST PUSH0 PUSH1 0x20 DUP3 DUP5 SUB SLT ISZERO PUSH2 0x1858 JUMPI PUSH2 0x1857 PUSH2 0xFC8 JUMP JUMPDEST JUMPDEST PUSH0 PUSH2 0x1865 DUP5 DUP3 DUP6 ADD PUSH2 0x11D6 JUMP JUMPDEST SWAP2 POP POP SWAP3 SWAP2 POP POP JUMP JUMPDEST PUSH32 0x4E487B7100000000000000000000000000000000000000000000000000000000 PUSH0 MSTORE PUSH1 0x11 PUSH1 0x4 MSTORE PUSH1 0x24 PUSH0 REVERT JUMPDEST PUSH0 PUSH2 0x18A5 DUP3 PUSH2 0x1086 JUMP JUMPDEST SWAP2 POP PUSH2 0x18B0 DUP4 PUSH2 0x1086 JUMP JUMPDEST SWAP3 POP DUP3 DUP3 MUL PUSH2 0x18BE DUP2 PUSH2 0x1086 JUMP JUMPDEST SWAP2 POP DUP3 DUP3 DIV DUP5 EQ DUP4 ISZERO OR PUSH2 0x18D5 JUMPI PUSH2 0x18D4 PUSH2 0x186E JUMP JUMPDEST JUMPDEST POP SWAP3 SWAP2 POP POP JUMP JUMPDEST PUSH2 0x18E5 DUP2 PUSH2 0x1049 JUMP JUMPDEST DUP3 MSTORE POP POP JUMP JUMPDEST PUSH0 PUSH2 0x140 DUP3 ADD SWAP1 POP PUSH2 0x18FF PUSH0 DUP4 ADD DUP6 PUSH2 0x1599 JUMP JUMPDEST PUSH2 0x190D PUSH2 0x120 DUP4 ADD DUP5 PUSH2 0x18DC JUMP JUMPDEST SWAP4 SWAP3 POP POP POP JUMP JUMPDEST PUSH0 DUP1 REVERT JUMPDEST PUSH0 DUP1 REVERT JUMPDEST PUSH0 DUP1 REVERT JUMPDEST PUSH0 DUP1 DUP4 CALLDATALOAD PUSH1 0x1 PUSH1 0x20 SUB DUP5 CALLDATASIZE SUB SUB DUP2 SLT PUSH2 0x193C JUMPI PUSH2 0x193B PUSH2 0x1914 JUMP JUMPDEST JUMPDEST DUP1 DUP5 ADD SWAP3 POP DUP3 CALLDATALOAD SWAP2 POP PUSH8 0xFFFFFFFFFFFFFFFF DUP3 GT ISZERO PUSH2 0x195E JUMPI PUSH2 0x195D PUSH2 0x1918 JUMP JUMPDEST JUMPDEST PUSH1 0x20 DUP4 ADD SWAP3 POP PUSH1 0x1 DUP3 MUL CALLDATASIZE SUB DUP4 SGT ISZERO PUSH2 0x197A JUMPI PUSH2 0x1979 PUSH2 0x191C JUMP JUMPDEST JUMPDEST POP SWAP3 POP SWAP3 SWAP1 POP JUMP JUMPDEST PUSH0 DUP1 REVERT JUMPDEST PUSH32 0x4E487B7100000000000000000000000000000000000000000000000000000000 PUSH0 MSTORE PUSH1 0x41 PUSH1 0x4 MSTORE PUSH1 0x24 PUSH0 REVERT JUMPDEST PUSH2 0x19BC DUP3 PUSH2 0x17AE JUMP JUMPDEST DUP2 ADD DUP2 DUP2 LT PUSH8 0xFFFFFFFFFFFFFFFF DUP3 GT OR ISZERO PUSH2 0x19DB JUMPI PUSH2 0x19DA PUSH2 0x1986 JUMP JUMPDEST JUMPDEST DUP1 PUSH1 0x40 MSTORE POP POP POP JUMP JUMPDEST PUSH0 PUSH2 0x19ED PUSH2 0xFBF JUMP JUMPDEST SWAP1 POP PUSH2 0x19F9 DUP3 DUP3 PUSH2 0x19B3 JUMP JUMPDEST SWAP2 SWAP1 POP JUMP JUMPDEST PUSH0 PUSH1 0x80 DUP3 DUP5 SUB SLT ISZERO PUSH2 0x1A13 JUMPI PUSH2 0x1A12 PUSH2 0x1982 JUMP JUMPDEST JUMPDEST PUSH2 0x1A1D PUSH1 0x80 PUSH2 0x19E4 JUMP JUMPDEST SWAP1 POP PUSH0 PUSH2 0x1A2C DUP5 DUP3 DUP6 ADD PUSH2 0x167D JUMP JUMPDEST PUSH0 DUP4 ADD MSTORE POP PUSH1 0x20 PUSH2 0x1A3F DUP5 DUP3 DUP6 ADD PUSH2 0x11D6 JUMP JUMPDEST PUSH1 0x20 DUP4 ADD MSTORE POP PUSH1 0x40 PUSH2 0x1A53 DUP5 DUP3 DUP6 ADD PUSH2 0x16A7 JUMP JUMPDEST PUSH1 0x40 DUP4 ADD MSTORE POP PUSH1 0x60 PUSH2 0x1A67 DUP5 DUP3 DUP6 ADD PUSH2 0x140F JUMP JUMPDEST PUSH1 0x60 DUP4 ADD MSTORE POP SWAP3 SWAP2 POP POP JUMP JUMPDEST PUSH0 PUSH2 0x120 DUP3 DUP5 SUB SLT ISZERO PUSH2 0x1A89 JUMPI PUSH2 0x1A88 PUSH2 0x1982 JUMP JUMPDEST JUMPDEST PUSH2 0x1A93 PUSH1 0x60 PUSH2 0x19E4 JUMP JUMPDEST SWAP1 POP PUSH0 PUSH2 0x1AA2 DUP5 DUP3 DUP6 ADD PUSH2 0xFEF JUMP JUMPDEST PUSH0 DUP4 ADD MSTORE POP PUSH1 0x20 PUSH2 0x1AB5 DUP5 DUP3 DUP6 ADD PUSH2 0x19FE JUMP JUMPDEST PUSH1 0x20 DUP4 ADD MSTORE POP PUSH1 0xA0 PUSH2 0x1AC9 DUP5 DUP3 DUP6 ADD PUSH2 0x19FE JUMP JUMPDEST PUSH1 0x40 DUP4 ADD MSTORE POP SWAP3 SWAP2 POP POP JUMP JUMPDEST PUSH0 PUSH2 0x120 DUP3 DUP5 SUB SLT ISZERO PUSH2 0x1AEB JUMPI PUSH2 0x1AEA PUSH2 0xFC8 JUMP JUMPDEST JUMPDEST PUSH0 PUSH2 0x1AF8 DUP5 DUP3 DUP6 ADD PUSH2 0x1A73 JUMP JUMPDEST SWAP2 POP POP SWAP3 SWAP2 POP POP JUMP JUMPDEST PUSH2 0x1B0A DUP2 PUSH2 0x102E JUMP JUMPDEST DUP3 MSTORE POP POP JUMP JUMPDEST PUSH0 PUSH1 0x60 DUP3 ADD SWAP1 POP PUSH2 0x1B23 PUSH0 DUP4 ADD DUP7 PUSH2 0x18DC JUMP JUMPDEST PUSH2 0x1B30 PUSH1 0x20 DUP4 ADD DUP6 PUSH2 0x1B01 JUMP JUMPDEST PUSH2 0x1B3D PUSH1 0x40 DUP4 ADD DUP5 PUSH2 0x18DC JUMP JUMPDEST SWAP5 SWAP4 POP POP POP POP JUMP JUMPDEST PUSH0 PUSH2 0xFFFF DUP3 AND SWAP1 POP SWAP2 SWAP1 POP JUMP JUMPDEST PUSH2 0x1B5B DUP2 PUSH2 0x1B45 JUMP JUMPDEST DUP3 MSTORE POP POP JUMP JUMPDEST PUSH0 PUSH1 0x40 DUP3 ADD SWAP1 POP PUSH2 0x1B74 PUSH0 DUP4 ADD DUP6 PUSH2 0x1B52 JUMP JUMPDEST PUSH2 0x1B81 PUSH1 0x20 DUP4 ADD DUP5 PUSH2 0x18DC JUMP JUMPDEST SWAP4 SWAP3 POP POP POP JUMP JUMPDEST PUSH0 PUSH2 0x1B92 DUP3 PUSH2 0x1049 JUMP JUMPDEST SWAP2 POP PUSH2 0x1B9D DUP4 PUSH2 0x1049 JUMP JUMPDEST SWAP3 POP DUP3 DUP3 ADD SWAP1 POP PUSH8 0xFFFFFFFFFFFFFFFF DUP2 GT ISZERO PUSH2 0x1BBD JUMPI PUSH2 0x1BBC PUSH2 0x186E JUMP JUMPDEST JUMPDEST SWAP3 SWAP2 POP POP JUMP JUMPDEST PUSH0 DUP1 PUSH2 0x140 DUP4 DUP6 SUB SLT ISZERO PUSH2 0x1BDA JUMPI PUSH2 0x1BD9 PUSH2 0xFC8 JUMP JUMPDEST JUMPDEST PUSH0 PUSH2 0x1BE7 DUP6 DUP3 DUP7 ADD PUSH2 0x1A73 JUMP JUMPDEST SWAP3 POP POP PUSH2 0x120 PUSH2 0x1BF9 DUP6 DUP3 DUP7 ADD PUSH2 0x11D6 JUMP JUMPDEST SWAP2 POP POP SWAP3 POP SWAP3 SWAP1 POP JUMP JUMPDEST PUSH0 PUSH2 0x1C0D DUP3 PUSH2 0x1086 JUMP JUMPDEST SWAP2 POP PUSH2 0x1C18 DUP4 PUSH2 0x1086 JUMP JUMPDEST SWAP3 POP DUP3 DUP3 SUB SWAP1 POP DUP2 DUP2 GT ISZERO PUSH2 0x1C30 JUMPI PUSH2 0x1C2F PUSH2 0x186E JUMP JUMPDEST JUMPDEST SWAP3 SWAP2 POP POP JUMP INVALID LOG2 PUSH5 0x6970667358 0x22 SLT KECCAK256 0xEE CREATE SWAP16 SWAP12 0xC7 PUSH24 0x6746F5DDFD96A3009C42C7A8790AFAE5063C027038B3CDF8 0x2E 0x5D PUSH5 0x736F6C6343 STOP ADDMOD OR STOP CALLER "
				},
				"gasEstimates": {
					"creation": {
						"codeDepositCost": "1455200",
						"executionCost": "infinite",
						"totalCost": "infinite"
					},
					"external": {
						"createPriceFeedUpdateData(bytes32,int64,uint64,int32,int64,uint64,uint64,uint64)": "infinite",
						"getEmaPrice(bytes32)": "infinite",
						"getEmaPriceNoOlderThan(bytes32,uint256)": "infinite",
						"getEmaPriceUnsafe(bytes32)": "infinite",
						"getPrice(bytes32)": "infinite",
						"getPriceNoOlderThan(bytes32,uint256)": "infinite",
						"getPriceUnsafe(bytes32)": "infinite",
						"getUpdateFee(bytes[])": "infinite",
						"getValidTimePeriod()": "2498",
						"parsePriceFeedUpdates(bytes[],bytes32[],uint64,uint64)": "infinite",
						"parsePriceFeedUpdatesUnique(bytes[],bytes32[],uint64,uint64)": "infinite",
						"priceFeedExists(bytes32)": "2839",
						"queryPriceFeed(bytes32)": "infinite",
						"updatePriceFeeds(bytes[])": "infinite",
						"updatePriceFeedsIfNecessary(bytes[],bytes32[],uint64[])": "infinite"
					},
					"internal": {
						"parsePriceFeedUpdatesInternal(bytes calldata[] calldata,bytes32[] calldata,uint64,uint64,bool)": "infinite"
					}
				},
				"methodIdentifiers": {
					"createPriceFeedUpdateData(bytes32,int64,uint64,int32,int64,uint64,uint64,uint64)": "d9b81c3c",
					"getEmaPrice(bytes32)": "b5dcc911",
					"getEmaPriceNoOlderThan(bytes32,uint256)": "711a2e28",
					"getEmaPriceUnsafe(bytes32)": "9474f45b",
					"getPrice(bytes32)": "31d98b3f",
					"getPriceNoOlderThan(bytes32,uint256)": "a4ae35e0",
					"getPriceUnsafe(bytes32)": "96834ad3",
					"getUpdateFee(bytes[])": "d47eed45",
					"getValidTimePeriod()": "e18910a3",
					"parsePriceFeedUpdates(bytes[],bytes32[],uint64,uint64)": "4716e9c5",
					"parsePriceFeedUpdatesUnique(bytes[],bytes32[],uint64,uint64)": "accca7f9",
					"priceFeedExists(bytes32)": "b5ec0261",
					"queryPriceFeed(bytes32)": "caaf43f1",
					"updatePriceFeeds(bytes[])": "ef9e5e28",
					"updatePriceFeedsIfNecessary(bytes[],bytes32[],uint64[])": "b9256d28"
				}
			},
			"storageLayout": {
				"storage": [
					{
						"astId": 650,
						"contract": "@pythnetwork/pyth-sdk-solidity/MockPyth.sol:MockPyth",
						"label": "priceFeeds",
						"offset": 0,
						"slot": "0",
						"type": "t_mapping(t_bytes32,t_struct(PriceFeed)1205_storage)"
					},
					{
						"astId": 652,
						"contract": "@pythnetwork/pyth-sdk-solidity/MockPyth.sol:MockPyth",
						"label": "sequenceNumber",
						"offset": 0,
						"slot": "1",
						"type": "t_uint64"
					},
					{
						"astId": 654,
						"contract": "@pythnetwork/pyth-sdk-solidity/MockPyth.sol:MockPyth",
						"label": "singleUpdateFeeInWei",
						"offset": 0,
						"slot": "2",
						"type": "t_uint256"
					},
					{
						"astId": 656,
						"contract": "@pythnetwork/pyth-sdk-solidity/MockPyth.sol:MockPyth",
						"label": "validTimePeriod",
						"offset": 0,
						"slot": "3",
						"type": "t_uint256"
					}
				],
				"types": {
					"t_bytes32": {
						"encoding": "inplace",
						"label": "bytes32",
						"numberOfBytes": "32"
					},
					"t_int32": {
						"encoding": "inplace",
						"label": "int32",
						"numberOfBytes": "4"
					},
					"t_int64": {
						"encoding": "inplace",
						"label": "int64",
						"numberOfBytes": "8"
					},
					"t_mapping(t_bytes32,t_struct(PriceFeed)1205_storage)": {
						"encoding": "mapping",
						"key": "t_bytes32",
						"label": "mapping(bytes32 => struct PythStructs.PriceFeed)",
						"numberOfBytes": "32",
						"value": "t_struct(PriceFeed)1205_storage"
					},
					"t_struct(Price)1196_storage": {
						"encoding": "inplace",
						"label": "struct PythStructs.Price",
						"members": [
							{
								"astId": 1189,
								"contract": "@pythnetwork/pyth-sdk-solidity/MockPyth.sol:MockPyth",
								"label": "price",
								"offset": 0,
								"slot": "0",
								"type": "t_int64"
							},
							{
								"astId": 1191,
								"contract": "@pythnetwork/pyth-sdk-solidity/MockPyth.sol:MockPyth",
								"label": "conf",
								"offset": 8,
								"slot": "0",
								"type": "t_uint64"
							},
							{
								"astId": 1193,
								"contract": "@pythnetwork/pyth-sdk-solidity/MockPyth.sol:MockPyth",
								"label": "expo",
								"offset": 16,
								"slot": "0",
								"type": "t_int32"
							},
							{
								"astId": 1195,
								"contract": "@pythnetwork/pyth-sdk-solidity/MockPyth.sol:MockPyth",
								"label": "publishTime",
								"offset": 0,
								"slot": "1",
								"type": "t_uint256"
							}
						],
						"numberOfBytes": "64"
					},
					"t_struct(PriceFeed)1205_storage": {
						"encoding": "inplace",
						"label": "struct PythStructs.PriceFeed",
						"members": [
							{
								"astId": 1198,
								"contract": "@pythnetwork/pyth-sdk-solidity/MockPyth.sol:MockPyth",
								"label": "id",
								"offset": 0,
								"slot": "0",
								"type": "t_bytes32"
							},
							{
								"astId": 1201,
								"contract": "@pythnetwork/pyth-sdk-solidity/MockPyth.sol:MockPyth",
								"label": "price",
								"offset": 0,
								"slot": "1",
								"type": "t_struct(Price)1196_storage"
							},
							{
								"astId": 1204,
								"contract": "@pythnetwork/pyth-sdk-solidity/MockPyth.sol:MockPyth",
								"label": "emaPrice",
								"offset": 0,
								"slot": "3",
								"type": "t_struct(Price)1196_storage"
							}
						],
						"numberOfBytes": "160"
					},
					"t_uint256": {
						"encoding": "inplace",
						"label": "uint256",
						"numberOfBytes": "32"
					},
					"t_uint64": {
						"encoding": "inplace",
						"label": "uint64",
						"numberOfBytes": "8"
					}
				}
			},
			"userdoc": {
				"kind": "user",
				"methods": {
					"getEmaPrice(bytes32)": {
						"notice": "Returns the exponentially-weighted moving average price and confidence interval."
					},
					"getEmaPriceNoOlderThan(bytes32,uint256)": {
						"notice": "Returns the exponentially-weighted moving average price that is no older than `age` seconds of the current time."
					},
					"getEmaPriceUnsafe(bytes32)": {
						"notice": "Returns the exponentially-weighted moving average price of a price feed without any sanity checks."
					},
					"getPrice(bytes32)": {
						"notice": "Returns the price and confidence interval."
					},
					"getPriceNoOlderThan(bytes32,uint256)": {
						"notice": "Returns the price that is no older than `age` seconds of the current time."
					},
					"getPriceUnsafe(bytes32)": {
						"notice": "Returns the price of a price feed without any sanity checks."
					},
					"getUpdateFee(bytes[])": {
						"notice": "Returns the required fee to update an array of price updates."
					},
					"getValidTimePeriod()": {
						"notice": "Returns the period (in seconds) that a price feed is considered valid since its publish time"
					},
					"parsePriceFeedUpdates(bytes[],bytes32[],uint64,uint64)": {
						"notice": "Parse `updateData` and return price feeds of the given `priceIds` if they are all published within `minPublishTime` and `maxPublishTime`. You can use this method if you want to use a Pyth price at a fixed time and not the most recent price; otherwise, please consider using `updatePriceFeeds`. This method does not store the price updates on-chain. This method requires the caller to pay a fee in wei; the required fee can be computed by calling `getUpdateFee` with the length of the `updateData` array."
					},
					"parsePriceFeedUpdatesUnique(bytes[],bytes32[],uint64,uint64)": {
						"notice": "Similar to `parsePriceFeedUpdates` but ensures the updates returned are the first updates published in minPublishTime. That is, if there are multiple updates for a given timestamp, this method will return the first update."
					},
					"priceFeedExists(bytes32)": {
						"notice": "Returns true if a price feed with the given id exists."
					},
					"queryPriceFeed(bytes32)": {
						"notice": "Returns the price feed with given id."
					},
					"updatePriceFeeds(bytes[])": {
						"notice": "Update price feeds with given update messages. This method requires the caller to pay a fee in wei; the required fee can be computed by calling `getUpdateFee` with the length of the `updateData` array. Prices will be updated if they are more recent than the current stored prices. The call will succeed even if the update is not the most recent."
					},
					"updatePriceFeedsIfNecessary(bytes[],bytes32[],uint64[])": {
						"notice": "Wrapper around updatePriceFeeds that rejects fast if a price update is not necessary. A price update is necessary if the current on-chain publishTime is older than the given publishTime. It relies solely on the given `publishTimes` for the price feeds and does not read the actual price update publish time within `updateData`. This method requires the caller to pay a fee in wei; the required fee can be computed by calling `getUpdateFee` with the length of the `updateData` array. `priceIds` and `publishTimes` are two arrays with the same size that correspond to senders known publishTime of each priceId when calling this method. If all of price feeds within `priceIds` have updated and have a newer or equal publish time than the given publish time, it will reject the transaction to save gas. Otherwise, it calls updatePriceFeeds method to update the prices."
					}
				},
				"version": 1
			}
		}
	}
}