{
	"data": {
		"bytecode": {
			"linkReferences": {},
			"object": "608060405234801561000f575f80fd5b5060405162000fbb38038062000fbb833981016040819052610030916100ec565b5f805461ffff191661ffff87161790555f805462010000600160b01b031916620100006001600160a01b03871602179055600180546001600160a01b0319166001600160a01b0385161790556002805462ffff00191661010061ffff851602179055600280546301000000600160b81b03191663010000006001600160a01b03841602179055505050505061014d565b805161ffff811681146100d1575f80fd5b919050565b80516001600160a01b03811681146100d1575f80fd5b5f805f805f60a08688031215610100575f80fd5b610109866100c0565b9450610117602087016100d6565b9350610125604087016100d6565b9250610133606087016100c0565b9150610141608087016100d6565b90509295509295909350565b610e60806200015b5f395ff3fe608060405260043610610083575f3560e01c80639a8a0592116100575780639a8a05921461010a578063a5d5db0c1461012b578063c6328a461461014a578063e18849191461014a578063edba820914610171575f80fd5b80624702571461008757806322867d78146100ad578063350c35e9146100cc5780634b8a3529146100eb575b5f80fd5b61008f610179565b60405167ffffffffffffffff90911681526020015b60405180910390f35b3480156100b8575f80fd5b5061008f6100c7366004610ac8565b610274565b3480156100d7575f80fd5b5061008f6100e6366004610ac8565b610288565b3480156100f6575f80fd5b5061008f610105366004610ac8565b610295565b348015610115575f80fd5b505f5460405161ffff90911681526020016100a4565b348015610136575f80fd5b5061008f610145366004610ac8565b6102a2565b348015610155575f80fd5b506001546040516001600160a01b0390911681526020016100a4565b61008f6102ae565b5f61026f60046101916001546001600160a01b031690565b6001600160a01b031663ad5c46486040518163ffffffff1660e01b8152600401602060405180830381865afa1580156101cc573d5f803e3d5ffd5b505050506040513d601f19601f820116820180604052508101906101f09190610af2565b5f546201000090046001600160a01b03166001600160a01b0316631a90a2196040518163ffffffff1660e01b8152600401602060405180830381865afa15801561023c573d5f803e3d5ffd5b505050506040513d601f19601f820116820180604052508101906102609190610b0d565b61026a9034610b38565b6102c6565b905090565b5f610281600384846102c6565b9392505050565b5f610281600284846102c6565b5f610281600184846102c6565b5f6102815f84846102c6565b5f61026f60056101916001546001600160a01b031690565b5f6102d183836104a1565b8360048560058111156102e6576102e6610b4b565b036102ee57505f5b600585600581111561030257610302610b4b565b0361030b575060035b5f604051806080016040528083600581111561032957610329610b4b565b81523360208201526001600160a01b038716604082015260600185905290505f610352826105a6565b90505f87600581111561036757610367610b4b565b14806103845750600387600581111561038257610382610b4b565b145b1561039b57610394868683610631565b9350610497565b60028760058111156103af576103af610b4b565b14806103cc575060018760058111156103ca576103ca610b4b565b145b156103da576103948161070c565b60048760058111156103ee576103ee610b4b565b148061040b5750600587600581111561040957610409610b4b565b145b15610497575f54610494906201000090046001600160a01b03166001600160a01b0316631a90a2196040518163ffffffff1660e01b8152600401602060405180830381865afa158015610460573d5f803e3d5ffd5b505050506040513d601f19601f820116820180604052508101906104849190610b0d565b61048e9087610b5f565b8261079e565b93505b5050509392505050565b60408051600481526024810182526020810180516001600160e01b031663313ce56760e01b17905290515f916001600160a01b038516916104e29190610b94565b5f60405180830381855afa9150503d805f811461051a576040519150601f19603f3d011682016040523d82523d5f602084013e61051f565b606091505b509150505f818060200190518101906105389190610baf565b90508261054e610548858461084d565b83610884565b146105a05760405162461bcd60e51b815260206004820152601760248201527f546f6f206d616e7920646563696d616c20706c6163657300000000000000000060448201526064015b60405180910390fd5b50505050565b805160609060058111156105bc576105bc610b4b565b82602001518360400151846060015160405160200161061b949392919060f89490941b6001600160f81b0319168452606092831b6bffffffffffffffffffffffff1990811660018601529190921b166015830152602982015260490190565b6040516020818303038152906040529050919050565b5f61063e843330866108b1565b61065a846106546001546001600160a01b031690565b85610918565b6001546001600160a01b03166001600160a01b031663c5a5ebda858561068960025461ffff6101009091041690565b6002546040516001600160e01b031960e087901b1681526106c494939291630100000090046001600160a01b0316905f908a90600401610bfa565b6020604051808303815f875af11580156106e0573d5f803e3d5ffd5b505050506040513d601f19601f820116820180604052508101906107049190610c48565b949350505050565b5f80546201000090046001600160a01b03166001600160a01b031663b19a437e5f8461073a60025460ff1690565b6040518463ffffffff1660e01b815260040161075893929190610c6f565b6020604051808303815f875af1158015610774573d5f803e3d5ffd5b505050506040513d601f19601f820116820180604052508101906107989190610c48565b92915050565b5f6107b16001546001600160a01b031690565b6001600160a01b031663bee9cdfc846107d360025461ffff6101009091041690565b6002546040516001600160e01b031960e086901b16815261080c9291630100000090046001600160a01b0316905f908990600401610ca0565b60206040518083038185885af1158015610828573d5f803e3d5ffd5b50505050506040513d601f19601f820116820180604052508101906102819190610c48565b5f60088260ff16111561087d57610865600883610cce565b61087090600a610dc7565b61087a9084610dd5565b92505b5090919050565b5f60088260ff16111561087d5761089c600883610cce565b6108a790600a610dc7565b61087a9084610df4565b6040516001600160a01b0384811660248301528381166044830152606482018390526105a09186918216906323b872dd906084015b604051602081830303815290604052915060e01b6020820180516001600160e01b03838183161783525050505061094e565b6040516001600160a01b0383811660248301526044820183905261094991859182169063a9059cbb906064016108e6565b505050565b5f6109626001600160a01b038416836109af565b905080515f141580156109865750808060200190518101906109849190610e0b565b155b1561094957604051635274afe760e01b81526001600160a01b0384166004820152602401610597565b606061028183835f845f80856001600160a01b031684866040516109d39190610b94565b5f6040518083038185875af1925050503d805f8114610a0d576040519150601f19603f3d011682016040523d82523d5f602084013e610a12565b606091505b5091509150610a22868383610a2c565b9695505050505050565b606082610a4157610a3c82610a88565b610281565b8151158015610a5857506001600160a01b0384163b155b15610a8157604051639996b31560e01b81526001600160a01b0385166004820152602401610597565b5080610281565b805115610a985780518082602001fd5b604051630a12f52160e11b815260040160405180910390fd5b50565b6001600160a01b0381168114610ab1575f80fd5b5f8060408385031215610ad9575f80fd5b8235610ae481610ab4565b946020939093013593505050565b5f60208284031215610b02575f80fd5b815161028181610ab4565b5f60208284031215610b1d575f80fd5b5051919050565b634e487b7160e01b5f52601160045260245ffd5b8181038181111561079857610798610b24565b634e487b7160e01b5f52602160045260245ffd5b8082018082111561079857610798610b24565b5f5b83811015610b8c578181015183820152602001610b74565b50505f910152565b5f8251610ba5818460208701610b72565b9190910192915050565b5f60208284031215610bbf575f80fd5b815160ff81168114610281575f80fd5b5f8151808452610be6816020860160208601610b72565b601f01601f19169290920160200192915050565b60018060a01b038716815285602082015261ffff8516604082015283606082015263ffffffff8316608082015260c060a08201525f610c3c60c0830184610bcf565b98975050505050505050565b5f60208284031215610c58575f80fd5b815167ffffffffffffffff81168114610281575f80fd5b63ffffffff84168152606060208201525f610c8d6060830185610bcf565b905060ff83166040830152949350505050565b61ffff8516815283602082015263ffffffff83166040820152608060608201525f610a226080830184610bcf565b60ff828116828216039081111561079857610798610b24565b600181815b80851115610d2157815f1904821115610d0757610d07610b24565b80851615610d1457918102915b93841c9390800290610cec565b509250929050565b5f82610d3757506001610798565b81610d4357505f610798565b8160018114610d595760028114610d6357610d7f565b6001915050610798565b60ff841115610d7457610d74610b24565b50506001821b610798565b5060208310610133831016604e8410600b8410161715610da2575081810a610798565b610dac8383610ce7565b805f1904821115610dbf57610dbf610b24565b029392505050565b5f61028160ff841683610d29565b5f82610def57634e487b7160e01b5f52601260045260245ffd5b500490565b808202811582820484141761079857610798610b24565b5f60208284031215610e1b575f80fd5b81518015158114610281575f80fdfea2646970667358221220bdcedf95167010ae6ad5e97d6d3cf80c6054cdc5aa9b6add6af0e653f5dab7aa64736f6c63430008170033",
			"opcodes": "PUSH1 0x80 PUSH1 0x40 MSTORE CALLVALUE DUP1 ISZERO PUSH2 0xF JUMPI PUSH0 DUP1 REVERT JUMPDEST POP PUSH1 0x40 MLOAD PUSH3 0xFBB CODESIZE SUB DUP1 PUSH3 0xFBB DUP4 CODECOPY DUP2 ADD PUSH1 0x40 DUP2 SWAP1 MSTORE PUSH2 0x30 SWAP2 PUSH2 0xEC JUMP JUMPDEST PUSH0 DUP1 SLOAD PUSH2 0xFFFF NOT AND PUSH2 0xFFFF DUP8 AND OR SWAP1 SSTORE PUSH0 DUP1 SLOAD PUSH3 0x10000 PUSH1 0x1 PUSH1 0xB0 SHL SUB NOT AND PUSH3 0x10000 PUSH1 0x1 PUSH1 0x1 PUSH1 0xA0 SHL SUB DUP8 AND MUL OR SWAP1 SSTORE PUSH1 0x1 DUP1 SLOAD PUSH1 0x1 PUSH1 0x1 PUSH1 0xA0 SHL SUB NOT AND PUSH1 0x1 PUSH1 0x1 PUSH1 0xA0 SHL SUB DUP6 AND OR SWAP1 SSTORE PUSH1 0x2 DUP1 SLOAD PUSH3 0xFFFF00 NOT AND PUSH2 0x100 PUSH2 0xFFFF DUP6 AND MUL OR SWAP1 SSTORE PUSH1 0x2 DUP1 SLOAD PUSH4 0x1000000 PUSH1 0x1 PUSH1 0xB8 SHL SUB NOT AND PUSH4 0x1000000 PUSH1 0x1 PUSH1 0x1 PUSH1 0xA0 SHL SUB DUP5 AND MUL OR SWAP1 SSTORE POP POP POP POP POP PUSH2 0x14D JUMP JUMPDEST DUP1 MLOAD PUSH2 0xFFFF DUP2 AND DUP2 EQ PUSH2 0xD1 JUMPI PUSH0 DUP1 REVERT JUMPDEST SWAP2 SWAP1 POP JUMP JUMPDEST DUP1 MLOAD PUSH1 0x1 PUSH1 0x1 PUSH1 0xA0 SHL SUB DUP2 AND DUP2 EQ PUSH2 0xD1 JUMPI PUSH0 DUP1 REVERT JUMPDEST PUSH0 DUP1 PUSH0 DUP1 PUSH0 PUSH1 0xA0 DUP7 DUP9 SUB SLT ISZERO PUSH2 0x100 JUMPI PUSH0 DUP1 REVERT JUMPDEST PUSH2 0x109 DUP7 PUSH2 0xC0 JUMP JUMPDEST SWAP5 POP PUSH2 0x117 PUSH1 0x20 DUP8 ADD PUSH2 0xD6 JUMP JUMPDEST SWAP4 POP PUSH2 0x125 PUSH1 0x40 DUP8 ADD PUSH2 0xD6 JUMP JUMPDEST SWAP3 POP PUSH2 0x133 PUSH1 0x60 DUP8 ADD PUSH2 0xC0 JUMP JUMPDEST SWAP2 POP PUSH2 0x141 PUSH1 0x80 DUP8 ADD PUSH2 0xD6 JUMP JUMPDEST SWAP1 POP SWAP3 SWAP6 POP SWAP3 SWAP6 SWAP1 SWAP4 POP JUMP JUMPDEST PUSH2 0xE60 DUP1 PUSH3 0x15B PUSH0 CODECOPY PUSH0 RETURN INVALID PUSH1 0x80 PUSH1 0x40 MSTORE PUSH1 0x4 CALLDATASIZE LT PUSH2 0x83 JUMPI PUSH0 CALLDATALOAD PUSH1 0xE0 SHR DUP1 PUSH4 0x9A8A0592 GT PUSH2 0x57 JUMPI DUP1 PUSH4 0x9A8A0592 EQ PUSH2 0x10A JUMPI DUP1 PUSH4 0xA5D5DB0C EQ PUSH2 0x12B JUMPI DUP1 PUSH4 0xC6328A46 EQ PUSH2 0x14A JUMPI DUP1 PUSH4 0xE1884919 EQ PUSH2 0x14A JUMPI DUP1 PUSH4 0xEDBA8209 EQ PUSH2 0x171 JUMPI PUSH0 DUP1 REVERT JUMPDEST DUP1 PUSH3 0x470257 EQ PUSH2 0x87 JUMPI DUP1 PUSH4 0x22867D78 EQ PUSH2 0xAD JUMPI DUP1 PUSH4 0x350C35E9 EQ PUSH2 0xCC JUMPI DUP1 PUSH4 0x4B8A3529 EQ PUSH2 0xEB JUMPI JUMPDEST PUSH0 DUP1 REVERT JUMPDEST PUSH2 0x8F PUSH2 0x179 JUMP JUMPDEST PUSH1 0x40 MLOAD PUSH8 0xFFFFFFFFFFFFFFFF SWAP1 SWAP2 AND DUP2 MSTORE PUSH1 0x20 ADD JUMPDEST PUSH1 0x40 MLOAD DUP1 SWAP2 SUB SWAP1 RETURN JUMPDEST CALLVALUE DUP1 ISZERO PUSH2 0xB8 JUMPI PUSH0 DUP1 REVERT JUMPDEST POP PUSH2 0x8F PUSH2 0xC7 CALLDATASIZE PUSH1 0x4 PUSH2 0xAC8 JUMP JUMPDEST PUSH2 0x274 JUMP JUMPDEST CALLVALUE DUP1 ISZERO PUSH2 0xD7 JUMPI PUSH0 DUP1 REVERT JUMPDEST POP PUSH2 0x8F PUSH2 0xE6 CALLDATASIZE PUSH1 0x4 PUSH2 0xAC8 JUMP JUMPDEST PUSH2 0x288 JUMP JUMPDEST CALLVALUE DUP1 ISZERO PUSH2 0xF6 JUMPI PUSH0 DUP1 REVERT JUMPDEST POP PUSH2 0x8F PUSH2 0x105 CALLDATASIZE PUSH1 0x4 PUSH2 0xAC8 JUMP JUMPDEST PUSH2 0x295 JUMP JUMPDEST CALLVALUE DUP1 ISZERO PUSH2 0x115 JUMPI PUSH0 DUP1 REVERT JUMPDEST POP PUSH0 SLOAD PUSH1 0x40 MLOAD PUSH2 0xFFFF SWAP1 SWAP2 AND DUP2 MSTORE PUSH1 0x20 ADD PUSH2 0xA4 JUMP JUMPDEST CALLVALUE DUP1 ISZERO PUSH2 0x136 JUMPI PUSH0 DUP1 REVERT JUMPDEST POP PUSH2 0x8F PUSH2 0x145 CALLDATASIZE PUSH1 0x4 PUSH2 0xAC8 JUMP JUMPDEST PUSH2 0x2A2 JUMP JUMPDEST CALLVALUE DUP1 ISZERO PUSH2 0x155 JUMPI PUSH0 DUP1 REVERT JUMPDEST POP PUSH1 0x1 SLOAD PUSH1 0x40 MLOAD PUSH1 0x1 PUSH1 0x1 PUSH1 0xA0 SHL SUB SWAP1 SWAP2 AND DUP2 MSTORE PUSH1 0x20 ADD PUSH2 0xA4 JUMP JUMPDEST PUSH2 0x8F PUSH2 0x2AE JUMP JUMPDEST PUSH0 PUSH2 0x26F PUSH1 0x4 PUSH2 0x191 PUSH1 0x1 SLOAD PUSH1 0x1 PUSH1 0x1 PUSH1 0xA0 SHL SUB AND SWAP1 JUMP JUMPDEST PUSH1 0x1 PUSH1 0x1 PUSH1 0xA0 SHL SUB AND PUSH4 0xAD5C4648 PUSH1 0x40 MLOAD DUP2 PUSH4 0xFFFFFFFF AND PUSH1 0xE0 SHL DUP2 MSTORE PUSH1 0x4 ADD PUSH1 0x20 PUSH1 0x40 MLOAD DUP1 DUP4 SUB DUP2 DUP7 GAS STATICCALL ISZERO DUP1 ISZERO PUSH2 0x1CC JUMPI RETURNDATASIZE PUSH0 DUP1 RETURNDATACOPY RETURNDATASIZE PUSH0 REVERT JUMPDEST POP POP POP POP PUSH1 0x40 MLOAD RETURNDATASIZE PUSH1 0x1F NOT PUSH1 0x1F DUP3 ADD AND DUP3 ADD DUP1 PUSH1 0x40 MSTORE POP DUP2 ADD SWAP1 PUSH2 0x1F0 SWAP2 SWAP1 PUSH2 0xAF2 JUMP JUMPDEST PUSH0 SLOAD PUSH3 0x10000 SWAP1 DIV PUSH1 0x1 PUSH1 0x1 PUSH1 0xA0 SHL SUB AND PUSH1 0x1 PUSH1 0x1 PUSH1 0xA0 SHL SUB AND PUSH4 0x1A90A219 PUSH1 0x40 MLOAD DUP2 PUSH4 0xFFFFFFFF AND PUSH1 0xE0 SHL DUP2 MSTORE PUSH1 0x4 ADD PUSH1 0x20 PUSH1 0x40 MLOAD DUP1 DUP4 SUB DUP2 DUP7 GAS STATICCALL ISZERO DUP1 ISZERO PUSH2 0x23C JUMPI RETURNDATASIZE PUSH0 DUP1 RETURNDATACOPY RETURNDATASIZE PUSH0 REVERT JUMPDEST POP POP POP POP PUSH1 0x40 MLOAD RETURNDATASIZE PUSH1 0x1F NOT PUSH1 0x1F DUP3 ADD AND DUP3 ADD DUP1 PUSH1 0x40 MSTORE POP DUP2 ADD SWAP1 PUSH2 0x260 SWAP2 SWAP1 PUSH2 0xB0D JUMP JUMPDEST PUSH2 0x26A SWAP1 CALLVALUE PUSH2 0xB38 JUMP JUMPDEST PUSH2 0x2C6 JUMP JUMPDEST SWAP1 POP SWAP1 JUMP JUMPDEST PUSH0 PUSH2 0x281 PUSH1 0x3 DUP5 DUP5 PUSH2 0x2C6 JUMP JUMPDEST SWAP4 SWAP3 POP POP POP JUMP JUMPDEST PUSH0 PUSH2 0x281 PUSH1 0x2 DUP5 DUP5 PUSH2 0x2C6 JUMP JUMPDEST PUSH0 PUSH2 0x281 PUSH1 0x1 DUP5 DUP5 PUSH2 0x2C6 JUMP JUMPDEST PUSH0 PUSH2 0x281 PUSH0 DUP5 DUP5 PUSH2 0x2C6 JUMP JUMPDEST PUSH0 PUSH2 0x26F PUSH1 0x5 PUSH2 0x191 PUSH1 0x1 SLOAD PUSH1 0x1 PUSH1 0x1 PUSH1 0xA0 SHL SUB AND SWAP1 JUMP JUMPDEST PUSH0 PUSH2 0x2D1 DUP4 DUP4 PUSH2 0x4A1 JUMP JUMPDEST DUP4 PUSH1 0x4 DUP6 PUSH1 0x5 DUP2 GT ISZERO PUSH2 0x2E6 JUMPI PUSH2 0x2E6 PUSH2 0xB4B JUMP JUMPDEST SUB PUSH2 0x2EE JUMPI POP PUSH0 JUMPDEST PUSH1 0x5 DUP6 PUSH1 0x5 DUP2 GT ISZERO PUSH2 0x302 JUMPI PUSH2 0x302 PUSH2 0xB4B JUMP JUMPDEST SUB PUSH2 0x30B JUMPI POP PUSH1 0x3 JUMPDEST PUSH0 PUSH1 0x40 MLOAD DUP1 PUSH1 0x80 ADD PUSH1 0x40 MSTORE DUP1 DUP4 PUSH1 0x5 DUP2 GT ISZERO PUSH2 0x329 JUMPI PUSH2 0x329 PUSH2 0xB4B JUMP JUMPDEST DUP2 MSTORE CALLER PUSH1 0x20 DUP3 ADD MSTORE PUSH1 0x1 PUSH1 0x1 PUSH1 0xA0 SHL SUB DUP8 AND PUSH1 0x40 DUP3 ADD MSTORE PUSH1 0x60 ADD DUP6 SWAP1 MSTORE SWAP1 POP PUSH0 PUSH2 0x352 DUP3 PUSH2 0x5A6 JUMP JUMPDEST SWAP1 POP PUSH0 DUP8 PUSH1 0x5 DUP2 GT ISZERO PUSH2 0x367 JUMPI PUSH2 0x367 PUSH2 0xB4B JUMP JUMPDEST EQ DUP1 PUSH2 0x384 JUMPI POP PUSH1 0x3 DUP8 PUSH1 0x5 DUP2 GT ISZERO PUSH2 0x382 JUMPI PUSH2 0x382 PUSH2 0xB4B JUMP JUMPDEST EQ JUMPDEST ISZERO PUSH2 0x39B JUMPI PUSH2 0x394 DUP7 DUP7 DUP4 PUSH2 0x631 JUMP JUMPDEST SWAP4 POP PUSH2 0x497 JUMP JUMPDEST PUSH1 0x2 DUP8 PUSH1 0x5 DUP2 GT ISZERO PUSH2 0x3AF JUMPI PUSH2 0x3AF PUSH2 0xB4B JUMP JUMPDEST EQ DUP1 PUSH2 0x3CC JUMPI POP PUSH1 0x1 DUP8 PUSH1 0x5 DUP2 GT ISZERO PUSH2 0x3CA JUMPI PUSH2 0x3CA PUSH2 0xB4B JUMP JUMPDEST EQ JUMPDEST ISZERO PUSH2 0x3DA JUMPI PUSH2 0x394 DUP2 PUSH2 0x70C JUMP JUMPDEST PUSH1 0x4 DUP8 PUSH1 0x5 DUP2 GT ISZERO PUSH2 0x3EE JUMPI PUSH2 0x3EE PUSH2 0xB4B JUMP JUMPDEST EQ DUP1 PUSH2 0x40B JUMPI POP PUSH1 0x5 DUP8 PUSH1 0x5 DUP2 GT ISZERO PUSH2 0x409 JUMPI PUSH2 0x409 PUSH2 0xB4B JUMP JUMPDEST EQ JUMPDEST ISZERO PUSH2 0x497 JUMPI PUSH0 SLOAD PUSH2 0x494 SWAP1 PUSH3 0x10000 SWAP1 DIV PUSH1 0x1 PUSH1 0x1 PUSH1 0xA0 SHL SUB AND PUSH1 0x1 PUSH1 0x1 PUSH1 0xA0 SHL SUB AND PUSH4 0x1A90A219 PUSH1 0x40 MLOAD DUP2 PUSH4 0xFFFFFFFF AND PUSH1 0xE0 SHL DUP2 MSTORE PUSH1 0x4 ADD PUSH1 0x20 PUSH1 0x40 MLOAD DUP1 DUP4 SUB DUP2 DUP7 GAS STATICCALL ISZERO DUP1 ISZERO PUSH2 0x460 JUMPI RETURNDATASIZE PUSH0 DUP1 RETURNDATACOPY RETURNDATASIZE PUSH0 REVERT JUMPDEST POP POP POP POP PUSH1 0x40 MLOAD RETURNDATASIZE PUSH1 0x1F NOT PUSH1 0x1F DUP3 ADD AND DUP3 ADD DUP1 PUSH1 0x40 MSTORE POP DUP2 ADD SWAP1 PUSH2 0x484 SWAP2 SWAP1 PUSH2 0xB0D JUMP JUMPDEST PUSH2 0x48E SWAP1 DUP8 PUSH2 0xB5F JUMP JUMPDEST DUP3 PUSH2 0x79E JUMP JUMPDEST SWAP4 POP JUMPDEST POP POP POP SWAP4 SWAP3 POP POP POP JUMP JUMPDEST PUSH1 0x40 DUP1 MLOAD PUSH1 0x4 DUP2 MSTORE PUSH1 0x24 DUP2 ADD DUP3 MSTORE PUSH1 0x20 DUP2 ADD DUP1 MLOAD PUSH1 0x1 PUSH1 0x1 PUSH1 0xE0 SHL SUB AND PUSH4 0x313CE567 PUSH1 0xE0 SHL OR SWAP1 MSTORE SWAP1 MLOAD PUSH0 SWAP2 PUSH1 0x1 PUSH1 0x1 PUSH1 0xA0 SHL SUB DUP6 AND SWAP2 PUSH2 0x4E2 SWAP2 SWAP1 PUSH2 0xB94 JUMP JUMPDEST PUSH0 PUSH1 0x40 MLOAD DUP1 DUP4 SUB DUP2 DUP6 GAS STATICCALL SWAP2 POP POP RETURNDATASIZE DUP1 PUSH0 DUP2 EQ PUSH2 0x51A JUMPI PUSH1 0x40 MLOAD SWAP2 POP PUSH1 0x1F NOT PUSH1 0x3F RETURNDATASIZE ADD AND DUP3 ADD PUSH1 0x40 MSTORE RETURNDATASIZE DUP3 MSTORE RETURNDATASIZE PUSH0 PUSH1 0x20 DUP5 ADD RETURNDATACOPY PUSH2 0x51F JUMP JUMPDEST PUSH1 0x60 SWAP2 POP JUMPDEST POP SWAP2 POP POP PUSH0 DUP2 DUP1 PUSH1 0x20 ADD SWAP1 MLOAD DUP2 ADD SWAP1 PUSH2 0x538 SWAP2 SWAP1 PUSH2 0xBAF JUMP JUMPDEST SWAP1 POP DUP3 PUSH2 0x54E PUSH2 0x548 DUP6 DUP5 PUSH2 0x84D JUMP JUMPDEST DUP4 PUSH2 0x884 JUMP JUMPDEST EQ PUSH2 0x5A0 JUMPI PUSH1 0x40 MLOAD PUSH3 0x461BCD PUSH1 0xE5 SHL DUP2 MSTORE PUSH1 0x20 PUSH1 0x4 DUP3 ADD MSTORE PUSH1 0x17 PUSH1 0x24 DUP3 ADD MSTORE PUSH32 0x546F6F206D616E7920646563696D616C20706C61636573000000000000000000 PUSH1 0x44 DUP3 ADD MSTORE PUSH1 0x64 ADD JUMPDEST PUSH1 0x40 MLOAD DUP1 SWAP2 SUB SWAP1 REVERT JUMPDEST POP POP POP POP JUMP JUMPDEST DUP1 MLOAD PUSH1 0x60 SWAP1 PUSH1 0x5 DUP2 GT ISZERO PUSH2 0x5BC JUMPI PUSH2 0x5BC PUSH2 0xB4B JUMP JUMPDEST DUP3 PUSH1 0x20 ADD MLOAD DUP4 PUSH1 0x40 ADD MLOAD DUP5 PUSH1 0x60 ADD MLOAD PUSH1 0x40 MLOAD PUSH1 0x20 ADD PUSH2 0x61B SWAP5 SWAP4 SWAP3 SWAP2 SWAP1 PUSH1 0xF8 SWAP5 SWAP1 SWAP5 SHL PUSH1 0x1 PUSH1 0x1 PUSH1 0xF8 SHL SUB NOT AND DUP5 MSTORE PUSH1 0x60 SWAP3 DUP4 SHL PUSH12 0xFFFFFFFFFFFFFFFFFFFFFFFF NOT SWAP1 DUP2 AND PUSH1 0x1 DUP7 ADD MSTORE SWAP2 SWAP1 SWAP3 SHL AND PUSH1 0x15 DUP4 ADD MSTORE PUSH1 0x29 DUP3 ADD MSTORE PUSH1 0x49 ADD SWAP1 JUMP JUMPDEST PUSH1 0x40 MLOAD PUSH1 0x20 DUP2 DUP4 SUB SUB DUP2 MSTORE SWAP1 PUSH1 0x40 MSTORE SWAP1 POP SWAP2 SWAP1 POP JUMP JUMPDEST PUSH0 PUSH2 0x63E DUP5 CALLER ADDRESS DUP7 PUSH2 0x8B1 JUMP JUMPDEST PUSH2 0x65A DUP5 PUSH2 0x654 PUSH1 0x1 SLOAD PUSH1 0x1 PUSH1 0x1 PUSH1 0xA0 SHL SUB AND SWAP1 JUMP JUMPDEST DUP6 PUSH2 0x918 JUMP JUMPDEST PUSH1 0x1 SLOAD PUSH1 0x1 PUSH1 0x1 PUSH1 0xA0 SHL SUB AND PUSH1 0x1 PUSH1 0x1 PUSH1 0xA0 SHL SUB AND PUSH4 0xC5A5EBDA DUP6 DUP6 PUSH2 0x689 PUSH1 0x2 SLOAD PUSH2 0xFFFF PUSH2 0x100 SWAP1 SWAP2 DIV AND SWAP1 JUMP JUMPDEST PUSH1 0x2 SLOAD PUSH1 0x40 MLOAD PUSH1 0x1 PUSH1 0x1 PUSH1 0xE0 SHL SUB NOT PUSH1 0xE0 DUP8 SWAP1 SHL AND DUP2 MSTORE PUSH2 0x6C4 SWAP5 SWAP4 SWAP3 SWAP2 PUSH4 0x1000000 SWAP1 DIV PUSH1 0x1 PUSH1 0x1 PUSH1 0xA0 SHL SUB AND SWAP1 PUSH0 SWAP1 DUP11 SWAP1 PUSH1 0x4 ADD PUSH2 0xBFA JUMP JUMPDEST PUSH1 0x20 PUSH1 0x40 MLOAD DUP1 DUP4 SUB DUP2 PUSH0 DUP8 GAS CALL ISZERO DUP1 ISZERO PUSH2 0x6E0 JUMPI RETURNDATASIZE PUSH0 DUP1 RETURNDATACOPY RETURNDATASIZE PUSH0 REVERT JUMPDEST POP POP POP POP PUSH1 0x40 MLOAD RETURNDATASIZE PUSH1 0x1F NOT PUSH1 0x1F DUP3 ADD AND DUP3 ADD DUP1 PUSH1 0x40 MSTORE POP DUP2 ADD SWAP1 PUSH2 0x704 SWAP2 SWAP1 PUSH2 0xC48 JUMP JUMPDEST SWAP5 SWAP4 POP POP POP POP JUMP JUMPDEST PUSH0 DUP1 SLOAD PUSH3 0x10000 SWAP1 DIV PUSH1 0x1 PUSH1 0x1 PUSH1 0xA0 SHL SUB AND PUSH1 0x1 PUSH1 0x1 PUSH1 0xA0 SHL SUB AND PUSH4 0xB19A437E PUSH0 DUP5 PUSH2 0x73A PUSH1 0x2 SLOAD PUSH1 0xFF AND SWAP1 JUMP JUMPDEST PUSH1 0x40 MLOAD DUP5 PUSH4 0xFFFFFFFF AND PUSH1 0xE0 SHL DUP2 MSTORE PUSH1 0x4 ADD PUSH2 0x758 SWAP4 SWAP3 SWAP2 SWAP1 PUSH2 0xC6F JUMP JUMPDEST PUSH1 0x20 PUSH1 0x40 MLOAD DUP1 DUP4 SUB DUP2 PUSH0 DUP8 GAS CALL ISZERO DUP1 ISZERO PUSH2 0x774 JUMPI RETURNDATASIZE PUSH0 DUP1 RETURNDATACOPY RETURNDATASIZE PUSH0 REVERT JUMPDEST POP POP POP POP PUSH1 0x40 MLOAD RETURNDATASIZE PUSH1 0x1F NOT PUSH1 0x1F DUP3 ADD AND DUP3 ADD DUP1 PUSH1 0x40 MSTORE POP DUP2 ADD SWAP1 PUSH2 0x798 SWAP2 SWAP1 PUSH2 0xC48 JUMP JUMPDEST SWAP3 SWAP2 POP POP JUMP JUMPDEST PUSH0 PUSH2 0x7B1 PUSH1 0x1 SLOAD PUSH1 0x1 PUSH1 0x1 PUSH1 0xA0 SHL SUB AND SWAP1 JUMP JUMPDEST PUSH1 0x1 PUSH1 0x1 PUSH1 0xA0 SHL SUB AND PUSH4 0xBEE9CDFC DUP5 PUSH2 0x7D3 PUSH1 0x2 SLOAD PUSH2 0xFFFF PUSH2 0x100 SWAP1 SWAP2 DIV AND SWAP1 JUMP JUMPDEST PUSH1 0x2 SLOAD PUSH1 0x40 MLOAD PUSH1 0x1 PUSH1 0x1 PUSH1 0xE0 SHL SUB NOT PUSH1 0xE0 DUP7 SWAP1 SHL AND DUP2 MSTORE PUSH2 0x80C SWAP3 SWAP2 PUSH4 0x1000000 SWAP1 DIV PUSH1 0x1 PUSH1 0x1 PUSH1 0xA0 SHL SUB AND SWAP1 PUSH0 SWAP1 DUP10 SWAP1 PUSH1 0x4 ADD PUSH2 0xCA0 JUMP JUMPDEST PUSH1 0x20 PUSH1 0x40 MLOAD DUP1 DUP4 SUB DUP2 DUP6 DUP9 GAS CALL ISZERO DUP1 ISZERO PUSH2 0x828 JUMPI RETURNDATASIZE PUSH0 DUP1 RETURNDATACOPY RETURNDATASIZE PUSH0 REVERT JUMPDEST POP POP POP POP POP PUSH1 0x40 MLOAD RETURNDATASIZE PUSH1 0x1F NOT PUSH1 0x1F DUP3 ADD AND DUP3 ADD DUP1 PUSH1 0x40 MSTORE POP DUP2 ADD SWAP1 PUSH2 0x281 SWAP2 SWAP1 PUSH2 0xC48 JUMP JUMPDEST PUSH0 PUSH1 0x8 DUP3 PUSH1 0xFF AND GT ISZERO PUSH2 0x87D JUMPI PUSH2 0x865 PUSH1 0x8 DUP4 PUSH2 0xCCE JUMP JUMPDEST PUSH2 0x870 SWAP1 PUSH1 0xA PUSH2 0xDC7 JUMP JUMPDEST PUSH2 0x87A SWAP1 DUP5 PUSH2 0xDD5 JUMP JUMPDEST SWAP3 POP JUMPDEST POP SWAP1 SWAP2 SWAP1 POP JUMP JUMPDEST PUSH0 PUSH1 0x8 DUP3 PUSH1 0xFF AND GT ISZERO PUSH2 0x87D JUMPI PUSH2 0x89C PUSH1 0x8 DUP4 PUSH2 0xCCE JUMP JUMPDEST PUSH2 0x8A7 SWAP1 PUSH1 0xA PUSH2 0xDC7 JUMP JUMPDEST PUSH2 0x87A SWAP1 DUP5 PUSH2 0xDF4 JUMP JUMPDEST PUSH1 0x40 MLOAD PUSH1 0x1 PUSH1 0x1 PUSH1 0xA0 SHL SUB DUP5 DUP2 AND PUSH1 0x24 DUP4 ADD MSTORE DUP4 DUP2 AND PUSH1 0x44 DUP4 ADD MSTORE PUSH1 0x64 DUP3 ADD DUP4 SWAP1 MSTORE PUSH2 0x5A0 SWAP2 DUP7 SWAP2 DUP3 AND SWAP1 PUSH4 0x23B872DD SWAP1 PUSH1 0x84 ADD JUMPDEST PUSH1 0x40 MLOAD PUSH1 0x20 DUP2 DUP4 SUB SUB DUP2 MSTORE SWAP1 PUSH1 0x40 MSTORE SWAP2 POP PUSH1 0xE0 SHL PUSH1 0x20 DUP3 ADD DUP1 MLOAD PUSH1 0x1 PUSH1 0x1 PUSH1 0xE0 SHL SUB DUP4 DUP2 DUP4 AND OR DUP4 MSTORE POP POP POP POP PUSH2 0x94E JUMP JUMPDEST PUSH1 0x40 MLOAD PUSH1 0x1 PUSH1 0x1 PUSH1 0xA0 SHL SUB DUP4 DUP2 AND PUSH1 0x24 DUP4 ADD MSTORE PUSH1 0x44 DUP3 ADD DUP4 SWAP1 MSTORE PUSH2 0x949 SWAP2 DUP6 SWAP2 DUP3 AND SWAP1 PUSH4 0xA9059CBB SWAP1 PUSH1 0x64 ADD PUSH2 0x8E6 JUMP JUMPDEST POP POP POP JUMP JUMPDEST PUSH0 PUSH2 0x962 PUSH1 0x1 PUSH1 0x1 PUSH1 0xA0 SHL SUB DUP5 AND DUP4 PUSH2 0x9AF JUMP JUMPDEST SWAP1 POP DUP1 MLOAD PUSH0 EQ ISZERO DUP1 ISZERO PUSH2 0x986 JUMPI POP DUP1 DUP1 PUSH1 0x20 ADD SWAP1 MLOAD DUP2 ADD SWAP1 PUSH2 0x984 SWAP2 SWAP1 PUSH2 0xE0B JUMP JUMPDEST ISZERO JUMPDEST ISZERO PUSH2 0x949 JUMPI PUSH1 0x40 MLOAD PUSH4 0x5274AFE7 PUSH1 0xE0 SHL DUP2 MSTORE PUSH1 0x1 PUSH1 0x1 PUSH1 0xA0 SHL SUB DUP5 AND PUSH1 0x4 DUP3 ADD MSTORE PUSH1 0x24 ADD PUSH2 0x597 JUMP JUMPDEST PUSH1 0x60 PUSH2 0x281 DUP4 DUP4 PUSH0 DUP5 PUSH0 DUP1 DUP6 PUSH1 0x1 PUSH1 0x1 PUSH1 0xA0 SHL SUB AND DUP5 DUP7 PUSH1 0x40 MLOAD PUSH2 0x9D3 SWAP2 SWAP1 PUSH2 0xB94 JUMP JUMPDEST PUSH0 PUSH1 0x40 MLOAD DUP1 DUP4 SUB DUP2 DUP6 DUP8 GAS CALL SWAP3 POP POP POP RETURNDATASIZE DUP1 PUSH0 DUP2 EQ PUSH2 0xA0D JUMPI PUSH1 0x40 MLOAD SWAP2 POP PUSH1 0x1F NOT PUSH1 0x3F RETURNDATASIZE ADD AND DUP3 ADD PUSH1 0x40 MSTORE RETURNDATASIZE DUP3 MSTORE RETURNDATASIZE PUSH0 PUSH1 0x20 DUP5 ADD RETURNDATACOPY PUSH2 0xA12 JUMP JUMPDEST PUSH1 0x60 SWAP2 POP JUMPDEST POP SWAP2 POP SWAP2 POP PUSH2 0xA22 DUP7 DUP4 DUP4 PUSH2 0xA2C JUMP JUMPDEST SWAP7 SWAP6 POP POP POP POP POP POP JUMP JUMPDEST PUSH1 0x60 DUP3 PUSH2 0xA41 JUMPI PUSH2 0xA3C DUP3 PUSH2 0xA88 JUMP JUMPDEST PUSH2 0x281 JUMP JUMPDEST DUP2 MLOAD ISZERO DUP1 ISZERO PUSH2 0xA58 JUMPI POP PUSH1 0x1 PUSH1 0x1 PUSH1 0xA0 SHL SUB DUP5 AND EXTCODESIZE ISZERO JUMPDEST ISZERO PUSH2 0xA81 JUMPI PUSH1 0x40 MLOAD PUSH4 0x9996B315 PUSH1 0xE0 SHL DUP2 MSTORE PUSH1 0x1 PUSH1 0x1 PUSH1 0xA0 SHL SUB DUP6 AND PUSH1 0x4 DUP3 ADD MSTORE PUSH1 0x24 ADD PUSH2 0x597 JUMP JUMPDEST POP DUP1 PUSH2 0x281 JUMP JUMPDEST DUP1 MLOAD ISZERO PUSH2 0xA98 JUMPI DUP1 MLOAD DUP1 DUP3 PUSH1 0x20 ADD REVERT JUMPDEST PUSH1 0x40 MLOAD PUSH4 0xA12F521 PUSH1 0xE1 SHL DUP2 MSTORE PUSH1 0x4 ADD PUSH1 0x40 MLOAD DUP1 SWAP2 SUB SWAP1 REVERT JUMPDEST POP JUMP JUMPDEST PUSH1 0x1 PUSH1 0x1 PUSH1 0xA0 SHL SUB DUP2 AND DUP2 EQ PUSH2 0xAB1 JUMPI PUSH0 DUP1 REVERT JUMPDEST PUSH0 DUP1 PUSH1 0x40 DUP4 DUP6 SUB SLT ISZERO PUSH2 0xAD9 JUMPI PUSH0 DUP1 REVERT JUMPDEST DUP3 CALLDATALOAD PUSH2 0xAE4 DUP2 PUSH2 0xAB4 JUMP JUMPDEST SWAP5 PUSH1 0x20 SWAP4 SWAP1 SWAP4 ADD CALLDATALOAD SWAP4 POP POP POP JUMP JUMPDEST PUSH0 PUSH1 0x20 DUP3 DUP5 SUB SLT ISZERO PUSH2 0xB02 JUMPI PUSH0 DUP1 REVERT JUMPDEST DUP2 MLOAD PUSH2 0x281 DUP2 PUSH2 0xAB4 JUMP JUMPDEST PUSH0 PUSH1 0x20 DUP3 DUP5 SUB SLT ISZERO PUSH2 0xB1D JUMPI PUSH0 DUP1 REVERT JUMPDEST POP MLOAD SWAP2 SWAP1 POP JUMP JUMPDEST PUSH4 0x4E487B71 PUSH1 0xE0 SHL PUSH0 MSTORE PUSH1 0x11 PUSH1 0x4 MSTORE PUSH1 0x24 PUSH0 REVERT JUMPDEST DUP2 DUP2 SUB DUP2 DUP2 GT ISZERO PUSH2 0x798 JUMPI PUSH2 0x798 PUSH2 0xB24 JUMP JUMPDEST PUSH4 0x4E487B71 PUSH1 0xE0 SHL PUSH0 MSTORE PUSH1 0x21 PUSH1 0x4 MSTORE PUSH1 0x24 PUSH0 REVERT JUMPDEST DUP1 DUP3 ADD DUP1 DUP3 GT ISZERO PUSH2 0x798 JUMPI PUSH2 0x798 PUSH2 0xB24 JUMP JUMPDEST PUSH0 JUMPDEST DUP4 DUP2 LT ISZERO PUSH2 0xB8C JUMPI DUP2 DUP2 ADD MLOAD DUP4 DUP3 ADD MSTORE PUSH1 0x20 ADD PUSH2 0xB74 JUMP JUMPDEST POP POP PUSH0 SWAP2 ADD MSTORE JUMP JUMPDEST PUSH0 DUP3 MLOAD PUSH2 0xBA5 DUP2 DUP5 PUSH1 0x20 DUP8 ADD PUSH2 0xB72 JUMP JUMPDEST SWAP2 SWAP1 SWAP2 ADD SWAP3 SWAP2 POP POP JUMP JUMPDEST PUSH0 PUSH1 0x20 DUP3 DUP5 SUB SLT ISZERO PUSH2 0xBBF JUMPI PUSH0 DUP1 REVERT JUMPDEST DUP2 MLOAD PUSH1 0xFF DUP2 AND DUP2 EQ PUSH2 0x281 JUMPI PUSH0 DUP1 REVERT JUMPDEST PUSH0 DUP2 MLOAD DUP1 DUP5 MSTORE PUSH2 0xBE6 DUP2 PUSH1 0x20 DUP7 ADD PUSH1 0x20 DUP7 ADD PUSH2 0xB72 JUMP JUMPDEST PUSH1 0x1F ADD PUSH1 0x1F NOT AND SWAP3 SWAP1 SWAP3 ADD PUSH1 0x20 ADD SWAP3 SWAP2 POP POP JUMP JUMPDEST PUSH1 0x1 DUP1 PUSH1 0xA0 SHL SUB DUP8 AND DUP2 MSTORE DUP6 PUSH1 0x20 DUP3 ADD MSTORE PUSH2 0xFFFF DUP6 AND PUSH1 0x40 DUP3 ADD MSTORE DUP4 PUSH1 0x60 DUP3 ADD MSTORE PUSH4 0xFFFFFFFF DUP4 AND PUSH1 0x80 DUP3 ADD MSTORE PUSH1 0xC0 PUSH1 0xA0 DUP3 ADD MSTORE PUSH0 PUSH2 0xC3C PUSH1 0xC0 DUP4 ADD DUP5 PUSH2 0xBCF JUMP JUMPDEST SWAP9 SWAP8 POP POP POP POP POP POP POP POP JUMP JUMPDEST PUSH0 PUSH1 0x20 DUP3 DUP5 SUB SLT ISZERO PUSH2 0xC58 JUMPI PUSH0 DUP1 REVERT JUMPDEST DUP2 MLOAD PUSH8 0xFFFFFFFFFFFFFFFF DUP2 AND DUP2 EQ PUSH2 0x281 JUMPI PUSH0 DUP1 REVERT JUMPDEST PUSH4 0xFFFFFFFF DUP5 AND DUP2 MSTORE PUSH1 0x60 PUSH1 0x20 DUP3 ADD MSTORE PUSH0 PUSH2 0xC8D PUSH1 0x60 DUP4 ADD DUP6 PUSH2 0xBCF JUMP JUMPDEST SWAP1 POP PUSH1 0xFF DUP4 AND PUSH1 0x40 DUP4 ADD MSTORE SWAP5 SWAP4 POP POP POP POP JUMP JUMPDEST PUSH2 0xFFFF DUP6 AND DUP2 MSTORE DUP4 PUSH1 0x20 DUP3 ADD MSTORE PUSH4 0xFFFFFFFF DUP4 AND PUSH1 0x40 DUP3 ADD MSTORE PUSH1 0x80 PUSH1 0x60 DUP3 ADD MSTORE PUSH0 PUSH2 0xA22 PUSH1 0x80 DUP4 ADD DUP5 PUSH2 0xBCF JUMP JUMPDEST PUSH1 0xFF DUP3 DUP2 AND DUP3 DUP3 AND SUB SWAP1 DUP2 GT ISZERO PUSH2 0x798 JUMPI PUSH2 0x798 PUSH2 0xB24 JUMP JUMPDEST PUSH1 0x1 DUP2 DUP2 JUMPDEST DUP1 DUP6 GT ISZERO PUSH2 0xD21 JUMPI DUP2 PUSH0 NOT DIV DUP3 GT ISZERO PUSH2 0xD07 JUMPI PUSH2 0xD07 PUSH2 0xB24 JUMP JUMPDEST DUP1 DUP6 AND ISZERO PUSH2 0xD14 JUMPI SWAP2 DUP2 MUL SWAP2 JUMPDEST SWAP4 DUP5 SHR SWAP4 SWAP1 DUP1 MUL SWAP1 PUSH2 0xCEC JUMP JUMPDEST POP SWAP3 POP SWAP3 SWAP1 POP JUMP JUMPDEST PUSH0 DUP3 PUSH2 0xD37 JUMPI POP PUSH1 0x1 PUSH2 0x798 JUMP JUMPDEST DUP2 PUSH2 0xD43 JUMPI POP PUSH0 PUSH2 0x798 JUMP JUMPDEST DUP2 PUSH1 0x1 DUP2 EQ PUSH2 0xD59 JUMPI PUSH1 0x2 DUP2 EQ PUSH2 0xD63 JUMPI PUSH2 0xD7F JUMP JUMPDEST PUSH1 0x1 SWAP2 POP POP PUSH2 0x798 JUMP JUMPDEST PUSH1 0xFF DUP5 GT ISZERO PUSH2 0xD74 JUMPI PUSH2 0xD74 PUSH2 0xB24 JUMP JUMPDEST POP POP PUSH1 0x1 DUP3 SHL PUSH2 0x798 JUMP JUMPDEST POP PUSH1 0x20 DUP4 LT PUSH2 0x133 DUP4 LT AND PUSH1 0x4E DUP5 LT PUSH1 0xB DUP5 LT AND OR ISZERO PUSH2 0xDA2 JUMPI POP DUP2 DUP2 EXP PUSH2 0x798 JUMP JUMPDEST PUSH2 0xDAC DUP4 DUP4 PUSH2 0xCE7 JUMP JUMPDEST DUP1 PUSH0 NOT DIV DUP3 GT ISZERO PUSH2 0xDBF JUMPI PUSH2 0xDBF PUSH2 0xB24 JUMP JUMPDEST MUL SWAP4 SWAP3 POP POP POP JUMP JUMPDEST PUSH0 PUSH2 0x281 PUSH1 0xFF DUP5 AND DUP4 PUSH2 0xD29 JUMP JUMPDEST PUSH0 DUP3 PUSH2 0xDEF JUMPI PUSH4 0x4E487B71 PUSH1 0xE0 SHL PUSH0 MSTORE PUSH1 0x12 PUSH1 0x4 MSTORE PUSH1 0x24 PUSH0 REVERT JUMPDEST POP DIV SWAP1 JUMP JUMPDEST DUP1 DUP3 MUL DUP2 ISZERO DUP3 DUP3 DIV DUP5 EQ OR PUSH2 0x798 JUMPI PUSH2 0x798 PUSH2 0xB24 JUMP JUMPDEST PUSH0 PUSH1 0x20 DUP3 DUP5 SUB SLT ISZERO PUSH2 0xE1B JUMPI PUSH0 DUP1 REVERT JUMPDEST DUP2 MLOAD DUP1 ISZERO ISZERO DUP2 EQ PUSH2 0x281 JUMPI PUSH0 DUP1 REVERT INVALID LOG2 PUSH5 0x6970667358 0x22 SLT KECCAK256 0xBD 0xCE 0xDF SWAP6 AND PUSH17 0x10AE6AD5E97D6D3CF80C6054CDC5AA9B6A 0xDD PUSH11 0xF0E653F5DAB7AA64736F6C PUSH4 0x43000817 STOP CALLER "
		},
		"gasEstimates": {
			"creation": {
				"codeDepositCost": "736000",
				"executionCost": "infinite",
				"totalCost": "infinite"
			},
			"external": {
				"borrow(address,uint256)": "infinite",
				"chainId()": "2287",
				"depositCollateral(address,uint256)": "infinite",
				"depositCollateralNative()": "infinite",
				"repay(address,uint256)": "infinite",
				"repayNative()": "infinite",
				"tokenBridge()": "2344",
				"tokenBridgeAddress()": "2366",
				"withdrawCollateral(address,uint256)": "infinite"
			},
			"internal": {
				"doAction(enum HubSpokeStructs.Action,address,uint256)": "infinite"
			}
		},
		"methodIdentifiers": {
			"borrow(address,uint256)": "4b8a3529",
			"chainId()": "9a8a0592",
			"depositCollateral(address,uint256)": "a5d5db0c",
			"depositCollateralNative()": "00470257",
			"repay(address,uint256)": "22867d78",
			"repayNative()": "edba8209",
			"tokenBridge()": "c6328a46",
			"tokenBridgeAddress()": "e1884919",
			"withdrawCollateral(address,uint256)": "350c35e9"
		}
	},
	"abi": [
		{
			"inputs": [
				{
					"internalType": "uint16",
					"name": "chainId",
					"type": "uint16"
				},
				{
					"internalType": "address",
					"name": "wormhole",
					"type": "address"
				},
				{
					"internalType": "address",
					"name": "tokenBridge",
					"type": "address"
				},
				{
					"internalType": "uint16",
					"name": "hubChainId",
					"type": "uint16"
				},
				{
					"internalType": "address",
					"name": "hubContractAddress",
					"type": "address"
				}
			],
			"stateMutability": "nonpayable",
			"type": "constructor"
		},
		{
			"inputs": [
				{
					"internalType": "address",
					"name": "target",
					"type": "address"
				}
			],
			"name": "AddressEmptyCode",
			"type": "error"
		},
		{
			"inputs": [
				{
					"internalType": "address",
					"name": "account",
					"type": "address"
				}
			],
			"name": "AddressInsufficientBalance",
			"type": "error"
		},
		{
			"inputs": [],
			"name": "FailedInnerCall",
			"type": "error"
		},
		{
			"inputs": [
				{
					"internalType": "address",
					"name": "token",
					"type": "address"
				}
			],
			"name": "SafeERC20FailedOperation",
			"type": "error"
		},
		{
			"inputs": [
				{
					"internalType": "address",
					"name": "assetAddress",
					"type": "address"
				},
				{
					"internalType": "uint256",
					"name": "assetAmount",
					"type": "uint256"
				}
			],
			"name": "borrow",
			"outputs": [
				{
					"internalType": "uint64",
					"name": "sequence",
					"type": "uint64"
				}
			],
			"stateMutability": "nonpayable",
			"type": "function"
		},
		{
			"inputs": [],
			"name": "chainId",
			"outputs": [
				{
					"internalType": "uint16",
					"name": "",
					"type": "uint16"
				}
			],
			"stateMutability": "view",
			"type": "function"
		},
		{
			"inputs": [
				{
					"internalType": "address",
					"name": "assetAddress",
					"type": "address"
				},
				{
					"internalType": "uint256",
					"name": "assetAmount",
					"type": "uint256"
				}
			],
			"name": "depositCollateral",
			"outputs": [
				{
					"internalType": "uint64",
					"name": "sequence",
					"type": "uint64"
				}
			],
			"stateMutability": "nonpayable",
			"type": "function"
		},
		{
			"inputs": [],
			"name": "depositCollateralNative",
			"outputs": [
				{
					"internalType": "uint64",
					"name": "sequence",
					"type": "uint64"
				}
			],
			"stateMutability": "payable",
			"type": "function"
		},
		{
			"inputs": [
				{
					"internalType": "address",
					"name": "assetAddress",
					"type": "address"
				},
				{
					"internalType": "uint256",
					"name": "assetAmount",
					"type": "uint256"
				}
			],
			"name": "repay",
			"outputs": [
				{
					"internalType": "uint64",
					"name": "sequence",
					"type": "uint64"
				}
			],
			"stateMutability": "nonpayable",
			"type": "function"
		},
		{
			"inputs": [],
			"name": "repayNative",
			"outputs": [
				{
					"internalType": "uint64",
					"name": "sequence",
					"type": "uint64"
				}
			],
			"stateMutability": "payable",
			"type": "function"
		},
		{
			"inputs": [],
			"name": "tokenBridge",
			"outputs": [
				{
					"internalType": "contract ITokenBridge",
					"name": "",
					"type": "address"
				}
			],
			"stateMutability": "view",
			"type": "function"
		},
		{
			"inputs": [],
			"name": "tokenBridgeAddress",
			"outputs": [
				{
					"internalType": "address",
					"name": "",
					"type": "address"
				}
			],
			"stateMutability": "view",
			"type": "function"
		},
		{
			"inputs": [
				{
					"internalType": "address",
					"name": "assetAddress",
					"type": "address"
				},
				{
					"internalType": "uint256",
					"name": "assetAmount",
					"type": "uint256"
				}
			],
			"name": "withdrawCollateral",
			"outputs": [
				{
					"internalType": "uint64",
					"name": "sequence",
					"type": "uint64"
				}
			],
			"stateMutability": "nonpayable",
			"type": "function"
		}
	]
}