{
	"data": {
		"bytecode": {
			"linkReferences": {},
			"object": "608060405234801562000010575f80fd5b506040516200015b3803806200015b833981016040819052620000339162000099565b604051631e4fbdf760e01b81525f600482018190529060240160405180910390fd5b80516001600160a01b03811681146200006c575f80fd5b919050565b805160ff811681146200006c575f80fd5b80516001600160401b03811681146200006c575f80fd5b5f805f805f805f805f805f806101808d8f031215620000b6575f80fd5b620000c18d62000055565b9b50620000d160208e0162000055565b9a50620000e160408e0162000071565b9950620000f160608e0162000055565b98506200010160808e0162000071565b97506200011160a08e0162000082565b96506200012160c08e0162000082565b955060e08d015194506101008d015193506101208d015192506101408d015191506101608d015190509295989b509295989b509295989b56fe",
			"opcodes": "PUSH1 0x80 PUSH1 0x40 MSTORE CALLVALUE DUP1 ISZERO PUSH3 0x10 JUMPI PUSH0 DUP1 REVERT JUMPDEST POP PUSH1 0x40 MLOAD PUSH3 0x15B CODESIZE SUB DUP1 PUSH3 0x15B DUP4 CODECOPY DUP2 ADD PUSH1 0x40 DUP2 SWAP1 MSTORE PUSH3 0x33 SWAP2 PUSH3 0x99 JUMP JUMPDEST PUSH1 0x40 MLOAD PUSH4 0x1E4FBDF7 PUSH1 0xE0 SHL DUP2 MSTORE PUSH0 PUSH1 0x4 DUP3 ADD DUP2 SWAP1 MSTORE SWAP1 PUSH1 0x24 ADD PUSH1 0x40 MLOAD DUP1 SWAP2 SUB SWAP1 REVERT JUMPDEST DUP1 MLOAD PUSH1 0x1 PUSH1 0x1 PUSH1 0xA0 SHL SUB DUP2 AND DUP2 EQ PUSH3 0x6C JUMPI PUSH0 DUP1 REVERT JUMPDEST SWAP2 SWAP1 POP JUMP JUMPDEST DUP1 MLOAD PUSH1 0xFF DUP2 AND DUP2 EQ PUSH3 0x6C JUMPI PUSH0 DUP1 REVERT JUMPDEST DUP1 MLOAD PUSH1 0x1 PUSH1 0x1 PUSH1 0x40 SHL SUB DUP2 AND DUP2 EQ PUSH3 0x6C JUMPI PUSH0 DUP1 REVERT JUMPDEST PUSH0 DUP1 PUSH0 DUP1 PUSH0 DUP1 PUSH0 DUP1 PUSH0 DUP1 PUSH0 DUP1 PUSH2 0x180 DUP14 DUP16 SUB SLT ISZERO PUSH3 0xB6 JUMPI PUSH0 DUP1 REVERT JUMPDEST PUSH3 0xC1 DUP14 PUSH3 0x55 JUMP JUMPDEST SWAP12 POP PUSH3 0xD1 PUSH1 0x20 DUP15 ADD PUSH3 0x55 JUMP JUMPDEST SWAP11 POP PUSH3 0xE1 PUSH1 0x40 DUP15 ADD PUSH3 0x71 JUMP JUMPDEST SWAP10 POP PUSH3 0xF1 PUSH1 0x60 DUP15 ADD PUSH3 0x55 JUMP JUMPDEST SWAP9 POP PUSH3 0x101 PUSH1 0x80 DUP15 ADD PUSH3 0x71 JUMP JUMPDEST SWAP8 POP PUSH3 0x111 PUSH1 0xA0 DUP15 ADD PUSH3 0x82 JUMP JUMPDEST SWAP7 POP PUSH3 0x121 PUSH1 0xC0 DUP15 ADD PUSH3 0x82 JUMP JUMPDEST SWAP6 POP PUSH1 0xE0 DUP14 ADD MLOAD SWAP5 POP PUSH2 0x100 DUP14 ADD MLOAD SWAP4 POP PUSH2 0x120 DUP14 ADD MLOAD SWAP3 POP PUSH2 0x140 DUP14 ADD MLOAD SWAP2 POP PUSH2 0x160 DUP14 ADD MLOAD SWAP1 POP SWAP3 SWAP6 SWAP9 SWAP12 POP SWAP3 SWAP6 SWAP9 SWAP12 POP SWAP3 SWAP6 SWAP9 SWAP12 JUMP INVALID "
		},
		"deployedBytecode": {
			"immutableReferences": {},
			"linkReferences": {},
			"object": "608060405234801561000f575f80fd5b506004361061011c575f3560e01c80638e7eb00a116100a9578063d0a6998a1161006e578063d0a6998a1461015b578063d3cc2e481461024a578063e80a03f31461025d578063eaf4a0ae1461016e578063f2fde38b14610270575f80fd5b80638e7eb00a146101e9578063a1424f26146101fc578063afad2e1614610204578063be761a0514610224578063c52ddc0e14610237575f80fd5b80636805d6ad116100ef5780636805d6ad146101815780636c7d83cf146101a15780636cc0b5fe146101b4578063715018a6146101c75780638da5cb5b146101cf575f80fd5b806302678ade146101205780630942e292146101465780631d92aa841461015b57806323909f0a1461016e575b5f80fd5b61013361012e36600461328b565b610283565b6040519081526020015b60405180910390f35b61015961015436600461345f565b6102a4565b005b61015961016936600461353a565b610400565b61015961017c36600461353a565b61040f565b61019461018f3660046135ae565b61041a565b60405161013d91906135df565b6101946101af3660046135f6565b610488565b6101596101c236600461363f565b6104f2565b610159610573565b5f546040516001600160a01b03909116815260200161013d565b6101596101f73660046136b8565b610586565b601154610133565b6102176102123660046135f6565b6107a0565b60405161013d91906137a1565b61013361023236600461328b565b6108ed565b61015961024536600461385e565b61090b565b61015961025836600461387a565b610946565b61019461026b3660046135f6565b610ab7565b61015961027e3660046135f6565b610afc565b5f61029a6102918486613916565b60115484610b39565b90505b9392505050565b6102b084848484610b95565b6102bd8585858585610cae565b5f5b845181101561030f576103076003878784815181106102e0576102e061392d565b60200260200101518785815181106102fa576102fa61392d565b602002602001015161110b565b6001016102bf565b505f5b82518110156103555761034d6002878584815181106103335761033361392d565b60200260200101518585815181106102fa576102fa61392d565b600101610312565b505f5b84518110156103a75761039f8582815181106103765761037661392d565b602002602001015133308785815181106103925761039261392d565b60200260200101516112ec565b600101610358565b505f5b82518110156103f8576103f08382815181106103c8576103c861392d565b6020026020010151338484815181106103e3576103e361392d565b6020026020010151611353565b6001016103aa565b505050505050565b61040a815f611384565b505050565b61040a816001611384565b604080518082019091525f80825260208201525f61043884846114f0565b90505f6104448461153d565b90506040518060400160405280610463845f0151845f01516001610283565b815260200161047b846020015184602001515f610283565b9052925050505b92915050565b604080518082019091525f80825260208201525f6104a583611676565b90505f6104b18461153d565b905060405180604001604052806104d0845f0151845f01516001610283565b81526020016104e8846020015184602001515f610283565b9052949350505050565b6104fa6116bb565b5f918252604660209081526040928390208251815492840151948401516001600160401b039182166fffffffffffffffffffffffffffffffff1990941693909317600160401b91909516029390931763ffffffff60801b1916600160801b63ffffffff9092169190910217825560600151600190910155565b61057b6116bb565b6105845f6116e7565b565b61058e6116bb565b5f6105988a6107a0565b90508060a00151156105f15760405162461bcd60e51b815260206004820152601860248201527f417373657420616c72656164792072656769737465726564000000000000000060448201526064015b60405180910390fd5b600680546001810182555f919091527ff652222313e28459528d920b65115c16c04f3efc82aaedc97be59f3f377c0d3f0180546001600160a01b0319166001600160a01b038c161790556040805160a0810182526001600160401b03891681526020808201899052818301889052606082018790526080820186905282516004815260248101845290810180516001600160e01b031663313ce56760e01b179052915190915f916001600160a01b038e16916106ac91613963565b5f60405180830381855afa9150503d805f81146106e4576040519150601f19603f3d011682016040523d82523d5f602084013e6106e9565b606091505b509150505f81806020019051810190610702919061398e565b905060128160ff161115610714575060125b620f42408a6001600160401b0316111561072c575f80fd5b620f424086111561073b575f80fd5b6040805160c0810182528d8152602081018d905290810186905260ff8216606082015260808101849052600160a08201526107768e82611736565b6001600160a01b038e165f908152600f602052604090204290555050505050505050505050505050565b6107a86131c1565b6001600160a01b0382165f908152600a6020908152604091829020825160c08101845281548152600182015481840152600282015481850152600382015460ff166060820152835160a0810185526004830180546001600160401b03168252600584018054875181880281018801909852808852939694956080880195939492938582019390929183018282801561085d57602002820191905f5260205f20905b815481526020019060010190808311610849575b50505050508152602001600282018054806020026020016040519081016040528092919081815260200182805480156108b357602002820191905f5260205f20905b81548152602001906001019080831161089f575b505050918352505060038201546020808301919091526004909201546040909101529082526009929092015460ff16151591015292915050565b5f61029a6108fa60115490565b6109049086613916565b8484610b39565b6109136116bb565b61ffff82165f90815260096020526040902080546001600160a01b0319166001600160a01b0383161790555050565b5050565b61094e6116bb565b6004805460405163366e070f60e21b8152918201899052600788810b60248401526001600160401b038089166044850152600388900b60648501529086900b608484015280851660a4840152831660c4830181905260e48301525f916001600160a01b039091169063d9b81c3c90610104015f60405180830381865afa1580156109da573d5f803e3d5ffd5b505050506040513d5f823e601f3d908101601f19168201604052610a0191908101906139e9565b6040805160018082528183019092529192505f9190816020015b6060815260200190600190039081610a1b57905050905081815f81518110610a4557610a4561392d565b602090810291909101015260048054604051631df3cbc560e31b81526001600160a01b039091169163ef9e5e2891610a7f91859101613a45565b5f604051808303815f87803b158015610a96575f80fd5b505af1158015610aa8573d5f803e3d5ffd5b50505050505050505050505050565b604080518082019091525f8082526020820152506001600160a01b03165f908152600d6020908152604091829020825180840190935280548352600101549082015290565b610b046116bb565b6001600160a01b038116610b2d57604051631e4fbdf760e01b81525f60048201526024016105e8565b610b36816116e7565b50565b5f80610b458486613abb565b90505f610b528587613ace565b9050811580610b7257506001846001811115610b7057610b70613ae1565b145b15610b8057915061029d9050565b610b8b816001613af5565b9695505050505050565b5f5b8451811015610bca57610bc2858281518110610bb557610bb561392d565b6020026020010151611b85565b600101610b97565b505f5b8251811015610bf357610beb838281518110610bb557610bb561392d565b600101610bcd565b50610bfd84611bd7565b610c0682611bd7565b8251845114610c575760405162461bcd60e51b815260206004820181905260248201527f5265706179206172726179206c656e6774687320646f206e6f74206d6174636860448201526064016105e8565b8051825114610ca85760405162461bcd60e51b815260206004820181905260248201527f5265706179206172726179206c656e6774687320646f206e6f74206d6174636860448201526064016105e8565b50505050565b5f80610cbb876001611c9e565b91509150808210610d055760405162461bcd60e51b81526020600482015260146024820152733b30bab63a103737ba103ab73232b93bb0ba32b960611b60448201526064016105e8565b5f610d10885f611c9e565b9150505f805f5b8951811015610e74575f8a8281518110610d3357610d3361392d565b602002602001015190505f610d4782610ab7565b90505f610d53836107a0565b90505f610d7f8d8681518110610d6b57610d6b61392d565b6020026020010151846020015160016108ed565b9050610da58f858f8881518110610d9857610d9861392d565b6020026020010151611e29565b610e025760405162461bcd60e51b815260206004820152602860248201527f63616e6e6f74207265706179206d6f7265207468616e20686173206265656e20604482015267189bdc9c9bddd95960c21b60648201526084016105e8565b606082015160135460ff16610e179190613b08565b610e2290600a613c01565b610e2b85611e90565b6001600160401b0316846020015183610e449190613916565b610e4e9190613916565b610e589190613916565b610e629088613af5565b96505060019093019250610d17915050565b505f5b8751811015610f65575f888281518110610e9357610e9361392d565b602002602001015190505f610ea782610ab7565b90505f610eb3836107a0565b90505f610edd8b8681518110610ecb57610ecb61392d565b6020026020010151845f01515f6108ed565b9050610eea8f8583611ebc565b610ef48482611f35565b606082015160135460ff16610f099190613b08565b610f1490600a613c01565b610f1d85611e90565b6001600160401b0316845f015183610f359190613916565b610f3f9190613916565b610f499190613916565b610f539087613af5565b95505060019093019250610e77915050565b5081811015610fce5760405162461bcd60e51b815260206004820152602f60248201527f4c697175696461746f722072656365697074206c657373207468616e20616d6f60448201526e1d5b9d081d1a195e481c995c185a59608a1b60648201526084016105e8565b60485483610fdb60475490565b610fe59190613916565b610fef9190613ace565b8211156110835760405162461bcd60e51b815260206004820152605660248201527f4c697175696461746f722063616e6e6f7420636c61696d206d6f72652074686160448201527f6e206d61784c69717569646174696f6e506f7274696f6e206f662074686520746064820152751bdd185b081919589d081bd9881d1a19481d985d5b1d60521b608482015260a4016105e8565b6012548261109060085490565b61109a9190613916565b6110a49190613ace565b8111156110ff5760405162461bcd60e51b815260206004820152602360248201527f4c697175696461746f7220726563656976696e6720746f6f206d7563682076616044820152626c756560e81b60648201526084016105e8565b50505050505050505050565b5f61111684846114f0565b90505f61112284611676565b90505f61112e85610ab7565b90505f87600581111561114357611143613ae1565b03611189575f61115885835f015160016108ed565b905080845f0181815161116b9190613af5565b90525082518190849061117f908390613af5565b9052506112999050565b600287600581111561119d5761119d613ae1565b036111d8575f6111b185835f01515f6108ed565b905080845f018181516111c49190613c0f565b90525082518190849061117f908390613c0f565b60018760058111156111ec576111ec613ae1565b0361122c575f6112018583602001515f6108ed565b905080846020018181516112159190613af5565b90525060208301805182919061117f908390613af5565b600387600581111561124057611240613ae1565b03611299575f61125685836020015160016108ed565b9050836020015181111561126b575060208301515b808460200181815161127d9190613c0f565b905250602083018051829190611294908390613c0f565b905250505b506001600160a01b039485165f908152600b602090815260408083209690971682529485528581208351815592850151600193840155600c85529490942084518155939092015192909101919091555050565b6040516001600160a01b038481166024830152838116604483015260648201839052610ca89186918216906323b872dd906084015b604051602081830303815290604052915060e01b6020820180516001600160e01b038381831617835250505050611fb5565b6040516001600160a01b0383811660248301526044820183905261040a91859182169063a9059cbb90606401611321565b5f8060605f61139286612016565b905084156113b2576113ab6113a6876121ac565b6122cf565b91506113ce565b6113c6816060015182608001515f1c612301565b8060e0015191505b5f6113d883612373565b80516040820151919250906113ec90611b85565b600195505f6113fe8360400151612449565b600282600581111561141257611412613ae1565b036114365761142e83602001518460400151856060015161249c565b5060016114a1565b600182600581111561144a5761144a613ae1565b036114665761142e8360200151846040015185606001516125cb565b600382600581111561147a5761147a613ae1565b036114a157611496836020015184604001518560600151611e29565b9650866114a1575060015b86156114bf576114bf8284602001518560400151866060015161110b565b80156114e4576114e183602001518460400151856060015187606001516126f4565b95505b50505050509250929050565b6040805180820182525f80825260209182018190526001600160a01b039485168152600b825282812093909416845291825291829020825180840190935280548352600101549082015290565b6040805180820182525f80825260208083018290526001600160a01b0385168252600f90529182205490916115728242613c0f565b90505f611593856001600160a01b03165f908152600c602052604090205490565b90505f61159f86610ab7565b905082158015906115af57508115155b1561166d576001600160a01b0386165f908152600c6020526040812060010154906115d988612797565b90505f6115e8868685856127e4565b90505f6115f48a6107a0565b608080820151606081015191015160208801805193945091929091859161161c908390613af5565b90525087818761162c8583613c0f565b6116369088613916565b6116409190613916565b61164a9190613ace565b6116549190613ace565b87518890611663908390613af5565b9052505050505050505b95945050505050565b604080518082019091525f8082526020820152506001600160a01b03165f908152600c6020908152604091829020825180840190935280548352600101549082015290565b5f546001600160a01b031633146105845760405163118cdaa760e01b81523360048201526024016105e8565b5f80546001600160a01b038381166001600160a01b0319831681178455604051919092169283917f8be0079c531659141344cd1fd0a4f28419497f9722a3daafe3b4186f6b6457e09190a35050565b60808101516020810151604090910151815181518082146117af5760405162461bcd60e51b815260206004820152602d60248201527f6c656e67746873206f66206b696e6b7320616e6420726174657320617272617960448201526c0e640c8dedc4ee840dac2e8c6d609b1b60648201526084016105e8565b835f815181106117c1576117c161392d565b60200260200101515f146118175760405162461bcd60e51b815260206004820152601760248201527f6669727374206b696e6b206d757374206265206174203000000000000000000060448201526064016105e8565b60015b828110156118c4578461182e600183613c0f565b8151811061183e5761183e61392d565b60200260200101518582815181106118585761185861392d565b6020026020010151116118bc5760405162461bcd60e51b815260206004820152602660248201527f6b696e6b73206d757374206265206d6f6e6f746f6e6963616c6c7920696e6372604482015265656173696e6760d01b60648201526084016105e8565b60010161181a565b506080850151516001600160401b0316846118e0600185613c0f565b815181106118f0576118f061392d565b6020026020010151146119565760405162461bcd60e51b815260206004820152602860248201527f6c617374206b696e6b206d75737420626520312028692e652e2072617465507260448201526765636973696f6e2960c01b60648201526084016105e8565b60015b81811015611a08578361196d600183613c0f565b8151811061197d5761197d61392d565b60200260200101518482815181106119975761199761392d565b60200260200101511015611a005760405162461bcd60e51b815260206004820152602a60248201527f7261746573206d757374206265206d6f6e6f746f6e6963616c6c79206e6f6e2d60448201526964656372656173696e6760b01b60648201526084016105e8565b600101611959565b506001600160a01b0386165f908152600a602090815260409182902087518155878201516001820155918701516002830155606087015160038301805460ff191660ff9092169190911790556080870151805160048401805467ffffffffffffffff19166001600160401b039092169190911781558183015180518a9594611a9792600587019291019061322e565b5060408201518051611ab391600284019160209091019061322e565b506060820151600382015560809091015160049091015560a091909101516009909101805460ff1916911515919091179055604080518082019091525f8082526020820152601154611b06906001613916565b8152601154611b16906001613916565b60208281019182526001600160a01b0389165f908152600d909152604090208251815590516001909101555f611b4e60135460ff1690565b90508060ff16876060015160ff161115611b7b5760608701516013805460ff191660ff9092169190911790555b5050505050505050565b5f611b8f826107a0565b90508060a001516109425760405162461bcd60e51b8152602060048201526012602482015271155b9c9959da5cdd195c995908185cdcd95d60721b60448201526064016105e8565b5f5b8151811015610942575f5b81811015611c9557828181518110611bfe57611bfe61392d565b60200260200101516001600160a01b0316838381518110611c2157611c2161392d565b60200260200101516001600160a01b031603611c8d5760405162461bcd60e51b815260206004820152602560248201527f4164647265737320617272617920686173206475706c69636174652061646472604482015264657373657360d81b60648201526084016105e8565b600101611be4565b50600101611bd9565b5f805f805f611cab612a37565b90505f5b8151811015611e1c575f828281518110611ccb57611ccb61392d565b602002602001015190505f611cdf826107a0565b90505f611ceb83610ab7565b90505f805f611cfa8e876114f0565b84518151919250611d0a91613916565b925083602001518160200151611d209190613916565b9150505f8c611d30576001611d33565b84515b90505f8d611d42576001611d48565b85602001515b90505f80611d5589612a9a565b915091505f611d6660135460ff1690565b905084896060015182611d799190613b08565b611d8490600a613c01565b611d976001600160401b0386168a613916565b611da19190613916565b611dab9190613916565b611db5908f613af5565b9d5083896060015182611dc89190613b08565b611dd390600a613c01565b611de66001600160401b03851689613916565b611df09190613916565b611dfa9190613916565b611e04908e613af5565b9c505060019099019850611caf975050505050505050565b5091969095509350505050565b5f80611e3585856114f0565b90505f611e4185610ab7565b90505f611e4d866107a0565b6060015190505f611e67846020015184602001515f610283565b90505f611e7687846001612b55565b611e8183855f612b55565b10159998505050505050505050565b5f80611e9b83612bd4565b50604954909150600160401b90046001600160401b031661029d9082613c22565b5f611ec784846114f0565b9050818160200151611ed99190613af5565b81511015610ca85760405162461bcd60e51b815260206004820152602360248201527f5661756c7420646f6573206e6f7420686176652072657175697265642061737360448201526265747360e81b60648201526084016105e8565b5f611f3f83611676565b9050818160200151611f519190613af5565b8151101561040a5760405162461bcd60e51b815260206004820152602b60248201527f476c6f62616c20737570706c7920646f6573206e6f742068617665207265717560448201526a697265642061737365747360a81b60648201526084016105e8565b5f611fc96001600160a01b03841683612d30565b905080515f14158015611fed575080806020019051810190611feb9190613c5c565b155b1561040a57604051635274afe760e01b81526001600160a01b03841660048201526024016105e8565b60408051610160810182525f8082526020820181905291810182905260608082018390526080820183905260a0820183905260c0820183905260e0820181905261010082018390526101208201526101408101919091525f805f6120896001546001600160a01b03620100009091041690565b6001600160a01b031663c0fd8bde866040518263ffffffff1660e01b81526004016120b49190613c75565b5f60405180830381865afa1580156120ce573d5f803e3d5ffd5b505050506040513d5f823e601f3d908101601f191682016040526120f59190810190613d4c565b92509250925081819061211b5760405162461bcd60e51b81526004016105e89190613c75565b506101408301515f908152600e602052604090205460ff16156121805760405162461bcd60e51b815260206004820152601860248201527f6d65737361676520616c726561647920636f6e73756d6564000000000000000060448201526064016105e8565b6121a38361014001515f908152600e60205260409020805460ff19166001179055565b50909392505050565b60605f6121c86001546001600160a01b03620100009091041690565b6001600160a01b031663c0fd8bde846040518263ffffffff1660e01b81526004016121f39190613c75565b5f60405180830381865afa15801561220d573d5f803e3d5ffd5b505050506040513d5f823e601f3d908101601f191682016040526122349190810190613d4c565b5050905061225d816060015161225860658460e00151612d3d90919063ffffffff16565b612301565b60025460405163c3f511c160e01b81526001600160a01b039091169063c3f511c19061228d908690600401613c75565b5f604051808303815f875af11580156122a8573d5f803e3d5ffd5b505050506040513d5f823e601f3d908101601f1916820160405261029d91908101906139e9565b80516060905f906122e1608583613af5565b91506122f9826122f18184613c0f565b869190612d9a565b949350505050565b806001600160a01b031661232d8361ffff165f908152600960205260409020546001600160a01b031690565b6001600160a01b0316146109425760405162461bcd60e51b815260206004820152600d60248201526c496e76616c69642073706f6b6560981b60448201526064016105e8565b604080516080810182525f8082526020820181905291810182905260608101829052906123a08382612ea6565b60ff1660058111156123b4576123b4613ae1565b829060058111156123c7576123c7613ae1565b908160058111156123da576123da613ae1565b9052506123e8600182613af5565b90506123f48382612f01565b6001600160a01b0316602083015261240d601482613af5565b90506124198382612f01565b6001600160a01b03166040830152612432601482613af5565b905061243e8382612f65565b606083015250919050565b612481816124568361153d565b6001600160a01b039091165f908152600d602090815260409091208251815591015160019190910155565b6001600160a01b03165f908152600f60205260409020429055565b5f6124a6836107a0565b90505f6124b284610ab7565b90505f6124c384835f01515f6108ed565b90505f806124d2886001611c9e565b915091506124e1888885611ebc565b6124eb8784611f35565b8451606086015160135460ff166125029190613b08565b61250d90600a613c01565b61251689612fb9565b6001600160401b0316865f01518661252e9190613916565b6125389190613916565b6125429190613916565b61254c9190613916565b6125569082613af5565b821015611b7b5760405162461bcd60e51b815260206004820152603a60248201527f5661756c7420697320756e646572636f6c6c61746572616c697a65642069662060448201527f7468697320776974686472617720676f6573207468726f75676800000000000060648201526084016105e8565b5f6125d5836107a0565b90505f6125e184610ab7565b90505f6125f38483602001515f6108ed565b90505f80612602886001611c9e565b915091506126108784611f35565b606085015160135460ff166126259190613b08565b61263090600a613c01565b856020015161263e89612fcc565b6001600160401b03168660200151866126579190613916565b6126619190613916565b61266b9190613916565b6126759190613916565b61267f9082613af5565b821015611b7b5760405162461bcd60e51b815260206004820152603860248201527f5661756c7420697320756e646572636f6c6c61746572616c697a65642069662060448201527f7468697320626f72726f7720676f6573207468726f756768000000000000000060648201526084016105e8565b5f6127076002546001600160a01b031690565b60405162f5287b60e41b81526001600160a01b0386811660048301526024820186905261ffff8516604483015287811660648301525f6084830181905260a48301529190911690630f5287b09060c4016020604051808303815f875af1158015612773573d5f803e3d5ffd5b505050506040513d601f19601f8201168201806040525081019061166d9190613e9b565b6127cf6040518060a001604052805f6001600160401b0316815260200160608152602001606081526020015f81526020015f81525090565b5f6127d9836107a0565b608001519392505050565b5f835f036127f357505f6122f9565b602082015160408301515f805b8382815181106128125761281261392d565b6020026020010151886128259190613916565b865161283a906001600160401b031689613916565b11156128a7578282815181106128525761285261392d565b602002602001015190506001826128699190613af5565b9150825182036128a2578261287f600184613c0f565b8151811061288f5761288f61392d565b60200260200101519450505050506122f9565b612800565b815f036128cf57825f815181106128c0576128c061392d565b602002602001015190506129c4565b836128db600184613c0f565b815181106128eb576128eb61392d565b60200260200101518483815181106129055761290561392d565b60200260200101516129179190613c0f565b888086612925600187613c0f565b815181106129355761293561392d565b60200260200101516129479190613916565b612951908a613c0f565b61295b9190613ace565b84612967600186613c0f565b815181106129775761297761392d565b60200260200101518585815181106129915761299161392d565b60200260200101516129a39190613c0f565b6129ad9190613916565b6129b79190613ace565b6129c19082613af5565b90505b603c80601861016d895f01516001600160401b0316858e6129e460115490565b6129ee9190613916565b6129f89190613916565b612a029190613ace565b612a0c9190613ace565b612a169190613ace565b612a209190613ace565b612a2a9190613ace565b9998505050505050505050565b60606001600501805480602002602001604051908101604052809291908181526020018280548015612a9057602002820191905f5260205f20905b81546001600160a01b03168152600190910190602001808311612a72575b5050505050905090565b5f805f80612aa785612bd4565b915091505f612abe6049546001600160401b031690565b90505f612adb6049546001600160401b03600160401b9091041690565b5f96509050612aea8284613c22565b6001600160401b0316612afd8286613c22565b6001600160401b031610612b2c57612b158284613c22565b612b1f8286613c22565b612b299190613eb6565b95505b612b368284613c22565b612b408286613c22565b612b4a9190613edd565b945050505050915091565b5f83600860ff85161115612b8657612b6e600885613b08565b612b7990600a613c01565b612b839082613ace565b90505b612b91600885613b08565b612b9c90600a613c01565b612ba69086613abb565b15801590612bc457505f836001811115612bc257612bc2613ae1565b145b1561029a5761166d600182613af5565b5f805f612be0846107a0565b90505f612bf760075460ff600160a01b9091041690565b90505f808260ff165f03612c27575f612c138560400151612fd7565b80516020909101519093509150612cb69050565b8260ff16600103612c40575f612c138560400151613062565b50506040828101518151608080820184525f8083526020808401829052838601829052606093840182905293815260468452849020845191820185528054600781900b8084526001600160401b03600160401b830416958401869052600160801b90910460030b95830195909552600101549101525b5f8260070b1215612d245760405162461bcd60e51b815260206004820152603260248201527f6e6f206e656761746976652070726963652061737365747320616c6c6f776564604482015271081a5b881610c8189bdc9c9bddcb5b195b9960721b60648201526084016105e8565b90969095509350505050565b606061029d83835f6130b2565b5f612d49826020613af5565b83511015612d915760405162461bcd60e51b8152602060048201526015602482015274746f427974657333325f6f75744f66426f756e647360581b60448201526064016105e8565b50016020015190565b606081612da881601f613af5565b1015612de75760405162461bcd60e51b815260206004820152600e60248201526d736c6963655f6f766572666c6f7760901b60448201526064016105e8565b612df18284613af5565b84511015612e355760405162461bcd60e51b8152602060048201526011602482015270736c6963655f6f75744f66426f756e647360781b60448201526064016105e8565b606082158015612e535760405191505f825260208201604052612e9d565b6040519150601f8416801560200281840101858101878315602002848b0101015b81831015612e8c578051835260209283019201612e74565b5050858452601f01601f1916604052505b50949350505050565b5f612eb2826001613af5565b83511015612ef85760405162461bcd60e51b8152602060048201526013602482015272746f55696e74385f6f75744f66426f756e647360681b60448201526064016105e8565b50016001015190565b5f612f0d826014613af5565b83511015612f555760405162461bcd60e51b8152602060048201526015602482015274746f416464726573735f6f75744f66426f756e647360581b60448201526064016105e8565b500160200151600160601b900490565b5f612f71826020613af5565b83511015612d915760405162461bcd60e51b8152602060048201526015602482015274746f55696e743235365f6f75744f66426f756e647360581b60448201526064016105e8565b5f80612fc483612a9a565b509392505050565b5f806122f983612a9a565b604080516080810182525f80825260208201819052818301819052606082015260035491516331d98b3f60e01b81526004810184905290916001600160a01b0316906331d98b3f906024015b608060405180830381865afa15801561303e573d5f803e3d5ffd5b505050506040513d601f19601f820116820180604052508101906104829190613efd565b604080516080810182525f8082526020820181905281830181905260608201526004805492516331d98b3f60e01b815290810184905290916001600160a01b0316906331d98b3f90602401613023565b6060814710156130d75760405163cd78605960e01b81523060048201526024016105e8565b5f80856001600160a01b031684866040516130f29190613963565b5f6040518083038185875af1925050503d805f811461312c576040519150601f19603f3d011682016040523d82523d5f602084013e613131565b606091505b5091509150610b8b8683836060826131515761314c82613198565b61029d565b815115801561316857506001600160a01b0384163b155b1561319157604051639996b31560e01b81526001600160a01b03851660048201526024016105e8565b508061029d565b8051156131a85780518082602001fd5b604051630a12f52160e11b815260040160405180910390fd5b6040518060c001604052805f81526020015f81526020015f80191681526020015f60ff1681526020016132226040518060a001604052805f6001600160401b0316815260200160608152602001606081526020015f81526020015f81525090565b81525f60209091015290565b828054828255905f5260205f20908101928215613267579160200282015b8281111561326757825182559160200191906001019061324c565b50613273929150613277565b5090565b5b80821115613273575f8155600101613278565b5f805f6060848603121561329d575f80fd5b83359250602084013591506040840135600281106132b9575f80fd5b809150509250925092565b80356001600160a01b03811681146132da575f80fd5b919050565b634e487b7160e01b5f52604160045260245ffd5b604051608081016001600160401b0381118282101715613315576133156132df565b60405290565b60405161016081016001600160401b0381118282101715613315576133156132df565b604051601f8201601f191681016001600160401b0381118282101715613366576133666132df565b604052919050565b5f6001600160401b03821115613386576133866132df565b5060051b60200190565b5f82601f83011261339f575f80fd5b813560206133b46133af8361336e565b61333e565b8083825260208201915060208460051b8701019350868411156133d5575f80fd5b602086015b848110156133f8576133eb816132c4565b83529183019183016133da565b509695505050505050565b5f82601f830112613412575f80fd5b813560206134226133af8361336e565b8083825260208201915060208460051b870101935086841115613443575f80fd5b602086015b848110156133f85780358352918301918301613448565b5f805f805f60a08688031215613473575f80fd5b61347c866132c4565b945060208601356001600160401b0380821115613497575f80fd5b6134a389838a01613390565b955060408801359150808211156134b8575f80fd5b6134c489838a01613403565b945060608801359150808211156134d9575f80fd5b6134e589838a01613390565b935060808801359150808211156134fa575f80fd5b5061350788828901613403565b9150509295509295909350565b5f6001600160401b0382111561352c5761352c6132df565b50601f01601f191660200190565b5f6020828403121561354a575f80fd5b81356001600160401b0381111561355f575f80fd5b8201601f8101841361356f575f80fd5b803561357d6133af82613514565b818152856020838501011115613591575f80fd5b816020840160208301375f91810160200191909152949350505050565b5f80604083850312156135bf575f80fd5b6135c8836132c4565b91506135d6602084016132c4565b90509250929050565b815181526020808301519082015260408101610482565b5f60208284031215613606575f80fd5b61029d826132c4565b8060070b8114610b36575f80fd5b6001600160401b0381168114610b36575f80fd5b8060030b8114610b36575f80fd5b5f8082840360a0811215613651575f80fd5b833592506080601f1982011215613666575f80fd5b5061366f6132f3565b602084013561367d8161360f565b8152604084013561368d8161361d565b602082015260608401356136a081613631565b60408201526080939093013560608401525092909150565b5f805f805f805f805f6101208a8c0312156136d1575f80fd5b6136da8a6132c4565b985060208a0135975060408a0135965060608a01356136f88161361d565b955060808a01356001600160401b0380821115613713575f80fd5b61371f8d838e01613403565b965060a08c0135915080821115613734575f80fd5b506137418c828d01613403565b94505060c08a0135925060e08a013591506101008a013590509295985092959850929598565b5f815180845260208085019450602084015f5b838110156137965781518752958201959082019060010161377a565b509495945050505050565b6020815281516020820152602082015160408201526040820151606082015260ff60608301511660808201525f608083015160c060a08401526001600160401b0381511660e0840152602081015160a0610100850152613805610180850182613767565b9050604082015160df19858303016101208601526138238282613767565b6060840151610140870152608090930151610160860152505060a084015180151560c0850152906122f9565b61ffff81168114610b36575f80fd5b5f806040838503121561386f575f80fd5b82356135c88161384f565b5f805f805f805f60e0888a031215613890575f80fd5b8735965060208801356138a28161360f565b955060408801356138b28161361d565b945060608801356138c281613631565b935060808801356138d28161360f565b925060a08801356138e28161361d565b915060c08801356138f28161361d565b8091505092959891949750929550565b634e487b7160e01b5f52601160045260245ffd5b808202811582820484141761048257610482613902565b634e487b7160e01b5f52603260045260245ffd5b5f5b8381101561395b578181015183820152602001613943565b50505f910152565b5f8251613974818460208701613941565b9190910192915050565b805160ff811681146132da575f80fd5b5f6020828403121561399e575f80fd5b61029d8261397e565b5f82601f8301126139b6575f80fd5b81516139c46133af82613514565b8181528460208386010111156139d8575f80fd5b6122f9826020830160208701613941565b5f602082840312156139f9575f80fd5b81516001600160401b03811115613a0e575f80fd5b6122f9848285016139a7565b5f8151808452613a31816020860160208601613941565b601f01601f19169290920160200192915050565b5f60208083016020845280855180835260408601915060408160051b8701019250602087015f5b82811015613a9a57603f19888603018452613a88858351613a1a565b94509285019290850190600101613a6c565b5092979650505050505050565b634e487b7160e01b5f52601260045260245ffd5b5f82613ac957613ac9613aa7565b500690565b5f82613adc57613adc613aa7565b500490565b634e487b7160e01b5f52602160045260245ffd5b8082018082111561048257610482613902565b60ff828116828216039081111561048257610482613902565b600181815b80851115613b5b57815f1904821115613b4157613b41613902565b80851615613b4e57918102915b93841c9390800290613b26565b509250929050565b5f82613b7157506001610482565b81613b7d57505f610482565b8160018114613b935760028114613b9d57613bb9565b6001915050610482565b60ff841115613bae57613bae613902565b50506001821b610482565b5060208310610133831016604e8410600b8410161715613bdc575081810a610482565b613be68383613b21565b805f1904821115613bf957613bf9613902565b029392505050565b5f61029d60ff841683613b63565b8181038181111561048257610482613902565b6001600160401b03818116838216028082169190828114613c4557613c45613902565b505092915050565b805180151581146132da575f80fd5b5f60208284031215613c6c575f80fd5b61029d82613c4d565b602081525f61029d6020830184613a1a565b805163ffffffff811681146132da575f80fd5b80516132da8161384f565b80516132da8161361d565b5f82601f830112613cbf575f80fd5b81516020613ccf6133af8361336e565b82815260079290921b84018101918181019086841115613ced575f80fd5b8286015b848110156133f85760808189031215613d08575f80fd5b613d106132f3565b8151815284820151858201526040613d2981840161397e565b908201526060613d3a83820161397e565b90820152835291830191608001613cf1565b5f805f60608486031215613d5e575f80fd5b83516001600160401b0380821115613d74575f80fd5b908501906101608288031215613d88575f80fd5b613d9061331b565b613d998361397e565b8152613da760208401613c87565b6020820152613db860408401613c87565b6040820152613dc960608401613c9a565b606082015260808301516080820152613de460a08401613ca5565b60a0820152613df560c0840161397e565b60c082015260e083015182811115613e0b575f80fd5b613e17898286016139a7565b60e083015250610100613e2b818501613c87565b908201526101208381015183811115613e42575f80fd5b613e4e8a828701613cb0565b918301919091525061014083810151908201529450613e6f60208701613c4d565b93506040860151915080821115613e84575f80fd5b50613e91868287016139a7565b9150509250925092565b5f60208284031215613eab575f80fd5b815161029d8161361d565b6001600160401b03828116828216039080821115613ed657613ed6613902565b5092915050565b6001600160401b03818116838216019080821115613ed657613ed6613902565b5f60808284031215613f0d575f80fd5b613f156132f3565b8251613f208161360f565b81526020830151613f308161361d565b60208201526040830151613f4381613631565b6040820152606092830151928101929092525091905056fea26469706673582212201479015de27c4ecbf8392e75b9aed40a051dcb2dd4ef10387adf2e9f9710c91564736f6c63430008170033",
			"opcodes": "PUSH1 0x80 PUSH1 0x40 MSTORE CALLVALUE DUP1 ISZERO PUSH2 0xF JUMPI PUSH0 DUP1 REVERT JUMPDEST POP PUSH1 0x4 CALLDATASIZE LT PUSH2 0x11C JUMPI PUSH0 CALLDATALOAD PUSH1 0xE0 SHR DUP1 PUSH4 0x8E7EB00A GT PUSH2 0xA9 JUMPI DUP1 PUSH4 0xD0A6998A GT PUSH2 0x6E JUMPI DUP1 PUSH4 0xD0A6998A EQ PUSH2 0x15B JUMPI DUP1 PUSH4 0xD3CC2E48 EQ PUSH2 0x24A JUMPI DUP1 PUSH4 0xE80A03F3 EQ PUSH2 0x25D JUMPI DUP1 PUSH4 0xEAF4A0AE EQ PUSH2 0x16E JUMPI DUP1 PUSH4 0xF2FDE38B EQ PUSH2 0x270 JUMPI PUSH0 DUP1 REVERT JUMPDEST DUP1 PUSH4 0x8E7EB00A EQ PUSH2 0x1E9 JUMPI DUP1 PUSH4 0xA1424F26 EQ PUSH2 0x1FC JUMPI DUP1 PUSH4 0xAFAD2E16 EQ PUSH2 0x204 JUMPI DUP1 PUSH4 0xBE761A05 EQ PUSH2 0x224 JUMPI DUP1 PUSH4 0xC52DDC0E EQ PUSH2 0x237 JUMPI PUSH0 DUP1 REVERT JUMPDEST DUP1 PUSH4 0x6805D6AD GT PUSH2 0xEF JUMPI DUP1 PUSH4 0x6805D6AD EQ PUSH2 0x181 JUMPI DUP1 PUSH4 0x6C7D83CF EQ PUSH2 0x1A1 JUMPI DUP1 PUSH4 0x6CC0B5FE EQ PUSH2 0x1B4 JUMPI DUP1 PUSH4 0x715018A6 EQ PUSH2 0x1C7 JUMPI DUP1 PUSH4 0x8DA5CB5B EQ PUSH2 0x1CF JUMPI PUSH0 DUP1 REVERT JUMPDEST DUP1 PUSH4 0x2678ADE EQ PUSH2 0x120 JUMPI DUP1 PUSH4 0x942E292 EQ PUSH2 0x146 JUMPI DUP1 PUSH4 0x1D92AA84 EQ PUSH2 0x15B JUMPI DUP1 PUSH4 0x23909F0A EQ PUSH2 0x16E JUMPI JUMPDEST PUSH0 DUP1 REVERT JUMPDEST PUSH2 0x133 PUSH2 0x12E CALLDATASIZE PUSH1 0x4 PUSH2 0x328B JUMP JUMPDEST PUSH2 0x283 JUMP JUMPDEST PUSH1 0x40 MLOAD SWAP1 DUP2 MSTORE PUSH1 0x20 ADD JUMPDEST PUSH1 0x40 MLOAD DUP1 SWAP2 SUB SWAP1 RETURN JUMPDEST PUSH2 0x159 PUSH2 0x154 CALLDATASIZE PUSH1 0x4 PUSH2 0x345F JUMP JUMPDEST PUSH2 0x2A4 JUMP JUMPDEST STOP JUMPDEST PUSH2 0x159 PUSH2 0x169 CALLDATASIZE PUSH1 0x4 PUSH2 0x353A JUMP JUMPDEST PUSH2 0x400 JUMP JUMPDEST PUSH2 0x159 PUSH2 0x17C CALLDATASIZE PUSH1 0x4 PUSH2 0x353A JUMP JUMPDEST PUSH2 0x40F JUMP JUMPDEST PUSH2 0x194 PUSH2 0x18F CALLDATASIZE PUSH1 0x4 PUSH2 0x35AE JUMP JUMPDEST PUSH2 0x41A JUMP JUMPDEST PUSH1 0x40 MLOAD PUSH2 0x13D SWAP2 SWAP1 PUSH2 0x35DF JUMP JUMPDEST PUSH2 0x194 PUSH2 0x1AF CALLDATASIZE PUSH1 0x4 PUSH2 0x35F6 JUMP JUMPDEST PUSH2 0x488 JUMP JUMPDEST PUSH2 0x159 PUSH2 0x1C2 CALLDATASIZE PUSH1 0x4 PUSH2 0x363F JUMP JUMPDEST PUSH2 0x4F2 JUMP JUMPDEST PUSH2 0x159 PUSH2 0x573 JUMP JUMPDEST PUSH0 SLOAD PUSH1 0x40 MLOAD PUSH1 0x1 PUSH1 0x1 PUSH1 0xA0 SHL SUB SWAP1 SWAP2 AND DUP2 MSTORE PUSH1 0x20 ADD PUSH2 0x13D JUMP JUMPDEST PUSH2 0x159 PUSH2 0x1F7 CALLDATASIZE PUSH1 0x4 PUSH2 0x36B8 JUMP JUMPDEST PUSH2 0x586 JUMP JUMPDEST PUSH1 0x11 SLOAD PUSH2 0x133 JUMP JUMPDEST PUSH2 0x217 PUSH2 0x212 CALLDATASIZE PUSH1 0x4 PUSH2 0x35F6 JUMP JUMPDEST PUSH2 0x7A0 JUMP JUMPDEST PUSH1 0x40 MLOAD PUSH2 0x13D SWAP2 SWAP1 PUSH2 0x37A1 JUMP JUMPDEST PUSH2 0x133 PUSH2 0x232 CALLDATASIZE PUSH1 0x4 PUSH2 0x328B JUMP JUMPDEST PUSH2 0x8ED JUMP JUMPDEST PUSH2 0x159 PUSH2 0x245 CALLDATASIZE PUSH1 0x4 PUSH2 0x385E JUMP JUMPDEST PUSH2 0x90B JUMP JUMPDEST PUSH2 0x159 PUSH2 0x258 CALLDATASIZE PUSH1 0x4 PUSH2 0x387A JUMP JUMPDEST PUSH2 0x946 JUMP JUMPDEST PUSH2 0x194 PUSH2 0x26B CALLDATASIZE PUSH1 0x4 PUSH2 0x35F6 JUMP JUMPDEST PUSH2 0xAB7 JUMP JUMPDEST PUSH2 0x159 PUSH2 0x27E CALLDATASIZE PUSH1 0x4 PUSH2 0x35F6 JUMP JUMPDEST PUSH2 0xAFC JUMP JUMPDEST PUSH0 PUSH2 0x29A PUSH2 0x291 DUP5 DUP7 PUSH2 0x3916 JUMP JUMPDEST PUSH1 0x11 SLOAD DUP5 PUSH2 0xB39 JUMP JUMPDEST SWAP1 POP JUMPDEST SWAP4 SWAP3 POP POP POP JUMP JUMPDEST PUSH2 0x2B0 DUP5 DUP5 DUP5 DUP5 PUSH2 0xB95 JUMP JUMPDEST PUSH2 0x2BD DUP6 DUP6 DUP6 DUP6 DUP6 PUSH2 0xCAE JUMP JUMPDEST PUSH0 JUMPDEST DUP5 MLOAD DUP2 LT ISZERO PUSH2 0x30F JUMPI PUSH2 0x307 PUSH1 0x3 DUP8 DUP8 DUP5 DUP2 MLOAD DUP2 LT PUSH2 0x2E0 JUMPI PUSH2 0x2E0 PUSH2 0x392D JUMP JUMPDEST PUSH1 0x20 MUL PUSH1 0x20 ADD ADD MLOAD DUP8 DUP6 DUP2 MLOAD DUP2 LT PUSH2 0x2FA JUMPI PUSH2 0x2FA PUSH2 0x392D JUMP JUMPDEST PUSH1 0x20 MUL PUSH1 0x20 ADD ADD MLOAD PUSH2 0x110B JUMP JUMPDEST PUSH1 0x1 ADD PUSH2 0x2BF JUMP JUMPDEST POP PUSH0 JUMPDEST DUP3 MLOAD DUP2 LT ISZERO PUSH2 0x355 JUMPI PUSH2 0x34D PUSH1 0x2 DUP8 DUP6 DUP5 DUP2 MLOAD DUP2 LT PUSH2 0x333 JUMPI PUSH2 0x333 PUSH2 0x392D JUMP JUMPDEST PUSH1 0x20 MUL PUSH1 0x20 ADD ADD MLOAD DUP6 DUP6 DUP2 MLOAD DUP2 LT PUSH2 0x2FA JUMPI PUSH2 0x2FA PUSH2 0x392D JUMP JUMPDEST PUSH1 0x1 ADD PUSH2 0x312 JUMP JUMPDEST POP PUSH0 JUMPDEST DUP5 MLOAD DUP2 LT ISZERO PUSH2 0x3A7 JUMPI PUSH2 0x39F DUP6 DUP3 DUP2 MLOAD DUP2 LT PUSH2 0x376 JUMPI PUSH2 0x376 PUSH2 0x392D JUMP JUMPDEST PUSH1 0x20 MUL PUSH1 0x20 ADD ADD MLOAD CALLER ADDRESS DUP8 DUP6 DUP2 MLOAD DUP2 LT PUSH2 0x392 JUMPI PUSH2 0x392 PUSH2 0x392D JUMP JUMPDEST PUSH1 0x20 MUL PUSH1 0x20 ADD ADD MLOAD PUSH2 0x12EC JUMP JUMPDEST PUSH1 0x1 ADD PUSH2 0x358 JUMP JUMPDEST POP PUSH0 JUMPDEST DUP3 MLOAD DUP2 LT ISZERO PUSH2 0x3F8 JUMPI PUSH2 0x3F0 DUP4 DUP3 DUP2 MLOAD DUP2 LT PUSH2 0x3C8 JUMPI PUSH2 0x3C8 PUSH2 0x392D JUMP JUMPDEST PUSH1 0x20 MUL PUSH1 0x20 ADD ADD MLOAD CALLER DUP5 DUP5 DUP2 MLOAD DUP2 LT PUSH2 0x3E3 JUMPI PUSH2 0x3E3 PUSH2 0x392D JUMP JUMPDEST PUSH1 0x20 MUL PUSH1 0x20 ADD ADD MLOAD PUSH2 0x1353 JUMP JUMPDEST PUSH1 0x1 ADD PUSH2 0x3AA JUMP JUMPDEST POP POP POP POP POP POP JUMP JUMPDEST PUSH2 0x40A DUP2 PUSH0 PUSH2 0x1384 JUMP JUMPDEST POP POP POP JUMP JUMPDEST PUSH2 0x40A DUP2 PUSH1 0x1 PUSH2 0x1384 JUMP JUMPDEST PUSH1 0x40 DUP1 MLOAD DUP1 DUP3 ADD SWAP1 SWAP2 MSTORE PUSH0 DUP1 DUP3 MSTORE PUSH1 0x20 DUP3 ADD MSTORE PUSH0 PUSH2 0x438 DUP5 DUP5 PUSH2 0x14F0 JUMP JUMPDEST SWAP1 POP PUSH0 PUSH2 0x444 DUP5 PUSH2 0x153D JUMP JUMPDEST SWAP1 POP PUSH1 0x40 MLOAD DUP1 PUSH1 0x40 ADD PUSH1 0x40 MSTORE DUP1 PUSH2 0x463 DUP5 PUSH0 ADD MLOAD DUP5 PUSH0 ADD MLOAD PUSH1 0x1 PUSH2 0x283 JUMP JUMPDEST DUP2 MSTORE PUSH1 0x20 ADD PUSH2 0x47B DUP5 PUSH1 0x20 ADD MLOAD DUP5 PUSH1 0x20 ADD MLOAD PUSH0 PUSH2 0x283 JUMP JUMPDEST SWAP1 MSTORE SWAP3 POP POP POP JUMPDEST SWAP3 SWAP2 POP POP JUMP JUMPDEST PUSH1 0x40 DUP1 MLOAD DUP1 DUP3 ADD SWAP1 SWAP2 MSTORE PUSH0 DUP1 DUP3 MSTORE PUSH1 0x20 DUP3 ADD MSTORE PUSH0 PUSH2 0x4A5 DUP4 PUSH2 0x1676 JUMP JUMPDEST SWAP1 POP PUSH0 PUSH2 0x4B1 DUP5 PUSH2 0x153D JUMP JUMPDEST SWAP1 POP PUSH1 0x40 MLOAD DUP1 PUSH1 0x40 ADD PUSH1 0x40 MSTORE DUP1 PUSH2 0x4D0 DUP5 PUSH0 ADD MLOAD DUP5 PUSH0 ADD MLOAD PUSH1 0x1 PUSH2 0x283 JUMP JUMPDEST DUP2 MSTORE PUSH1 0x20 ADD PUSH2 0x4E8 DUP5 PUSH1 0x20 ADD MLOAD DUP5 PUSH1 0x20 ADD MLOAD PUSH0 PUSH2 0x283 JUMP JUMPDEST SWAP1 MSTORE SWAP5 SWAP4 POP POP POP POP JUMP JUMPDEST PUSH2 0x4FA PUSH2 0x16BB JUMP JUMPDEST PUSH0 SWAP2 DUP3 MSTORE PUSH1 0x46 PUSH1 0x20 SWAP1 DUP2 MSTORE PUSH1 0x40 SWAP3 DUP4 SWAP1 KECCAK256 DUP3 MLOAD DUP2 SLOAD SWAP3 DUP5 ADD MLOAD SWAP5 DUP5 ADD MLOAD PUSH1 0x1 PUSH1 0x1 PUSH1 0x40 SHL SUB SWAP2 DUP3 AND PUSH16 0xFFFFFFFFFFFFFFFFFFFFFFFFFFFFFFFF NOT SWAP1 SWAP5 AND SWAP4 SWAP1 SWAP4 OR PUSH1 0x1 PUSH1 0x40 SHL SWAP2 SWAP1 SWAP6 AND MUL SWAP4 SWAP1 SWAP4 OR PUSH4 0xFFFFFFFF PUSH1 0x80 SHL NOT AND PUSH1 0x1 PUSH1 0x80 SHL PUSH4 0xFFFFFFFF SWAP1 SWAP3 AND SWAP2 SWAP1 SWAP2 MUL OR DUP3 SSTORE PUSH1 0x60 ADD MLOAD PUSH1 0x1 SWAP1 SWAP2 ADD SSTORE JUMP JUMPDEST PUSH2 0x57B PUSH2 0x16BB JUMP JUMPDEST PUSH2 0x584 PUSH0 PUSH2 0x16E7 JUMP JUMPDEST JUMP JUMPDEST PUSH2 0x58E PUSH2 0x16BB JUMP JUMPDEST PUSH0 PUSH2 0x598 DUP11 PUSH2 0x7A0 JUMP JUMPDEST SWAP1 POP DUP1 PUSH1 0xA0 ADD MLOAD ISZERO PUSH2 0x5F1 JUMPI PUSH1 0x40 MLOAD PUSH3 0x461BCD PUSH1 0xE5 SHL DUP2 MSTORE PUSH1 0x20 PUSH1 0x4 DUP3 ADD MSTORE PUSH1 0x18 PUSH1 0x24 DUP3 ADD MSTORE PUSH32 0x417373657420616C726561647920726567697374657265640000000000000000 PUSH1 0x44 DUP3 ADD MSTORE PUSH1 0x64 ADD JUMPDEST PUSH1 0x40 MLOAD DUP1 SWAP2 SUB SWAP1 REVERT JUMPDEST PUSH1 0x6 DUP1 SLOAD PUSH1 0x1 DUP2 ADD DUP3 SSTORE PUSH0 SWAP2 SWAP1 SWAP2 MSTORE PUSH32 0xF652222313E28459528D920B65115C16C04F3EFC82AAEDC97BE59F3F377C0D3F ADD DUP1 SLOAD PUSH1 0x1 PUSH1 0x1 PUSH1 0xA0 SHL SUB NOT AND PUSH1 0x1 PUSH1 0x1 PUSH1 0xA0 SHL SUB DUP13 AND OR SWAP1 SSTORE PUSH1 0x40 DUP1 MLOAD PUSH1 0xA0 DUP2 ADD DUP3 MSTORE PUSH1 0x1 PUSH1 0x1 PUSH1 0x40 SHL SUB DUP10 AND DUP2 MSTORE PUSH1 0x20 DUP1 DUP3 ADD DUP10 SWAP1 MSTORE DUP2 DUP4 ADD DUP9 SWAP1 MSTORE PUSH1 0x60 DUP3 ADD DUP8 SWAP1 MSTORE PUSH1 0x80 DUP3 ADD DUP7 SWAP1 MSTORE DUP3 MLOAD PUSH1 0x4 DUP2 MSTORE PUSH1 0x24 DUP2 ADD DUP5 MSTORE SWAP1 DUP2 ADD DUP1 MLOAD PUSH1 0x1 PUSH1 0x1 PUSH1 0xE0 SHL SUB AND PUSH4 0x313CE567 PUSH1 0xE0 SHL OR SWAP1 MSTORE SWAP2 MLOAD SWAP1 SWAP2 PUSH0 SWAP2 PUSH1 0x1 PUSH1 0x1 PUSH1 0xA0 SHL SUB DUP15 AND SWAP2 PUSH2 0x6AC SWAP2 PUSH2 0x3963 JUMP JUMPDEST PUSH0 PUSH1 0x40 MLOAD DUP1 DUP4 SUB DUP2 DUP6 GAS STATICCALL SWAP2 POP POP RETURNDATASIZE DUP1 PUSH0 DUP2 EQ PUSH2 0x6E4 JUMPI PUSH1 0x40 MLOAD SWAP2 POP PUSH1 0x1F NOT PUSH1 0x3F RETURNDATASIZE ADD AND DUP3 ADD PUSH1 0x40 MSTORE RETURNDATASIZE DUP3 MSTORE RETURNDATASIZE PUSH0 PUSH1 0x20 DUP5 ADD RETURNDATACOPY PUSH2 0x6E9 JUMP JUMPDEST PUSH1 0x60 SWAP2 POP JUMPDEST POP SWAP2 POP POP PUSH0 DUP2 DUP1 PUSH1 0x20 ADD SWAP1 MLOAD DUP2 ADD SWAP1 PUSH2 0x702 SWAP2 SWAP1 PUSH2 0x398E JUMP JUMPDEST SWAP1 POP PUSH1 0x12 DUP2 PUSH1 0xFF AND GT ISZERO PUSH2 0x714 JUMPI POP PUSH1 0x12 JUMPDEST PUSH3 0xF4240 DUP11 PUSH1 0x1 PUSH1 0x1 PUSH1 0x40 SHL SUB AND GT ISZERO PUSH2 0x72C JUMPI PUSH0 DUP1 REVERT JUMPDEST PUSH3 0xF4240 DUP7 GT ISZERO PUSH2 0x73B JUMPI PUSH0 DUP1 REVERT JUMPDEST PUSH1 0x40 DUP1 MLOAD PUSH1 0xC0 DUP2 ADD DUP3 MSTORE DUP14 DUP2 MSTORE PUSH1 0x20 DUP2 ADD DUP14 SWAP1 MSTORE SWAP1 DUP2 ADD DUP7 SWAP1 MSTORE PUSH1 0xFF DUP3 AND PUSH1 0x60 DUP3 ADD MSTORE PUSH1 0x80 DUP2 ADD DUP5 SWAP1 MSTORE PUSH1 0x1 PUSH1 0xA0 DUP3 ADD MSTORE PUSH2 0x776 DUP15 DUP3 PUSH2 0x1736 JUMP JUMPDEST PUSH1 0x1 PUSH1 0x1 PUSH1 0xA0 SHL SUB DUP15 AND PUSH0 SWAP1 DUP2 MSTORE PUSH1 0xF PUSH1 0x20 MSTORE PUSH1 0x40 SWAP1 KECCAK256 TIMESTAMP SWAP1 SSTORE POP POP POP POP POP POP POP POP POP POP POP POP POP POP JUMP JUMPDEST PUSH2 0x7A8 PUSH2 0x31C1 JUMP JUMPDEST PUSH1 0x1 PUSH1 0x1 PUSH1 0xA0 SHL SUB DUP3 AND PUSH0 SWAP1 DUP2 MSTORE PUSH1 0xA PUSH1 0x20 SWAP1 DUP2 MSTORE PUSH1 0x40 SWAP2 DUP3 SWAP1 KECCAK256 DUP3 MLOAD PUSH1 0xC0 DUP2 ADD DUP5 MSTORE DUP2 SLOAD DUP2 MSTORE PUSH1 0x1 DUP3 ADD SLOAD DUP2 DUP5 ADD MSTORE PUSH1 0x2 DUP3 ADD SLOAD DUP2 DUP6 ADD MSTORE PUSH1 0x3 DUP3 ADD SLOAD PUSH1 0xFF AND PUSH1 0x60 DUP3 ADD MSTORE DUP4 MLOAD PUSH1 0xA0 DUP2 ADD DUP6 MSTORE PUSH1 0x4 DUP4 ADD DUP1 SLOAD PUSH1 0x1 PUSH1 0x1 PUSH1 0x40 SHL SUB AND DUP3 MSTORE PUSH1 0x5 DUP5 ADD DUP1 SLOAD DUP8 MLOAD DUP2 DUP9 MUL DUP2 ADD DUP9 ADD SWAP1 SWAP9 MSTORE DUP1 DUP9 MSTORE SWAP4 SWAP7 SWAP5 SWAP6 PUSH1 0x80 DUP9 ADD SWAP6 SWAP4 SWAP5 SWAP3 SWAP4 DUP6 DUP3 ADD SWAP4 SWAP1 SWAP3 SWAP2 DUP4 ADD DUP3 DUP3 DUP1 ISZERO PUSH2 0x85D JUMPI PUSH1 0x20 MUL DUP3 ADD SWAP2 SWAP1 PUSH0 MSTORE PUSH1 0x20 PUSH0 KECCAK256 SWAP1 JUMPDEST DUP2 SLOAD DUP2 MSTORE PUSH1 0x20 ADD SWAP1 PUSH1 0x1 ADD SWAP1 DUP1 DUP4 GT PUSH2 0x849 JUMPI JUMPDEST POP POP POP POP POP DUP2 MSTORE PUSH1 0x20 ADD PUSH1 0x2 DUP3 ADD DUP1 SLOAD DUP1 PUSH1 0x20 MUL PUSH1 0x20 ADD PUSH1 0x40 MLOAD SWAP1 DUP2 ADD PUSH1 0x40 MSTORE DUP1 SWAP3 SWAP2 SWAP1 DUP2 DUP2 MSTORE PUSH1 0x20 ADD DUP3 DUP1 SLOAD DUP1 ISZERO PUSH2 0x8B3 JUMPI PUSH1 0x20 MUL DUP3 ADD SWAP2 SWAP1 PUSH0 MSTORE PUSH1 0x20 PUSH0 KECCAK256 SWAP1 JUMPDEST DUP2 SLOAD DUP2 MSTORE PUSH1 0x20 ADD SWAP1 PUSH1 0x1 ADD SWAP1 DUP1 DUP4 GT PUSH2 0x89F JUMPI JUMPDEST POP POP POP SWAP2 DUP4 MSTORE POP POP PUSH1 0x3 DUP3 ADD SLOAD PUSH1 0x20 DUP1 DUP4 ADD SWAP2 SWAP1 SWAP2 MSTORE PUSH1 0x4 SWAP1 SWAP3 ADD SLOAD PUSH1 0x40 SWAP1 SWAP2 ADD MSTORE SWAP1 DUP3 MSTORE PUSH1 0x9 SWAP3 SWAP1 SWAP3 ADD SLOAD PUSH1 0xFF AND ISZERO ISZERO SWAP2 ADD MSTORE SWAP3 SWAP2 POP POP JUMP JUMPDEST PUSH0 PUSH2 0x29A PUSH2 0x8FA PUSH1 0x11 SLOAD SWAP1 JUMP JUMPDEST PUSH2 0x904 SWAP1 DUP7 PUSH2 0x3916 JUMP JUMPDEST DUP5 DUP5 PUSH2 0xB39 JUMP JUMPDEST PUSH2 0x913 PUSH2 0x16BB JUMP JUMPDEST PUSH2 0xFFFF DUP3 AND PUSH0 SWAP1 DUP2 MSTORE PUSH1 0x9 PUSH1 0x20 MSTORE PUSH1 0x40 SWAP1 KECCAK256 DUP1 SLOAD PUSH1 0x1 PUSH1 0x1 PUSH1 0xA0 SHL SUB NOT AND PUSH1 0x1 PUSH1 0x1 PUSH1 0xA0 SHL SUB DUP4 AND OR SWAP1 SSTORE POP POP JUMP JUMPDEST POP POP JUMP JUMPDEST PUSH2 0x94E PUSH2 0x16BB JUMP JUMPDEST PUSH1 0x4 DUP1 SLOAD PUSH1 0x40 MLOAD PUSH4 0x366E070F PUSH1 0xE2 SHL DUP2 MSTORE SWAP2 DUP3 ADD DUP10 SWAP1 MSTORE PUSH1 0x7 DUP9 DUP2 SIGNEXTEND PUSH1 0x24 DUP5 ADD MSTORE PUSH1 0x1 PUSH1 0x1 PUSH1 0x40 SHL SUB DUP1 DUP10 AND PUSH1 0x44 DUP6 ADD MSTORE PUSH1 0x3 DUP9 SWAP1 SIGNEXTEND PUSH1 0x64 DUP6 ADD MSTORE SWAP1 DUP7 SWAP1 SIGNEXTEND PUSH1 0x84 DUP5 ADD MSTORE DUP1 DUP6 AND PUSH1 0xA4 DUP5 ADD MSTORE DUP4 AND PUSH1 0xC4 DUP4 ADD DUP2 SWAP1 MSTORE PUSH1 0xE4 DUP4 ADD MSTORE PUSH0 SWAP2 PUSH1 0x1 PUSH1 0x1 PUSH1 0xA0 SHL SUB SWAP1 SWAP2 AND SWAP1 PUSH4 0xD9B81C3C SWAP1 PUSH2 0x104 ADD PUSH0 PUSH1 0x40 MLOAD DUP1 DUP4 SUB DUP2 DUP7 GAS STATICCALL ISZERO DUP1 ISZERO PUSH2 0x9DA JUMPI RETURNDATASIZE PUSH0 DUP1 RETURNDATACOPY RETURNDATASIZE PUSH0 REVERT JUMPDEST POP POP POP POP PUSH1 0x40 MLOAD RETURNDATASIZE PUSH0 DUP3 RETURNDATACOPY PUSH1 0x1F RETURNDATASIZE SWAP1 DUP2 ADD PUSH1 0x1F NOT AND DUP3 ADD PUSH1 0x40 MSTORE PUSH2 0xA01 SWAP2 SWAP1 DUP2 ADD SWAP1 PUSH2 0x39E9 JUMP JUMPDEST PUSH1 0x40 DUP1 MLOAD PUSH1 0x1 DUP1 DUP3 MSTORE DUP2 DUP4 ADD SWAP1 SWAP3 MSTORE SWAP2 SWAP3 POP PUSH0 SWAP2 SWAP1 DUP2 PUSH1 0x20 ADD JUMPDEST PUSH1 0x60 DUP2 MSTORE PUSH1 0x20 ADD SWAP1 PUSH1 0x1 SWAP1 SUB SWAP1 DUP2 PUSH2 0xA1B JUMPI SWAP1 POP POP SWAP1 POP DUP2 DUP2 PUSH0 DUP2 MLOAD DUP2 LT PUSH2 0xA45 JUMPI PUSH2 0xA45 PUSH2 0x392D JUMP JUMPDEST PUSH1 0x20 SWAP1 DUP2 MUL SWAP2 SWAP1 SWAP2 ADD ADD MSTORE PUSH1 0x4 DUP1 SLOAD PUSH1 0x40 MLOAD PUSH4 0x1DF3CBC5 PUSH1 0xE3 SHL DUP2 MSTORE PUSH1 0x1 PUSH1 0x1 PUSH1 0xA0 SHL SUB SWAP1 SWAP2 AND SWAP2 PUSH4 0xEF9E5E28 SWAP2 PUSH2 0xA7F SWAP2 DUP6 SWAP2 ADD PUSH2 0x3A45 JUMP JUMPDEST PUSH0 PUSH1 0x40 MLOAD DUP1 DUP4 SUB DUP2 PUSH0 DUP8 DUP1 EXTCODESIZE ISZERO DUP1 ISZERO PUSH2 0xA96 JUMPI PUSH0 DUP1 REVERT JUMPDEST POP GAS CALL ISZERO DUP1 ISZERO PUSH2 0xAA8 JUMPI RETURNDATASIZE PUSH0 DUP1 RETURNDATACOPY RETURNDATASIZE PUSH0 REVERT JUMPDEST POP POP POP POP POP POP POP POP POP POP POP POP POP JUMP JUMPDEST PUSH1 0x40 DUP1 MLOAD DUP1 DUP3 ADD SWAP1 SWAP2 MSTORE PUSH0 DUP1 DUP3 MSTORE PUSH1 0x20 DUP3 ADD MSTORE POP PUSH1 0x1 PUSH1 0x1 PUSH1 0xA0 SHL SUB AND PUSH0 SWAP1 DUP2 MSTORE PUSH1 0xD PUSH1 0x20 SWAP1 DUP2 MSTORE PUSH1 0x40 SWAP2 DUP3 SWAP1 KECCAK256 DUP3 MLOAD DUP1 DUP5 ADD SWAP1 SWAP4 MSTORE DUP1 SLOAD DUP4 MSTORE PUSH1 0x1 ADD SLOAD SWAP1 DUP3 ADD MSTORE SWAP1 JUMP JUMPDEST PUSH2 0xB04 PUSH2 0x16BB JUMP JUMPDEST PUSH1 0x1 PUSH1 0x1 PUSH1 0xA0 SHL SUB DUP2 AND PUSH2 0xB2D JUMPI PUSH1 0x40 MLOAD PUSH4 0x1E4FBDF7 PUSH1 0xE0 SHL DUP2 MSTORE PUSH0 PUSH1 0x4 DUP3 ADD MSTORE PUSH1 0x24 ADD PUSH2 0x5E8 JUMP JUMPDEST PUSH2 0xB36 DUP2 PUSH2 0x16E7 JUMP JUMPDEST POP JUMP JUMPDEST PUSH0 DUP1 PUSH2 0xB45 DUP5 DUP7 PUSH2 0x3ABB JUMP JUMPDEST SWAP1 POP PUSH0 PUSH2 0xB52 DUP6 DUP8 PUSH2 0x3ACE JUMP JUMPDEST SWAP1 POP DUP2 ISZERO DUP1 PUSH2 0xB72 JUMPI POP PUSH1 0x1 DUP5 PUSH1 0x1 DUP2 GT ISZERO PUSH2 0xB70 JUMPI PUSH2 0xB70 PUSH2 0x3AE1 JUMP JUMPDEST EQ JUMPDEST ISZERO PUSH2 0xB80 JUMPI SWAP2 POP PUSH2 0x29D SWAP1 POP JUMP JUMPDEST PUSH2 0xB8B DUP2 PUSH1 0x1 PUSH2 0x3AF5 JUMP JUMPDEST SWAP7 SWAP6 POP POP POP POP POP POP JUMP JUMPDEST PUSH0 JUMPDEST DUP5 MLOAD DUP2 LT ISZERO PUSH2 0xBCA JUMPI PUSH2 0xBC2 DUP6 DUP3 DUP2 MLOAD DUP2 LT PUSH2 0xBB5 JUMPI PUSH2 0xBB5 PUSH2 0x392D JUMP JUMPDEST PUSH1 0x20 MUL PUSH1 0x20 ADD ADD MLOAD PUSH2 0x1B85 JUMP JUMPDEST PUSH1 0x1 ADD PUSH2 0xB97 JUMP JUMPDEST POP PUSH0 JUMPDEST DUP3 MLOAD DUP2 LT ISZERO PUSH2 0xBF3 JUMPI PUSH2 0xBEB DUP4 DUP3 DUP2 MLOAD DUP2 LT PUSH2 0xBB5 JUMPI PUSH2 0xBB5 PUSH2 0x392D JUMP JUMPDEST PUSH1 0x1 ADD PUSH2 0xBCD JUMP JUMPDEST POP PUSH2 0xBFD DUP5 PUSH2 0x1BD7 JUMP JUMPDEST PUSH2 0xC06 DUP3 PUSH2 0x1BD7 JUMP JUMPDEST DUP3 MLOAD DUP5 MLOAD EQ PUSH2 0xC57 JUMPI PUSH1 0x40 MLOAD PUSH3 0x461BCD PUSH1 0xE5 SHL DUP2 MSTORE PUSH1 0x20 PUSH1 0x4 DUP3 ADD DUP2 SWAP1 MSTORE PUSH1 0x24 DUP3 ADD MSTORE PUSH32 0x5265706179206172726179206C656E6774687320646F206E6F74206D61746368 PUSH1 0x44 DUP3 ADD MSTORE PUSH1 0x64 ADD PUSH2 0x5E8 JUMP JUMPDEST DUP1 MLOAD DUP3 MLOAD EQ PUSH2 0xCA8 JUMPI PUSH1 0x40 MLOAD PUSH3 0x461BCD PUSH1 0xE5 SHL DUP2 MSTORE PUSH1 0x20 PUSH1 0x4 DUP3 ADD DUP2 SWAP1 MSTORE PUSH1 0x24 DUP3 ADD MSTORE PUSH32 0x5265706179206172726179206C656E6774687320646F206E6F74206D61746368 PUSH1 0x44 DUP3 ADD MSTORE PUSH1 0x64 ADD PUSH2 0x5E8 JUMP JUMPDEST POP POP POP POP JUMP JUMPDEST PUSH0 DUP1 PUSH2 0xCBB DUP8 PUSH1 0x1 PUSH2 0x1C9E JUMP JUMPDEST SWAP2 POP SWAP2 POP DUP1 DUP3 LT PUSH2 0xD05 JUMPI PUSH1 0x40 MLOAD PUSH3 0x461BCD PUSH1 0xE5 SHL DUP2 MSTORE PUSH1 0x20 PUSH1 0x4 DUP3 ADD MSTORE PUSH1 0x14 PUSH1 0x24 DUP3 ADD MSTORE PUSH20 0x3B30BAB63A103737BA103AB73232B93BB0BA32B9 PUSH1 0x61 SHL PUSH1 0x44 DUP3 ADD MSTORE PUSH1 0x64 ADD PUSH2 0x5E8 JUMP JUMPDEST PUSH0 PUSH2 0xD10 DUP9 PUSH0 PUSH2 0x1C9E JUMP JUMPDEST SWAP2 POP POP PUSH0 DUP1 PUSH0 JUMPDEST DUP10 MLOAD DUP2 LT ISZERO PUSH2 0xE74 JUMPI PUSH0 DUP11 DUP3 DUP2 MLOAD DUP2 LT PUSH2 0xD33 JUMPI PUSH2 0xD33 PUSH2 0x392D JUMP JUMPDEST PUSH1 0x20 MUL PUSH1 0x20 ADD ADD MLOAD SWAP1 POP PUSH0 PUSH2 0xD47 DUP3 PUSH2 0xAB7 JUMP JUMPDEST SWAP1 POP PUSH0 PUSH2 0xD53 DUP4 PUSH2 0x7A0 JUMP JUMPDEST SWAP1 POP PUSH0 PUSH2 0xD7F DUP14 DUP7 DUP2 MLOAD DUP2 LT PUSH2 0xD6B JUMPI PUSH2 0xD6B PUSH2 0x392D JUMP JUMPDEST PUSH1 0x20 MUL PUSH1 0x20 ADD ADD MLOAD DUP5 PUSH1 0x20 ADD MLOAD PUSH1 0x1 PUSH2 0x8ED JUMP JUMPDEST SWAP1 POP PUSH2 0xDA5 DUP16 DUP6 DUP16 DUP9 DUP2 MLOAD DUP2 LT PUSH2 0xD98 JUMPI PUSH2 0xD98 PUSH2 0x392D JUMP JUMPDEST PUSH1 0x20 MUL PUSH1 0x20 ADD ADD MLOAD PUSH2 0x1E29 JUMP JUMPDEST PUSH2 0xE02 JUMPI PUSH1 0x40 MLOAD PUSH3 0x461BCD PUSH1 0xE5 SHL DUP2 MSTORE PUSH1 0x20 PUSH1 0x4 DUP3 ADD MSTORE PUSH1 0x28 PUSH1 0x24 DUP3 ADD MSTORE PUSH32 0x63616E6E6F74207265706179206D6F7265207468616E20686173206265656E20 PUSH1 0x44 DUP3 ADD MSTORE PUSH8 0x189BDC9C9BDDD959 PUSH1 0xC2 SHL PUSH1 0x64 DUP3 ADD MSTORE PUSH1 0x84 ADD PUSH2 0x5E8 JUMP JUMPDEST PUSH1 0x60 DUP3 ADD MLOAD PUSH1 0x13 SLOAD PUSH1 0xFF AND PUSH2 0xE17 SWAP2 SWAP1 PUSH2 0x3B08 JUMP JUMPDEST PUSH2 0xE22 SWAP1 PUSH1 0xA PUSH2 0x3C01 JUMP JUMPDEST PUSH2 0xE2B DUP6 PUSH2 0x1E90 JUMP JUMPDEST PUSH1 0x1 PUSH1 0x1 PUSH1 0x40 SHL SUB AND DUP5 PUSH1 0x20 ADD MLOAD DUP4 PUSH2 0xE44 SWAP2 SWAP1 PUSH2 0x3916 JUMP JUMPDEST PUSH2 0xE4E SWAP2 SWAP1 PUSH2 0x3916 JUMP JUMPDEST PUSH2 0xE58 SWAP2 SWAP1 PUSH2 0x3916 JUMP JUMPDEST PUSH2 0xE62 SWAP1 DUP9 PUSH2 0x3AF5 JUMP JUMPDEST SWAP7 POP POP PUSH1 0x1 SWAP1 SWAP4 ADD SWAP3 POP PUSH2 0xD17 SWAP2 POP POP JUMP JUMPDEST POP PUSH0 JUMPDEST DUP8 MLOAD DUP2 LT ISZERO PUSH2 0xF65 JUMPI PUSH0 DUP9 DUP3 DUP2 MLOAD DUP2 LT PUSH2 0xE93 JUMPI PUSH2 0xE93 PUSH2 0x392D JUMP JUMPDEST PUSH1 0x20 MUL PUSH1 0x20 ADD ADD MLOAD SWAP1 POP PUSH0 PUSH2 0xEA7 DUP3 PUSH2 0xAB7 JUMP JUMPDEST SWAP1 POP PUSH0 PUSH2 0xEB3 DUP4 PUSH2 0x7A0 JUMP JUMPDEST SWAP1 POP PUSH0 PUSH2 0xEDD DUP12 DUP7 DUP2 MLOAD DUP2 LT PUSH2 0xECB JUMPI PUSH2 0xECB PUSH2 0x392D JUMP JUMPDEST PUSH1 0x20 MUL PUSH1 0x20 ADD ADD MLOAD DUP5 PUSH0 ADD MLOAD PUSH0 PUSH2 0x8ED JUMP JUMPDEST SWAP1 POP PUSH2 0xEEA DUP16 DUP6 DUP4 PUSH2 0x1EBC JUMP JUMPDEST PUSH2 0xEF4 DUP5 DUP3 PUSH2 0x1F35 JUMP JUMPDEST PUSH1 0x60 DUP3 ADD MLOAD PUSH1 0x13 SLOAD PUSH1 0xFF AND PUSH2 0xF09 SWAP2 SWAP1 PUSH2 0x3B08 JUMP JUMPDEST PUSH2 0xF14 SWAP1 PUSH1 0xA PUSH2 0x3C01 JUMP JUMPDEST PUSH2 0xF1D DUP6 PUSH2 0x1E90 JUMP JUMPDEST PUSH1 0x1 PUSH1 0x1 PUSH1 0x40 SHL SUB AND DUP5 PUSH0 ADD MLOAD DUP4 PUSH2 0xF35 SWAP2 SWAP1 PUSH2 0x3916 JUMP JUMPDEST PUSH2 0xF3F SWAP2 SWAP1 PUSH2 0x3916 JUMP JUMPDEST PUSH2 0xF49 SWAP2 SWAP1 PUSH2 0x3916 JUMP JUMPDEST PUSH2 0xF53 SWAP1 DUP8 PUSH2 0x3AF5 JUMP JUMPDEST SWAP6 POP POP PUSH1 0x1 SWAP1 SWAP4 ADD SWAP3 POP PUSH2 0xE77 SWAP2 POP POP JUMP JUMPDEST POP DUP2 DUP2 LT ISZERO PUSH2 0xFCE JUMPI PUSH1 0x40 MLOAD PUSH3 0x461BCD PUSH1 0xE5 SHL DUP2 MSTORE PUSH1 0x20 PUSH1 0x4 DUP3 ADD MSTORE PUSH1 0x2F PUSH1 0x24 DUP3 ADD MSTORE PUSH32 0x4C697175696461746F722072656365697074206C657373207468616E20616D6F PUSH1 0x44 DUP3 ADD MSTORE PUSH15 0x1D5B9D081D1A195E481C995C185A59 PUSH1 0x8A SHL PUSH1 0x64 DUP3 ADD MSTORE PUSH1 0x84 ADD PUSH2 0x5E8 JUMP JUMPDEST PUSH1 0x48 SLOAD DUP4 PUSH2 0xFDB PUSH1 0x47 SLOAD SWAP1 JUMP JUMPDEST PUSH2 0xFE5 SWAP2 SWAP1 PUSH2 0x3916 JUMP JUMPDEST PUSH2 0xFEF SWAP2 SWAP1 PUSH2 0x3ACE JUMP JUMPDEST DUP3 GT ISZERO PUSH2 0x1083 JUMPI PUSH1 0x40 MLOAD PUSH3 0x461BCD PUSH1 0xE5 SHL DUP2 MSTORE PUSH1 0x20 PUSH1 0x4 DUP3 ADD MSTORE PUSH1 0x56 PUSH1 0x24 DUP3 ADD MSTORE PUSH32 0x4C697175696461746F722063616E6E6F7420636C61696D206D6F726520746861 PUSH1 0x44 DUP3 ADD MSTORE PUSH32 0x6E206D61784C69717569646174696F6E506F7274696F6E206F66207468652074 PUSH1 0x64 DUP3 ADD MSTORE PUSH22 0x1BDD185B081919589D081BD9881D1A19481D985D5B1D PUSH1 0x52 SHL PUSH1 0x84 DUP3 ADD MSTORE PUSH1 0xA4 ADD PUSH2 0x5E8 JUMP JUMPDEST PUSH1 0x12 SLOAD DUP3 PUSH2 0x1090 PUSH1 0x8 SLOAD SWAP1 JUMP JUMPDEST PUSH2 0x109A SWAP2 SWAP1 PUSH2 0x3916 JUMP JUMPDEST PUSH2 0x10A4 SWAP2 SWAP1 PUSH2 0x3ACE JUMP JUMPDEST DUP2 GT ISZERO PUSH2 0x10FF JUMPI PUSH1 0x40 MLOAD PUSH3 0x461BCD PUSH1 0xE5 SHL DUP2 MSTORE PUSH1 0x20 PUSH1 0x4 DUP3 ADD MSTORE PUSH1 0x23 PUSH1 0x24 DUP3 ADD MSTORE PUSH32 0x4C697175696461746F7220726563656976696E6720746F6F206D756368207661 PUSH1 0x44 DUP3 ADD MSTORE PUSH3 0x6C7565 PUSH1 0xE8 SHL PUSH1 0x64 DUP3 ADD MSTORE PUSH1 0x84 ADD PUSH2 0x5E8 JUMP JUMPDEST POP POP POP POP POP POP POP POP POP POP JUMP JUMPDEST PUSH0 PUSH2 0x1116 DUP5 DUP5 PUSH2 0x14F0 JUMP JUMPDEST SWAP1 POP PUSH0 PUSH2 0x1122 DUP5 PUSH2 0x1676 JUMP JUMPDEST SWAP1 POP PUSH0 PUSH2 0x112E DUP6 PUSH2 0xAB7 JUMP JUMPDEST SWAP1 POP PUSH0 DUP8 PUSH1 0x5 DUP2 GT ISZERO PUSH2 0x1143 JUMPI PUSH2 0x1143 PUSH2 0x3AE1 JUMP JUMPDEST SUB PUSH2 0x1189 JUMPI PUSH0 PUSH2 0x1158 DUP6 DUP4 PUSH0 ADD MLOAD PUSH1 0x1 PUSH2 0x8ED JUMP JUMPDEST SWAP1 POP DUP1 DUP5 PUSH0 ADD DUP2 DUP2 MLOAD PUSH2 0x116B SWAP2 SWAP1 PUSH2 0x3AF5 JUMP JUMPDEST SWAP1 MSTORE POP DUP3 MLOAD DUP2 SWAP1 DUP5 SWAP1 PUSH2 0x117F SWAP1 DUP4 SWAP1 PUSH2 0x3AF5 JUMP JUMPDEST SWAP1 MSTORE POP PUSH2 0x1299 SWAP1 POP JUMP JUMPDEST PUSH1 0x2 DUP8 PUSH1 0x5 DUP2 GT ISZERO PUSH2 0x119D JUMPI PUSH2 0x119D PUSH2 0x3AE1 JUMP JUMPDEST SUB PUSH2 0x11D8 JUMPI PUSH0 PUSH2 0x11B1 DUP6 DUP4 PUSH0 ADD MLOAD PUSH0 PUSH2 0x8ED JUMP JUMPDEST SWAP1 POP DUP1 DUP5 PUSH0 ADD DUP2 DUP2 MLOAD PUSH2 0x11C4 SWAP2 SWAP1 PUSH2 0x3C0F JUMP JUMPDEST SWAP1 MSTORE POP DUP3 MLOAD DUP2 SWAP1 DUP5 SWAP1 PUSH2 0x117F SWAP1 DUP4 SWAP1 PUSH2 0x3C0F JUMP JUMPDEST PUSH1 0x1 DUP8 PUSH1 0x5 DUP2 GT ISZERO PUSH2 0x11EC JUMPI PUSH2 0x11EC PUSH2 0x3AE1 JUMP JUMPDEST SUB PUSH2 0x122C JUMPI PUSH0 PUSH2 0x1201 DUP6 DUP4 PUSH1 0x20 ADD MLOAD PUSH0 PUSH2 0x8ED JUMP JUMPDEST SWAP1 POP DUP1 DUP5 PUSH1 0x20 ADD DUP2 DUP2 MLOAD PUSH2 0x1215 SWAP2 SWAP1 PUSH2 0x3AF5 JUMP JUMPDEST SWAP1 MSTORE POP PUSH1 0x20 DUP4 ADD DUP1 MLOAD DUP3 SWAP2 SWAP1 PUSH2 0x117F SWAP1 DUP4 SWAP1 PUSH2 0x3AF5 JUMP JUMPDEST PUSH1 0x3 DUP8 PUSH1 0x5 DUP2 GT ISZERO PUSH2 0x1240 JUMPI PUSH2 0x1240 PUSH2 0x3AE1 JUMP JUMPDEST SUB PUSH2 0x1299 JUMPI PUSH0 PUSH2 0x1256 DUP6 DUP4 PUSH1 0x20 ADD MLOAD PUSH1 0x1 PUSH2 0x8ED JUMP JUMPDEST SWAP1 POP DUP4 PUSH1 0x20 ADD MLOAD DUP2 GT ISZERO PUSH2 0x126B JUMPI POP PUSH1 0x20 DUP4 ADD MLOAD JUMPDEST DUP1 DUP5 PUSH1 0x20 ADD DUP2 DUP2 MLOAD PUSH2 0x127D SWAP2 SWAP1 PUSH2 0x3C0F JUMP JUMPDEST SWAP1 MSTORE POP PUSH1 0x20 DUP4 ADD DUP1 MLOAD DUP3 SWAP2 SWAP1 PUSH2 0x1294 SWAP1 DUP4 SWAP1 PUSH2 0x3C0F JUMP JUMPDEST SWAP1 MSTORE POP POP JUMPDEST POP PUSH1 0x1 PUSH1 0x1 PUSH1 0xA0 SHL SUB SWAP5 DUP6 AND PUSH0 SWAP1 DUP2 MSTORE PUSH1 0xB PUSH1 0x20 SWAP1 DUP2 MSTORE PUSH1 0x40 DUP1 DUP4 KECCAK256 SWAP7 SWAP1 SWAP8 AND DUP3 MSTORE SWAP5 DUP6 MSTORE DUP6 DUP2 KECCAK256 DUP4 MLOAD DUP2 SSTORE SWAP3 DUP6 ADD MLOAD PUSH1 0x1 SWAP4 DUP5 ADD SSTORE PUSH1 0xC DUP6 MSTORE SWAP5 SWAP1 SWAP5 KECCAK256 DUP5 MLOAD DUP2 SSTORE SWAP4 SWAP1 SWAP3 ADD MLOAD SWAP3 SWAP1 SWAP2 ADD SWAP2 SWAP1 SWAP2 SSTORE POP POP JUMP JUMPDEST PUSH1 0x40 MLOAD PUSH1 0x1 PUSH1 0x1 PUSH1 0xA0 SHL SUB DUP5 DUP2 AND PUSH1 0x24 DUP4 ADD MSTORE DUP4 DUP2 AND PUSH1 0x44 DUP4 ADD MSTORE PUSH1 0x64 DUP3 ADD DUP4 SWAP1 MSTORE PUSH2 0xCA8 SWAP2 DUP7 SWAP2 DUP3 AND SWAP1 PUSH4 0x23B872DD SWAP1 PUSH1 0x84 ADD JUMPDEST PUSH1 0x40 MLOAD PUSH1 0x20 DUP2 DUP4 SUB SUB DUP2 MSTORE SWAP1 PUSH1 0x40 MSTORE SWAP2 POP PUSH1 0xE0 SHL PUSH1 0x20 DUP3 ADD DUP1 MLOAD PUSH1 0x1 PUSH1 0x1 PUSH1 0xE0 SHL SUB DUP4 DUP2 DUP4 AND OR DUP4 MSTORE POP POP POP POP PUSH2 0x1FB5 JUMP JUMPDEST PUSH1 0x40 MLOAD PUSH1 0x1 PUSH1 0x1 PUSH1 0xA0 SHL SUB DUP4 DUP2 AND PUSH1 0x24 DUP4 ADD MSTORE PUSH1 0x44 DUP3 ADD DUP4 SWAP1 MSTORE PUSH2 0x40A SWAP2 DUP6 SWAP2 DUP3 AND SWAP1 PUSH4 0xA9059CBB SWAP1 PUSH1 0x64 ADD PUSH2 0x1321 JUMP JUMPDEST PUSH0 DUP1 PUSH1 0x60 PUSH0 PUSH2 0x1392 DUP7 PUSH2 0x2016 JUMP JUMPDEST SWAP1 POP DUP5 ISZERO PUSH2 0x13B2 JUMPI PUSH2 0x13AB PUSH2 0x13A6 DUP8 PUSH2 0x21AC JUMP JUMPDEST PUSH2 0x22CF JUMP JUMPDEST SWAP2 POP PUSH2 0x13CE JUMP JUMPDEST PUSH2 0x13C6 DUP2 PUSH1 0x60 ADD MLOAD DUP3 PUSH1 0x80 ADD MLOAD PUSH0 SHR PUSH2 0x2301 JUMP JUMPDEST DUP1 PUSH1 0xE0 ADD MLOAD SWAP2 POP JUMPDEST PUSH0 PUSH2 0x13D8 DUP4 PUSH2 0x2373 JUMP JUMPDEST DUP1 MLOAD PUSH1 0x40 DUP3 ADD MLOAD SWAP2 SWAP3 POP SWAP1 PUSH2 0x13EC SWAP1 PUSH2 0x1B85 JUMP JUMPDEST PUSH1 0x1 SWAP6 POP PUSH0 PUSH2 0x13FE DUP4 PUSH1 0x40 ADD MLOAD PUSH2 0x2449 JUMP JUMPDEST PUSH1 0x2 DUP3 PUSH1 0x5 DUP2 GT ISZERO PUSH2 0x1412 JUMPI PUSH2 0x1412 PUSH2 0x3AE1 JUMP JUMPDEST SUB PUSH2 0x1436 JUMPI PUSH2 0x142E DUP4 PUSH1 0x20 ADD MLOAD DUP5 PUSH1 0x40 ADD MLOAD DUP6 PUSH1 0x60 ADD MLOAD PUSH2 0x249C JUMP JUMPDEST POP PUSH1 0x1 PUSH2 0x14A1 JUMP JUMPDEST PUSH1 0x1 DUP3 PUSH1 0x5 DUP2 GT ISZERO PUSH2 0x144A JUMPI PUSH2 0x144A PUSH2 0x3AE1 JUMP JUMPDEST SUB PUSH2 0x1466 JUMPI PUSH2 0x142E DUP4 PUSH1 0x20 ADD MLOAD DUP5 PUSH1 0x40 ADD MLOAD DUP6 PUSH1 0x60 ADD MLOAD PUSH2 0x25CB JUMP JUMPDEST PUSH1 0x3 DUP3 PUSH1 0x5 DUP2 GT ISZERO PUSH2 0x147A JUMPI PUSH2 0x147A PUSH2 0x3AE1 JUMP JUMPDEST SUB PUSH2 0x14A1 JUMPI PUSH2 0x1496 DUP4 PUSH1 0x20 ADD MLOAD DUP5 PUSH1 0x40 ADD MLOAD DUP6 PUSH1 0x60 ADD MLOAD PUSH2 0x1E29 JUMP JUMPDEST SWAP7 POP DUP7 PUSH2 0x14A1 JUMPI POP PUSH1 0x1 JUMPDEST DUP7 ISZERO PUSH2 0x14BF JUMPI PUSH2 0x14BF DUP3 DUP5 PUSH1 0x20 ADD MLOAD DUP6 PUSH1 0x40 ADD MLOAD DUP7 PUSH1 0x60 ADD MLOAD PUSH2 0x110B JUMP JUMPDEST DUP1 ISZERO PUSH2 0x14E4 JUMPI PUSH2 0x14E1 DUP4 PUSH1 0x20 ADD MLOAD DUP5 PUSH1 0x40 ADD MLOAD DUP6 PUSH1 0x60 ADD MLOAD DUP8 PUSH1 0x60 ADD MLOAD PUSH2 0x26F4 JUMP JUMPDEST SWAP6 POP JUMPDEST POP POP POP POP POP SWAP3 POP SWAP3 SWAP1 POP JUMP JUMPDEST PUSH1 0x40 DUP1 MLOAD DUP1 DUP3 ADD DUP3 MSTORE PUSH0 DUP1 DUP3 MSTORE PUSH1 0x20 SWAP2 DUP3 ADD DUP2 SWAP1 MSTORE PUSH1 0x1 PUSH1 0x1 PUSH1 0xA0 SHL SUB SWAP5 DUP6 AND DUP2 MSTORE PUSH1 0xB DUP3 MSTORE DUP3 DUP2 KECCAK256 SWAP4 SWAP1 SWAP5 AND DUP5 MSTORE SWAP2 DUP3 MSTORE SWAP2 DUP3 SWAP1 KECCAK256 DUP3 MLOAD DUP1 DUP5 ADD SWAP1 SWAP4 MSTORE DUP1 SLOAD DUP4 MSTORE PUSH1 0x1 ADD SLOAD SWAP1 DUP3 ADD MSTORE SWAP1 JUMP JUMPDEST PUSH1 0x40 DUP1 MLOAD DUP1 DUP3 ADD DUP3 MSTORE PUSH0 DUP1 DUP3 MSTORE PUSH1 0x20 DUP1 DUP4 ADD DUP3 SWAP1 MSTORE PUSH1 0x1 PUSH1 0x1 PUSH1 0xA0 SHL SUB DUP6 AND DUP3 MSTORE PUSH1 0xF SWAP1 MSTORE SWAP2 DUP3 KECCAK256 SLOAD SWAP1 SWAP2 PUSH2 0x1572 DUP3 TIMESTAMP PUSH2 0x3C0F JUMP JUMPDEST SWAP1 POP PUSH0 PUSH2 0x1593 DUP6 PUSH1 0x1 PUSH1 0x1 PUSH1 0xA0 SHL SUB AND PUSH0 SWAP1 DUP2 MSTORE PUSH1 0xC PUSH1 0x20 MSTORE PUSH1 0x40 SWAP1 KECCAK256 SLOAD SWAP1 JUMP JUMPDEST SWAP1 POP PUSH0 PUSH2 0x159F DUP7 PUSH2 0xAB7 JUMP JUMPDEST SWAP1 POP DUP3 ISZERO DUP1 ISZERO SWAP1 PUSH2 0x15AF JUMPI POP DUP2 ISZERO ISZERO JUMPDEST ISZERO PUSH2 0x166D JUMPI PUSH1 0x1 PUSH1 0x1 PUSH1 0xA0 SHL SUB DUP7 AND PUSH0 SWAP1 DUP2 MSTORE PUSH1 0xC PUSH1 0x20 MSTORE PUSH1 0x40 DUP2 KECCAK256 PUSH1 0x1 ADD SLOAD SWAP1 PUSH2 0x15D9 DUP9 PUSH2 0x2797 JUMP JUMPDEST SWAP1 POP PUSH0 PUSH2 0x15E8 DUP7 DUP7 DUP6 DUP6 PUSH2 0x27E4 JUMP JUMPDEST SWAP1 POP PUSH0 PUSH2 0x15F4 DUP11 PUSH2 0x7A0 JUMP JUMPDEST PUSH1 0x80 DUP1 DUP3 ADD MLOAD PUSH1 0x60 DUP2 ADD MLOAD SWAP2 ADD MLOAD PUSH1 0x20 DUP9 ADD DUP1 MLOAD SWAP4 SWAP5 POP SWAP2 SWAP3 SWAP1 SWAP2 DUP6 SWAP2 PUSH2 0x161C SWAP1 DUP4 SWAP1 PUSH2 0x3AF5 JUMP JUMPDEST SWAP1 MSTORE POP DUP8 DUP2 DUP8 PUSH2 0x162C DUP6 DUP4 PUSH2 0x3C0F JUMP JUMPDEST PUSH2 0x1636 SWAP1 DUP9 PUSH2 0x3916 JUMP JUMPDEST PUSH2 0x1640 SWAP2 SWAP1 PUSH2 0x3916 JUMP JUMPDEST PUSH2 0x164A SWAP2 SWAP1 PUSH2 0x3ACE JUMP JUMPDEST PUSH2 0x1654 SWAP2 SWAP1 PUSH2 0x3ACE JUMP JUMPDEST DUP8 MLOAD DUP9 SWAP1 PUSH2 0x1663 SWAP1 DUP4 SWAP1 PUSH2 0x3AF5 JUMP JUMPDEST SWAP1 MSTORE POP POP POP POP POP POP POP JUMPDEST SWAP6 SWAP5 POP POP POP POP POP JUMP JUMPDEST PUSH1 0x40 DUP1 MLOAD DUP1 DUP3 ADD SWAP1 SWAP2 MSTORE PUSH0 DUP1 DUP3 MSTORE PUSH1 0x20 DUP3 ADD MSTORE POP PUSH1 0x1 PUSH1 0x1 PUSH1 0xA0 SHL SUB AND PUSH0 SWAP1 DUP2 MSTORE PUSH1 0xC PUSH1 0x20 SWAP1 DUP2 MSTORE PUSH1 0x40 SWAP2 DUP3 SWAP1 KECCAK256 DUP3 MLOAD DUP1 DUP5 ADD SWAP1 SWAP4 MSTORE DUP1 SLOAD DUP4 MSTORE PUSH1 0x1 ADD SLOAD SWAP1 DUP3 ADD MSTORE SWAP1 JUMP JUMPDEST PUSH0 SLOAD PUSH1 0x1 PUSH1 0x1 PUSH1 0xA0 SHL SUB AND CALLER EQ PUSH2 0x584 JUMPI PUSH1 0x40 MLOAD PUSH4 0x118CDAA7 PUSH1 0xE0 SHL DUP2 MSTORE CALLER PUSH1 0x4 DUP3 ADD MSTORE PUSH1 0x24 ADD PUSH2 0x5E8 JUMP JUMPDEST PUSH0 DUP1 SLOAD PUSH1 0x1 PUSH1 0x1 PUSH1 0xA0 SHL SUB DUP4 DUP2 AND PUSH1 0x1 PUSH1 0x1 PUSH1 0xA0 SHL SUB NOT DUP4 AND DUP2 OR DUP5 SSTORE PUSH1 0x40 MLOAD SWAP2 SWAP1 SWAP3 AND SWAP3 DUP4 SWAP2 PUSH32 0x8BE0079C531659141344CD1FD0A4F28419497F9722A3DAAFE3B4186F6B6457E0 SWAP2 SWAP1 LOG3 POP POP JUMP JUMPDEST PUSH1 0x80 DUP2 ADD MLOAD PUSH1 0x20 DUP2 ADD MLOAD PUSH1 0x40 SWAP1 SWAP2 ADD MLOAD DUP2 MLOAD DUP2 MLOAD DUP1 DUP3 EQ PUSH2 0x17AF JUMPI PUSH1 0x40 MLOAD PUSH3 0x461BCD PUSH1 0xE5 SHL DUP2 MSTORE PUSH1 0x20 PUSH1 0x4 DUP3 ADD MSTORE PUSH1 0x2D PUSH1 0x24 DUP3 ADD MSTORE PUSH32 0x6C656E67746873206F66206B696E6B7320616E64207261746573206172726179 PUSH1 0x44 DUP3 ADD MSTORE PUSH13 0xE640C8DEDC4EE840DAC2E8C6D PUSH1 0x9B SHL PUSH1 0x64 DUP3 ADD MSTORE PUSH1 0x84 ADD PUSH2 0x5E8 JUMP JUMPDEST DUP4 PUSH0 DUP2 MLOAD DUP2 LT PUSH2 0x17C1 JUMPI PUSH2 0x17C1 PUSH2 0x392D JUMP JUMPDEST PUSH1 0x20 MUL PUSH1 0x20 ADD ADD MLOAD PUSH0 EQ PUSH2 0x1817 JUMPI PUSH1 0x40 MLOAD PUSH3 0x461BCD PUSH1 0xE5 SHL DUP2 MSTORE PUSH1 0x20 PUSH1 0x4 DUP3 ADD MSTORE PUSH1 0x17 PUSH1 0x24 DUP3 ADD MSTORE PUSH32 0x6669727374206B696E6B206D7573742062652061742030000000000000000000 PUSH1 0x44 DUP3 ADD MSTORE PUSH1 0x64 ADD PUSH2 0x5E8 JUMP JUMPDEST PUSH1 0x1 JUMPDEST DUP3 DUP2 LT ISZERO PUSH2 0x18C4 JUMPI DUP5 PUSH2 0x182E PUSH1 0x1 DUP4 PUSH2 0x3C0F JUMP JUMPDEST DUP2 MLOAD DUP2 LT PUSH2 0x183E JUMPI PUSH2 0x183E PUSH2 0x392D JUMP JUMPDEST PUSH1 0x20 MUL PUSH1 0x20 ADD ADD MLOAD DUP6 DUP3 DUP2 MLOAD DUP2 LT PUSH2 0x1858 JUMPI PUSH2 0x1858 PUSH2 0x392D JUMP JUMPDEST PUSH1 0x20 MUL PUSH1 0x20 ADD ADD MLOAD GT PUSH2 0x18BC JUMPI PUSH1 0x40 MLOAD PUSH3 0x461BCD PUSH1 0xE5 SHL DUP2 MSTORE PUSH1 0x20 PUSH1 0x4 DUP3 ADD MSTORE PUSH1 0x26 PUSH1 0x24 DUP3 ADD MSTORE PUSH32 0x6B696E6B73206D757374206265206D6F6E6F746F6E6963616C6C7920696E6372 PUSH1 0x44 DUP3 ADD MSTORE PUSH6 0x656173696E67 PUSH1 0xD0 SHL PUSH1 0x64 DUP3 ADD MSTORE PUSH1 0x84 ADD PUSH2 0x5E8 JUMP JUMPDEST PUSH1 0x1 ADD PUSH2 0x181A JUMP JUMPDEST POP PUSH1 0x80 DUP6 ADD MLOAD MLOAD PUSH1 0x1 PUSH1 0x1 PUSH1 0x40 SHL SUB AND DUP5 PUSH2 0x18E0 PUSH1 0x1 DUP6 PUSH2 0x3C0F JUMP JUMPDEST DUP2 MLOAD DUP2 LT PUSH2 0x18F0 JUMPI PUSH2 0x18F0 PUSH2 0x392D JUMP JUMPDEST PUSH1 0x20 MUL PUSH1 0x20 ADD ADD MLOAD EQ PUSH2 0x1956 JUMPI PUSH1 0x40 MLOAD PUSH3 0x461BCD PUSH1 0xE5 SHL DUP2 MSTORE PUSH1 0x20 PUSH1 0x4 DUP3 ADD MSTORE PUSH1 0x28 PUSH1 0x24 DUP3 ADD MSTORE PUSH32 0x6C617374206B696E6B206D75737420626520312028692E652E20726174655072 PUSH1 0x44 DUP3 ADD MSTORE PUSH8 0x65636973696F6E29 PUSH1 0xC0 SHL PUSH1 0x64 DUP3 ADD MSTORE PUSH1 0x84 ADD PUSH2 0x5E8 JUMP JUMPDEST PUSH1 0x1 JUMPDEST DUP2 DUP2 LT ISZERO PUSH2 0x1A08 JUMPI DUP4 PUSH2 0x196D PUSH1 0x1 DUP4 PUSH2 0x3C0F JUMP JUMPDEST DUP2 MLOAD DUP2 LT PUSH2 0x197D JUMPI PUSH2 0x197D PUSH2 0x392D JUMP JUMPDEST PUSH1 0x20 MUL PUSH1 0x20 ADD ADD MLOAD DUP5 DUP3 DUP2 MLOAD DUP2 LT PUSH2 0x1997 JUMPI PUSH2 0x1997 PUSH2 0x392D JUMP JUMPDEST PUSH1 0x20 MUL PUSH1 0x20 ADD ADD MLOAD LT ISZERO PUSH2 0x1A00 JUMPI PUSH1 0x40 MLOAD PUSH3 0x461BCD PUSH1 0xE5 SHL DUP2 MSTORE PUSH1 0x20 PUSH1 0x4 DUP3 ADD MSTORE PUSH1 0x2A PUSH1 0x24 DUP3 ADD MSTORE PUSH32 0x7261746573206D757374206265206D6F6E6F746F6E6963616C6C79206E6F6E2D PUSH1 0x44 DUP3 ADD MSTORE PUSH10 0x64656372656173696E67 PUSH1 0xB0 SHL PUSH1 0x64 DUP3 ADD MSTORE PUSH1 0x84 ADD PUSH2 0x5E8 JUMP JUMPDEST PUSH1 0x1 ADD PUSH2 0x1959 JUMP JUMPDEST POP PUSH1 0x1 PUSH1 0x1 PUSH1 0xA0 SHL SUB DUP7 AND PUSH0 SWAP1 DUP2 MSTORE PUSH1 0xA PUSH1 0x20 SWAP1 DUP2 MSTORE PUSH1 0x40 SWAP2 DUP3 SWAP1 KECCAK256 DUP8 MLOAD DUP2 SSTORE DUP8 DUP3 ADD MLOAD PUSH1 0x1 DUP3 ADD SSTORE SWAP2 DUP8 ADD MLOAD PUSH1 0x2 DUP4 ADD SSTORE PUSH1 0x60 DUP8 ADD MLOAD PUSH1 0x3 DUP4 ADD DUP1 SLOAD PUSH1 0xFF NOT AND PUSH1 0xFF SWAP1 SWAP3 AND SWAP2 SWAP1 SWAP2 OR SWAP1 SSTORE PUSH1 0x80 DUP8 ADD MLOAD DUP1 MLOAD PUSH1 0x4 DUP5 ADD DUP1 SLOAD PUSH8 0xFFFFFFFFFFFFFFFF NOT AND PUSH1 0x1 PUSH1 0x1 PUSH1 0x40 SHL SUB SWAP1 SWAP3 AND SWAP2 SWAP1 SWAP2 OR DUP2 SSTORE DUP2 DUP4 ADD MLOAD DUP1 MLOAD DUP11 SWAP6 SWAP5 PUSH2 0x1A97 SWAP3 PUSH1 0x5 DUP8 ADD SWAP3 SWAP2 ADD SWAP1 PUSH2 0x322E JUMP JUMPDEST POP PUSH1 0x40 DUP3 ADD MLOAD DUP1 MLOAD PUSH2 0x1AB3 SWAP2 PUSH1 0x2 DUP5 ADD SWAP2 PUSH1 0x20 SWAP1 SWAP2 ADD SWAP1 PUSH2 0x322E JUMP JUMPDEST POP PUSH1 0x60 DUP3 ADD MLOAD PUSH1 0x3 DUP3 ADD SSTORE PUSH1 0x80 SWAP1 SWAP2 ADD MLOAD PUSH1 0x4 SWAP1 SWAP2 ADD SSTORE PUSH1 0xA0 SWAP2 SWAP1 SWAP2 ADD MLOAD PUSH1 0x9 SWAP1 SWAP2 ADD DUP1 SLOAD PUSH1 0xFF NOT AND SWAP2 ISZERO ISZERO SWAP2 SWAP1 SWAP2 OR SWAP1 SSTORE PUSH1 0x40 DUP1 MLOAD DUP1 DUP3 ADD SWAP1 SWAP2 MSTORE PUSH0 DUP1 DUP3 MSTORE PUSH1 0x20 DUP3 ADD MSTORE PUSH1 0x11 SLOAD PUSH2 0x1B06 SWAP1 PUSH1 0x1 PUSH2 0x3916 JUMP JUMPDEST DUP2 MSTORE PUSH1 0x11 SLOAD PUSH2 0x1B16 SWAP1 PUSH1 0x1 PUSH2 0x3916 JUMP JUMPDEST PUSH1 0x20 DUP3 DUP2 ADD SWAP2 DUP3 MSTORE PUSH1 0x1 PUSH1 0x1 PUSH1 0xA0 SHL SUB DUP10 AND PUSH0 SWAP1 DUP2 MSTORE PUSH1 0xD SWAP1 SWAP2 MSTORE PUSH1 0x40 SWAP1 KECCAK256 DUP3 MLOAD DUP2 SSTORE SWAP1 MLOAD PUSH1 0x1 SWAP1 SWAP2 ADD SSTORE PUSH0 PUSH2 0x1B4E PUSH1 0x13 SLOAD PUSH1 0xFF AND SWAP1 JUMP JUMPDEST SWAP1 POP DUP1 PUSH1 0xFF AND DUP8 PUSH1 0x60 ADD MLOAD PUSH1 0xFF AND GT ISZERO PUSH2 0x1B7B JUMPI PUSH1 0x60 DUP8 ADD MLOAD PUSH1 0x13 DUP1 SLOAD PUSH1 0xFF NOT AND PUSH1 0xFF SWAP1 SWAP3 AND SWAP2 SWAP1 SWAP2 OR SWAP1 SSTORE JUMPDEST POP POP POP POP POP POP POP POP JUMP JUMPDEST PUSH0 PUSH2 0x1B8F DUP3 PUSH2 0x7A0 JUMP JUMPDEST SWAP1 POP DUP1 PUSH1 0xA0 ADD MLOAD PUSH2 0x942 JUMPI PUSH1 0x40 MLOAD PUSH3 0x461BCD PUSH1 0xE5 SHL DUP2 MSTORE PUSH1 0x20 PUSH1 0x4 DUP3 ADD MSTORE PUSH1 0x12 PUSH1 0x24 DUP3 ADD MSTORE PUSH18 0x155B9C9959DA5CDD195C995908185CDCD95D PUSH1 0x72 SHL PUSH1 0x44 DUP3 ADD MSTORE PUSH1 0x64 ADD PUSH2 0x5E8 JUMP JUMPDEST PUSH0 JUMPDEST DUP2 MLOAD DUP2 LT ISZERO PUSH2 0x942 JUMPI PUSH0 JUMPDEST DUP2 DUP2 LT ISZERO PUSH2 0x1C95 JUMPI DUP3 DUP2 DUP2 MLOAD DUP2 LT PUSH2 0x1BFE JUMPI PUSH2 0x1BFE PUSH2 0x392D JUMP JUMPDEST PUSH1 0x20 MUL PUSH1 0x20 ADD ADD MLOAD PUSH1 0x1 PUSH1 0x1 PUSH1 0xA0 SHL SUB AND DUP4 DUP4 DUP2 MLOAD DUP2 LT PUSH2 0x1C21 JUMPI PUSH2 0x1C21 PUSH2 0x392D JUMP JUMPDEST PUSH1 0x20 MUL PUSH1 0x20 ADD ADD MLOAD PUSH1 0x1 PUSH1 0x1 PUSH1 0xA0 SHL SUB AND SUB PUSH2 0x1C8D JUMPI PUSH1 0x40 MLOAD PUSH3 0x461BCD PUSH1 0xE5 SHL DUP2 MSTORE PUSH1 0x20 PUSH1 0x4 DUP3 ADD MSTORE PUSH1 0x25 PUSH1 0x24 DUP3 ADD MSTORE PUSH32 0x4164647265737320617272617920686173206475706C69636174652061646472 PUSH1 0x44 DUP3 ADD MSTORE PUSH5 0x6573736573 PUSH1 0xD8 SHL PUSH1 0x64 DUP3 ADD MSTORE PUSH1 0x84 ADD PUSH2 0x5E8 JUMP JUMPDEST PUSH1 0x1 ADD PUSH2 0x1BE4 JUMP JUMPDEST POP PUSH1 0x1 ADD PUSH2 0x1BD9 JUMP JUMPDEST PUSH0 DUP1 PUSH0 DUP1 PUSH0 PUSH2 0x1CAB PUSH2 0x2A37 JUMP JUMPDEST SWAP1 POP PUSH0 JUMPDEST DUP2 MLOAD DUP2 LT ISZERO PUSH2 0x1E1C JUMPI PUSH0 DUP3 DUP3 DUP2 MLOAD DUP2 LT PUSH2 0x1CCB JUMPI PUSH2 0x1CCB PUSH2 0x392D JUMP JUMPDEST PUSH1 0x20 MUL PUSH1 0x20 ADD ADD MLOAD SWAP1 POP PUSH0 PUSH2 0x1CDF DUP3 PUSH2 0x7A0 JUMP JUMPDEST SWAP1 POP PUSH0 PUSH2 0x1CEB DUP4 PUSH2 0xAB7 JUMP JUMPDEST SWAP1 POP PUSH0 DUP1 PUSH0 PUSH2 0x1CFA DUP15 DUP8 PUSH2 0x14F0 JUMP JUMPDEST DUP5 MLOAD DUP2 MLOAD SWAP2 SWAP3 POP PUSH2 0x1D0A SWAP2 PUSH2 0x3916 JUMP JUMPDEST SWAP3 POP DUP4 PUSH1 0x20 ADD MLOAD DUP2 PUSH1 0x20 ADD MLOAD PUSH2 0x1D20 SWAP2 SWAP1 PUSH2 0x3916 JUMP JUMPDEST SWAP2 POP POP PUSH0 DUP13 PUSH2 0x1D30 JUMPI PUSH1 0x1 PUSH2 0x1D33 JUMP JUMPDEST DUP5 MLOAD JUMPDEST SWAP1 POP PUSH0 DUP14 PUSH2 0x1D42 JUMPI PUSH1 0x1 PUSH2 0x1D48 JUMP JUMPDEST DUP6 PUSH1 0x20 ADD MLOAD JUMPDEST SWAP1 POP PUSH0 DUP1 PUSH2 0x1D55 DUP10 PUSH2 0x2A9A JUMP JUMPDEST SWAP2 POP SWAP2 POP PUSH0 PUSH2 0x1D66 PUSH1 0x13 SLOAD PUSH1 0xFF AND SWAP1 JUMP JUMPDEST SWAP1 POP DUP5 DUP10 PUSH1 0x60 ADD MLOAD DUP3 PUSH2 0x1D79 SWAP2 SWAP1 PUSH2 0x3B08 JUMP JUMPDEST PUSH2 0x1D84 SWAP1 PUSH1 0xA PUSH2 0x3C01 JUMP JUMPDEST PUSH2 0x1D97 PUSH1 0x1 PUSH1 0x1 PUSH1 0x40 SHL SUB DUP7 AND DUP11 PUSH2 0x3916 JUMP JUMPDEST PUSH2 0x1DA1 SWAP2 SWAP1 PUSH2 0x3916 JUMP JUMPDEST PUSH2 0x1DAB SWAP2 SWAP1 PUSH2 0x3916 JUMP JUMPDEST PUSH2 0x1DB5 SWAP1 DUP16 PUSH2 0x3AF5 JUMP JUMPDEST SWAP14 POP DUP4 DUP10 PUSH1 0x60 ADD MLOAD DUP3 PUSH2 0x1DC8 SWAP2 SWAP1 PUSH2 0x3B08 JUMP JUMPDEST PUSH2 0x1DD3 SWAP1 PUSH1 0xA PUSH2 0x3C01 JUMP JUMPDEST PUSH2 0x1DE6 PUSH1 0x1 PUSH1 0x1 PUSH1 0x40 SHL SUB DUP6 AND DUP10 PUSH2 0x3916 JUMP JUMPDEST PUSH2 0x1DF0 SWAP2 SWAP1 PUSH2 0x3916 JUMP JUMPDEST PUSH2 0x1DFA SWAP2 SWAP1 PUSH2 0x3916 JUMP JUMPDEST PUSH2 0x1E04 SWAP1 DUP15 PUSH2 0x3AF5 JUMP JUMPDEST SWAP13 POP POP PUSH1 0x1 SWAP1 SWAP10 ADD SWAP9 POP PUSH2 0x1CAF SWAP8 POP POP POP POP POP POP POP POP JUMP JUMPDEST POP SWAP2 SWAP7 SWAP1 SWAP6 POP SWAP4 POP POP POP POP JUMP JUMPDEST PUSH0 DUP1 PUSH2 0x1E35 DUP6 DUP6 PUSH2 0x14F0 JUMP JUMPDEST SWAP1 POP PUSH0 PUSH2 0x1E41 DUP6 PUSH2 0xAB7 JUMP JUMPDEST SWAP1 POP PUSH0 PUSH2 0x1E4D DUP7 PUSH2 0x7A0 JUMP JUMPDEST PUSH1 0x60 ADD MLOAD SWAP1 POP PUSH0 PUSH2 0x1E67 DUP5 PUSH1 0x20 ADD MLOAD DUP5 PUSH1 0x20 ADD MLOAD PUSH0 PUSH2 0x283 JUMP JUMPDEST SWAP1 POP PUSH0 PUSH2 0x1E76 DUP8 DUP5 PUSH1 0x1 PUSH2 0x2B55 JUMP JUMPDEST PUSH2 0x1E81 DUP4 DUP6 PUSH0 PUSH2 0x2B55 JUMP JUMPDEST LT ISZERO SWAP10 SWAP9 POP POP POP POP POP POP POP POP POP JUMP JUMPDEST PUSH0 DUP1 PUSH2 0x1E9B DUP4 PUSH2 0x2BD4 JUMP JUMPDEST POP PUSH1 0x49 SLOAD SWAP1 SWAP2 POP PUSH1 0x1 PUSH1 0x40 SHL SWAP1 DIV PUSH1 0x1 PUSH1 0x1 PUSH1 0x40 SHL SUB AND PUSH2 0x29D SWAP1 DUP3 PUSH2 0x3C22 JUMP JUMPDEST PUSH0 PUSH2 0x1EC7 DUP5 DUP5 PUSH2 0x14F0 JUMP JUMPDEST SWAP1 POP DUP2 DUP2 PUSH1 0x20 ADD MLOAD PUSH2 0x1ED9 SWAP2 SWAP1 PUSH2 0x3AF5 JUMP JUMPDEST DUP2 MLOAD LT ISZERO PUSH2 0xCA8 JUMPI PUSH1 0x40 MLOAD PUSH3 0x461BCD PUSH1 0xE5 SHL DUP2 MSTORE PUSH1 0x20 PUSH1 0x4 DUP3 ADD MSTORE PUSH1 0x23 PUSH1 0x24 DUP3 ADD MSTORE PUSH32 0x5661756C7420646F6573206E6F74206861766520726571756972656420617373 PUSH1 0x44 DUP3 ADD MSTORE PUSH3 0x657473 PUSH1 0xE8 SHL PUSH1 0x64 DUP3 ADD MSTORE PUSH1 0x84 ADD PUSH2 0x5E8 JUMP JUMPDEST PUSH0 PUSH2 0x1F3F DUP4 PUSH2 0x1676 JUMP JUMPDEST SWAP1 POP DUP2 DUP2 PUSH1 0x20 ADD MLOAD PUSH2 0x1F51 SWAP2 SWAP1 PUSH2 0x3AF5 JUMP JUMPDEST DUP2 MLOAD LT ISZERO PUSH2 0x40A JUMPI PUSH1 0x40 MLOAD PUSH3 0x461BCD PUSH1 0xE5 SHL DUP2 MSTORE PUSH1 0x20 PUSH1 0x4 DUP3 ADD MSTORE PUSH1 0x2B PUSH1 0x24 DUP3 ADD MSTORE PUSH32 0x476C6F62616C20737570706C7920646F6573206E6F7420686176652072657175 PUSH1 0x44 DUP3 ADD MSTORE PUSH11 0x6972656420617373657473 PUSH1 0xA8 SHL PUSH1 0x64 DUP3 ADD MSTORE PUSH1 0x84 ADD PUSH2 0x5E8 JUMP JUMPDEST PUSH0 PUSH2 0x1FC9 PUSH1 0x1 PUSH1 0x1 PUSH1 0xA0 SHL SUB DUP5 AND DUP4 PUSH2 0x2D30 JUMP JUMPDEST SWAP1 POP DUP1 MLOAD PUSH0 EQ ISZERO DUP1 ISZERO PUSH2 0x1FED JUMPI POP DUP1 DUP1 PUSH1 0x20 ADD SWAP1 MLOAD DUP2 ADD SWAP1 PUSH2 0x1FEB SWAP2 SWAP1 PUSH2 0x3C5C JUMP JUMPDEST ISZERO JUMPDEST ISZERO PUSH2 0x40A JUMPI PUSH1 0x40 MLOAD PUSH4 0x5274AFE7 PUSH1 0xE0 SHL DUP2 MSTORE PUSH1 0x1 PUSH1 0x1 PUSH1 0xA0 SHL SUB DUP5 AND PUSH1 0x4 DUP3 ADD MSTORE PUSH1 0x24 ADD PUSH2 0x5E8 JUMP JUMPDEST PUSH1 0x40 DUP1 MLOAD PUSH2 0x160 DUP2 ADD DUP3 MSTORE PUSH0 DUP1 DUP3 MSTORE PUSH1 0x20 DUP3 ADD DUP2 SWAP1 MSTORE SWAP2 DUP2 ADD DUP3 SWAP1 MSTORE PUSH1 0x60 DUP1 DUP3 ADD DUP4 SWAP1 MSTORE PUSH1 0x80 DUP3 ADD DUP4 SWAP1 MSTORE PUSH1 0xA0 DUP3 ADD DUP4 SWAP1 MSTORE PUSH1 0xC0 DUP3 ADD DUP4 SWAP1 MSTORE PUSH1 0xE0 DUP3 ADD DUP2 SWAP1 MSTORE PUSH2 0x100 DUP3 ADD DUP4 SWAP1 MSTORE PUSH2 0x120 DUP3 ADD MSTORE PUSH2 0x140 DUP2 ADD SWAP2 SWAP1 SWAP2 MSTORE PUSH0 DUP1 PUSH0 PUSH2 0x2089 PUSH1 0x1 SLOAD PUSH1 0x1 PUSH1 0x1 PUSH1 0xA0 SHL SUB PUSH3 0x10000 SWAP1 SWAP2 DIV AND SWAP1 JUMP JUMPDEST PUSH1 0x1 PUSH1 0x1 PUSH1 0xA0 SHL SUB AND PUSH4 0xC0FD8BDE DUP7 PUSH1 0x40 MLOAD DUP3 PUSH4 0xFFFFFFFF AND PUSH1 0xE0 SHL DUP2 MSTORE PUSH1 0x4 ADD PUSH2 0x20B4 SWAP2 SWAP1 PUSH2 0x3C75 JUMP JUMPDEST PUSH0 PUSH1 0x40 MLOAD DUP1 DUP4 SUB DUP2 DUP7 GAS STATICCALL ISZERO DUP1 ISZERO PUSH2 0x20CE JUMPI RETURNDATASIZE PUSH0 DUP1 RETURNDATACOPY RETURNDATASIZE PUSH0 REVERT JUMPDEST POP POP POP POP PUSH1 0x40 MLOAD RETURNDATASIZE PUSH0 DUP3 RETURNDATACOPY PUSH1 0x1F RETURNDATASIZE SWAP1 DUP2 ADD PUSH1 0x1F NOT AND DUP3 ADD PUSH1 0x40 MSTORE PUSH2 0x20F5 SWAP2 SWAP1 DUP2 ADD SWAP1 PUSH2 0x3D4C JUMP JUMPDEST SWAP3 POP SWAP3 POP SWAP3 POP DUP2 DUP2 SWAP1 PUSH2 0x211B JUMPI PUSH1 0x40 MLOAD PUSH3 0x461BCD PUSH1 0xE5 SHL DUP2 MSTORE PUSH1 0x4 ADD PUSH2 0x5E8 SWAP2 SWAP1 PUSH2 0x3C75 JUMP JUMPDEST POP PUSH2 0x140 DUP4 ADD MLOAD PUSH0 SWAP1 DUP2 MSTORE PUSH1 0xE PUSH1 0x20 MSTORE PUSH1 0x40 SWAP1 KECCAK256 SLOAD PUSH1 0xFF AND ISZERO PUSH2 0x2180 JUMPI PUSH1 0x40 MLOAD PUSH3 0x461BCD PUSH1 0xE5 SHL DUP2 MSTORE PUSH1 0x20 PUSH1 0x4 DUP3 ADD MSTORE PUSH1 0x18 PUSH1 0x24 DUP3 ADD MSTORE PUSH32 0x6D65737361676520616C726561647920636F6E73756D65640000000000000000 PUSH1 0x44 DUP3 ADD MSTORE PUSH1 0x64 ADD PUSH2 0x5E8 JUMP JUMPDEST PUSH2 0x21A3 DUP4 PUSH2 0x140 ADD MLOAD PUSH0 SWAP1 DUP2 MSTORE PUSH1 0xE PUSH1 0x20 MSTORE PUSH1 0x40 SWAP1 KECCAK256 DUP1 SLOAD PUSH1 0xFF NOT AND PUSH1 0x1 OR SWAP1 SSTORE JUMP JUMPDEST POP SWAP1 SWAP4 SWAP3 POP POP POP JUMP JUMPDEST PUSH1 0x60 PUSH0 PUSH2 0x21C8 PUSH1 0x1 SLOAD PUSH1 0x1 PUSH1 0x1 PUSH1 0xA0 SHL SUB PUSH3 0x10000 SWAP1 SWAP2 DIV AND SWAP1 JUMP JUMPDEST PUSH1 0x1 PUSH1 0x1 PUSH1 0xA0 SHL SUB AND PUSH4 0xC0FD8BDE DUP5 PUSH1 0x40 MLOAD DUP3 PUSH4 0xFFFFFFFF AND PUSH1 0xE0 SHL DUP2 MSTORE PUSH1 0x4 ADD PUSH2 0x21F3 SWAP2 SWAP1 PUSH2 0x3C75 JUMP JUMPDEST PUSH0 PUSH1 0x40 MLOAD DUP1 DUP4 SUB DUP2 DUP7 GAS STATICCALL ISZERO DUP1 ISZERO PUSH2 0x220D JUMPI RETURNDATASIZE PUSH0 DUP1 RETURNDATACOPY RETURNDATASIZE PUSH0 REVERT JUMPDEST POP POP POP POP PUSH1 0x40 MLOAD RETURNDATASIZE PUSH0 DUP3 RETURNDATACOPY PUSH1 0x1F RETURNDATASIZE SWAP1 DUP2 ADD PUSH1 0x1F NOT AND DUP3 ADD PUSH1 0x40 MSTORE PUSH2 0x2234 SWAP2 SWAP1 DUP2 ADD SWAP1 PUSH2 0x3D4C JUMP JUMPDEST POP POP SWAP1 POP PUSH2 0x225D DUP2 PUSH1 0x60 ADD MLOAD PUSH2 0x2258 PUSH1 0x65 DUP5 PUSH1 0xE0 ADD MLOAD PUSH2 0x2D3D SWAP1 SWAP2 SWAP1 PUSH4 0xFFFFFFFF AND JUMP JUMPDEST PUSH2 0x2301 JUMP JUMPDEST PUSH1 0x2 SLOAD PUSH1 0x40 MLOAD PUSH4 0xC3F511C1 PUSH1 0xE0 SHL DUP2 MSTORE PUSH1 0x1 PUSH1 0x1 PUSH1 0xA0 SHL SUB SWAP1 SWAP2 AND SWAP1 PUSH4 0xC3F511C1 SWAP1 PUSH2 0x228D SWAP1 DUP7 SWAP1 PUSH1 0x4 ADD PUSH2 0x3C75 JUMP JUMPDEST PUSH0 PUSH1 0x40 MLOAD DUP1 DUP4 SUB DUP2 PUSH0 DUP8 GAS CALL ISZERO DUP1 ISZERO PUSH2 0x22A8 JUMPI RETURNDATASIZE PUSH0 DUP1 RETURNDATACOPY RETURNDATASIZE PUSH0 REVERT JUMPDEST POP POP POP POP PUSH1 0x40 MLOAD RETURNDATASIZE PUSH0 DUP3 RETURNDATACOPY PUSH1 0x1F RETURNDATASIZE SWAP1 DUP2 ADD PUSH1 0x1F NOT AND DUP3 ADD PUSH1 0x40 MSTORE PUSH2 0x29D SWAP2 SWAP1 DUP2 ADD SWAP1 PUSH2 0x39E9 JUMP JUMPDEST DUP1 MLOAD PUSH1 0x60 SWAP1 PUSH0 SWAP1 PUSH2 0x22E1 PUSH1 0x85 DUP4 PUSH2 0x3AF5 JUMP JUMPDEST SWAP2 POP PUSH2 0x22F9 DUP3 PUSH2 0x22F1 DUP2 DUP5 PUSH2 0x3C0F JUMP JUMPDEST DUP7 SWAP2 SWAP1 PUSH2 0x2D9A JUMP JUMPDEST SWAP5 SWAP4 POP POP POP POP JUMP JUMPDEST DUP1 PUSH1 0x1 PUSH1 0x1 PUSH1 0xA0 SHL SUB AND PUSH2 0x232D DUP4 PUSH2 0xFFFF AND PUSH0 SWAP1 DUP2 MSTORE PUSH1 0x9 PUSH1 0x20 MSTORE PUSH1 0x40 SWAP1 KECCAK256 SLOAD PUSH1 0x1 PUSH1 0x1 PUSH1 0xA0 SHL SUB AND SWAP1 JUMP JUMPDEST PUSH1 0x1 PUSH1 0x1 PUSH1 0xA0 SHL SUB AND EQ PUSH2 0x942 JUMPI PUSH1 0x40 MLOAD PUSH3 0x461BCD PUSH1 0xE5 SHL DUP2 MSTORE PUSH1 0x20 PUSH1 0x4 DUP3 ADD MSTORE PUSH1 0xD PUSH1 0x24 DUP3 ADD MSTORE PUSH13 0x496E76616C69642073706F6B65 PUSH1 0x98 SHL PUSH1 0x44 DUP3 ADD MSTORE PUSH1 0x64 ADD PUSH2 0x5E8 JUMP JUMPDEST PUSH1 0x40 DUP1 MLOAD PUSH1 0x80 DUP2 ADD DUP3 MSTORE PUSH0 DUP1 DUP3 MSTORE PUSH1 0x20 DUP3 ADD DUP2 SWAP1 MSTORE SWAP2 DUP2 ADD DUP3 SWAP1 MSTORE PUSH1 0x60 DUP2 ADD DUP3 SWAP1 MSTORE SWAP1 PUSH2 0x23A0 DUP4 DUP3 PUSH2 0x2EA6 JUMP JUMPDEST PUSH1 0xFF AND PUSH1 0x5 DUP2 GT ISZERO PUSH2 0x23B4 JUMPI PUSH2 0x23B4 PUSH2 0x3AE1 JUMP JUMPDEST DUP3 SWAP1 PUSH1 0x5 DUP2 GT ISZERO PUSH2 0x23C7 JUMPI PUSH2 0x23C7 PUSH2 0x3AE1 JUMP JUMPDEST SWAP1 DUP2 PUSH1 0x5 DUP2 GT ISZERO PUSH2 0x23DA JUMPI PUSH2 0x23DA PUSH2 0x3AE1 JUMP JUMPDEST SWAP1 MSTORE POP PUSH2 0x23E8 PUSH1 0x1 DUP3 PUSH2 0x3AF5 JUMP JUMPDEST SWAP1 POP PUSH2 0x23F4 DUP4 DUP3 PUSH2 0x2F01 JUMP JUMPDEST PUSH1 0x1 PUSH1 0x1 PUSH1 0xA0 SHL SUB AND PUSH1 0x20 DUP4 ADD MSTORE PUSH2 0x240D PUSH1 0x14 DUP3 PUSH2 0x3AF5 JUMP JUMPDEST SWAP1 POP PUSH2 0x2419 DUP4 DUP3 PUSH2 0x2F01 JUMP JUMPDEST PUSH1 0x1 PUSH1 0x1 PUSH1 0xA0 SHL SUB AND PUSH1 0x40 DUP4 ADD MSTORE PUSH2 0x2432 PUSH1 0x14 DUP3 PUSH2 0x3AF5 JUMP JUMPDEST SWAP1 POP PUSH2 0x243E DUP4 DUP3 PUSH2 0x2F65 JUMP JUMPDEST PUSH1 0x60 DUP4 ADD MSTORE POP SWAP2 SWAP1 POP JUMP JUMPDEST PUSH2 0x2481 DUP2 PUSH2 0x2456 DUP4 PUSH2 0x153D JUMP JUMPDEST PUSH1 0x1 PUSH1 0x1 PUSH1 0xA0 SHL SUB SWAP1 SWAP2 AND PUSH0 SWAP1 DUP2 MSTORE PUSH1 0xD PUSH1 0x20 SWAP1 DUP2 MSTORE PUSH1 0x40 SWAP1 SWAP2 KECCAK256 DUP3 MLOAD DUP2 SSTORE SWAP2 ADD MLOAD PUSH1 0x1 SWAP2 SWAP1 SWAP2 ADD SSTORE JUMP JUMPDEST PUSH1 0x1 PUSH1 0x1 PUSH1 0xA0 SHL SUB AND PUSH0 SWAP1 DUP2 MSTORE PUSH1 0xF PUSH1 0x20 MSTORE PUSH1 0x40 SWAP1 KECCAK256 TIMESTAMP SWAP1 SSTORE JUMP JUMPDEST PUSH0 PUSH2 0x24A6 DUP4 PUSH2 0x7A0 JUMP JUMPDEST SWAP1 POP PUSH0 PUSH2 0x24B2 DUP5 PUSH2 0xAB7 JUMP JUMPDEST SWAP1 POP PUSH0 PUSH2 0x24C3 DUP5 DUP4 PUSH0 ADD MLOAD PUSH0 PUSH2 0x8ED JUMP JUMPDEST SWAP1 POP PUSH0 DUP1 PUSH2 0x24D2 DUP9 PUSH1 0x1 PUSH2 0x1C9E JUMP JUMPDEST SWAP2 POP SWAP2 POP PUSH2 0x24E1 DUP9 DUP9 DUP6 PUSH2 0x1EBC JUMP JUMPDEST PUSH2 0x24EB DUP8 DUP5 PUSH2 0x1F35 JUMP JUMPDEST DUP5 MLOAD PUSH1 0x60 DUP7 ADD MLOAD PUSH1 0x13 SLOAD PUSH1 0xFF AND PUSH2 0x2502 SWAP2 SWAP1 PUSH2 0x3B08 JUMP JUMPDEST PUSH2 0x250D SWAP1 PUSH1 0xA PUSH2 0x3C01 JUMP JUMPDEST PUSH2 0x2516 DUP10 PUSH2 0x2FB9 JUMP JUMPDEST PUSH1 0x1 PUSH1 0x1 PUSH1 0x40 SHL SUB AND DUP7 PUSH0 ADD MLOAD DUP7 PUSH2 0x252E SWAP2 SWAP1 PUSH2 0x3916 JUMP JUMPDEST PUSH2 0x2538 SWAP2 SWAP1 PUSH2 0x3916 JUMP JUMPDEST PUSH2 0x2542 SWAP2 SWAP1 PUSH2 0x3916 JUMP JUMPDEST PUSH2 0x254C SWAP2 SWAP1 PUSH2 0x3916 JUMP JUMPDEST PUSH2 0x2556 SWAP1 DUP3 PUSH2 0x3AF5 JUMP JUMPDEST DUP3 LT ISZERO PUSH2 0x1B7B JUMPI PUSH1 0x40 MLOAD PUSH3 0x461BCD PUSH1 0xE5 SHL DUP2 MSTORE PUSH1 0x20 PUSH1 0x4 DUP3 ADD MSTORE PUSH1 0x3A PUSH1 0x24 DUP3 ADD MSTORE PUSH32 0x5661756C7420697320756E646572636F6C6C61746572616C697A656420696620 PUSH1 0x44 DUP3 ADD MSTORE PUSH32 0x7468697320776974686472617720676F6573207468726F756768000000000000 PUSH1 0x64 DUP3 ADD MSTORE PUSH1 0x84 ADD PUSH2 0x5E8 JUMP JUMPDEST PUSH0 PUSH2 0x25D5 DUP4 PUSH2 0x7A0 JUMP JUMPDEST SWAP1 POP PUSH0 PUSH2 0x25E1 DUP5 PUSH2 0xAB7 JUMP JUMPDEST SWAP1 POP PUSH0 PUSH2 0x25F3 DUP5 DUP4 PUSH1 0x20 ADD MLOAD PUSH0 PUSH2 0x8ED JUMP JUMPDEST SWAP1 POP PUSH0 DUP1 PUSH2 0x2602 DUP9 PUSH1 0x1 PUSH2 0x1C9E JUMP JUMPDEST SWAP2 POP SWAP2 POP PUSH2 0x2610 DUP8 DUP5 PUSH2 0x1F35 JUMP JUMPDEST PUSH1 0x60 DUP6 ADD MLOAD PUSH1 0x13 SLOAD PUSH1 0xFF AND PUSH2 0x2625 SWAP2 SWAP1 PUSH2 0x3B08 JUMP JUMPDEST PUSH2 0x2630 SWAP1 PUSH1 0xA PUSH2 0x3C01 JUMP JUMPDEST DUP6 PUSH1 0x20 ADD MLOAD PUSH2 0x263E DUP10 PUSH2 0x2FCC JUMP JUMPDEST PUSH1 0x1 PUSH1 0x1 PUSH1 0x40 SHL SUB AND DUP7 PUSH1 0x20 ADD MLOAD DUP7 PUSH2 0x2657 SWAP2 SWAP1 PUSH2 0x3916 JUMP JUMPDEST PUSH2 0x2661 SWAP2 SWAP1 PUSH2 0x3916 JUMP JUMPDEST PUSH2 0x266B SWAP2 SWAP1 PUSH2 0x3916 JUMP JUMPDEST PUSH2 0x2675 SWAP2 SWAP1 PUSH2 0x3916 JUMP JUMPDEST PUSH2 0x267F SWAP1 DUP3 PUSH2 0x3AF5 JUMP JUMPDEST DUP3 LT ISZERO PUSH2 0x1B7B JUMPI PUSH1 0x40 MLOAD PUSH3 0x461BCD PUSH1 0xE5 SHL DUP2 MSTORE PUSH1 0x20 PUSH1 0x4 DUP3 ADD MSTORE PUSH1 0x38 PUSH1 0x24 DUP3 ADD MSTORE PUSH32 0x5661756C7420697320756E646572636F6C6C61746572616C697A656420696620 PUSH1 0x44 DUP3 ADD MSTORE PUSH32 0x7468697320626F72726F7720676F6573207468726F7567680000000000000000 PUSH1 0x64 DUP3 ADD MSTORE PUSH1 0x84 ADD PUSH2 0x5E8 JUMP JUMPDEST PUSH0 PUSH2 0x2707 PUSH1 0x2 SLOAD PUSH1 0x1 PUSH1 0x1 PUSH1 0xA0 SHL SUB AND SWAP1 JUMP JUMPDEST PUSH1 0x40 MLOAD PUSH3 0xF5287B PUSH1 0xE4 SHL DUP2 MSTORE PUSH1 0x1 PUSH1 0x1 PUSH1 0xA0 SHL SUB DUP7 DUP2 AND PUSH1 0x4 DUP4 ADD MSTORE PUSH1 0x24 DUP3 ADD DUP7 SWAP1 MSTORE PUSH2 0xFFFF DUP6 AND PUSH1 0x44 DUP4 ADD MSTORE DUP8 DUP2 AND PUSH1 0x64 DUP4 ADD MSTORE PUSH0 PUSH1 0x84 DUP4 ADD DUP2 SWAP1 MSTORE PUSH1 0xA4 DUP4 ADD MSTORE SWAP2 SWAP1 SWAP2 AND SWAP1 PUSH4 0xF5287B0 SWAP1 PUSH1 0xC4 ADD PUSH1 0x20 PUSH1 0x40 MLOAD DUP1 DUP4 SUB DUP2 PUSH0 DUP8 GAS CALL ISZERO DUP1 ISZERO PUSH2 0x2773 JUMPI RETURNDATASIZE PUSH0 DUP1 RETURNDATACOPY RETURNDATASIZE PUSH0 REVERT JUMPDEST POP POP POP POP PUSH1 0x40 MLOAD RETURNDATASIZE PUSH1 0x1F NOT PUSH1 0x1F DUP3 ADD AND DUP3 ADD DUP1 PUSH1 0x40 MSTORE POP DUP2 ADD SWAP1 PUSH2 0x166D SWAP2 SWAP1 PUSH2 0x3E9B JUMP JUMPDEST PUSH2 0x27CF PUSH1 0x40 MLOAD DUP1 PUSH1 0xA0 ADD PUSH1 0x40 MSTORE DUP1 PUSH0 PUSH1 0x1 PUSH1 0x1 PUSH1 0x40 SHL SUB AND DUP2 MSTORE PUSH1 0x20 ADD PUSH1 0x60 DUP2 MSTORE PUSH1 0x20 ADD PUSH1 0x60 DUP2 MSTORE PUSH1 0x20 ADD PUSH0 DUP2 MSTORE PUSH1 0x20 ADD PUSH0 DUP2 MSTORE POP SWAP1 JUMP JUMPDEST PUSH0 PUSH2 0x27D9 DUP4 PUSH2 0x7A0 JUMP JUMPDEST PUSH1 0x80 ADD MLOAD SWAP4 SWAP3 POP POP POP JUMP JUMPDEST PUSH0 DUP4 PUSH0 SUB PUSH2 0x27F3 JUMPI POP PUSH0 PUSH2 0x22F9 JUMP JUMPDEST PUSH1 0x20 DUP3 ADD MLOAD PUSH1 0x40 DUP4 ADD MLOAD PUSH0 DUP1 JUMPDEST DUP4 DUP3 DUP2 MLOAD DUP2 LT PUSH2 0x2812 JUMPI PUSH2 0x2812 PUSH2 0x392D JUMP JUMPDEST PUSH1 0x20 MUL PUSH1 0x20 ADD ADD MLOAD DUP9 PUSH2 0x2825 SWAP2 SWAP1 PUSH2 0x3916 JUMP JUMPDEST DUP7 MLOAD PUSH2 0x283A SWAP1 PUSH1 0x1 PUSH1 0x1 PUSH1 0x40 SHL SUB AND DUP10 PUSH2 0x3916 JUMP JUMPDEST GT ISZERO PUSH2 0x28A7 JUMPI DUP3 DUP3 DUP2 MLOAD DUP2 LT PUSH2 0x2852 JUMPI PUSH2 0x2852 PUSH2 0x392D JUMP JUMPDEST PUSH1 0x20 MUL PUSH1 0x20 ADD ADD MLOAD SWAP1 POP PUSH1 0x1 DUP3 PUSH2 0x2869 SWAP2 SWAP1 PUSH2 0x3AF5 JUMP JUMPDEST SWAP2 POP DUP3 MLOAD DUP3 SUB PUSH2 0x28A2 JUMPI DUP3 PUSH2 0x287F PUSH1 0x1 DUP5 PUSH2 0x3C0F JUMP JUMPDEST DUP2 MLOAD DUP2 LT PUSH2 0x288F JUMPI PUSH2 0x288F PUSH2 0x392D JUMP JUMPDEST PUSH1 0x20 MUL PUSH1 0x20 ADD ADD MLOAD SWAP5 POP POP POP POP POP PUSH2 0x22F9 JUMP JUMPDEST PUSH2 0x2800 JUMP JUMPDEST DUP2 PUSH0 SUB PUSH2 0x28CF JUMPI DUP3 PUSH0 DUP2 MLOAD DUP2 LT PUSH2 0x28C0 JUMPI PUSH2 0x28C0 PUSH2 0x392D JUMP JUMPDEST PUSH1 0x20 MUL PUSH1 0x20 ADD ADD MLOAD SWAP1 POP PUSH2 0x29C4 JUMP JUMPDEST DUP4 PUSH2 0x28DB PUSH1 0x1 DUP5 PUSH2 0x3C0F JUMP JUMPDEST DUP2 MLOAD DUP2 LT PUSH2 0x28EB JUMPI PUSH2 0x28EB PUSH2 0x392D JUMP JUMPDEST PUSH1 0x20 MUL PUSH1 0x20 ADD ADD MLOAD DUP5 DUP4 DUP2 MLOAD DUP2 LT PUSH2 0x2905 JUMPI PUSH2 0x2905 PUSH2 0x392D JUMP JUMPDEST PUSH1 0x20 MUL PUSH1 0x20 ADD ADD MLOAD PUSH2 0x2917 SWAP2 SWAP1 PUSH2 0x3C0F JUMP JUMPDEST DUP9 DUP1 DUP7 PUSH2 0x2925 PUSH1 0x1 DUP8 PUSH2 0x3C0F JUMP JUMPDEST DUP2 MLOAD DUP2 LT PUSH2 0x2935 JUMPI PUSH2 0x2935 PUSH2 0x392D JUMP JUMPDEST PUSH1 0x20 MUL PUSH1 0x20 ADD ADD MLOAD PUSH2 0x2947 SWAP2 SWAP1 PUSH2 0x3916 JUMP JUMPDEST PUSH2 0x2951 SWAP1 DUP11 PUSH2 0x3C0F JUMP JUMPDEST PUSH2 0x295B SWAP2 SWAP1 PUSH2 0x3ACE JUMP JUMPDEST DUP5 PUSH2 0x2967 PUSH1 0x1 DUP7 PUSH2 0x3C0F JUMP JUMPDEST DUP2 MLOAD DUP2 LT PUSH2 0x2977 JUMPI PUSH2 0x2977 PUSH2 0x392D JUMP JUMPDEST PUSH1 0x20 MUL PUSH1 0x20 ADD ADD MLOAD DUP6 DUP6 DUP2 MLOAD DUP2 LT PUSH2 0x2991 JUMPI PUSH2 0x2991 PUSH2 0x392D JUMP JUMPDEST PUSH1 0x20 MUL PUSH1 0x20 ADD ADD MLOAD PUSH2 0x29A3 SWAP2 SWAP1 PUSH2 0x3C0F JUMP JUMPDEST PUSH2 0x29AD SWAP2 SWAP1 PUSH2 0x3916 JUMP JUMPDEST PUSH2 0x29B7 SWAP2 SWAP1 PUSH2 0x3ACE JUMP JUMPDEST PUSH2 0x29C1 SWAP1 DUP3 PUSH2 0x3AF5 JUMP JUMPDEST SWAP1 POP JUMPDEST PUSH1 0x3C DUP1 PUSH1 0x18 PUSH2 0x16D DUP10 PUSH0 ADD MLOAD PUSH1 0x1 PUSH1 0x1 PUSH1 0x40 SHL SUB AND DUP6 DUP15 PUSH2 0x29E4 PUSH1 0x11 SLOAD SWAP1 JUMP JUMPDEST PUSH2 0x29EE SWAP2 SWAP1 PUSH2 0x3916 JUMP JUMPDEST PUSH2 0x29F8 SWAP2 SWAP1 PUSH2 0x3916 JUMP JUMPDEST PUSH2 0x2A02 SWAP2 SWAP1 PUSH2 0x3ACE JUMP JUMPDEST PUSH2 0x2A0C SWAP2 SWAP1 PUSH2 0x3ACE JUMP JUMPDEST PUSH2 0x2A16 SWAP2 SWAP1 PUSH2 0x3ACE JUMP JUMPDEST PUSH2 0x2A20 SWAP2 SWAP1 PUSH2 0x3ACE JUMP JUMPDEST PUSH2 0x2A2A SWAP2 SWAP1 PUSH2 0x3ACE JUMP JUMPDEST SWAP10 SWAP9 POP POP POP POP POP POP POP POP POP JUMP JUMPDEST PUSH1 0x60 PUSH1 0x1 PUSH1 0x5 ADD DUP1 SLOAD DUP1 PUSH1 0x20 MUL PUSH1 0x20 ADD PUSH1 0x40 MLOAD SWAP1 DUP2 ADD PUSH1 0x40 MSTORE DUP1 SWAP3 SWAP2 SWAP1 DUP2 DUP2 MSTORE PUSH1 0x20 ADD DUP3 DUP1 SLOAD DUP1 ISZERO PUSH2 0x2A90 JUMPI PUSH1 0x20 MUL DUP3 ADD SWAP2 SWAP1 PUSH0 MSTORE PUSH1 0x20 PUSH0 KECCAK256 SWAP1 JUMPDEST DUP2 SLOAD PUSH1 0x1 PUSH1 0x1 PUSH1 0xA0 SHL SUB AND DUP2 MSTORE PUSH1 0x1 SWAP1 SWAP2 ADD SWAP1 PUSH1 0x20 ADD DUP1 DUP4 GT PUSH2 0x2A72 JUMPI JUMPDEST POP POP POP POP POP SWAP1 POP SWAP1 JUMP JUMPDEST PUSH0 DUP1 PUSH0 DUP1 PUSH2 0x2AA7 DUP6 PUSH2 0x2BD4 JUMP JUMPDEST SWAP2 POP SWAP2 POP PUSH0 PUSH2 0x2ABE PUSH1 0x49 SLOAD PUSH1 0x1 PUSH1 0x1 PUSH1 0x40 SHL SUB AND SWAP1 JUMP JUMPDEST SWAP1 POP PUSH0 PUSH2 0x2ADB PUSH1 0x49 SLOAD PUSH1 0x1 PUSH1 0x1 PUSH1 0x40 SHL SUB PUSH1 0x1 PUSH1 0x40 SHL SWAP1 SWAP2 DIV AND SWAP1 JUMP JUMPDEST PUSH0 SWAP7 POP SWAP1 POP PUSH2 0x2AEA DUP3 DUP5 PUSH2 0x3C22 JUMP JUMPDEST PUSH1 0x1 PUSH1 0x1 PUSH1 0x40 SHL SUB AND PUSH2 0x2AFD DUP3 DUP7 PUSH2 0x3C22 JUMP JUMPDEST PUSH1 0x1 PUSH1 0x1 PUSH1 0x40 SHL SUB AND LT PUSH2 0x2B2C JUMPI PUSH2 0x2B15 DUP3 DUP5 PUSH2 0x3C22 JUMP JUMPDEST PUSH2 0x2B1F DUP3 DUP7 PUSH2 0x3C22 JUMP JUMPDEST PUSH2 0x2B29 SWAP2 SWAP1 PUSH2 0x3EB6 JUMP JUMPDEST SWAP6 POP JUMPDEST PUSH2 0x2B36 DUP3 DUP5 PUSH2 0x3C22 JUMP JUMPDEST PUSH2 0x2B40 DUP3 DUP7 PUSH2 0x3C22 JUMP JUMPDEST PUSH2 0x2B4A SWAP2 SWAP1 PUSH2 0x3EDD JUMP JUMPDEST SWAP5 POP POP POP POP POP SWAP2 POP SWAP2 JUMP JUMPDEST PUSH0 DUP4 PUSH1 0x8 PUSH1 0xFF DUP6 AND GT ISZERO PUSH2 0x2B86 JUMPI PUSH2 0x2B6E PUSH1 0x8 DUP6 PUSH2 0x3B08 JUMP JUMPDEST PUSH2 0x2B79 SWAP1 PUSH1 0xA PUSH2 0x3C01 JUMP JUMPDEST PUSH2 0x2B83 SWAP1 DUP3 PUSH2 0x3ACE JUMP JUMPDEST SWAP1 POP JUMPDEST PUSH2 0x2B91 PUSH1 0x8 DUP6 PUSH2 0x3B08 JUMP JUMPDEST PUSH2 0x2B9C SWAP1 PUSH1 0xA PUSH2 0x3C01 JUMP JUMPDEST PUSH2 0x2BA6 SWAP1 DUP7 PUSH2 0x3ABB JUMP JUMPDEST ISZERO DUP1 ISZERO SWAP1 PUSH2 0x2BC4 JUMPI POP PUSH0 DUP4 PUSH1 0x1 DUP2 GT ISZERO PUSH2 0x2BC2 JUMPI PUSH2 0x2BC2 PUSH2 0x3AE1 JUMP JUMPDEST EQ JUMPDEST ISZERO PUSH2 0x29A JUMPI PUSH2 0x166D PUSH1 0x1 DUP3 PUSH2 0x3AF5 JUMP JUMPDEST PUSH0 DUP1 PUSH0 PUSH2 0x2BE0 DUP5 PUSH2 0x7A0 JUMP JUMPDEST SWAP1 POP PUSH0 PUSH2 0x2BF7 PUSH1 0x7 SLOAD PUSH1 0xFF PUSH1 0x1 PUSH1 0xA0 SHL SWAP1 SWAP2 DIV AND SWAP1 JUMP JUMPDEST SWAP1 POP PUSH0 DUP1 DUP3 PUSH1 0xFF AND PUSH0 SUB PUSH2 0x2C27 JUMPI PUSH0 PUSH2 0x2C13 DUP6 PUSH1 0x40 ADD MLOAD PUSH2 0x2FD7 JUMP JUMPDEST DUP1 MLOAD PUSH1 0x20 SWAP1 SWAP2 ADD MLOAD SWAP1 SWAP4 POP SWAP2 POP PUSH2 0x2CB6 SWAP1 POP JUMP JUMPDEST DUP3 PUSH1 0xFF AND PUSH1 0x1 SUB PUSH2 0x2C40 JUMPI PUSH0 PUSH2 0x2C13 DUP6 PUSH1 0x40 ADD MLOAD PUSH2 0x3062 JUMP JUMPDEST POP POP PUSH1 0x40 DUP3 DUP2 ADD MLOAD DUP2 MLOAD PUSH1 0x80 DUP1 DUP3 ADD DUP5 MSTORE PUSH0 DUP1 DUP4 MSTORE PUSH1 0x20 DUP1 DUP5 ADD DUP3 SWAP1 MSTORE DUP4 DUP7 ADD DUP3 SWAP1 MSTORE PUSH1 0x60 SWAP4 DUP5 ADD DUP3 SWAP1 MSTORE SWAP4 DUP2 MSTORE PUSH1 0x46 DUP5 MSTORE DUP5 SWAP1 KECCAK256 DUP5 MLOAD SWAP2 DUP3 ADD DUP6 MSTORE DUP1 SLOAD PUSH1 0x7 DUP2 SWAP1 SIGNEXTEND DUP1 DUP5 MSTORE PUSH1 0x1 PUSH1 0x1 PUSH1 0x40 SHL SUB PUSH1 0x1 PUSH1 0x40 SHL DUP4 DIV AND SWAP6 DUP5 ADD DUP7 SWAP1 MSTORE PUSH1 0x1 PUSH1 0x80 SHL SWAP1 SWAP2 DIV PUSH1 0x3 SIGNEXTEND SWAP6 DUP4 ADD SWAP6 SWAP1 SWAP6 MSTORE PUSH1 0x1 ADD SLOAD SWAP2 ADD MSTORE JUMPDEST PUSH0 DUP3 PUSH1 0x7 SIGNEXTEND SLT ISZERO PUSH2 0x2D24 JUMPI PUSH1 0x40 MLOAD PUSH3 0x461BCD PUSH1 0xE5 SHL DUP2 MSTORE PUSH1 0x20 PUSH1 0x4 DUP3 ADD MSTORE PUSH1 0x32 PUSH1 0x24 DUP3 ADD MSTORE PUSH32 0x6E6F206E656761746976652070726963652061737365747320616C6C6F776564 PUSH1 0x44 DUP3 ADD MSTORE PUSH18 0x81A5B881610C8189BDC9C9BDDCB5B195B99 PUSH1 0x72 SHL PUSH1 0x64 DUP3 ADD MSTORE PUSH1 0x84 ADD PUSH2 0x5E8 JUMP JUMPDEST SWAP1 SWAP7 SWAP1 SWAP6 POP SWAP4 POP POP POP POP JUMP JUMPDEST PUSH1 0x60 PUSH2 0x29D DUP4 DUP4 PUSH0 PUSH2 0x30B2 JUMP JUMPDEST PUSH0 PUSH2 0x2D49 DUP3 PUSH1 0x20 PUSH2 0x3AF5 JUMP JUMPDEST DUP4 MLOAD LT ISZERO PUSH2 0x2D91 JUMPI PUSH1 0x40 MLOAD PUSH3 0x461BCD PUSH1 0xE5 SHL DUP2 MSTORE PUSH1 0x20 PUSH1 0x4 DUP3 ADD MSTORE PUSH1 0x15 PUSH1 0x24 DUP3 ADD MSTORE PUSH21 0x746F427974657333325F6F75744F66426F756E6473 PUSH1 0x58 SHL PUSH1 0x44 DUP3 ADD MSTORE PUSH1 0x64 ADD PUSH2 0x5E8 JUMP JUMPDEST POP ADD PUSH1 0x20 ADD MLOAD SWAP1 JUMP JUMPDEST PUSH1 0x60 DUP2 PUSH2 0x2DA8 DUP2 PUSH1 0x1F PUSH2 0x3AF5 JUMP JUMPDEST LT ISZERO PUSH2 0x2DE7 JUMPI PUSH1 0x40 MLOAD PUSH3 0x461BCD PUSH1 0xE5 SHL DUP2 MSTORE PUSH1 0x20 PUSH1 0x4 DUP3 ADD MSTORE PUSH1 0xE PUSH1 0x24 DUP3 ADD MSTORE PUSH14 0x736C6963655F6F766572666C6F77 PUSH1 0x90 SHL PUSH1 0x44 DUP3 ADD MSTORE PUSH1 0x64 ADD PUSH2 0x5E8 JUMP JUMPDEST PUSH2 0x2DF1 DUP3 DUP5 PUSH2 0x3AF5 JUMP JUMPDEST DUP5 MLOAD LT ISZERO PUSH2 0x2E35 JUMPI PUSH1 0x40 MLOAD PUSH3 0x461BCD PUSH1 0xE5 SHL DUP2 MSTORE PUSH1 0x20 PUSH1 0x4 DUP3 ADD MSTORE PUSH1 0x11 PUSH1 0x24 DUP3 ADD MSTORE PUSH17 0x736C6963655F6F75744F66426F756E6473 PUSH1 0x78 SHL PUSH1 0x44 DUP3 ADD MSTORE PUSH1 0x64 ADD PUSH2 0x5E8 JUMP JUMPDEST PUSH1 0x60 DUP3 ISZERO DUP1 ISZERO PUSH2 0x2E53 JUMPI PUSH1 0x40 MLOAD SWAP2 POP PUSH0 DUP3 MSTORE PUSH1 0x20 DUP3 ADD PUSH1 0x40 MSTORE PUSH2 0x2E9D JUMP JUMPDEST PUSH1 0x40 MLOAD SWAP2 POP PUSH1 0x1F DUP5 AND DUP1 ISZERO PUSH1 0x20 MUL DUP2 DUP5 ADD ADD DUP6 DUP2 ADD DUP8 DUP4 ISZERO PUSH1 0x20 MUL DUP5 DUP12 ADD ADD ADD JUMPDEST DUP2 DUP4 LT ISZERO PUSH2 0x2E8C JUMPI DUP1 MLOAD DUP4 MSTORE PUSH1 0x20 SWAP3 DUP4 ADD SWAP3 ADD PUSH2 0x2E74 JUMP JUMPDEST POP POP DUP6 DUP5 MSTORE PUSH1 0x1F ADD PUSH1 0x1F NOT AND PUSH1 0x40 MSTORE POP JUMPDEST POP SWAP5 SWAP4 POP POP POP POP JUMP JUMPDEST PUSH0 PUSH2 0x2EB2 DUP3 PUSH1 0x1 PUSH2 0x3AF5 JUMP JUMPDEST DUP4 MLOAD LT ISZERO PUSH2 0x2EF8 JUMPI PUSH1 0x40 MLOAD PUSH3 0x461BCD PUSH1 0xE5 SHL DUP2 MSTORE PUSH1 0x20 PUSH1 0x4 DUP3 ADD MSTORE PUSH1 0x13 PUSH1 0x24 DUP3 ADD MSTORE PUSH19 0x746F55696E74385F6F75744F66426F756E6473 PUSH1 0x68 SHL PUSH1 0x44 DUP3 ADD MSTORE PUSH1 0x64 ADD PUSH2 0x5E8 JUMP JUMPDEST POP ADD PUSH1 0x1 ADD MLOAD SWAP1 JUMP JUMPDEST PUSH0 PUSH2 0x2F0D DUP3 PUSH1 0x14 PUSH2 0x3AF5 JUMP JUMPDEST DUP4 MLOAD LT ISZERO PUSH2 0x2F55 JUMPI PUSH1 0x40 MLOAD PUSH3 0x461BCD PUSH1 0xE5 SHL DUP2 MSTORE PUSH1 0x20 PUSH1 0x4 DUP3 ADD MSTORE PUSH1 0x15 PUSH1 0x24 DUP3 ADD MSTORE PUSH21 0x746F416464726573735F6F75744F66426F756E6473 PUSH1 0x58 SHL PUSH1 0x44 DUP3 ADD MSTORE PUSH1 0x64 ADD PUSH2 0x5E8 JUMP JUMPDEST POP ADD PUSH1 0x20 ADD MLOAD PUSH1 0x1 PUSH1 0x60 SHL SWAP1 DIV SWAP1 JUMP JUMPDEST PUSH0 PUSH2 0x2F71 DUP3 PUSH1 0x20 PUSH2 0x3AF5 JUMP JUMPDEST DUP4 MLOAD LT ISZERO PUSH2 0x2D91 JUMPI PUSH1 0x40 MLOAD PUSH3 0x461BCD PUSH1 0xE5 SHL DUP2 MSTORE PUSH1 0x20 PUSH1 0x4 DUP3 ADD MSTORE PUSH1 0x15 PUSH1 0x24 DUP3 ADD MSTORE PUSH21 0x746F55696E743235365F6F75744F66426F756E6473 PUSH1 0x58 SHL PUSH1 0x44 DUP3 ADD MSTORE PUSH1 0x64 ADD PUSH2 0x5E8 JUMP JUMPDEST PUSH0 DUP1 PUSH2 0x2FC4 DUP4 PUSH2 0x2A9A JUMP JUMPDEST POP SWAP4 SWAP3 POP POP POP JUMP JUMPDEST PUSH0 DUP1 PUSH2 0x22F9 DUP4 PUSH2 0x2A9A JUMP JUMPDEST PUSH1 0x40 DUP1 MLOAD PUSH1 0x80 DUP2 ADD DUP3 MSTORE PUSH0 DUP1 DUP3 MSTORE PUSH1 0x20 DUP3 ADD DUP2 SWAP1 MSTORE DUP2 DUP4 ADD DUP2 SWAP1 MSTORE PUSH1 0x60 DUP3 ADD MSTORE PUSH1 0x3 SLOAD SWAP2 MLOAD PUSH4 0x31D98B3F PUSH1 0xE0 SHL DUP2 MSTORE PUSH1 0x4 DUP2 ADD DUP5 SWAP1 MSTORE SWAP1 SWAP2 PUSH1 0x1 PUSH1 0x1 PUSH1 0xA0 SHL SUB AND SWAP1 PUSH4 0x31D98B3F SWAP1 PUSH1 0x24 ADD JUMPDEST PUSH1 0x80 PUSH1 0x40 MLOAD DUP1 DUP4 SUB DUP2 DUP7 GAS STATICCALL ISZERO DUP1 ISZERO PUSH2 0x303E JUMPI RETURNDATASIZE PUSH0 DUP1 RETURNDATACOPY RETURNDATASIZE PUSH0 REVERT JUMPDEST POP POP POP POP PUSH1 0x40 MLOAD RETURNDATASIZE PUSH1 0x1F NOT PUSH1 0x1F DUP3 ADD AND DUP3 ADD DUP1 PUSH1 0x40 MSTORE POP DUP2 ADD SWAP1 PUSH2 0x482 SWAP2 SWAP1 PUSH2 0x3EFD JUMP JUMPDEST PUSH1 0x40 DUP1 MLOAD PUSH1 0x80 DUP2 ADD DUP3 MSTORE PUSH0 DUP1 DUP3 MSTORE PUSH1 0x20 DUP3 ADD DUP2 SWAP1 MSTORE DUP2 DUP4 ADD DUP2 SWAP1 MSTORE PUSH1 0x60 DUP3 ADD MSTORE PUSH1 0x4 DUP1 SLOAD SWAP3 MLOAD PUSH4 0x31D98B3F PUSH1 0xE0 SHL DUP2 MSTORE SWAP1 DUP2 ADD DUP5 SWAP1 MSTORE SWAP1 SWAP2 PUSH1 0x1 PUSH1 0x1 PUSH1 0xA0 SHL SUB AND SWAP1 PUSH4 0x31D98B3F SWAP1 PUSH1 0x24 ADD PUSH2 0x3023 JUMP JUMPDEST PUSH1 0x60 DUP2 SELFBALANCE LT ISZERO PUSH2 0x30D7 JUMPI PUSH1 0x40 MLOAD PUSH4 0xCD786059 PUSH1 0xE0 SHL DUP2 MSTORE ADDRESS PUSH1 0x4 DUP3 ADD MSTORE PUSH1 0x24 ADD PUSH2 0x5E8 JUMP JUMPDEST PUSH0 DUP1 DUP6 PUSH1 0x1 PUSH1 0x1 PUSH1 0xA0 SHL SUB AND DUP5 DUP7 PUSH1 0x40 MLOAD PUSH2 0x30F2 SWAP2 SWAP1 PUSH2 0x3963 JUMP JUMPDEST PUSH0 PUSH1 0x40 MLOAD DUP1 DUP4 SUB DUP2 DUP6 DUP8 GAS CALL SWAP3 POP POP POP RETURNDATASIZE DUP1 PUSH0 DUP2 EQ PUSH2 0x312C JUMPI PUSH1 0x40 MLOAD SWAP2 POP PUSH1 0x1F NOT PUSH1 0x3F RETURNDATASIZE ADD AND DUP3 ADD PUSH1 0x40 MSTORE RETURNDATASIZE DUP3 MSTORE RETURNDATASIZE PUSH0 PUSH1 0x20 DUP5 ADD RETURNDATACOPY PUSH2 0x3131 JUMP JUMPDEST PUSH1 0x60 SWAP2 POP JUMPDEST POP SWAP2 POP SWAP2 POP PUSH2 0xB8B DUP7 DUP4 DUP4 PUSH1 0x60 DUP3 PUSH2 0x3151 JUMPI PUSH2 0x314C DUP3 PUSH2 0x3198 JUMP JUMPDEST PUSH2 0x29D JUMP JUMPDEST DUP2 MLOAD ISZERO DUP1 ISZERO PUSH2 0x3168 JUMPI POP PUSH1 0x1 PUSH1 0x1 PUSH1 0xA0 SHL SUB DUP5 AND EXTCODESIZE ISZERO JUMPDEST ISZERO PUSH2 0x3191 JUMPI PUSH1 0x40 MLOAD PUSH4 0x9996B315 PUSH1 0xE0 SHL DUP2 MSTORE PUSH1 0x1 PUSH1 0x1 PUSH1 0xA0 SHL SUB DUP6 AND PUSH1 0x4 DUP3 ADD MSTORE PUSH1 0x24 ADD PUSH2 0x5E8 JUMP JUMPDEST POP DUP1 PUSH2 0x29D JUMP JUMPDEST DUP1 MLOAD ISZERO PUSH2 0x31A8 JUMPI DUP1 MLOAD DUP1 DUP3 PUSH1 0x20 ADD REVERT JUMPDEST PUSH1 0x40 MLOAD PUSH4 0xA12F521 PUSH1 0xE1 SHL DUP2 MSTORE PUSH1 0x4 ADD PUSH1 0x40 MLOAD DUP1 SWAP2 SUB SWAP1 REVERT JUMPDEST PUSH1 0x40 MLOAD DUP1 PUSH1 0xC0 ADD PUSH1 0x40 MSTORE DUP1 PUSH0 DUP2 MSTORE PUSH1 0x20 ADD PUSH0 DUP2 MSTORE PUSH1 0x20 ADD PUSH0 DUP1 NOT AND DUP2 MSTORE PUSH1 0x20 ADD PUSH0 PUSH1 0xFF AND DUP2 MSTORE PUSH1 0x20 ADD PUSH2 0x3222 PUSH1 0x40 MLOAD DUP1 PUSH1 0xA0 ADD PUSH1 0x40 MSTORE DUP1 PUSH0 PUSH1 0x1 PUSH1 0x1 PUSH1 0x40 SHL SUB AND DUP2 MSTORE PUSH1 0x20 ADD PUSH1 0x60 DUP2 MSTORE PUSH1 0x20 ADD PUSH1 0x60 DUP2 MSTORE PUSH1 0x20 ADD PUSH0 DUP2 MSTORE PUSH1 0x20 ADD PUSH0 DUP2 MSTORE POP SWAP1 JUMP JUMPDEST DUP2 MSTORE PUSH0 PUSH1 0x20 SWAP1 SWAP2 ADD MSTORE SWAP1 JUMP JUMPDEST DUP3 DUP1 SLOAD DUP3 DUP3 SSTORE SWAP1 PUSH0 MSTORE PUSH1 0x20 PUSH0 KECCAK256 SWAP1 DUP2 ADD SWAP3 DUP3 ISZERO PUSH2 0x3267 JUMPI SWAP2 PUSH1 0x20 MUL DUP3 ADD JUMPDEST DUP3 DUP2 GT ISZERO PUSH2 0x3267 JUMPI DUP3 MLOAD DUP3 SSTORE SWAP2 PUSH1 0x20 ADD SWAP2 SWAP1 PUSH1 0x1 ADD SWAP1 PUSH2 0x324C JUMP JUMPDEST POP PUSH2 0x3273 SWAP3 SWAP2 POP PUSH2 0x3277 JUMP JUMPDEST POP SWAP1 JUMP JUMPDEST JUMPDEST DUP1 DUP3 GT ISZERO PUSH2 0x3273 JUMPI PUSH0 DUP2 SSTORE PUSH1 0x1 ADD PUSH2 0x3278 JUMP JUMPDEST PUSH0 DUP1 PUSH0 PUSH1 0x60 DUP5 DUP7 SUB SLT ISZERO PUSH2 0x329D JUMPI PUSH0 DUP1 REVERT JUMPDEST DUP4 CALLDATALOAD SWAP3 POP PUSH1 0x20 DUP5 ADD CALLDATALOAD SWAP2 POP PUSH1 0x40 DUP5 ADD CALLDATALOAD PUSH1 0x2 DUP2 LT PUSH2 0x32B9 JUMPI PUSH0 DUP1 REVERT JUMPDEST DUP1 SWAP2 POP POP SWAP3 POP SWAP3 POP SWAP3 JUMP JUMPDEST DUP1 CALLDATALOAD PUSH1 0x1 PUSH1 0x1 PUSH1 0xA0 SHL SUB DUP2 AND DUP2 EQ PUSH2 0x32DA JUMPI PUSH0 DUP1 REVERT JUMPDEST SWAP2 SWAP1 POP JUMP JUMPDEST PUSH4 0x4E487B71 PUSH1 0xE0 SHL PUSH0 MSTORE PUSH1 0x41 PUSH1 0x4 MSTORE PUSH1 0x24 PUSH0 REVERT JUMPDEST PUSH1 0x40 MLOAD PUSH1 0x80 DUP2 ADD PUSH1 0x1 PUSH1 0x1 PUSH1 0x40 SHL SUB DUP2 GT DUP3 DUP3 LT OR ISZERO PUSH2 0x3315 JUMPI PUSH2 0x3315 PUSH2 0x32DF JUMP JUMPDEST PUSH1 0x40 MSTORE SWAP1 JUMP JUMPDEST PUSH1 0x40 MLOAD PUSH2 0x160 DUP2 ADD PUSH1 0x1 PUSH1 0x1 PUSH1 0x40 SHL SUB DUP2 GT DUP3 DUP3 LT OR ISZERO PUSH2 0x3315 JUMPI PUSH2 0x3315 PUSH2 0x32DF JUMP JUMPDEST PUSH1 0x40 MLOAD PUSH1 0x1F DUP3 ADD PUSH1 0x1F NOT AND DUP2 ADD PUSH1 0x1 PUSH1 0x1 PUSH1 0x40 SHL SUB DUP2 GT DUP3 DUP3 LT OR ISZERO PUSH2 0x3366 JUMPI PUSH2 0x3366 PUSH2 0x32DF JUMP JUMPDEST PUSH1 0x40 MSTORE SWAP2 SWAP1 POP JUMP JUMPDEST PUSH0 PUSH1 0x1 PUSH1 0x1 PUSH1 0x40 SHL SUB DUP3 GT ISZERO PUSH2 0x3386 JUMPI PUSH2 0x3386 PUSH2 0x32DF JUMP JUMPDEST POP PUSH1 0x5 SHL PUSH1 0x20 ADD SWAP1 JUMP JUMPDEST PUSH0 DUP3 PUSH1 0x1F DUP4 ADD SLT PUSH2 0x339F JUMPI PUSH0 DUP1 REVERT JUMPDEST DUP2 CALLDATALOAD PUSH1 0x20 PUSH2 0x33B4 PUSH2 0x33AF DUP4 PUSH2 0x336E JUMP JUMPDEST PUSH2 0x333E JUMP JUMPDEST DUP1 DUP4 DUP3 MSTORE PUSH1 0x20 DUP3 ADD SWAP2 POP PUSH1 0x20 DUP5 PUSH1 0x5 SHL DUP8 ADD ADD SWAP4 POP DUP7 DUP5 GT ISZERO PUSH2 0x33D5 JUMPI PUSH0 DUP1 REVERT JUMPDEST PUSH1 0x20 DUP7 ADD JUMPDEST DUP5 DUP2 LT ISZERO PUSH2 0x33F8 JUMPI PUSH2 0x33EB DUP2 PUSH2 0x32C4 JUMP JUMPDEST DUP4 MSTORE SWAP2 DUP4 ADD SWAP2 DUP4 ADD PUSH2 0x33DA JUMP JUMPDEST POP SWAP7 SWAP6 POP POP POP POP POP POP JUMP JUMPDEST PUSH0 DUP3 PUSH1 0x1F DUP4 ADD SLT PUSH2 0x3412 JUMPI PUSH0 DUP1 REVERT JUMPDEST DUP2 CALLDATALOAD PUSH1 0x20 PUSH2 0x3422 PUSH2 0x33AF DUP4 PUSH2 0x336E JUMP JUMPDEST DUP1 DUP4 DUP3 MSTORE PUSH1 0x20 DUP3 ADD SWAP2 POP PUSH1 0x20 DUP5 PUSH1 0x5 SHL DUP8 ADD ADD SWAP4 POP DUP7 DUP5 GT ISZERO PUSH2 0x3443 JUMPI PUSH0 DUP1 REVERT JUMPDEST PUSH1 0x20 DUP7 ADD JUMPDEST DUP5 DUP2 LT ISZERO PUSH2 0x33F8 JUMPI DUP1 CALLDATALOAD DUP4 MSTORE SWAP2 DUP4 ADD SWAP2 DUP4 ADD PUSH2 0x3448 JUMP JUMPDEST PUSH0 DUP1 PUSH0 DUP1 PUSH0 PUSH1 0xA0 DUP7 DUP9 SUB SLT ISZERO PUSH2 0x3473 JUMPI PUSH0 DUP1 REVERT JUMPDEST PUSH2 0x347C DUP7 PUSH2 0x32C4 JUMP JUMPDEST SWAP5 POP PUSH1 0x20 DUP7 ADD CALLDATALOAD PUSH1 0x1 PUSH1 0x1 PUSH1 0x40 SHL SUB DUP1 DUP3 GT ISZERO PUSH2 0x3497 JUMPI PUSH0 DUP1 REVERT JUMPDEST PUSH2 0x34A3 DUP10 DUP4 DUP11 ADD PUSH2 0x3390 JUMP JUMPDEST SWAP6 POP PUSH1 0x40 DUP9 ADD CALLDATALOAD SWAP2 POP DUP1 DUP3 GT ISZERO PUSH2 0x34B8 JUMPI PUSH0 DUP1 REVERT JUMPDEST PUSH2 0x34C4 DUP10 DUP4 DUP11 ADD PUSH2 0x3403 JUMP JUMPDEST SWAP5 POP PUSH1 0x60 DUP9 ADD CALLDATALOAD SWAP2 POP DUP1 DUP3 GT ISZERO PUSH2 0x34D9 JUMPI PUSH0 DUP1 REVERT JUMPDEST PUSH2 0x34E5 DUP10 DUP4 DUP11 ADD PUSH2 0x3390 JUMP JUMPDEST SWAP4 POP PUSH1 0x80 DUP9 ADD CALLDATALOAD SWAP2 POP DUP1 DUP3 GT ISZERO PUSH2 0x34FA JUMPI PUSH0 DUP1 REVERT JUMPDEST POP PUSH2 0x3507 DUP9 DUP3 DUP10 ADD PUSH2 0x3403 JUMP JUMPDEST SWAP2 POP POP SWAP3 SWAP6 POP SWAP3 SWAP6 SWAP1 SWAP4 POP JUMP JUMPDEST PUSH0 PUSH1 0x1 PUSH1 0x1 PUSH1 0x40 SHL SUB DUP3 GT ISZERO PUSH2 0x352C JUMPI PUSH2 0x352C PUSH2 0x32DF JUMP JUMPDEST POP PUSH1 0x1F ADD PUSH1 0x1F NOT AND PUSH1 0x20 ADD SWAP1 JUMP JUMPDEST PUSH0 PUSH1 0x20 DUP3 DUP5 SUB SLT ISZERO PUSH2 0x354A JUMPI PUSH0 DUP1 REVERT JUMPDEST DUP2 CALLDATALOAD PUSH1 0x1 PUSH1 0x1 PUSH1 0x40 SHL SUB DUP2 GT ISZERO PUSH2 0x355F JUMPI PUSH0 DUP1 REVERT JUMPDEST DUP3 ADD PUSH1 0x1F DUP2 ADD DUP5 SGT PUSH2 0x356F JUMPI PUSH0 DUP1 REVERT JUMPDEST DUP1 CALLDATALOAD PUSH2 0x357D PUSH2 0x33AF DUP3 PUSH2 0x3514 JUMP JUMPDEST DUP2 DUP2 MSTORE DUP6 PUSH1 0x20 DUP4 DUP6 ADD ADD GT ISZERO PUSH2 0x3591 JUMPI PUSH0 DUP1 REVERT JUMPDEST DUP2 PUSH1 0x20 DUP5 ADD PUSH1 0x20 DUP4 ADD CALLDATACOPY PUSH0 SWAP2 DUP2 ADD PUSH1 0x20 ADD SWAP2 SWAP1 SWAP2 MSTORE SWAP5 SWAP4 POP POP POP POP JUMP JUMPDEST PUSH0 DUP1 PUSH1 0x40 DUP4 DUP6 SUB SLT ISZERO PUSH2 0x35BF JUMPI PUSH0 DUP1 REVERT JUMPDEST PUSH2 0x35C8 DUP4 PUSH2 0x32C4 JUMP JUMPDEST SWAP2 POP PUSH2 0x35D6 PUSH1 0x20 DUP5 ADD PUSH2 0x32C4 JUMP JUMPDEST SWAP1 POP SWAP3 POP SWAP3 SWAP1 POP JUMP JUMPDEST DUP2 MLOAD DUP2 MSTORE PUSH1 0x20 DUP1 DUP4 ADD MLOAD SWAP1 DUP3 ADD MSTORE PUSH1 0x40 DUP2 ADD PUSH2 0x482 JUMP JUMPDEST PUSH0 PUSH1 0x20 DUP3 DUP5 SUB SLT ISZERO PUSH2 0x3606 JUMPI PUSH0 DUP1 REVERT JUMPDEST PUSH2 0x29D DUP3 PUSH2 0x32C4 JUMP JUMPDEST DUP1 PUSH1 0x7 SIGNEXTEND DUP2 EQ PUSH2 0xB36 JUMPI PUSH0 DUP1 REVERT JUMPDEST PUSH1 0x1 PUSH1 0x1 PUSH1 0x40 SHL SUB DUP2 AND DUP2 EQ PUSH2 0xB36 JUMPI PUSH0 DUP1 REVERT JUMPDEST DUP1 PUSH1 0x3 SIGNEXTEND DUP2 EQ PUSH2 0xB36 JUMPI PUSH0 DUP1 REVERT JUMPDEST PUSH0 DUP1 DUP3 DUP5 SUB PUSH1 0xA0 DUP2 SLT ISZERO PUSH2 0x3651 JUMPI PUSH0 DUP1 REVERT JUMPDEST DUP4 CALLDATALOAD SWAP3 POP PUSH1 0x80 PUSH1 0x1F NOT DUP3 ADD SLT ISZERO PUSH2 0x3666 JUMPI PUSH0 DUP1 REVERT JUMPDEST POP PUSH2 0x366F PUSH2 0x32F3 JUMP JUMPDEST PUSH1 0x20 DUP5 ADD CALLDATALOAD PUSH2 0x367D DUP2 PUSH2 0x360F JUMP JUMPDEST DUP2 MSTORE PUSH1 0x40 DUP5 ADD CALLDATALOAD PUSH2 0x368D DUP2 PUSH2 0x361D JUMP JUMPDEST PUSH1 0x20 DUP3 ADD MSTORE PUSH1 0x60 DUP5 ADD CALLDATALOAD PUSH2 0x36A0 DUP2 PUSH2 0x3631 JUMP JUMPDEST PUSH1 0x40 DUP3 ADD MSTORE PUSH1 0x80 SWAP4 SWAP1 SWAP4 ADD CALLDATALOAD PUSH1 0x60 DUP5 ADD MSTORE POP SWAP3 SWAP1 SWAP2 POP JUMP JUMPDEST PUSH0 DUP1 PUSH0 DUP1 PUSH0 DUP1 PUSH0 DUP1 PUSH0 PUSH2 0x120 DUP11 DUP13 SUB SLT ISZERO PUSH2 0x36D1 JUMPI PUSH0 DUP1 REVERT JUMPDEST PUSH2 0x36DA DUP11 PUSH2 0x32C4 JUMP JUMPDEST SWAP9 POP PUSH1 0x20 DUP11 ADD CALLDATALOAD SWAP8 POP PUSH1 0x40 DUP11 ADD CALLDATALOAD SWAP7 POP PUSH1 0x60 DUP11 ADD CALLDATALOAD PUSH2 0x36F8 DUP2 PUSH2 0x361D JUMP JUMPDEST SWAP6 POP PUSH1 0x80 DUP11 ADD CALLDATALOAD PUSH1 0x1 PUSH1 0x1 PUSH1 0x40 SHL SUB DUP1 DUP3 GT ISZERO PUSH2 0x3713 JUMPI PUSH0 DUP1 REVERT JUMPDEST PUSH2 0x371F DUP14 DUP4 DUP15 ADD PUSH2 0x3403 JUMP JUMPDEST SWAP7 POP PUSH1 0xA0 DUP13 ADD CALLDATALOAD SWAP2 POP DUP1 DUP3 GT ISZERO PUSH2 0x3734 JUMPI PUSH0 DUP1 REVERT JUMPDEST POP PUSH2 0x3741 DUP13 DUP3 DUP14 ADD PUSH2 0x3403 JUMP JUMPDEST SWAP5 POP POP PUSH1 0xC0 DUP11 ADD CALLDATALOAD SWAP3 POP PUSH1 0xE0 DUP11 ADD CALLDATALOAD SWAP2 POP PUSH2 0x100 DUP11 ADD CALLDATALOAD SWAP1 POP SWAP3 SWAP6 SWAP9 POP SWAP3 SWAP6 SWAP9 POP SWAP3 SWAP6 SWAP9 JUMP JUMPDEST PUSH0 DUP2 MLOAD DUP1 DUP5 MSTORE PUSH1 0x20 DUP1 DUP6 ADD SWAP5 POP PUSH1 0x20 DUP5 ADD PUSH0 JUMPDEST DUP4 DUP2 LT ISZERO PUSH2 0x3796 JUMPI DUP2 MLOAD DUP8 MSTORE SWAP6 DUP3 ADD SWAP6 SWAP1 DUP3 ADD SWAP1 PUSH1 0x1 ADD PUSH2 0x377A JUMP JUMPDEST POP SWAP5 SWAP6 SWAP5 POP POP POP POP POP JUMP JUMPDEST PUSH1 0x20 DUP2 MSTORE DUP2 MLOAD PUSH1 0x20 DUP3 ADD MSTORE PUSH1 0x20 DUP3 ADD MLOAD PUSH1 0x40 DUP3 ADD MSTORE PUSH1 0x40 DUP3 ADD MLOAD PUSH1 0x60 DUP3 ADD MSTORE PUSH1 0xFF PUSH1 0x60 DUP4 ADD MLOAD AND PUSH1 0x80 DUP3 ADD MSTORE PUSH0 PUSH1 0x80 DUP4 ADD MLOAD PUSH1 0xC0 PUSH1 0xA0 DUP5 ADD MSTORE PUSH1 0x1 PUSH1 0x1 PUSH1 0x40 SHL SUB DUP2 MLOAD AND PUSH1 0xE0 DUP5 ADD MSTORE PUSH1 0x20 DUP2 ADD MLOAD PUSH1 0xA0 PUSH2 0x100 DUP6 ADD MSTORE PUSH2 0x3805 PUSH2 0x180 DUP6 ADD DUP3 PUSH2 0x3767 JUMP JUMPDEST SWAP1 POP PUSH1 0x40 DUP3 ADD MLOAD PUSH1 0xDF NOT DUP6 DUP4 SUB ADD PUSH2 0x120 DUP7 ADD MSTORE PUSH2 0x3823 DUP3 DUP3 PUSH2 0x3767 JUMP JUMPDEST PUSH1 0x60 DUP5 ADD MLOAD PUSH2 0x140 DUP8 ADD MSTORE PUSH1 0x80 SWAP1 SWAP4 ADD MLOAD PUSH2 0x160 DUP7 ADD MSTORE POP POP PUSH1 0xA0 DUP5 ADD MLOAD DUP1 ISZERO ISZERO PUSH1 0xC0 DUP6 ADD MSTORE SWAP1 PUSH2 0x22F9 JUMP JUMPDEST PUSH2 0xFFFF DUP2 AND DUP2 EQ PUSH2 0xB36 JUMPI PUSH0 DUP1 REVERT JUMPDEST PUSH0 DUP1 PUSH1 0x40 DUP4 DUP6 SUB SLT ISZERO PUSH2 0x386F JUMPI PUSH0 DUP1 REVERT JUMPDEST DUP3 CALLDATALOAD PUSH2 0x35C8 DUP2 PUSH2 0x384F JUMP JUMPDEST PUSH0 DUP1 PUSH0 DUP1 PUSH0 DUP1 PUSH0 PUSH1 0xE0 DUP9 DUP11 SUB SLT ISZERO PUSH2 0x3890 JUMPI PUSH0 DUP1 REVERT JUMPDEST DUP8 CALLDATALOAD SWAP7 POP PUSH1 0x20 DUP9 ADD CALLDATALOAD PUSH2 0x38A2 DUP2 PUSH2 0x360F JUMP JUMPDEST SWAP6 POP PUSH1 0x40 DUP9 ADD CALLDATALOAD PUSH2 0x38B2 DUP2 PUSH2 0x361D JUMP JUMPDEST SWAP5 POP PUSH1 0x60 DUP9 ADD CALLDATALOAD PUSH2 0x38C2 DUP2 PUSH2 0x3631 JUMP JUMPDEST SWAP4 POP PUSH1 0x80 DUP9 ADD CALLDATALOAD PUSH2 0x38D2 DUP2 PUSH2 0x360F JUMP JUMPDEST SWAP3 POP PUSH1 0xA0 DUP9 ADD CALLDATALOAD PUSH2 0x38E2 DUP2 PUSH2 0x361D JUMP JUMPDEST SWAP2 POP PUSH1 0xC0 DUP9 ADD CALLDATALOAD PUSH2 0x38F2 DUP2 PUSH2 0x361D JUMP JUMPDEST DUP1 SWAP2 POP POP SWAP3 SWAP6 SWAP9 SWAP2 SWAP5 SWAP8 POP SWAP3 SWAP6 POP JUMP JUMPDEST PUSH4 0x4E487B71 PUSH1 0xE0 SHL PUSH0 MSTORE PUSH1 0x11 PUSH1 0x4 MSTORE PUSH1 0x24 PUSH0 REVERT JUMPDEST DUP1 DUP3 MUL DUP2 ISZERO DUP3 DUP3 DIV DUP5 EQ OR PUSH2 0x482 JUMPI PUSH2 0x482 PUSH2 0x3902 JUMP JUMPDEST PUSH4 0x4E487B71 PUSH1 0xE0 SHL PUSH0 MSTORE PUSH1 0x32 PUSH1 0x4 MSTORE PUSH1 0x24 PUSH0 REVERT JUMPDEST PUSH0 JUMPDEST DUP4 DUP2 LT ISZERO PUSH2 0x395B JUMPI DUP2 DUP2 ADD MLOAD DUP4 DUP3 ADD MSTORE PUSH1 0x20 ADD PUSH2 0x3943 JUMP JUMPDEST POP POP PUSH0 SWAP2 ADD MSTORE JUMP JUMPDEST PUSH0 DUP3 MLOAD PUSH2 0x3974 DUP2 DUP5 PUSH1 0x20 DUP8 ADD PUSH2 0x3941 JUMP JUMPDEST SWAP2 SWAP1 SWAP2 ADD SWAP3 SWAP2 POP POP JUMP JUMPDEST DUP1 MLOAD PUSH1 0xFF DUP2 AND DUP2 EQ PUSH2 0x32DA JUMPI PUSH0 DUP1 REVERT JUMPDEST PUSH0 PUSH1 0x20 DUP3 DUP5 SUB SLT ISZERO PUSH2 0x399E JUMPI PUSH0 DUP1 REVERT JUMPDEST PUSH2 0x29D DUP3 PUSH2 0x397E JUMP JUMPDEST PUSH0 DUP3 PUSH1 0x1F DUP4 ADD SLT PUSH2 0x39B6 JUMPI PUSH0 DUP1 REVERT JUMPDEST DUP2 MLOAD PUSH2 0x39C4 PUSH2 0x33AF DUP3 PUSH2 0x3514 JUMP JUMPDEST DUP2 DUP2 MSTORE DUP5 PUSH1 0x20 DUP4 DUP7 ADD ADD GT ISZERO PUSH2 0x39D8 JUMPI PUSH0 DUP1 REVERT JUMPDEST PUSH2 0x22F9 DUP3 PUSH1 0x20 DUP4 ADD PUSH1 0x20 DUP8 ADD PUSH2 0x3941 JUMP JUMPDEST PUSH0 PUSH1 0x20 DUP3 DUP5 SUB SLT ISZERO PUSH2 0x39F9 JUMPI PUSH0 DUP1 REVERT JUMPDEST DUP2 MLOAD PUSH1 0x1 PUSH1 0x1 PUSH1 0x40 SHL SUB DUP2 GT ISZERO PUSH2 0x3A0E JUMPI PUSH0 DUP1 REVERT JUMPDEST PUSH2 0x22F9 DUP5 DUP3 DUP6 ADD PUSH2 0x39A7 JUMP JUMPDEST PUSH0 DUP2 MLOAD DUP1 DUP5 MSTORE PUSH2 0x3A31 DUP2 PUSH1 0x20 DUP7 ADD PUSH1 0x20 DUP7 ADD PUSH2 0x3941 JUMP JUMPDEST PUSH1 0x1F ADD PUSH1 0x1F NOT AND SWAP3 SWAP1 SWAP3 ADD PUSH1 0x20 ADD SWAP3 SWAP2 POP POP JUMP JUMPDEST PUSH0 PUSH1 0x20 DUP1 DUP4 ADD PUSH1 0x20 DUP5 MSTORE DUP1 DUP6 MLOAD DUP1 DUP4 MSTORE PUSH1 0x40 DUP7 ADD SWAP2 POP PUSH1 0x40 DUP2 PUSH1 0x5 SHL DUP8 ADD ADD SWAP3 POP PUSH1 0x20 DUP8 ADD PUSH0 JUMPDEST DUP3 DUP2 LT ISZERO PUSH2 0x3A9A JUMPI PUSH1 0x3F NOT DUP9 DUP7 SUB ADD DUP5 MSTORE PUSH2 0x3A88 DUP6 DUP4 MLOAD PUSH2 0x3A1A JUMP JUMPDEST SWAP5 POP SWAP3 DUP6 ADD SWAP3 SWAP1 DUP6 ADD SWAP1 PUSH1 0x1 ADD PUSH2 0x3A6C JUMP JUMPDEST POP SWAP3 SWAP8 SWAP7 POP POP POP POP POP POP POP JUMP JUMPDEST PUSH4 0x4E487B71 PUSH1 0xE0 SHL PUSH0 MSTORE PUSH1 0x12 PUSH1 0x4 MSTORE PUSH1 0x24 PUSH0 REVERT JUMPDEST PUSH0 DUP3 PUSH2 0x3AC9 JUMPI PUSH2 0x3AC9 PUSH2 0x3AA7 JUMP JUMPDEST POP MOD SWAP1 JUMP JUMPDEST PUSH0 DUP3 PUSH2 0x3ADC JUMPI PUSH2 0x3ADC PUSH2 0x3AA7 JUMP JUMPDEST POP DIV SWAP1 JUMP JUMPDEST PUSH4 0x4E487B71 PUSH1 0xE0 SHL PUSH0 MSTORE PUSH1 0x21 PUSH1 0x4 MSTORE PUSH1 0x24 PUSH0 REVERT JUMPDEST DUP1 DUP3 ADD DUP1 DUP3 GT ISZERO PUSH2 0x482 JUMPI PUSH2 0x482 PUSH2 0x3902 JUMP JUMPDEST PUSH1 0xFF DUP3 DUP2 AND DUP3 DUP3 AND SUB SWAP1 DUP2 GT ISZERO PUSH2 0x482 JUMPI PUSH2 0x482 PUSH2 0x3902 JUMP JUMPDEST PUSH1 0x1 DUP2 DUP2 JUMPDEST DUP1 DUP6 GT ISZERO PUSH2 0x3B5B JUMPI DUP2 PUSH0 NOT DIV DUP3 GT ISZERO PUSH2 0x3B41 JUMPI PUSH2 0x3B41 PUSH2 0x3902 JUMP JUMPDEST DUP1 DUP6 AND ISZERO PUSH2 0x3B4E JUMPI SWAP2 DUP2 MUL SWAP2 JUMPDEST SWAP4 DUP5 SHR SWAP4 SWAP1 DUP1 MUL SWAP1 PUSH2 0x3B26 JUMP JUMPDEST POP SWAP3 POP SWAP3 SWAP1 POP JUMP JUMPDEST PUSH0 DUP3 PUSH2 0x3B71 JUMPI POP PUSH1 0x1 PUSH2 0x482 JUMP JUMPDEST DUP2 PUSH2 0x3B7D JUMPI POP PUSH0 PUSH2 0x482 JUMP JUMPDEST DUP2 PUSH1 0x1 DUP2 EQ PUSH2 0x3B93 JUMPI PUSH1 0x2 DUP2 EQ PUSH2 0x3B9D JUMPI PUSH2 0x3BB9 JUMP JUMPDEST PUSH1 0x1 SWAP2 POP POP PUSH2 0x482 JUMP JUMPDEST PUSH1 0xFF DUP5 GT ISZERO PUSH2 0x3BAE JUMPI PUSH2 0x3BAE PUSH2 0x3902 JUMP JUMPDEST POP POP PUSH1 0x1 DUP3 SHL PUSH2 0x482 JUMP JUMPDEST POP PUSH1 0x20 DUP4 LT PUSH2 0x133 DUP4 LT AND PUSH1 0x4E DUP5 LT PUSH1 0xB DUP5 LT AND OR ISZERO PUSH2 0x3BDC JUMPI POP DUP2 DUP2 EXP PUSH2 0x482 JUMP JUMPDEST PUSH2 0x3BE6 DUP4 DUP4 PUSH2 0x3B21 JUMP JUMPDEST DUP1 PUSH0 NOT DIV DUP3 GT ISZERO PUSH2 0x3BF9 JUMPI PUSH2 0x3BF9 PUSH2 0x3902 JUMP JUMPDEST MUL SWAP4 SWAP3 POP POP POP JUMP JUMPDEST PUSH0 PUSH2 0x29D PUSH1 0xFF DUP5 AND DUP4 PUSH2 0x3B63 JUMP JUMPDEST DUP2 DUP2 SUB DUP2 DUP2 GT ISZERO PUSH2 0x482 JUMPI PUSH2 0x482 PUSH2 0x3902 JUMP JUMPDEST PUSH1 0x1 PUSH1 0x1 PUSH1 0x40 SHL SUB DUP2 DUP2 AND DUP4 DUP3 AND MUL DUP1 DUP3 AND SWAP2 SWAP1 DUP3 DUP2 EQ PUSH2 0x3C45 JUMPI PUSH2 0x3C45 PUSH2 0x3902 JUMP JUMPDEST POP POP SWAP3 SWAP2 POP POP JUMP JUMPDEST DUP1 MLOAD DUP1 ISZERO ISZERO DUP2 EQ PUSH2 0x32DA JUMPI PUSH0 DUP1 REVERT JUMPDEST PUSH0 PUSH1 0x20 DUP3 DUP5 SUB SLT ISZERO PUSH2 0x3C6C JUMPI PUSH0 DUP1 REVERT JUMPDEST PUSH2 0x29D DUP3 PUSH2 0x3C4D JUMP JUMPDEST PUSH1 0x20 DUP2 MSTORE PUSH0 PUSH2 0x29D PUSH1 0x20 DUP4 ADD DUP5 PUSH2 0x3A1A JUMP JUMPDEST DUP1 MLOAD PUSH4 0xFFFFFFFF DUP2 AND DUP2 EQ PUSH2 0x32DA JUMPI PUSH0 DUP1 REVERT JUMPDEST DUP1 MLOAD PUSH2 0x32DA DUP2 PUSH2 0x384F JUMP JUMPDEST DUP1 MLOAD PUSH2 0x32DA DUP2 PUSH2 0x361D JUMP JUMPDEST PUSH0 DUP3 PUSH1 0x1F DUP4 ADD SLT PUSH2 0x3CBF JUMPI PUSH0 DUP1 REVERT JUMPDEST DUP2 MLOAD PUSH1 0x20 PUSH2 0x3CCF PUSH2 0x33AF DUP4 PUSH2 0x336E JUMP JUMPDEST DUP3 DUP2 MSTORE PUSH1 0x7 SWAP3 SWAP1 SWAP3 SHL DUP5 ADD DUP2 ADD SWAP2 DUP2 DUP2 ADD SWAP1 DUP7 DUP5 GT ISZERO PUSH2 0x3CED JUMPI PUSH0 DUP1 REVERT JUMPDEST DUP3 DUP7 ADD JUMPDEST DUP5 DUP2 LT ISZERO PUSH2 0x33F8 JUMPI PUSH1 0x80 DUP2 DUP10 SUB SLT ISZERO PUSH2 0x3D08 JUMPI PUSH0 DUP1 REVERT JUMPDEST PUSH2 0x3D10 PUSH2 0x32F3 JUMP JUMPDEST DUP2 MLOAD DUP2 MSTORE DUP5 DUP3 ADD MLOAD DUP6 DUP3 ADD MSTORE PUSH1 0x40 PUSH2 0x3D29 DUP2 DUP5 ADD PUSH2 0x397E JUMP JUMPDEST SWAP1 DUP3 ADD MSTORE PUSH1 0x60 PUSH2 0x3D3A DUP4 DUP3 ADD PUSH2 0x397E JUMP JUMPDEST SWAP1 DUP3 ADD MSTORE DUP4 MSTORE SWAP2 DUP4 ADD SWAP2 PUSH1 0x80 ADD PUSH2 0x3CF1 JUMP JUMPDEST PUSH0 DUP1 PUSH0 PUSH1 0x60 DUP5 DUP7 SUB SLT ISZERO PUSH2 0x3D5E JUMPI PUSH0 DUP1 REVERT JUMPDEST DUP4 MLOAD PUSH1 0x1 PUSH1 0x1 PUSH1 0x40 SHL SUB DUP1 DUP3 GT ISZERO PUSH2 0x3D74 JUMPI PUSH0 DUP1 REVERT JUMPDEST SWAP1 DUP6 ADD SWAP1 PUSH2 0x160 DUP3 DUP9 SUB SLT ISZERO PUSH2 0x3D88 JUMPI PUSH0 DUP1 REVERT JUMPDEST PUSH2 0x3D90 PUSH2 0x331B JUMP JUMPDEST PUSH2 0x3D99 DUP4 PUSH2 0x397E JUMP JUMPDEST DUP2 MSTORE PUSH2 0x3DA7 PUSH1 0x20 DUP5 ADD PUSH2 0x3C87 JUMP JUMPDEST PUSH1 0x20 DUP3 ADD MSTORE PUSH2 0x3DB8 PUSH1 0x40 DUP5 ADD PUSH2 0x3C87 JUMP JUMPDEST PUSH1 0x40 DUP3 ADD MSTORE PUSH2 0x3DC9 PUSH1 0x60 DUP5 ADD PUSH2 0x3C9A JUMP JUMPDEST PUSH1 0x60 DUP3 ADD MSTORE PUSH1 0x80 DUP4 ADD MLOAD PUSH1 0x80 DUP3 ADD MSTORE PUSH2 0x3DE4 PUSH1 0xA0 DUP5 ADD PUSH2 0x3CA5 JUMP JUMPDEST PUSH1 0xA0 DUP3 ADD MSTORE PUSH2 0x3DF5 PUSH1 0xC0 DUP5 ADD PUSH2 0x397E JUMP JUMPDEST PUSH1 0xC0 DUP3 ADD MSTORE PUSH1 0xE0 DUP4 ADD MLOAD DUP3 DUP2 GT ISZERO PUSH2 0x3E0B JUMPI PUSH0 DUP1 REVERT JUMPDEST PUSH2 0x3E17 DUP10 DUP3 DUP7 ADD PUSH2 0x39A7 JUMP JUMPDEST PUSH1 0xE0 DUP4 ADD MSTORE POP PUSH2 0x100 PUSH2 0x3E2B DUP2 DUP6 ADD PUSH2 0x3C87 JUMP JUMPDEST SWAP1 DUP3 ADD MSTORE PUSH2 0x120 DUP4 DUP2 ADD MLOAD DUP4 DUP2 GT ISZERO PUSH2 0x3E42 JUMPI PUSH0 DUP1 REVERT JUMPDEST PUSH2 0x3E4E DUP11 DUP3 DUP8 ADD PUSH2 0x3CB0 JUMP JUMPDEST SWAP2 DUP4 ADD SWAP2 SWAP1 SWAP2 MSTORE POP PUSH2 0x140 DUP4 DUP2 ADD MLOAD SWAP1 DUP3 ADD MSTORE SWAP5 POP PUSH2 0x3E6F PUSH1 0x20 DUP8 ADD PUSH2 0x3C4D JUMP JUMPDEST SWAP4 POP PUSH1 0x40 DUP7 ADD MLOAD SWAP2 POP DUP1 DUP3 GT ISZERO PUSH2 0x3E84 JUMPI PUSH0 DUP1 REVERT JUMPDEST POP PUSH2 0x3E91 DUP7 DUP3 DUP8 ADD PUSH2 0x39A7 JUMP JUMPDEST SWAP2 POP POP SWAP3 POP SWAP3 POP SWAP3 JUMP JUMPDEST PUSH0 PUSH1 0x20 DUP3 DUP5 SUB SLT ISZERO PUSH2 0x3EAB JUMPI PUSH0 DUP1 REVERT JUMPDEST DUP2 MLOAD PUSH2 0x29D DUP2 PUSH2 0x361D JUMP JUMPDEST PUSH1 0x1 PUSH1 0x1 PUSH1 0x40 SHL SUB DUP3 DUP2 AND DUP3 DUP3 AND SUB SWAP1 DUP1 DUP3 GT ISZERO PUSH2 0x3ED6 JUMPI PUSH2 0x3ED6 PUSH2 0x3902 JUMP JUMPDEST POP SWAP3 SWAP2 POP POP JUMP JUMPDEST PUSH1 0x1 PUSH1 0x1 PUSH1 0x40 SHL SUB DUP2 DUP2 AND DUP4 DUP3 AND ADD SWAP1 DUP1 DUP3 GT ISZERO PUSH2 0x3ED6 JUMPI PUSH2 0x3ED6 PUSH2 0x3902 JUMP JUMPDEST PUSH0 PUSH1 0x80 DUP3 DUP5 SUB SLT ISZERO PUSH2 0x3F0D JUMPI PUSH0 DUP1 REVERT JUMPDEST PUSH2 0x3F15 PUSH2 0x32F3 JUMP JUMPDEST DUP3 MLOAD PUSH2 0x3F20 DUP2 PUSH2 0x360F JUMP JUMPDEST DUP2 MSTORE PUSH1 0x20 DUP4 ADD MLOAD PUSH2 0x3F30 DUP2 PUSH2 0x361D JUMP JUMPDEST PUSH1 0x20 DUP3 ADD MSTORE PUSH1 0x40 DUP4 ADD MLOAD PUSH2 0x3F43 DUP2 PUSH2 0x3631 JUMP JUMPDEST PUSH1 0x40 DUP3 ADD MSTORE PUSH1 0x60 SWAP3 DUP4 ADD MLOAD SWAP3 DUP2 ADD SWAP3 SWAP1 SWAP3 MSTORE POP SWAP2 SWAP1 POP JUMP INVALID LOG2 PUSH5 0x6970667358 0x22 SLT KECCAK256 EQ PUSH26 0x15DE27C4ECBF8392E75B9AED40A051DCB2DD4EF10387ADF2E9F SWAP8 LT 0xC9 ISZERO PUSH5 0x736F6C6343 STOP ADDMOD OR STOP CALLER "
		},
		"gasEstimates": {
			"creation": {
				"codeDepositCost": "3254600",
				"executionCost": "infinite",
				"totalCost": "infinite"
			},
			"external": {
				"completeBorrow(bytes)": "infinite",
				"completeDeposit(bytes)": "infinite",
				"completeRepay(bytes)": "infinite",
				"completeWithdraw(bytes)": "infinite",
				"denormalizeAmount(uint256,uint256,uint8)": "infinite",
				"getAssetInfo(address)": "infinite",
				"getGlobalBalance(address)": "infinite",
				"getInterestAccrualIndexPrecision()": "2325",
				"getInterestAccrualIndices(address)": "4915",
				"getUserBalance(address,address)": "infinite",
				"liquidation(address,address[],uint256[],address[],uint256[])": "infinite",
				"normalizeAmount(uint256,uint256,uint8)": "infinite",
				"owner()": "2410",
				"registerAsset(address,uint256,uint256,uint64,uint256[],uint256[],uint256,uint256,bytes32)": "infinite",
				"registerSpoke(uint16,address)": "26990",
				"renounceOwnership()": "infinite",
				"setMockPythFeed(bytes32,int64,uint64,int32,int64,uint64,uint64)": "infinite",
				"setOraclePrice(bytes32,(int64,uint64,int32,uint256))": "infinite",
				"transferOwnership(address)": "28439"
			},
			"internal": {
				"completeAction(bytes memory,bool)": "infinite",
				"logActionOnHub(enum HubSpokeStructs.Action,address,address,uint256)": "infinite"
			}
		},
		"methodIdentifiers": {
			"completeBorrow(bytes)": "d0a6998a",
			"completeDeposit(bytes)": "eaf4a0ae",
			"completeRepay(bytes)": "23909f0a",
			"completeWithdraw(bytes)": "1d92aa84",
			"denormalizeAmount(uint256,uint256,uint8)": "02678ade",
			"getAssetInfo(address)": "afad2e16",
			"getGlobalBalance(address)": "6c7d83cf",
			"getInterestAccrualIndexPrecision()": "a1424f26",
			"getInterestAccrualIndices(address)": "e80a03f3",
			"getUserBalance(address,address)": "6805d6ad",
			"liquidation(address,address[],uint256[],address[],uint256[])": "0942e292",
			"normalizeAmount(uint256,uint256,uint8)": "be761a05",
			"owner()": "8da5cb5b",
			"registerAsset(address,uint256,uint256,uint64,uint256[],uint256[],uint256,uint256,bytes32)": "8e7eb00a",
			"registerSpoke(uint16,address)": "c52ddc0e",
			"renounceOwnership()": "715018a6",
			"setMockPythFeed(bytes32,int64,uint64,int32,int64,uint64,uint64)": "d3cc2e48",
			"setOraclePrice(bytes32,(int64,uint64,int32,uint256))": "6cc0b5fe",
			"transferOwnership(address)": "f2fde38b"
		}
	},
	"abi": [
		{
			"inputs": [
				{
					"internalType": "address",
					"name": "wormhole",
					"type": "address"
				},
				{
					"internalType": "address",
					"name": "tokenBridge",
					"type": "address"
				},
				{
					"internalType": "uint8",
					"name": "consistencyLevel",
					"type": "uint8"
				},
				{
					"internalType": "address",
					"name": "pythAddress",
					"type": "address"
				},
				{
					"internalType": "uint8",
					"name": "oracleMode",
					"type": "uint8"
				},
				{
					"internalType": "uint64",
					"name": "priceStandardDeviations",
					"type": "uint64"
				},
				{
					"internalType": "uint64",
					"name": "priceStandardDeviationsPrecision",
					"type": "uint64"
				},
				{
					"internalType": "uint256",
					"name": "maxLiquidationBonus",
					"type": "uint256"
				},
				{
					"internalType": "uint256",
					"name": "maxLiquidationPortion",
					"type": "uint256"
				},
				{
					"internalType": "uint256",
					"name": "maxLiquidationPortionPrecision",
					"type": "uint256"
				},
				{
					"internalType": "uint256",
					"name": "interestAccrualIndexPrecision",
					"type": "uint256"
				},
				{
					"internalType": "uint256",
					"name": "collateralizationRatioPrecision",
					"type": "uint256"
				}
			],
			"stateMutability": "nonpayable",
			"type": "constructor"
		},
		{
			"inputs": [
				{
					"internalType": "address",
					"name": "target",
					"type": "address"
				}
			],
			"name": "AddressEmptyCode",
			"type": "error"
		},
		{
			"inputs": [
				{
					"internalType": "address",
					"name": "account",
					"type": "address"
				}
			],
			"name": "AddressInsufficientBalance",
			"type": "error"
		},
		{
			"inputs": [],
			"name": "FailedInnerCall",
			"type": "error"
		},
		{
			"inputs": [
				{
					"internalType": "address",
					"name": "owner",
					"type": "address"
				}
			],
			"name": "OwnableInvalidOwner",
			"type": "error"
		},
		{
			"inputs": [
				{
					"internalType": "address",
					"name": "account",
					"type": "address"
				}
			],
			"name": "OwnableUnauthorizedAccount",
			"type": "error"
		},
		{
			"inputs": [
				{
					"internalType": "address",
					"name": "token",
					"type": "address"
				}
			],
			"name": "SafeERC20FailedOperation",
			"type": "error"
		},
		{
			"anonymous": false,
			"inputs": [
				{
					"indexed": true,
					"internalType": "address",
					"name": "previousOwner",
					"type": "address"
				},
				{
					"indexed": true,
					"internalType": "address",
					"name": "newOwner",
					"type": "address"
				}
			],
			"name": "OwnershipTransferred",
			"type": "event"
		},
		{
			"inputs": [
				{
					"internalType": "bytes",
					"name": "encodedMessage",
					"type": "bytes"
				}
			],
			"name": "completeBorrow",
			"outputs": [],
			"stateMutability": "nonpayable",
			"type": "function"
		},
		{
			"inputs": [
				{
					"internalType": "bytes",
					"name": "encodedMessage",
					"type": "bytes"
				}
			],
			"name": "completeDeposit",
			"outputs": [],
			"stateMutability": "nonpayable",
			"type": "function"
		},
		{
			"inputs": [
				{
					"internalType": "bytes",
					"name": "encodedMessage",
					"type": "bytes"
				}
			],
			"name": "completeRepay",
			"outputs": [],
			"stateMutability": "nonpayable",
			"type": "function"
		},
		{
			"inputs": [
				{
					"internalType": "bytes",
					"name": "encodedMessage",
					"type": "bytes"
				}
			],
			"name": "completeWithdraw",
			"outputs": [],
			"stateMutability": "nonpayable",
			"type": "function"
		},
		{
			"inputs": [
				{
					"internalType": "uint256",
					"name": "normalizedAmount",
					"type": "uint256"
				},
				{
					"internalType": "uint256",
					"name": "interestAccrualIndex",
					"type": "uint256"
				},
				{
					"internalType": "enum HubSpokeStructs.Round",
					"name": "round",
					"type": "uint8"
				}
			],
			"name": "denormalizeAmount",
			"outputs": [
				{
					"internalType": "uint256",
					"name": "",
					"type": "uint256"
				}
			],
			"stateMutability": "view",
			"type": "function"
		},
		{
			"inputs": [
				{
					"internalType": "address",
					"name": "assetAddress",
					"type": "address"
				}
			],
			"name": "getAssetInfo",
			"outputs": [
				{
					"components": [
						{
							"internalType": "uint256",
							"name": "collateralizationRatioDeposit",
							"type": "uint256"
						},
						{
							"internalType": "uint256",
							"name": "collateralizationRatioBorrow",
							"type": "uint256"
						},
						{
							"internalType": "bytes32",
							"name": "pythId",
							"type": "bytes32"
						},
						{
							"internalType": "uint8",
							"name": "decimals",
							"type": "uint8"
						},
						{
							"components": [
								{
									"internalType": "uint64",
									"name": "ratePrecision",
									"type": "uint64"
								},
								{
									"internalType": "uint256[]",
									"name": "kinks",
									"type": "uint256[]"
								},
								{
									"internalType": "uint256[]",
									"name": "rates",
									"type": "uint256[]"
								},
								{
									"internalType": "uint256",
									"name": "reserveFactor",
									"type": "uint256"
								},
								{
									"internalType": "uint256",
									"name": "reservePrecision",
									"type": "uint256"
								}
							],
							"internalType": "struct HubSpokeStructs.PiecewiseInterestRateModel",
							"name": "interestRateModel",
							"type": "tuple"
						},
						{
							"internalType": "bool",
							"name": "exists",
							"type": "bool"
						}
					],
					"internalType": "struct HubSpokeStructs.AssetInfo",
					"name": "",
					"type": "tuple"
				}
			],
			"stateMutability": "view",
			"type": "function"
		},
		{
			"inputs": [
				{
					"internalType": "address",
					"name": "assetAddress",
					"type": "address"
				}
			],
			"name": "getGlobalBalance",
			"outputs": [
				{
					"components": [
						{
							"internalType": "uint256",
							"name": "deposited",
							"type": "uint256"
						},
						{
							"internalType": "uint256",
							"name": "borrowed",
							"type": "uint256"
						}
					],
					"internalType": "struct HubSpokeStructs.VaultAmount",
					"name": "",
					"type": "tuple"
				}
			],
			"stateMutability": "view",
			"type": "function"
		},
		{
			"inputs": [],
			"name": "getInterestAccrualIndexPrecision",
			"outputs": [
				{
					"internalType": "uint256",
					"name": "",
					"type": "uint256"
				}
			],
			"stateMutability": "view",
			"type": "function"
		},
		{
			"inputs": [
				{
					"internalType": "address",
					"name": "assetAddress",
					"type": "address"
				}
			],
			"name": "getInterestAccrualIndices",
			"outputs": [
				{
					"components": [
						{
							"internalType": "uint256",
							"name": "deposited",
							"type": "uint256"
						},
						{
							"internalType": "uint256",
							"name": "borrowed",
							"type": "uint256"
						}
					],
					"internalType": "struct HubSpokeStructs.AccrualIndices",
					"name": "",
					"type": "tuple"
				}
			],
			"stateMutability": "view",
			"type": "function"
		},
		{
			"inputs": [
				{
					"internalType": "address",
					"name": "vaultOwner",
					"type": "address"
				},
				{
					"internalType": "address",
					"name": "assetAddress",
					"type": "address"
				}
			],
			"name": "getUserBalance",
			"outputs": [
				{
					"components": [
						{
							"internalType": "uint256",
							"name": "deposited",
							"type": "uint256"
						},
						{
							"internalType": "uint256",
							"name": "borrowed",
							"type": "uint256"
						}
					],
					"internalType": "struct HubSpokeStructs.VaultAmount",
					"name": "",
					"type": "tuple"
				}
			],
			"stateMutability": "view",
			"type": "function"
		},
		{
			"inputs": [
				{
					"internalType": "address",
					"name": "vault",
					"type": "address"
				},
				{
					"internalType": "address[]",
					"name": "assetRepayAddresses",
					"type": "address[]"
				},
				{
					"internalType": "uint256[]",
					"name": "assetRepayAmounts",
					"type": "uint256[]"
				},
				{
					"internalType": "address[]",
					"name": "assetReceiptAddresses",
					"type": "address[]"
				},
				{
					"internalType": "uint256[]",
					"name": "assetReceiptAmounts",
					"type": "uint256[]"
				}
			],
			"name": "liquidation",
			"outputs": [],
			"stateMutability": "nonpayable",
			"type": "function"
		},
		{
			"inputs": [
				{
					"internalType": "uint256",
					"name": "denormalizedAmount",
					"type": "uint256"
				},
				{
					"internalType": "uint256",
					"name": "interestAccrualIndex",
					"type": "uint256"
				},
				{
					"internalType": "enum HubSpokeStructs.Round",
					"name": "round",
					"type": "uint8"
				}
			],
			"name": "normalizeAmount",
			"outputs": [
				{
					"internalType": "uint256",
					"name": "",
					"type": "uint256"
				}
			],
			"stateMutability": "view",
			"type": "function"
		},
		{
			"inputs": [],
			"name": "owner",
			"outputs": [
				{
					"internalType": "address",
					"name": "",
					"type": "address"
				}
			],
			"stateMutability": "view",
			"type": "function"
		},
		{
			"inputs": [
				{
					"internalType": "address",
					"name": "assetAddress",
					"type": "address"
				},
				{
					"internalType": "uint256",
					"name": "collateralizationRatioDeposit",
					"type": "uint256"
				},
				{
					"internalType": "uint256",
					"name": "collateralizationRatioBorrow",
					"type": "uint256"
				},
				{
					"internalType": "uint64",
					"name": "ratePrecision",
					"type": "uint64"
				},
				{
					"internalType": "uint256[]",
					"name": "kinks",
					"type": "uint256[]"
				},
				{
					"internalType": "uint256[]",
					"name": "rates",
					"type": "uint256[]"
				},
				{
					"internalType": "uint256",
					"name": "reserveFactor",
					"type": "uint256"
				},
				{
					"internalType": "uint256",
					"name": "reservePrecision",
					"type": "uint256"
				},
				{
					"internalType": "bytes32",
					"name": "pythId",
					"type": "bytes32"
				}
			],
			"name": "registerAsset",
			"outputs": [],
			"stateMutability": "nonpayable",
			"type": "function"
		},
		{
			"inputs": [
				{
					"internalType": "uint16",
					"name": "chainId",
					"type": "uint16"
				},
				{
					"internalType": "address",
					"name": "spokeContractAddress",
					"type": "address"
				}
			],
			"name": "registerSpoke",
			"outputs": [],
			"stateMutability": "nonpayable",
			"type": "function"
		},
		{
			"inputs": [],
			"name": "renounceOwnership",
			"outputs": [],
			"stateMutability": "nonpayable",
			"type": "function"
		},
		{
			"inputs": [
				{
					"internalType": "bytes32",
					"name": "id",
					"type": "bytes32"
				},
				{
					"internalType": "int64",
					"name": "price",
					"type": "int64"
				},
				{
					"internalType": "uint64",
					"name": "conf",
					"type": "uint64"
				},
				{
					"internalType": "int32",
					"name": "expo",
					"type": "int32"
				},
				{
					"internalType": "int64",
					"name": "emaPrice",
					"type": "int64"
				},
				{
					"internalType": "uint64",
					"name": "emaConf",
					"type": "uint64"
				},
				{
					"internalType": "uint64",
					"name": "publishTime",
					"type": "uint64"
				}
			],
			"name": "setMockPythFeed",
			"outputs": [],
			"stateMutability": "nonpayable",
			"type": "function"
		},
		{
			"inputs": [
				{
					"internalType": "bytes32",
					"name": "oracleId",
					"type": "bytes32"
				},
				{
					"components": [
						{
							"internalType": "int64",
							"name": "price",
							"type": "int64"
						},
						{
							"internalType": "uint64",
							"name": "conf",
							"type": "uint64"
						},
						{
							"internalType": "int32",
							"name": "expo",
							"type": "int32"
						},
						{
							"internalType": "uint256",
							"name": "publishTime",
							"type": "uint256"
						}
					],
					"internalType": "struct HubSpokeStructs.Price",
					"name": "price",
					"type": "tuple"
				}
			],
			"name": "setOraclePrice",
			"outputs": [],
			"stateMutability": "nonpayable",
			"type": "function"
		},
		{
			"inputs": [
				{
					"internalType": "address",
					"name": "newOwner",
					"type": "address"
				}
			],
			"name": "transferOwnership",
			"outputs": [],
			"stateMutability": "nonpayable",
			"type": "function"
		}
	]
}