{
	"data": {
		"bytecode": {
			"linkReferences": {},
			"object": "608060405234801561000f575f80fd5b505f8073ffffffffffffffffffffffffffffffffffffffff168173ffffffffffffffffffffffffffffffffffffffff1603610081575f6040517f1e4fbdf70000000000000000000000000000000000000000000000000000000081526004016100789190610196565b60405180910390fd5b6100908161009660201b60201c565b506101af565b5f805f9054906101000a900473ffffffffffffffffffffffffffffffffffffffff169050815f806101000a81548173ffffffffffffffffffffffffffffffffffffffff021916908373ffffffffffffffffffffffffffffffffffffffff1602179055508173ffffffffffffffffffffffffffffffffffffffff168173ffffffffffffffffffffffffffffffffffffffff167f8be0079c531659141344cd1fd0a4f28419497f9722a3daafe3b4186f6b6457e060405160405180910390a35050565b5f73ffffffffffffffffffffffffffffffffffffffff82169050919050565b5f61018082610157565b9050919050565b61019081610176565b82525050565b5f6020820190506101a95f830184610187565b92915050565b61098e806101bc5f395ff3fe608060405234801561000f575f80fd5b5060043610610060575f3560e01c8063715018a6146100645780638da5cb5b1461006e578063a1424f261461008c578063afad2e16146100aa578063e80a03f3146100da578063f2fde38b1461010a575b5f80fd5b61006c610126565b005b610076610139565b6040516100839190610629565b60405180910390f35b610094610160565b6040516100a1919061065a565b60405180910390f35b6100c460048036038101906100bf91906106a1565b61016c565b6040516100d191906108f2565b60405180910390f35b6100f460048036038101906100ef91906106a1565b61031d565b604051610101919061093f565b60405180910390f35b610124600480360381019061011f91906106a1565b61038a565b005b61012e61040e565b6101375f610495565b565b5f805f9054906101000a900473ffffffffffffffffffffffffffffffffffffffff16905090565b5f600160100154905090565b61017461055d565b60016009015f8373ffffffffffffffffffffffffffffffffffffffff1673ffffffffffffffffffffffffffffffffffffffff1681526020019081526020015f206040518060c00160405290815f82015481526020016001820154815260200160028201548152602001600382015f9054906101000a900460ff1660ff1660ff168152602001600482016040518060a00160405290815f82015f9054906101000a900467ffffffffffffffff1667ffffffffffffffff1667ffffffffffffffff1681526020016001820180548060200260200160405190810160405280929190818152602001828054801561028557602002820191905f5260205f20905b815481526020019060010190808311610271575b50505050508152602001600282018054806020026020016040519081016040528092919081815260200182805480156102db57602002820191905f5260205f20905b8154815260200190600101908083116102c7575b50505050508152602001600382015481526020016004820154815250508152602001600982015f9054906101000a900460ff1615151515815250509050919050565b61032561059c565b6001600c015f8373ffffffffffffffffffffffffffffffffffffffff1673ffffffffffffffffffffffffffffffffffffffff1681526020019081526020015f206040518060400160405290815f82015481526020016001820154815250509050919050565b61039261040e565b5f73ffffffffffffffffffffffffffffffffffffffff168173ffffffffffffffffffffffffffffffffffffffff1603610402575f6040517f1e4fbdf70000000000000000000000000000000000000000000000000000000081526004016103f99190610629565b60405180910390fd5b61040b81610495565b50565b610416610556565b73ffffffffffffffffffffffffffffffffffffffff16610434610139565b73ffffffffffffffffffffffffffffffffffffffff161461049357610457610556565b6040517f118cdaa700000000000000000000000000000000000000000000000000000000815260040161048a9190610629565b60405180910390fd5b565b5f805f9054906101000a900473ffffffffffffffffffffffffffffffffffffffff169050815f806101000a81548173ffffffffffffffffffffffffffffffffffffffff021916908373ffffffffffffffffffffffffffffffffffffffff1602179055508173ffffffffffffffffffffffffffffffffffffffff168173ffffffffffffffffffffffffffffffffffffffff167f8be0079c531659141344cd1fd0a4f28419497f9722a3daafe3b4186f6b6457e060405160405180910390a35050565b5f33905090565b6040518060c001604052805f81526020015f81526020015f80191681526020015f60ff16815260200161058e6105b4565b81526020015f151581525090565b60405180604001604052805f81526020015f81525090565b6040518060a001604052805f67ffffffffffffffff16815260200160608152602001606081526020015f81526020015f81525090565b5f73ffffffffffffffffffffffffffffffffffffffff82169050919050565b5f610613826105ea565b9050919050565b61062381610609565b82525050565b5f60208201905061063c5f83018461061a565b92915050565b5f819050919050565b61065481610642565b82525050565b5f60208201905061066d5f83018461064b565b92915050565b5f80fd5b61068081610609565b811461068a575f80fd5b50565b5f8135905061069b81610677565b92915050565b5f602082840312156106b6576106b5610673565b5b5f6106c38482850161068d565b91505092915050565b6106d581610642565b82525050565b5f819050919050565b6106ed816106db565b82525050565b5f60ff82169050919050565b610708816106f3565b82525050565b5f67ffffffffffffffff82169050919050565b61072a8161070e565b82525050565b5f81519050919050565b5f82825260208201905092915050565b5f819050602082019050919050565b5f61076483836106cc565b60208301905092915050565b5f602082019050919050565b5f61078682610730565b610790818561073a565b935061079b8361074a565b805f5b838110156107cb5781516107b28882610759565b97506107bd83610770565b92505060018101905061079e565b5085935050505092915050565b5f60a083015f8301516107ed5f860182610721565b5060208301518482036020860152610805828261077c565b9150506040830151848203604086015261081f828261077c565b915050606083015161083460608601826106cc565b50608083015161084760808601826106cc565b508091505092915050565b5f8115159050919050565b61086681610852565b82525050565b5f60c083015f8301516108815f8601826106cc565b50602083015161089460208601826106cc565b5060408301516108a760408601826106e4565b5060608301516108ba60608601826106ff565b50608083015184820360808601526108d282826107d8565b91505060a08301516108e760a086018261085d565b508091505092915050565b5f6020820190508181035f83015261090a818461086c565b905092915050565b604082015f8201516109265f8501826106cc565b50602082015161093960208501826106cc565b50505050565b5f6040820190506109525f830184610912565b9291505056fea26469706673582212201e76837f1284cb0ca09bcd56c573f0c9f9e3d544cedada4bfbaffa4d40d9a49964736f6c63430008170033",
			"opcodes": "PUSH1 0x80 PUSH1 0x40 MSTORE CALLVALUE DUP1 ISZERO PUSH2 0xF JUMPI PUSH0 DUP1 REVERT JUMPDEST POP PUSH0 DUP1 PUSH20 0xFFFFFFFFFFFFFFFFFFFFFFFFFFFFFFFFFFFFFFFF AND DUP2 PUSH20 0xFFFFFFFFFFFFFFFFFFFFFFFFFFFFFFFFFFFFFFFF AND SUB PUSH2 0x81 JUMPI PUSH0 PUSH1 0x40 MLOAD PUSH32 0x1E4FBDF700000000000000000000000000000000000000000000000000000000 DUP2 MSTORE PUSH1 0x4 ADD PUSH2 0x78 SWAP2 SWAP1 PUSH2 0x196 JUMP JUMPDEST PUSH1 0x40 MLOAD DUP1 SWAP2 SUB SWAP1 REVERT JUMPDEST PUSH2 0x90 DUP2 PUSH2 0x96 PUSH1 0x20 SHL PUSH1 0x20 SHR JUMP JUMPDEST POP PUSH2 0x1AF JUMP JUMPDEST PUSH0 DUP1 PUSH0 SWAP1 SLOAD SWAP1 PUSH2 0x100 EXP SWAP1 DIV PUSH20 0xFFFFFFFFFFFFFFFFFFFFFFFFFFFFFFFFFFFFFFFF AND SWAP1 POP DUP2 PUSH0 DUP1 PUSH2 0x100 EXP DUP2 SLOAD DUP2 PUSH20 0xFFFFFFFFFFFFFFFFFFFFFFFFFFFFFFFFFFFFFFFF MUL NOT AND SWAP1 DUP4 PUSH20 0xFFFFFFFFFFFFFFFFFFFFFFFFFFFFFFFFFFFFFFFF AND MUL OR SWAP1 SSTORE POP DUP2 PUSH20 0xFFFFFFFFFFFFFFFFFFFFFFFFFFFFFFFFFFFFFFFF AND DUP2 PUSH20 0xFFFFFFFFFFFFFFFFFFFFFFFFFFFFFFFFFFFFFFFF AND PUSH32 0x8BE0079C531659141344CD1FD0A4F28419497F9722A3DAAFE3B4186F6B6457E0 PUSH1 0x40 MLOAD PUSH1 0x40 MLOAD DUP1 SWAP2 SUB SWAP1 LOG3 POP POP JUMP JUMPDEST PUSH0 PUSH20 0xFFFFFFFFFFFFFFFFFFFFFFFFFFFFFFFFFFFFFFFF DUP3 AND SWAP1 POP SWAP2 SWAP1 POP JUMP JUMPDEST PUSH0 PUSH2 0x180 DUP3 PUSH2 0x157 JUMP JUMPDEST SWAP1 POP SWAP2 SWAP1 POP JUMP JUMPDEST PUSH2 0x190 DUP2 PUSH2 0x176 JUMP JUMPDEST DUP3 MSTORE POP POP JUMP JUMPDEST PUSH0 PUSH1 0x20 DUP3 ADD SWAP1 POP PUSH2 0x1A9 PUSH0 DUP4 ADD DUP5 PUSH2 0x187 JUMP JUMPDEST SWAP3 SWAP2 POP POP JUMP JUMPDEST PUSH2 0x98E DUP1 PUSH2 0x1BC PUSH0 CODECOPY PUSH0 RETURN INVALID PUSH1 0x80 PUSH1 0x40 MSTORE CALLVALUE DUP1 ISZERO PUSH2 0xF JUMPI PUSH0 DUP1 REVERT JUMPDEST POP PUSH1 0x4 CALLDATASIZE LT PUSH2 0x60 JUMPI PUSH0 CALLDATALOAD PUSH1 0xE0 SHR DUP1 PUSH4 0x715018A6 EQ PUSH2 0x64 JUMPI DUP1 PUSH4 0x8DA5CB5B EQ PUSH2 0x6E JUMPI DUP1 PUSH4 0xA1424F26 EQ PUSH2 0x8C JUMPI DUP1 PUSH4 0xAFAD2E16 EQ PUSH2 0xAA JUMPI DUP1 PUSH4 0xE80A03F3 EQ PUSH2 0xDA JUMPI DUP1 PUSH4 0xF2FDE38B EQ PUSH2 0x10A JUMPI JUMPDEST PUSH0 DUP1 REVERT JUMPDEST PUSH2 0x6C PUSH2 0x126 JUMP JUMPDEST STOP JUMPDEST PUSH2 0x76 PUSH2 0x139 JUMP JUMPDEST PUSH1 0x40 MLOAD PUSH2 0x83 SWAP2 SWAP1 PUSH2 0x629 JUMP JUMPDEST PUSH1 0x40 MLOAD DUP1 SWAP2 SUB SWAP1 RETURN JUMPDEST PUSH2 0x94 PUSH2 0x160 JUMP JUMPDEST PUSH1 0x40 MLOAD PUSH2 0xA1 SWAP2 SWAP1 PUSH2 0x65A JUMP JUMPDEST PUSH1 0x40 MLOAD DUP1 SWAP2 SUB SWAP1 RETURN JUMPDEST PUSH2 0xC4 PUSH1 0x4 DUP1 CALLDATASIZE SUB DUP2 ADD SWAP1 PUSH2 0xBF SWAP2 SWAP1 PUSH2 0x6A1 JUMP JUMPDEST PUSH2 0x16C JUMP JUMPDEST PUSH1 0x40 MLOAD PUSH2 0xD1 SWAP2 SWAP1 PUSH2 0x8F2 JUMP JUMPDEST PUSH1 0x40 MLOAD DUP1 SWAP2 SUB SWAP1 RETURN JUMPDEST PUSH2 0xF4 PUSH1 0x4 DUP1 CALLDATASIZE SUB DUP2 ADD SWAP1 PUSH2 0xEF SWAP2 SWAP1 PUSH2 0x6A1 JUMP JUMPDEST PUSH2 0x31D JUMP JUMPDEST PUSH1 0x40 MLOAD PUSH2 0x101 SWAP2 SWAP1 PUSH2 0x93F JUMP JUMPDEST PUSH1 0x40 MLOAD DUP1 SWAP2 SUB SWAP1 RETURN JUMPDEST PUSH2 0x124 PUSH1 0x4 DUP1 CALLDATASIZE SUB DUP2 ADD SWAP1 PUSH2 0x11F SWAP2 SWAP1 PUSH2 0x6A1 JUMP JUMPDEST PUSH2 0x38A JUMP JUMPDEST STOP JUMPDEST PUSH2 0x12E PUSH2 0x40E JUMP JUMPDEST PUSH2 0x137 PUSH0 PUSH2 0x495 JUMP JUMPDEST JUMP JUMPDEST PUSH0 DUP1 PUSH0 SWAP1 SLOAD SWAP1 PUSH2 0x100 EXP SWAP1 DIV PUSH20 0xFFFFFFFFFFFFFFFFFFFFFFFFFFFFFFFFFFFFFFFF AND SWAP1 POP SWAP1 JUMP JUMPDEST PUSH0 PUSH1 0x1 PUSH1 0x10 ADD SLOAD SWAP1 POP SWAP1 JUMP JUMPDEST PUSH2 0x174 PUSH2 0x55D JUMP JUMPDEST PUSH1 0x1 PUSH1 0x9 ADD PUSH0 DUP4 PUSH20 0xFFFFFFFFFFFFFFFFFFFFFFFFFFFFFFFFFFFFFFFF AND PUSH20 0xFFFFFFFFFFFFFFFFFFFFFFFFFFFFFFFFFFFFFFFF AND DUP2 MSTORE PUSH1 0x20 ADD SWAP1 DUP2 MSTORE PUSH1 0x20 ADD PUSH0 KECCAK256 PUSH1 0x40 MLOAD DUP1 PUSH1 0xC0 ADD PUSH1 0x40 MSTORE SWAP1 DUP2 PUSH0 DUP3 ADD SLOAD DUP2 MSTORE PUSH1 0x20 ADD PUSH1 0x1 DUP3 ADD SLOAD DUP2 MSTORE PUSH1 0x20 ADD PUSH1 0x2 DUP3 ADD SLOAD DUP2 MSTORE PUSH1 0x20 ADD PUSH1 0x3 DUP3 ADD PUSH0 SWAP1 SLOAD SWAP1 PUSH2 0x100 EXP SWAP1 DIV PUSH1 0xFF AND PUSH1 0xFF AND PUSH1 0xFF AND DUP2 MSTORE PUSH1 0x20 ADD PUSH1 0x4 DUP3 ADD PUSH1 0x40 MLOAD DUP1 PUSH1 0xA0 ADD PUSH1 0x40 MSTORE SWAP1 DUP2 PUSH0 DUP3 ADD PUSH0 SWAP1 SLOAD SWAP1 PUSH2 0x100 EXP SWAP1 DIV PUSH8 0xFFFFFFFFFFFFFFFF AND PUSH8 0xFFFFFFFFFFFFFFFF AND PUSH8 0xFFFFFFFFFFFFFFFF AND DUP2 MSTORE PUSH1 0x20 ADD PUSH1 0x1 DUP3 ADD DUP1 SLOAD DUP1 PUSH1 0x20 MUL PUSH1 0x20 ADD PUSH1 0x40 MLOAD SWAP1 DUP2 ADD PUSH1 0x40 MSTORE DUP1 SWAP3 SWAP2 SWAP1 DUP2 DUP2 MSTORE PUSH1 0x20 ADD DUP3 DUP1 SLOAD DUP1 ISZERO PUSH2 0x285 JUMPI PUSH1 0x20 MUL DUP3 ADD SWAP2 SWAP1 PUSH0 MSTORE PUSH1 0x20 PUSH0 KECCAK256 SWAP1 JUMPDEST DUP2 SLOAD DUP2 MSTORE PUSH1 0x20 ADD SWAP1 PUSH1 0x1 ADD SWAP1 DUP1 DUP4 GT PUSH2 0x271 JUMPI JUMPDEST POP POP POP POP POP DUP2 MSTORE PUSH1 0x20 ADD PUSH1 0x2 DUP3 ADD DUP1 SLOAD DUP1 PUSH1 0x20 MUL PUSH1 0x20 ADD PUSH1 0x40 MLOAD SWAP1 DUP2 ADD PUSH1 0x40 MSTORE DUP1 SWAP3 SWAP2 SWAP1 DUP2 DUP2 MSTORE PUSH1 0x20 ADD DUP3 DUP1 SLOAD DUP1 ISZERO PUSH2 0x2DB JUMPI PUSH1 0x20 MUL DUP3 ADD SWAP2 SWAP1 PUSH0 MSTORE PUSH1 0x20 PUSH0 KECCAK256 SWAP1 JUMPDEST DUP2 SLOAD DUP2 MSTORE PUSH1 0x20 ADD SWAP1 PUSH1 0x1 ADD SWAP1 DUP1 DUP4 GT PUSH2 0x2C7 JUMPI JUMPDEST POP POP POP POP POP DUP2 MSTORE PUSH1 0x20 ADD PUSH1 0x3 DUP3 ADD SLOAD DUP2 MSTORE PUSH1 0x20 ADD PUSH1 0x4 DUP3 ADD SLOAD DUP2 MSTORE POP POP DUP2 MSTORE PUSH1 0x20 ADD PUSH1 0x9 DUP3 ADD PUSH0 SWAP1 SLOAD SWAP1 PUSH2 0x100 EXP SWAP1 DIV PUSH1 0xFF AND ISZERO ISZERO ISZERO ISZERO DUP2 MSTORE POP POP SWAP1 POP SWAP2 SWAP1 POP JUMP JUMPDEST PUSH2 0x325 PUSH2 0x59C JUMP JUMPDEST PUSH1 0x1 PUSH1 0xC ADD PUSH0 DUP4 PUSH20 0xFFFFFFFFFFFFFFFFFFFFFFFFFFFFFFFFFFFFFFFF AND PUSH20 0xFFFFFFFFFFFFFFFFFFFFFFFFFFFFFFFFFFFFFFFF AND DUP2 MSTORE PUSH1 0x20 ADD SWAP1 DUP2 MSTORE PUSH1 0x20 ADD PUSH0 KECCAK256 PUSH1 0x40 MLOAD DUP1 PUSH1 0x40 ADD PUSH1 0x40 MSTORE SWAP1 DUP2 PUSH0 DUP3 ADD SLOAD DUP2 MSTORE PUSH1 0x20 ADD PUSH1 0x1 DUP3 ADD SLOAD DUP2 MSTORE POP POP SWAP1 POP SWAP2 SWAP1 POP JUMP JUMPDEST PUSH2 0x392 PUSH2 0x40E JUMP JUMPDEST PUSH0 PUSH20 0xFFFFFFFFFFFFFFFFFFFFFFFFFFFFFFFFFFFFFFFF AND DUP2 PUSH20 0xFFFFFFFFFFFFFFFFFFFFFFFFFFFFFFFFFFFFFFFF AND SUB PUSH2 0x402 JUMPI PUSH0 PUSH1 0x40 MLOAD PUSH32 0x1E4FBDF700000000000000000000000000000000000000000000000000000000 DUP2 MSTORE PUSH1 0x4 ADD PUSH2 0x3F9 SWAP2 SWAP1 PUSH2 0x629 JUMP JUMPDEST PUSH1 0x40 MLOAD DUP1 SWAP2 SUB SWAP1 REVERT JUMPDEST PUSH2 0x40B DUP2 PUSH2 0x495 JUMP JUMPDEST POP JUMP JUMPDEST PUSH2 0x416 PUSH2 0x556 JUMP JUMPDEST PUSH20 0xFFFFFFFFFFFFFFFFFFFFFFFFFFFFFFFFFFFFFFFF AND PUSH2 0x434 PUSH2 0x139 JUMP JUMPDEST PUSH20 0xFFFFFFFFFFFFFFFFFFFFFFFFFFFFFFFFFFFFFFFF AND EQ PUSH2 0x493 JUMPI PUSH2 0x457 PUSH2 0x556 JUMP JUMPDEST PUSH1 0x40 MLOAD PUSH32 0x118CDAA700000000000000000000000000000000000000000000000000000000 DUP2 MSTORE PUSH1 0x4 ADD PUSH2 0x48A SWAP2 SWAP1 PUSH2 0x629 JUMP JUMPDEST PUSH1 0x40 MLOAD DUP1 SWAP2 SUB SWAP1 REVERT JUMPDEST JUMP JUMPDEST PUSH0 DUP1 PUSH0 SWAP1 SLOAD SWAP1 PUSH2 0x100 EXP SWAP1 DIV PUSH20 0xFFFFFFFFFFFFFFFFFFFFFFFFFFFFFFFFFFFFFFFF AND SWAP1 POP DUP2 PUSH0 DUP1 PUSH2 0x100 EXP DUP2 SLOAD DUP2 PUSH20 0xFFFFFFFFFFFFFFFFFFFFFFFFFFFFFFFFFFFFFFFF MUL NOT AND SWAP1 DUP4 PUSH20 0xFFFFFFFFFFFFFFFFFFFFFFFFFFFFFFFFFFFFFFFF AND MUL OR SWAP1 SSTORE POP DUP2 PUSH20 0xFFFFFFFFFFFFFFFFFFFFFFFFFFFFFFFFFFFFFFFF AND DUP2 PUSH20 0xFFFFFFFFFFFFFFFFFFFFFFFFFFFFFFFFFFFFFFFF AND PUSH32 0x8BE0079C531659141344CD1FD0A4F28419497F9722A3DAAFE3B4186F6B6457E0 PUSH1 0x40 MLOAD PUSH1 0x40 MLOAD DUP1 SWAP2 SUB SWAP1 LOG3 POP POP JUMP JUMPDEST PUSH0 CALLER SWAP1 POP SWAP1 JUMP JUMPDEST PUSH1 0x40 MLOAD DUP1 PUSH1 0xC0 ADD PUSH1 0x40 MSTORE DUP1 PUSH0 DUP2 MSTORE PUSH1 0x20 ADD PUSH0 DUP2 MSTORE PUSH1 0x20 ADD PUSH0 DUP1 NOT AND DUP2 MSTORE PUSH1 0x20 ADD PUSH0 PUSH1 0xFF AND DUP2 MSTORE PUSH1 0x20 ADD PUSH2 0x58E PUSH2 0x5B4 JUMP JUMPDEST DUP2 MSTORE PUSH1 0x20 ADD PUSH0 ISZERO ISZERO DUP2 MSTORE POP SWAP1 JUMP JUMPDEST PUSH1 0x40 MLOAD DUP1 PUSH1 0x40 ADD PUSH1 0x40 MSTORE DUP1 PUSH0 DUP2 MSTORE PUSH1 0x20 ADD PUSH0 DUP2 MSTORE POP SWAP1 JUMP JUMPDEST PUSH1 0x40 MLOAD DUP1 PUSH1 0xA0 ADD PUSH1 0x40 MSTORE DUP1 PUSH0 PUSH8 0xFFFFFFFFFFFFFFFF AND DUP2 MSTORE PUSH1 0x20 ADD PUSH1 0x60 DUP2 MSTORE PUSH1 0x20 ADD PUSH1 0x60 DUP2 MSTORE PUSH1 0x20 ADD PUSH0 DUP2 MSTORE PUSH1 0x20 ADD PUSH0 DUP2 MSTORE POP SWAP1 JUMP JUMPDEST PUSH0 PUSH20 0xFFFFFFFFFFFFFFFFFFFFFFFFFFFFFFFFFFFFFFFF DUP3 AND SWAP1 POP SWAP2 SWAP1 POP JUMP JUMPDEST PUSH0 PUSH2 0x613 DUP3 PUSH2 0x5EA JUMP JUMPDEST SWAP1 POP SWAP2 SWAP1 POP JUMP JUMPDEST PUSH2 0x623 DUP2 PUSH2 0x609 JUMP JUMPDEST DUP3 MSTORE POP POP JUMP JUMPDEST PUSH0 PUSH1 0x20 DUP3 ADD SWAP1 POP PUSH2 0x63C PUSH0 DUP4 ADD DUP5 PUSH2 0x61A JUMP JUMPDEST SWAP3 SWAP2 POP POP JUMP JUMPDEST PUSH0 DUP2 SWAP1 POP SWAP2 SWAP1 POP JUMP JUMPDEST PUSH2 0x654 DUP2 PUSH2 0x642 JUMP JUMPDEST DUP3 MSTORE POP POP JUMP JUMPDEST PUSH0 PUSH1 0x20 DUP3 ADD SWAP1 POP PUSH2 0x66D PUSH0 DUP4 ADD DUP5 PUSH2 0x64B JUMP JUMPDEST SWAP3 SWAP2 POP POP JUMP JUMPDEST PUSH0 DUP1 REVERT JUMPDEST PUSH2 0x680 DUP2 PUSH2 0x609 JUMP JUMPDEST DUP2 EQ PUSH2 0x68A JUMPI PUSH0 DUP1 REVERT JUMPDEST POP JUMP JUMPDEST PUSH0 DUP2 CALLDATALOAD SWAP1 POP PUSH2 0x69B DUP2 PUSH2 0x677 JUMP JUMPDEST SWAP3 SWAP2 POP POP JUMP JUMPDEST PUSH0 PUSH1 0x20 DUP3 DUP5 SUB SLT ISZERO PUSH2 0x6B6 JUMPI PUSH2 0x6B5 PUSH2 0x673 JUMP JUMPDEST JUMPDEST PUSH0 PUSH2 0x6C3 DUP5 DUP3 DUP6 ADD PUSH2 0x68D JUMP JUMPDEST SWAP2 POP POP SWAP3 SWAP2 POP POP JUMP JUMPDEST PUSH2 0x6D5 DUP2 PUSH2 0x642 JUMP JUMPDEST DUP3 MSTORE POP POP JUMP JUMPDEST PUSH0 DUP2 SWAP1 POP SWAP2 SWAP1 POP JUMP JUMPDEST PUSH2 0x6ED DUP2 PUSH2 0x6DB JUMP JUMPDEST DUP3 MSTORE POP POP JUMP JUMPDEST PUSH0 PUSH1 0xFF DUP3 AND SWAP1 POP SWAP2 SWAP1 POP JUMP JUMPDEST PUSH2 0x708 DUP2 PUSH2 0x6F3 JUMP JUMPDEST DUP3 MSTORE POP POP JUMP JUMPDEST PUSH0 PUSH8 0xFFFFFFFFFFFFFFFF DUP3 AND SWAP1 POP SWAP2 SWAP1 POP JUMP JUMPDEST PUSH2 0x72A DUP2 PUSH2 0x70E JUMP JUMPDEST DUP3 MSTORE POP POP JUMP JUMPDEST PUSH0 DUP2 MLOAD SWAP1 POP SWAP2 SWAP1 POP JUMP JUMPDEST PUSH0 DUP3 DUP3 MSTORE PUSH1 0x20 DUP3 ADD SWAP1 POP SWAP3 SWAP2 POP POP JUMP JUMPDEST PUSH0 DUP2 SWAP1 POP PUSH1 0x20 DUP3 ADD SWAP1 POP SWAP2 SWAP1 POP JUMP JUMPDEST PUSH0 PUSH2 0x764 DUP4 DUP4 PUSH2 0x6CC JUMP JUMPDEST PUSH1 0x20 DUP4 ADD SWAP1 POP SWAP3 SWAP2 POP POP JUMP JUMPDEST PUSH0 PUSH1 0x20 DUP3 ADD SWAP1 POP SWAP2 SWAP1 POP JUMP JUMPDEST PUSH0 PUSH2 0x786 DUP3 PUSH2 0x730 JUMP JUMPDEST PUSH2 0x790 DUP2 DUP6 PUSH2 0x73A JUMP JUMPDEST SWAP4 POP PUSH2 0x79B DUP4 PUSH2 0x74A JUMP JUMPDEST DUP1 PUSH0 JUMPDEST DUP4 DUP2 LT ISZERO PUSH2 0x7CB JUMPI DUP2 MLOAD PUSH2 0x7B2 DUP9 DUP3 PUSH2 0x759 JUMP JUMPDEST SWAP8 POP PUSH2 0x7BD DUP4 PUSH2 0x770 JUMP JUMPDEST SWAP3 POP POP PUSH1 0x1 DUP2 ADD SWAP1 POP PUSH2 0x79E JUMP JUMPDEST POP DUP6 SWAP4 POP POP POP POP SWAP3 SWAP2 POP POP JUMP JUMPDEST PUSH0 PUSH1 0xA0 DUP4 ADD PUSH0 DUP4 ADD MLOAD PUSH2 0x7ED PUSH0 DUP7 ADD DUP3 PUSH2 0x721 JUMP JUMPDEST POP PUSH1 0x20 DUP4 ADD MLOAD DUP5 DUP3 SUB PUSH1 0x20 DUP7 ADD MSTORE PUSH2 0x805 DUP3 DUP3 PUSH2 0x77C JUMP JUMPDEST SWAP2 POP POP PUSH1 0x40 DUP4 ADD MLOAD DUP5 DUP3 SUB PUSH1 0x40 DUP7 ADD MSTORE PUSH2 0x81F DUP3 DUP3 PUSH2 0x77C JUMP JUMPDEST SWAP2 POP POP PUSH1 0x60 DUP4 ADD MLOAD PUSH2 0x834 PUSH1 0x60 DUP7 ADD DUP3 PUSH2 0x6CC JUMP JUMPDEST POP PUSH1 0x80 DUP4 ADD MLOAD PUSH2 0x847 PUSH1 0x80 DUP7 ADD DUP3 PUSH2 0x6CC JUMP JUMPDEST POP DUP1 SWAP2 POP POP SWAP3 SWAP2 POP POP JUMP JUMPDEST PUSH0 DUP2 ISZERO ISZERO SWAP1 POP SWAP2 SWAP1 POP JUMP JUMPDEST PUSH2 0x866 DUP2 PUSH2 0x852 JUMP JUMPDEST DUP3 MSTORE POP POP JUMP JUMPDEST PUSH0 PUSH1 0xC0 DUP4 ADD PUSH0 DUP4 ADD MLOAD PUSH2 0x881 PUSH0 DUP7 ADD DUP3 PUSH2 0x6CC JUMP JUMPDEST POP PUSH1 0x20 DUP4 ADD MLOAD PUSH2 0x894 PUSH1 0x20 DUP7 ADD DUP3 PUSH2 0x6CC JUMP JUMPDEST POP PUSH1 0x40 DUP4 ADD MLOAD PUSH2 0x8A7 PUSH1 0x40 DUP7 ADD DUP3 PUSH2 0x6E4 JUMP JUMPDEST POP PUSH1 0x60 DUP4 ADD MLOAD PUSH2 0x8BA PUSH1 0x60 DUP7 ADD DUP3 PUSH2 0x6FF JUMP JUMPDEST POP PUSH1 0x80 DUP4 ADD MLOAD DUP5 DUP3 SUB PUSH1 0x80 DUP7 ADD MSTORE PUSH2 0x8D2 DUP3 DUP3 PUSH2 0x7D8 JUMP JUMPDEST SWAP2 POP POP PUSH1 0xA0 DUP4 ADD MLOAD PUSH2 0x8E7 PUSH1 0xA0 DUP7 ADD DUP3 PUSH2 0x85D JUMP JUMPDEST POP DUP1 SWAP2 POP POP SWAP3 SWAP2 POP POP JUMP JUMPDEST PUSH0 PUSH1 0x20 DUP3 ADD SWAP1 POP DUP2 DUP2 SUB PUSH0 DUP4 ADD MSTORE PUSH2 0x90A DUP2 DUP5 PUSH2 0x86C JUMP JUMPDEST SWAP1 POP SWAP3 SWAP2 POP POP JUMP JUMPDEST PUSH1 0x40 DUP3 ADD PUSH0 DUP3 ADD MLOAD PUSH2 0x926 PUSH0 DUP6 ADD DUP3 PUSH2 0x6CC JUMP JUMPDEST POP PUSH1 0x20 DUP3 ADD MLOAD PUSH2 0x939 PUSH1 0x20 DUP6 ADD DUP3 PUSH2 0x6CC JUMP JUMPDEST POP POP POP POP JUMP JUMPDEST PUSH0 PUSH1 0x40 DUP3 ADD SWAP1 POP PUSH2 0x952 PUSH0 DUP4 ADD DUP5 PUSH2 0x912 JUMP JUMPDEST SWAP3 SWAP2 POP POP JUMP INVALID LOG2 PUSH5 0x6970667358 0x22 SLT KECCAK256 0x1E PUSH23 0x837F1284CB0CA09BCD56C573F0C9F9E3D544CEDADA4BFB 0xAF STATICCALL 0x4D BLOCKHASH 0xD9 LOG4 SWAP10 PUSH5 0x736F6C6343 STOP ADDMOD OR STOP CALLER "
		},
		"gasEstimates": {
			"creation": {
				"codeDepositCost": "489200",
				"executionCost": "322",
				"totalCost": "489522"
			},
			"external": {
				"getAssetInfo(address)": "infinite",
				"getInterestAccrualIndexPrecision()": "2460",
				"getInterestAccrualIndices(address)": "infinite",
				"owner()": "2515",
				"renounceOwnership()": "infinite",
				"transferOwnership(address)": "infinite"
			},
			"internal": {
				"consistencyLevel()": "infinite",
				"getAllowList()": "infinite",
				"getChainId()": "infinite",
				"getCollateralizationRatioPrecision()": "infinite",
				"getGlobalAmounts(address)": "infinite",
				"getInterestRateModel(address)": "infinite",
				"getLastActivityBlockTimestamp(address)": "infinite",
				"getMaxDecimals()": "infinite",
				"getMaxLiquidationBonus()": "infinite",
				"getMaxLiquidationPortion()": "infinite",
				"getMaxLiquidationPortionPrecision()": "infinite",
				"getMockPythPriceStruct(bytes32)": "infinite",
				"getOracleMode()": "infinite",
				"getOraclePrice(bytes32)": "infinite",
				"getPriceStandardDeviations()": "infinite",
				"getPriceStandardDeviationsPrecision()": "infinite",
				"getPythPriceStruct(bytes32)": "infinite",
				"getSpokeContract(uint16)": "infinite",
				"getTotalAssetsBorrowed(address)": "infinite",
				"getTotalAssetsDeposited(address)": "infinite",
				"getVaultAmounts(address,address)": "infinite",
				"messageHashConsumed(bytes32)": "infinite",
				"mockPyth()": "infinite",
				"tokenBridge()": "infinite",
				"tokenBridgeAddress()": "infinite",
				"wormhole()": "infinite"
			}
		},
		"methodIdentifiers": {
			"getAssetInfo(address)": "afad2e16",
			"getInterestAccrualIndexPrecision()": "a1424f26",
			"getInterestAccrualIndices(address)": "e80a03f3",
			"owner()": "8da5cb5b",
			"renounceOwnership()": "715018a6",
			"transferOwnership(address)": "f2fde38b"
		}
	},
	"abi": [
		{
			"inputs": [
				{
					"internalType": "address",
					"name": "owner",
					"type": "address"
				}
			],
			"name": "OwnableInvalidOwner",
			"type": "error"
		},
		{
			"inputs": [
				{
					"internalType": "address",
					"name": "account",
					"type": "address"
				}
			],
			"name": "OwnableUnauthorizedAccount",
			"type": "error"
		},
		{
			"anonymous": false,
			"inputs": [
				{
					"indexed": true,
					"internalType": "address",
					"name": "previousOwner",
					"type": "address"
				},
				{
					"indexed": true,
					"internalType": "address",
					"name": "newOwner",
					"type": "address"
				}
			],
			"name": "OwnershipTransferred",
			"type": "event"
		},
		{
			"inputs": [
				{
					"internalType": "address",
					"name": "assetAddress",
					"type": "address"
				}
			],
			"name": "getAssetInfo",
			"outputs": [
				{
					"components": [
						{
							"internalType": "uint256",
							"name": "collateralizationRatioDeposit",
							"type": "uint256"
						},
						{
							"internalType": "uint256",
							"name": "collateralizationRatioBorrow",
							"type": "uint256"
						},
						{
							"internalType": "bytes32",
							"name": "pythId",
							"type": "bytes32"
						},
						{
							"internalType": "uint8",
							"name": "decimals",
							"type": "uint8"
						},
						{
							"components": [
								{
									"internalType": "uint64",
									"name": "ratePrecision",
									"type": "uint64"
								},
								{
									"internalType": "uint256[]",
									"name": "kinks",
									"type": "uint256[]"
								},
								{
									"internalType": "uint256[]",
									"name": "rates",
									"type": "uint256[]"
								},
								{
									"internalType": "uint256",
									"name": "reserveFactor",
									"type": "uint256"
								},
								{
									"internalType": "uint256",
									"name": "reservePrecision",
									"type": "uint256"
								}
							],
							"internalType": "struct HubSpokeStructs.PiecewiseInterestRateModel",
							"name": "interestRateModel",
							"type": "tuple"
						},
						{
							"internalType": "bool",
							"name": "exists",
							"type": "bool"
						}
					],
					"internalType": "struct HubSpokeStructs.AssetInfo",
					"name": "",
					"type": "tuple"
				}
			],
			"stateMutability": "view",
			"type": "function"
		},
		{
			"inputs": [],
			"name": "getInterestAccrualIndexPrecision",
			"outputs": [
				{
					"internalType": "uint256",
					"name": "",
					"type": "uint256"
				}
			],
			"stateMutability": "view",
			"type": "function"
		},
		{
			"inputs": [
				{
					"internalType": "address",
					"name": "assetAddress",
					"type": "address"
				}
			],
			"name": "getInterestAccrualIndices",
			"outputs": [
				{
					"components": [
						{
							"internalType": "uint256",
							"name": "deposited",
							"type": "uint256"
						},
						{
							"internalType": "uint256",
							"name": "borrowed",
							"type": "uint256"
						}
					],
					"internalType": "struct HubSpokeStructs.AccrualIndices",
					"name": "",
					"type": "tuple"
				}
			],
			"stateMutability": "view",
			"type": "function"
		},
		{
			"inputs": [],
			"name": "owner",
			"outputs": [
				{
					"internalType": "address",
					"name": "",
					"type": "address"
				}
			],
			"stateMutability": "view",
			"type": "function"
		},
		{
			"inputs": [],
			"name": "renounceOwnership",
			"outputs": [],
			"stateMutability": "nonpayable",
			"type": "function"
		},
		{
			"inputs": [
				{
					"internalType": "address",
					"name": "newOwner",
					"type": "address"
				}
			],
			"name": "transferOwnership",
			"outputs": [],
			"stateMutability": "nonpayable",
			"type": "function"
		}
	]
}