{
	"data": {
		"bytecode": {
			"linkReferences": {},
			"object": "608060405234801561000f575f80fd5b505f8073ffffffffffffffffffffffffffffffffffffffff168173ffffffffffffffffffffffffffffffffffffffff1603610081575f6040517f1e4fbdf70000000000000000000000000000000000000000000000000000000081526004016100789190610196565b60405180910390fd5b6100908161009660201b60201c565b506101af565b5f805f9054906101000a900473ffffffffffffffffffffffffffffffffffffffff169050815f806101000a81548173ffffffffffffffffffffffffffffffffffffffff021916908373ffffffffffffffffffffffffffffffffffffffff1602179055508173ffffffffffffffffffffffffffffffffffffffff168173ffffffffffffffffffffffffffffffffffffffff167f8be0079c531659141344cd1fd0a4f28419497f9722a3daafe3b4186f6b6457e060405160405180910390a35050565b5f73ffffffffffffffffffffffffffffffffffffffff82169050919050565b5f61018082610157565b9050919050565b61019081610176565b82525050565b5f6020820190506101a95f830184610187565b92915050565b61125c80620001bd5f395ff3fe608060405234801561000f575f80fd5b5060043610610086575f3560e01c8063afad2e1611610059578063afad2e16146100ec578063d3cc2e481461011c578063e80a03f314610138578063f2fde38b1461016857610086565b80636cc0b5fe1461008a578063715018a6146100a65780638da5cb5b146100b0578063a1424f26146100ce575b5f80fd5b6100a4600480360381019061009f9190610adf565b610184565b005b6100ae610238565b005b6100b861024b565b6040516100c59190610b5c565b60405180910390f35b6100d6610272565b6040516100e39190610b84565b60405180910390f35b61010660048036038101906101019190610bc7565b61027e565b6040516101139190610dfc565b60405180910390f35b61013660048036038101906101319190610e1c565b61042f565b005b610152600480360381019061014d9190610bc7565b6105f1565b60405161015f9190610ee6565b60405180910390f35b610182600480360381019061017d9190610bc7565b61065e565b005b61018c6106e2565b8060016045015f8481526020019081526020015f205f820151815f015f6101000a81548167ffffffffffffffff021916908360070b67ffffffffffffffff1602179055506020820151815f0160086101000a81548167ffffffffffffffff021916908367ffffffffffffffff1602179055506040820151815f0160106101000a81548163ffffffff021916908360030b63ffffffff160217905550606082015181600101559050505050565b6102406106e2565b6102495f610769565b565b5f805f9054906101000a900473ffffffffffffffffffffffffffffffffffffffff16905090565b5f600160100154905090565b610286610831565b60016009015f8373ffffffffffffffffffffffffffffffffffffffff1673ffffffffffffffffffffffffffffffffffffffff1681526020019081526020015f206040518060c00160405290815f82015481526020016001820154815260200160028201548152602001600382015f9054906101000a900460ff1660ff1660ff168152602001600482016040518060a00160405290815f82015f9054906101000a900467ffffffffffffffff1667ffffffffffffffff1667ffffffffffffffff1681526020016001820180548060200260200160405190810160405280929190818152602001828054801561039757602002820191905f5260205f20905b815481526020019060010190808311610383575b50505050508152602001600282018054806020026020016040519081016040528092919081815260200182805480156103ed57602002820191905f5260205f20905b8154815260200190600101908083116103d9575b50505050508152602001600382015481526020016004820154815250508152602001600982015f9054906101000a900460ff1615151515815250509050919050565b6104376106e2565b5f60015f016003015f9054906101000a900473ffffffffffffffffffffffffffffffffffffffff1673ffffffffffffffffffffffffffffffffffffffff1663d9b81c3c898989898989898a6040518963ffffffff1660e01b81526004016104a5989796959493929190610f3b565b5f60405180830381865afa1580156104bf573d5f803e3d5ffd5b505050506040513d5f823e3d601f19601f820116820180604052508101906104e79190611085565b90505f600167ffffffffffffffff81111561050557610504610916565b5b60405190808252806020026020018201604052801561053857816020015b60608152602001906001900390816105235790505b50905081815f8151811061054f5761054e6110cc565b5b602002602001018190525060015f016003015f9054906101000a900473ffffffffffffffffffffffffffffffffffffffff1673ffffffffffffffffffffffffffffffffffffffff1663ef9e5e28826040518263ffffffff1660e01b81526004016105b99190611206565b5f604051808303815f87803b1580156105d0575f80fd5b505af11580156105e2573d5f803e3d5ffd5b50505050505050505050505050565b6105f9610870565b6001600c015f8373ffffffffffffffffffffffffffffffffffffffff1673ffffffffffffffffffffffffffffffffffffffff1681526020019081526020015f206040518060400160405290815f82015481526020016001820154815250509050919050565b6106666106e2565b5f73ffffffffffffffffffffffffffffffffffffffff168173ffffffffffffffffffffffffffffffffffffffff16036106d6575f6040517f1e4fbdf70000000000000000000000000000000000000000000000000000000081526004016106cd9190610b5c565b60405180910390fd5b6106df81610769565b50565b6106ea61082a565b73ffffffffffffffffffffffffffffffffffffffff1661070861024b565b73ffffffffffffffffffffffffffffffffffffffff16146107675761072b61082a565b6040517f118cdaa700000000000000000000000000000000000000000000000000000000815260040161075e9190610b5c565b60405180910390fd5b565b5f805f9054906101000a900473ffffffffffffffffffffffffffffffffffffffff169050815f806101000a81548173ffffffffffffffffffffffffffffffffffffffff021916908373ffffffffffffffffffffffffffffffffffffffff1602179055508173ffffffffffffffffffffffffffffffffffffffff168173ffffffffffffffffffffffffffffffffffffffff167f8be0079c531659141344cd1fd0a4f28419497f9722a3daafe3b4186f6b6457e060405160405180910390a35050565b5f33905090565b6040518060c001604052805f81526020015f81526020015f80191681526020015f60ff168152602001610862610888565b81526020015f151581525090565b60405180604001604052805f81526020015f81525090565b6040518060a001604052805f67ffffffffffffffff16815260200160608152602001606081526020015f81526020015f81525090565b5f604051905090565b5f80fd5b5f80fd5b5f819050919050565b6108e1816108cf565b81146108eb575f80fd5b50565b5f813590506108fc816108d8565b92915050565b5f80fd5b5f601f19601f8301169050919050565b7f4e487b71000000000000000000000000000000000000000000000000000000005f52604160045260245ffd5b61094c82610906565b810181811067ffffffffffffffff8211171561096b5761096a610916565b5b80604052505050565b5f61097d6108be565b90506109898282610943565b919050565b5f8160070b9050919050565b6109a38161098e565b81146109ad575f80fd5b50565b5f813590506109be8161099a565b92915050565b5f67ffffffffffffffff82169050919050565b6109e0816109c4565b81146109ea575f80fd5b50565b5f813590506109fb816109d7565b92915050565b5f8160030b9050919050565b610a1681610a01565b8114610a20575f80fd5b50565b5f81359050610a3181610a0d565b92915050565b5f819050919050565b610a4981610a37565b8114610a53575f80fd5b50565b5f81359050610a6481610a40565b92915050565b5f60808284031215610a7f57610a7e610902565b5b610a896080610974565b90505f610a98848285016109b0565b5f830152506020610aab848285016109ed565b6020830152506040610abf84828501610a23565b6040830152506060610ad384828501610a56565b60608301525092915050565b5f8060a08385031215610af557610af46108c7565b5b5f610b02858286016108ee565b9250506020610b1385828601610a6a565b9150509250929050565b5f73ffffffffffffffffffffffffffffffffffffffff82169050919050565b5f610b4682610b1d565b9050919050565b610b5681610b3c565b82525050565b5f602082019050610b6f5f830184610b4d565b92915050565b610b7e81610a37565b82525050565b5f602082019050610b975f830184610b75565b92915050565b610ba681610b3c565b8114610bb0575f80fd5b50565b5f81359050610bc181610b9d565b92915050565b5f60208284031215610bdc57610bdb6108c7565b5b5f610be984828501610bb3565b91505092915050565b610bfb81610a37565b82525050565b610c0a816108cf565b82525050565b5f60ff82169050919050565b610c2581610c10565b82525050565b610c34816109c4565b82525050565b5f81519050919050565b5f82825260208201905092915050565b5f819050602082019050919050565b5f610c6e8383610bf2565b60208301905092915050565b5f602082019050919050565b5f610c9082610c3a565b610c9a8185610c44565b9350610ca583610c54565b805f5b83811015610cd5578151610cbc8882610c63565b9750610cc783610c7a565b925050600181019050610ca8565b5085935050505092915050565b5f60a083015f830151610cf75f860182610c2b565b5060208301518482036020860152610d0f8282610c86565b91505060408301518482036040860152610d298282610c86565b9150506060830151610d3e6060860182610bf2565b506080830151610d516080860182610bf2565b508091505092915050565b5f8115159050919050565b610d7081610d5c565b82525050565b5f60c083015f830151610d8b5f860182610bf2565b506020830151610d9e6020860182610bf2565b506040830151610db16040860182610c01565b506060830151610dc46060860182610c1c565b5060808301518482036080860152610ddc8282610ce2565b91505060a0830151610df160a0860182610d67565b508091505092915050565b5f6020820190508181035f830152610e148184610d76565b905092915050565b5f805f805f805f60e0888a031215610e3757610e366108c7565b5b5f610e448a828b016108ee565b9750506020610e558a828b016109b0565b9650506040610e668a828b016109ed565b9550506060610e778a828b01610a23565b9450506080610e888a828b016109b0565b93505060a0610e998a828b016109ed565b92505060c0610eaa8a828b016109ed565b91505092959891949750929550565b604082015f820151610ecd5f850182610bf2565b506020820151610ee06020850182610bf2565b50505050565b5f604082019050610ef95f830184610eb9565b92915050565b610f08816108cf565b82525050565b610f178161098e565b82525050565b610f26816109c4565b82525050565b610f3581610a01565b82525050565b5f61010082019050610f4f5f83018b610eff565b610f5c602083018a610f0e565b610f696040830189610f1d565b610f766060830188610f2c565b610f836080830187610f0e565b610f9060a0830186610f1d565b610f9d60c0830185610f1d565b610faa60e0830184610f1d565b9998505050505050505050565b5f80fd5b5f80fd5b5f67ffffffffffffffff821115610fd957610fd8610916565b5b610fe282610906565b9050602081019050919050565b5f5b8381101561100c578082015181840152602081019050610ff1565b5f8484015250505050565b5f61102961102484610fbf565b610974565b90508281526020810184848401111561104557611044610fbb565b5b611050848285610fef565b509392505050565b5f82601f83011261106c5761106b610fb7565b5b815161107c848260208601611017565b91505092915050565b5f6020828403121561109a576110996108c7565b5b5f82015167ffffffffffffffff8111156110b7576110b66108cb565b5b6110c384828501611058565b91505092915050565b7f4e487b71000000000000000000000000000000000000000000000000000000005f52603260045260245ffd5b5f81519050919050565b5f82825260208201905092915050565b5f819050602082019050919050565b5f81519050919050565b5f82825260208201905092915050565b5f61114682611122565b611150818561112c565b9350611160818560208601610fef565b61116981610906565b840191505092915050565b5f61117f838361113c565b905092915050565b5f602082019050919050565b5f61119d826110f9565b6111a78185611103565b9350836020820285016111b985611113565b805f5b858110156111f457848403895281516111d58582611174565b94506111e083611187565b925060208a019950506001810190506111bc565b50829750879550505050505092915050565b5f6020820190508181035f83015261121e8184611193565b90509291505056fea2646970667358221220d163625e4bc3965674b03b982eef1154461c22faf7c5f3a29e581c5bf515748b64736f6c63430008170033",
			"opcodes": "PUSH1 0x80 PUSH1 0x40 MSTORE CALLVALUE DUP1 ISZERO PUSH2 0xF JUMPI PUSH0 DUP1 REVERT JUMPDEST POP PUSH0 DUP1 PUSH20 0xFFFFFFFFFFFFFFFFFFFFFFFFFFFFFFFFFFFFFFFF AND DUP2 PUSH20 0xFFFFFFFFFFFFFFFFFFFFFFFFFFFFFFFFFFFFFFFF AND SUB PUSH2 0x81 JUMPI PUSH0 PUSH1 0x40 MLOAD PUSH32 0x1E4FBDF700000000000000000000000000000000000000000000000000000000 DUP2 MSTORE PUSH1 0x4 ADD PUSH2 0x78 SWAP2 SWAP1 PUSH2 0x196 JUMP JUMPDEST PUSH1 0x40 MLOAD DUP1 SWAP2 SUB SWAP1 REVERT JUMPDEST PUSH2 0x90 DUP2 PUSH2 0x96 PUSH1 0x20 SHL PUSH1 0x20 SHR JUMP JUMPDEST POP PUSH2 0x1AF JUMP JUMPDEST PUSH0 DUP1 PUSH0 SWAP1 SLOAD SWAP1 PUSH2 0x100 EXP SWAP1 DIV PUSH20 0xFFFFFFFFFFFFFFFFFFFFFFFFFFFFFFFFFFFFFFFF AND SWAP1 POP DUP2 PUSH0 DUP1 PUSH2 0x100 EXP DUP2 SLOAD DUP2 PUSH20 0xFFFFFFFFFFFFFFFFFFFFFFFFFFFFFFFFFFFFFFFF MUL NOT AND SWAP1 DUP4 PUSH20 0xFFFFFFFFFFFFFFFFFFFFFFFFFFFFFFFFFFFFFFFF AND MUL OR SWAP1 SSTORE POP DUP2 PUSH20 0xFFFFFFFFFFFFFFFFFFFFFFFFFFFFFFFFFFFFFFFF AND DUP2 PUSH20 0xFFFFFFFFFFFFFFFFFFFFFFFFFFFFFFFFFFFFFFFF AND PUSH32 0x8BE0079C531659141344CD1FD0A4F28419497F9722A3DAAFE3B4186F6B6457E0 PUSH1 0x40 MLOAD PUSH1 0x40 MLOAD DUP1 SWAP2 SUB SWAP1 LOG3 POP POP JUMP JUMPDEST PUSH0 PUSH20 0xFFFFFFFFFFFFFFFFFFFFFFFFFFFFFFFFFFFFFFFF DUP3 AND SWAP1 POP SWAP2 SWAP1 POP JUMP JUMPDEST PUSH0 PUSH2 0x180 DUP3 PUSH2 0x157 JUMP JUMPDEST SWAP1 POP SWAP2 SWAP1 POP JUMP JUMPDEST PUSH2 0x190 DUP2 PUSH2 0x176 JUMP JUMPDEST DUP3 MSTORE POP POP JUMP JUMPDEST PUSH0 PUSH1 0x20 DUP3 ADD SWAP1 POP PUSH2 0x1A9 PUSH0 DUP4 ADD DUP5 PUSH2 0x187 JUMP JUMPDEST SWAP3 SWAP2 POP POP JUMP JUMPDEST PUSH2 0x125C DUP1 PUSH3 0x1BD PUSH0 CODECOPY PUSH0 RETURN INVALID PUSH1 0x80 PUSH1 0x40 MSTORE CALLVALUE DUP1 ISZERO PUSH2 0xF JUMPI PUSH0 DUP1 REVERT JUMPDEST POP PUSH1 0x4 CALLDATASIZE LT PUSH2 0x86 JUMPI PUSH0 CALLDATALOAD PUSH1 0xE0 SHR DUP1 PUSH4 0xAFAD2E16 GT PUSH2 0x59 JUMPI DUP1 PUSH4 0xAFAD2E16 EQ PUSH2 0xEC JUMPI DUP1 PUSH4 0xD3CC2E48 EQ PUSH2 0x11C JUMPI DUP1 PUSH4 0xE80A03F3 EQ PUSH2 0x138 JUMPI DUP1 PUSH4 0xF2FDE38B EQ PUSH2 0x168 JUMPI PUSH2 0x86 JUMP JUMPDEST DUP1 PUSH4 0x6CC0B5FE EQ PUSH2 0x8A JUMPI DUP1 PUSH4 0x715018A6 EQ PUSH2 0xA6 JUMPI DUP1 PUSH4 0x8DA5CB5B EQ PUSH2 0xB0 JUMPI DUP1 PUSH4 0xA1424F26 EQ PUSH2 0xCE JUMPI JUMPDEST PUSH0 DUP1 REVERT JUMPDEST PUSH2 0xA4 PUSH1 0x4 DUP1 CALLDATASIZE SUB DUP2 ADD SWAP1 PUSH2 0x9F SWAP2 SWAP1 PUSH2 0xADF JUMP JUMPDEST PUSH2 0x184 JUMP JUMPDEST STOP JUMPDEST PUSH2 0xAE PUSH2 0x238 JUMP JUMPDEST STOP JUMPDEST PUSH2 0xB8 PUSH2 0x24B JUMP JUMPDEST PUSH1 0x40 MLOAD PUSH2 0xC5 SWAP2 SWAP1 PUSH2 0xB5C JUMP JUMPDEST PUSH1 0x40 MLOAD DUP1 SWAP2 SUB SWAP1 RETURN JUMPDEST PUSH2 0xD6 PUSH2 0x272 JUMP JUMPDEST PUSH1 0x40 MLOAD PUSH2 0xE3 SWAP2 SWAP1 PUSH2 0xB84 JUMP JUMPDEST PUSH1 0x40 MLOAD DUP1 SWAP2 SUB SWAP1 RETURN JUMPDEST PUSH2 0x106 PUSH1 0x4 DUP1 CALLDATASIZE SUB DUP2 ADD SWAP1 PUSH2 0x101 SWAP2 SWAP1 PUSH2 0xBC7 JUMP JUMPDEST PUSH2 0x27E JUMP JUMPDEST PUSH1 0x40 MLOAD PUSH2 0x113 SWAP2 SWAP1 PUSH2 0xDFC JUMP JUMPDEST PUSH1 0x40 MLOAD DUP1 SWAP2 SUB SWAP1 RETURN JUMPDEST PUSH2 0x136 PUSH1 0x4 DUP1 CALLDATASIZE SUB DUP2 ADD SWAP1 PUSH2 0x131 SWAP2 SWAP1 PUSH2 0xE1C JUMP JUMPDEST PUSH2 0x42F JUMP JUMPDEST STOP JUMPDEST PUSH2 0x152 PUSH1 0x4 DUP1 CALLDATASIZE SUB DUP2 ADD SWAP1 PUSH2 0x14D SWAP2 SWAP1 PUSH2 0xBC7 JUMP JUMPDEST PUSH2 0x5F1 JUMP JUMPDEST PUSH1 0x40 MLOAD PUSH2 0x15F SWAP2 SWAP1 PUSH2 0xEE6 JUMP JUMPDEST PUSH1 0x40 MLOAD DUP1 SWAP2 SUB SWAP1 RETURN JUMPDEST PUSH2 0x182 PUSH1 0x4 DUP1 CALLDATASIZE SUB DUP2 ADD SWAP1 PUSH2 0x17D SWAP2 SWAP1 PUSH2 0xBC7 JUMP JUMPDEST PUSH2 0x65E JUMP JUMPDEST STOP JUMPDEST PUSH2 0x18C PUSH2 0x6E2 JUMP JUMPDEST DUP1 PUSH1 0x1 PUSH1 0x45 ADD PUSH0 DUP5 DUP2 MSTORE PUSH1 0x20 ADD SWAP1 DUP2 MSTORE PUSH1 0x20 ADD PUSH0 KECCAK256 PUSH0 DUP3 ADD MLOAD DUP2 PUSH0 ADD PUSH0 PUSH2 0x100 EXP DUP2 SLOAD DUP2 PUSH8 0xFFFFFFFFFFFFFFFF MUL NOT AND SWAP1 DUP4 PUSH1 0x7 SIGNEXTEND PUSH8 0xFFFFFFFFFFFFFFFF AND MUL OR SWAP1 SSTORE POP PUSH1 0x20 DUP3 ADD MLOAD DUP2 PUSH0 ADD PUSH1 0x8 PUSH2 0x100 EXP DUP2 SLOAD DUP2 PUSH8 0xFFFFFFFFFFFFFFFF MUL NOT AND SWAP1 DUP4 PUSH8 0xFFFFFFFFFFFFFFFF AND MUL OR SWAP1 SSTORE POP PUSH1 0x40 DUP3 ADD MLOAD DUP2 PUSH0 ADD PUSH1 0x10 PUSH2 0x100 EXP DUP2 SLOAD DUP2 PUSH4 0xFFFFFFFF MUL NOT AND SWAP1 DUP4 PUSH1 0x3 SIGNEXTEND PUSH4 0xFFFFFFFF AND MUL OR SWAP1 SSTORE POP PUSH1 0x60 DUP3 ADD MLOAD DUP2 PUSH1 0x1 ADD SSTORE SWAP1 POP POP POP POP JUMP JUMPDEST PUSH2 0x240 PUSH2 0x6E2 JUMP JUMPDEST PUSH2 0x249 PUSH0 PUSH2 0x769 JUMP JUMPDEST JUMP JUMPDEST PUSH0 DUP1 PUSH0 SWAP1 SLOAD SWAP1 PUSH2 0x100 EXP SWAP1 DIV PUSH20 0xFFFFFFFFFFFFFFFFFFFFFFFFFFFFFFFFFFFFFFFF AND SWAP1 POP SWAP1 JUMP JUMPDEST PUSH0 PUSH1 0x1 PUSH1 0x10 ADD SLOAD SWAP1 POP SWAP1 JUMP JUMPDEST PUSH2 0x286 PUSH2 0x831 JUMP JUMPDEST PUSH1 0x1 PUSH1 0x9 ADD PUSH0 DUP4 PUSH20 0xFFFFFFFFFFFFFFFFFFFFFFFFFFFFFFFFFFFFFFFF AND PUSH20 0xFFFFFFFFFFFFFFFFFFFFFFFFFFFFFFFFFFFFFFFF AND DUP2 MSTORE PUSH1 0x20 ADD SWAP1 DUP2 MSTORE PUSH1 0x20 ADD PUSH0 KECCAK256 PUSH1 0x40 MLOAD DUP1 PUSH1 0xC0 ADD PUSH1 0x40 MSTORE SWAP1 DUP2 PUSH0 DUP3 ADD SLOAD DUP2 MSTORE PUSH1 0x20 ADD PUSH1 0x1 DUP3 ADD SLOAD DUP2 MSTORE PUSH1 0x20 ADD PUSH1 0x2 DUP3 ADD SLOAD DUP2 MSTORE PUSH1 0x20 ADD PUSH1 0x3 DUP3 ADD PUSH0 SWAP1 SLOAD SWAP1 PUSH2 0x100 EXP SWAP1 DIV PUSH1 0xFF AND PUSH1 0xFF AND PUSH1 0xFF AND DUP2 MSTORE PUSH1 0x20 ADD PUSH1 0x4 DUP3 ADD PUSH1 0x40 MLOAD DUP1 PUSH1 0xA0 ADD PUSH1 0x40 MSTORE SWAP1 DUP2 PUSH0 DUP3 ADD PUSH0 SWAP1 SLOAD SWAP1 PUSH2 0x100 EXP SWAP1 DIV PUSH8 0xFFFFFFFFFFFFFFFF AND PUSH8 0xFFFFFFFFFFFFFFFF AND PUSH8 0xFFFFFFFFFFFFFFFF AND DUP2 MSTORE PUSH1 0x20 ADD PUSH1 0x1 DUP3 ADD DUP1 SLOAD DUP1 PUSH1 0x20 MUL PUSH1 0x20 ADD PUSH1 0x40 MLOAD SWAP1 DUP2 ADD PUSH1 0x40 MSTORE DUP1 SWAP3 SWAP2 SWAP1 DUP2 DUP2 MSTORE PUSH1 0x20 ADD DUP3 DUP1 SLOAD DUP1 ISZERO PUSH2 0x397 JUMPI PUSH1 0x20 MUL DUP3 ADD SWAP2 SWAP1 PUSH0 MSTORE PUSH1 0x20 PUSH0 KECCAK256 SWAP1 JUMPDEST DUP2 SLOAD DUP2 MSTORE PUSH1 0x20 ADD SWAP1 PUSH1 0x1 ADD SWAP1 DUP1 DUP4 GT PUSH2 0x383 JUMPI JUMPDEST POP POP POP POP POP DUP2 MSTORE PUSH1 0x20 ADD PUSH1 0x2 DUP3 ADD DUP1 SLOAD DUP1 PUSH1 0x20 MUL PUSH1 0x20 ADD PUSH1 0x40 MLOAD SWAP1 DUP2 ADD PUSH1 0x40 MSTORE DUP1 SWAP3 SWAP2 SWAP1 DUP2 DUP2 MSTORE PUSH1 0x20 ADD DUP3 DUP1 SLOAD DUP1 ISZERO PUSH2 0x3ED JUMPI PUSH1 0x20 MUL DUP3 ADD SWAP2 SWAP1 PUSH0 MSTORE PUSH1 0x20 PUSH0 KECCAK256 SWAP1 JUMPDEST DUP2 SLOAD DUP2 MSTORE PUSH1 0x20 ADD SWAP1 PUSH1 0x1 ADD SWAP1 DUP1 DUP4 GT PUSH2 0x3D9 JUMPI JUMPDEST POP POP POP POP POP DUP2 MSTORE PUSH1 0x20 ADD PUSH1 0x3 DUP3 ADD SLOAD DUP2 MSTORE PUSH1 0x20 ADD PUSH1 0x4 DUP3 ADD SLOAD DUP2 MSTORE POP POP DUP2 MSTORE PUSH1 0x20 ADD PUSH1 0x9 DUP3 ADD PUSH0 SWAP1 SLOAD SWAP1 PUSH2 0x100 EXP SWAP1 DIV PUSH1 0xFF AND ISZERO ISZERO ISZERO ISZERO DUP2 MSTORE POP POP SWAP1 POP SWAP2 SWAP1 POP JUMP JUMPDEST PUSH2 0x437 PUSH2 0x6E2 JUMP JUMPDEST PUSH0 PUSH1 0x1 PUSH0 ADD PUSH1 0x3 ADD PUSH0 SWAP1 SLOAD SWAP1 PUSH2 0x100 EXP SWAP1 DIV PUSH20 0xFFFFFFFFFFFFFFFFFFFFFFFFFFFFFFFFFFFFFFFF AND PUSH20 0xFFFFFFFFFFFFFFFFFFFFFFFFFFFFFFFFFFFFFFFF AND PUSH4 0xD9B81C3C DUP10 DUP10 DUP10 DUP10 DUP10 DUP10 DUP10 DUP11 PUSH1 0x40 MLOAD DUP10 PUSH4 0xFFFFFFFF AND PUSH1 0xE0 SHL DUP2 MSTORE PUSH1 0x4 ADD PUSH2 0x4A5 SWAP9 SWAP8 SWAP7 SWAP6 SWAP5 SWAP4 SWAP3 SWAP2 SWAP1 PUSH2 0xF3B JUMP JUMPDEST PUSH0 PUSH1 0x40 MLOAD DUP1 DUP4 SUB DUP2 DUP7 GAS STATICCALL ISZERO DUP1 ISZERO PUSH2 0x4BF JUMPI RETURNDATASIZE PUSH0 DUP1 RETURNDATACOPY RETURNDATASIZE PUSH0 REVERT JUMPDEST POP POP POP POP PUSH1 0x40 MLOAD RETURNDATASIZE PUSH0 DUP3 RETURNDATACOPY RETURNDATASIZE PUSH1 0x1F NOT PUSH1 0x1F DUP3 ADD AND DUP3 ADD DUP1 PUSH1 0x40 MSTORE POP DUP2 ADD SWAP1 PUSH2 0x4E7 SWAP2 SWAP1 PUSH2 0x1085 JUMP JUMPDEST SWAP1 POP PUSH0 PUSH1 0x1 PUSH8 0xFFFFFFFFFFFFFFFF DUP2 GT ISZERO PUSH2 0x505 JUMPI PUSH2 0x504 PUSH2 0x916 JUMP JUMPDEST JUMPDEST PUSH1 0x40 MLOAD SWAP1 DUP1 DUP3 MSTORE DUP1 PUSH1 0x20 MUL PUSH1 0x20 ADD DUP3 ADD PUSH1 0x40 MSTORE DUP1 ISZERO PUSH2 0x538 JUMPI DUP2 PUSH1 0x20 ADD JUMPDEST PUSH1 0x60 DUP2 MSTORE PUSH1 0x20 ADD SWAP1 PUSH1 0x1 SWAP1 SUB SWAP1 DUP2 PUSH2 0x523 JUMPI SWAP1 POP JUMPDEST POP SWAP1 POP DUP2 DUP2 PUSH0 DUP2 MLOAD DUP2 LT PUSH2 0x54F JUMPI PUSH2 0x54E PUSH2 0x10CC JUMP JUMPDEST JUMPDEST PUSH1 0x20 MUL PUSH1 0x20 ADD ADD DUP2 SWAP1 MSTORE POP PUSH1 0x1 PUSH0 ADD PUSH1 0x3 ADD PUSH0 SWAP1 SLOAD SWAP1 PUSH2 0x100 EXP SWAP1 DIV PUSH20 0xFFFFFFFFFFFFFFFFFFFFFFFFFFFFFFFFFFFFFFFF AND PUSH20 0xFFFFFFFFFFFFFFFFFFFFFFFFFFFFFFFFFFFFFFFF AND PUSH4 0xEF9E5E28 DUP3 PUSH1 0x40 MLOAD DUP3 PUSH4 0xFFFFFFFF AND PUSH1 0xE0 SHL DUP2 MSTORE PUSH1 0x4 ADD PUSH2 0x5B9 SWAP2 SWAP1 PUSH2 0x1206 JUMP JUMPDEST PUSH0 PUSH1 0x40 MLOAD DUP1 DUP4 SUB DUP2 PUSH0 DUP8 DUP1 EXTCODESIZE ISZERO DUP1 ISZERO PUSH2 0x5D0 JUMPI PUSH0 DUP1 REVERT JUMPDEST POP GAS CALL ISZERO DUP1 ISZERO PUSH2 0x5E2 JUMPI RETURNDATASIZE PUSH0 DUP1 RETURNDATACOPY RETURNDATASIZE PUSH0 REVERT JUMPDEST POP POP POP POP POP POP POP POP POP POP POP POP POP JUMP JUMPDEST PUSH2 0x5F9 PUSH2 0x870 JUMP JUMPDEST PUSH1 0x1 PUSH1 0xC ADD PUSH0 DUP4 PUSH20 0xFFFFFFFFFFFFFFFFFFFFFFFFFFFFFFFFFFFFFFFF AND PUSH20 0xFFFFFFFFFFFFFFFFFFFFFFFFFFFFFFFFFFFFFFFF AND DUP2 MSTORE PUSH1 0x20 ADD SWAP1 DUP2 MSTORE PUSH1 0x20 ADD PUSH0 KECCAK256 PUSH1 0x40 MLOAD DUP1 PUSH1 0x40 ADD PUSH1 0x40 MSTORE SWAP1 DUP2 PUSH0 DUP3 ADD SLOAD DUP2 MSTORE PUSH1 0x20 ADD PUSH1 0x1 DUP3 ADD SLOAD DUP2 MSTORE POP POP SWAP1 POP SWAP2 SWAP1 POP JUMP JUMPDEST PUSH2 0x666 PUSH2 0x6E2 JUMP JUMPDEST PUSH0 PUSH20 0xFFFFFFFFFFFFFFFFFFFFFFFFFFFFFFFFFFFFFFFF AND DUP2 PUSH20 0xFFFFFFFFFFFFFFFFFFFFFFFFFFFFFFFFFFFFFFFF AND SUB PUSH2 0x6D6 JUMPI PUSH0 PUSH1 0x40 MLOAD PUSH32 0x1E4FBDF700000000000000000000000000000000000000000000000000000000 DUP2 MSTORE PUSH1 0x4 ADD PUSH2 0x6CD SWAP2 SWAP1 PUSH2 0xB5C JUMP JUMPDEST PUSH1 0x40 MLOAD DUP1 SWAP2 SUB SWAP1 REVERT JUMPDEST PUSH2 0x6DF DUP2 PUSH2 0x769 JUMP JUMPDEST POP JUMP JUMPDEST PUSH2 0x6EA PUSH2 0x82A JUMP JUMPDEST PUSH20 0xFFFFFFFFFFFFFFFFFFFFFFFFFFFFFFFFFFFFFFFF AND PUSH2 0x708 PUSH2 0x24B JUMP JUMPDEST PUSH20 0xFFFFFFFFFFFFFFFFFFFFFFFFFFFFFFFFFFFFFFFF AND EQ PUSH2 0x767 JUMPI PUSH2 0x72B PUSH2 0x82A JUMP JUMPDEST PUSH1 0x40 MLOAD PUSH32 0x118CDAA700000000000000000000000000000000000000000000000000000000 DUP2 MSTORE PUSH1 0x4 ADD PUSH2 0x75E SWAP2 SWAP1 PUSH2 0xB5C JUMP JUMPDEST PUSH1 0x40 MLOAD DUP1 SWAP2 SUB SWAP1 REVERT JUMPDEST JUMP JUMPDEST PUSH0 DUP1 PUSH0 SWAP1 SLOAD SWAP1 PUSH2 0x100 EXP SWAP1 DIV PUSH20 0xFFFFFFFFFFFFFFFFFFFFFFFFFFFFFFFFFFFFFFFF AND SWAP1 POP DUP2 PUSH0 DUP1 PUSH2 0x100 EXP DUP2 SLOAD DUP2 PUSH20 0xFFFFFFFFFFFFFFFFFFFFFFFFFFFFFFFFFFFFFFFF MUL NOT AND SWAP1 DUP4 PUSH20 0xFFFFFFFFFFFFFFFFFFFFFFFFFFFFFFFFFFFFFFFF AND MUL OR SWAP1 SSTORE POP DUP2 PUSH20 0xFFFFFFFFFFFFFFFFFFFFFFFFFFFFFFFFFFFFFFFF AND DUP2 PUSH20 0xFFFFFFFFFFFFFFFFFFFFFFFFFFFFFFFFFFFFFFFF AND PUSH32 0x8BE0079C531659141344CD1FD0A4F28419497F9722A3DAAFE3B4186F6B6457E0 PUSH1 0x40 MLOAD PUSH1 0x40 MLOAD DUP1 SWAP2 SUB SWAP1 LOG3 POP POP JUMP JUMPDEST PUSH0 CALLER SWAP1 POP SWAP1 JUMP JUMPDEST PUSH1 0x40 MLOAD DUP1 PUSH1 0xC0 ADD PUSH1 0x40 MSTORE DUP1 PUSH0 DUP2 MSTORE PUSH1 0x20 ADD PUSH0 DUP2 MSTORE PUSH1 0x20 ADD PUSH0 DUP1 NOT AND DUP2 MSTORE PUSH1 0x20 ADD PUSH0 PUSH1 0xFF AND DUP2 MSTORE PUSH1 0x20 ADD PUSH2 0x862 PUSH2 0x888 JUMP JUMPDEST DUP2 MSTORE PUSH1 0x20 ADD PUSH0 ISZERO ISZERO DUP2 MSTORE POP SWAP1 JUMP JUMPDEST PUSH1 0x40 MLOAD DUP1 PUSH1 0x40 ADD PUSH1 0x40 MSTORE DUP1 PUSH0 DUP2 MSTORE PUSH1 0x20 ADD PUSH0 DUP2 MSTORE POP SWAP1 JUMP JUMPDEST PUSH1 0x40 MLOAD DUP1 PUSH1 0xA0 ADD PUSH1 0x40 MSTORE DUP1 PUSH0 PUSH8 0xFFFFFFFFFFFFFFFF AND DUP2 MSTORE PUSH1 0x20 ADD PUSH1 0x60 DUP2 MSTORE PUSH1 0x20 ADD PUSH1 0x60 DUP2 MSTORE PUSH1 0x20 ADD PUSH0 DUP2 MSTORE PUSH1 0x20 ADD PUSH0 DUP2 MSTORE POP SWAP1 JUMP JUMPDEST PUSH0 PUSH1 0x40 MLOAD SWAP1 POP SWAP1 JUMP JUMPDEST PUSH0 DUP1 REVERT JUMPDEST PUSH0 DUP1 REVERT JUMPDEST PUSH0 DUP2 SWAP1 POP SWAP2 SWAP1 POP JUMP JUMPDEST PUSH2 0x8E1 DUP2 PUSH2 0x8CF JUMP JUMPDEST DUP2 EQ PUSH2 0x8EB JUMPI PUSH0 DUP1 REVERT JUMPDEST POP JUMP JUMPDEST PUSH0 DUP2 CALLDATALOAD SWAP1 POP PUSH2 0x8FC DUP2 PUSH2 0x8D8 JUMP JUMPDEST SWAP3 SWAP2 POP POP JUMP JUMPDEST PUSH0 DUP1 REVERT JUMPDEST PUSH0 PUSH1 0x1F NOT PUSH1 0x1F DUP4 ADD AND SWAP1 POP SWAP2 SWAP1 POP JUMP JUMPDEST PUSH32 0x4E487B7100000000000000000000000000000000000000000000000000000000 PUSH0 MSTORE PUSH1 0x41 PUSH1 0x4 MSTORE PUSH1 0x24 PUSH0 REVERT JUMPDEST PUSH2 0x94C DUP3 PUSH2 0x906 JUMP JUMPDEST DUP2 ADD DUP2 DUP2 LT PUSH8 0xFFFFFFFFFFFFFFFF DUP3 GT OR ISZERO PUSH2 0x96B JUMPI PUSH2 0x96A PUSH2 0x916 JUMP JUMPDEST JUMPDEST DUP1 PUSH1 0x40 MSTORE POP POP POP JUMP JUMPDEST PUSH0 PUSH2 0x97D PUSH2 0x8BE JUMP JUMPDEST SWAP1 POP PUSH2 0x989 DUP3 DUP3 PUSH2 0x943 JUMP JUMPDEST SWAP2 SWAP1 POP JUMP JUMPDEST PUSH0 DUP2 PUSH1 0x7 SIGNEXTEND SWAP1 POP SWAP2 SWAP1 POP JUMP JUMPDEST PUSH2 0x9A3 DUP2 PUSH2 0x98E JUMP JUMPDEST DUP2 EQ PUSH2 0x9AD JUMPI PUSH0 DUP1 REVERT JUMPDEST POP JUMP JUMPDEST PUSH0 DUP2 CALLDATALOAD SWAP1 POP PUSH2 0x9BE DUP2 PUSH2 0x99A JUMP JUMPDEST SWAP3 SWAP2 POP POP JUMP JUMPDEST PUSH0 PUSH8 0xFFFFFFFFFFFFFFFF DUP3 AND SWAP1 POP SWAP2 SWAP1 POP JUMP JUMPDEST PUSH2 0x9E0 DUP2 PUSH2 0x9C4 JUMP JUMPDEST DUP2 EQ PUSH2 0x9EA JUMPI PUSH0 DUP1 REVERT JUMPDEST POP JUMP JUMPDEST PUSH0 DUP2 CALLDATALOAD SWAP1 POP PUSH2 0x9FB DUP2 PUSH2 0x9D7 JUMP JUMPDEST SWAP3 SWAP2 POP POP JUMP JUMPDEST PUSH0 DUP2 PUSH1 0x3 SIGNEXTEND SWAP1 POP SWAP2 SWAP1 POP JUMP JUMPDEST PUSH2 0xA16 DUP2 PUSH2 0xA01 JUMP JUMPDEST DUP2 EQ PUSH2 0xA20 JUMPI PUSH0 DUP1 REVERT JUMPDEST POP JUMP JUMPDEST PUSH0 DUP2 CALLDATALOAD SWAP1 POP PUSH2 0xA31 DUP2 PUSH2 0xA0D JUMP JUMPDEST SWAP3 SWAP2 POP POP JUMP JUMPDEST PUSH0 DUP2 SWAP1 POP SWAP2 SWAP1 POP JUMP JUMPDEST PUSH2 0xA49 DUP2 PUSH2 0xA37 JUMP JUMPDEST DUP2 EQ PUSH2 0xA53 JUMPI PUSH0 DUP1 REVERT JUMPDEST POP JUMP JUMPDEST PUSH0 DUP2 CALLDATALOAD SWAP1 POP PUSH2 0xA64 DUP2 PUSH2 0xA40 JUMP JUMPDEST SWAP3 SWAP2 POP POP JUMP JUMPDEST PUSH0 PUSH1 0x80 DUP3 DUP5 SUB SLT ISZERO PUSH2 0xA7F JUMPI PUSH2 0xA7E PUSH2 0x902 JUMP JUMPDEST JUMPDEST PUSH2 0xA89 PUSH1 0x80 PUSH2 0x974 JUMP JUMPDEST SWAP1 POP PUSH0 PUSH2 0xA98 DUP5 DUP3 DUP6 ADD PUSH2 0x9B0 JUMP JUMPDEST PUSH0 DUP4 ADD MSTORE POP PUSH1 0x20 PUSH2 0xAAB DUP5 DUP3 DUP6 ADD PUSH2 0x9ED JUMP JUMPDEST PUSH1 0x20 DUP4 ADD MSTORE POP PUSH1 0x40 PUSH2 0xABF DUP5 DUP3 DUP6 ADD PUSH2 0xA23 JUMP JUMPDEST PUSH1 0x40 DUP4 ADD MSTORE POP PUSH1 0x60 PUSH2 0xAD3 DUP5 DUP3 DUP6 ADD PUSH2 0xA56 JUMP JUMPDEST PUSH1 0x60 DUP4 ADD MSTORE POP SWAP3 SWAP2 POP POP JUMP JUMPDEST PUSH0 DUP1 PUSH1 0xA0 DUP4 DUP6 SUB SLT ISZERO PUSH2 0xAF5 JUMPI PUSH2 0xAF4 PUSH2 0x8C7 JUMP JUMPDEST JUMPDEST PUSH0 PUSH2 0xB02 DUP6 DUP3 DUP7 ADD PUSH2 0x8EE JUMP JUMPDEST SWAP3 POP POP PUSH1 0x20 PUSH2 0xB13 DUP6 DUP3 DUP7 ADD PUSH2 0xA6A JUMP JUMPDEST SWAP2 POP POP SWAP3 POP SWAP3 SWAP1 POP JUMP JUMPDEST PUSH0 PUSH20 0xFFFFFFFFFFFFFFFFFFFFFFFFFFFFFFFFFFFFFFFF DUP3 AND SWAP1 POP SWAP2 SWAP1 POP JUMP JUMPDEST PUSH0 PUSH2 0xB46 DUP3 PUSH2 0xB1D JUMP JUMPDEST SWAP1 POP SWAP2 SWAP1 POP JUMP JUMPDEST PUSH2 0xB56 DUP2 PUSH2 0xB3C JUMP JUMPDEST DUP3 MSTORE POP POP JUMP JUMPDEST PUSH0 PUSH1 0x20 DUP3 ADD SWAP1 POP PUSH2 0xB6F PUSH0 DUP4 ADD DUP5 PUSH2 0xB4D JUMP JUMPDEST SWAP3 SWAP2 POP POP JUMP JUMPDEST PUSH2 0xB7E DUP2 PUSH2 0xA37 JUMP JUMPDEST DUP3 MSTORE POP POP JUMP JUMPDEST PUSH0 PUSH1 0x20 DUP3 ADD SWAP1 POP PUSH2 0xB97 PUSH0 DUP4 ADD DUP5 PUSH2 0xB75 JUMP JUMPDEST SWAP3 SWAP2 POP POP JUMP JUMPDEST PUSH2 0xBA6 DUP2 PUSH2 0xB3C JUMP JUMPDEST DUP2 EQ PUSH2 0xBB0 JUMPI PUSH0 DUP1 REVERT JUMPDEST POP JUMP JUMPDEST PUSH0 DUP2 CALLDATALOAD SWAP1 POP PUSH2 0xBC1 DUP2 PUSH2 0xB9D JUMP JUMPDEST SWAP3 SWAP2 POP POP JUMP JUMPDEST PUSH0 PUSH1 0x20 DUP3 DUP5 SUB SLT ISZERO PUSH2 0xBDC JUMPI PUSH2 0xBDB PUSH2 0x8C7 JUMP JUMPDEST JUMPDEST PUSH0 PUSH2 0xBE9 DUP5 DUP3 DUP6 ADD PUSH2 0xBB3 JUMP JUMPDEST SWAP2 POP POP SWAP3 SWAP2 POP POP JUMP JUMPDEST PUSH2 0xBFB DUP2 PUSH2 0xA37 JUMP JUMPDEST DUP3 MSTORE POP POP JUMP JUMPDEST PUSH2 0xC0A DUP2 PUSH2 0x8CF JUMP JUMPDEST DUP3 MSTORE POP POP JUMP JUMPDEST PUSH0 PUSH1 0xFF DUP3 AND SWAP1 POP SWAP2 SWAP1 POP JUMP JUMPDEST PUSH2 0xC25 DUP2 PUSH2 0xC10 JUMP JUMPDEST DUP3 MSTORE POP POP JUMP JUMPDEST PUSH2 0xC34 DUP2 PUSH2 0x9C4 JUMP JUMPDEST DUP3 MSTORE POP POP JUMP JUMPDEST PUSH0 DUP2 MLOAD SWAP1 POP SWAP2 SWAP1 POP JUMP JUMPDEST PUSH0 DUP3 DUP3 MSTORE PUSH1 0x20 DUP3 ADD SWAP1 POP SWAP3 SWAP2 POP POP JUMP JUMPDEST PUSH0 DUP2 SWAP1 POP PUSH1 0x20 DUP3 ADD SWAP1 POP SWAP2 SWAP1 POP JUMP JUMPDEST PUSH0 PUSH2 0xC6E DUP4 DUP4 PUSH2 0xBF2 JUMP JUMPDEST PUSH1 0x20 DUP4 ADD SWAP1 POP SWAP3 SWAP2 POP POP JUMP JUMPDEST PUSH0 PUSH1 0x20 DUP3 ADD SWAP1 POP SWAP2 SWAP1 POP JUMP JUMPDEST PUSH0 PUSH2 0xC90 DUP3 PUSH2 0xC3A JUMP JUMPDEST PUSH2 0xC9A DUP2 DUP6 PUSH2 0xC44 JUMP JUMPDEST SWAP4 POP PUSH2 0xCA5 DUP4 PUSH2 0xC54 JUMP JUMPDEST DUP1 PUSH0 JUMPDEST DUP4 DUP2 LT ISZERO PUSH2 0xCD5 JUMPI DUP2 MLOAD PUSH2 0xCBC DUP9 DUP3 PUSH2 0xC63 JUMP JUMPDEST SWAP8 POP PUSH2 0xCC7 DUP4 PUSH2 0xC7A JUMP JUMPDEST SWAP3 POP POP PUSH1 0x1 DUP2 ADD SWAP1 POP PUSH2 0xCA8 JUMP JUMPDEST POP DUP6 SWAP4 POP POP POP POP SWAP3 SWAP2 POP POP JUMP JUMPDEST PUSH0 PUSH1 0xA0 DUP4 ADD PUSH0 DUP4 ADD MLOAD PUSH2 0xCF7 PUSH0 DUP7 ADD DUP3 PUSH2 0xC2B JUMP JUMPDEST POP PUSH1 0x20 DUP4 ADD MLOAD DUP5 DUP3 SUB PUSH1 0x20 DUP7 ADD MSTORE PUSH2 0xD0F DUP3 DUP3 PUSH2 0xC86 JUMP JUMPDEST SWAP2 POP POP PUSH1 0x40 DUP4 ADD MLOAD DUP5 DUP3 SUB PUSH1 0x40 DUP7 ADD MSTORE PUSH2 0xD29 DUP3 DUP3 PUSH2 0xC86 JUMP JUMPDEST SWAP2 POP POP PUSH1 0x60 DUP4 ADD MLOAD PUSH2 0xD3E PUSH1 0x60 DUP7 ADD DUP3 PUSH2 0xBF2 JUMP JUMPDEST POP PUSH1 0x80 DUP4 ADD MLOAD PUSH2 0xD51 PUSH1 0x80 DUP7 ADD DUP3 PUSH2 0xBF2 JUMP JUMPDEST POP DUP1 SWAP2 POP POP SWAP3 SWAP2 POP POP JUMP JUMPDEST PUSH0 DUP2 ISZERO ISZERO SWAP1 POP SWAP2 SWAP1 POP JUMP JUMPDEST PUSH2 0xD70 DUP2 PUSH2 0xD5C JUMP JUMPDEST DUP3 MSTORE POP POP JUMP JUMPDEST PUSH0 PUSH1 0xC0 DUP4 ADD PUSH0 DUP4 ADD MLOAD PUSH2 0xD8B PUSH0 DUP7 ADD DUP3 PUSH2 0xBF2 JUMP JUMPDEST POP PUSH1 0x20 DUP4 ADD MLOAD PUSH2 0xD9E PUSH1 0x20 DUP7 ADD DUP3 PUSH2 0xBF2 JUMP JUMPDEST POP PUSH1 0x40 DUP4 ADD MLOAD PUSH2 0xDB1 PUSH1 0x40 DUP7 ADD DUP3 PUSH2 0xC01 JUMP JUMPDEST POP PUSH1 0x60 DUP4 ADD MLOAD PUSH2 0xDC4 PUSH1 0x60 DUP7 ADD DUP3 PUSH2 0xC1C JUMP JUMPDEST POP PUSH1 0x80 DUP4 ADD MLOAD DUP5 DUP3 SUB PUSH1 0x80 DUP7 ADD MSTORE PUSH2 0xDDC DUP3 DUP3 PUSH2 0xCE2 JUMP JUMPDEST SWAP2 POP POP PUSH1 0xA0 DUP4 ADD MLOAD PUSH2 0xDF1 PUSH1 0xA0 DUP7 ADD DUP3 PUSH2 0xD67 JUMP JUMPDEST POP DUP1 SWAP2 POP POP SWAP3 SWAP2 POP POP JUMP JUMPDEST PUSH0 PUSH1 0x20 DUP3 ADD SWAP1 POP DUP2 DUP2 SUB PUSH0 DUP4 ADD MSTORE PUSH2 0xE14 DUP2 DUP5 PUSH2 0xD76 JUMP JUMPDEST SWAP1 POP SWAP3 SWAP2 POP POP JUMP JUMPDEST PUSH0 DUP1 PUSH0 DUP1 PUSH0 DUP1 PUSH0 PUSH1 0xE0 DUP9 DUP11 SUB SLT ISZERO PUSH2 0xE37 JUMPI PUSH2 0xE36 PUSH2 0x8C7 JUMP JUMPDEST JUMPDEST PUSH0 PUSH2 0xE44 DUP11 DUP3 DUP12 ADD PUSH2 0x8EE JUMP JUMPDEST SWAP8 POP POP PUSH1 0x20 PUSH2 0xE55 DUP11 DUP3 DUP12 ADD PUSH2 0x9B0 JUMP JUMPDEST SWAP7 POP POP PUSH1 0x40 PUSH2 0xE66 DUP11 DUP3 DUP12 ADD PUSH2 0x9ED JUMP JUMPDEST SWAP6 POP POP PUSH1 0x60 PUSH2 0xE77 DUP11 DUP3 DUP12 ADD PUSH2 0xA23 JUMP JUMPDEST SWAP5 POP POP PUSH1 0x80 PUSH2 0xE88 DUP11 DUP3 DUP12 ADD PUSH2 0x9B0 JUMP JUMPDEST SWAP4 POP POP PUSH1 0xA0 PUSH2 0xE99 DUP11 DUP3 DUP12 ADD PUSH2 0x9ED JUMP JUMPDEST SWAP3 POP POP PUSH1 0xC0 PUSH2 0xEAA DUP11 DUP3 DUP12 ADD PUSH2 0x9ED JUMP JUMPDEST SWAP2 POP POP SWAP3 SWAP6 SWAP9 SWAP2 SWAP5 SWAP8 POP SWAP3 SWAP6 POP JUMP JUMPDEST PUSH1 0x40 DUP3 ADD PUSH0 DUP3 ADD MLOAD PUSH2 0xECD PUSH0 DUP6 ADD DUP3 PUSH2 0xBF2 JUMP JUMPDEST POP PUSH1 0x20 DUP3 ADD MLOAD PUSH2 0xEE0 PUSH1 0x20 DUP6 ADD DUP3 PUSH2 0xBF2 JUMP JUMPDEST POP POP POP POP JUMP JUMPDEST PUSH0 PUSH1 0x40 DUP3 ADD SWAP1 POP PUSH2 0xEF9 PUSH0 DUP4 ADD DUP5 PUSH2 0xEB9 JUMP JUMPDEST SWAP3 SWAP2 POP POP JUMP JUMPDEST PUSH2 0xF08 DUP2 PUSH2 0x8CF JUMP JUMPDEST DUP3 MSTORE POP POP JUMP JUMPDEST PUSH2 0xF17 DUP2 PUSH2 0x98E JUMP JUMPDEST DUP3 MSTORE POP POP JUMP JUMPDEST PUSH2 0xF26 DUP2 PUSH2 0x9C4 JUMP JUMPDEST DUP3 MSTORE POP POP JUMP JUMPDEST PUSH2 0xF35 DUP2 PUSH2 0xA01 JUMP JUMPDEST DUP3 MSTORE POP POP JUMP JUMPDEST PUSH0 PUSH2 0x100 DUP3 ADD SWAP1 POP PUSH2 0xF4F PUSH0 DUP4 ADD DUP12 PUSH2 0xEFF JUMP JUMPDEST PUSH2 0xF5C PUSH1 0x20 DUP4 ADD DUP11 PUSH2 0xF0E JUMP JUMPDEST PUSH2 0xF69 PUSH1 0x40 DUP4 ADD DUP10 PUSH2 0xF1D JUMP JUMPDEST PUSH2 0xF76 PUSH1 0x60 DUP4 ADD DUP9 PUSH2 0xF2C JUMP JUMPDEST PUSH2 0xF83 PUSH1 0x80 DUP4 ADD DUP8 PUSH2 0xF0E JUMP JUMPDEST PUSH2 0xF90 PUSH1 0xA0 DUP4 ADD DUP7 PUSH2 0xF1D JUMP JUMPDEST PUSH2 0xF9D PUSH1 0xC0 DUP4 ADD DUP6 PUSH2 0xF1D JUMP JUMPDEST PUSH2 0xFAA PUSH1 0xE0 DUP4 ADD DUP5 PUSH2 0xF1D JUMP JUMPDEST SWAP10 SWAP9 POP POP POP POP POP POP POP POP POP JUMP JUMPDEST PUSH0 DUP1 REVERT JUMPDEST PUSH0 DUP1 REVERT JUMPDEST PUSH0 PUSH8 0xFFFFFFFFFFFFFFFF DUP3 GT ISZERO PUSH2 0xFD9 JUMPI PUSH2 0xFD8 PUSH2 0x916 JUMP JUMPDEST JUMPDEST PUSH2 0xFE2 DUP3 PUSH2 0x906 JUMP JUMPDEST SWAP1 POP PUSH1 0x20 DUP2 ADD SWAP1 POP SWAP2 SWAP1 POP JUMP JUMPDEST PUSH0 JUMPDEST DUP4 DUP2 LT ISZERO PUSH2 0x100C JUMPI DUP1 DUP3 ADD MLOAD DUP2 DUP5 ADD MSTORE PUSH1 0x20 DUP2 ADD SWAP1 POP PUSH2 0xFF1 JUMP JUMPDEST PUSH0 DUP5 DUP5 ADD MSTORE POP POP POP POP JUMP JUMPDEST PUSH0 PUSH2 0x1029 PUSH2 0x1024 DUP5 PUSH2 0xFBF JUMP JUMPDEST PUSH2 0x974 JUMP JUMPDEST SWAP1 POP DUP3 DUP2 MSTORE PUSH1 0x20 DUP2 ADD DUP5 DUP5 DUP5 ADD GT ISZERO PUSH2 0x1045 JUMPI PUSH2 0x1044 PUSH2 0xFBB JUMP JUMPDEST JUMPDEST PUSH2 0x1050 DUP5 DUP3 DUP6 PUSH2 0xFEF JUMP JUMPDEST POP SWAP4 SWAP3 POP POP POP JUMP JUMPDEST PUSH0 DUP3 PUSH1 0x1F DUP4 ADD SLT PUSH2 0x106C JUMPI PUSH2 0x106B PUSH2 0xFB7 JUMP JUMPDEST JUMPDEST DUP2 MLOAD PUSH2 0x107C DUP5 DUP3 PUSH1 0x20 DUP7 ADD PUSH2 0x1017 JUMP JUMPDEST SWAP2 POP POP SWAP3 SWAP2 POP POP JUMP JUMPDEST PUSH0 PUSH1 0x20 DUP3 DUP5 SUB SLT ISZERO PUSH2 0x109A JUMPI PUSH2 0x1099 PUSH2 0x8C7 JUMP JUMPDEST JUMPDEST PUSH0 DUP3 ADD MLOAD PUSH8 0xFFFFFFFFFFFFFFFF DUP2 GT ISZERO PUSH2 0x10B7 JUMPI PUSH2 0x10B6 PUSH2 0x8CB JUMP JUMPDEST JUMPDEST PUSH2 0x10C3 DUP5 DUP3 DUP6 ADD PUSH2 0x1058 JUMP JUMPDEST SWAP2 POP POP SWAP3 SWAP2 POP POP JUMP JUMPDEST PUSH32 0x4E487B7100000000000000000000000000000000000000000000000000000000 PUSH0 MSTORE PUSH1 0x32 PUSH1 0x4 MSTORE PUSH1 0x24 PUSH0 REVERT JUMPDEST PUSH0 DUP2 MLOAD SWAP1 POP SWAP2 SWAP1 POP JUMP JUMPDEST PUSH0 DUP3 DUP3 MSTORE PUSH1 0x20 DUP3 ADD SWAP1 POP SWAP3 SWAP2 POP POP JUMP JUMPDEST PUSH0 DUP2 SWAP1 POP PUSH1 0x20 DUP3 ADD SWAP1 POP SWAP2 SWAP1 POP JUMP JUMPDEST PUSH0 DUP2 MLOAD SWAP1 POP SWAP2 SWAP1 POP JUMP JUMPDEST PUSH0 DUP3 DUP3 MSTORE PUSH1 0x20 DUP3 ADD SWAP1 POP SWAP3 SWAP2 POP POP JUMP JUMPDEST PUSH0 PUSH2 0x1146 DUP3 PUSH2 0x1122 JUMP JUMPDEST PUSH2 0x1150 DUP2 DUP6 PUSH2 0x112C JUMP JUMPDEST SWAP4 POP PUSH2 0x1160 DUP2 DUP6 PUSH1 0x20 DUP7 ADD PUSH2 0xFEF JUMP JUMPDEST PUSH2 0x1169 DUP2 PUSH2 0x906 JUMP JUMPDEST DUP5 ADD SWAP2 POP POP SWAP3 SWAP2 POP POP JUMP JUMPDEST PUSH0 PUSH2 0x117F DUP4 DUP4 PUSH2 0x113C JUMP JUMPDEST SWAP1 POP SWAP3 SWAP2 POP POP JUMP JUMPDEST PUSH0 PUSH1 0x20 DUP3 ADD SWAP1 POP SWAP2 SWAP1 POP JUMP JUMPDEST PUSH0 PUSH2 0x119D DUP3 PUSH2 0x10F9 JUMP JUMPDEST PUSH2 0x11A7 DUP2 DUP6 PUSH2 0x1103 JUMP JUMPDEST SWAP4 POP DUP4 PUSH1 0x20 DUP3 MUL DUP6 ADD PUSH2 0x11B9 DUP6 PUSH2 0x1113 JUMP JUMPDEST DUP1 PUSH0 JUMPDEST DUP6 DUP2 LT ISZERO PUSH2 0x11F4 JUMPI DUP5 DUP5 SUB DUP10 MSTORE DUP2 MLOAD PUSH2 0x11D5 DUP6 DUP3 PUSH2 0x1174 JUMP JUMPDEST SWAP5 POP PUSH2 0x11E0 DUP4 PUSH2 0x1187 JUMP JUMPDEST SWAP3 POP PUSH1 0x20 DUP11 ADD SWAP10 POP POP PUSH1 0x1 DUP2 ADD SWAP1 POP PUSH2 0x11BC JUMP JUMPDEST POP DUP3 SWAP8 POP DUP8 SWAP6 POP POP POP POP POP POP SWAP3 SWAP2 POP POP JUMP JUMPDEST PUSH0 PUSH1 0x20 DUP3 ADD SWAP1 POP DUP2 DUP2 SUB PUSH0 DUP4 ADD MSTORE PUSH2 0x121E DUP2 DUP5 PUSH2 0x1193 JUMP JUMPDEST SWAP1 POP SWAP3 SWAP2 POP POP JUMP INVALID LOG2 PUSH5 0x6970667358 0x22 SLT KECCAK256 0xD1 PUSH4 0x625E4BC3 SWAP7 JUMP PUSH21 0xB03B982EEF1154461C22FAF7C5F3A29E581C5BF515 PUSH21 0x8B64736F6C63430008170033000000000000000000 "
		},
		"gasEstimates": {
			"creation": {
				"codeDepositCost": "940000",
				"executionCost": "322",
				"totalCost": "940322"
			},
			"external": {
				"getAssetInfo(address)": "infinite",
				"getInterestAccrualIndexPrecision()": "2505",
				"getInterestAccrualIndices(address)": "infinite",
				"owner()": "2560",
				"renounceOwnership()": "infinite",
				"setMockPythFeed(bytes32,int64,uint64,int32,int64,uint64,uint64)": "infinite",
				"setOraclePrice(bytes32,(int64,uint64,int32,uint256))": "infinite",
				"transferOwnership(address)": "infinite"
			},
			"internal": {
				"allowAsset(address)": "infinite",
				"consumeMessageHash(bytes32)": "infinite",
				"registerAssetInfo(address,struct HubSpokeStructs.AssetInfo memory)": "infinite",
				"registerSpokeContract(uint16,address)": "infinite",
				"setChainId(uint16)": "infinite",
				"setCollateralizationRatioPrecision(uint256)": "infinite",
				"setConsistencyLevel(uint8)": "infinite",
				"setGlobalAmounts(address,struct HubSpokeStructs.VaultAmount memory)": "infinite",
				"setInterestAccrualIndexPrecision(uint256)": "infinite",
				"setInterestAccrualIndices(address,struct HubSpokeStructs.AccrualIndices memory)": "infinite",
				"setLastActivityBlockTimestamp(address,uint256)": "infinite",
				"setMaxDecimals(uint8)": "infinite",
				"setMaxLiquidationBonus(uint256)": "infinite",
				"setMaxLiquidationPortion(uint256)": "infinite",
				"setMaxLiquidationPortionPrecision(uint256)": "infinite",
				"setMockPyth(uint256,uint256)": "infinite",
				"setOracleMode(uint8)": "infinite",
				"setPriceStandardDeviations(uint64)": "infinite",
				"setPriceStandardDeviationsPrecision(uint64)": "infinite",
				"setPyth(address)": "infinite",
				"setTokenBridge(address)": "infinite",
				"setVaultAmounts(address,address,struct HubSpokeStructs.VaultAmount memory)": "infinite",
				"setWormhole(address)": "infinite"
			}
		},
		"methodIdentifiers": {
			"getAssetInfo(address)": "afad2e16",
			"getInterestAccrualIndexPrecision()": "a1424f26",
			"getInterestAccrualIndices(address)": "e80a03f3",
			"owner()": "8da5cb5b",
			"renounceOwnership()": "715018a6",
			"setMockPythFeed(bytes32,int64,uint64,int32,int64,uint64,uint64)": "d3cc2e48",
			"setOraclePrice(bytes32,(int64,uint64,int32,uint256))": "6cc0b5fe",
			"transferOwnership(address)": "f2fde38b"
		}
	},
	"abi": [
		{
			"inputs": [
				{
					"internalType": "address",
					"name": "owner",
					"type": "address"
				}
			],
			"name": "OwnableInvalidOwner",
			"type": "error"
		},
		{
			"inputs": [
				{
					"internalType": "address",
					"name": "account",
					"type": "address"
				}
			],
			"name": "OwnableUnauthorizedAccount",
			"type": "error"
		},
		{
			"anonymous": false,
			"inputs": [
				{
					"indexed": true,
					"internalType": "address",
					"name": "previousOwner",
					"type": "address"
				},
				{
					"indexed": true,
					"internalType": "address",
					"name": "newOwner",
					"type": "address"
				}
			],
			"name": "OwnershipTransferred",
			"type": "event"
		},
		{
			"inputs": [
				{
					"internalType": "address",
					"name": "assetAddress",
					"type": "address"
				}
			],
			"name": "getAssetInfo",
			"outputs": [
				{
					"components": [
						{
							"internalType": "uint256",
							"name": "collateralizationRatioDeposit",
							"type": "uint256"
						},
						{
							"internalType": "uint256",
							"name": "collateralizationRatioBorrow",
							"type": "uint256"
						},
						{
							"internalType": "bytes32",
							"name": "pythId",
							"type": "bytes32"
						},
						{
							"internalType": "uint8",
							"name": "decimals",
							"type": "uint8"
						},
						{
							"components": [
								{
									"internalType": "uint64",
									"name": "ratePrecision",
									"type": "uint64"
								},
								{
									"internalType": "uint256[]",
									"name": "kinks",
									"type": "uint256[]"
								},
								{
									"internalType": "uint256[]",
									"name": "rates",
									"type": "uint256[]"
								},
								{
									"internalType": "uint256",
									"name": "reserveFactor",
									"type": "uint256"
								},
								{
									"internalType": "uint256",
									"name": "reservePrecision",
									"type": "uint256"
								}
							],
							"internalType": "struct HubSpokeStructs.PiecewiseInterestRateModel",
							"name": "interestRateModel",
							"type": "tuple"
						},
						{
							"internalType": "bool",
							"name": "exists",
							"type": "bool"
						}
					],
					"internalType": "struct HubSpokeStructs.AssetInfo",
					"name": "",
					"type": "tuple"
				}
			],
			"stateMutability": "view",
			"type": "function"
		},
		{
			"inputs": [],
			"name": "getInterestAccrualIndexPrecision",
			"outputs": [
				{
					"internalType": "uint256",
					"name": "",
					"type": "uint256"
				}
			],
			"stateMutability": "view",
			"type": "function"
		},
		{
			"inputs": [
				{
					"internalType": "address",
					"name": "assetAddress",
					"type": "address"
				}
			],
			"name": "getInterestAccrualIndices",
			"outputs": [
				{
					"components": [
						{
							"internalType": "uint256",
							"name": "deposited",
							"type": "uint256"
						},
						{
							"internalType": "uint256",
							"name": "borrowed",
							"type": "uint256"
						}
					],
					"internalType": "struct HubSpokeStructs.AccrualIndices",
					"name": "",
					"type": "tuple"
				}
			],
			"stateMutability": "view",
			"type": "function"
		},
		{
			"inputs": [],
			"name": "owner",
			"outputs": [
				{
					"internalType": "address",
					"name": "",
					"type": "address"
				}
			],
			"stateMutability": "view",
			"type": "function"
		},
		{
			"inputs": [],
			"name": "renounceOwnership",
			"outputs": [],
			"stateMutability": "nonpayable",
			"type": "function"
		},
		{
			"inputs": [
				{
					"internalType": "bytes32",
					"name": "id",
					"type": "bytes32"
				},
				{
					"internalType": "int64",
					"name": "price",
					"type": "int64"
				},
				{
					"internalType": "uint64",
					"name": "conf",
					"type": "uint64"
				},
				{
					"internalType": "int32",
					"name": "expo",
					"type": "int32"
				},
				{
					"internalType": "int64",
					"name": "emaPrice",
					"type": "int64"
				},
				{
					"internalType": "uint64",
					"name": "emaConf",
					"type": "uint64"
				},
				{
					"internalType": "uint64",
					"name": "publishTime",
					"type": "uint64"
				}
			],
			"name": "setMockPythFeed",
			"outputs": [],
			"stateMutability": "nonpayable",
			"type": "function"
		},
		{
			"inputs": [
				{
					"internalType": "bytes32",
					"name": "oracleId",
					"type": "bytes32"
				},
				{
					"components": [
						{
							"internalType": "int64",
							"name": "price",
							"type": "int64"
						},
						{
							"internalType": "uint64",
							"name": "conf",
							"type": "uint64"
						},
						{
							"internalType": "int32",
							"name": "expo",
							"type": "int32"
						},
						{
							"internalType": "uint256",
							"name": "publishTime",
							"type": "uint256"
						}
					],
					"internalType": "struct HubSpokeStructs.Price",
					"name": "price",
					"type": "tuple"
				}
			],
			"name": "setOraclePrice",
			"outputs": [],
			"stateMutability": "nonpayable",
			"type": "function"
		},
		{
			"inputs": [
				{
					"internalType": "address",
					"name": "newOwner",
					"type": "address"
				}
			],
			"name": "transferOwnership",
			"outputs": [],
			"stateMutability": "nonpayable",
			"type": "function"
		}
	]
}