{
	"example-2/evm/src/contracts/lendingSpoke/SpokeUtilities.sol": {
		"SpokeUtilities": {
			"abi": [
				{
					"inputs": [],
					"name": "chainId",
					"outputs": [
						{
							"internalType": "uint16",
							"name": "",
							"type": "uint16"
						}
					],
					"stateMutability": "view",
					"type": "function"
				},
				{
					"inputs": [],
					"name": "tokenBridge",
					"outputs": [
						{
							"internalType": "contract ITokenBridge",
							"name": "",
							"type": "address"
						}
					],
					"stateMutability": "view",
					"type": "function"
				},
				{
					"inputs": [],
					"name": "tokenBridgeAddress",
					"outputs": [
						{
							"internalType": "address",
							"name": "",
							"type": "address"
						}
					],
					"stateMutability": "view",
					"type": "function"
				}
			],
			"devdoc": {
				"kind": "dev",
				"methods": {},
				"version": 1
			},
			"evm": {
				"assembly": "    /* \"example-2/evm/src/contracts/lendingSpoke/SpokeUtilities.sol\":338:2358  contract SpokeUtilities is HubSpokeStructs, SpokeState, SpokeGetters, SpokeSetters {... */\n  mstore(0x40, 0x80)\n  callvalue\n  dup1\n  iszero\n  tag_1\n  jumpi\n  0x00\n  dup1\n  revert\ntag_1:\n  pop\n  dataSize(sub_0)\n  dup1\n  dataOffset(sub_0)\n  0x00\n  codecopy\n  0x00\n  return\nstop\n\nsub_0: assembly {\n        /* \"example-2/evm/src/contracts/lendingSpoke/SpokeUtilities.sol\":338:2358  contract SpokeUtilities is HubSpokeStructs, SpokeState, SpokeGetters, SpokeSetters {... */\n      mstore(0x40, 0x80)\n      callvalue\n      dup1\n      iszero\n      tag_1\n      jumpi\n      0x00\n      dup1\n      revert\n    tag_1:\n      pop\n      jumpi(tag_2, lt(calldatasize, 0x04))\n      shr(0xe0, calldataload(0x00))\n      dup1\n      0x9a8a0592\n      eq\n      tag_3\n      jumpi\n      dup1\n      0xc6328a46\n      eq\n      tag_4\n      jumpi\n      dup1\n      0xe1884919\n      eq\n      tag_4\n      jumpi\n    tag_2:\n      0x00\n      dup1\n      revert\n        /* \"example-2/evm/src/contracts/lendingSpoke/SpokeGetters.sol\":269:364  function chainId() public view returns (uint16) {... */\n    tag_3:\n        /* \"example-2/evm/src/contracts/lendingSpoke/SpokeGetters.sol\":309:315  uint16 */\n      0x00\n        /* \"example-2/evm/src/contracts/lendingSpoke/SpokeGetters.sol\":334:357  _state.provider.chainId */\n      sload\n        /* \"example-2/evm/src/contracts/lendingSpoke/SpokeGetters.sol\":269:364  function chainId() public view returns (uint16) {... */\n      mload(0x40)\n        /* \"example-2/evm/src/contracts/lendingSpoke/SpokeGetters.sol\":334:357  _state.provider.chainId */\n      0xffff\n      swap1\n      swap2\n      and\n        /* \"#utility.yul\":158:196   */\n      dup2\n      mstore\n        /* \"#utility.yul\":146:148   */\n      0x20\n        /* \"#utility.yul\":131:149   */\n      add\n        /* \"example-2/evm/src/contracts/lendingSpoke/SpokeGetters.sol\":269:364  function chainId() public view returns (uint16) {... */\n    tag_8:\n      mload(0x40)\n      dup1\n      swap2\n      sub\n      swap1\n      return\n        /* \"example-2/evm/src/contracts/lendingSpoke/SpokeGetters.sol\":489:621  function tokenBridge() public view returns (ITokenBridge) {... */\n    tag_4:\n        /* \"example-2/evm/src/contracts/lendingSpoke/SpokeGetters.sol\":585:612  _state.provider.tokenBridge */\n      sload(0x01)\n        /* \"example-2/evm/src/contracts/lendingSpoke/SpokeGetters.sol\":489:621  function tokenBridge() public view returns (ITokenBridge) {... */\n      mload(0x40)\n      sub(shl(0xa0, 0x01), 0x01)\n        /* \"example-2/evm/src/contracts/lendingSpoke/SpokeGetters.sol\":585:612  _state.provider.tokenBridge */\n      swap1\n      swap2\n      and\n        /* \"#utility.yul\":374:425   */\n      dup2\n      mstore\n        /* \"#utility.yul\":362:364   */\n      0x20\n        /* \"#utility.yul\":347:365   */\n      add\n        /* \"example-2/evm/src/contracts/lendingSpoke/SpokeGetters.sol\":489:621  function tokenBridge() public view returns (ITokenBridge) {... */\n      tag_8\n        /* \"#utility.yul\":207:431   */\n      jump\n\n    auxdata: 0xa26469706673582212209ad68ba389d7bd22965e945cb89e030c6a4a8356acf0eecee60909a22d1027cd64736f6c63430008170033\n}\n",
				"bytecode": {
					"linkReferences": {},
					"object": "6080604052348015600e575f80fd5b5060a88061001b5f395ff3fe6080604052348015600e575f80fd5b5060043610603a575f3560e01c80639a8a059214603e578063c6328a46146058578063e1884919146058575b5f80fd5b5f5460405161ffff90911681526020015b60405180910390f35b6001546040516001600160a01b039091168152602001604f56fea26469706673582212209ad68ba389d7bd22965e945cb89e030c6a4a8356acf0eecee60909a22d1027cd64736f6c63430008170033",
					"opcodes": "PUSH1 0x80 PUSH1 0x40 MSTORE CALLVALUE DUP1 ISZERO PUSH1 0xE JUMPI PUSH0 DUP1 REVERT JUMPDEST POP PUSH1 0xA8 DUP1 PUSH2 0x1B PUSH0 CODECOPY PUSH0 RETURN INVALID PUSH1 0x80 PUSH1 0x40 MSTORE CALLVALUE DUP1 ISZERO PUSH1 0xE JUMPI PUSH0 DUP1 REVERT JUMPDEST POP PUSH1 0x4 CALLDATASIZE LT PUSH1 0x3A JUMPI PUSH0 CALLDATALOAD PUSH1 0xE0 SHR DUP1 PUSH4 0x9A8A0592 EQ PUSH1 0x3E JUMPI DUP1 PUSH4 0xC6328A46 EQ PUSH1 0x58 JUMPI DUP1 PUSH4 0xE1884919 EQ PUSH1 0x58 JUMPI JUMPDEST PUSH0 DUP1 REVERT JUMPDEST PUSH0 SLOAD PUSH1 0x40 MLOAD PUSH2 0xFFFF SWAP1 SWAP2 AND DUP2 MSTORE PUSH1 0x20 ADD JUMPDEST PUSH1 0x40 MLOAD DUP1 SWAP2 SUB SWAP1 RETURN JUMPDEST PUSH1 0x1 SLOAD PUSH1 0x40 MLOAD PUSH1 0x1 PUSH1 0x1 PUSH1 0xA0 SHL SUB SWAP1 SWAP2 AND DUP2 MSTORE PUSH1 0x20 ADD PUSH1 0x4F JUMP INVALID LOG2 PUSH5 0x6970667358 0x22 SLT KECCAK256 SWAP11 0xD6 DUP12 LOG3 DUP10 0xD7 0xBD 0x22 SWAP7 0x5E SWAP5 0x5C 0xB8 SWAP15 SUB 0xC PUSH11 0x4A8356ACF0EECEE60909A2 0x2D LT 0x27 0xCD PUSH5 0x736F6C6343 STOP ADDMOD OR STOP CALLER "
				},
				"gasEstimates": {
					"creation": {
						"codeDepositCost": "33600",
						"executionCost": "85",
						"totalCost": "33685"
					},
					"external": {
						"chainId()": "2254",
						"tokenBridge()": "2300",
						"tokenBridgeAddress()": "2322"
					},
					"internal": {
						"deNormalizeAmount(uint256,uint8)": "infinite",
						"normalizeAmount(uint256,uint8)": "infinite",
						"requireAssetAmountValidForTokenBridge(address,uint256)": "infinite",
						"sendTokenBridgeMessage(address,uint256,bytes memory)": "infinite",
						"sendTokenBridgeMessageNative(uint256,bytes memory)": "infinite",
						"sendWormholeMessage(bytes memory)": "infinite"
					}
				},
				"methodIdentifiers": {
					"chainId()": "9a8a0592",
					"tokenBridge()": "c6328a46",
					"tokenBridgeAddress()": "e1884919"
				}
			},
			"storageLayout": {
				"storage": [
					{
						"astId": 1334,
						"contract": "example-2/evm/src/contracts/lendingSpoke/SpokeUtilities.sol:SpokeUtilities",
						"label": "_state",
						"offset": 0,
						"slot": "0",
						"type": "t_struct(State)1330_storage"
					}
				],
				"types": {
					"t_address": {
						"encoding": "inplace",
						"label": "address",
						"numberOfBytes": "20"
					},
					"t_address_payable": {
						"encoding": "inplace",
						"label": "address payable",
						"numberOfBytes": "20"
					},
					"t_array(t_uint256)50_storage": {
						"base": "t_uint256",
						"encoding": "inplace",
						"label": "uint256[50]",
						"numberOfBytes": "1600"
					},
					"t_struct(Provider)1316_storage": {
						"encoding": "inplace",
						"label": "struct SpokeStorage.Provider",
						"members": [
							{
								"astId": 1311,
								"contract": "example-2/evm/src/contracts/lendingSpoke/SpokeUtilities.sol:SpokeUtilities",
								"label": "chainId",
								"offset": 0,
								"slot": "0",
								"type": "t_uint16"
							},
							{
								"astId": 1313,
								"contract": "example-2/evm/src/contracts/lendingSpoke/SpokeUtilities.sol:SpokeUtilities",
								"label": "wormhole",
								"offset": 2,
								"slot": "0",
								"type": "t_address_payable"
							},
							{
								"astId": 1315,
								"contract": "example-2/evm/src/contracts/lendingSpoke/SpokeUtilities.sol:SpokeUtilities",
								"label": "tokenBridge",
								"offset": 0,
								"slot": "1",
								"type": "t_address"
							}
						],
						"numberOfBytes": "64"
					},
					"t_struct(State)1330_storage": {
						"encoding": "inplace",
						"label": "struct SpokeStorage.State",
						"members": [
							{
								"astId": 1319,
								"contract": "example-2/evm/src/contracts/lendingSpoke/SpokeUtilities.sol:SpokeUtilities",
								"label": "provider",
								"offset": 0,
								"slot": "0",
								"type": "t_struct(Provider)1316_storage"
							},
							{
								"astId": 1321,
								"contract": "example-2/evm/src/contracts/lendingSpoke/SpokeUtilities.sol:SpokeUtilities",
								"label": "consistencyLevel",
								"offset": 0,
								"slot": "2",
								"type": "t_uint8"
							},
							{
								"astId": 1323,
								"contract": "example-2/evm/src/contracts/lendingSpoke/SpokeUtilities.sol:SpokeUtilities",
								"label": "hubChainId",
								"offset": 1,
								"slot": "2",
								"type": "t_uint16"
							},
							{
								"astId": 1325,
								"contract": "example-2/evm/src/contracts/lendingSpoke/SpokeUtilities.sol:SpokeUtilities",
								"label": "hubContractAddress",
								"offset": 3,
								"slot": "2",
								"type": "t_address"
							},
							{
								"astId": 1329,
								"contract": "example-2/evm/src/contracts/lendingSpoke/SpokeUtilities.sol:SpokeUtilities",
								"label": "______gap",
								"offset": 0,
								"slot": "3",
								"type": "t_array(t_uint256)50_storage"
							}
						],
						"numberOfBytes": "1696"
					},
					"t_uint16": {
						"encoding": "inplace",
						"label": "uint16",
						"numberOfBytes": "2"
					},
					"t_uint256": {
						"encoding": "inplace",
						"label": "uint256",
						"numberOfBytes": "32"
					},
					"t_uint8": {
						"encoding": "inplace",
						"label": "uint8",
						"numberOfBytes": "1"
					}
				}
			},
			"userdoc": {
				"kind": "user",
				"methods": {},
				"version": 1
			}
		}
	}
}