{
	"example-2/evm/src/contracts/lendingSpoke/Spoke.sol": {
		"Spoke": {
			"abi": [
				{
					"inputs": [
						{
							"internalType": "uint16",
							"name": "chainId",
							"type": "uint16"
						},
						{
							"internalType": "address",
							"name": "wormhole",
							"type": "address"
						},
						{
							"internalType": "address",
							"name": "tokenBridge",
							"type": "address"
						},
						{
							"internalType": "uint16",
							"name": "hubChainId",
							"type": "uint16"
						},
						{
							"internalType": "address",
							"name": "hubContractAddress",
							"type": "address"
						}
					],
					"stateMutability": "nonpayable",
					"type": "constructor"
				},
				{
					"inputs": [
						{
							"internalType": "address",
							"name": "target",
							"type": "address"
						}
					],
					"name": "AddressEmptyCode",
					"type": "error"
				},
				{
					"inputs": [
						{
							"internalType": "address",
							"name": "account",
							"type": "address"
						}
					],
					"name": "AddressInsufficientBalance",
					"type": "error"
				},
				{
					"inputs": [],
					"name": "FailedInnerCall",
					"type": "error"
				},
				{
					"inputs": [
						{
							"internalType": "address",
							"name": "token",
							"type": "address"
						}
					],
					"name": "SafeERC20FailedOperation",
					"type": "error"
				},
				{
					"inputs": [
						{
							"internalType": "address",
							"name": "assetAddress",
							"type": "address"
						},
						{
							"internalType": "uint256",
							"name": "assetAmount",
							"type": "uint256"
						}
					],
					"name": "borrow",
					"outputs": [
						{
							"internalType": "uint64",
							"name": "sequence",
							"type": "uint64"
						}
					],
					"stateMutability": "nonpayable",
					"type": "function"
				},
				{
					"inputs": [],
					"name": "chainId",
					"outputs": [
						{
							"internalType": "uint16",
							"name": "",
							"type": "uint16"
						}
					],
					"stateMutability": "view",
					"type": "function"
				},
				{
					"inputs": [
						{
							"internalType": "address",
							"name": "assetAddress",
							"type": "address"
						},
						{
							"internalType": "uint256",
							"name": "assetAmount",
							"type": "uint256"
						}
					],
					"name": "depositCollateral",
					"outputs": [
						{
							"internalType": "uint64",
							"name": "sequence",
							"type": "uint64"
						}
					],
					"stateMutability": "nonpayable",
					"type": "function"
				},
				{
					"inputs": [],
					"name": "depositCollateralNative",
					"outputs": [
						{
							"internalType": "uint64",
							"name": "sequence",
							"type": "uint64"
						}
					],
					"stateMutability": "payable",
					"type": "function"
				},
				{
					"inputs": [
						{
							"internalType": "address",
							"name": "assetAddress",
							"type": "address"
						},
						{
							"internalType": "uint256",
							"name": "assetAmount",
							"type": "uint256"
						}
					],
					"name": "repay",
					"outputs": [
						{
							"internalType": "uint64",
							"name": "sequence",
							"type": "uint64"
						}
					],
					"stateMutability": "nonpayable",
					"type": "function"
				},
				{
					"inputs": [],
					"name": "repayNative",
					"outputs": [
						{
							"internalType": "uint64",
							"name": "sequence",
							"type": "uint64"
						}
					],
					"stateMutability": "payable",
					"type": "function"
				},
				{
					"inputs": [],
					"name": "tokenBridge",
					"outputs": [
						{
							"internalType": "contract ITokenBridge",
							"name": "",
							"type": "address"
						}
					],
					"stateMutability": "view",
					"type": "function"
				},
				{
					"inputs": [],
					"name": "tokenBridgeAddress",
					"outputs": [
						{
							"internalType": "address",
							"name": "",
							"type": "address"
						}
					],
					"stateMutability": "view",
					"type": "function"
				},
				{
					"inputs": [
						{
							"internalType": "address",
							"name": "assetAddress",
							"type": "address"
						},
						{
							"internalType": "uint256",
							"name": "assetAmount",
							"type": "uint256"
						}
					],
					"name": "withdrawCollateral",
					"outputs": [
						{
							"internalType": "uint64",
							"name": "sequence",
							"type": "uint64"
						}
					],
					"stateMutability": "nonpayable",
					"type": "function"
				}
			],
			"devdoc": {
				"errors": {
					"AddressEmptyCode(address)": [
						{
							"details": "There's no code at `target` (it is not a contract)."
						}
					],
					"AddressInsufficientBalance(address)": [
						{
							"details": "The ETH balance of the account is not enough to perform the operation."
						}
					],
					"FailedInnerCall()": [
						{
							"details": "A call to an address target failed. The target may have reverted."
						}
					],
					"SafeERC20FailedOperation(address)": [
						{
							"details": "An operation with an ERC20 token failed."
						}
					]
				},
				"kind": "dev",
				"methods": {
					"constructor": {
						"params": {
							"chainId": ": Chain ID of the chain that this Spoke is deployed on",
							"hubChainId": ": Chain ID of the Hub",
							"hubContractAddress": ": Contract address of the Hub contract (on the Hub chain)",
							"tokenBridge": ": Address of the TokenBridge contract on this Spoke chain",
							"wormhole": ": Address of the Wormhole contract on this Spoke chain"
						}
					}
				},
				"version": 1
			},
			"evm": {
				"assembly": "    /* \"example-2/evm/src/contracts/lendingSpoke/Spoke.sol\":264:3862  contract Spoke is HubSpokeStructs, HubSpokeMessages, SpokeGetters, SpokeSetters, SpokeUtilities {... */\n  mstore(0x40, 0x80)\n    /* \"example-2/evm/src/contracts/lendingSpoke/Spoke.sol\":843:1193  constructor(... */\n  callvalue\n  dup1\n  iszero\n  tag_1\n  jumpi\n  0x00\n  dup1\n  revert\ntag_1:\n  pop\n  mload(0x40)\n  sub(codesize, bytecodeSize)\n  dup1\n  bytecodeSize\n  dup4\n  codecopy\n  dup2\n  add\n  0x40\n  dup2\n  swap1\n  mstore\n  tag_2\n  swap2\n  tag_3\n  jump\t// in\ntag_2:\n    /* \"example-2/evm/src/contracts/lendingSpoke/SpokeSetters.sol\":239:245  _state */\n  0x00\n    /* \"example-2/evm/src/contracts/lendingSpoke/SpokeSetters.sol\":239:272  _state.provider.chainId = chainId */\n  dup1\n  sload\n  not(0xffff)\n  and\n  0xffff\n  dup8\n  and\n  or\n  swap1\n  sstore\n    /* \"example-2/evm/src/contracts/lendingSpoke/SpokeSetters.sol\":350:356  _state */\n  0x00\n    /* \"example-2/evm/src/contracts/lendingSpoke/SpokeSetters.sol\":350:401  _state.provider.wormhole = payable(wormholeAddress) */\n  dup1\n  sload\n  not(sub(shl(0xb0, 0x01), 0x010000))\n  and\n  0x010000\n  sub(shl(0xa0, 0x01), 0x01)\n  dup8\n  and\n  mul\n  or\n  swap1\n  sstore\n    /* \"example-2/evm/src/contracts/lendingSpoke/SpokeSetters.sol\":485:512  _state.provider.tokenBridge */\n  0x01\n    /* \"example-2/evm/src/contracts/lendingSpoke/SpokeSetters.sol\":485:533  _state.provider.tokenBridge = tokenBridgeAddress */\n  dup1\n  sload\n  not(sub(shl(0xa0, 0x01), 0x01))\n  and\n  sub(shl(0xa0, 0x01), 0x01)\n  dup6\n  and\n  or\n  swap1\n  sstore\n    /* \"example-2/evm/src/contracts/lendingSpoke/SpokeSetters.sol\":607:624  _state.hubChainId */\n  0x02\n    /* \"example-2/evm/src/contracts/lendingSpoke/SpokeSetters.sol\":607:637  _state.hubChainId = hubChainId */\n  dup1\n  sload\n  not(0xffff00)\n  and\n  0x0100\n  0xffff\n  dup6\n  and\n  mul\n  or\n  swap1\n  sstore\n    /* \"example-2/evm/src/contracts/lendingSpoke/SpokeSetters.sol\":728:753  _state.hubContractAddress */\n  0x02\n    /* \"example-2/evm/src/contracts/lendingSpoke/SpokeSetters.sol\":728:774  _state.hubContractAddress = hubContractAddress */\n  dup1\n  sload\n  not(sub(shl(0xb8, 0x01), 0x01000000))\n  and\n  0x01000000\n  sub(shl(0xa0, 0x01), 0x01)\n  dup5\n  and\n  mul\n  or\n  swap1\n  sstore\n    /* \"example-2/evm/src/contracts/lendingSpoke/Spoke.sol\":843:1193  constructor(... */\n  pop\n  pop\n  pop\n  pop\n  pop\n    /* \"example-2/evm/src/contracts/lendingSpoke/Spoke.sol\":264:3862  contract Spoke is HubSpokeStructs, HubSpokeMessages, SpokeGetters, SpokeSetters, SpokeUtilities {... */\n  jump(tag_24)\n    /* \"#utility.yul\":14:177   */\ntag_22:\n    /* \"#utility.yul\":92:105   */\n  dup1\n  mload\n    /* \"#utility.yul\":145:151   */\n  0xffff\n    /* \"#utility.yul\":134:152   */\n  dup2\n  and\n    /* \"#utility.yul\":124:153   */\n  dup2\n  eq\n    /* \"#utility.yul\":114:171   */\n  tag_26\n  jumpi\n    /* \"#utility.yul\":167:168   */\n  0x00\n    /* \"#utility.yul\":164:165   */\n  dup1\n    /* \"#utility.yul\":157:169   */\n  revert\n    /* \"#utility.yul\":114:171   */\ntag_26:\n    /* \"#utility.yul\":14:177   */\n  swap2\n  swap1\n  pop\n  jump\t// out\n    /* \"#utility.yul\":182:359   */\ntag_23:\n    /* \"#utility.yul\":261:274   */\n  dup1\n  mload\n  sub(shl(0xa0, 0x01), 0x01)\n    /* \"#utility.yul\":303:334   */\n  dup2\n  and\n    /* \"#utility.yul\":293:335   */\n  dup2\n  eq\n    /* \"#utility.yul\":283:353   */\n  tag_26\n  jumpi\n    /* \"#utility.yul\":349:350   */\n  0x00\n    /* \"#utility.yul\":346:347   */\n  dup1\n    /* \"#utility.yul\":339:351   */\n  revert\n    /* \"#utility.yul\":364:910   */\ntag_3:\n    /* \"#utility.yul\":468:474   */\n  0x00\n    /* \"#utility.yul\":476:482   */\n  dup1\n    /* \"#utility.yul\":484:490   */\n  0x00\n    /* \"#utility.yul\":492:498   */\n  dup1\n    /* \"#utility.yul\":500:506   */\n  0x00\n    /* \"#utility.yul\":553:556   */\n  0xa0\n    /* \"#utility.yul\":541:550   */\n  dup7\n    /* \"#utility.yul\":532:539   */\n  dup9\n    /* \"#utility.yul\":528:551   */\n  sub\n    /* \"#utility.yul\":524:557   */\n  slt\n    /* \"#utility.yul\":521:574   */\n  iszero\n  tag_30\n  jumpi\n    /* \"#utility.yul\":570:571   */\n  0x00\n    /* \"#utility.yul\":567:568   */\n  dup1\n    /* \"#utility.yul\":560:572   */\n  revert\n    /* \"#utility.yul\":521:574   */\ntag_30:\n    /* \"#utility.yul\":593:632   */\n  tag_31\n    /* \"#utility.yul\":622:631   */\n  dup7\n    /* \"#utility.yul\":593:632   */\n  tag_22\n  jump\t// in\ntag_31:\n    /* \"#utility.yul\":583:632   */\n  swap5\n  pop\n    /* \"#utility.yul\":651:700   */\n  tag_32\n    /* \"#utility.yul\":696:698   */\n  0x20\n    /* \"#utility.yul\":685:694   */\n  dup8\n    /* \"#utility.yul\":681:699   */\n  add\n    /* \"#utility.yul\":651:700   */\n  tag_23\n  jump\t// in\ntag_32:\n    /* \"#utility.yul\":641:700   */\n  swap4\n  pop\n    /* \"#utility.yul\":719:768   */\n  tag_33\n    /* \"#utility.yul\":764:766   */\n  0x40\n    /* \"#utility.yul\":753:762   */\n  dup8\n    /* \"#utility.yul\":749:767   */\n  add\n    /* \"#utility.yul\":719:768   */\n  tag_23\n  jump\t// in\ntag_33:\n    /* \"#utility.yul\":709:768   */\n  swap3\n  pop\n    /* \"#utility.yul\":787:835   */\n  tag_34\n    /* \"#utility.yul\":831:833   */\n  0x60\n    /* \"#utility.yul\":820:829   */\n  dup8\n    /* \"#utility.yul\":816:834   */\n  add\n    /* \"#utility.yul\":787:835   */\n  tag_22\n  jump\t// in\ntag_34:\n    /* \"#utility.yul\":777:835   */\n  swap2\n  pop\n    /* \"#utility.yul\":854:904   */\n  tag_35\n    /* \"#utility.yul\":899:902   */\n  0x80\n    /* \"#utility.yul\":888:897   */\n  dup8\n    /* \"#utility.yul\":884:903   */\n  add\n    /* \"#utility.yul\":854:904   */\n  tag_23\n  jump\t// in\ntag_35:\n    /* \"#utility.yul\":844:904   */\n  swap1\n  pop\n    /* \"#utility.yul\":364:910   */\n  swap3\n  swap6\n  pop\n  swap3\n  swap6\n  swap1\n  swap4\n  pop\n  jump\t// out\ntag_24:\n    /* \"example-2/evm/src/contracts/lendingSpoke/Spoke.sol\":264:3862  contract Spoke is HubSpokeStructs, HubSpokeMessages, SpokeGetters, SpokeSetters, SpokeUtilities {... */\n  dataSize(sub_0)\n  dup1\n  dataOffset(sub_0)\n  0x00\n  codecopy\n  0x00\n  return\nstop\n\nsub_0: assembly {\n        /* \"example-2/evm/src/contracts/lendingSpoke/Spoke.sol\":264:3862  contract Spoke is HubSpokeStructs, HubSpokeMessages, SpokeGetters, SpokeSetters, SpokeUtilities {... */\n      mstore(0x40, 0x80)\n      jumpi(tag_1, lt(calldatasize, 0x04))\n      shr(0xe0, calldataload(0x00))\n      dup1\n      0x9a8a0592\n      gt\n      tag_11\n      jumpi\n      dup1\n      0x9a8a0592\n      eq\n      tag_6\n      jumpi\n      dup1\n      0xa5d5db0c\n      eq\n      tag_7\n      jumpi\n      dup1\n      0xc6328a46\n      eq\n      tag_8\n      jumpi\n      dup1\n      0xe1884919\n      eq\n      tag_8\n      jumpi\n      dup1\n      0xedba8209\n      eq\n      tag_10\n      jumpi\n      0x00\n      dup1\n      revert\n    tag_11:\n      dup1\n      0x470257\n      eq\n      tag_2\n      jumpi\n      dup1\n      0x22867d78\n      eq\n      tag_3\n      jumpi\n      dup1\n      0x350c35e9\n      eq\n      tag_4\n      jumpi\n      dup1\n      0x4b8a3529\n      eq\n      tag_5\n      jumpi\n    tag_1:\n      0x00\n      dup1\n      revert\n        /* \"example-2/evm/src/contracts/lendingSpoke/Spoke.sol\":1927:2129  function depositCollateralNative() public payable returns (uint64 sequence) {... */\n    tag_2:\n      tag_12\n      tag_13\n      jump\t// in\n    tag_12:\n      mload(0x40)\n        /* \"#utility.yul\":188:206   */\n      0xffffffffffffffff\n        /* \"#utility.yul\":176:207   */\n      swap1\n      swap2\n      and\n        /* \"#utility.yul\":158:208   */\n      dup2\n      mstore\n        /* \"#utility.yul\":146:148   */\n      0x20\n        /* \"#utility.yul\":131:149   */\n      add\n        /* \"example-2/evm/src/contracts/lendingSpoke/Spoke.sol\":1927:2129  function depositCollateralNative() public payable returns (uint64 sequence) {... */\n    tag_14:\n      mload(0x40)\n      dup1\n      swap2\n      sub\n      swap1\n      return\n        /* \"example-2/evm/src/contracts/lendingSpoke/Spoke.sol\":1753:1921  function repay(address assetAddress, uint256 assetAmount) public returns (uint64 sequence) {... */\n    tag_3:\n      callvalue\n      dup1\n      iszero\n      tag_16\n      jumpi\n      0x00\n      dup1\n      revert\n    tag_16:\n      pop\n      tag_12\n      tag_18\n      calldatasize\n      0x04\n      tag_19\n      jump\t// in\n    tag_18:\n      tag_20\n      jump\t// in\n        /* \"example-2/evm/src/contracts/lendingSpoke/Spoke.sol\":1387:1571  function withdrawCollateral(address assetAddress, uint256 assetAmount) public returns (uint64 sequence) {... */\n    tag_4:\n      callvalue\n      dup1\n      iszero\n      tag_22\n      jumpi\n      0x00\n      dup1\n      revert\n    tag_22:\n      pop\n      tag_12\n      tag_24\n      calldatasize\n      0x04\n      tag_19\n      jump\t// in\n    tag_24:\n      tag_25\n      jump\t// in\n        /* \"example-2/evm/src/contracts/lendingSpoke/Spoke.sol\":1577:1747  function borrow(address assetAddress, uint256 assetAmount) public returns (uint64 sequence) {... */\n    tag_5:\n      callvalue\n      dup1\n      iszero\n      tag_27\n      jumpi\n      0x00\n      dup1\n      revert\n    tag_27:\n      pop\n      tag_12\n      tag_29\n      calldatasize\n      0x04\n      tag_19\n      jump\t// in\n    tag_29:\n      tag_30\n      jump\t// in\n        /* \"example-2/evm/src/contracts/lendingSpoke/SpokeGetters.sol\":269:364  function chainId() public view returns (uint16) {... */\n    tag_6:\n      callvalue\n      dup1\n      iszero\n      tag_32\n      jumpi\n      0x00\n      dup1\n      revert\n    tag_32:\n      pop\n        /* \"example-2/evm/src/contracts/lendingSpoke/SpokeGetters.sol\":309:315  uint16 */\n      0x00\n        /* \"example-2/evm/src/contracts/lendingSpoke/SpokeGetters.sol\":334:357  _state.provider.chainId */\n      sload\n        /* \"example-2/evm/src/contracts/lendingSpoke/SpokeGetters.sol\":269:364  function chainId() public view returns (uint16) {... */\n      mload(0x40)\n        /* \"example-2/evm/src/contracts/lendingSpoke/SpokeGetters.sol\":334:357  _state.provider.chainId */\n      0xffff\n      swap1\n      swap2\n      and\n        /* \"#utility.yul\":819:857   */\n      dup2\n      mstore\n        /* \"#utility.yul\":807:809   */\n      0x20\n        /* \"#utility.yul\":792:810   */\n      add\n        /* \"example-2/evm/src/contracts/lendingSpoke/SpokeGetters.sol\":269:364  function chainId() public view returns (uint16) {... */\n      tag_14\n        /* \"#utility.yul\":675:863   */\n      jump\n        /* \"example-2/evm/src/contracts/lendingSpoke/Spoke.sol\":1199:1381  function depositCollateral(address assetAddress, uint256 assetAmount) public returns (uint64 sequence) {... */\n    tag_7:\n      callvalue\n      dup1\n      iszero\n      tag_37\n      jumpi\n      0x00\n      dup1\n      revert\n    tag_37:\n      pop\n      tag_12\n      tag_39\n      calldatasize\n      0x04\n      tag_19\n      jump\t// in\n    tag_39:\n      tag_40\n      jump\t// in\n        /* \"example-2/evm/src/contracts/lendingSpoke/SpokeGetters.sol\":489:621  function tokenBridge() public view returns (ITokenBridge) {... */\n    tag_8:\n      callvalue\n      dup1\n      iszero\n      tag_42\n      jumpi\n      0x00\n      dup1\n      revert\n    tag_42:\n      pop\n        /* \"example-2/evm/src/contracts/lendingSpoke/SpokeGetters.sol\":585:612  _state.provider.tokenBridge */\n      sload(0x01)\n        /* \"example-2/evm/src/contracts/lendingSpoke/SpokeGetters.sol\":489:621  function tokenBridge() public view returns (ITokenBridge) {... */\n      mload(0x40)\n      sub(shl(0xa0, 0x01), 0x01)\n        /* \"example-2/evm/src/contracts/lendingSpoke/SpokeGetters.sol\":585:612  _state.provider.tokenBridge */\n      swap1\n      swap2\n      and\n        /* \"#utility.yul\":1035:1086   */\n      dup2\n      mstore\n        /* \"#utility.yul\":1023:1025   */\n      0x20\n        /* \"#utility.yul\":1008:1026   */\n      add\n        /* \"example-2/evm/src/contracts/lendingSpoke/SpokeGetters.sol\":489:621  function tokenBridge() public view returns (ITokenBridge) {... */\n      tag_14\n        /* \"#utility.yul\":868:1092   */\n      jump\n        /* \"example-2/evm/src/contracts/lendingSpoke/Spoke.sol\":2135:2323  function repayNative() public payable returns (uint64 sequence) {... */\n    tag_10:\n      tag_12\n      tag_53\n      jump\t// in\n        /* \"example-2/evm/src/contracts/lendingSpoke/Spoke.sol\":1927:2129  function depositCollateralNative() public payable returns (uint64 sequence) {... */\n    tag_13:\n        /* \"example-2/evm/src/contracts/lendingSpoke/Spoke.sol\":1986:2001  uint64 sequence */\n      0x00\n        /* \"example-2/evm/src/contracts/lendingSpoke/Spoke.sol\":2024:2122  doAction(Action.DepositNative, address(tokenBridge().WETH()), msg.value - wormhole().messageFee()) */\n      tag_56\n        /* \"example-2/evm/src/contracts/lendingSpoke/Spoke.sol\":2033:2053  Action.DepositNative */\n      0x04\n        /* \"example-2/evm/src/contracts/lendingSpoke/Spoke.sol\":2063:2076  tokenBridge() */\n      tag_57\n        /* \"example-2/evm/src/contracts/lendingSpoke/SpokeGetters.sol\":585:612  _state.provider.tokenBridge */\n      and(sub(shl(0xa0, 0x01), 0x01), sload(0x01))\n      swap1\n        /* \"example-2/evm/src/contracts/lendingSpoke/SpokeGetters.sol\":489:621  function tokenBridge() public view returns (ITokenBridge) {... */\n      jump\n        /* \"example-2/evm/src/contracts/lendingSpoke/Spoke.sol\":2063:2076  tokenBridge() */\n    tag_57:\n      sub(shl(0xa0, 0x01), 0x01)\n        /* \"example-2/evm/src/contracts/lendingSpoke/Spoke.sol\":2063:2081  tokenBridge().WETH */\n      and\n      0xad5c4648\n        /* \"example-2/evm/src/contracts/lendingSpoke/Spoke.sol\":2063:2083  tokenBridge().WETH() */\n      mload(0x40)\n      dup2\n      0xffffffff\n      and\n      0xe0\n      shl\n      dup2\n      mstore\n      0x04\n      add\n      0x20\n      mload(0x40)\n      dup1\n      dup4\n      sub\n      dup2\n      dup7\n      gas\n      staticcall\n      iszero\n      dup1\n      iszero\n      tag_59\n      jumpi\n      returndatasize\n      0x00\n      dup1\n      returndatacopy\n      revert(0x00, returndatasize)\n    tag_59:\n      pop\n      pop\n      pop\n      pop\n      mload(0x40)\n      returndatasize\n      not(0x1f)\n      0x1f\n      dup3\n      add\n      and\n      dup3\n      add\n      dup1\n      0x40\n      mstore\n      pop\n      dup2\n      add\n      swap1\n      tag_60\n      swap2\n      swap1\n      tag_61\n      jump\t// in\n    tag_60:\n        /* \"example-2/evm/src/contracts/lendingSpoke/SpokeGetters.sol\":413:422  IWormhole */\n      0x00\n        /* \"example-2/evm/src/contracts/lendingSpoke/SpokeGetters.sol\":451:475  _state.provider.wormhole */\n      sload\n      0x010000\n      swap1\n      div\n      sub(shl(0xa0, 0x01), 0x01)\n      and\n      sub(shl(0xa0, 0x01), 0x01)\n        /* \"example-2/evm/src/contracts/lendingSpoke/Spoke.sol\":2098:2119  wormhole().messageFee */\n      and\n      0x1a90a219\n        /* \"example-2/evm/src/contracts/lendingSpoke/Spoke.sol\":2098:2121  wormhole().messageFee() */\n      mload(0x40)\n      dup2\n      0xffffffff\n      and\n      0xe0\n      shl\n      dup2\n      mstore\n      0x04\n      add\n      0x20\n      mload(0x40)\n      dup1\n      dup4\n      sub\n      dup2\n      dup7\n      gas\n      staticcall\n      iszero\n      dup1\n      iszero\n      tag_65\n      jumpi\n      returndatasize\n      0x00\n      dup1\n      returndatacopy\n      revert(0x00, returndatasize)\n    tag_65:\n      pop\n      pop\n      pop\n      pop\n      mload(0x40)\n      returndatasize\n      not(0x1f)\n      0x1f\n      dup3\n      add\n      and\n      dup3\n      add\n      dup1\n      0x40\n      mstore\n      pop\n      dup2\n      add\n      swap1\n      tag_66\n      swap2\n      swap1\n      tag_67\n      jump\t// in\n    tag_66:\n        /* \"example-2/evm/src/contracts/lendingSpoke/Spoke.sol\":2086:2121  msg.value - wormhole().messageFee() */\n      tag_68\n      swap1\n        /* \"example-2/evm/src/contracts/lendingSpoke/Spoke.sol\":2086:2095  msg.value */\n      callvalue\n        /* \"example-2/evm/src/contracts/lendingSpoke/Spoke.sol\":2086:2121  msg.value - wormhole().messageFee() */\n      tag_69\n      jump\t// in\n    tag_68:\n        /* \"example-2/evm/src/contracts/lendingSpoke/Spoke.sol\":2024:2032  doAction */\n      tag_70\n        /* \"example-2/evm/src/contracts/lendingSpoke/Spoke.sol\":2024:2122  doAction(Action.DepositNative, address(tokenBridge().WETH()), msg.value - wormhole().messageFee()) */\n      jump\t// in\n    tag_56:\n        /* \"example-2/evm/src/contracts/lendingSpoke/Spoke.sol\":2013:2122  sequence = doAction(Action.DepositNative, address(tokenBridge().WETH()), msg.value - wormhole().messageFee()) */\n      swap1\n      pop\n        /* \"example-2/evm/src/contracts/lendingSpoke/Spoke.sol\":1927:2129  function depositCollateralNative() public payable returns (uint64 sequence) {... */\n      swap1\n      jump\t// out\n        /* \"example-2/evm/src/contracts/lendingSpoke/Spoke.sol\":1753:1921  function repay(address assetAddress, uint256 assetAmount) public returns (uint64 sequence) {... */\n    tag_20:\n        /* \"example-2/evm/src/contracts/lendingSpoke/Spoke.sol\":1827:1842  uint64 sequence */\n      0x00\n        /* \"example-2/evm/src/contracts/lendingSpoke/Spoke.sol\":1865:1914  doAction(Action.Repay, assetAddress, assetAmount) */\n      tag_72\n        /* \"example-2/evm/src/contracts/lendingSpoke/Spoke.sol\":1874:1886  Action.Repay */\n      0x03\n        /* \"example-2/evm/src/contracts/lendingSpoke/Spoke.sol\":1888:1900  assetAddress */\n      dup5\n        /* \"example-2/evm/src/contracts/lendingSpoke/Spoke.sol\":1902:1913  assetAmount */\n      dup5\n        /* \"example-2/evm/src/contracts/lendingSpoke/Spoke.sol\":1865:1873  doAction */\n      tag_70\n        /* \"example-2/evm/src/contracts/lendingSpoke/Spoke.sol\":1865:1914  doAction(Action.Repay, assetAddress, assetAmount) */\n      jump\t// in\n    tag_72:\n        /* \"example-2/evm/src/contracts/lendingSpoke/Spoke.sol\":1854:1914  sequence = doAction(Action.Repay, assetAddress, assetAmount) */\n      swap4\n        /* \"example-2/evm/src/contracts/lendingSpoke/Spoke.sol\":1753:1921  function repay(address assetAddress, uint256 assetAmount) public returns (uint64 sequence) {... */\n      swap3\n      pop\n      pop\n      pop\n      jump\t// out\n        /* \"example-2/evm/src/contracts/lendingSpoke/Spoke.sol\":1387:1571  function withdrawCollateral(address assetAddress, uint256 assetAmount) public returns (uint64 sequence) {... */\n    tag_25:\n        /* \"example-2/evm/src/contracts/lendingSpoke/Spoke.sol\":1474:1489  uint64 sequence */\n      0x00\n        /* \"example-2/evm/src/contracts/lendingSpoke/Spoke.sol\":1512:1564  doAction(Action.Withdraw, assetAddress, assetAmount) */\n      tag_72\n        /* \"example-2/evm/src/contracts/lendingSpoke/Spoke.sol\":1521:1536  Action.Withdraw */\n      0x02\n        /* \"example-2/evm/src/contracts/lendingSpoke/Spoke.sol\":1538:1550  assetAddress */\n      dup5\n        /* \"example-2/evm/src/contracts/lendingSpoke/Spoke.sol\":1552:1563  assetAmount */\n      dup5\n        /* \"example-2/evm/src/contracts/lendingSpoke/Spoke.sol\":1512:1520  doAction */\n      tag_70\n        /* \"example-2/evm/src/contracts/lendingSpoke/Spoke.sol\":1512:1564  doAction(Action.Withdraw, assetAddress, assetAmount) */\n      jump\t// in\n        /* \"example-2/evm/src/contracts/lendingSpoke/Spoke.sol\":1577:1747  function borrow(address assetAddress, uint256 assetAmount) public returns (uint64 sequence) {... */\n    tag_30:\n        /* \"example-2/evm/src/contracts/lendingSpoke/Spoke.sol\":1652:1667  uint64 sequence */\n      0x00\n        /* \"example-2/evm/src/contracts/lendingSpoke/Spoke.sol\":1690:1740  doAction(Action.Borrow, assetAddress, assetAmount) */\n      tag_72\n        /* \"example-2/evm/src/contracts/lendingSpoke/Spoke.sol\":1699:1712  Action.Borrow */\n      0x01\n        /* \"example-2/evm/src/contracts/lendingSpoke/Spoke.sol\":1714:1726  assetAddress */\n      dup5\n        /* \"example-2/evm/src/contracts/lendingSpoke/Spoke.sol\":1728:1739  assetAmount */\n      dup5\n        /* \"example-2/evm/src/contracts/lendingSpoke/Spoke.sol\":1690:1698  doAction */\n      tag_70\n        /* \"example-2/evm/src/contracts/lendingSpoke/Spoke.sol\":1690:1740  doAction(Action.Borrow, assetAddress, assetAmount) */\n      jump\t// in\n        /* \"example-2/evm/src/contracts/lendingSpoke/Spoke.sol\":1199:1381  function depositCollateral(address assetAddress, uint256 assetAmount) public returns (uint64 sequence) {... */\n    tag_40:\n        /* \"example-2/evm/src/contracts/lendingSpoke/Spoke.sol\":1285:1300  uint64 sequence */\n      0x00\n        /* \"example-2/evm/src/contracts/lendingSpoke/Spoke.sol\":1323:1374  doAction(Action.Deposit, assetAddress, assetAmount) */\n      tag_72\n        /* \"example-2/evm/src/contracts/lendingSpoke/Spoke.sol\":1332:1346  Action.Deposit */\n      0x00\n        /* \"example-2/evm/src/contracts/lendingSpoke/Spoke.sol\":1348:1360  assetAddress */\n      dup5\n        /* \"example-2/evm/src/contracts/lendingSpoke/Spoke.sol\":1362:1373  assetAmount */\n      dup5\n        /* \"example-2/evm/src/contracts/lendingSpoke/Spoke.sol\":1323:1331  doAction */\n      tag_70\n        /* \"example-2/evm/src/contracts/lendingSpoke/Spoke.sol\":1323:1374  doAction(Action.Deposit, assetAddress, assetAmount) */\n      jump\t// in\n        /* \"example-2/evm/src/contracts/lendingSpoke/Spoke.sol\":2135:2323  function repayNative() public payable returns (uint64 sequence) {... */\n    tag_53:\n        /* \"example-2/evm/src/contracts/lendingSpoke/Spoke.sol\":2182:2197  uint64 sequence */\n      0x00\n        /* \"example-2/evm/src/contracts/lendingSpoke/Spoke.sol\":2220:2316  doAction(Action.RepayNative, address(tokenBridge().WETH()), msg.value - wormhole().messageFee()) */\n      tag_56\n        /* \"example-2/evm/src/contracts/lendingSpoke/Spoke.sol\":2229:2247  Action.RepayNative */\n      0x05\n        /* \"example-2/evm/src/contracts/lendingSpoke/Spoke.sol\":2257:2270  tokenBridge() */\n      tag_57\n        /* \"example-2/evm/src/contracts/lendingSpoke/SpokeGetters.sol\":585:612  _state.provider.tokenBridge */\n      and(sub(shl(0xa0, 0x01), 0x01), sload(0x01))\n      swap1\n        /* \"example-2/evm/src/contracts/lendingSpoke/SpokeGetters.sol\":489:621  function tokenBridge() public view returns (ITokenBridge) {... */\n      jump\n        /* \"example-2/evm/src/contracts/lendingSpoke/Spoke.sol\":2735:3860  function doAction(Action action, address assetAddress, uint256 assetAmount) internal returns (uint64 sequence) {... */\n    tag_70:\n        /* \"example-2/evm/src/contracts/lendingSpoke/Spoke.sol\":2829:2844  uint64 sequence */\n      0x00\n        /* \"example-2/evm/src/contracts/lendingSpoke/Spoke.sol\":2856:2920  requireAssetAmountValidForTokenBridge(assetAddress, assetAmount) */\n      tag_95\n        /* \"example-2/evm/src/contracts/lendingSpoke/Spoke.sol\":2894:2906  assetAddress */\n      dup4\n        /* \"example-2/evm/src/contracts/lendingSpoke/Spoke.sol\":2908:2919  assetAmount */\n      dup4\n        /* \"example-2/evm/src/contracts/lendingSpoke/Spoke.sol\":2856:2893  requireAssetAmountValidForTokenBridge */\n      tag_96\n        /* \"example-2/evm/src/contracts/lendingSpoke/Spoke.sol\":2856:2920  requireAssetAmountValidForTokenBridge(assetAddress, assetAmount) */\n      jump\t// in\n    tag_95:\n        /* \"example-2/evm/src/contracts/lendingSpoke/Spoke.sol\":2949:2955  action */\n      dup4\n        /* \"example-2/evm/src/contracts/lendingSpoke/Spoke.sol\":2979:2999  Action.DepositNative */\n      0x04\n        /* \"example-2/evm/src/contracts/lendingSpoke/Spoke.sol\":2969:2975  action */\n      dup6\n        /* \"example-2/evm/src/contracts/lendingSpoke/Spoke.sol\":2969:2999  action == Action.DepositNative */\n      0x05\n      dup2\n      gt\n      iszero\n      tag_101\n      jumpi\n      tag_101\n      tag_99\n      jump\t// in\n    tag_101:\n      sub\n        /* \"example-2/evm/src/contracts/lendingSpoke/Spoke.sol\":2965:3052  if (action == Action.DepositNative) {... */\n      tag_102\n      jumpi\n      pop\n        /* \"example-2/evm/src/contracts/lendingSpoke/Spoke.sol\":3027:3041  Action.Deposit */\n      0x00\n        /* \"example-2/evm/src/contracts/lendingSpoke/Spoke.sol\":2965:3052  if (action == Action.DepositNative) {... */\n    tag_102:\n        /* \"example-2/evm/src/contracts/lendingSpoke/Spoke.sol\":3075:3093  Action.RepayNative */\n      0x05\n        /* \"example-2/evm/src/contracts/lendingSpoke/Spoke.sol\":3065:3071  action */\n      dup6\n        /* \"example-2/evm/src/contracts/lendingSpoke/Spoke.sol\":3065:3093  action == Action.RepayNative */\n      0x05\n      dup2\n      gt\n      iszero\n      tag_106\n      jumpi\n      tag_106\n      tag_99\n      jump\t// in\n    tag_106:\n      sub\n        /* \"example-2/evm/src/contracts/lendingSpoke/Spoke.sol\":3061:3144  if (action == Action.RepayNative) {... */\n      tag_107\n      jumpi\n      pop\n        /* \"example-2/evm/src/contracts/lendingSpoke/Spoke.sol\":3121:3133  Action.Repay */\n      0x03\n        /* \"example-2/evm/src/contracts/lendingSpoke/Spoke.sol\":3061:3144  if (action == Action.RepayNative) {... */\n    tag_107:\n        /* \"example-2/evm/src/contracts/lendingSpoke/Spoke.sol\":3154:3182  ActionPayload memory payload */\n      0x00\n        /* \"example-2/evm/src/contracts/lendingSpoke/Spoke.sol\":3197:3305  ActionPayload({action: hubAction, sender: msg.sender, assetAddress: assetAddress, assetAmount: assetAmount}) */\n      mload(0x40)\n      dup1\n      0x80\n      add\n      0x40\n      mstore\n      dup1\n        /* \"example-2/evm/src/contracts/lendingSpoke/Spoke.sol\":3220:3229  hubAction */\n      dup4\n        /* \"example-2/evm/src/contracts/lendingSpoke/Spoke.sol\":3197:3305  ActionPayload({action: hubAction, sender: msg.sender, assetAddress: assetAddress, assetAmount: assetAmount}) */\n      0x05\n      dup2\n      gt\n      iszero\n      tag_109\n      jumpi\n      tag_109\n      tag_99\n      jump\t// in\n    tag_109:\n      dup2\n      mstore\n        /* \"example-2/evm/src/contracts/lendingSpoke/Spoke.sol\":3239:3249  msg.sender */\n      caller\n        /* \"example-2/evm/src/contracts/lendingSpoke/Spoke.sol\":3197:3305  ActionPayload({action: hubAction, sender: msg.sender, assetAddress: assetAddress, assetAmount: assetAmount}) */\n      0x20\n      dup3\n      add\n      mstore\n      sub(shl(0xa0, 0x01), 0x01)\n      dup8\n      and\n      0x40\n      dup3\n      add\n      mstore\n      0x60\n      add\n      dup6\n      swap1\n      mstore\n        /* \"example-2/evm/src/contracts/lendingSpoke/Spoke.sol\":3154:3305  ActionPayload memory payload =... */\n      swap1\n      pop\n      0x00\n        /* \"example-2/evm/src/contracts/lendingSpoke/Spoke.sol\":3342:3370  encodeActionPayload(payload) */\n      tag_110\n        /* \"example-2/evm/src/contracts/lendingSpoke/Spoke.sol\":3154:3305  ActionPayload memory payload =... */\n      dup3\n        /* \"example-2/evm/src/contracts/lendingSpoke/Spoke.sol\":3342:3361  encodeActionPayload */\n      tag_111\n        /* \"example-2/evm/src/contracts/lendingSpoke/Spoke.sol\":3342:3370  encodeActionPayload(payload) */\n      jump\t// in\n    tag_110:\n        /* \"example-2/evm/src/contracts/lendingSpoke/Spoke.sol\":3316:3370  bytes memory serialized = encodeActionPayload(payload) */\n      swap1\n      pop\n        /* \"example-2/evm/src/contracts/lendingSpoke/Spoke.sol\":3395:3409  Action.Deposit */\n      0x00\n        /* \"example-2/evm/src/contracts/lendingSpoke/Spoke.sol\":3385:3391  action */\n      dup8\n        /* \"example-2/evm/src/contracts/lendingSpoke/Spoke.sol\":3385:3409  action == Action.Deposit */\n      0x05\n      dup2\n      gt\n      iszero\n      tag_115\n      jumpi\n      tag_115\n      tag_99\n      jump\t// in\n    tag_115:\n      eq\n        /* \"example-2/evm/src/contracts/lendingSpoke/Spoke.sol\":3385:3435  action == Action.Deposit || action == Action.Repay */\n      dup1\n      tag_116\n      jumpi\n      pop\n        /* \"example-2/evm/src/contracts/lendingSpoke/Spoke.sol\":3423:3435  Action.Repay */\n      0x03\n        /* \"example-2/evm/src/contracts/lendingSpoke/Spoke.sol\":3413:3419  action */\n      dup8\n        /* \"example-2/evm/src/contracts/lendingSpoke/Spoke.sol\":3413:3435  action == Action.Repay */\n      0x05\n      dup2\n      gt\n      iszero\n      tag_120\n      jumpi\n      tag_120\n      tag_99\n      jump\t// in\n    tag_120:\n      eq\n        /* \"example-2/evm/src/contracts/lendingSpoke/Spoke.sol\":3385:3435  action == Action.Deposit || action == Action.Repay */\n    tag_116:\n        /* \"example-2/evm/src/contracts/lendingSpoke/Spoke.sol\":3381:3854  if (action == Action.Deposit || action == Action.Repay) {... */\n      iszero\n      tag_121\n      jumpi\n        /* \"example-2/evm/src/contracts/lendingSpoke/Spoke.sol\":3462:3523  sendTokenBridgeMessage(assetAddress, assetAmount, serialized) */\n      tag_122\n        /* \"example-2/evm/src/contracts/lendingSpoke/Spoke.sol\":3485:3497  assetAddress */\n      dup7\n        /* \"example-2/evm/src/contracts/lendingSpoke/Spoke.sol\":3499:3510  assetAmount */\n      dup7\n        /* \"example-2/evm/src/contracts/lendingSpoke/Spoke.sol\":3512:3522  serialized */\n      dup4\n        /* \"example-2/evm/src/contracts/lendingSpoke/Spoke.sol\":3462:3484  sendTokenBridgeMessage */\n      tag_123\n        /* \"example-2/evm/src/contracts/lendingSpoke/Spoke.sol\":3462:3523  sendTokenBridgeMessage(assetAddress, assetAmount, serialized) */\n      jump\t// in\n    tag_122:\n        /* \"example-2/evm/src/contracts/lendingSpoke/Spoke.sol\":3451:3523  sequence = sendTokenBridgeMessage(assetAddress, assetAmount, serialized) */\n      swap4\n      pop\n        /* \"example-2/evm/src/contracts/lendingSpoke/Spoke.sol\":3381:3854  if (action == Action.Deposit || action == Action.Repay) {... */\n      jump(tag_147)\n    tag_121:\n        /* \"example-2/evm/src/contracts/lendingSpoke/Spoke.sol\":3554:3569  Action.Withdraw */\n      0x02\n        /* \"example-2/evm/src/contracts/lendingSpoke/Spoke.sol\":3544:3550  action */\n      dup8\n        /* \"example-2/evm/src/contracts/lendingSpoke/Spoke.sol\":3544:3569  action == Action.Withdraw */\n      0x05\n      dup2\n      gt\n      iszero\n      tag_128\n      jumpi\n      tag_128\n      tag_99\n      jump\t// in\n    tag_128:\n      eq\n        /* \"example-2/evm/src/contracts/lendingSpoke/Spoke.sol\":3544:3596  action == Action.Withdraw || action == Action.Borrow */\n      dup1\n      tag_129\n      jumpi\n      pop\n        /* \"example-2/evm/src/contracts/lendingSpoke/Spoke.sol\":3583:3596  Action.Borrow */\n      0x01\n        /* \"example-2/evm/src/contracts/lendingSpoke/Spoke.sol\":3573:3579  action */\n      dup8\n        /* \"example-2/evm/src/contracts/lendingSpoke/Spoke.sol\":3573:3596  action == Action.Borrow */\n      0x05\n      dup2\n      gt\n      iszero\n      tag_133\n      jumpi\n      tag_133\n      tag_99\n      jump\t// in\n    tag_133:\n      eq\n        /* \"example-2/evm/src/contracts/lendingSpoke/Spoke.sol\":3544:3596  action == Action.Withdraw || action == Action.Borrow */\n    tag_129:\n        /* \"example-2/evm/src/contracts/lendingSpoke/Spoke.sol\":3540:3854  if (action == Action.Withdraw || action == Action.Borrow) {... */\n      iszero\n      tag_134\n      jumpi\n        /* \"example-2/evm/src/contracts/lendingSpoke/Spoke.sol\":3623:3654  sendWormholeMessage(serialized) */\n      tag_122\n        /* \"example-2/evm/src/contracts/lendingSpoke/Spoke.sol\":3643:3653  serialized */\n      dup2\n        /* \"example-2/evm/src/contracts/lendingSpoke/Spoke.sol\":3623:3642  sendWormholeMessage */\n      tag_136\n        /* \"example-2/evm/src/contracts/lendingSpoke/Spoke.sol\":3623:3654  sendWormholeMessage(serialized) */\n      jump\t// in\n        /* \"example-2/evm/src/contracts/lendingSpoke/Spoke.sol\":3540:3854  if (action == Action.Withdraw || action == Action.Borrow) {... */\n    tag_134:\n        /* \"example-2/evm/src/contracts/lendingSpoke/Spoke.sol\":3685:3705  Action.DepositNative */\n      0x04\n        /* \"example-2/evm/src/contracts/lendingSpoke/Spoke.sol\":3675:3681  action */\n      dup8\n        /* \"example-2/evm/src/contracts/lendingSpoke/Spoke.sol\":3675:3705  action == Action.DepositNative */\n      0x05\n      dup2\n      gt\n      iszero\n      tag_141\n      jumpi\n      tag_141\n      tag_99\n      jump\t// in\n    tag_141:\n      eq\n        /* \"example-2/evm/src/contracts/lendingSpoke/Spoke.sol\":3675:3737  action == Action.DepositNative || action == Action.RepayNative */\n      dup1\n      tag_142\n      jumpi\n      pop\n        /* \"example-2/evm/src/contracts/lendingSpoke/Spoke.sol\":3719:3737  Action.RepayNative */\n      0x05\n        /* \"example-2/evm/src/contracts/lendingSpoke/Spoke.sol\":3709:3715  action */\n      dup8\n        /* \"example-2/evm/src/contracts/lendingSpoke/Spoke.sol\":3709:3737  action == Action.RepayNative */\n      0x05\n      dup2\n      gt\n      iszero\n      tag_146\n      jumpi\n      tag_146\n      tag_99\n      jump\t// in\n    tag_146:\n      eq\n        /* \"example-2/evm/src/contracts/lendingSpoke/Spoke.sol\":3675:3737  action == Action.DepositNative || action == Action.RepayNative */\n    tag_142:\n        /* \"example-2/evm/src/contracts/lendingSpoke/Spoke.sol\":3671:3854  if (action == Action.DepositNative || action == Action.RepayNative) {... */\n      iszero\n      tag_147\n      jumpi\n        /* \"example-2/evm/src/contracts/lendingSpoke/SpokeGetters.sol\":413:422  IWormhole */\n      0x00\n        /* \"example-2/evm/src/contracts/lendingSpoke/SpokeGetters.sol\":451:475  _state.provider.wormhole */\n      sload\n        /* \"example-2/evm/src/contracts/lendingSpoke/Spoke.sol\":3764:3843  sendTokenBridgeMessageNative(assetAmount + wormhole().messageFee(), serialized) */\n      tag_148\n      swap1\n        /* \"example-2/evm/src/contracts/lendingSpoke/SpokeGetters.sol\":451:475  _state.provider.wormhole */\n      0x010000\n      swap1\n      div\n      sub(shl(0xa0, 0x01), 0x01)\n      and\n      sub(shl(0xa0, 0x01), 0x01)\n        /* \"example-2/evm/src/contracts/lendingSpoke/Spoke.sol\":3807:3828  wormhole().messageFee */\n      and\n      0x1a90a219\n        /* \"example-2/evm/src/contracts/lendingSpoke/Spoke.sol\":3807:3830  wormhole().messageFee() */\n      mload(0x40)\n      dup2\n      0xffffffff\n      and\n      0xe0\n      shl\n      dup2\n      mstore\n      0x04\n      add\n      0x20\n      mload(0x40)\n      dup1\n      dup4\n      sub\n      dup2\n      dup7\n      gas\n      staticcall\n      iszero\n      dup1\n      iszero\n      tag_151\n      jumpi\n      returndatasize\n      0x00\n      dup1\n      returndatacopy\n      revert(0x00, returndatasize)\n    tag_151:\n      pop\n      pop\n      pop\n      pop\n      mload(0x40)\n      returndatasize\n      not(0x1f)\n      0x1f\n      dup3\n      add\n      and\n      dup3\n      add\n      dup1\n      0x40\n      mstore\n      pop\n      dup2\n      add\n      swap1\n      tag_152\n      swap2\n      swap1\n      tag_67\n      jump\t// in\n    tag_152:\n        /* \"example-2/evm/src/contracts/lendingSpoke/Spoke.sol\":3793:3830  assetAmount + wormhole().messageFee() */\n      tag_153\n      swap1\n        /* \"example-2/evm/src/contracts/lendingSpoke/Spoke.sol\":3793:3804  assetAmount */\n      dup8\n        /* \"example-2/evm/src/contracts/lendingSpoke/Spoke.sol\":3793:3830  assetAmount + wormhole().messageFee() */\n      tag_154\n      jump\t// in\n    tag_153:\n        /* \"example-2/evm/src/contracts/lendingSpoke/Spoke.sol\":3832:3842  serialized */\n      dup3\n        /* \"example-2/evm/src/contracts/lendingSpoke/Spoke.sol\":3764:3792  sendTokenBridgeMessageNative */\n      tag_155\n        /* \"example-2/evm/src/contracts/lendingSpoke/Spoke.sol\":3764:3843  sendTokenBridgeMessageNative(assetAmount + wormhole().messageFee(), serialized) */\n      jump\t// in\n    tag_148:\n        /* \"example-2/evm/src/contracts/lendingSpoke/Spoke.sol\":3753:3843  sequence = sendTokenBridgeMessageNative(assetAmount + wormhole().messageFee(), serialized) */\n      swap4\n      pop\n        /* \"example-2/evm/src/contracts/lendingSpoke/Spoke.sol\":3671:3854  if (action == Action.DepositNative || action == Action.RepayNative) {... */\n    tag_147:\n        /* \"example-2/evm/src/contracts/lendingSpoke/Spoke.sol\":2846:3860  {... */\n      pop\n      pop\n      pop\n        /* \"example-2/evm/src/contracts/lendingSpoke/Spoke.sol\":2735:3860  function doAction(Action action, address assetAddress, uint256 assetAmount) internal returns (uint64 sequence) {... */\n      swap4\n      swap3\n      pop\n      pop\n      pop\n      jump\t// out\n        /* \"example-2/evm/src/contracts/lendingSpoke/SpokeUtilities.sol\":1497:1940  function requireAssetAmountValidForTokenBridge(address assetAddress, uint256 assetAmount) internal view {... */\n    tag_96:\n        /* \"example-2/evm/src/contracts/lendingSpoke/SpokeUtilities.sol\":1670:1707  abi.encodeWithSignature(\"decimals()\") */\n      0x40\n      dup1\n      mload\n      0x04\n      dup2\n      mstore\n      0x24\n      dup2\n      add\n      dup3\n      mstore\n      0x20\n      dup2\n      add\n      dup1\n      mload\n      sub(shl(0xe0, 0x01), 0x01)\n      and\n      shl(0xe0, 0x313ce567)\n      or\n      swap1\n      mstore\n        /* \"example-2/evm/src/contracts/lendingSpoke/SpokeUtilities.sol\":1646:1708  assetAddress.staticcall(abi.encodeWithSignature(\"decimals()\")) */\n      swap1\n      mload\n        /* \"example-2/evm/src/contracts/lendingSpoke/SpokeUtilities.sol\":1614:1642  bytes memory queriedDecimals */\n      0x00\n      swap2\n      sub(shl(0xa0, 0x01), 0x01)\n        /* \"example-2/evm/src/contracts/lendingSpoke/SpokeUtilities.sol\":1646:1669  assetAddress.staticcall */\n      dup6\n      and\n      swap2\n        /* \"example-2/evm/src/contracts/lendingSpoke/SpokeUtilities.sol\":1646:1708  assetAddress.staticcall(abi.encodeWithSignature(\"decimals()\")) */\n      tag_157\n      swap2\n        /* \"example-2/evm/src/contracts/lendingSpoke/SpokeUtilities.sol\":1670:1707  abi.encodeWithSignature(\"decimals()\") */\n      swap1\n        /* \"example-2/evm/src/contracts/lendingSpoke/SpokeUtilities.sol\":1646:1708  assetAddress.staticcall(abi.encodeWithSignature(\"decimals()\")) */\n      tag_158\n      jump\t// in\n    tag_157:\n      0x00\n      mload(0x40)\n      dup1\n      dup4\n      sub\n      dup2\n      dup6\n      gas\n      staticcall\n      swap2\n      pop\n      pop\n      returndatasize\n      dup1\n      0x00\n      dup2\n      eq\n      tag_161\n      jumpi\n      mload(0x40)\n      swap2\n      pop\n      and(add(returndatasize, 0x3f), not(0x1f))\n      dup3\n      add\n      0x40\n      mstore\n      returndatasize\n      dup3\n      mstore\n      returndatasize\n      0x00\n      0x20\n      dup5\n      add\n      returndatacopy\n      jump(tag_160)\n    tag_161:\n      0x60\n      swap2\n      pop\n    tag_160:\n      pop\n        /* \"example-2/evm/src/contracts/lendingSpoke/SpokeUtilities.sol\":1611:1708  (, bytes memory queriedDecimals) = assetAddress.staticcall(abi.encodeWithSignature(\"decimals()\")) */\n      swap2\n      pop\n      pop\n        /* \"example-2/evm/src/contracts/lendingSpoke/SpokeUtilities.sol\":1718:1732  uint8 decimals */\n      0x00\n        /* \"example-2/evm/src/contracts/lendingSpoke/SpokeUtilities.sol\":1746:1761  queriedDecimals */\n      dup2\n        /* \"example-2/evm/src/contracts/lendingSpoke/SpokeUtilities.sol\":1735:1771  abi.decode(queriedDecimals, (uint8)) */\n      dup1\n      0x20\n      add\n      swap1\n      mload\n      dup2\n      add\n      swap1\n      tag_162\n      swap2\n      swap1\n      tag_163\n      jump\t// in\n    tag_162:\n        /* \"example-2/evm/src/contracts/lendingSpoke/SpokeUtilities.sol\":1718:1771  uint8 decimals = abi.decode(queriedDecimals, (uint8)) */\n      swap1\n      pop\n        /* \"example-2/evm/src/contracts/lendingSpoke/SpokeUtilities.sol\":1873:1884  assetAmount */\n      dup3\n        /* \"example-2/evm/src/contracts/lendingSpoke/SpokeUtilities.sol\":1802:1869  deNormalizeAmount(normalizeAmount(assetAmount, decimals), decimals) */\n      tag_164\n        /* \"example-2/evm/src/contracts/lendingSpoke/SpokeUtilities.sol\":1820:1858  normalizeAmount(assetAmount, decimals) */\n      tag_165\n        /* \"example-2/evm/src/contracts/lendingSpoke/SpokeUtilities.sol\":1836:1847  assetAmount */\n      dup6\n        /* \"example-2/evm/src/contracts/lendingSpoke/SpokeUtilities.sol\":1849:1857  decimals */\n      dup5\n        /* \"example-2/evm/src/contracts/lendingSpoke/SpokeUtilities.sol\":1820:1835  normalizeAmount */\n      tag_166\n        /* \"example-2/evm/src/contracts/lendingSpoke/SpokeUtilities.sol\":1820:1858  normalizeAmount(assetAmount, decimals) */\n      jump\t// in\n    tag_165:\n        /* \"example-2/evm/src/contracts/lendingSpoke/SpokeUtilities.sol\":1860:1868  decimals */\n      dup4\n        /* \"example-2/evm/src/contracts/lendingSpoke/SpokeUtilities.sol\":1802:1819  deNormalizeAmount */\n      tag_167\n        /* \"example-2/evm/src/contracts/lendingSpoke/SpokeUtilities.sol\":1802:1869  deNormalizeAmount(normalizeAmount(assetAmount, decimals), decimals) */\n      jump\t// in\n    tag_164:\n        /* \"example-2/evm/src/contracts/lendingSpoke/SpokeUtilities.sol\":1802:1884  deNormalizeAmount(normalizeAmount(assetAmount, decimals), decimals) == assetAmount */\n      eq\n        /* \"example-2/evm/src/contracts/lendingSpoke/SpokeUtilities.sol\":1781:1933  require(... */\n      tag_168\n      jumpi\n      mload(0x40)\n      shl(0xe5, 0x461bcd)\n      dup2\n      mstore\n        /* \"#utility.yul\":3318:3320   */\n      0x20\n        /* \"example-2/evm/src/contracts/lendingSpoke/SpokeUtilities.sol\":1781:1933  require(... */\n      0x04\n      dup3\n      add\n        /* \"#utility.yul\":3300:3321   */\n      mstore\n        /* \"#utility.yul\":3357:3359   */\n      0x17\n        /* \"#utility.yul\":3337:3355   */\n      0x24\n      dup3\n      add\n        /* \"#utility.yul\":3330:3360   */\n      mstore\n        /* \"#utility.yul\":3396:3421   */\n      0x546f6f206d616e7920646563696d616c20706c61636573000000000000000000\n        /* \"#utility.yul\":3376:3394   */\n      0x44\n      dup3\n      add\n        /* \"#utility.yul\":3369:3422   */\n      mstore\n        /* \"#utility.yul\":3439:3457   */\n      0x64\n      add\n        /* \"example-2/evm/src/contracts/lendingSpoke/SpokeUtilities.sol\":1781:1933  require(... */\n    tag_169:\n      mload(0x40)\n      dup1\n      swap2\n      sub\n      swap1\n      revert\n    tag_168:\n        /* \"example-2/evm/src/contracts/lendingSpoke/SpokeUtilities.sol\":1601:1940  {... */\n      pop\n      pop\n        /* \"example-2/evm/src/contracts/lendingSpoke/SpokeUtilities.sol\":1497:1940  function requireAssetAmountValidForTokenBridge(address assetAddress, uint256 assetAmount) internal view {... */\n      pop\n      pop\n      jump\t// out\n        /* \"example-2/evm/src/contracts/HubSpokeMessages.sol\":225:443  function encodeActionPayload(ActionPayload memory payload) internal pure returns (bytes memory) {... */\n    tag_111:\n        /* \"example-2/evm/src/contracts/HubSpokeMessages.sol\":361:375  payload.action */\n      dup1\n      mload\n        /* \"example-2/evm/src/contracts/HubSpokeMessages.sol\":307:319  bytes memory */\n      0x60\n      swap1\n        /* \"example-2/evm/src/contracts/HubSpokeMessages.sol\":355:376  uint8(payload.action) */\n      0x05\n      dup2\n      gt\n      iszero\n      tag_173\n      jumpi\n      tag_173\n      tag_99\n      jump\t// in\n    tag_173:\n        /* \"example-2/evm/src/contracts/HubSpokeMessages.sol\":378:385  payload */\n      dup3\n        /* \"example-2/evm/src/contracts/HubSpokeMessages.sol\":378:392  payload.sender */\n      0x20\n      add\n      mload\n        /* \"example-2/evm/src/contracts/HubSpokeMessages.sol\":394:401  payload */\n      dup4\n        /* \"example-2/evm/src/contracts/HubSpokeMessages.sol\":394:414  payload.assetAddress */\n      0x40\n      add\n      mload\n        /* \"example-2/evm/src/contracts/HubSpokeMessages.sol\":416:423  payload */\n      dup5\n        /* \"example-2/evm/src/contracts/HubSpokeMessages.sol\":416:435  payload.assetAmount */\n      0x60\n      add\n      mload\n        /* \"example-2/evm/src/contracts/HubSpokeMessages.sol\":338:436  abi.encodePacked(uint8(payload.action), payload.sender, payload.assetAddress, payload.assetAmount) */\n      add(0x20, mload(0x40))\n      tag_174\n      swap5\n      swap4\n      swap3\n      swap2\n      swap1\n        /* \"#utility.yul\":3715:3718   */\n      0xf8\n        /* \"#utility.yul\":3693:3709   */\n      swap5\n      swap1\n      swap5\n      shl\n      not(sub(shl(0xf8, 0x01), 0x01))\n        /* \"#utility.yul\":3689:3725   */\n      and\n        /* \"#utility.yul\":3677:3726   */\n      dup5\n      mstore\n        /* \"#utility.yul\":3813:3815   */\n      0x60\n        /* \"#utility.yul\":3809:3824   */\n      swap3\n      dup4\n      shl\n      not(0xffffffffffffffffffffffff)\n        /* \"#utility.yul\":3805:3829   */\n      swap1\n      dup2\n      and\n        /* \"#utility.yul\":3801:3802   */\n      0x01\n        /* \"#utility.yul\":3792:3803   */\n      dup7\n      add\n        /* \"#utility.yul\":3785:3830   */\n      mstore\n        /* \"#utility.yul\":3864:3879   */\n      swap2\n      swap1\n      swap3\n      shl\n        /* \"#utility.yul\":3860:3884   */\n      and\n        /* \"#utility.yul\":3855:3857   */\n      0x15\n        /* \"#utility.yul\":3846:3858   */\n      dup4\n      add\n        /* \"#utility.yul\":3839:3885   */\n      mstore\n        /* \"#utility.yul\":3910:3912   */\n      0x29\n        /* \"#utility.yul\":3901:3913   */\n      dup3\n      add\n        /* \"#utility.yul\":3894:3922   */\n      mstore\n        /* \"#utility.yul\":3947:3949   */\n      0x49\n        /* \"#utility.yul\":3938:3950   */\n      add\n      swap1\n        /* \"#utility.yul\":3468:3956   */\n      jump\n        /* \"example-2/evm/src/contracts/HubSpokeMessages.sol\":338:436  abi.encodePacked(uint8(payload.action), payload.sender, payload.assetAddress, payload.assetAmount) */\n    tag_174:\n      mload(0x40)\n      0x20\n      dup2\n      dup4\n      sub\n      sub\n      dup2\n      mstore\n      swap1\n      0x40\n      mstore\n        /* \"example-2/evm/src/contracts/HubSpokeMessages.sol\":331:436  return abi.encodePacked(uint8(payload.action), payload.sender, payload.assetAddress, payload.assetAmount) */\n      swap1\n      pop\n        /* \"example-2/evm/src/contracts/HubSpokeMessages.sol\":225:443  function encodeActionPayload(ActionPayload memory payload) internal pure returns (bytes memory) {... */\n      swap2\n      swap1\n      pop\n      jump\t// out\n        /* \"example-2/evm/src/contracts/lendingSpoke/SpokeUtilities.sol\":659:1191  function sendTokenBridgeMessage(address assetAddress, uint256 assetAmount, bytes memory payload)... */\n    tag_123:\n        /* \"example-2/evm/src/contracts/lendingSpoke/SpokeUtilities.sol\":790:805  uint64 sequence */\n      0x00\n        /* \"example-2/evm/src/contracts/lendingSpoke/SpokeUtilities.sol\":821:909  SafeERC20.safeTransferFrom(IERC20(assetAddress), msg.sender, address(this), assetAmount) */\n      tag_177\n        /* \"example-2/evm/src/contracts/lendingSpoke/SpokeUtilities.sol\":855:867  assetAddress */\n      dup5\n        /* \"example-2/evm/src/contracts/lendingSpoke/SpokeUtilities.sol\":870:880  msg.sender */\n      caller\n        /* \"example-2/evm/src/contracts/lendingSpoke/SpokeUtilities.sol\":890:894  this */\n      address\n        /* \"example-2/evm/src/contracts/lendingSpoke/SpokeUtilities.sol\":897:908  assetAmount */\n      dup7\n        /* \"example-2/evm/src/contracts/lendingSpoke/SpokeUtilities.sol\":821:847  SafeERC20.safeTransferFrom */\n      tag_178\n        /* \"example-2/evm/src/contracts/lendingSpoke/SpokeUtilities.sol\":821:909  SafeERC20.safeTransferFrom(IERC20(assetAddress), msg.sender, address(this), assetAmount) */\n      jump\t// in\n    tag_177:\n        /* \"example-2/evm/src/contracts/lendingSpoke/SpokeUtilities.sol\":920:999  SafeERC20.safeTransfer(IERC20(assetAddress), tokenBridgeAddress(), assetAmount) */\n      tag_179\n        /* \"example-2/evm/src/contracts/lendingSpoke/SpokeUtilities.sol\":950:962  assetAddress */\n      dup5\n        /* \"example-2/evm/src/contracts/lendingSpoke/SpokeUtilities.sol\":965:985  tokenBridgeAddress() */\n      tag_180\n        /* \"example-2/evm/src/contracts/lendingSpoke/SpokeGetters.sol\":585:612  _state.provider.tokenBridge */\n      and(sub(shl(0xa0, 0x01), 0x01), sload(0x01))\n      swap1\n        /* \"example-2/evm/src/contracts/lendingSpoke/SpokeGetters.sol\":489:621  function tokenBridge() public view returns (ITokenBridge) {... */\n      jump\n        /* \"example-2/evm/src/contracts/lendingSpoke/SpokeUtilities.sol\":965:985  tokenBridgeAddress() */\n    tag_180:\n        /* \"example-2/evm/src/contracts/lendingSpoke/SpokeUtilities.sol\":987:998  assetAmount */\n      dup6\n        /* \"example-2/evm/src/contracts/lendingSpoke/SpokeUtilities.sol\":920:942  SafeERC20.safeTransfer */\n      tag_181\n        /* \"example-2/evm/src/contracts/lendingSpoke/SpokeUtilities.sol\":920:999  SafeERC20.safeTransfer(IERC20(assetAddress), tokenBridgeAddress(), assetAmount) */\n      jump\t// in\n    tag_179:\n        /* \"example-2/evm/src/contracts/lendingSpoke/SpokeGetters.sol\":585:612  _state.provider.tokenBridge */\n      and(sub(shl(0xa0, 0x01), 0x01), sload(0x01))\n      sub(shl(0xa0, 0x01), 0x01)\n        /* \"example-2/evm/src/contracts/lendingSpoke/SpokeUtilities.sol\":1021:1060  tokenBridge().transferTokensWithPayload */\n      and\n      0xc5a5ebda\n        /* \"example-2/evm/src/contracts/lendingSpoke/SpokeUtilities.sol\":1074:1086  assetAddress */\n      dup6\n        /* \"example-2/evm/src/contracts/lendingSpoke/SpokeUtilities.sol\":1088:1099  assetAmount */\n      dup6\n        /* \"example-2/evm/src/contracts/lendingSpoke/SpokeUtilities.sol\":1101:1113  hubChainId() */\n      tag_183\n        /* \"example-2/evm/src/contracts/lendingSpoke/SpokeGetters.sol\":925:942  _state.hubChainId */\n      sload(0x02)\n      0xffff\n      0x0100\n      swap1\n      swap2\n      div\n      and\n      swap1\n        /* \"example-2/evm/src/contracts/lendingSpoke/SpokeGetters.sol\":855:949  function hubChainId() internal view returns (uint16) {... */\n      jump\n        /* \"example-2/evm/src/contracts/lendingSpoke/SpokeUtilities.sol\":1101:1113  hubChainId() */\n    tag_183:\n        /* \"example-2/evm/src/contracts/lendingSpoke/SpokeGetters.sol\":1034:1059  _state.hubContractAddress */\n      sload(0x02)\n        /* \"example-2/evm/src/contracts/lendingSpoke/SpokeUtilities.sol\":1021:1184  tokenBridge().transferTokensWithPayload(... */\n      mload(0x40)\n      not(sub(shl(0xe0, 0x01), 0x01))\n      0xe0\n      dup8\n      swap1\n      shl\n      and\n      dup2\n      mstore\n      tag_187\n      swap5\n      swap4\n      swap3\n      swap2\n        /* \"example-2/evm/src/contracts/lendingSpoke/SpokeGetters.sol\":1034:1059  _state.hubContractAddress */\n      0x01000000\n      swap1\n      div\n      sub(shl(0xa0, 0x01), 0x01)\n      and\n      swap1\n        /* \"example-2/evm/src/contracts/lendingSpoke/SpokeUtilities.sol\":1115:1162  bytes32(uint256(uint160(hubContractAddress()))) */\n      0x00\n      swap1\n        /* \"example-2/evm/src/contracts/lendingSpoke/SpokeUtilities.sol\":1167:1174  payload */\n      dup11\n      swap1\n        /* \"example-2/evm/src/contracts/lendingSpoke/SpokeUtilities.sol\":1021:1184  tokenBridge().transferTokensWithPayload(... */\n      0x04\n      add\n      tag_188\n      jump\t// in\n    tag_187:\n      0x20\n      mload(0x40)\n      dup1\n      dup4\n      sub\n      dup2\n      0x00\n      dup8\n      gas\n      call\n      iszero\n      dup1\n      iszero\n      tag_190\n      jumpi\n      returndatasize\n      0x00\n      dup1\n      returndatacopy\n      revert(0x00, returndatasize)\n    tag_190:\n      pop\n      pop\n      pop\n      pop\n      mload(0x40)\n      returndatasize\n      not(0x1f)\n      0x1f\n      dup3\n      add\n      and\n      dup3\n      add\n      dup1\n      0x40\n      mstore\n      pop\n      dup2\n      add\n      swap1\n      tag_191\n      swap2\n      swap1\n      tag_192\n      jump\t// in\n    tag_191:\n        /* \"example-2/evm/src/contracts/lendingSpoke/SpokeUtilities.sol\":1010:1184  sequence = tokenBridge().transferTokensWithPayload(... */\n      swap5\n        /* \"example-2/evm/src/contracts/lendingSpoke/SpokeUtilities.sol\":659:1191  function sendTokenBridgeMessage(address assetAddress, uint256 assetAmount, bytes memory payload)... */\n      swap4\n      pop\n      pop\n      pop\n      pop\n      jump\t// out\n        /* \"example-2/evm/src/contracts/lendingSpoke/SpokeUtilities.sol\":427:653  function sendWormholeMessage(bytes memory payload) internal returns (uint64 sequence) {... */\n    tag_136:\n        /* \"example-2/evm/src/contracts/lendingSpoke/SpokeUtilities.sol\":496:511  uint64 sequence */\n      0x00\n        /* \"example-2/evm/src/contracts/lendingSpoke/SpokeGetters.sol\":451:475  _state.provider.wormhole */\n      dup1\n      sload\n      0x010000\n      swap1\n      div\n      sub(shl(0xa0, 0x01), 0x01)\n      and\n      sub(shl(0xa0, 0x01), 0x01)\n        /* \"example-2/evm/src/contracts/lendingSpoke/SpokeUtilities.sol\":534:559  wormhole().publishMessage */\n      and\n      0xb19a437e\n        /* \"example-2/evm/src/contracts/lendingSpoke/SpokeUtilities.sol\":573:574  0 */\n      0x00\n        /* \"example-2/evm/src/contracts/lendingSpoke/SpokeUtilities.sol\":597:604  payload */\n      dup5\n        /* \"example-2/evm/src/contracts/lendingSpoke/SpokeUtilities.sol\":618:636  consistencyLevel() */\n      tag_195\n        /* \"example-2/evm/src/contracts/lendingSpoke/SpokeGetters.sol\":819:842  _state.consistencyLevel */\n      and(0xff, sload(0x02))\n      swap1\n        /* \"example-2/evm/src/contracts/lendingSpoke/SpokeGetters.sol\":744:849  function consistencyLevel() internal view returns (uint8) {... */\n      jump\n        /* \"example-2/evm/src/contracts/lendingSpoke/SpokeUtilities.sol\":618:636  consistencyLevel() */\n    tag_195:\n        /* \"example-2/evm/src/contracts/lendingSpoke/SpokeUtilities.sol\":534:646  wormhole().publishMessage(... */\n      mload(0x40)\n      dup5\n      0xffffffff\n      and\n      0xe0\n      shl\n      dup2\n      mstore\n      0x04\n      add\n      tag_197\n      swap4\n      swap3\n      swap2\n      swap1\n      tag_198\n      jump\t// in\n    tag_197:\n      0x20\n      mload(0x40)\n      dup1\n      dup4\n      sub\n      dup2\n      0x00\n      dup8\n      gas\n      call\n      iszero\n      dup1\n      iszero\n      tag_200\n      jumpi\n      returndatasize\n      0x00\n      dup1\n      returndatacopy\n      revert(0x00, returndatasize)\n    tag_200:\n      pop\n      pop\n      pop\n      pop\n      mload(0x40)\n      returndatasize\n      not(0x1f)\n      0x1f\n      dup3\n      add\n      and\n      dup3\n      add\n      dup1\n      0x40\n      mstore\n      pop\n      dup2\n      add\n      swap1\n      tag_201\n      swap2\n      swap1\n      tag_192\n      jump\t// in\n    tag_201:\n        /* \"example-2/evm/src/contracts/lendingSpoke/SpokeUtilities.sol\":523:646  sequence = wormhole().publishMessage(... */\n      swap3\n        /* \"example-2/evm/src/contracts/lendingSpoke/SpokeUtilities.sol\":427:653  function sendWormholeMessage(bytes memory payload) internal returns (uint64 sequence) {... */\n      swap2\n      pop\n      pop\n      jump\t// out\n        /* \"example-2/evm/src/contracts/lendingSpoke/SpokeUtilities.sol\":1197:1491  function sendTokenBridgeMessageNative(uint256 amount, bytes memory payload) internal returns (uint64 sequence) {... */\n    tag_155:\n        /* \"example-2/evm/src/contracts/lendingSpoke/SpokeUtilities.sol\":1291:1306  uint64 sequence */\n      0x00\n        /* \"example-2/evm/src/contracts/lendingSpoke/SpokeUtilities.sol\":1329:1342  tokenBridge() */\n      tag_203\n        /* \"example-2/evm/src/contracts/lendingSpoke/SpokeGetters.sol\":585:612  _state.provider.tokenBridge */\n      and(sub(shl(0xa0, 0x01), 0x01), sload(0x01))\n      swap1\n        /* \"example-2/evm/src/contracts/lendingSpoke/SpokeGetters.sol\":489:621  function tokenBridge() public view returns (ITokenBridge) {... */\n      jump\n        /* \"example-2/evm/src/contracts/lendingSpoke/SpokeUtilities.sol\":1329:1342  tokenBridge() */\n    tag_203:\n      sub(shl(0xa0, 0x01), 0x01)\n        /* \"example-2/evm/src/contracts/lendingSpoke/SpokeUtilities.sol\":1329:1372  tokenBridge().wrapAndTransferETHWithPayload */\n      and\n      0xbee9cdfc\n        /* \"example-2/evm/src/contracts/lendingSpoke/SpokeUtilities.sol\":1380:1386  amount */\n      dup5\n        /* \"example-2/evm/src/contracts/lendingSpoke/SpokeUtilities.sol\":1401:1413  hubChainId() */\n      tag_204\n        /* \"example-2/evm/src/contracts/lendingSpoke/SpokeGetters.sol\":925:942  _state.hubChainId */\n      sload(0x02)\n      0xffff\n      0x0100\n      swap1\n      swap2\n      div\n      and\n      swap1\n        /* \"example-2/evm/src/contracts/lendingSpoke/SpokeGetters.sol\":855:949  function hubChainId() internal view returns (uint16) {... */\n      jump\n        /* \"example-2/evm/src/contracts/lendingSpoke/SpokeUtilities.sol\":1401:1413  hubChainId() */\n    tag_204:\n        /* \"example-2/evm/src/contracts/lendingSpoke/SpokeGetters.sol\":1034:1059  _state.hubContractAddress */\n      sload(0x02)\n        /* \"example-2/evm/src/contracts/lendingSpoke/SpokeUtilities.sol\":1329:1484  tokenBridge().wrapAndTransferETHWithPayload{value: amount}(... */\n      mload(0x40)\n      not(sub(shl(0xe0, 0x01), 0x01))\n      0xe0\n      dup7\n      swap1\n      shl\n      and\n      dup2\n      mstore\n      tag_206\n      swap3\n      swap2\n        /* \"example-2/evm/src/contracts/lendingSpoke/SpokeGetters.sol\":1034:1059  _state.hubContractAddress */\n      0x01000000\n      swap1\n      div\n      sub(shl(0xa0, 0x01), 0x01)\n      and\n      swap1\n        /* \"example-2/evm/src/contracts/lendingSpoke/SpokeUtilities.sol\":1415:1462  bytes32(uint256(uint160(hubContractAddress()))) */\n      0x00\n      swap1\n        /* \"example-2/evm/src/contracts/lendingSpoke/SpokeUtilities.sol\":1467:1474  payload */\n      dup10\n      swap1\n        /* \"example-2/evm/src/contracts/lendingSpoke/SpokeUtilities.sol\":1329:1484  tokenBridge().wrapAndTransferETHWithPayload{value: amount}(... */\n      0x04\n      add\n      tag_207\n      jump\t// in\n    tag_206:\n      0x20\n      mload(0x40)\n      dup1\n      dup4\n      sub\n      dup2\n      dup6\n      dup9\n      gas\n      call\n      iszero\n      dup1\n      iszero\n      tag_209\n      jumpi\n      returndatasize\n      0x00\n      dup1\n      returndatacopy\n      revert(0x00, returndatasize)\n    tag_209:\n      pop\n      pop\n      pop\n      pop\n      pop\n      mload(0x40)\n      returndatasize\n      not(0x1f)\n      0x1f\n      dup3\n      add\n      and\n      dup3\n      add\n      dup1\n      0x40\n      mstore\n      pop\n      dup2\n      add\n      swap1\n      tag_72\n      swap2\n      swap1\n      tag_192\n      jump\t// in\n        /* \"example-2/evm/src/contracts/lendingSpoke/SpokeUtilities.sol\":1946:2147  function normalizeAmount(uint256 amount, uint8 decimals) internal pure returns (uint256) {... */\n    tag_166:\n        /* \"example-2/evm/src/contracts/lendingSpoke/SpokeUtilities.sol\":2026:2033  uint256 */\n      0x00\n        /* \"example-2/evm/src/contracts/lendingSpoke/SpokeUtilities.sol\":2060:2061  8 */\n      0x08\n        /* \"example-2/evm/src/contracts/lendingSpoke/SpokeUtilities.sol\":2049:2057  decimals */\n      dup3\n        /* \"example-2/evm/src/contracts/lendingSpoke/SpokeUtilities.sol\":2049:2061  decimals > 8 */\n      0xff\n      and\n      gt\n        /* \"example-2/evm/src/contracts/lendingSpoke/SpokeUtilities.sol\":2045:2118  if (decimals > 8) {... */\n      iszero\n      tag_212\n      jumpi\n        /* \"example-2/evm/src/contracts/lendingSpoke/SpokeUtilities.sol\":2094:2106  decimals - 8 */\n      tag_213\n        /* \"example-2/evm/src/contracts/lendingSpoke/SpokeUtilities.sol\":2105:2106  8 */\n      0x08\n        /* \"example-2/evm/src/contracts/lendingSpoke/SpokeUtilities.sol\":2094:2102  decimals */\n      dup4\n        /* \"example-2/evm/src/contracts/lendingSpoke/SpokeUtilities.sol\":2094:2106  decimals - 8 */\n      tag_214\n      jump\t// in\n    tag_213:\n        /* \"example-2/evm/src/contracts/lendingSpoke/SpokeUtilities.sol\":2087:2107  10 ** (decimals - 8) */\n      tag_215\n      swap1\n        /* \"example-2/evm/src/contracts/lendingSpoke/SpokeUtilities.sol\":2087:2089  10 */\n      0x0a\n        /* \"example-2/evm/src/contracts/lendingSpoke/SpokeUtilities.sol\":2087:2107  10 ** (decimals - 8) */\n      tag_216\n      jump\t// in\n    tag_215:\n        /* \"example-2/evm/src/contracts/lendingSpoke/SpokeUtilities.sol\":2077:2107  amount /= 10 ** (decimals - 8) */\n      tag_217\n      swap1\n      dup5\n      tag_218\n      jump\t// in\n    tag_217:\n      swap3\n      pop\n        /* \"example-2/evm/src/contracts/lendingSpoke/SpokeUtilities.sol\":2045:2118  if (decimals > 8) {... */\n    tag_212:\n      pop\n        /* \"example-2/evm/src/contracts/lendingSpoke/SpokeUtilities.sol\":2134:2140  amount */\n      swap1\n      swap2\n        /* \"example-2/evm/src/contracts/lendingSpoke/SpokeUtilities.sol\":1946:2147  function normalizeAmount(uint256 amount, uint8 decimals) internal pure returns (uint256) {... */\n      swap1\n      pop\n      jump\t// out\n        /* \"example-2/evm/src/contracts/lendingSpoke/SpokeUtilities.sol\":2153:2356  function deNormalizeAmount(uint256 amount, uint8 decimals) internal pure returns (uint256) {... */\n    tag_167:\n        /* \"example-2/evm/src/contracts/lendingSpoke/SpokeUtilities.sol\":2235:2242  uint256 */\n      0x00\n        /* \"example-2/evm/src/contracts/lendingSpoke/SpokeUtilities.sol\":2269:2270  8 */\n      0x08\n        /* \"example-2/evm/src/contracts/lendingSpoke/SpokeUtilities.sol\":2258:2266  decimals */\n      dup3\n        /* \"example-2/evm/src/contracts/lendingSpoke/SpokeUtilities.sol\":2258:2270  decimals > 8 */\n      0xff\n      and\n      gt\n        /* \"example-2/evm/src/contracts/lendingSpoke/SpokeUtilities.sol\":2254:2327  if (decimals > 8) {... */\n      iszero\n      tag_212\n      jumpi\n        /* \"example-2/evm/src/contracts/lendingSpoke/SpokeUtilities.sol\":2303:2315  decimals - 8 */\n      tag_221\n        /* \"example-2/evm/src/contracts/lendingSpoke/SpokeUtilities.sol\":2314:2315  8 */\n      0x08\n        /* \"example-2/evm/src/contracts/lendingSpoke/SpokeUtilities.sol\":2303:2311  decimals */\n      dup4\n        /* \"example-2/evm/src/contracts/lendingSpoke/SpokeUtilities.sol\":2303:2315  decimals - 8 */\n      tag_214\n      jump\t// in\n    tag_221:\n        /* \"example-2/evm/src/contracts/lendingSpoke/SpokeUtilities.sol\":2296:2316  10 ** (decimals - 8) */\n      tag_222\n      swap1\n        /* \"example-2/evm/src/contracts/lendingSpoke/SpokeUtilities.sol\":2296:2298  10 */\n      0x0a\n        /* \"example-2/evm/src/contracts/lendingSpoke/SpokeUtilities.sol\":2296:2316  10 ** (decimals - 8) */\n      tag_216\n      jump\t// in\n    tag_222:\n        /* \"example-2/evm/src/contracts/lendingSpoke/SpokeUtilities.sol\":2286:2316  amount *= 10 ** (decimals - 8) */\n      tag_217\n      swap1\n      dup5\n      tag_224\n      jump\t// in\n        /* \"@openzeppelin/contracts/token/ERC20/utils/SafeERC20.sol\":1702:1890  function safeTransferFrom(IERC20 token, address from, address to, uint256 value) internal {... */\n    tag_178:\n        /* \"@openzeppelin/contracts/token/ERC20/utils/SafeERC20.sol\":1829:1882  abi.encodeCall(token.transferFrom, (from, to, value)) */\n      mload(0x40)\n      sub(shl(0xa0, 0x01), 0x01)\n        /* \"#utility.yul\":8224:8239   */\n      dup5\n      dup2\n      and\n        /* \"@openzeppelin/contracts/token/ERC20/utils/SafeERC20.sol\":1829:1882  abi.encodeCall(token.transferFrom, (from, to, value)) */\n      0x24\n      dup4\n      add\n        /* \"#utility.yul\":8206:8240   */\n      mstore\n        /* \"#utility.yul\":8276:8291   */\n      dup4\n      dup2\n      and\n        /* \"#utility.yul\":8256:8274   */\n      0x44\n      dup4\n      add\n        /* \"#utility.yul\":8249:8292   */\n      mstore\n        /* \"#utility.yul\":8308:8326   */\n      0x64\n      dup3\n      add\n        /* \"#utility.yul\":8301:8335   */\n      dup4\n      swap1\n      mstore\n        /* \"@openzeppelin/contracts/token/ERC20/utils/SafeERC20.sol\":1802:1883  _callOptionalReturn(token, abi.encodeCall(token.transferFrom, (from, to, value))) */\n      tag_168\n      swap2\n        /* \"@openzeppelin/contracts/token/ERC20/utils/SafeERC20.sol\":1822:1827  token */\n      dup7\n      swap2\n        /* \"@openzeppelin/contracts/token/ERC20/utils/SafeERC20.sol\":1844:1862  token.transferFrom */\n      dup3\n      and\n      swap1\n      0x23b872dd\n      swap1\n        /* \"#utility.yul\":8141:8159   */\n      0x84\n      add\n        /* \"@openzeppelin/contracts/token/ERC20/utils/SafeERC20.sol\":1829:1882  abi.encodeCall(token.transferFrom, (from, to, value)) */\n    tag_227:\n      mload(0x40)\n      0x20\n      dup2\n      dup4\n      sub\n      sub\n      dup2\n      mstore\n      swap1\n      0x40\n      mstore\n      swap2\n      pop\n      0xe0\n      shl\n      0x20\n      dup3\n      add\n      dup1\n      mload\n      sub(shl(0xe0, 0x01), 0x01)\n      dup4\n      dup2\n      dup4\n      and\n      or\n      dup4\n      mstore\n      pop\n      pop\n      pop\n      pop\n        /* \"@openzeppelin/contracts/token/ERC20/utils/SafeERC20.sol\":1802:1821  _callOptionalReturn */\n      tag_229\n        /* \"@openzeppelin/contracts/token/ERC20/utils/SafeERC20.sol\":1802:1883  _callOptionalReturn(token, abi.encodeCall(token.transferFrom, (from, to, value))) */\n      jump\t// in\n        /* \"@openzeppelin/contracts/token/ERC20/utils/SafeERC20.sol\":1303:1463  function safeTransfer(IERC20 token, address to, uint256 value) internal {... */\n    tag_181:\n        /* \"@openzeppelin/contracts/token/ERC20/utils/SafeERC20.sol\":1412:1455  abi.encodeCall(token.transfer, (to, value)) */\n      mload(0x40)\n      sub(shl(0xa0, 0x01), 0x01)\n        /* \"#utility.yul\":8538:8570   */\n      dup4\n      dup2\n      and\n        /* \"@openzeppelin/contracts/token/ERC20/utils/SafeERC20.sol\":1412:1455  abi.encodeCall(token.transfer, (to, value)) */\n      0x24\n      dup4\n      add\n        /* \"#utility.yul\":8520:8571   */\n      mstore\n        /* \"#utility.yul\":8587:8605   */\n      0x44\n      dup3\n      add\n        /* \"#utility.yul\":8580:8614   */\n      dup4\n      swap1\n      mstore\n        /* \"@openzeppelin/contracts/token/ERC20/utils/SafeERC20.sol\":1385:1456  _callOptionalReturn(token, abi.encodeCall(token.transfer, (to, value))) */\n      tag_231\n      swap2\n        /* \"@openzeppelin/contracts/token/ERC20/utils/SafeERC20.sol\":1405:1410  token */\n      dup6\n      swap2\n        /* \"@openzeppelin/contracts/token/ERC20/utils/SafeERC20.sol\":1427:1441  token.transfer */\n      dup3\n      and\n      swap1\n      0xa9059cbb\n      swap1\n        /* \"#utility.yul\":8493:8511   */\n      0x64\n      add\n        /* \"@openzeppelin/contracts/token/ERC20/utils/SafeERC20.sol\":1412:1455  abi.encodeCall(token.transfer, (to, value)) */\n      tag_227\n        /* \"#utility.yul\":8346:8620   */\n      jump\n        /* \"@openzeppelin/contracts/token/ERC20/utils/SafeERC20.sol\":1385:1456  _callOptionalReturn(token, abi.encodeCall(token.transfer, (to, value))) */\n    tag_231:\n        /* \"@openzeppelin/contracts/token/ERC20/utils/SafeERC20.sol\":1303:1463  function safeTransfer(IERC20 token, address to, uint256 value) internal {... */\n      pop\n      pop\n      pop\n      jump\t// out\n        /* \"@openzeppelin/contracts/token/ERC20/utils/SafeERC20.sol\":4059:4688  function _callOptionalReturn(IERC20 token, bytes memory data) private {... */\n    tag_229:\n        /* \"@openzeppelin/contracts/token/ERC20/utils/SafeERC20.sol\":4478:4501  bytes memory returndata */\n      0x00\n        /* \"@openzeppelin/contracts/token/ERC20/utils/SafeERC20.sol\":4504:4537  address(token).functionCall(data) */\n      tag_238\n      sub(shl(0xa0, 0x01), 0x01)\n        /* \"@openzeppelin/contracts/token/ERC20/utils/SafeERC20.sol\":4504:4531  address(token).functionCall */\n      dup5\n      and\n        /* \"@openzeppelin/contracts/token/ERC20/utils/SafeERC20.sol\":4532:4536  data */\n      dup4\n        /* \"@openzeppelin/contracts/token/ERC20/utils/SafeERC20.sol\":4504:4531  address(token).functionCall */\n      tag_239\n        /* \"@openzeppelin/contracts/token/ERC20/utils/SafeERC20.sol\":4504:4537  address(token).functionCall(data) */\n      jump\t// in\n    tag_238:\n        /* \"@openzeppelin/contracts/token/ERC20/utils/SafeERC20.sol\":4478:4537  bytes memory returndata = address(token).functionCall(data) */\n      swap1\n      pop\n        /* \"@openzeppelin/contracts/token/ERC20/utils/SafeERC20.sol\":4551:4561  returndata */\n      dup1\n        /* \"@openzeppelin/contracts/token/ERC20/utils/SafeERC20.sol\":4551:4568  returndata.length */\n      mload\n        /* \"@openzeppelin/contracts/token/ERC20/utils/SafeERC20.sol\":4572:4573  0 */\n      0x00\n        /* \"@openzeppelin/contracts/token/ERC20/utils/SafeERC20.sol\":4551:4573  returndata.length != 0 */\n      eq\n      iszero\n        /* \"@openzeppelin/contracts/token/ERC20/utils/SafeERC20.sol\":4551:4608  returndata.length != 0 && !abi.decode(returndata, (bool)) */\n      dup1\n      iszero\n      tag_240\n      jumpi\n      pop\n        /* \"@openzeppelin/contracts/token/ERC20/utils/SafeERC20.sol\":4589:4599  returndata */\n      dup1\n        /* \"@openzeppelin/contracts/token/ERC20/utils/SafeERC20.sol\":4578:4608  abi.decode(returndata, (bool)) */\n      dup1\n      0x20\n      add\n      swap1\n      mload\n      dup2\n      add\n      swap1\n      tag_241\n      swap2\n      swap1\n      tag_242\n      jump\t// in\n    tag_241:\n        /* \"@openzeppelin/contracts/token/ERC20/utils/SafeERC20.sol\":4577:4608  !abi.decode(returndata, (bool)) */\n      iszero\n        /* \"@openzeppelin/contracts/token/ERC20/utils/SafeERC20.sol\":4551:4608  returndata.length != 0 && !abi.decode(returndata, (bool)) */\n    tag_240:\n        /* \"@openzeppelin/contracts/token/ERC20/utils/SafeERC20.sol\":4547:4682  if (returndata.length != 0 && !abi.decode(returndata, (bool))) {... */\n      iszero\n      tag_231\n      jumpi\n        /* \"@openzeppelin/contracts/token/ERC20/utils/SafeERC20.sol\":4631:4671  SafeERC20FailedOperation(address(token)) */\n      mload(0x40)\n      shl(0xe0, 0x5274afe7)\n      dup2\n      mstore\n      sub(shl(0xa0, 0x01), 0x01)\n        /* \"#utility.yul\":1053:1085   */\n      dup5\n      and\n        /* \"@openzeppelin/contracts/token/ERC20/utils/SafeERC20.sol\":4631:4671  SafeERC20FailedOperation(address(token)) */\n      0x04\n      dup3\n      add\n        /* \"#utility.yul\":1035:1086   */\n      mstore\n        /* \"#utility.yul\":1008:1026   */\n      0x24\n      add\n        /* \"@openzeppelin/contracts/token/ERC20/utils/SafeERC20.sol\":4631:4671  SafeERC20FailedOperation(address(token)) */\n      tag_169\n        /* \"#utility.yul\":868:1092   */\n      jump\n        /* \"@openzeppelin/contracts/utils/Address.sol\":2705:2856  function functionCall(address target, bytes memory data) internal returns (bytes memory) {... */\n    tag_239:\n        /* \"@openzeppelin/contracts/utils/Address.sol\":2780:2792  bytes memory */\n      0x60\n        /* \"@openzeppelin/contracts/utils/Address.sol\":2811:2849  functionCallWithValue(target, data, 0) */\n      tag_72\n        /* \"@openzeppelin/contracts/utils/Address.sol\":2833:2839  target */\n      dup4\n        /* \"@openzeppelin/contracts/utils/Address.sol\":2841:2845  data */\n      dup4\n        /* \"@openzeppelin/contracts/utils/Address.sol\":2847:2848  0 */\n      0x00\n        /* \"@openzeppelin/contracts/utils/Address.sol\":2780:2792  bytes memory */\n      dup5\n        /* \"@openzeppelin/contracts/utils/Address.sol\":3421:3433  bool success */\n      0x00\n        /* \"@openzeppelin/contracts/utils/Address.sol\":3435:3458  bytes memory returndata */\n      dup1\n        /* \"@openzeppelin/contracts/utils/Address.sol\":3462:3468  target */\n      dup6\n      sub(shl(0xa0, 0x01), 0x01)\n        /* \"@openzeppelin/contracts/utils/Address.sol\":3462:3473  target.call */\n      and\n        /* \"@openzeppelin/contracts/utils/Address.sol\":3481:3486  value */\n      dup5\n        /* \"@openzeppelin/contracts/utils/Address.sol\":3488:3492  data */\n      dup7\n        /* \"@openzeppelin/contracts/utils/Address.sol\":3462:3493  target.call{value: value}(data) */\n      mload(0x40)\n      tag_251\n      swap2\n      swap1\n      tag_158\n      jump\t// in\n    tag_251:\n      0x00\n      mload(0x40)\n      dup1\n      dup4\n      sub\n      dup2\n      dup6\n      dup8\n      gas\n      call\n      swap3\n      pop\n      pop\n      pop\n      returndatasize\n      dup1\n      0x00\n      dup2\n      eq\n      tag_254\n      jumpi\n      mload(0x40)\n      swap2\n      pop\n      and(add(returndatasize, 0x3f), not(0x1f))\n      dup3\n      add\n      0x40\n      mstore\n      returndatasize\n      dup3\n      mstore\n      returndatasize\n      0x00\n      0x20\n      dup5\n      add\n      returndatacopy\n      jump(tag_253)\n    tag_254:\n      0x60\n      swap2\n      pop\n    tag_253:\n      pop\n        /* \"@openzeppelin/contracts/utils/Address.sol\":3420:3493  (bool success, bytes memory returndata) = target.call{value: value}(data) */\n      swap2\n      pop\n      swap2\n      pop\n        /* \"@openzeppelin/contracts/utils/Address.sol\":3510:3565  verifyCallResultFromTarget(target, success, returndata) */\n      tag_255\n        /* \"@openzeppelin/contracts/utils/Address.sol\":3537:3543  target */\n      dup7\n        /* \"@openzeppelin/contracts/utils/Address.sol\":3545:3552  success */\n      dup4\n        /* \"@openzeppelin/contracts/utils/Address.sol\":3554:3564  returndata */\n      dup4\n        /* \"@openzeppelin/contracts/utils/Address.sol\":3510:3536  verifyCallResultFromTarget */\n      tag_256\n        /* \"@openzeppelin/contracts/utils/Address.sol\":3510:3565  verifyCallResultFromTarget(target, success, returndata) */\n      jump\t// in\n    tag_255:\n        /* \"@openzeppelin/contracts/utils/Address.sol\":3503:3565  return verifyCallResultFromTarget(target, success, returndata) */\n      swap7\n        /* \"@openzeppelin/contracts/utils/Address.sol\":3180:3572  function functionCallWithValue(address target, bytes memory data, uint256 value) internal returns (bytes memory) {... */\n      swap6\n      pop\n      pop\n      pop\n      pop\n      pop\n      pop\n      jump\t// out\n        /* \"@openzeppelin/contracts/utils/Address.sol\":4625:5207  function verifyCallResultFromTarget(... */\n    tag_256:\n        /* \"@openzeppelin/contracts/utils/Address.sol\":4769:4781  bytes memory */\n      0x60\n        /* \"@openzeppelin/contracts/utils/Address.sol\":4798:4805  success */\n      dup3\n        /* \"@openzeppelin/contracts/utils/Address.sol\":4793:5201  if (!success) {... */\n      tag_258\n      jumpi\n        /* \"@openzeppelin/contracts/utils/Address.sol\":4821:4840  _revert(returndata) */\n      tag_259\n        /* \"@openzeppelin/contracts/utils/Address.sol\":4829:4839  returndata */\n      dup3\n        /* \"@openzeppelin/contracts/utils/Address.sol\":4821:4828  _revert */\n      tag_260\n        /* \"@openzeppelin/contracts/utils/Address.sol\":4821:4840  _revert(returndata) */\n      jump\t// in\n    tag_259:\n        /* \"@openzeppelin/contracts/utils/Address.sol\":4793:5201  if (!success) {... */\n      jump(tag_72)\n    tag_258:\n        /* \"@openzeppelin/contracts/utils/Address.sol\":5045:5062  returndata.length */\n      dup2\n      mload\n        /* \"@openzeppelin/contracts/utils/Address.sol\":5045:5067  returndata.length == 0 */\n      iszero\n        /* \"@openzeppelin/contracts/utils/Address.sol\":5045:5094  returndata.length == 0 && target.code.length == 0 */\n      dup1\n      iszero\n      tag_262\n      jumpi\n      pop\n      sub(shl(0xa0, 0x01), 0x01)\n        /* \"@openzeppelin/contracts/utils/Address.sol\":5071:5089  target.code.length */\n      dup5\n      and\n      extcodesize\n        /* \"@openzeppelin/contracts/utils/Address.sol\":5071:5094  target.code.length == 0 */\n      iszero\n        /* \"@openzeppelin/contracts/utils/Address.sol\":5045:5094  returndata.length == 0 && target.code.length == 0 */\n    tag_262:\n        /* \"@openzeppelin/contracts/utils/Address.sol\":5041:5160  if (returndata.length == 0 && target.code.length == 0) {... */\n      iszero\n      tag_263\n      jumpi\n        /* \"@openzeppelin/contracts/utils/Address.sol\":5121:5145  AddressEmptyCode(target) */\n      mload(0x40)\n      shl(0xe0, 0x9996b315)\n      dup2\n      mstore\n      sub(shl(0xa0, 0x01), 0x01)\n        /* \"#utility.yul\":1053:1085   */\n      dup6\n      and\n        /* \"@openzeppelin/contracts/utils/Address.sol\":5121:5145  AddressEmptyCode(target) */\n      0x04\n      dup3\n      add\n        /* \"#utility.yul\":1035:1086   */\n      mstore\n        /* \"#utility.yul\":1008:1026   */\n      0x24\n      add\n        /* \"@openzeppelin/contracts/utils/Address.sol\":5121:5145  AddressEmptyCode(target) */\n      tag_169\n        /* \"#utility.yul\":868:1092   */\n      jump\n        /* \"@openzeppelin/contracts/utils/Address.sol\":5041:5160  if (returndata.length == 0 && target.code.length == 0) {... */\n    tag_263:\n      pop\n        /* \"@openzeppelin/contracts/utils/Address.sol\":5180:5190  returndata */\n      dup1\n        /* \"@openzeppelin/contracts/utils/Address.sol\":5173:5190  return returndata */\n      jump(tag_72)\n        /* \"@openzeppelin/contracts/utils/Address.sol\":5743:6259  function _revert(bytes memory returndata) private pure {... */\n    tag_260:\n        /* \"@openzeppelin/contracts/utils/Address.sol\":5874:5891  returndata.length */\n      dup1\n      mload\n        /* \"@openzeppelin/contracts/utils/Address.sol\":5874:5895  returndata.length > 0 */\n      iszero\n        /* \"@openzeppelin/contracts/utils/Address.sol\":5870:6253  if (returndata.length > 0) {... */\n      tag_266\n      jumpi\n        /* \"@openzeppelin/contracts/utils/Address.sol\":6102:6112  returndata */\n      dup1\n        /* \"@openzeppelin/contracts/utils/Address.sol\":6096:6113  mload(returndata) */\n      mload\n        /* \"@openzeppelin/contracts/utils/Address.sol\":6158:6173  returndata_size */\n      dup1\n        /* \"@openzeppelin/contracts/utils/Address.sol\":6145:6155  returndata */\n      dup3\n        /* \"@openzeppelin/contracts/utils/Address.sol\":6141:6143  32 */\n      0x20\n        /* \"@openzeppelin/contracts/utils/Address.sol\":6137:6156  add(32, returndata) */\n      add\n        /* \"@openzeppelin/contracts/utils/Address.sol\":6130:6174  revert(add(32, returndata), returndata_size) */\n      revert\n        /* \"@openzeppelin/contracts/utils/Address.sol\":5870:6253  if (returndata.length > 0) {... */\n    tag_266:\n        /* \"@openzeppelin/contracts/utils/Address.sol\":6225:6242  FailedInnerCall() */\n      mload(0x40)\n      shl(0xe1, 0x0a12f521)\n      dup2\n      mstore\n      0x04\n      add\n      mload(0x40)\n      dup1\n      swap2\n      sub\n      swap1\n      revert\n        /* \"@openzeppelin/contracts/utils/Address.sol\":5870:6253  if (returndata.length > 0) {... */\n    tag_267:\n        /* \"@openzeppelin/contracts/utils/Address.sol\":5743:6259  function _revert(bytes memory returndata) private pure {... */\n      pop\n      jump\t// out\n        /* \"#utility.yul\":219:350   */\n    tag_268:\n      sub(shl(0xa0, 0x01), 0x01)\n        /* \"#utility.yul\":294:325   */\n      dup2\n      and\n        /* \"#utility.yul\":284:326   */\n      dup2\n      eq\n        /* \"#utility.yul\":274:344   */\n      tag_267\n      jumpi\n        /* \"#utility.yul\":340:341   */\n      0x00\n        /* \"#utility.yul\":337:338   */\n      dup1\n        /* \"#utility.yul\":330:342   */\n      revert\n        /* \"#utility.yul\":355:670   */\n    tag_19:\n        /* \"#utility.yul\":423:429   */\n      0x00\n        /* \"#utility.yul\":431:437   */\n      dup1\n        /* \"#utility.yul\":484:486   */\n      0x40\n        /* \"#utility.yul\":472:481   */\n      dup4\n        /* \"#utility.yul\":463:470   */\n      dup6\n        /* \"#utility.yul\":459:482   */\n      sub\n        /* \"#utility.yul\":455:487   */\n      slt\n        /* \"#utility.yul\":452:504   */\n      iszero\n      tag_279\n      jumpi\n        /* \"#utility.yul\":500:501   */\n      0x00\n        /* \"#utility.yul\":497:498   */\n      dup1\n        /* \"#utility.yul\":490:502   */\n      revert\n        /* \"#utility.yul\":452:504   */\n    tag_279:\n        /* \"#utility.yul\":539:548   */\n      dup3\n        /* \"#utility.yul\":526:549   */\n      calldataload\n        /* \"#utility.yul\":558:589   */\n      tag_280\n        /* \"#utility.yul\":583:588   */\n      dup2\n        /* \"#utility.yul\":558:589   */\n      tag_268\n      jump\t// in\n    tag_280:\n        /* \"#utility.yul\":608:613   */\n      swap5\n        /* \"#utility.yul\":660:662   */\n      0x20\n        /* \"#utility.yul\":645:663   */\n      swap4\n      swap1\n      swap4\n      add\n        /* \"#utility.yul\":632:664   */\n      calldataload\n      swap4\n      pop\n      pop\n      pop\n        /* \"#utility.yul\":355:670   */\n      jump\t// out\n        /* \"#utility.yul\":1305:1570   */\n    tag_61:\n        /* \"#utility.yul\":1389:1395   */\n      0x00\n        /* \"#utility.yul\":1442:1444   */\n      0x20\n        /* \"#utility.yul\":1430:1439   */\n      dup3\n        /* \"#utility.yul\":1421:1428   */\n      dup5\n        /* \"#utility.yul\":1417:1440   */\n      sub\n        /* \"#utility.yul\":1413:1445   */\n      slt\n        /* \"#utility.yul\":1410:1462   */\n      iszero\n      tag_285\n      jumpi\n        /* \"#utility.yul\":1458:1459   */\n      0x00\n        /* \"#utility.yul\":1455:1456   */\n      dup1\n        /* \"#utility.yul\":1448:1460   */\n      revert\n        /* \"#utility.yul\":1410:1462   */\n    tag_285:\n        /* \"#utility.yul\":1490:1499   */\n      dup2\n        /* \"#utility.yul\":1484:1500   */\n      mload\n        /* \"#utility.yul\":1509:1540   */\n      tag_72\n        /* \"#utility.yul\":1534:1539   */\n      dup2\n        /* \"#utility.yul\":1509:1540   */\n      tag_268\n      jump\t// in\n        /* \"#utility.yul\":1575:1759   */\n    tag_67:\n        /* \"#utility.yul\":1645:1651   */\n      0x00\n        /* \"#utility.yul\":1698:1700   */\n      0x20\n        /* \"#utility.yul\":1686:1695   */\n      dup3\n        /* \"#utility.yul\":1677:1684   */\n      dup5\n        /* \"#utility.yul\":1673:1696   */\n      sub\n        /* \"#utility.yul\":1669:1701   */\n      slt\n        /* \"#utility.yul\":1666:1718   */\n      iszero\n      tag_288\n      jumpi\n        /* \"#utility.yul\":1714:1715   */\n      0x00\n        /* \"#utility.yul\":1711:1712   */\n      dup1\n        /* \"#utility.yul\":1704:1716   */\n      revert\n        /* \"#utility.yul\":1666:1718   */\n    tag_288:\n      pop\n        /* \"#utility.yul\":1737:1753   */\n      mload\n      swap2\n        /* \"#utility.yul\":1575:1759   */\n      swap1\n      pop\n      jump\t// out\n        /* \"#utility.yul\":1764:1891   */\n    tag_269:\n        /* \"#utility.yul\":1825:1835   */\n      0x4e487b71\n        /* \"#utility.yul\":1820:1823   */\n      0xe0\n        /* \"#utility.yul\":1816:1836   */\n      shl\n        /* \"#utility.yul\":1813:1814   */\n      0x00\n        /* \"#utility.yul\":1806:1837   */\n      mstore\n        /* \"#utility.yul\":1856:1860   */\n      0x11\n        /* \"#utility.yul\":1853:1854   */\n      0x04\n        /* \"#utility.yul\":1846:1861   */\n      mstore\n        /* \"#utility.yul\":1880:1884   */\n      0x24\n        /* \"#utility.yul\":1877:1878   */\n      0x00\n        /* \"#utility.yul\":1870:1885   */\n      revert\n        /* \"#utility.yul\":1896:2024   */\n    tag_69:\n        /* \"#utility.yul\":1963:1972   */\n      dup2\n      dup2\n      sub\n        /* \"#utility.yul\":1984:1995   */\n      dup2\n      dup2\n      gt\n        /* \"#utility.yul\":1981:2018   */\n      iszero\n      tag_201\n      jumpi\n        /* \"#utility.yul\":1998:2016   */\n      tag_201\n      tag_269\n      jump\t// in\n        /* \"#utility.yul\":2029:2156   */\n    tag_99:\n        /* \"#utility.yul\":2090:2100   */\n      0x4e487b71\n        /* \"#utility.yul\":2085:2088   */\n      0xe0\n        /* \"#utility.yul\":2081:2101   */\n      shl\n        /* \"#utility.yul\":2078:2079   */\n      0x00\n        /* \"#utility.yul\":2071:2102   */\n      mstore\n        /* \"#utility.yul\":2121:2125   */\n      0x21\n        /* \"#utility.yul\":2118:2119   */\n      0x04\n        /* \"#utility.yul\":2111:2126   */\n      mstore\n        /* \"#utility.yul\":2145:2149   */\n      0x24\n        /* \"#utility.yul\":2142:2143   */\n      0x00\n        /* \"#utility.yul\":2135:2150   */\n      revert\n        /* \"#utility.yul\":2161:2286   */\n    tag_154:\n        /* \"#utility.yul\":2226:2235   */\n      dup1\n      dup3\n      add\n        /* \"#utility.yul\":2247:2257   */\n      dup1\n      dup3\n      gt\n        /* \"#utility.yul\":2244:2280   */\n      iszero\n      tag_201\n      jumpi\n        /* \"#utility.yul\":2260:2278   */\n      tag_201\n      tag_269\n      jump\t// in\n        /* \"#utility.yul\":2291:2541   */\n    tag_270:\n        /* \"#utility.yul\":2376:2377   */\n      0x00\n        /* \"#utility.yul\":2386:2499   */\n    tag_298:\n        /* \"#utility.yul\":2400:2406   */\n      dup4\n        /* \"#utility.yul\":2397:2398   */\n      dup2\n        /* \"#utility.yul\":2394:2407   */\n      lt\n        /* \"#utility.yul\":2386:2499   */\n      iszero\n      tag_300\n      jumpi\n        /* \"#utility.yul\":2476:2487   */\n      dup2\n      dup2\n      add\n        /* \"#utility.yul\":2470:2488   */\n      mload\n        /* \"#utility.yul\":2457:2468   */\n      dup4\n      dup3\n      add\n        /* \"#utility.yul\":2450:2489   */\n      mstore\n        /* \"#utility.yul\":2422:2424   */\n      0x20\n        /* \"#utility.yul\":2415:2425   */\n      add\n        /* \"#utility.yul\":2386:2499   */\n      jump(tag_298)\n    tag_300:\n      pop\n      pop\n        /* \"#utility.yul\":2533:2534   */\n      0x00\n        /* \"#utility.yul\":2515:2531   */\n      swap2\n      add\n        /* \"#utility.yul\":2508:2535   */\n      mstore\n        /* \"#utility.yul\":2291:2541   */\n      jump\t// out\n        /* \"#utility.yul\":2546:2833   */\n    tag_158:\n        /* \"#utility.yul\":2675:2678   */\n      0x00\n        /* \"#utility.yul\":2713:2719   */\n      dup3\n        /* \"#utility.yul\":2707:2720   */\n      mload\n        /* \"#utility.yul\":2729:2795   */\n      tag_302\n        /* \"#utility.yul\":2788:2794   */\n      dup2\n        /* \"#utility.yul\":2783:2786   */\n      dup5\n        /* \"#utility.yul\":2776:2780   */\n      0x20\n        /* \"#utility.yul\":2768:2774   */\n      dup8\n        /* \"#utility.yul\":2764:2781   */\n      add\n        /* \"#utility.yul\":2729:2795   */\n      tag_270\n      jump\t// in\n    tag_302:\n        /* \"#utility.yul\":2811:2827   */\n      swap2\n      swap1\n      swap2\n      add\n      swap3\n        /* \"#utility.yul\":2546:2833   */\n      swap2\n      pop\n      pop\n      jump\t// out\n        /* \"#utility.yul\":2838:3111   */\n    tag_163:\n        /* \"#utility.yul\":2906:2912   */\n      0x00\n        /* \"#utility.yul\":2959:2961   */\n      0x20\n        /* \"#utility.yul\":2947:2956   */\n      dup3\n        /* \"#utility.yul\":2938:2945   */\n      dup5\n        /* \"#utility.yul\":2934:2957   */\n      sub\n        /* \"#utility.yul\":2930:2962   */\n      slt\n        /* \"#utility.yul\":2927:2979   */\n      iszero\n      tag_304\n      jumpi\n        /* \"#utility.yul\":2975:2976   */\n      0x00\n        /* \"#utility.yul\":2972:2973   */\n      dup1\n        /* \"#utility.yul\":2965:2977   */\n      revert\n        /* \"#utility.yul\":2927:2979   */\n    tag_304:\n        /* \"#utility.yul\":3007:3016   */\n      dup2\n        /* \"#utility.yul\":3001:3017   */\n      mload\n        /* \"#utility.yul\":3057:3061   */\n      0xff\n        /* \"#utility.yul\":3050:3055   */\n      dup2\n        /* \"#utility.yul\":3046:3062   */\n      and\n        /* \"#utility.yul\":3039:3044   */\n      dup2\n        /* \"#utility.yul\":3036:3063   */\n      eq\n        /* \"#utility.yul\":3026:3081   */\n      tag_72\n      jumpi\n        /* \"#utility.yul\":3077:3078   */\n      0x00\n        /* \"#utility.yul\":3074:3075   */\n      dup1\n        /* \"#utility.yul\":3067:3079   */\n      revert\n        /* \"#utility.yul\":3961:4231   */\n    tag_271:\n        /* \"#utility.yul\":4002:4005   */\n      0x00\n        /* \"#utility.yul\":4040:4045   */\n      dup2\n        /* \"#utility.yul\":4034:4046   */\n      mload\n        /* \"#utility.yul\":4067:4073   */\n      dup1\n        /* \"#utility.yul\":4062:4065   */\n      dup5\n        /* \"#utility.yul\":4055:4074   */\n      mstore\n        /* \"#utility.yul\":4083:4159   */\n      tag_309\n        /* \"#utility.yul\":4152:4158   */\n      dup2\n        /* \"#utility.yul\":4145:4149   */\n      0x20\n        /* \"#utility.yul\":4140:4143   */\n      dup7\n        /* \"#utility.yul\":4136:4150   */\n      add\n        /* \"#utility.yul\":4129:4133   */\n      0x20\n        /* \"#utility.yul\":4122:4127   */\n      dup7\n        /* \"#utility.yul\":4118:4134   */\n      add\n        /* \"#utility.yul\":4083:4159   */\n      tag_270\n      jump\t// in\n    tag_309:\n        /* \"#utility.yul\":4213:4215   */\n      0x1f\n        /* \"#utility.yul\":4192:4207   */\n      add\n      not(0x1f)\n        /* \"#utility.yul\":4188:4217   */\n      and\n        /* \"#utility.yul\":4179:4218   */\n      swap3\n      swap1\n      swap3\n      add\n        /* \"#utility.yul\":4220:4224   */\n      0x20\n        /* \"#utility.yul\":4175:4225   */\n      add\n      swap3\n        /* \"#utility.yul\":3961:4231   */\n      swap2\n      pop\n      pop\n      jump\t// out\n        /* \"#utility.yul\":4236:4873   */\n    tag_188:\n        /* \"#utility.yul\":4557:4558   */\n      0x01\n        /* \"#utility.yul\":4553:4554   */\n      dup1\n        /* \"#utility.yul\":4548:4551   */\n      0xa0\n        /* \"#utility.yul\":4544:4555   */\n      shl\n        /* \"#utility.yul\":4540:4559   */\n      sub\n        /* \"#utility.yul\":4532:4538   */\n      dup8\n        /* \"#utility.yul\":4528:4560   */\n      and\n        /* \"#utility.yul\":4517:4526   */\n      dup2\n        /* \"#utility.yul\":4510:4561   */\n      mstore\n        /* \"#utility.yul\":4597:4603   */\n      dup6\n        /* \"#utility.yul\":4592:4594   */\n      0x20\n        /* \"#utility.yul\":4581:4590   */\n      dup3\n        /* \"#utility.yul\":4577:4595   */\n      add\n        /* \"#utility.yul\":4570:4604   */\n      mstore\n        /* \"#utility.yul\":4652:4658   */\n      0xffff\n        /* \"#utility.yul\":4644:4650   */\n      dup6\n        /* \"#utility.yul\":4640:4659   */\n      and\n        /* \"#utility.yul\":4635:4637   */\n      0x40\n        /* \"#utility.yul\":4624:4633   */\n      dup3\n        /* \"#utility.yul\":4620:4638   */\n      add\n        /* \"#utility.yul\":4613:4660   */\n      mstore\n        /* \"#utility.yul\":4696:4702   */\n      dup4\n        /* \"#utility.yul\":4691:4693   */\n      0x60\n        /* \"#utility.yul\":4680:4689   */\n      dup3\n        /* \"#utility.yul\":4676:4694   */\n      add\n        /* \"#utility.yul\":4669:4703   */\n      mstore\n        /* \"#utility.yul\":4752:4762   */\n      0xffffffff\n        /* \"#utility.yul\":4744:4750   */\n      dup4\n        /* \"#utility.yul\":4740:4763   */\n      and\n        /* \"#utility.yul\":4734:4737   */\n      0x80\n        /* \"#utility.yul\":4723:4732   */\n      dup3\n        /* \"#utility.yul\":4719:4738   */\n      add\n        /* \"#utility.yul\":4712:4764   */\n      mstore\n        /* \"#utility.yul\":4801:4804   */\n      0xc0\n        /* \"#utility.yul\":4795:4798   */\n      0xa0\n        /* \"#utility.yul\":4784:4793   */\n      dup3\n        /* \"#utility.yul\":4780:4799   */\n      add\n        /* \"#utility.yul\":4773:4805   */\n      mstore\n        /* \"#utility.yul\":4491:4495   */\n      0x00\n        /* \"#utility.yul\":4822:4867   */\n      tag_311\n        /* \"#utility.yul\":4862:4865   */\n      0xc0\n        /* \"#utility.yul\":4851:4860   */\n      dup4\n        /* \"#utility.yul\":4847:4866   */\n      add\n        /* \"#utility.yul\":4839:4845   */\n      dup5\n        /* \"#utility.yul\":4822:4867   */\n      tag_271\n      jump\t// in\n    tag_311:\n        /* \"#utility.yul\":4814:4867   */\n      swap9\n        /* \"#utility.yul\":4236:4873   */\n      swap8\n      pop\n      pop\n      pop\n      pop\n      pop\n      pop\n      pop\n      pop\n      jump\t// out\n        /* \"#utility.yul\":4878:5166   */\n    tag_192:\n        /* \"#utility.yul\":4947:4953   */\n      0x00\n        /* \"#utility.yul\":5000:5002   */\n      0x20\n        /* \"#utility.yul\":4988:4997   */\n      dup3\n        /* \"#utility.yul\":4979:4986   */\n      dup5\n        /* \"#utility.yul\":4975:4998   */\n      sub\n        /* \"#utility.yul\":4971:5003   */\n      slt\n        /* \"#utility.yul\":4968:5020   */\n      iszero\n      tag_313\n      jumpi\n        /* \"#utility.yul\":5016:5017   */\n      0x00\n        /* \"#utility.yul\":5013:5014   */\n      dup1\n        /* \"#utility.yul\":5006:5018   */\n      revert\n        /* \"#utility.yul\":4968:5020   */\n    tag_313:\n        /* \"#utility.yul\":5048:5057   */\n      dup2\n        /* \"#utility.yul\":5042:5058   */\n      mload\n        /* \"#utility.yul\":5098:5116   */\n      0xffffffffffffffff\n        /* \"#utility.yul\":5091:5096   */\n      dup2\n        /* \"#utility.yul\":5087:5117   */\n      and\n        /* \"#utility.yul\":5080:5085   */\n      dup2\n        /* \"#utility.yul\":5077:5118   */\n      eq\n        /* \"#utility.yul\":5067:5136   */\n      tag_72\n      jumpi\n        /* \"#utility.yul\":5132:5133   */\n      0x00\n        /* \"#utility.yul\":5129:5130   */\n      dup1\n        /* \"#utility.yul\":5122:5134   */\n      revert\n        /* \"#utility.yul\":5171:5561   */\n    tag_198:\n        /* \"#utility.yul\":5389:5399   */\n      0xffffffff\n        /* \"#utility.yul\":5381:5387   */\n      dup5\n        /* \"#utility.yul\":5377:5400   */\n      and\n        /* \"#utility.yul\":5366:5375   */\n      dup2\n        /* \"#utility.yul\":5359:5401   */\n      mstore\n        /* \"#utility.yul\":5437:5439   */\n      0x60\n        /* \"#utility.yul\":5432:5434   */\n      0x20\n        /* \"#utility.yul\":5421:5430   */\n      dup3\n        /* \"#utility.yul\":5417:5435   */\n      add\n        /* \"#utility.yul\":5410:5440   */\n      mstore\n        /* \"#utility.yul\":5340:5344   */\n      0x00\n        /* \"#utility.yul\":5457:5501   */\n      tag_316\n        /* \"#utility.yul\":5497:5499   */\n      0x60\n        /* \"#utility.yul\":5486:5495   */\n      dup4\n        /* \"#utility.yul\":5482:5500   */\n      add\n        /* \"#utility.yul\":5474:5480   */\n      dup6\n        /* \"#utility.yul\":5457:5501   */\n      tag_271\n      jump\t// in\n    tag_316:\n        /* \"#utility.yul\":5449:5501   */\n      swap1\n      pop\n        /* \"#utility.yul\":5549:5553   */\n      0xff\n        /* \"#utility.yul\":5541:5547   */\n      dup4\n        /* \"#utility.yul\":5537:5554   */\n      and\n        /* \"#utility.yul\":5532:5534   */\n      0x40\n        /* \"#utility.yul\":5521:5530   */\n      dup4\n        /* \"#utility.yul\":5517:5535   */\n      add\n        /* \"#utility.yul\":5510:5555   */\n      mstore\n        /* \"#utility.yul\":5171:5561   */\n      swap5\n      swap4\n      pop\n      pop\n      pop\n      pop\n      jump\t// out\n        /* \"#utility.yul\":5566:6033   */\n    tag_207:\n        /* \"#utility.yul\":5814:5820   */\n      0xffff\n        /* \"#utility.yul\":5806:5812   */\n      dup6\n        /* \"#utility.yul\":5802:5821   */\n      and\n        /* \"#utility.yul\":5791:5800   */\n      dup2\n        /* \"#utility.yul\":5784:5822   */\n      mstore\n        /* \"#utility.yul\":5858:5864   */\n      dup4\n        /* \"#utility.yul\":5853:5855   */\n      0x20\n        /* \"#utility.yul\":5842:5851   */\n      dup3\n        /* \"#utility.yul\":5838:5856   */\n      add\n        /* \"#utility.yul\":5831:5865   */\n      mstore\n        /* \"#utility.yul\":5913:5923   */\n      0xffffffff\n        /* \"#utility.yul\":5905:5911   */\n      dup4\n        /* \"#utility.yul\":5901:5924   */\n      and\n        /* \"#utility.yul\":5896:5898   */\n      0x40\n        /* \"#utility.yul\":5885:5894   */\n      dup3\n        /* \"#utility.yul\":5881:5899   */\n      add\n        /* \"#utility.yul\":5874:5925   */\n      mstore\n        /* \"#utility.yul\":5961:5964   */\n      0x80\n        /* \"#utility.yul\":5956:5958   */\n      0x60\n        /* \"#utility.yul\":5945:5954   */\n      dup3\n        /* \"#utility.yul\":5941:5959   */\n      add\n        /* \"#utility.yul\":5934:5965   */\n      mstore\n        /* \"#utility.yul\":5765:5769   */\n      0x00\n        /* \"#utility.yul\":5982:6027   */\n      tag_255\n        /* \"#utility.yul\":6022:6025   */\n      0x80\n        /* \"#utility.yul\":6011:6020   */\n      dup4\n        /* \"#utility.yul\":6007:6026   */\n      add\n        /* \"#utility.yul\":5999:6005   */\n      dup5\n        /* \"#utility.yul\":5982:6027   */\n      tag_271\n      jump\t// in\n        /* \"#utility.yul\":6038:6189   */\n    tag_214:\n        /* \"#utility.yul\":6128:6132   */\n      0xff\n        /* \"#utility.yul\":6121:6133   */\n      dup3\n      dup2\n      and\n        /* \"#utility.yul\":6107:6119   */\n      dup3\n      dup3\n      and\n        /* \"#utility.yul\":6103:6134   */\n      sub\n      swap1\n        /* \"#utility.yul\":6146:6160   */\n      dup2\n      gt\n        /* \"#utility.yul\":6143:6183   */\n      iszero\n      tag_201\n      jumpi\n        /* \"#utility.yul\":6163:6181   */\n      tag_201\n      tag_269\n      jump\t// in\n        /* \"#utility.yul\":6194:6610   */\n    tag_272:\n        /* \"#utility.yul\":6283:6284   */\n      0x01\n        /* \"#utility.yul\":6320:6325   */\n      dup2\n        /* \"#utility.yul\":6283:6284   */\n      dup2\n        /* \"#utility.yul\":6334:6604   */\n    tag_323:\n        /* \"#utility.yul\":6355:6362   */\n      dup1\n        /* \"#utility.yul\":6345:6353   */\n      dup6\n        /* \"#utility.yul\":6342:6363   */\n      gt\n        /* \"#utility.yul\":6334:6604   */\n      iszero\n      tag_325\n      jumpi\n        /* \"#utility.yul\":6414:6418   */\n      dup2\n        /* \"#utility.yul\":6410:6411   */\n      0x00\n        /* \"#utility.yul\":6406:6412   */\n      not\n        /* \"#utility.yul\":6402:6419   */\n      div\n        /* \"#utility.yul\":6396:6400   */\n      dup3\n        /* \"#utility.yul\":6393:6420   */\n      gt\n        /* \"#utility.yul\":6390:6443   */\n      iszero\n      tag_327\n      jumpi\n        /* \"#utility.yul\":6423:6441   */\n      tag_327\n      tag_269\n      jump\t// in\n    tag_327:\n        /* \"#utility.yul\":6473:6480   */\n      dup1\n        /* \"#utility.yul\":6463:6471   */\n      dup6\n        /* \"#utility.yul\":6459:6481   */\n      and\n        /* \"#utility.yul\":6456:6511   */\n      iszero\n      tag_328\n      jumpi\n        /* \"#utility.yul\":6493:6509   */\n      swap2\n      dup2\n      mul\n      swap2\n        /* \"#utility.yul\":6456:6511   */\n    tag_328:\n        /* \"#utility.yul\":6572:6594   */\n      swap4\n      dup5\n      shr\n      swap4\n        /* \"#utility.yul\":6532:6547   */\n      swap1\n      dup1\n      mul\n      swap1\n        /* \"#utility.yul\":6334:6604   */\n      jump(tag_323)\n    tag_325:\n        /* \"#utility.yul\":6338:6341   */\n      pop\n        /* \"#utility.yul\":6194:6610   */\n      swap3\n      pop\n      swap3\n      swap1\n      pop\n      jump\t// out\n        /* \"#utility.yul\":6615:7421   */\n    tag_273:\n        /* \"#utility.yul\":6664:6669   */\n      0x00\n        /* \"#utility.yul\":6694:6702   */\n      dup3\n        /* \"#utility.yul\":6684:6764   */\n      tag_330\n      jumpi\n      pop\n        /* \"#utility.yul\":6735:6736   */\n      0x01\n        /* \"#utility.yul\":6749:6754   */\n      jump(tag_201)\n        /* \"#utility.yul\":6684:6764   */\n    tag_330:\n        /* \"#utility.yul\":6783:6787   */\n      dup2\n        /* \"#utility.yul\":6773:6849   */\n      tag_331\n      jumpi\n      pop\n        /* \"#utility.yul\":6820:6821   */\n      0x00\n        /* \"#utility.yul\":6834:6839   */\n      jump(tag_201)\n        /* \"#utility.yul\":6773:6849   */\n    tag_331:\n        /* \"#utility.yul\":6865:6869   */\n      dup2\n        /* \"#utility.yul\":6883:6884   */\n      0x01\n        /* \"#utility.yul\":6878:6937   */\n      dup2\n      eq\n      tag_333\n      jumpi\n        /* \"#utility.yul\":6951:6952   */\n      0x02\n        /* \"#utility.yul\":6946:7076   */\n      dup2\n      eq\n      tag_334\n      jumpi\n        /* \"#utility.yul\":6858:7076   */\n      jump(tag_332)\n        /* \"#utility.yul\":6878:6937   */\n    tag_333:\n        /* \"#utility.yul\":6908:6909   */\n      0x01\n        /* \"#utility.yul\":6899:6909   */\n      swap2\n      pop\n        /* \"#utility.yul\":6922:6927   */\n      pop\n      jump(tag_201)\n        /* \"#utility.yul\":6946:7076   */\n    tag_334:\n        /* \"#utility.yul\":6983:6986   */\n      0xff\n        /* \"#utility.yul\":6973:6981   */\n      dup5\n        /* \"#utility.yul\":6970:6987   */\n      gt\n        /* \"#utility.yul\":6967:7010   */\n      iszero\n      tag_336\n      jumpi\n        /* \"#utility.yul\":6990:7008   */\n      tag_336\n      tag_269\n      jump\t// in\n    tag_336:\n      pop\n      pop\n        /* \"#utility.yul\":7046:7047   */\n      0x01\n        /* \"#utility.yul\":7032:7048   */\n      dup3\n      shl\n        /* \"#utility.yul\":7061:7066   */\n      jump(tag_201)\n        /* \"#utility.yul\":6858:7076   */\n    tag_332:\n      pop\n        /* \"#utility.yul\":7160:7162   */\n      0x20\n        /* \"#utility.yul\":7150:7158   */\n      dup4\n        /* \"#utility.yul\":7147:7163   */\n      lt\n        /* \"#utility.yul\":7141:7144   */\n      0x0133\n        /* \"#utility.yul\":7135:7139   */\n      dup4\n        /* \"#utility.yul\":7132:7145   */\n      lt\n        /* \"#utility.yul\":7128:7164   */\n      and\n        /* \"#utility.yul\":7122:7124   */\n      0x4e\n        /* \"#utility.yul\":7112:7120   */\n      dup5\n        /* \"#utility.yul\":7109:7125   */\n      lt\n        /* \"#utility.yul\":7104:7106   */\n      0x0b\n        /* \"#utility.yul\":7098:7102   */\n      dup5\n        /* \"#utility.yul\":7095:7107   */\n      lt\n        /* \"#utility.yul\":7091:7126   */\n      and\n        /* \"#utility.yul\":7088:7165   */\n      or\n        /* \"#utility.yul\":7085:7244   */\n      iszero\n      tag_337\n      jumpi\n      pop\n        /* \"#utility.yul\":7197:7216   */\n      dup2\n      dup2\n      exp\n        /* \"#utility.yul\":7229:7234   */\n      jump(tag_201)\n        /* \"#utility.yul\":7085:7244   */\n    tag_337:\n        /* \"#utility.yul\":7276:7310   */\n      tag_338\n        /* \"#utility.yul\":7301:7309   */\n      dup4\n        /* \"#utility.yul\":7295:7299   */\n      dup4\n        /* \"#utility.yul\":7276:7310   */\n      tag_272\n      jump\t// in\n    tag_338:\n        /* \"#utility.yul\":7346:7352   */\n      dup1\n        /* \"#utility.yul\":7342:7343   */\n      0x00\n        /* \"#utility.yul\":7338:7344   */\n      not\n        /* \"#utility.yul\":7334:7353   */\n      div\n        /* \"#utility.yul\":7325:7332   */\n      dup3\n        /* \"#utility.yul\":7322:7354   */\n      gt\n        /* \"#utility.yul\":7319:7377   */\n      iszero\n      tag_340\n      jumpi\n        /* \"#utility.yul\":7357:7375   */\n      tag_340\n      tag_269\n      jump\t// in\n    tag_340:\n        /* \"#utility.yul\":7395:7415   */\n      mul\n      swap4\n        /* \"#utility.yul\":6615:7421   */\n      swap3\n      pop\n      pop\n      pop\n      jump\t// out\n        /* \"#utility.yul\":7426:7566   */\n    tag_216:\n        /* \"#utility.yul\":7484:7489   */\n      0x00\n        /* \"#utility.yul\":7513:7560   */\n      tag_72\n        /* \"#utility.yul\":7554:7558   */\n      0xff\n        /* \"#utility.yul\":7544:7552   */\n      dup5\n        /* \"#utility.yul\":7540:7559   */\n      and\n        /* \"#utility.yul\":7534:7538   */\n      dup4\n        /* \"#utility.yul\":7513:7560   */\n      tag_273\n      jump\t// in\n        /* \"#utility.yul\":7571:7788   */\n    tag_218:\n        /* \"#utility.yul\":7611:7612   */\n      0x00\n        /* \"#utility.yul\":7637:7638   */\n      dup3\n        /* \"#utility.yul\":7627:7759   */\n      tag_344\n      jumpi\n        /* \"#utility.yul\":7681:7691   */\n      0x4e487b71\n        /* \"#utility.yul\":7676:7679   */\n      0xe0\n        /* \"#utility.yul\":7672:7692   */\n      shl\n        /* \"#utility.yul\":7669:7670   */\n      0x00\n        /* \"#utility.yul\":7662:7693   */\n      mstore\n        /* \"#utility.yul\":7716:7720   */\n      0x12\n        /* \"#utility.yul\":7713:7714   */\n      0x04\n        /* \"#utility.yul\":7706:7721   */\n      mstore\n        /* \"#utility.yul\":7744:7748   */\n      0x24\n        /* \"#utility.yul\":7741:7742   */\n      0x00\n        /* \"#utility.yul\":7734:7749   */\n      revert\n        /* \"#utility.yul\":7627:7759   */\n    tag_344:\n      pop\n        /* \"#utility.yul\":7773:7782   */\n      div\n      swap1\n        /* \"#utility.yul\":7571:7788   */\n      jump\t// out\n        /* \"#utility.yul\":7793:7961   */\n    tag_224:\n        /* \"#utility.yul\":7866:7875   */\n      dup1\n      dup3\n      mul\n        /* \"#utility.yul\":7897:7906   */\n      dup2\n      iszero\n        /* \"#utility.yul\":7914:7929   */\n      dup3\n      dup3\n      div\n        /* \"#utility.yul\":7908:7930   */\n      dup5\n      eq\n        /* \"#utility.yul\":7894:7931   */\n      or\n        /* \"#utility.yul\":7884:7955   */\n      tag_201\n      jumpi\n        /* \"#utility.yul\":7935:7953   */\n      tag_201\n      tag_269\n      jump\t// in\n        /* \"#utility.yul\":8625:8902   */\n    tag_242:\n        /* \"#utility.yul\":8692:8698   */\n      0x00\n        /* \"#utility.yul\":8745:8747   */\n      0x20\n        /* \"#utility.yul\":8733:8742   */\n      dup3\n        /* \"#utility.yul\":8724:8731   */\n      dup5\n        /* \"#utility.yul\":8720:8743   */\n      sub\n        /* \"#utility.yul\":8716:8748   */\n      slt\n        /* \"#utility.yul\":8713:8765   */\n      iszero\n      tag_351\n      jumpi\n        /* \"#utility.yul\":8761:8762   */\n      0x00\n        /* \"#utility.yul\":8758:8759   */\n      dup1\n        /* \"#utility.yul\":8751:8763   */\n      revert\n        /* \"#utility.yul\":8713:8765   */\n    tag_351:\n        /* \"#utility.yul\":8793:8802   */\n      dup2\n        /* \"#utility.yul\":8787:8803   */\n      mload\n        /* \"#utility.yul\":8846:8851   */\n      dup1\n        /* \"#utility.yul\":8839:8852   */\n      iszero\n        /* \"#utility.yul\":8832:8853   */\n      iszero\n        /* \"#utility.yul\":8825:8830   */\n      dup2\n        /* \"#utility.yul\":8822:8854   */\n      eq\n        /* \"#utility.yul\":8812:8872   */\n      tag_72\n      jumpi\n        /* \"#utility.yul\":8868:8869   */\n      0x00\n        /* \"#utility.yul\":8865:8866   */\n      dup1\n        /* \"#utility.yul\":8858:8870   */\n      revert\n\n    auxdata: 0xa2646970667358221220bdcedf95167010ae6ad5e97d6d3cf80c6054cdc5aa9b6add6af0e653f5dab7aa64736f6c63430008170033\n}\n",
				"bytecode": {
					"linkReferences": {},
					"object": "608060405234801561000f575f80fd5b5060405162000fbb38038062000fbb833981016040819052610030916100ec565b5f805461ffff191661ffff87161790555f805462010000600160b01b031916620100006001600160a01b03871602179055600180546001600160a01b0319166001600160a01b0385161790556002805462ffff00191661010061ffff851602179055600280546301000000600160b81b03191663010000006001600160a01b03841602179055505050505061014d565b805161ffff811681146100d1575f80fd5b919050565b80516001600160a01b03811681146100d1575f80fd5b5f805f805f60a08688031215610100575f80fd5b610109866100c0565b9450610117602087016100d6565b9350610125604087016100d6565b9250610133606087016100c0565b9150610141608087016100d6565b90509295509295909350565b610e60806200015b5f395ff3fe608060405260043610610083575f3560e01c80639a8a0592116100575780639a8a05921461010a578063a5d5db0c1461012b578063c6328a461461014a578063e18849191461014a578063edba820914610171575f80fd5b80624702571461008757806322867d78146100ad578063350c35e9146100cc5780634b8a3529146100eb575b5f80fd5b61008f610179565b60405167ffffffffffffffff90911681526020015b60405180910390f35b3480156100b8575f80fd5b5061008f6100c7366004610ac8565b610274565b3480156100d7575f80fd5b5061008f6100e6366004610ac8565b610288565b3480156100f6575f80fd5b5061008f610105366004610ac8565b610295565b348015610115575f80fd5b505f5460405161ffff90911681526020016100a4565b348015610136575f80fd5b5061008f610145366004610ac8565b6102a2565b348015610155575f80fd5b506001546040516001600160a01b0390911681526020016100a4565b61008f6102ae565b5f61026f60046101916001546001600160a01b031690565b6001600160a01b031663ad5c46486040518163ffffffff1660e01b8152600401602060405180830381865afa1580156101cc573d5f803e3d5ffd5b505050506040513d601f19601f820116820180604052508101906101f09190610af2565b5f546201000090046001600160a01b03166001600160a01b0316631a90a2196040518163ffffffff1660e01b8152600401602060405180830381865afa15801561023c573d5f803e3d5ffd5b505050506040513d601f19601f820116820180604052508101906102609190610b0d565b61026a9034610b38565b6102c6565b905090565b5f610281600384846102c6565b9392505050565b5f610281600284846102c6565b5f610281600184846102c6565b5f6102815f84846102c6565b5f61026f60056101916001546001600160a01b031690565b5f6102d183836104a1565b8360048560058111156102e6576102e6610b4b565b036102ee57505f5b600585600581111561030257610302610b4b565b0361030b575060035b5f604051806080016040528083600581111561032957610329610b4b565b81523360208201526001600160a01b038716604082015260600185905290505f610352826105a6565b90505f87600581111561036757610367610b4b565b14806103845750600387600581111561038257610382610b4b565b145b1561039b57610394868683610631565b9350610497565b60028760058111156103af576103af610b4b565b14806103cc575060018760058111156103ca576103ca610b4b565b145b156103da576103948161070c565b60048760058111156103ee576103ee610b4b565b148061040b5750600587600581111561040957610409610b4b565b145b15610497575f54610494906201000090046001600160a01b03166001600160a01b0316631a90a2196040518163ffffffff1660e01b8152600401602060405180830381865afa158015610460573d5f803e3d5ffd5b505050506040513d601f19601f820116820180604052508101906104849190610b0d565b61048e9087610b5f565b8261079e565b93505b5050509392505050565b60408051600481526024810182526020810180516001600160e01b031663313ce56760e01b17905290515f916001600160a01b038516916104e29190610b94565b5f60405180830381855afa9150503d805f811461051a576040519150601f19603f3d011682016040523d82523d5f602084013e61051f565b606091505b509150505f818060200190518101906105389190610baf565b90508261054e610548858461084d565b83610884565b146105a05760405162461bcd60e51b815260206004820152601760248201527f546f6f206d616e7920646563696d616c20706c6163657300000000000000000060448201526064015b60405180910390fd5b50505050565b805160609060058111156105bc576105bc610b4b565b82602001518360400151846060015160405160200161061b949392919060f89490941b6001600160f81b0319168452606092831b6bffffffffffffffffffffffff1990811660018601529190921b166015830152602982015260490190565b6040516020818303038152906040529050919050565b5f61063e843330866108b1565b61065a846106546001546001600160a01b031690565b85610918565b6001546001600160a01b03166001600160a01b031663c5a5ebda858561068960025461ffff6101009091041690565b6002546040516001600160e01b031960e087901b1681526106c494939291630100000090046001600160a01b0316905f908a90600401610bfa565b6020604051808303815f875af11580156106e0573d5f803e3d5ffd5b505050506040513d601f19601f820116820180604052508101906107049190610c48565b949350505050565b5f80546201000090046001600160a01b03166001600160a01b031663b19a437e5f8461073a60025460ff1690565b6040518463ffffffff1660e01b815260040161075893929190610c6f565b6020604051808303815f875af1158015610774573d5f803e3d5ffd5b505050506040513d601f19601f820116820180604052508101906107989190610c48565b92915050565b5f6107b16001546001600160a01b031690565b6001600160a01b031663bee9cdfc846107d360025461ffff6101009091041690565b6002546040516001600160e01b031960e086901b16815261080c9291630100000090046001600160a01b0316905f908990600401610ca0565b60206040518083038185885af1158015610828573d5f803e3d5ffd5b50505050506040513d601f19601f820116820180604052508101906102819190610c48565b5f60088260ff16111561087d57610865600883610cce565b61087090600a610dc7565b61087a9084610dd5565b92505b5090919050565b5f60088260ff16111561087d5761089c600883610cce565b6108a790600a610dc7565b61087a9084610df4565b6040516001600160a01b0384811660248301528381166044830152606482018390526105a09186918216906323b872dd906084015b604051602081830303815290604052915060e01b6020820180516001600160e01b03838183161783525050505061094e565b6040516001600160a01b0383811660248301526044820183905261094991859182169063a9059cbb906064016108e6565b505050565b5f6109626001600160a01b038416836109af565b905080515f141580156109865750808060200190518101906109849190610e0b565b155b1561094957604051635274afe760e01b81526001600160a01b0384166004820152602401610597565b606061028183835f845f80856001600160a01b031684866040516109d39190610b94565b5f6040518083038185875af1925050503d805f8114610a0d576040519150601f19603f3d011682016040523d82523d5f602084013e610a12565b606091505b5091509150610a22868383610a2c565b9695505050505050565b606082610a4157610a3c82610a88565b610281565b8151158015610a5857506001600160a01b0384163b155b15610a8157604051639996b31560e01b81526001600160a01b0385166004820152602401610597565b5080610281565b805115610a985780518082602001fd5b604051630a12f52160e11b815260040160405180910390fd5b50565b6001600160a01b0381168114610ab1575f80fd5b5f8060408385031215610ad9575f80fd5b8235610ae481610ab4565b946020939093013593505050565b5f60208284031215610b02575f80fd5b815161028181610ab4565b5f60208284031215610b1d575f80fd5b5051919050565b634e487b7160e01b5f52601160045260245ffd5b8181038181111561079857610798610b24565b634e487b7160e01b5f52602160045260245ffd5b8082018082111561079857610798610b24565b5f5b83811015610b8c578181015183820152602001610b74565b50505f910152565b5f8251610ba5818460208701610b72565b9190910192915050565b5f60208284031215610bbf575f80fd5b815160ff81168114610281575f80fd5b5f8151808452610be6816020860160208601610b72565b601f01601f19169290920160200192915050565b60018060a01b038716815285602082015261ffff8516604082015283606082015263ffffffff8316608082015260c060a08201525f610c3c60c0830184610bcf565b98975050505050505050565b5f60208284031215610c58575f80fd5b815167ffffffffffffffff81168114610281575f80fd5b63ffffffff84168152606060208201525f610c8d6060830185610bcf565b905060ff83166040830152949350505050565b61ffff8516815283602082015263ffffffff83166040820152608060608201525f610a226080830184610bcf565b60ff828116828216039081111561079857610798610b24565b600181815b80851115610d2157815f1904821115610d0757610d07610b24565b80851615610d1457918102915b93841c9390800290610cec565b509250929050565b5f82610d3757506001610798565b81610d4357505f610798565b8160018114610d595760028114610d6357610d7f565b6001915050610798565b60ff841115610d7457610d74610b24565b50506001821b610798565b5060208310610133831016604e8410600b8410161715610da2575081810a610798565b610dac8383610ce7565b805f1904821115610dbf57610dbf610b24565b029392505050565b5f61028160ff841683610d29565b5f82610def57634e487b7160e01b5f52601260045260245ffd5b500490565b808202811582820484141761079857610798610b24565b5f60208284031215610e1b575f80fd5b81518015158114610281575f80fdfea2646970667358221220bdcedf95167010ae6ad5e97d6d3cf80c6054cdc5aa9b6add6af0e653f5dab7aa64736f6c63430008170033",
					"opcodes": "PUSH1 0x80 PUSH1 0x40 MSTORE CALLVALUE DUP1 ISZERO PUSH2 0xF JUMPI PUSH0 DUP1 REVERT JUMPDEST POP PUSH1 0x40 MLOAD PUSH3 0xFBB CODESIZE SUB DUP1 PUSH3 0xFBB DUP4 CODECOPY DUP2 ADD PUSH1 0x40 DUP2 SWAP1 MSTORE PUSH2 0x30 SWAP2 PUSH2 0xEC JUMP JUMPDEST PUSH0 DUP1 SLOAD PUSH2 0xFFFF NOT AND PUSH2 0xFFFF DUP8 AND OR SWAP1 SSTORE PUSH0 DUP1 SLOAD PUSH3 0x10000 PUSH1 0x1 PUSH1 0xB0 SHL SUB NOT AND PUSH3 0x10000 PUSH1 0x1 PUSH1 0x1 PUSH1 0xA0 SHL SUB DUP8 AND MUL OR SWAP1 SSTORE PUSH1 0x1 DUP1 SLOAD PUSH1 0x1 PUSH1 0x1 PUSH1 0xA0 SHL SUB NOT AND PUSH1 0x1 PUSH1 0x1 PUSH1 0xA0 SHL SUB DUP6 AND OR SWAP1 SSTORE PUSH1 0x2 DUP1 SLOAD PUSH3 0xFFFF00 NOT AND PUSH2 0x100 PUSH2 0xFFFF DUP6 AND MUL OR SWAP1 SSTORE PUSH1 0x2 DUP1 SLOAD PUSH4 0x1000000 PUSH1 0x1 PUSH1 0xB8 SHL SUB NOT AND PUSH4 0x1000000 PUSH1 0x1 PUSH1 0x1 PUSH1 0xA0 SHL SUB DUP5 AND MUL OR SWAP1 SSTORE POP POP POP POP POP PUSH2 0x14D JUMP JUMPDEST DUP1 MLOAD PUSH2 0xFFFF DUP2 AND DUP2 EQ PUSH2 0xD1 JUMPI PUSH0 DUP1 REVERT JUMPDEST SWAP2 SWAP1 POP JUMP JUMPDEST DUP1 MLOAD PUSH1 0x1 PUSH1 0x1 PUSH1 0xA0 SHL SUB DUP2 AND DUP2 EQ PUSH2 0xD1 JUMPI PUSH0 DUP1 REVERT JUMPDEST PUSH0 DUP1 PUSH0 DUP1 PUSH0 PUSH1 0xA0 DUP7 DUP9 SUB SLT ISZERO PUSH2 0x100 JUMPI PUSH0 DUP1 REVERT JUMPDEST PUSH2 0x109 DUP7 PUSH2 0xC0 JUMP JUMPDEST SWAP5 POP PUSH2 0x117 PUSH1 0x20 DUP8 ADD PUSH2 0xD6 JUMP JUMPDEST SWAP4 POP PUSH2 0x125 PUSH1 0x40 DUP8 ADD PUSH2 0xD6 JUMP JUMPDEST SWAP3 POP PUSH2 0x133 PUSH1 0x60 DUP8 ADD PUSH2 0xC0 JUMP JUMPDEST SWAP2 POP PUSH2 0x141 PUSH1 0x80 DUP8 ADD PUSH2 0xD6 JUMP JUMPDEST SWAP1 POP SWAP3 SWAP6 POP SWAP3 SWAP6 SWAP1 SWAP4 POP JUMP JUMPDEST PUSH2 0xE60 DUP1 PUSH3 0x15B PUSH0 CODECOPY PUSH0 RETURN INVALID PUSH1 0x80 PUSH1 0x40 MSTORE PUSH1 0x4 CALLDATASIZE LT PUSH2 0x83 JUMPI PUSH0 CALLDATALOAD PUSH1 0xE0 SHR DUP1 PUSH4 0x9A8A0592 GT PUSH2 0x57 JUMPI DUP1 PUSH4 0x9A8A0592 EQ PUSH2 0x10A JUMPI DUP1 PUSH4 0xA5D5DB0C EQ PUSH2 0x12B JUMPI DUP1 PUSH4 0xC6328A46 EQ PUSH2 0x14A JUMPI DUP1 PUSH4 0xE1884919 EQ PUSH2 0x14A JUMPI DUP1 PUSH4 0xEDBA8209 EQ PUSH2 0x171 JUMPI PUSH0 DUP1 REVERT JUMPDEST DUP1 PUSH3 0x470257 EQ PUSH2 0x87 JUMPI DUP1 PUSH4 0x22867D78 EQ PUSH2 0xAD JUMPI DUP1 PUSH4 0x350C35E9 EQ PUSH2 0xCC JUMPI DUP1 PUSH4 0x4B8A3529 EQ PUSH2 0xEB JUMPI JUMPDEST PUSH0 DUP1 REVERT JUMPDEST PUSH2 0x8F PUSH2 0x179 JUMP JUMPDEST PUSH1 0x40 MLOAD PUSH8 0xFFFFFFFFFFFFFFFF SWAP1 SWAP2 AND DUP2 MSTORE PUSH1 0x20 ADD JUMPDEST PUSH1 0x40 MLOAD DUP1 SWAP2 SUB SWAP1 RETURN JUMPDEST CALLVALUE DUP1 ISZERO PUSH2 0xB8 JUMPI PUSH0 DUP1 REVERT JUMPDEST POP PUSH2 0x8F PUSH2 0xC7 CALLDATASIZE PUSH1 0x4 PUSH2 0xAC8 JUMP JUMPDEST PUSH2 0x274 JUMP JUMPDEST CALLVALUE DUP1 ISZERO PUSH2 0xD7 JUMPI PUSH0 DUP1 REVERT JUMPDEST POP PUSH2 0x8F PUSH2 0xE6 CALLDATASIZE PUSH1 0x4 PUSH2 0xAC8 JUMP JUMPDEST PUSH2 0x288 JUMP JUMPDEST CALLVALUE DUP1 ISZERO PUSH2 0xF6 JUMPI PUSH0 DUP1 REVERT JUMPDEST POP PUSH2 0x8F PUSH2 0x105 CALLDATASIZE PUSH1 0x4 PUSH2 0xAC8 JUMP JUMPDEST PUSH2 0x295 JUMP JUMPDEST CALLVALUE DUP1 ISZERO PUSH2 0x115 JUMPI PUSH0 DUP1 REVERT JUMPDEST POP PUSH0 SLOAD PUSH1 0x40 MLOAD PUSH2 0xFFFF SWAP1 SWAP2 AND DUP2 MSTORE PUSH1 0x20 ADD PUSH2 0xA4 JUMP JUMPDEST CALLVALUE DUP1 ISZERO PUSH2 0x136 JUMPI PUSH0 DUP1 REVERT JUMPDEST POP PUSH2 0x8F PUSH2 0x145 CALLDATASIZE PUSH1 0x4 PUSH2 0xAC8 JUMP JUMPDEST PUSH2 0x2A2 JUMP JUMPDEST CALLVALUE DUP1 ISZERO PUSH2 0x155 JUMPI PUSH0 DUP1 REVERT JUMPDEST POP PUSH1 0x1 SLOAD PUSH1 0x40 MLOAD PUSH1 0x1 PUSH1 0x1 PUSH1 0xA0 SHL SUB SWAP1 SWAP2 AND DUP2 MSTORE PUSH1 0x20 ADD PUSH2 0xA4 JUMP JUMPDEST PUSH2 0x8F PUSH2 0x2AE JUMP JUMPDEST PUSH0 PUSH2 0x26F PUSH1 0x4 PUSH2 0x191 PUSH1 0x1 SLOAD PUSH1 0x1 PUSH1 0x1 PUSH1 0xA0 SHL SUB AND SWAP1 JUMP JUMPDEST PUSH1 0x1 PUSH1 0x1 PUSH1 0xA0 SHL SUB AND PUSH4 0xAD5C4648 PUSH1 0x40 MLOAD DUP2 PUSH4 0xFFFFFFFF AND PUSH1 0xE0 SHL DUP2 MSTORE PUSH1 0x4 ADD PUSH1 0x20 PUSH1 0x40 MLOAD DUP1 DUP4 SUB DUP2 DUP7 GAS STATICCALL ISZERO DUP1 ISZERO PUSH2 0x1CC JUMPI RETURNDATASIZE PUSH0 DUP1 RETURNDATACOPY RETURNDATASIZE PUSH0 REVERT JUMPDEST POP POP POP POP PUSH1 0x40 MLOAD RETURNDATASIZE PUSH1 0x1F NOT PUSH1 0x1F DUP3 ADD AND DUP3 ADD DUP1 PUSH1 0x40 MSTORE POP DUP2 ADD SWAP1 PUSH2 0x1F0 SWAP2 SWAP1 PUSH2 0xAF2 JUMP JUMPDEST PUSH0 SLOAD PUSH3 0x10000 SWAP1 DIV PUSH1 0x1 PUSH1 0x1 PUSH1 0xA0 SHL SUB AND PUSH1 0x1 PUSH1 0x1 PUSH1 0xA0 SHL SUB AND PUSH4 0x1A90A219 PUSH1 0x40 MLOAD DUP2 PUSH4 0xFFFFFFFF AND PUSH1 0xE0 SHL DUP2 MSTORE PUSH1 0x4 ADD PUSH1 0x20 PUSH1 0x40 MLOAD DUP1 DUP4 SUB DUP2 DUP7 GAS STATICCALL ISZERO DUP1 ISZERO PUSH2 0x23C JUMPI RETURNDATASIZE PUSH0 DUP1 RETURNDATACOPY RETURNDATASIZE PUSH0 REVERT JUMPDEST POP POP POP POP PUSH1 0x40 MLOAD RETURNDATASIZE PUSH1 0x1F NOT PUSH1 0x1F DUP3 ADD AND DUP3 ADD DUP1 PUSH1 0x40 MSTORE POP DUP2 ADD SWAP1 PUSH2 0x260 SWAP2 SWAP1 PUSH2 0xB0D JUMP JUMPDEST PUSH2 0x26A SWAP1 CALLVALUE PUSH2 0xB38 JUMP JUMPDEST PUSH2 0x2C6 JUMP JUMPDEST SWAP1 POP SWAP1 JUMP JUMPDEST PUSH0 PUSH2 0x281 PUSH1 0x3 DUP5 DUP5 PUSH2 0x2C6 JUMP JUMPDEST SWAP4 SWAP3 POP POP POP JUMP JUMPDEST PUSH0 PUSH2 0x281 PUSH1 0x2 DUP5 DUP5 PUSH2 0x2C6 JUMP JUMPDEST PUSH0 PUSH2 0x281 PUSH1 0x1 DUP5 DUP5 PUSH2 0x2C6 JUMP JUMPDEST PUSH0 PUSH2 0x281 PUSH0 DUP5 DUP5 PUSH2 0x2C6 JUMP JUMPDEST PUSH0 PUSH2 0x26F PUSH1 0x5 PUSH2 0x191 PUSH1 0x1 SLOAD PUSH1 0x1 PUSH1 0x1 PUSH1 0xA0 SHL SUB AND SWAP1 JUMP JUMPDEST PUSH0 PUSH2 0x2D1 DUP4 DUP4 PUSH2 0x4A1 JUMP JUMPDEST DUP4 PUSH1 0x4 DUP6 PUSH1 0x5 DUP2 GT ISZERO PUSH2 0x2E6 JUMPI PUSH2 0x2E6 PUSH2 0xB4B JUMP JUMPDEST SUB PUSH2 0x2EE JUMPI POP PUSH0 JUMPDEST PUSH1 0x5 DUP6 PUSH1 0x5 DUP2 GT ISZERO PUSH2 0x302 JUMPI PUSH2 0x302 PUSH2 0xB4B JUMP JUMPDEST SUB PUSH2 0x30B JUMPI POP PUSH1 0x3 JUMPDEST PUSH0 PUSH1 0x40 MLOAD DUP1 PUSH1 0x80 ADD PUSH1 0x40 MSTORE DUP1 DUP4 PUSH1 0x5 DUP2 GT ISZERO PUSH2 0x329 JUMPI PUSH2 0x329 PUSH2 0xB4B JUMP JUMPDEST DUP2 MSTORE CALLER PUSH1 0x20 DUP3 ADD MSTORE PUSH1 0x1 PUSH1 0x1 PUSH1 0xA0 SHL SUB DUP8 AND PUSH1 0x40 DUP3 ADD MSTORE PUSH1 0x60 ADD DUP6 SWAP1 MSTORE SWAP1 POP PUSH0 PUSH2 0x352 DUP3 PUSH2 0x5A6 JUMP JUMPDEST SWAP1 POP PUSH0 DUP8 PUSH1 0x5 DUP2 GT ISZERO PUSH2 0x367 JUMPI PUSH2 0x367 PUSH2 0xB4B JUMP JUMPDEST EQ DUP1 PUSH2 0x384 JUMPI POP PUSH1 0x3 DUP8 PUSH1 0x5 DUP2 GT ISZERO PUSH2 0x382 JUMPI PUSH2 0x382 PUSH2 0xB4B JUMP JUMPDEST EQ JUMPDEST ISZERO PUSH2 0x39B JUMPI PUSH2 0x394 DUP7 DUP7 DUP4 PUSH2 0x631 JUMP JUMPDEST SWAP4 POP PUSH2 0x497 JUMP JUMPDEST PUSH1 0x2 DUP8 PUSH1 0x5 DUP2 GT ISZERO PUSH2 0x3AF JUMPI PUSH2 0x3AF PUSH2 0xB4B JUMP JUMPDEST EQ DUP1 PUSH2 0x3CC JUMPI POP PUSH1 0x1 DUP8 PUSH1 0x5 DUP2 GT ISZERO PUSH2 0x3CA JUMPI PUSH2 0x3CA PUSH2 0xB4B JUMP JUMPDEST EQ JUMPDEST ISZERO PUSH2 0x3DA JUMPI PUSH2 0x394 DUP2 PUSH2 0x70C JUMP JUMPDEST PUSH1 0x4 DUP8 PUSH1 0x5 DUP2 GT ISZERO PUSH2 0x3EE JUMPI PUSH2 0x3EE PUSH2 0xB4B JUMP JUMPDEST EQ DUP1 PUSH2 0x40B JUMPI POP PUSH1 0x5 DUP8 PUSH1 0x5 DUP2 GT ISZERO PUSH2 0x409 JUMPI PUSH2 0x409 PUSH2 0xB4B JUMP JUMPDEST EQ JUMPDEST ISZERO PUSH2 0x497 JUMPI PUSH0 SLOAD PUSH2 0x494 SWAP1 PUSH3 0x10000 SWAP1 DIV PUSH1 0x1 PUSH1 0x1 PUSH1 0xA0 SHL SUB AND PUSH1 0x1 PUSH1 0x1 PUSH1 0xA0 SHL SUB AND PUSH4 0x1A90A219 PUSH1 0x40 MLOAD DUP2 PUSH4 0xFFFFFFFF AND PUSH1 0xE0 SHL DUP2 MSTORE PUSH1 0x4 ADD PUSH1 0x20 PUSH1 0x40 MLOAD DUP1 DUP4 SUB DUP2 DUP7 GAS STATICCALL ISZERO DUP1 ISZERO PUSH2 0x460 JUMPI RETURNDATASIZE PUSH0 DUP1 RETURNDATACOPY RETURNDATASIZE PUSH0 REVERT JUMPDEST POP POP POP POP PUSH1 0x40 MLOAD RETURNDATASIZE PUSH1 0x1F NOT PUSH1 0x1F DUP3 ADD AND DUP3 ADD DUP1 PUSH1 0x40 MSTORE POP DUP2 ADD SWAP1 PUSH2 0x484 SWAP2 SWAP1 PUSH2 0xB0D JUMP JUMPDEST PUSH2 0x48E SWAP1 DUP8 PUSH2 0xB5F JUMP JUMPDEST DUP3 PUSH2 0x79E JUMP JUMPDEST SWAP4 POP JUMPDEST POP POP POP SWAP4 SWAP3 POP POP POP JUMP JUMPDEST PUSH1 0x40 DUP1 MLOAD PUSH1 0x4 DUP2 MSTORE PUSH1 0x24 DUP2 ADD DUP3 MSTORE PUSH1 0x20 DUP2 ADD DUP1 MLOAD PUSH1 0x1 PUSH1 0x1 PUSH1 0xE0 SHL SUB AND PUSH4 0x313CE567 PUSH1 0xE0 SHL OR SWAP1 MSTORE SWAP1 MLOAD PUSH0 SWAP2 PUSH1 0x1 PUSH1 0x1 PUSH1 0xA0 SHL SUB DUP6 AND SWAP2 PUSH2 0x4E2 SWAP2 SWAP1 PUSH2 0xB94 JUMP JUMPDEST PUSH0 PUSH1 0x40 MLOAD DUP1 DUP4 SUB DUP2 DUP6 GAS STATICCALL SWAP2 POP POP RETURNDATASIZE DUP1 PUSH0 DUP2 EQ PUSH2 0x51A JUMPI PUSH1 0x40 MLOAD SWAP2 POP PUSH1 0x1F NOT PUSH1 0x3F RETURNDATASIZE ADD AND DUP3 ADD PUSH1 0x40 MSTORE RETURNDATASIZE DUP3 MSTORE RETURNDATASIZE PUSH0 PUSH1 0x20 DUP5 ADD RETURNDATACOPY PUSH2 0x51F JUMP JUMPDEST PUSH1 0x60 SWAP2 POP JUMPDEST POP SWAP2 POP POP PUSH0 DUP2 DUP1 PUSH1 0x20 ADD SWAP1 MLOAD DUP2 ADD SWAP1 PUSH2 0x538 SWAP2 SWAP1 PUSH2 0xBAF JUMP JUMPDEST SWAP1 POP DUP3 PUSH2 0x54E PUSH2 0x548 DUP6 DUP5 PUSH2 0x84D JUMP JUMPDEST DUP4 PUSH2 0x884 JUMP JUMPDEST EQ PUSH2 0x5A0 JUMPI PUSH1 0x40 MLOAD PUSH3 0x461BCD PUSH1 0xE5 SHL DUP2 MSTORE PUSH1 0x20 PUSH1 0x4 DUP3 ADD MSTORE PUSH1 0x17 PUSH1 0x24 DUP3 ADD MSTORE PUSH32 0x546F6F206D616E7920646563696D616C20706C61636573000000000000000000 PUSH1 0x44 DUP3 ADD MSTORE PUSH1 0x64 ADD JUMPDEST PUSH1 0x40 MLOAD DUP1 SWAP2 SUB SWAP1 REVERT JUMPDEST POP POP POP POP JUMP JUMPDEST DUP1 MLOAD PUSH1 0x60 SWAP1 PUSH1 0x5 DUP2 GT ISZERO PUSH2 0x5BC JUMPI PUSH2 0x5BC PUSH2 0xB4B JUMP JUMPDEST DUP3 PUSH1 0x20 ADD MLOAD DUP4 PUSH1 0x40 ADD MLOAD DUP5 PUSH1 0x60 ADD MLOAD PUSH1 0x40 MLOAD PUSH1 0x20 ADD PUSH2 0x61B SWAP5 SWAP4 SWAP3 SWAP2 SWAP1 PUSH1 0xF8 SWAP5 SWAP1 SWAP5 SHL PUSH1 0x1 PUSH1 0x1 PUSH1 0xF8 SHL SUB NOT AND DUP5 MSTORE PUSH1 0x60 SWAP3 DUP4 SHL PUSH12 0xFFFFFFFFFFFFFFFFFFFFFFFF NOT SWAP1 DUP2 AND PUSH1 0x1 DUP7 ADD MSTORE SWAP2 SWAP1 SWAP3 SHL AND PUSH1 0x15 DUP4 ADD MSTORE PUSH1 0x29 DUP3 ADD MSTORE PUSH1 0x49 ADD SWAP1 JUMP JUMPDEST PUSH1 0x40 MLOAD PUSH1 0x20 DUP2 DUP4 SUB SUB DUP2 MSTORE SWAP1 PUSH1 0x40 MSTORE SWAP1 POP SWAP2 SWAP1 POP JUMP JUMPDEST PUSH0 PUSH2 0x63E DUP5 CALLER ADDRESS DUP7 PUSH2 0x8B1 JUMP JUMPDEST PUSH2 0x65A DUP5 PUSH2 0x654 PUSH1 0x1 SLOAD PUSH1 0x1 PUSH1 0x1 PUSH1 0xA0 SHL SUB AND SWAP1 JUMP JUMPDEST DUP6 PUSH2 0x918 JUMP JUMPDEST PUSH1 0x1 SLOAD PUSH1 0x1 PUSH1 0x1 PUSH1 0xA0 SHL SUB AND PUSH1 0x1 PUSH1 0x1 PUSH1 0xA0 SHL SUB AND PUSH4 0xC5A5EBDA DUP6 DUP6 PUSH2 0x689 PUSH1 0x2 SLOAD PUSH2 0xFFFF PUSH2 0x100 SWAP1 SWAP2 DIV AND SWAP1 JUMP JUMPDEST PUSH1 0x2 SLOAD PUSH1 0x40 MLOAD PUSH1 0x1 PUSH1 0x1 PUSH1 0xE0 SHL SUB NOT PUSH1 0xE0 DUP8 SWAP1 SHL AND DUP2 MSTORE PUSH2 0x6C4 SWAP5 SWAP4 SWAP3 SWAP2 PUSH4 0x1000000 SWAP1 DIV PUSH1 0x1 PUSH1 0x1 PUSH1 0xA0 SHL SUB AND SWAP1 PUSH0 SWAP1 DUP11 SWAP1 PUSH1 0x4 ADD PUSH2 0xBFA JUMP JUMPDEST PUSH1 0x20 PUSH1 0x40 MLOAD DUP1 DUP4 SUB DUP2 PUSH0 DUP8 GAS CALL ISZERO DUP1 ISZERO PUSH2 0x6E0 JUMPI RETURNDATASIZE PUSH0 DUP1 RETURNDATACOPY RETURNDATASIZE PUSH0 REVERT JUMPDEST POP POP POP POP PUSH1 0x40 MLOAD RETURNDATASIZE PUSH1 0x1F NOT PUSH1 0x1F DUP3 ADD AND DUP3 ADD DUP1 PUSH1 0x40 MSTORE POP DUP2 ADD SWAP1 PUSH2 0x704 SWAP2 SWAP1 PUSH2 0xC48 JUMP JUMPDEST SWAP5 SWAP4 POP POP POP POP JUMP JUMPDEST PUSH0 DUP1 SLOAD PUSH3 0x10000 SWAP1 DIV PUSH1 0x1 PUSH1 0x1 PUSH1 0xA0 SHL SUB AND PUSH1 0x1 PUSH1 0x1 PUSH1 0xA0 SHL SUB AND PUSH4 0xB19A437E PUSH0 DUP5 PUSH2 0x73A PUSH1 0x2 SLOAD PUSH1 0xFF AND SWAP1 JUMP JUMPDEST PUSH1 0x40 MLOAD DUP5 PUSH4 0xFFFFFFFF AND PUSH1 0xE0 SHL DUP2 MSTORE PUSH1 0x4 ADD PUSH2 0x758 SWAP4 SWAP3 SWAP2 SWAP1 PUSH2 0xC6F JUMP JUMPDEST PUSH1 0x20 PUSH1 0x40 MLOAD DUP1 DUP4 SUB DUP2 PUSH0 DUP8 GAS CALL ISZERO DUP1 ISZERO PUSH2 0x774 JUMPI RETURNDATASIZE PUSH0 DUP1 RETURNDATACOPY RETURNDATASIZE PUSH0 REVERT JUMPDEST POP POP POP POP PUSH1 0x40 MLOAD RETURNDATASIZE PUSH1 0x1F NOT PUSH1 0x1F DUP3 ADD AND DUP3 ADD DUP1 PUSH1 0x40 MSTORE POP DUP2 ADD SWAP1 PUSH2 0x798 SWAP2 SWAP1 PUSH2 0xC48 JUMP JUMPDEST SWAP3 SWAP2 POP POP JUMP JUMPDEST PUSH0 PUSH2 0x7B1 PUSH1 0x1 SLOAD PUSH1 0x1 PUSH1 0x1 PUSH1 0xA0 SHL SUB AND SWAP1 JUMP JUMPDEST PUSH1 0x1 PUSH1 0x1 PUSH1 0xA0 SHL SUB AND PUSH4 0xBEE9CDFC DUP5 PUSH2 0x7D3 PUSH1 0x2 SLOAD PUSH2 0xFFFF PUSH2 0x100 SWAP1 SWAP2 DIV AND SWAP1 JUMP JUMPDEST PUSH1 0x2 SLOAD PUSH1 0x40 MLOAD PUSH1 0x1 PUSH1 0x1 PUSH1 0xE0 SHL SUB NOT PUSH1 0xE0 DUP7 SWAP1 SHL AND DUP2 MSTORE PUSH2 0x80C SWAP3 SWAP2 PUSH4 0x1000000 SWAP1 DIV PUSH1 0x1 PUSH1 0x1 PUSH1 0xA0 SHL SUB AND SWAP1 PUSH0 SWAP1 DUP10 SWAP1 PUSH1 0x4 ADD PUSH2 0xCA0 JUMP JUMPDEST PUSH1 0x20 PUSH1 0x40 MLOAD DUP1 DUP4 SUB DUP2 DUP6 DUP9 GAS CALL ISZERO DUP1 ISZERO PUSH2 0x828 JUMPI RETURNDATASIZE PUSH0 DUP1 RETURNDATACOPY RETURNDATASIZE PUSH0 REVERT JUMPDEST POP POP POP POP POP PUSH1 0x40 MLOAD RETURNDATASIZE PUSH1 0x1F NOT PUSH1 0x1F DUP3 ADD AND DUP3 ADD DUP1 PUSH1 0x40 MSTORE POP DUP2 ADD SWAP1 PUSH2 0x281 SWAP2 SWAP1 PUSH2 0xC48 JUMP JUMPDEST PUSH0 PUSH1 0x8 DUP3 PUSH1 0xFF AND GT ISZERO PUSH2 0x87D JUMPI PUSH2 0x865 PUSH1 0x8 DUP4 PUSH2 0xCCE JUMP JUMPDEST PUSH2 0x870 SWAP1 PUSH1 0xA PUSH2 0xDC7 JUMP JUMPDEST PUSH2 0x87A SWAP1 DUP5 PUSH2 0xDD5 JUMP JUMPDEST SWAP3 POP JUMPDEST POP SWAP1 SWAP2 SWAP1 POP JUMP JUMPDEST PUSH0 PUSH1 0x8 DUP3 PUSH1 0xFF AND GT ISZERO PUSH2 0x87D JUMPI PUSH2 0x89C PUSH1 0x8 DUP4 PUSH2 0xCCE JUMP JUMPDEST PUSH2 0x8A7 SWAP1 PUSH1 0xA PUSH2 0xDC7 JUMP JUMPDEST PUSH2 0x87A SWAP1 DUP5 PUSH2 0xDF4 JUMP JUMPDEST PUSH1 0x40 MLOAD PUSH1 0x1 PUSH1 0x1 PUSH1 0xA0 SHL SUB DUP5 DUP2 AND PUSH1 0x24 DUP4 ADD MSTORE DUP4 DUP2 AND PUSH1 0x44 DUP4 ADD MSTORE PUSH1 0x64 DUP3 ADD DUP4 SWAP1 MSTORE PUSH2 0x5A0 SWAP2 DUP7 SWAP2 DUP3 AND SWAP1 PUSH4 0x23B872DD SWAP1 PUSH1 0x84 ADD JUMPDEST PUSH1 0x40 MLOAD PUSH1 0x20 DUP2 DUP4 SUB SUB DUP2 MSTORE SWAP1 PUSH1 0x40 MSTORE SWAP2 POP PUSH1 0xE0 SHL PUSH1 0x20 DUP3 ADD DUP1 MLOAD PUSH1 0x1 PUSH1 0x1 PUSH1 0xE0 SHL SUB DUP4 DUP2 DUP4 AND OR DUP4 MSTORE POP POP POP POP PUSH2 0x94E JUMP JUMPDEST PUSH1 0x40 MLOAD PUSH1 0x1 PUSH1 0x1 PUSH1 0xA0 SHL SUB DUP4 DUP2 AND PUSH1 0x24 DUP4 ADD MSTORE PUSH1 0x44 DUP3 ADD DUP4 SWAP1 MSTORE PUSH2 0x949 SWAP2 DUP6 SWAP2 DUP3 AND SWAP1 PUSH4 0xA9059CBB SWAP1 PUSH1 0x64 ADD PUSH2 0x8E6 JUMP JUMPDEST POP POP POP JUMP JUMPDEST PUSH0 PUSH2 0x962 PUSH1 0x1 PUSH1 0x1 PUSH1 0xA0 SHL SUB DUP5 AND DUP4 PUSH2 0x9AF JUMP JUMPDEST SWAP1 POP DUP1 MLOAD PUSH0 EQ ISZERO DUP1 ISZERO PUSH2 0x986 JUMPI POP DUP1 DUP1 PUSH1 0x20 ADD SWAP1 MLOAD DUP2 ADD SWAP1 PUSH2 0x984 SWAP2 SWAP1 PUSH2 0xE0B JUMP JUMPDEST ISZERO JUMPDEST ISZERO PUSH2 0x949 JUMPI PUSH1 0x40 MLOAD PUSH4 0x5274AFE7 PUSH1 0xE0 SHL DUP2 MSTORE PUSH1 0x1 PUSH1 0x1 PUSH1 0xA0 SHL SUB DUP5 AND PUSH1 0x4 DUP3 ADD MSTORE PUSH1 0x24 ADD PUSH2 0x597 JUMP JUMPDEST PUSH1 0x60 PUSH2 0x281 DUP4 DUP4 PUSH0 DUP5 PUSH0 DUP1 DUP6 PUSH1 0x1 PUSH1 0x1 PUSH1 0xA0 SHL SUB AND DUP5 DUP7 PUSH1 0x40 MLOAD PUSH2 0x9D3 SWAP2 SWAP1 PUSH2 0xB94 JUMP JUMPDEST PUSH0 PUSH1 0x40 MLOAD DUP1 DUP4 SUB DUP2 DUP6 DUP8 GAS CALL SWAP3 POP POP POP RETURNDATASIZE DUP1 PUSH0 DUP2 EQ PUSH2 0xA0D JUMPI PUSH1 0x40 MLOAD SWAP2 POP PUSH1 0x1F NOT PUSH1 0x3F RETURNDATASIZE ADD AND DUP3 ADD PUSH1 0x40 MSTORE RETURNDATASIZE DUP3 MSTORE RETURNDATASIZE PUSH0 PUSH1 0x20 DUP5 ADD RETURNDATACOPY PUSH2 0xA12 JUMP JUMPDEST PUSH1 0x60 SWAP2 POP JUMPDEST POP SWAP2 POP SWAP2 POP PUSH2 0xA22 DUP7 DUP4 DUP4 PUSH2 0xA2C JUMP JUMPDEST SWAP7 SWAP6 POP POP POP POP POP POP JUMP JUMPDEST PUSH1 0x60 DUP3 PUSH2 0xA41 JUMPI PUSH2 0xA3C DUP3 PUSH2 0xA88 JUMP JUMPDEST PUSH2 0x281 JUMP JUMPDEST DUP2 MLOAD ISZERO DUP1 ISZERO PUSH2 0xA58 JUMPI POP PUSH1 0x1 PUSH1 0x1 PUSH1 0xA0 SHL SUB DUP5 AND EXTCODESIZE ISZERO JUMPDEST ISZERO PUSH2 0xA81 JUMPI PUSH1 0x40 MLOAD PUSH4 0x9996B315 PUSH1 0xE0 SHL DUP2 MSTORE PUSH1 0x1 PUSH1 0x1 PUSH1 0xA0 SHL SUB DUP6 AND PUSH1 0x4 DUP3 ADD MSTORE PUSH1 0x24 ADD PUSH2 0x597 JUMP JUMPDEST POP DUP1 PUSH2 0x281 JUMP JUMPDEST DUP1 MLOAD ISZERO PUSH2 0xA98 JUMPI DUP1 MLOAD DUP1 DUP3 PUSH1 0x20 ADD REVERT JUMPDEST PUSH1 0x40 MLOAD PUSH4 0xA12F521 PUSH1 0xE1 SHL DUP2 MSTORE PUSH1 0x4 ADD PUSH1 0x40 MLOAD DUP1 SWAP2 SUB SWAP1 REVERT JUMPDEST POP JUMP JUMPDEST PUSH1 0x1 PUSH1 0x1 PUSH1 0xA0 SHL SUB DUP2 AND DUP2 EQ PUSH2 0xAB1 JUMPI PUSH0 DUP1 REVERT JUMPDEST PUSH0 DUP1 PUSH1 0x40 DUP4 DUP6 SUB SLT ISZERO PUSH2 0xAD9 JUMPI PUSH0 DUP1 REVERT JUMPDEST DUP3 CALLDATALOAD PUSH2 0xAE4 DUP2 PUSH2 0xAB4 JUMP JUMPDEST SWAP5 PUSH1 0x20 SWAP4 SWAP1 SWAP4 ADD CALLDATALOAD SWAP4 POP POP POP JUMP JUMPDEST PUSH0 PUSH1 0x20 DUP3 DUP5 SUB SLT ISZERO PUSH2 0xB02 JUMPI PUSH0 DUP1 REVERT JUMPDEST DUP2 MLOAD PUSH2 0x281 DUP2 PUSH2 0xAB4 JUMP JUMPDEST PUSH0 PUSH1 0x20 DUP3 DUP5 SUB SLT ISZERO PUSH2 0xB1D JUMPI PUSH0 DUP1 REVERT JUMPDEST POP MLOAD SWAP2 SWAP1 POP JUMP JUMPDEST PUSH4 0x4E487B71 PUSH1 0xE0 SHL PUSH0 MSTORE PUSH1 0x11 PUSH1 0x4 MSTORE PUSH1 0x24 PUSH0 REVERT JUMPDEST DUP2 DUP2 SUB DUP2 DUP2 GT ISZERO PUSH2 0x798 JUMPI PUSH2 0x798 PUSH2 0xB24 JUMP JUMPDEST PUSH4 0x4E487B71 PUSH1 0xE0 SHL PUSH0 MSTORE PUSH1 0x21 PUSH1 0x4 MSTORE PUSH1 0x24 PUSH0 REVERT JUMPDEST DUP1 DUP3 ADD DUP1 DUP3 GT ISZERO PUSH2 0x798 JUMPI PUSH2 0x798 PUSH2 0xB24 JUMP JUMPDEST PUSH0 JUMPDEST DUP4 DUP2 LT ISZERO PUSH2 0xB8C JUMPI DUP2 DUP2 ADD MLOAD DUP4 DUP3 ADD MSTORE PUSH1 0x20 ADD PUSH2 0xB74 JUMP JUMPDEST POP POP PUSH0 SWAP2 ADD MSTORE JUMP JUMPDEST PUSH0 DUP3 MLOAD PUSH2 0xBA5 DUP2 DUP5 PUSH1 0x20 DUP8 ADD PUSH2 0xB72 JUMP JUMPDEST SWAP2 SWAP1 SWAP2 ADD SWAP3 SWAP2 POP POP JUMP JUMPDEST PUSH0 PUSH1 0x20 DUP3 DUP5 SUB SLT ISZERO PUSH2 0xBBF JUMPI PUSH0 DUP1 REVERT JUMPDEST DUP2 MLOAD PUSH1 0xFF DUP2 AND DUP2 EQ PUSH2 0x281 JUMPI PUSH0 DUP1 REVERT JUMPDEST PUSH0 DUP2 MLOAD DUP1 DUP5 MSTORE PUSH2 0xBE6 DUP2 PUSH1 0x20 DUP7 ADD PUSH1 0x20 DUP7 ADD PUSH2 0xB72 JUMP JUMPDEST PUSH1 0x1F ADD PUSH1 0x1F NOT AND SWAP3 SWAP1 SWAP3 ADD PUSH1 0x20 ADD SWAP3 SWAP2 POP POP JUMP JUMPDEST PUSH1 0x1 DUP1 PUSH1 0xA0 SHL SUB DUP8 AND DUP2 MSTORE DUP6 PUSH1 0x20 DUP3 ADD MSTORE PUSH2 0xFFFF DUP6 AND PUSH1 0x40 DUP3 ADD MSTORE DUP4 PUSH1 0x60 DUP3 ADD MSTORE PUSH4 0xFFFFFFFF DUP4 AND PUSH1 0x80 DUP3 ADD MSTORE PUSH1 0xC0 PUSH1 0xA0 DUP3 ADD MSTORE PUSH0 PUSH2 0xC3C PUSH1 0xC0 DUP4 ADD DUP5 PUSH2 0xBCF JUMP JUMPDEST SWAP9 SWAP8 POP POP POP POP POP POP POP POP JUMP JUMPDEST PUSH0 PUSH1 0x20 DUP3 DUP5 SUB SLT ISZERO PUSH2 0xC58 JUMPI PUSH0 DUP1 REVERT JUMPDEST DUP2 MLOAD PUSH8 0xFFFFFFFFFFFFFFFF DUP2 AND DUP2 EQ PUSH2 0x281 JUMPI PUSH0 DUP1 REVERT JUMPDEST PUSH4 0xFFFFFFFF DUP5 AND DUP2 MSTORE PUSH1 0x60 PUSH1 0x20 DUP3 ADD MSTORE PUSH0 PUSH2 0xC8D PUSH1 0x60 DUP4 ADD DUP6 PUSH2 0xBCF JUMP JUMPDEST SWAP1 POP PUSH1 0xFF DUP4 AND PUSH1 0x40 DUP4 ADD MSTORE SWAP5 SWAP4 POP POP POP POP JUMP JUMPDEST PUSH2 0xFFFF DUP6 AND DUP2 MSTORE DUP4 PUSH1 0x20 DUP3 ADD MSTORE PUSH4 0xFFFFFFFF DUP4 AND PUSH1 0x40 DUP3 ADD MSTORE PUSH1 0x80 PUSH1 0x60 DUP3 ADD MSTORE PUSH0 PUSH2 0xA22 PUSH1 0x80 DUP4 ADD DUP5 PUSH2 0xBCF JUMP JUMPDEST PUSH1 0xFF DUP3 DUP2 AND DUP3 DUP3 AND SUB SWAP1 DUP2 GT ISZERO PUSH2 0x798 JUMPI PUSH2 0x798 PUSH2 0xB24 JUMP JUMPDEST PUSH1 0x1 DUP2 DUP2 JUMPDEST DUP1 DUP6 GT ISZERO PUSH2 0xD21 JUMPI DUP2 PUSH0 NOT DIV DUP3 GT ISZERO PUSH2 0xD07 JUMPI PUSH2 0xD07 PUSH2 0xB24 JUMP JUMPDEST DUP1 DUP6 AND ISZERO PUSH2 0xD14 JUMPI SWAP2 DUP2 MUL SWAP2 JUMPDEST SWAP4 DUP5 SHR SWAP4 SWAP1 DUP1 MUL SWAP1 PUSH2 0xCEC JUMP JUMPDEST POP SWAP3 POP SWAP3 SWAP1 POP JUMP JUMPDEST PUSH0 DUP3 PUSH2 0xD37 JUMPI POP PUSH1 0x1 PUSH2 0x798 JUMP JUMPDEST DUP2 PUSH2 0xD43 JUMPI POP PUSH0 PUSH2 0x798 JUMP JUMPDEST DUP2 PUSH1 0x1 DUP2 EQ PUSH2 0xD59 JUMPI PUSH1 0x2 DUP2 EQ PUSH2 0xD63 JUMPI PUSH2 0xD7F JUMP JUMPDEST PUSH1 0x1 SWAP2 POP POP PUSH2 0x798 JUMP JUMPDEST PUSH1 0xFF DUP5 GT ISZERO PUSH2 0xD74 JUMPI PUSH2 0xD74 PUSH2 0xB24 JUMP JUMPDEST POP POP PUSH1 0x1 DUP3 SHL PUSH2 0x798 JUMP JUMPDEST POP PUSH1 0x20 DUP4 LT PUSH2 0x133 DUP4 LT AND PUSH1 0x4E DUP5 LT PUSH1 0xB DUP5 LT AND OR ISZERO PUSH2 0xDA2 JUMPI POP DUP2 DUP2 EXP PUSH2 0x798 JUMP JUMPDEST PUSH2 0xDAC DUP4 DUP4 PUSH2 0xCE7 JUMP JUMPDEST DUP1 PUSH0 NOT DIV DUP3 GT ISZERO PUSH2 0xDBF JUMPI PUSH2 0xDBF PUSH2 0xB24 JUMP JUMPDEST MUL SWAP4 SWAP3 POP POP POP JUMP JUMPDEST PUSH0 PUSH2 0x281 PUSH1 0xFF DUP5 AND DUP4 PUSH2 0xD29 JUMP JUMPDEST PUSH0 DUP3 PUSH2 0xDEF JUMPI PUSH4 0x4E487B71 PUSH1 0xE0 SHL PUSH0 MSTORE PUSH1 0x12 PUSH1 0x4 MSTORE PUSH1 0x24 PUSH0 REVERT JUMPDEST POP DIV SWAP1 JUMP JUMPDEST DUP1 DUP3 MUL DUP2 ISZERO DUP3 DUP3 DIV DUP5 EQ OR PUSH2 0x798 JUMPI PUSH2 0x798 PUSH2 0xB24 JUMP JUMPDEST PUSH0 PUSH1 0x20 DUP3 DUP5 SUB SLT ISZERO PUSH2 0xE1B JUMPI PUSH0 DUP1 REVERT JUMPDEST DUP2 MLOAD DUP1 ISZERO ISZERO DUP2 EQ PUSH2 0x281 JUMPI PUSH0 DUP1 REVERT INVALID LOG2 PUSH5 0x6970667358 0x22 SLT KECCAK256 0xBD 0xCE 0xDF SWAP6 AND PUSH17 0x10AE6AD5E97D6D3CF80C6054CDC5AA9B6A 0xDD PUSH11 0xF0E653F5DAB7AA64736F6C PUSH4 0x43000817 STOP CALLER "
				},
				"gasEstimates": {
					"creation": {
						"codeDepositCost": "736000",
						"executionCost": "infinite",
						"totalCost": "infinite"
					},
					"external": {
						"borrow(address,uint256)": "infinite",
						"chainId()": "2287",
						"depositCollateral(address,uint256)": "infinite",
						"depositCollateralNative()": "infinite",
						"repay(address,uint256)": "infinite",
						"repayNative()": "infinite",
						"tokenBridge()": "2344",
						"tokenBridgeAddress()": "2366",
						"withdrawCollateral(address,uint256)": "infinite"
					},
					"internal": {
						"doAction(enum HubSpokeStructs.Action,address,uint256)": "infinite"
					}
				},
				"methodIdentifiers": {
					"borrow(address,uint256)": "4b8a3529",
					"chainId()": "9a8a0592",
					"depositCollateral(address,uint256)": "a5d5db0c",
					"depositCollateralNative()": "00470257",
					"repay(address,uint256)": "22867d78",
					"repayNative()": "edba8209",
					"tokenBridge()": "c6328a46",
					"tokenBridgeAddress()": "e1884919",
					"withdrawCollateral(address,uint256)": "350c35e9"
				}
			},
			"storageLayout": {
				"storage": [
					{
						"astId": 1334,
						"contract": "example-2/evm/src/contracts/lendingSpoke/Spoke.sol:Spoke",
						"label": "_state",
						"offset": 0,
						"slot": "0",
						"type": "t_struct(State)1330_storage"
					}
				],
				"types": {
					"t_address": {
						"encoding": "inplace",
						"label": "address",
						"numberOfBytes": "20"
					},
					"t_address_payable": {
						"encoding": "inplace",
						"label": "address payable",
						"numberOfBytes": "20"
					},
					"t_array(t_uint256)50_storage": {
						"base": "t_uint256",
						"encoding": "inplace",
						"label": "uint256[50]",
						"numberOfBytes": "1600"
					},
					"t_struct(Provider)1316_storage": {
						"encoding": "inplace",
						"label": "struct SpokeStorage.Provider",
						"members": [
							{
								"astId": 1311,
								"contract": "example-2/evm/src/contracts/lendingSpoke/Spoke.sol:Spoke",
								"label": "chainId",
								"offset": 0,
								"slot": "0",
								"type": "t_uint16"
							},
							{
								"astId": 1313,
								"contract": "example-2/evm/src/contracts/lendingSpoke/Spoke.sol:Spoke",
								"label": "wormhole",
								"offset": 2,
								"slot": "0",
								"type": "t_address_payable"
							},
							{
								"astId": 1315,
								"contract": "example-2/evm/src/contracts/lendingSpoke/Spoke.sol:Spoke",
								"label": "tokenBridge",
								"offset": 0,
								"slot": "1",
								"type": "t_address"
							}
						],
						"numberOfBytes": "64"
					},
					"t_struct(State)1330_storage": {
						"encoding": "inplace",
						"label": "struct SpokeStorage.State",
						"members": [
							{
								"astId": 1319,
								"contract": "example-2/evm/src/contracts/lendingSpoke/Spoke.sol:Spoke",
								"label": "provider",
								"offset": 0,
								"slot": "0",
								"type": "t_struct(Provider)1316_storage"
							},
							{
								"astId": 1321,
								"contract": "example-2/evm/src/contracts/lendingSpoke/Spoke.sol:Spoke",
								"label": "consistencyLevel",
								"offset": 0,
								"slot": "2",
								"type": "t_uint8"
							},
							{
								"astId": 1323,
								"contract": "example-2/evm/src/contracts/lendingSpoke/Spoke.sol:Spoke",
								"label": "hubChainId",
								"offset": 1,
								"slot": "2",
								"type": "t_uint16"
							},
							{
								"astId": 1325,
								"contract": "example-2/evm/src/contracts/lendingSpoke/Spoke.sol:Spoke",
								"label": "hubContractAddress",
								"offset": 3,
								"slot": "2",
								"type": "t_address"
							},
							{
								"astId": 1329,
								"contract": "example-2/evm/src/contracts/lendingSpoke/Spoke.sol:Spoke",
								"label": "______gap",
								"offset": 0,
								"slot": "3",
								"type": "t_array(t_uint256)50_storage"
							}
						],
						"numberOfBytes": "1696"
					},
					"t_uint16": {
						"encoding": "inplace",
						"label": "uint16",
						"numberOfBytes": "2"
					},
					"t_uint256": {
						"encoding": "inplace",
						"label": "uint256",
						"numberOfBytes": "32"
					},
					"t_uint8": {
						"encoding": "inplace",
						"label": "uint8",
						"numberOfBytes": "1"
					}
				}
			},
			"userdoc": {
				"kind": "user",
				"methods": {
					"constructor": {
						"notice": "Spoke constructor - Initializes a new spoke with given parameters "
					}
				},
				"version": 1
			}
		}
	}
}