{
	"example-2/evm/src/contracts/lendingSpoke/SpokeGetters.sol": {
		"SpokeGetters": {
			"abi": [
				{
					"inputs": [],
					"name": "chainId",
					"outputs": [
						{
							"internalType": "uint16",
							"name": "",
							"type": "uint16"
						}
					],
					"stateMutability": "view",
					"type": "function"
				},
				{
					"inputs": [],
					"name": "tokenBridge",
					"outputs": [
						{
							"internalType": "contract ITokenBridge",
							"name": "",
							"type": "address"
						}
					],
					"stateMutability": "view",
					"type": "function"
				},
				{
					"inputs": [],
					"name": "tokenBridgeAddress",
					"outputs": [
						{
							"internalType": "address",
							"name": "",
							"type": "address"
						}
					],
					"stateMutability": "view",
					"type": "function"
				}
			],
			"devdoc": {
				"kind": "dev",
				"methods": {},
				"version": 1
			},
			"evm": {
				"assembly": "    /* \"example-2/evm/src/contracts/lendingSpoke/SpokeGetters.sol\":210:1068  contract SpokeGetters is HubSpokeStructs, SpokeState {... */\n  mstore(0x40, 0x80)\n  callvalue\n  dup1\n  iszero\n  tag_1\n  jumpi\n  0x00\n  dup1\n  revert\ntag_1:\n  pop\n  dataSize(sub_0)\n  dup1\n  dataOffset(sub_0)\n  0x00\n  codecopy\n  0x00\n  return\nstop\n\nsub_0: assembly {\n        /* \"example-2/evm/src/contracts/lendingSpoke/SpokeGetters.sol\":210:1068  contract SpokeGetters is HubSpokeStructs, SpokeState {... */\n      mstore(0x40, 0x80)\n      callvalue\n      dup1\n      iszero\n      tag_1\n      jumpi\n      0x00\n      dup1\n      revert\n    tag_1:\n      pop\n      jumpi(tag_2, lt(calldatasize, 0x04))\n      shr(0xe0, calldataload(0x00))\n      dup1\n      0x9a8a0592\n      eq\n      tag_3\n      jumpi\n      dup1\n      0xc6328a46\n      eq\n      tag_4\n      jumpi\n      dup1\n      0xe1884919\n      eq\n      tag_5\n      jumpi\n    tag_2:\n      0x00\n      dup1\n      revert\n        /* \"example-2/evm/src/contracts/lendingSpoke/SpokeGetters.sol\":269:364  function chainId() public view returns (uint16) {... */\n    tag_3:\n      tag_6\n      tag_7\n      jump\t// in\n    tag_6:\n      mload(0x40)\n      tag_8\n      swap2\n      swap1\n      tag_9\n      jump\t// in\n    tag_8:\n      mload(0x40)\n      dup1\n      swap2\n      sub\n      swap1\n      return\n        /* \"example-2/evm/src/contracts/lendingSpoke/SpokeGetters.sol\":489:621  function tokenBridge() public view returns (ITokenBridge) {... */\n    tag_4:\n      tag_10\n      tag_11\n      jump\t// in\n    tag_10:\n      mload(0x40)\n      tag_12\n      swap2\n      swap1\n      tag_13\n      jump\t// in\n    tag_12:\n      mload(0x40)\n      dup1\n      swap2\n      sub\n      swap1\n      return\n        /* \"example-2/evm/src/contracts/lendingSpoke/SpokeGetters.sol\":627:738  function tokenBridgeAddress() public view returns (address) {... */\n    tag_5:\n      tag_14\n      tag_15\n      jump\t// in\n    tag_14:\n      mload(0x40)\n      tag_16\n      swap2\n      swap1\n      tag_17\n      jump\t// in\n    tag_16:\n      mload(0x40)\n      dup1\n      swap2\n      sub\n      swap1\n      return\n        /* \"example-2/evm/src/contracts/lendingSpoke/SpokeGetters.sol\":269:364  function chainId() public view returns (uint16) {... */\n    tag_7:\n        /* \"example-2/evm/src/contracts/lendingSpoke/SpokeGetters.sol\":309:315  uint16 */\n      0x00\n        /* \"example-2/evm/src/contracts/lendingSpoke/SpokeGetters.sol\":334:340  _state */\n      dup1\n        /* \"example-2/evm/src/contracts/lendingSpoke/SpokeGetters.sol\":334:349  _state.provider */\n      0x00\n      add\n        /* \"example-2/evm/src/contracts/lendingSpoke/SpokeGetters.sol\":334:357  _state.provider.chainId */\n      0x00\n      add\n      0x00\n      swap1\n      sload\n      swap1\n      0x0100\n      exp\n      swap1\n      div\n      0xffff\n      and\n        /* \"example-2/evm/src/contracts/lendingSpoke/SpokeGetters.sol\":327:357  return _state.provider.chainId */\n      swap1\n      pop\n        /* \"example-2/evm/src/contracts/lendingSpoke/SpokeGetters.sol\":269:364  function chainId() public view returns (uint16) {... */\n      swap1\n      jump\t// out\n        /* \"example-2/evm/src/contracts/lendingSpoke/SpokeGetters.sol\":489:621  function tokenBridge() public view returns (ITokenBridge) {... */\n    tag_11:\n        /* \"example-2/evm/src/contracts/lendingSpoke/SpokeGetters.sol\":533:545  ITokenBridge */\n      0x00\n        /* \"example-2/evm/src/contracts/lendingSpoke/SpokeGetters.sol\":585:591  _state */\n      dup1\n        /* \"example-2/evm/src/contracts/lendingSpoke/SpokeGetters.sol\":585:600  _state.provider */\n      0x00\n      add\n        /* \"example-2/evm/src/contracts/lendingSpoke/SpokeGetters.sol\":585:612  _state.provider.tokenBridge */\n      0x01\n      add\n      0x00\n      swap1\n      sload\n      swap1\n      0x0100\n      exp\n      swap1\n      div\n      0xffffffffffffffffffffffffffffffffffffffff\n      and\n        /* \"example-2/evm/src/contracts/lendingSpoke/SpokeGetters.sol\":557:614  return ITokenBridge(payable(_state.provider.tokenBridge)) */\n      swap1\n      pop\n        /* \"example-2/evm/src/contracts/lendingSpoke/SpokeGetters.sol\":489:621  function tokenBridge() public view returns (ITokenBridge) {... */\n      swap1\n      jump\t// out\n        /* \"example-2/evm/src/contracts/lendingSpoke/SpokeGetters.sol\":627:738  function tokenBridgeAddress() public view returns (address) {... */\n    tag_15:\n        /* \"example-2/evm/src/contracts/lendingSpoke/SpokeGetters.sol\":678:685  address */\n      0x00\n        /* \"example-2/evm/src/contracts/lendingSpoke/SpokeGetters.sol\":704:710  _state */\n      dup1\n        /* \"example-2/evm/src/contracts/lendingSpoke/SpokeGetters.sol\":704:719  _state.provider */\n      0x00\n      add\n        /* \"example-2/evm/src/contracts/lendingSpoke/SpokeGetters.sol\":704:731  _state.provider.tokenBridge */\n      0x01\n      add\n      0x00\n      swap1\n      sload\n      swap1\n      0x0100\n      exp\n      swap1\n      div\n      0xffffffffffffffffffffffffffffffffffffffff\n      and\n        /* \"example-2/evm/src/contracts/lendingSpoke/SpokeGetters.sol\":697:731  return _state.provider.tokenBridge */\n      swap1\n      pop\n        /* \"example-2/evm/src/contracts/lendingSpoke/SpokeGetters.sol\":627:738  function tokenBridgeAddress() public view returns (address) {... */\n      swap1\n      jump\t// out\n        /* \"#utility.yul\":7:96   */\n    tag_21:\n        /* \"#utility.yul\":43:50   */\n      0x00\n        /* \"#utility.yul\":83:89   */\n      0xffff\n        /* \"#utility.yul\":76:81   */\n      dup3\n        /* \"#utility.yul\":72:90   */\n      and\n        /* \"#utility.yul\":61:90   */\n      swap1\n      pop\n        /* \"#utility.yul\":7:96   */\n      swap2\n      swap1\n      pop\n      jump\t// out\n        /* \"#utility.yul\":102:217   */\n    tag_22:\n        /* \"#utility.yul\":187:210   */\n      tag_34\n        /* \"#utility.yul\":204:209   */\n      dup2\n        /* \"#utility.yul\":187:210   */\n      tag_21\n      jump\t// in\n    tag_34:\n        /* \"#utility.yul\":182:185   */\n      dup3\n        /* \"#utility.yul\":175:211   */\n      mstore\n        /* \"#utility.yul\":102:217   */\n      pop\n      pop\n      jump\t// out\n        /* \"#utility.yul\":223:441   */\n    tag_9:\n        /* \"#utility.yul\":314:318   */\n      0x00\n        /* \"#utility.yul\":352:354   */\n      0x20\n        /* \"#utility.yul\":341:350   */\n      dup3\n        /* \"#utility.yul\":337:355   */\n      add\n        /* \"#utility.yul\":329:355   */\n      swap1\n      pop\n        /* \"#utility.yul\":365:434   */\n      tag_36\n        /* \"#utility.yul\":431:432   */\n      0x00\n        /* \"#utility.yul\":420:429   */\n      dup4\n        /* \"#utility.yul\":416:433   */\n      add\n        /* \"#utility.yul\":407:413   */\n      dup5\n        /* \"#utility.yul\":365:434   */\n      tag_22\n      jump\t// in\n    tag_36:\n        /* \"#utility.yul\":223:441   */\n      swap3\n      swap2\n      pop\n      pop\n      jump\t// out\n        /* \"#utility.yul\":447:573   */\n    tag_23:\n        /* \"#utility.yul\":484:491   */\n      0x00\n        /* \"#utility.yul\":524:566   */\n      0xffffffffffffffffffffffffffffffffffffffff\n        /* \"#utility.yul\":517:522   */\n      dup3\n        /* \"#utility.yul\":513:567   */\n      and\n        /* \"#utility.yul\":502:567   */\n      swap1\n      pop\n        /* \"#utility.yul\":447:573   */\n      swap2\n      swap1\n      pop\n      jump\t// out\n        /* \"#utility.yul\":579:639   */\n    tag_24:\n        /* \"#utility.yul\":607:610   */\n      0x00\n        /* \"#utility.yul\":628:633   */\n      dup2\n        /* \"#utility.yul\":621:633   */\n      swap1\n      pop\n        /* \"#utility.yul\":579:639   */\n      swap2\n      swap1\n      pop\n      jump\t// out\n        /* \"#utility.yul\":645:787   */\n    tag_25:\n        /* \"#utility.yul\":695:704   */\n      0x00\n        /* \"#utility.yul\":728:781   */\n      tag_40\n        /* \"#utility.yul\":746:780   */\n      tag_41\n        /* \"#utility.yul\":755:779   */\n      tag_42\n        /* \"#utility.yul\":773:778   */\n      dup5\n        /* \"#utility.yul\":755:779   */\n      tag_23\n      jump\t// in\n    tag_42:\n        /* \"#utility.yul\":746:780   */\n      tag_24\n      jump\t// in\n    tag_41:\n        /* \"#utility.yul\":728:781   */\n      tag_23\n      jump\t// in\n    tag_40:\n        /* \"#utility.yul\":715:781   */\n      swap1\n      pop\n        /* \"#utility.yul\":645:787   */\n      swap2\n      swap1\n      pop\n      jump\t// out\n        /* \"#utility.yul\":793:919   */\n    tag_26:\n        /* \"#utility.yul\":843:852   */\n      0x00\n        /* \"#utility.yul\":876:913   */\n      tag_44\n        /* \"#utility.yul\":907:912   */\n      dup3\n        /* \"#utility.yul\":876:913   */\n      tag_25\n      jump\t// in\n    tag_44:\n        /* \"#utility.yul\":863:913   */\n      swap1\n      pop\n        /* \"#utility.yul\":793:919   */\n      swap2\n      swap1\n      pop\n      jump\t// out\n        /* \"#utility.yul\":925:1072   */\n    tag_27:\n        /* \"#utility.yul\":996:1005   */\n      0x00\n        /* \"#utility.yul\":1029:1066   */\n      tag_46\n        /* \"#utility.yul\":1060:1065   */\n      dup3\n        /* \"#utility.yul\":1029:1066   */\n      tag_26\n      jump\t// in\n    tag_46:\n        /* \"#utility.yul\":1016:1066   */\n      swap1\n      pop\n        /* \"#utility.yul\":925:1072   */\n      swap2\n      swap1\n      pop\n      jump\t// out\n        /* \"#utility.yul\":1078:1251   */\n    tag_28:\n        /* \"#utility.yul\":1186:1244   */\n      tag_48\n        /* \"#utility.yul\":1238:1243   */\n      dup2\n        /* \"#utility.yul\":1186:1244   */\n      tag_27\n      jump\t// in\n    tag_48:\n        /* \"#utility.yul\":1181:1184   */\n      dup3\n        /* \"#utility.yul\":1174:1245   */\n      mstore\n        /* \"#utility.yul\":1078:1251   */\n      pop\n      pop\n      jump\t// out\n        /* \"#utility.yul\":1257:1521   */\n    tag_13:\n        /* \"#utility.yul\":1371:1375   */\n      0x00\n        /* \"#utility.yul\":1409:1411   */\n      0x20\n        /* \"#utility.yul\":1398:1407   */\n      dup3\n        /* \"#utility.yul\":1394:1412   */\n      add\n        /* \"#utility.yul\":1386:1412   */\n      swap1\n      pop\n        /* \"#utility.yul\":1422:1514   */\n      tag_50\n        /* \"#utility.yul\":1511:1512   */\n      0x00\n        /* \"#utility.yul\":1500:1509   */\n      dup4\n        /* \"#utility.yul\":1496:1513   */\n      add\n        /* \"#utility.yul\":1487:1493   */\n      dup5\n        /* \"#utility.yul\":1422:1514   */\n      tag_28\n      jump\t// in\n    tag_50:\n        /* \"#utility.yul\":1257:1521   */\n      swap3\n      swap2\n      pop\n      pop\n      jump\t// out\n        /* \"#utility.yul\":1527:1623   */\n    tag_29:\n        /* \"#utility.yul\":1564:1571   */\n      0x00\n        /* \"#utility.yul\":1593:1617   */\n      tag_52\n        /* \"#utility.yul\":1611:1616   */\n      dup3\n        /* \"#utility.yul\":1593:1617   */\n      tag_23\n      jump\t// in\n    tag_52:\n        /* \"#utility.yul\":1582:1617   */\n      swap1\n      pop\n        /* \"#utility.yul\":1527:1623   */\n      swap2\n      swap1\n      pop\n      jump\t// out\n        /* \"#utility.yul\":1629:1747   */\n    tag_30:\n        /* \"#utility.yul\":1716:1740   */\n      tag_54\n        /* \"#utility.yul\":1734:1739   */\n      dup2\n        /* \"#utility.yul\":1716:1740   */\n      tag_29\n      jump\t// in\n    tag_54:\n        /* \"#utility.yul\":1711:1714   */\n      dup3\n        /* \"#utility.yul\":1704:1741   */\n      mstore\n        /* \"#utility.yul\":1629:1747   */\n      pop\n      pop\n      jump\t// out\n        /* \"#utility.yul\":1753:1975   */\n    tag_17:\n        /* \"#utility.yul\":1846:1850   */\n      0x00\n        /* \"#utility.yul\":1884:1886   */\n      0x20\n        /* \"#utility.yul\":1873:1882   */\n      dup3\n        /* \"#utility.yul\":1869:1887   */\n      add\n        /* \"#utility.yul\":1861:1887   */\n      swap1\n      pop\n        /* \"#utility.yul\":1897:1968   */\n      tag_56\n        /* \"#utility.yul\":1965:1966   */\n      0x00\n        /* \"#utility.yul\":1954:1963   */\n      dup4\n        /* \"#utility.yul\":1950:1967   */\n      add\n        /* \"#utility.yul\":1941:1947   */\n      dup5\n        /* \"#utility.yul\":1897:1968   */\n      tag_30\n      jump\t// in\n    tag_56:\n        /* \"#utility.yul\":1753:1975   */\n      swap3\n      swap2\n      pop\n      pop\n      jump\t// out\n\n    auxdata: 0xa2646970667358221220542c0eaa025179768c1b144317afe1dc0aa51003902208aab39fee0ed9e5218e64736f6c63430008170033\n}\n",
				"bytecode": {
					"linkReferences": {},
					"object": "608060405234801561000f575f80fd5b506102458061001d5f395ff3fe608060405234801561000f575f80fd5b506004361061003f575f3560e01c80639a8a059214610043578063c6328a4614610061578063e18849191461007f575b5f80fd5b61004b61009d565b604051610058919061012a565b60405180910390f35b6100696100b6565b60405161007691906101bd565b60405180910390f35b6100876100e2565b60405161009491906101f6565b60405180910390f35b5f805f015f015f9054906101000a900461ffff16905090565b5f805f016001015f9054906101000a900473ffffffffffffffffffffffffffffffffffffffff16905090565b5f805f016001015f9054906101000a900473ffffffffffffffffffffffffffffffffffffffff16905090565b5f61ffff82169050919050565b6101248161010e565b82525050565b5f60208201905061013d5f83018461011b565b92915050565b5f73ffffffffffffffffffffffffffffffffffffffff82169050919050565b5f819050919050565b5f61018561018061017b84610143565b610162565b610143565b9050919050565b5f6101968261016b565b9050919050565b5f6101a78261018c565b9050919050565b6101b78161019d565b82525050565b5f6020820190506101d05f8301846101ae565b92915050565b5f6101e082610143565b9050919050565b6101f0816101d6565b82525050565b5f6020820190506102095f8301846101e7565b9291505056fea2646970667358221220542c0eaa025179768c1b144317afe1dc0aa51003902208aab39fee0ed9e5218e64736f6c63430008170033",
					"opcodes": "PUSH1 0x80 PUSH1 0x40 MSTORE CALLVALUE DUP1 ISZERO PUSH2 0xF JUMPI PUSH0 DUP1 REVERT JUMPDEST POP PUSH2 0x245 DUP1 PUSH2 0x1D PUSH0 CODECOPY PUSH0 RETURN INVALID PUSH1 0x80 PUSH1 0x40 MSTORE CALLVALUE DUP1 ISZERO PUSH2 0xF JUMPI PUSH0 DUP1 REVERT JUMPDEST POP PUSH1 0x4 CALLDATASIZE LT PUSH2 0x3F JUMPI PUSH0 CALLDATALOAD PUSH1 0xE0 SHR DUP1 PUSH4 0x9A8A0592 EQ PUSH2 0x43 JUMPI DUP1 PUSH4 0xC6328A46 EQ PUSH2 0x61 JUMPI DUP1 PUSH4 0xE1884919 EQ PUSH2 0x7F JUMPI JUMPDEST PUSH0 DUP1 REVERT JUMPDEST PUSH2 0x4B PUSH2 0x9D JUMP JUMPDEST PUSH1 0x40 MLOAD PUSH2 0x58 SWAP2 SWAP1 PUSH2 0x12A JUMP JUMPDEST PUSH1 0x40 MLOAD DUP1 SWAP2 SUB SWAP1 RETURN JUMPDEST PUSH2 0x69 PUSH2 0xB6 JUMP JUMPDEST PUSH1 0x40 MLOAD PUSH2 0x76 SWAP2 SWAP1 PUSH2 0x1BD JUMP JUMPDEST PUSH1 0x40 MLOAD DUP1 SWAP2 SUB SWAP1 RETURN JUMPDEST PUSH2 0x87 PUSH2 0xE2 JUMP JUMPDEST PUSH1 0x40 MLOAD PUSH2 0x94 SWAP2 SWAP1 PUSH2 0x1F6 JUMP JUMPDEST PUSH1 0x40 MLOAD DUP1 SWAP2 SUB SWAP1 RETURN JUMPDEST PUSH0 DUP1 PUSH0 ADD PUSH0 ADD PUSH0 SWAP1 SLOAD SWAP1 PUSH2 0x100 EXP SWAP1 DIV PUSH2 0xFFFF AND SWAP1 POP SWAP1 JUMP JUMPDEST PUSH0 DUP1 PUSH0 ADD PUSH1 0x1 ADD PUSH0 SWAP1 SLOAD SWAP1 PUSH2 0x100 EXP SWAP1 DIV PUSH20 0xFFFFFFFFFFFFFFFFFFFFFFFFFFFFFFFFFFFFFFFF AND SWAP1 POP SWAP1 JUMP JUMPDEST PUSH0 DUP1 PUSH0 ADD PUSH1 0x1 ADD PUSH0 SWAP1 SLOAD SWAP1 PUSH2 0x100 EXP SWAP1 DIV PUSH20 0xFFFFFFFFFFFFFFFFFFFFFFFFFFFFFFFFFFFFFFFF AND SWAP1 POP SWAP1 JUMP JUMPDEST PUSH0 PUSH2 0xFFFF DUP3 AND SWAP1 POP SWAP2 SWAP1 POP JUMP JUMPDEST PUSH2 0x124 DUP2 PUSH2 0x10E JUMP JUMPDEST DUP3 MSTORE POP POP JUMP JUMPDEST PUSH0 PUSH1 0x20 DUP3 ADD SWAP1 POP PUSH2 0x13D PUSH0 DUP4 ADD DUP5 PUSH2 0x11B JUMP JUMPDEST SWAP3 SWAP2 POP POP JUMP JUMPDEST PUSH0 PUSH20 0xFFFFFFFFFFFFFFFFFFFFFFFFFFFFFFFFFFFFFFFF DUP3 AND SWAP1 POP SWAP2 SWAP1 POP JUMP JUMPDEST PUSH0 DUP2 SWAP1 POP SWAP2 SWAP1 POP JUMP JUMPDEST PUSH0 PUSH2 0x185 PUSH2 0x180 PUSH2 0x17B DUP5 PUSH2 0x143 JUMP JUMPDEST PUSH2 0x162 JUMP JUMPDEST PUSH2 0x143 JUMP JUMPDEST SWAP1 POP SWAP2 SWAP1 POP JUMP JUMPDEST PUSH0 PUSH2 0x196 DUP3 PUSH2 0x16B JUMP JUMPDEST SWAP1 POP SWAP2 SWAP1 POP JUMP JUMPDEST PUSH0 PUSH2 0x1A7 DUP3 PUSH2 0x18C JUMP JUMPDEST SWAP1 POP SWAP2 SWAP1 POP JUMP JUMPDEST PUSH2 0x1B7 DUP2 PUSH2 0x19D JUMP JUMPDEST DUP3 MSTORE POP POP JUMP JUMPDEST PUSH0 PUSH1 0x20 DUP3 ADD SWAP1 POP PUSH2 0x1D0 PUSH0 DUP4 ADD DUP5 PUSH2 0x1AE JUMP JUMPDEST SWAP3 SWAP2 POP POP JUMP JUMPDEST PUSH0 PUSH2 0x1E0 DUP3 PUSH2 0x143 JUMP JUMPDEST SWAP1 POP SWAP2 SWAP1 POP JUMP JUMPDEST PUSH2 0x1F0 DUP2 PUSH2 0x1D6 JUMP JUMPDEST DUP3 MSTORE POP POP JUMP JUMPDEST PUSH0 PUSH1 0x20 DUP3 ADD SWAP1 POP PUSH2 0x209 PUSH0 DUP4 ADD DUP5 PUSH2 0x1E7 JUMP JUMPDEST SWAP3 SWAP2 POP POP JUMP INVALID LOG2 PUSH5 0x6970667358 0x22 SLT KECCAK256 SLOAD 0x2C 0xE 0xAA MUL MLOAD PUSH26 0x768C1B144317AFE1DC0AA51003902208AAB39FEE0ED9E5218E64 PUSH20 0x6F6C634300081700330000000000000000000000 "
				},
				"gasEstimates": {
					"creation": {
						"codeDepositCost": "116200",
						"executionCost": "163",
						"totalCost": "116363"
					},
					"external": {
						"chainId()": "2461",
						"tokenBridge()": "infinite",
						"tokenBridgeAddress()": "2548"
					},
					"internal": {
						"consistencyLevel()": "infinite",
						"hubChainId()": "infinite",
						"hubContractAddress()": "infinite",
						"wormhole()": "infinite"
					}
				},
				"methodIdentifiers": {
					"chainId()": "9a8a0592",
					"tokenBridge()": "c6328a46",
					"tokenBridgeAddress()": "e1884919"
				}
			},
			"storageLayout": {
				"storage": [
					{
						"astId": 931,
						"contract": "example-2/evm/src/contracts/lendingSpoke/SpokeGetters.sol:SpokeGetters",
						"label": "_state",
						"offset": 0,
						"slot": "0",
						"type": "t_struct(State)927_storage"
					}
				],
				"types": {
					"t_address": {
						"encoding": "inplace",
						"label": "address",
						"numberOfBytes": "20"
					},
					"t_address_payable": {
						"encoding": "inplace",
						"label": "address payable",
						"numberOfBytes": "20"
					},
					"t_array(t_uint256)50_storage": {
						"base": "t_uint256",
						"encoding": "inplace",
						"label": "uint256[50]",
						"numberOfBytes": "1600"
					},
					"t_struct(Provider)913_storage": {
						"encoding": "inplace",
						"label": "struct SpokeStorage.Provider",
						"members": [
							{
								"astId": 908,
								"contract": "example-2/evm/src/contracts/lendingSpoke/SpokeGetters.sol:SpokeGetters",
								"label": "chainId",
								"offset": 0,
								"slot": "0",
								"type": "t_uint16"
							},
							{
								"astId": 910,
								"contract": "example-2/evm/src/contracts/lendingSpoke/SpokeGetters.sol:SpokeGetters",
								"label": "wormhole",
								"offset": 2,
								"slot": "0",
								"type": "t_address_payable"
							},
							{
								"astId": 912,
								"contract": "example-2/evm/src/contracts/lendingSpoke/SpokeGetters.sol:SpokeGetters",
								"label": "tokenBridge",
								"offset": 0,
								"slot": "1",
								"type": "t_address"
							}
						],
						"numberOfBytes": "64"
					},
					"t_struct(State)927_storage": {
						"encoding": "inplace",
						"label": "struct SpokeStorage.State",
						"members": [
							{
								"astId": 916,
								"contract": "example-2/evm/src/contracts/lendingSpoke/SpokeGetters.sol:SpokeGetters",
								"label": "provider",
								"offset": 0,
								"slot": "0",
								"type": "t_struct(Provider)913_storage"
							},
							{
								"astId": 918,
								"contract": "example-2/evm/src/contracts/lendingSpoke/SpokeGetters.sol:SpokeGetters",
								"label": "consistencyLevel",
								"offset": 0,
								"slot": "2",
								"type": "t_uint8"
							},
							{
								"astId": 920,
								"contract": "example-2/evm/src/contracts/lendingSpoke/SpokeGetters.sol:SpokeGetters",
								"label": "hubChainId",
								"offset": 1,
								"slot": "2",
								"type": "t_uint16"
							},
							{
								"astId": 922,
								"contract": "example-2/evm/src/contracts/lendingSpoke/SpokeGetters.sol:SpokeGetters",
								"label": "hubContractAddress",
								"offset": 3,
								"slot": "2",
								"type": "t_address"
							},
							{
								"astId": 926,
								"contract": "example-2/evm/src/contracts/lendingSpoke/SpokeGetters.sol:SpokeGetters",
								"label": "______gap",
								"offset": 0,
								"slot": "3",
								"type": "t_array(t_uint256)50_storage"
							}
						],
						"numberOfBytes": "1696"
					},
					"t_uint16": {
						"encoding": "inplace",
						"label": "uint16",
						"numberOfBytes": "2"
					},
					"t_uint256": {
						"encoding": "inplace",
						"label": "uint256",
						"numberOfBytes": "32"
					},
					"t_uint8": {
						"encoding": "inplace",
						"label": "uint8",
						"numberOfBytes": "1"
					}
				}
			},
			"userdoc": {
				"kind": "user",
				"methods": {},
				"version": 1
			}
		}
	}
}